{
  "contractName": "HasbuToken",
  "abi": [
    {
      "inputs": [],
      "stateMutability": "nonpayable",
      "type": "constructor"
    },
    {
      "anonymous": false,
      "inputs": [
        {
          "indexed": true,
          "internalType": "address",
          "name": "owner",
          "type": "address"
        },
        {
          "indexed": true,
          "internalType": "address",
          "name": "approved",
          "type": "address"
        },
        {
          "indexed": true,
          "internalType": "uint256",
          "name": "tokenId",
          "type": "uint256"
        }
      ],
      "name": "Approval",
      "type": "event"
    },
    {
      "anonymous": false,
      "inputs": [
        {
          "indexed": true,
          "internalType": "address",
          "name": "owner",
          "type": "address"
        },
        {
          "indexed": true,
          "internalType": "address",
          "name": "operator",
          "type": "address"
        },
        {
          "indexed": false,
          "internalType": "bool",
          "name": "approved",
          "type": "bool"
        }
      ],
      "name": "ApprovalForAll",
      "type": "event"
    },
    {
      "anonymous": false,
      "inputs": [
        {
          "indexed": true,
          "internalType": "address",
          "name": "previousOwner",
          "type": "address"
        },
        {
          "indexed": true,
          "internalType": "address",
          "name": "newOwner",
          "type": "address"
        }
      ],
      "name": "OwnershipTransferred",
      "type": "event"
    },
    {
      "anonymous": false,
      "inputs": [
        {
          "indexed": true,
          "internalType": "address",
          "name": "from",
          "type": "address"
        },
        {
          "indexed": true,
          "internalType": "address",
          "name": "to",
          "type": "address"
        },
        {
          "indexed": true,
          "internalType": "uint256",
          "name": "tokenId",
          "type": "uint256"
        }
      ],
      "name": "Transfer",
      "type": "event"
    },
    {
      "inputs": [
        {
          "internalType": "address",
          "name": "to",
          "type": "address"
        },
        {
          "internalType": "uint256",
          "name": "tokenId",
          "type": "uint256"
        }
      ],
      "name": "approve",
      "outputs": [],
      "stateMutability": "nonpayable",
      "type": "function"
    },
    {
      "inputs": [
        {
          "internalType": "address",
          "name": "owner",
          "type": "address"
        }
      ],
      "name": "balanceOf",
      "outputs": [
        {
          "internalType": "uint256",
          "name": "",
          "type": "uint256"
        }
      ],
      "stateMutability": "view",
      "type": "function",
      "constant": true
    },
    {
      "inputs": [
        {
          "internalType": "uint256",
          "name": "tokenId",
          "type": "uint256"
        }
      ],
      "name": "getApproved",
      "outputs": [
        {
          "internalType": "address",
          "name": "",
          "type": "address"
        }
      ],
      "stateMutability": "view",
      "type": "function",
      "constant": true
    },
    {
      "inputs": [
        {
          "internalType": "address",
          "name": "owner",
          "type": "address"
        },
        {
          "internalType": "address",
          "name": "operator",
          "type": "address"
        }
      ],
      "name": "isApprovedForAll",
      "outputs": [
        {
          "internalType": "bool",
          "name": "",
          "type": "bool"
        }
      ],
      "stateMutability": "view",
      "type": "function",
      "constant": true
    },
    {
      "inputs": [],
      "name": "name",
      "outputs": [
        {
          "internalType": "string",
          "name": "",
          "type": "string"
        }
      ],
      "stateMutability": "view",
      "type": "function",
      "constant": true
    },
    {
      "inputs": [],
      "name": "owner",
      "outputs": [
        {
          "internalType": "address",
          "name": "",
          "type": "address"
        }
      ],
      "stateMutability": "view",
      "type": "function",
      "constant": true
    },
    {
      "inputs": [
        {
          "internalType": "uint256",
          "name": "tokenId",
          "type": "uint256"
        }
      ],
      "name": "ownerOf",
      "outputs": [
        {
          "internalType": "address",
          "name": "",
          "type": "address"
        }
      ],
      "stateMutability": "view",
      "type": "function",
      "constant": true
    },
    {
      "inputs": [
        {
          "internalType": "address",
          "name": "from",
          "type": "address"
        },
        {
          "internalType": "address",
          "name": "to",
          "type": "address"
        },
        {
          "internalType": "uint256",
          "name": "tokenId",
          "type": "uint256"
        }
      ],
      "name": "safeTransferFrom",
      "outputs": [],
      "stateMutability": "nonpayable",
      "type": "function"
    },
    {
      "inputs": [
        {
          "internalType": "address",
          "name": "from",
          "type": "address"
        },
        {
          "internalType": "address",
          "name": "to",
          "type": "address"
        },
        {
          "internalType": "uint256",
          "name": "tokenId",
          "type": "uint256"
        },
        {
          "internalType": "bytes",
          "name": "data",
          "type": "bytes"
        }
      ],
      "name": "safeTransferFrom",
      "outputs": [],
      "stateMutability": "nonpayable",
      "type": "function"
    },
    {
      "inputs": [
        {
          "internalType": "address",
          "name": "operator",
          "type": "address"
        },
        {
          "internalType": "bool",
          "name": "approved",
          "type": "bool"
        }
      ],
      "name": "setApprovalForAll",
      "outputs": [],
      "stateMutability": "nonpayable",
      "type": "function"
    },
    {
      "inputs": [
        {
          "internalType": "bytes4",
          "name": "interfaceId",
          "type": "bytes4"
        }
      ],
      "name": "supportsInterface",
      "outputs": [
        {
          "internalType": "bool",
          "name": "",
          "type": "bool"
        }
      ],
      "stateMutability": "view",
      "type": "function",
      "constant": true
    },
    {
      "inputs": [],
      "name": "symbol",
      "outputs": [
        {
          "internalType": "string",
          "name": "",
          "type": "string"
        }
      ],
      "stateMutability": "view",
      "type": "function",
      "constant": true
    },
    {
      "inputs": [
        {
          "internalType": "address",
          "name": "from",
          "type": "address"
        },
        {
          "internalType": "address",
          "name": "to",
          "type": "address"
        },
        {
          "internalType": "uint256",
          "name": "tokenId",
          "type": "uint256"
        }
      ],
      "name": "transferFrom",
      "outputs": [],
      "stateMutability": "nonpayable",
      "type": "function"
    },
    {
      "inputs": [
        {
          "internalType": "address",
          "name": "newOwner",
          "type": "address"
        }
      ],
      "name": "transferOwnership",
      "outputs": [],
      "stateMutability": "nonpayable",
      "type": "function"
    },
    {
      "inputs": [
        {
          "internalType": "address",
          "name": "to",
          "type": "address"
        },
        {
          "internalType": "string",
          "name": "palabra",
          "type": "string"
        }
      ],
      "name": "mint",
      "outputs": [
        {
          "internalType": "uint256",
          "name": "",
          "type": "uint256"
        }
      ],
      "stateMutability": "nonpayable",
      "type": "function"
    },
    {
      "inputs": [
        {
          "internalType": "uint256",
          "name": "tokenId",
          "type": "uint256"
        }
      ],
      "name": "tokenURI",
      "outputs": [
        {
          "internalType": "string",
          "name": "",
          "type": "string"
        }
      ],
      "stateMutability": "view",
      "type": "function",
      "constant": true
    },
    {
      "inputs": [
        {
          "internalType": "string",
          "name": "word",
          "type": "string"
        },
        {
          "internalType": "string",
          "name": "uri",
          "type": "string"
        }
      ],
      "name": "addWord",
      "outputs": [],
      "stateMutability": "nonpayable",
      "type": "function"
    }
  ],
  "bytecode": "0x608060405260006007553480156200001657600080fd5b506040518060400160405280600881526020017f48617362754e46540000000000000000000000000000000000000000000000008152506040518060400160405280600381526020017f484153000000000000000000000000000000000000000000000000000000000081525081600090805190602001906200009b929190620000fe565b508060019080519060200190620000b4929190620000fe565b50505033600660006101000a81548173ffffffffffffffffffffffffffffffffffffffff021916908373ffffffffffffffffffffffffffffffffffffffff16021790555062000213565b8280546200010c90620001ae565b90600052602060002090601f0160209004810192826200013057600085556200017c565b82601f106200014b57805160ff19168380011785556200017c565b828001600101855582156200017c579182015b828111156200017b5782518255916020019190600101906200015e565b5b5090506200018b91906200018f565b5090565b5b80821115620001aa57600081600090555060010162000190565b5090565b60006002820490506001821680620001c757607f821691505b60208210811415620001de57620001dd620001e4565b5b50919050565b7f4e487b7100000000000000000000000000000000000000000000000000000000600052602260045260246000fd5b6129e180620002236000396000f3fe608060405234801561001057600080fd5b506004361061010b5760003560e01c80638da5cb5b116100a2578063b88d4fde11610071578063b88d4fde146102b6578063c87b56dd146102d2578063d0def52114610302578063e985e9c514610332578063f2fde38b146103625761010b565b80638da5cb5b1461024257806395d89b4114610260578063a22cb4651461027e578063ada2da511461029a5761010b565b806323b872dd116100de57806323b872dd146101aa57806342842e0e146101c65780636352211e146101e257806370a08231146102125761010b565b806301ffc9a71461011057806306fdde0314610140578063081812fc1461015e578063095ea7b31461018e575b600080fd5b61012a60048036038101906101259190611c57565b61037e565b60405161013791906120de565b60405180910390f35b610148610460565b60405161015591906120f9565b60405180910390f35b61017860048036038101906101739190611d29565b6104f2565b6040516101859190612077565b60405180910390f35b6101a860048036038101906101a39190611c17565b610538565b005b6101c460048036038101906101bf9190611aa5565b610650565b005b6101e060048036038101906101db9190611aa5565b6106b0565b005b6101fc60048036038101906101f79190611d29565b6106d0565b6040516102099190612077565b60405180910390f35b61022c60048036038101906102279190611a38565b610782565b604051610239919061229b565b60405180910390f35b61024a61083a565b6040516102579190612077565b60405180910390f35b610268610860565b60405161027591906120f9565b60405180910390f35b61029860048036038101906102939190611b7b565b6108f2565b005b6102b460048036038101906102af9190611cb1565b610908565b005b6102d060048036038101906102cb9190611af8565b610999565b005b6102ec60048036038101906102e79190611d29565b6109fb565b6040516102f991906120f9565b60405180910390f35b61031c60048036038101906103179190611bbb565b610af4565b604051610329919061229b565b60405180910390f35b61034c60048036038101906103479190611a65565b610bf4565b60405161035991906120de565b60405180910390f35b61037c60048036038101906103779190611a38565b610c88565b005b60007f80ac58cd000000000000000000000000000000000000000000000000000000007bffffffffffffffffffffffffffffffffffffffffffffffffffffffff1916827bffffffffffffffffffffffffffffffffffffffffffffffffffffffff1916148061044957507f5b5e139f000000000000000000000000000000000000000000000000000000007bffffffffffffffffffffffffffffffffffffffffffffffffffffffff1916827bffffffffffffffffffffffffffffffffffffffffffffffffffffffff1916145b80610459575061045882610ddc565b5b9050919050565b60606000805461046f906124d5565b80601f016020809104026020016040519081016040528092919081815260200182805461049b906124d5565b80156104e85780601f106104bd576101008083540402835291602001916104e8565b820191906000526020600020905b8154815290600101906020018083116104cb57829003601f168201915b5050505050905090565b60006104fd82610e46565b6004600083815260200190815260200160002060009054906101000a900473ffffffffffffffffffffffffffffffffffffffff169050919050565b6000610543826106d0565b90508073ffffffffffffffffffffffffffffffffffffffff168373ffffffffffffffffffffffffffffffffffffffff1614156105b4576040517f08c379a00000000000000000000000000000000000000000000000000000000081526004016105ab9061225b565b60405180910390fd5b8073ffffffffffffffffffffffffffffffffffffffff166105d3610e91565b73ffffffffffffffffffffffffffffffffffffffff1614806106025750610601816105fc610e91565b610bf4565b5b610641576040517f08c379a0000000000000000000000000000000000000000000000000000000008152600401610638906121db565b60405180910390fd5b61064b8383610e99565b505050565b61066161065b610e91565b82610f52565b6106a0576040517f08c379a00000000000000000000000000000000000000000000000000000000081526004016106979061227b565b60405180910390fd5b6106ab838383610fe7565b505050565b6106cb83838360405180602001604052806000815250610999565b505050565b6000806002600084815260200190815260200160002060009054906101000a900473ffffffffffffffffffffffffffffffffffffffff169050600073ffffffffffffffffffffffffffffffffffffffff168173ffffffffffffffffffffffffffffffffffffffff161415610779576040517f08c379a00000000000000000000000000000000000000000000000000000000081526004016107709061223b565b60405180910390fd5b80915050919050565b60008073ffffffffffffffffffffffffffffffffffffffff168273ffffffffffffffffffffffffffffffffffffffff1614156107f3576040517f08c379a00000000000000000000000000000000000000000000000000000000081526004016107ea906121bb565b60405180910390fd5b600360008373ffffffffffffffffffffffffffffffffffffffff1673ffffffffffffffffffffffffffffffffffffffff168152602001908152602001600020549050919050565b600660009054906101000a900473ffffffffffffffffffffffffffffffffffffffff1681565b60606001805461086f906124d5565b80601f016020809104026020016040519081016040528092919081815260200182805461089b906124d5565b80156108e85780601f106108bd576101008083540402835291602001916108e8565b820191906000526020600020905b8154815290600101906020018083116108cb57829003601f168201915b5050505050905090565b6109046108fd610e91565b8383611279565b5050565b600660009054906101000a900473ffffffffffffffffffffffffffffffffffffffff1673ffffffffffffffffffffffffffffffffffffffff163373ffffffffffffffffffffffffffffffffffffffff161461096257600080fd5b806009836040516109739190612049565b9081526020016040518091039020908051906020019061099492919061184c565b505050565b6109aa6109a4610e91565b83610f52565b6109e9576040517f08c379a00000000000000000000000000000000000000000000000000000000081526004016109e09061227b565b60405180910390fd5b6109f5848484846113e6565b50505050565b6060610a0682611442565b610a45576040517f08c379a0000000000000000000000000000000000000000000000000000000008152600401610a3c9061221b565b60405180910390fd5b60096008604051610a569190612060565b90815260200160405180910390208054610a6f906124d5565b80601f0160208091040260200160405190810160405280929190818152602001828054610a9b906124d5565b8015610ae85780601f10610abd57610100808354040283529160200191610ae8565b820191906000526020600020905b815481529060010190602001808311610acb57829003601f168201915b50505050509050919050565b6000600660009054906101000a900473ffffffffffffffffffffffffffffffffffffffff1673ffffffffffffffffffffffffffffffffffffffff163373ffffffffffffffffffffffffffffffffffffffff1614610b5057600080fd5b60076000815480929190610b6390612538565b9190505550610b74836007546114ae565b8160089080519060200190610b8a92919061184c565b506007548373ffffffffffffffffffffffffffffffffffffffff16600073ffffffffffffffffffffffffffffffffffffffff167fddf252ad1be2c89b69c2b068fc378daa952ba7f163c4a11628f55a4df523b3ef60405160405180910390a4600754905092915050565b6000600560008473ffffffffffffffffffffffffffffffffffffffff1673ffffffffffffffffffffffffffffffffffffffff16815260200190815260200160002060008373ffffffffffffffffffffffffffffffffffffffff1673ffffffffffffffffffffffffffffffffffffffff16815260200190815260200160002060009054906101000a900460ff16905092915050565b600660009054906101000a900473ffffffffffffffffffffffffffffffffffffffff1673ffffffffffffffffffffffffffffffffffffffff163373ffffffffffffffffffffffffffffffffffffffff1614610ce257600080fd5b600073ffffffffffffffffffffffffffffffffffffffff168173ffffffffffffffffffffffffffffffffffffffff161415610d1c57600080fd5b8073ffffffffffffffffffffffffffffffffffffffff16600660009054906101000a900473ffffffffffffffffffffffffffffffffffffffff1673ffffffffffffffffffffffffffffffffffffffff167f8be0079c531659141344cd1fd0a4f28419497f9722a3daafe3b4186f6b6457e060405160405180910390a380600660006101000a81548173ffffffffffffffffffffffffffffffffffffffff021916908373ffffffffffffffffffffffffffffffffffffffff16021790555050565b60007f01ffc9a7000000000000000000000000000000000000000000000000000000007bffffffffffffffffffffffffffffffffffffffffffffffffffffffff1916827bffffffffffffffffffffffffffffffffffffffffffffffffffffffff1916149050919050565b610e4f81611442565b610e8e576040517f08c379a0000000000000000000000000000000000000000000000000000000008152600401610e859061223b565b60405180910390fd5b50565b600033905090565b816004600083815260200190815260200160002060006101000a81548173ffffffffffffffffffffffffffffffffffffffff021916908373ffffffffffffffffffffffffffffffffffffffff160217905550808273ffffffffffffffffffffffffffffffffffffffff16610f0c836106d0565b73ffffffffffffffffffffffffffffffffffffffff167f8c5be1e5ebec7d5bd14f71427d1e84f3dd0314c0f7b2291e5b200ac8c7c3b92560405160405180910390a45050565b600080610f5e836106d0565b90508073ffffffffffffffffffffffffffffffffffffffff168473ffffffffffffffffffffffffffffffffffffffff161480610fa05750610f9f8185610bf4565b5b80610fde57508373ffffffffffffffffffffffffffffffffffffffff16610fc6846104f2565b73ffffffffffffffffffffffffffffffffffffffff16145b91505092915050565b8273ffffffffffffffffffffffffffffffffffffffff16611007826106d0565b73ffffffffffffffffffffffffffffffffffffffff161461105d576040517f08c379a00000000000000000000000000000000000000000000000000000000081526004016110549061213b565b60405180910390fd5b600073ffffffffffffffffffffffffffffffffffffffff168273ffffffffffffffffffffffffffffffffffffffff1614156110cd576040517f08c379a00000000000000000000000000000000000000000000000000000000081526004016110c49061217b565b60405180910390fd5b6110d8838383611688565b6004600082815260200190815260200160002060006101000a81549073ffffffffffffffffffffffffffffffffffffffff02191690556001600360008573ffffffffffffffffffffffffffffffffffffffff1673ffffffffffffffffffffffffffffffffffffffff168152602001908152602001600020600082825461115e91906123eb565b925050819055506001600360008473ffffffffffffffffffffffffffffffffffffffff1673ffffffffffffffffffffffffffffffffffffffff16815260200190815260200160002060008282546111b59190612395565b92505081905550816002600083815260200190815260200160002060006101000a81548173ffffffffffffffffffffffffffffffffffffffff021916908373ffffffffffffffffffffffffffffffffffffffff160217905550808273ffffffffffffffffffffffffffffffffffffffff168473ffffffffffffffffffffffffffffffffffffffff167fddf252ad1be2c89b69c2b068fc378daa952ba7f163c4a11628f55a4df523b3ef60405160405180910390a461127483838361168d565b505050565b8173ffffffffffffffffffffffffffffffffffffffff168373ffffffffffffffffffffffffffffffffffffffff1614156112e8576040517f08c379a00000000000000000000000000000000000000000000000000000000081526004016112df9061219b565b60405180910390fd5b80600560008573ffffffffffffffffffffffffffffffffffffffff1673ffffffffffffffffffffffffffffffffffffffff16815260200190815260200160002060008473ffffffffffffffffffffffffffffffffffffffff1673ffffffffffffffffffffffffffffffffffffffff16815260200190815260200160002060006101000a81548160ff0219169083151502179055508173ffffffffffffffffffffffffffffffffffffffff168373ffffffffffffffffffffffffffffffffffffffff167f17307eab39ab6107e8899845ad3d59bd9653f200f220920489ca2b5937696c31836040516113d991906120de565b60405180910390a3505050565b6113f1848484610fe7565b6113fd84848484611692565b61143c576040517f08c379a00000000000000000000000000000000000000000000000000000000081526004016114339061211b565b60405180910390fd5b50505050565b60008073ffffffffffffffffffffffffffffffffffffffff166002600084815260200190815260200160002060009054906101000a900473ffffffffffffffffffffffffffffffffffffffff1673ffffffffffffffffffffffffffffffffffffffff1614159050919050565b600073ffffffffffffffffffffffffffffffffffffffff168273ffffffffffffffffffffffffffffffffffffffff16141561151e576040517f08c379a0000000000000000000000000000000000000000000000000000000008152600401611515906121fb565b60405180910390fd5b61152781611442565b15611567576040517f08c379a000000000000000000000000000000000000000000000000000000000815260040161155e9061215b565b60405180910390fd5b61157360008383611688565b6001600360008473ffffffffffffffffffffffffffffffffffffffff1673ffffffffffffffffffffffffffffffffffffffff16815260200190815260200160002060008282546115c39190612395565b92505081905550816002600083815260200190815260200160002060006101000a81548173ffffffffffffffffffffffffffffffffffffffff021916908373ffffffffffffffffffffffffffffffffffffffff160217905550808273ffffffffffffffffffffffffffffffffffffffff16600073ffffffffffffffffffffffffffffffffffffffff167fddf252ad1be2c89b69c2b068fc378daa952ba7f163c4a11628f55a4df523b3ef60405160405180910390a46116846000838361168d565b5050565b505050565b505050565b60006116b38473ffffffffffffffffffffffffffffffffffffffff16611829565b1561181c578373ffffffffffffffffffffffffffffffffffffffff1663150b7a026116dc610e91565b8786866040518563ffffffff1660e01b81526004016116fe9493929190612092565b602060405180830381600087803b15801561171857600080fd5b505af192505050801561174957506040513d601f19601f820116820180604052508101906117469190611c84565b60015b6117cc573d8060008114611779576040519150601f19603f3d011682016040523d82523d6000602084013e61177e565b606091505b506000815114156117c4576040517f08c379a00000000000000000000000000000000000000000000000000000000081526004016117bb9061211b565b60405180910390fd5b805181602001fd5b63150b7a0260e01b7bffffffffffffffffffffffffffffffffffffffffffffffffffffffff1916817bffffffffffffffffffffffffffffffffffffffffffffffffffffffff191614915050611821565b600190505b949350505050565b6000808273ffffffffffffffffffffffffffffffffffffffff163b119050919050565b828054611858906124d5565b90600052602060002090601f01602090048101928261187a57600085556118c1565b82601f1061189357805160ff19168380011785556118c1565b828001600101855582156118c1579182015b828111156118c05782518255916020019190600101906118a5565b5b5090506118ce91906118d2565b5090565b5b808211156118eb5760008160009055506001016118d3565b5090565b60006119026118fd846122db565b6122b6565b90508281526020810184848401111561191e5761191d612613565b5b611929848285612493565b509392505050565b600061194461193f8461230c565b6122b6565b9050828152602081018484840111156119605761195f612613565b5b61196b848285612493565b509392505050565b6000813590506119828161294f565b92915050565b60008135905061199781612966565b92915050565b6000813590506119ac8161297d565b92915050565b6000815190506119c18161297d565b92915050565b600082601f8301126119dc576119db61260e565b5b81356119ec8482602086016118ef565b91505092915050565b600082601f830112611a0a57611a0961260e565b5b8135611a1a848260208601611931565b91505092915050565b600081359050611a3281612994565b92915050565b600060208284031215611a4e57611a4d61261d565b5b6000611a5c84828501611973565b91505092915050565b60008060408385031215611a7c57611a7b61261d565b5b6000611a8a85828601611973565b9250506020611a9b85828601611973565b9150509250929050565b600080600060608486031215611abe57611abd61261d565b5b6000611acc86828701611973565b9350506020611add86828701611973565b9250506040611aee86828701611a23565b9150509250925092565b60008060008060808587031215611b1257611b1161261d565b5b6000611b2087828801611973565b9450506020611b3187828801611973565b9350506040611b4287828801611a23565b925050606085013567ffffffffffffffff811115611b6357611b62612618565b5b611b6f878288016119c7565b91505092959194509250565b60008060408385031215611b9257611b9161261d565b5b6000611ba085828601611973565b9250506020611bb185828601611988565b9150509250929050565b60008060408385031215611bd257611bd161261d565b5b6000611be085828601611973565b925050602083013567ffffffffffffffff811115611c0157611c00612618565b5b611c0d858286016119f5565b9150509250929050565b60008060408385031215611c2e57611c2d61261d565b5b6000611c3c85828601611973565b9250506020611c4d85828601611a23565b9150509250929050565b600060208284031215611c6d57611c6c61261d565b5b6000611c7b8482850161199d565b91505092915050565b600060208284031215611c9a57611c9961261d565b5b6000611ca8848285016119b2565b91505092915050565b60008060408385031215611cc857611cc761261d565b5b600083013567ffffffffffffffff811115611ce657611ce5612618565b5b611cf2858286016119f5565b925050602083013567ffffffffffffffff811115611d1357611d12612618565b5b611d1f858286016119f5565b9150509250929050565b600060208284031215611d3f57611d3e61261d565b5b6000611d4d84828501611a23565b91505092915050565b611d5f8161241f565b82525050565b611d6e81612431565b82525050565b6000611d7f82612352565b611d898185612368565b9350611d998185602086016124a2565b611da281612622565b840191505092915050565b6000611db88261235d565b611dc28185612379565b9350611dd28185602086016124a2565b611ddb81612622565b840191505092915050565b6000611df18261235d565b611dfb818561238a565b9350611e0b8185602086016124a2565b80840191505092915050565b60008154611e24816124d5565b611e2e818661238a565b94506001821660008114611e495760018114611e5a57611e8d565b60ff19831686528186019350611e8d565b611e638561233d565b60005b83811015611e8557815481890152600182019150602081019050611e66565b838801955050505b50505092915050565b6000611ea3603283612379565b9150611eae82612633565b604082019050919050565b6000611ec6602583612379565b9150611ed182612682565b604082019050919050565b6000611ee9601c83612379565b9150611ef4826126d1565b602082019050919050565b6000611f0c602483612379565b9150611f17826126fa565b604082019050919050565b6000611f2f601983612379565b9150611f3a82612749565b602082019050919050565b6000611f52602983612379565b9150611f5d82612772565b604082019050919050565b6000611f75603e83612379565b9150611f80826127c1565b604082019050919050565b6000611f98602083612379565b9150611fa382612810565b602082019050919050565b6000611fbb602f83612379565b9150611fc682612839565b604082019050919050565b6000611fde601883612379565b9150611fe982612888565b602082019050919050565b6000612001602183612379565b915061200c826128b1565b604082019050919050565b6000612024602e83612379565b915061202f82612900565b604082019050919050565b61204381612489565b82525050565b60006120558284611de6565b915081905092915050565b600061206c8284611e17565b915081905092915050565b600060208201905061208c6000830184611d56565b92915050565b60006080820190506120a76000830187611d56565b6120b46020830186611d56565b6120c1604083018561203a565b81810360608301526120d38184611d74565b905095945050505050565b60006020820190506120f36000830184611d65565b92915050565b600060208201905081810360008301526121138184611dad565b905092915050565b6000602082019050818103600083015261213481611e96565b9050919050565b6000602082019050818103600083015261215481611eb9565b9050919050565b6000602082019050818103600083015261217481611edc565b9050919050565b6000602082019050818103600083015261219481611eff565b9050919050565b600060208201905081810360008301526121b481611f22565b9050919050565b600060208201905081810360008301526121d481611f45565b9050919050565b600060208201905081810360008301526121f481611f68565b9050919050565b6000602082019050818103600083015261221481611f8b565b9050919050565b6000602082019050818103600083015261223481611fae565b9050919050565b6000602082019050818103600083015261225481611fd1565b9050919050565b6000602082019050818103600083015261227481611ff4565b9050919050565b6000602082019050818103600083015261229481612017565b9050919050565b60006020820190506122b0600083018461203a565b92915050565b60006122c06122d1565b90506122cc8282612507565b919050565b6000604051905090565b600067ffffffffffffffff8211156122f6576122f56125df565b5b6122ff82612622565b9050602081019050919050565b600067ffffffffffffffff821115612327576123266125df565b5b61233082612622565b9050602081019050919050565b60008190508160005260206000209050919050565b600081519050919050565b600081519050919050565b600082825260208201905092915050565b600082825260208201905092915050565b600081905092915050565b60006123a082612489565b91506123ab83612489565b9250827fffffffffffffffffffffffffffffffffffffffffffffffffffffffffffffffff038211156123e0576123df612581565b5b828201905092915050565b60006123f682612489565b915061240183612489565b92508282101561241457612413612581565b5b828203905092915050565b600061242a82612469565b9050919050565b60008115159050919050565b60007fffffffff0000000000000000000000000000000000000000000000000000000082169050919050565b600073ffffffffffffffffffffffffffffffffffffffff82169050919050565b6000819050919050565b82818337600083830152505050565b60005b838110156124c05780820151818401526020810190506124a5565b838111156124cf576000848401525b50505050565b600060028204905060018216806124ed57607f821691505b60208210811415612501576125006125b0565b5b50919050565b61251082612622565b810181811067ffffffffffffffff8211171561252f5761252e6125df565b5b80604052505050565b600061254382612489565b91507fffffffffffffffffffffffffffffffffffffffffffffffffffffffffffffffff82141561257657612575612581565b5b600182019050919050565b7f4e487b7100000000000000000000000000000000000000000000000000000000600052601160045260246000fd5b7f4e487b7100000000000000000000000000000000000000000000000000000000600052602260045260246000fd5b7f4e487b7100000000000000000000000000000000000000000000000000000000600052604160045260246000fd5b600080fd5b600080fd5b600080fd5b600080fd5b6000601f19601f8301169050919050565b7f4552433732313a207472616e7366657220746f206e6f6e20455243373231526560008201527f63656976657220696d706c656d656e7465720000000000000000000000000000602082015250565b7f4552433732313a207472616e736665722066726f6d20696e636f72726563742060008201527f6f776e6572000000000000000000000000000000000000000000000000000000602082015250565b7f4552433732313a20746f6b656e20616c7265616479206d696e74656400000000600082015250565b7f4552433732313a207472616e7366657220746f20746865207a65726f2061646460008201527f7265737300000000000000000000000000000000000000000000000000000000602082015250565b7f4552433732313a20617070726f766520746f2063616c6c657200000000000000600082015250565b7f4552433732313a2061646472657373207a65726f206973206e6f74206120766160008201527f6c6964206f776e65720000000000000000000000000000000000000000000000602082015250565b7f4552433732313a20617070726f76652063616c6c6572206973206e6f7420746f60008201527f6b656e206f776e6572206e6f7220617070726f76656420666f7220616c6c0000602082015250565b7f4552433732313a206d696e7420746f20746865207a65726f2061646472657373600082015250565b7f4552433732314d657461646174613a2055524920717565727920666f72206e6f60008201527f6e6578697374656e7420746f6b656e0000000000000000000000000000000000602082015250565b7f4552433732313a20696e76616c696420746f6b656e2049440000000000000000600082015250565b7f4552433732313a20617070726f76616c20746f2063757272656e74206f776e6560008201527f7200000000000000000000000000000000000000000000000000000000000000602082015250565b7f4552433732313a2063616c6c6572206973206e6f7420746f6b656e206f776e6560008201527f72206e6f7220617070726f766564000000000000000000000000000000000000602082015250565b6129588161241f565b811461296357600080fd5b50565b61296f81612431565b811461297a57600080fd5b50565b6129868161243d565b811461299157600080fd5b50565b61299d81612489565b81146129a857600080fd5b5056fea264697066735822122062c683b24f6a930aa3f8c54f62f9099de39956c8e9dfbb211b7fa8c32af859e464736f6c63430008070033",
  "immutableReferences": {},
  "source": "// SPDX-License-Identifier: GPL-3.0\r\npragma solidity ^0.8.0;\r\n\r\nimport \"./OpenZeppelin/ERC721/ERC721.sol\";\r\nimport \"./Ownable.sol\";\r\n\r\ncontract HasbuToken is ERC721, Ownable{\r\n\r\n    uint256 token_count=0;\r\n    string str;\r\n    mapping(string => string) ipfs; \r\n\r\n    constructor() ERC721(\"HasbuNFT\", \"HAS\") {\r\n    }\r\n\r\n\r\n\r\n  /**\r\n    * Crea un numero NFT en la address dada, solo el dueo del contrato puede llamar a esto\r\n    */\r\n    function mint(address to, string memory palabra) public onlyOwner returns(uint256){\r\n        token_count++;\r\n        _mint(to, token_count);\r\n        str = palabra;\r\n\r\n        emit Transfer(address(0), to, token_count);\r\n        return token_count;\r\n    }\r\n\r\n\r\n     /**\r\n    * override para setear un propio URI\r\n    */\r\n      function tokenURI(uint256 tokenId) public view virtual override returns (string memory) {\r\n        require(_exists(tokenId), \"ERC721Metadata: URI query for nonexistent token\");\r\n        return ipfs[str];\r\n    }\r\n\r\n\r\n  /**\r\n    * funcion para agregar el URI de una palabra nueva\r\n    */\r\n      function addWord(string memory word, string memory uri) public onlyOwner{\r\n        ipfs[word] = uri;\r\n    }\r\n\r\n\r\n}",
  "sourcePath": "C:\\Users\\Manu\\Desktop\\tp TDL\\clonado19 1554\\tdl-solidity\\contracts\\HasbuToken.sol",
  "compiler": {
    "name": "solc",
    "version": "0.8.7+commit.e28d00a7.Emscripten.clang"
  },
  "schemaVersion": "3.4.7",
  "updatedAt": "2022-07-21T13:44:58.779Z",
  "networkType": "ethereum",
  "devdoc": {
    "kind": "dev",
    "methods": {
      "approve(address,uint256)": {
        "details": "See {IERC721-approve}."
      },
      "balanceOf(address)": {
        "details": "See {IERC721-balanceOf}."
      },
      "getApproved(uint256)": {
        "details": "See {IERC721-getApproved}."
      },
      "isApprovedForAll(address,address)": {
        "details": "See {IERC721-isApprovedForAll}."
      },
      "name()": {
        "details": "See {IERC721Metadata-name}."
      },
      "ownerOf(uint256)": {
        "details": "See {IERC721-ownerOf}."
      },
      "safeTransferFrom(address,address,uint256)": {
        "details": "See {IERC721-safeTransferFrom}."
      },
      "safeTransferFrom(address,address,uint256,bytes)": {
        "details": "See {IERC721-safeTransferFrom}."
      },
      "setApprovalForAll(address,bool)": {
        "details": "See {IERC721-setApprovalForAll}."
      },
      "supportsInterface(bytes4)": {
        "details": "See {IERC165-supportsInterface}."
      },
      "symbol()": {
        "details": "See {IERC721Metadata-symbol}."
      },
      "transferFrom(address,address,uint256)": {
        "details": "See {IERC721-transferFrom}."
      },
      "transferOwnership(address)": {
        "details": "Allows the current owner to transfer control of the contract to a newOwner.",
        "params": {
          "newOwner": "The address to transfer ownership to."
        }
      }
    },
    "version": 1
  },
  "userdoc": {
    "kind": "user",
    "methods": {
      "addWord(string,string)": {
        "notice": "funcion para agregar el URI de una palabra nueva"
      },
      "mint(address,string)": {
        "notice": "Crea un numero NFT en la address dada, solo el dueo del contrato puede llamar a esto"
      },
      "tokenURI(uint256)": {
        "notice": "override para setear un propio URI"
      }
    },
    "version": 1
  }
}