{
  "contractName": "Word",
  "abi": [
    {
      "inputs": [
        {
          "internalType": "string",
          "name": "s",
          "type": "string"
        }
      ],
      "stateMutability": "nonpayable",
      "type": "constructor"
    },
    {
      "anonymous": false,
      "inputs": [
        {
          "indexed": false,
          "internalType": "string",
          "name": "mask",
          "type": "string"
        }
      ],
      "name": "stringEmitted",
      "type": "event"
    },
    {
      "inputs": [
        {
          "internalType": "string",
          "name": "l",
          "type": "string"
        }
      ],
      "name": "index",
      "outputs": [
        {
          "internalType": "string",
          "name": "",
          "type": "string"
        }
      ],
      "stateMutability": "nonpayable",
      "type": "function"
    },
    {
      "inputs": [
        {
          "internalType": "string",
          "name": "p",
          "type": "string"
        }
      ],
      "name": "chequearPalabra",
      "outputs": [
        {
          "internalType": "bool",
          "name": "",
          "type": "bool"
        }
      ],
      "stateMutability": "view",
      "type": "function",
      "constant": true
    }
  ],
  "bytecode": "0x60806040523480156200001157600080fd5b5060405162000cdf38038062000cdf83398181016040528101906200003791906200019c565b80600090805190602001906200004f9291906200006e565b50600080546200005f9062000282565b90506001819055505062000371565b8280546200007c9062000282565b90600052602060002090601f016020900481019282620000a05760008555620000ec565b82601f10620000bb57805160ff1916838001178555620000ec565b82800160010185558215620000ec579182015b82811115620000eb578251825591602001919060010190620000ce565b5b509050620000fb9190620000ff565b5090565b5b808211156200011a57600081600090555060010162000100565b5090565b6000620001356200012f8462000216565b620001ed565b90508281526020810184848401111562000154576200015362000351565b5b620001618482856200024c565b509392505050565b600082601f8301126200018157620001806200034c565b5b8151620001938482602086016200011e565b91505092915050565b600060208284031215620001b557620001b46200035b565b5b600082015167ffffffffffffffff811115620001d657620001d562000356565b5b620001e48482850162000169565b91505092915050565b6000620001f96200020c565b9050620002078282620002b8565b919050565b6000604051905090565b600067ffffffffffffffff8211156200023457620002336200031d565b5b6200023f8262000360565b9050602081019050919050565b60005b838110156200026c5780820151818401526020810190506200024f565b838111156200027c576000848401525b50505050565b600060028204905060018216806200029b57607f821691505b60208210811415620002b257620002b1620002ee565b5b50919050565b620002c38262000360565b810181811067ffffffffffffffff82111715620002e557620002e46200031d565b5b80604052505050565b7f4e487b7100000000000000000000000000000000000000000000000000000000600052602260045260246000fd5b7f4e487b7100000000000000000000000000000000000000000000000000000000600052604160045260246000fd5b600080fd5b600080fd5b600080fd5b600080fd5b6000601f19601f8301169050919050565b61095e80620003816000396000f3fe608060405234801561001057600080fd5b50600436106100365760003560e01c8063b587e20a1461003b578063f5db08d91461006b575b600080fd5b610055600480360381019061005091906104c3565b61009b565b60405161006291906105ea565b60405180910390f35b610085600480360381019061008091906104c3565b6100c3565b6040516100929190610605565b60405180910390f35b6000806040516100ab91906105d3565b60405180910390208280519060200120149050919050565b60608060008060015467ffffffffffffffff8111156100e5576100e46108d4565b5b6040519080825280601f01601f1916602001820160405280156101175781602001600182028036833780820191505090505b5090506000600190505b60015481116102f5576101bf81826000805461013c9061079b565b80601f01602080910402602001604051908101604052809291908181526020018280546101689061079b565b80156101b55780601f1061018a576101008083540402835291602001916101b5565b820191906000526020600020905b81548152906001019060200180831161019857829003601f168201915b505050505061033e565b935085805190602001208480519060200120141561023d57836000815181106101eb576101ea6108a5565b5b602001015160f81c60f81b828481518110610209576102086108a5565b5b60200101907effffffffffffffffffffffffffffffffffffffffffffffffffffffffffffff1916908160001a9053506102d4565b6040518060400160405280600181526020017f2d00000000000000000000000000000000000000000000000000000000000000815250600081518110610286576102856108a5565b5b602001015160f81c60f81b8284815181106102a4576102a36108a5565b5b60200101907effffffffffffffffffffffffffffffffffffffffffffffffffffffffffffff1916908160001a9053505b82806102df906107fe565b93505080806102ed906107fe565b915050610121565b5060008190507fe0946fc24725e44d3504b73816ee9a9bad8140f33101592fc0590d704d0495188160405161032a9190610605565b60405180910390a180945050505050919050565b6060600060018585610350919061070f565b61035a91906106b9565b67ffffffffffffffff811115610373576103726108d4565b5b6040519080825280601f01601f1916602001820160405280156103a55781602001600182028036833780820191505090505b50905060005b85856103b7919061070f565b81116104475783600187836103cc91906106b9565b6103d6919061070f565b815181106103e7576103e66108a5565b5b602001015160f81c60f81b828281518110610405576104046108a5565b5b60200101907effffffffffffffffffffffffffffffffffffffffffffffffffffffffffffff1916908160001a905350808061043f906107fe565b9150506103ab565b50809150509392505050565b60006104666104618461064c565b610627565b90508281526020810184848401111561048257610481610908565b5b61048d848285610759565b509392505050565b600082601f8301126104aa576104a9610903565b5b81356104ba848260208601610453565b91505092915050565b6000602082840312156104d9576104d8610912565b5b600082013567ffffffffffffffff8111156104f7576104f661090d565b5b61050384828501610495565b91505092915050565b61051581610743565b82525050565b600081546105288161079b565b610532818661069d565b9450600182166000811461054d576001811461055e57610591565b60ff19831686528186019350610591565b6105678561067d565b60005b838110156105895781548189015260018201915060208101905061056a565b838801955050505b50505092915050565b60006105a582610692565b6105af81856106a8565b93506105bf818560208601610768565b6105c881610917565b840191505092915050565b60006105df828461051b565b915081905092915050565b60006020820190506105ff600083018461050c565b92915050565b6000602082019050818103600083015261061f818461059a565b905092915050565b6000610631610642565b905061063d82826107cd565b919050565b6000604051905090565b600067ffffffffffffffff821115610667576106666108d4565b5b61067082610917565b9050602081019050919050565b60008190508160005260206000209050919050565b600081519050919050565b600081905092915050565b600082825260208201905092915050565b60006106c48261074f565b91506106cf8361074f565b9250827fffffffffffffffffffffffffffffffffffffffffffffffffffffffffffffffff0382111561070457610703610847565b5b828201905092915050565b600061071a8261074f565b91506107258361074f565b92508282101561073857610737610847565b5b828203905092915050565b60008115159050919050565b6000819050919050565b82818337600083830152505050565b60005b8381101561078657808201518184015260208101905061076b565b83811115610795576000848401525b50505050565b600060028204905060018216806107b357607f821691505b602082108114156107c7576107c6610876565b5b50919050565b6107d682610917565b810181811067ffffffffffffffff821117156107f5576107f46108d4565b5b80604052505050565b60006108098261074f565b91507fffffffffffffffffffffffffffffffffffffffffffffffffffffffffffffffff82141561083c5761083b610847565b5b600182019050919050565b7f4e487b7100000000000000000000000000000000000000000000000000000000600052601160045260246000fd5b7f4e487b7100000000000000000000000000000000000000000000000000000000600052602260045260246000fd5b7f4e487b7100000000000000000000000000000000000000000000000000000000600052603260045260246000fd5b7f4e487b7100000000000000000000000000000000000000000000000000000000600052604160045260246000fd5b600080fd5b600080fd5b600080fd5b600080fd5b6000601f19601f830116905091905056fea2646970667358221220359cb36b4abb7d51655c4952d21024ff4bbee830303a69c5df91f893a4c1256d64736f6c63430008070033",
  "immutableReferences": {},
  "source": "// SPDX-License-Identifier: GPL-3.0\r\npragma solidity >=0.6.0  <0.9.0;\r\n\r\ncontract Word {\r\n\r\n    string str;\r\n    uint len;\r\n\r\n\r\n    constructor(string memory s){\r\n        str = s;\r\n        len = bytes(str).length;\r\n    }\r\n\r\n    event stringEmitted(string mask); \r\n\r\n\r\n    /**\r\n     * funcion para obtener un slice de un string\r\n     */\r\n    function getSlice(uint256 begin, uint256 end, string memory text) private pure returns (string memory) {\r\n        bytes memory a = new bytes(end-begin+1);\r\n        for(uint i=0;i<=end-begin;i++){\r\n            a[i] = bytes(text)[i+begin-1];\r\n        }\r\n        return string(a);    \r\n    }\r\n\r\n    /**\r\n     * funcion que dada una letra devuelve una mascara con la letra si esta en esa posicion\r\n     * caso contrario devuelve -\r\n     */\r\n    function index(string memory l) public returns(string memory){\r\n\r\n        string memory s;\r\n        uint k=0;\r\n        bytes memory ind = new bytes(len);\r\n\r\n        for(uint i = 1; i <= len; i++) {\r\n            s = getSlice(i,i,str);\r\n            if(keccak256(bytes(s)) == keccak256(bytes(l)))\r\n                ind[k] = bytes(s)[0];\r\n            else\r\n                ind[k] = bytes(\"-\")[0];\r\n            k++;\r\n        }\r\n        string memory mask = string(ind);\r\n        emit stringEmitted(mask);\r\n        return mask;\r\n        \r\n    }\r\n\r\n    /**\r\n     * retorna un booleano al ver si coinciden los strings\r\n     */\r\n\r\n    function chequearPalabra(string memory p) public view returns (bool){\r\n        return (keccak256(bytes(p)) == keccak256(bytes(str)));\r\n    }\r\n}",
  "sourcePath": "C:\\Users\\Manu\\Desktop\\tp TDL\\clonado19 1554\\tdl-solidity\\contracts\\Word.sol",
  "compiler": {
    "name": "solc",
    "version": "0.8.7+commit.e28d00a7.Emscripten.clang"
  },
  "schemaVersion": "3.4.7",
  "updatedAt": "2022-07-20T21:44:06.643Z",
  "networkType": "ethereum",
  "devdoc": {
    "kind": "dev",
    "methods": {},
    "version": 1
  },
  "userdoc": {
    "kind": "user",
    "methods": {
      "chequearPalabra(string)": {
        "notice": "retorna un booleano al ver si coinciden los strings"
      },
      "index(string)": {
        "notice": "funcion que dada una letra devuelve una mascara con la letra si esta en esa posicion caso contrario devuelve -"
      }
    },
    "version": 1
  }
}