{
	"contracts/erc20.sol": {
		"OzToken": {
			"abi": [
				{
					"inputs": [],
					"stateMutability": "nonpayable",
					"type": "constructor"
				},
				{
					"anonymous": false,
					"inputs": [
						{
							"indexed": true,
							"internalType": "address",
							"name": "owner",
							"type": "address"
						},
						{
							"indexed": true,
							"internalType": "address",
							"name": "spender",
							"type": "address"
						},
						{
							"indexed": false,
							"internalType": "uint256",
							"name": "value",
							"type": "uint256"
						}
					],
					"name": "Approval",
					"type": "event"
				},
				{
					"anonymous": false,
					"inputs": [
						{
							"indexed": true,
							"internalType": "address",
							"name": "from",
							"type": "address"
						},
						{
							"indexed": true,
							"internalType": "address",
							"name": "to",
							"type": "address"
						},
						{
							"indexed": false,
							"internalType": "uint256",
							"name": "value",
							"type": "uint256"
						}
					],
					"name": "Transfer",
					"type": "event"
				},
				{
					"inputs": [
						{
							"internalType": "address",
							"name": "_minter",
							"type": "address"
						}
					],
					"name": "addMinter",
					"outputs": [],
					"stateMutability": "nonpayable",
					"type": "function"
				},
				{
					"inputs": [
						{
							"internalType": "address",
							"name": "owner",
							"type": "address"
						},
						{
							"internalType": "address",
							"name": "spender",
							"type": "address"
						}
					],
					"name": "allowance",
					"outputs": [
						{
							"internalType": "uint256",
							"name": "",
							"type": "uint256"
						}
					],
					"stateMutability": "view",
					"type": "function"
				},
				{
					"inputs": [
						{
							"internalType": "address",
							"name": "spender",
							"type": "address"
						},
						{
							"internalType": "uint256",
							"name": "amount",
							"type": "uint256"
						}
					],
					"name": "approve",
					"outputs": [
						{
							"internalType": "bool",
							"name": "",
							"type": "bool"
						}
					],
					"stateMutability": "nonpayable",
					"type": "function"
				},
				{
					"inputs": [
						{
							"internalType": "address",
							"name": "account",
							"type": "address"
						}
					],
					"name": "balanceOf",
					"outputs": [
						{
							"internalType": "uint256",
							"name": "",
							"type": "uint256"
						}
					],
					"stateMutability": "view",
					"type": "function"
				},
				{
					"inputs": [
						{
							"internalType": "uint256",
							"name": "amount",
							"type": "uint256"
						}
					],
					"name": "burn",
					"outputs": [],
					"stateMutability": "nonpayable",
					"type": "function"
				},
				{
					"inputs": [],
					"name": "decimals",
					"outputs": [
						{
							"internalType": "uint8",
							"name": "",
							"type": "uint8"
						}
					],
					"stateMutability": "view",
					"type": "function"
				},
				{
					"inputs": [
						{
							"internalType": "address",
							"name": "spender",
							"type": "address"
						},
						{
							"internalType": "uint256",
							"name": "subtractedValue",
							"type": "uint256"
						}
					],
					"name": "decreaseAllowance",
					"outputs": [
						{
							"internalType": "bool",
							"name": "",
							"type": "bool"
						}
					],
					"stateMutability": "nonpayable",
					"type": "function"
				},
				{
					"inputs": [
						{
							"internalType": "address",
							"name": "spender",
							"type": "address"
						},
						{
							"internalType": "uint256",
							"name": "addedValue",
							"type": "uint256"
						}
					],
					"name": "increaseAllowance",
					"outputs": [
						{
							"internalType": "bool",
							"name": "",
							"type": "bool"
						}
					],
					"stateMutability": "nonpayable",
					"type": "function"
				},
				{
					"inputs": [
						{
							"internalType": "address",
							"name": "account",
							"type": "address"
						},
						{
							"internalType": "uint256",
							"name": "amount",
							"type": "uint256"
						}
					],
					"name": "mint",
					"outputs": [],
					"stateMutability": "nonpayable",
					"type": "function"
				},
				{
					"inputs": [
						{
							"internalType": "address",
							"name": "",
							"type": "address"
						}
					],
					"name": "minters",
					"outputs": [
						{
							"internalType": "bool",
							"name": "",
							"type": "bool"
						}
					],
					"stateMutability": "view",
					"type": "function"
				},
				{
					"inputs": [],
					"name": "name",
					"outputs": [
						{
							"internalType": "string",
							"name": "",
							"type": "string"
						}
					],
					"stateMutability": "view",
					"type": "function"
				},
				{
					"inputs": [
						{
							"internalType": "address",
							"name": "_minter",
							"type": "address"
						}
					],
					"name": "removeMinter",
					"outputs": [],
					"stateMutability": "nonpayable",
					"type": "function"
				},
				{
					"inputs": [
						{
							"internalType": "address",
							"name": "_tokenOwner",
							"type": "address"
						}
					],
					"name": "setTokenOwner",
					"outputs": [],
					"stateMutability": "nonpayable",
					"type": "function"
				},
				{
					"inputs": [],
					"name": "symbol",
					"outputs": [
						{
							"internalType": "string",
							"name": "",
							"type": "string"
						}
					],
					"stateMutability": "view",
					"type": "function"
				},
				{
					"inputs": [],
					"name": "tokenOwner",
					"outputs": [
						{
							"internalType": "address",
							"name": "",
							"type": "address"
						}
					],
					"stateMutability": "view",
					"type": "function"
				},
				{
					"inputs": [],
					"name": "totalSupply",
					"outputs": [
						{
							"internalType": "uint256",
							"name": "",
							"type": "uint256"
						}
					],
					"stateMutability": "view",
					"type": "function"
				},
				{
					"inputs": [
						{
							"internalType": "address",
							"name": "recipient",
							"type": "address"
						},
						{
							"internalType": "uint256",
							"name": "amount",
							"type": "uint256"
						}
					],
					"name": "transfer",
					"outputs": [
						{
							"internalType": "bool",
							"name": "",
							"type": "bool"
						}
					],
					"stateMutability": "nonpayable",
					"type": "function"
				},
				{
					"inputs": [
						{
							"internalType": "address",
							"name": "sender",
							"type": "address"
						},
						{
							"internalType": "address",
							"name": "recipient",
							"type": "address"
						},
						{
							"internalType": "uint256",
							"name": "amount",
							"type": "uint256"
						}
					],
					"name": "transferFrom",
					"outputs": [
						{
							"internalType": "bool",
							"name": "",
							"type": "bool"
						}
					],
					"stateMutability": "nonpayable",
					"type": "function"
				}
			],
			"devdoc": {
				"kind": "dev",
				"methods": {},
				"version": 1
			},
			"evm": {
				"assembly": "    /* \"contracts/erc20.sol\":7303:8445  contract OzToken is ERC20, ERC20Detailed {\r... */\n  mstore(0x40, 0x80)\n    /* \"contracts/erc20.sol\":7531:7689  constructor () ERC20Detailed(\"Oz Token\", \"OZT\", 0) {\r... */\n  callvalue\n  dup1\n  iszero\n  tag_1\n  jumpi\n  0x00\n  dup1\n  revert\ntag_1:\n  pop\n    /* \"contracts/erc20.sol\":4094:4254  constructor (string memory name, string memory symbol, uint8 decimals) {\r... */\n  mload(0x40)\n  dup1\n  0x40\n  add\n  0x40\n  mstore\n  dup1\n  0x08\n  dup2\n  mstore\n  0x20\n  add\n  0x4f7a20546f6b656e000000000000000000000000000000000000000000000000\n  dup2\n  mstore\n  pop\n  mload(0x40)\n  dup1\n  0x40\n  add\n  0x40\n  mstore\n  dup1\n  0x03\n  dup2\n  mstore\n  0x20\n  add\n  0x4f5a540000000000000000000000000000000000000000000000000000000000\n  dup2\n  mstore\n  pop\n    /* \"contracts/erc20.sol\":7579:7580  0 */\n  0x00\n    /* \"contracts/erc20.sol\":4184:4188  name */\n  dup3\n    /* \"contracts/erc20.sol\":4176:4181  _name */\n  0x03\n    /* \"contracts/erc20.sol\":4176:4188  _name = name */\n  swap1\n  dup1\n  mload\n  swap1\n  0x20\n  add\n  swap1\n  tag_5\n  swap3\n  swap2\n  swap1\n  tag_6\n  jump\t// in\ntag_5:\n  pop\n    /* \"contracts/erc20.sol\":4209:4215  symbol */\n  dup2\n    /* \"contracts/erc20.sol\":4199:4206  _symbol */\n  0x04\n    /* \"contracts/erc20.sol\":4199:4215  _symbol = symbol */\n  swap1\n  dup1\n  mload\n  swap1\n  0x20\n  add\n  swap1\n  tag_7\n  swap3\n  swap2\n  swap1\n  tag_6\n  jump\t// in\ntag_7:\n  pop\n    /* \"contracts/erc20.sol\":4238:4246  decimals */\n  dup1\n    /* \"contracts/erc20.sol\":4226:4235  _decimals */\n  0x05\n  0x00\n    /* \"contracts/erc20.sol\":4226:4246  _decimals = decimals */\n  0x0100\n  exp\n  dup2\n  sload\n  dup2\n  0xff\n  mul\n  not\n  and\n  swap1\n  dup4\n  0xff\n  and\n  mul\n  or\n  swap1\n  sstore\n  pop\n    /* \"contracts/erc20.sol\":4094:4254  constructor (string memory name, string memory symbol, uint8 decimals) {\r... */\n  pop\n  pop\n  pop\n    /* \"contracts/erc20.sol\":7606:7616  msg.sender */\n  caller\n    /* \"contracts/erc20.sol\":7593:7603  tokenOwner */\n  0x05\n  0x01\n    /* \"contracts/erc20.sol\":7593:7616  tokenOwner = msg.sender */\n  0x0100\n  exp\n  dup2\n  sload\n  dup2\n  0xffffffffffffffffffffffffffffffffffffffff\n  mul\n  not\n  and\n  swap1\n  dup4\n  0xffffffffffffffffffffffffffffffffffffffff\n  and\n  mul\n  or\n  swap1\n  sstore\n  pop\n    /* \"contracts/erc20.sol\":7627:7648  addMinter(tokenOwner) */\n  tag_9\n    /* \"contracts/erc20.sol\":7637:7647  tokenOwner */\n  0x05\n  0x01\n  swap1\n  sload\n  swap1\n  0x0100\n  exp\n  swap1\n  div\n  0xffffffffffffffffffffffffffffffffffffffff\n  and\n    /* \"contracts/erc20.sol\":7627:7636  addMinter */\n  shl(0x20, tag_10)\n    /* \"contracts/erc20.sol\":7627:7648  addMinter(tokenOwner) */\n  0x20\n  shr\n  jump\t// in\ntag_9:\n    /* \"contracts/erc20.sol\":7659:7681  mint(tokenOwner, 1e24) */\n  tag_11\n    /* \"contracts/erc20.sol\":7664:7674  tokenOwner */\n  0x05\n  0x01\n  swap1\n  sload\n  swap1\n  0x0100\n  exp\n  swap1\n  div\n  0xffffffffffffffffffffffffffffffffffffffff\n  and\n    /* \"contracts/erc20.sol\":7676:7680  1e24 */\n  0xd3c21bcecceda1000000\n    /* \"contracts/erc20.sol\":7659:7663  mint */\n  shl(0x20, tag_12)\n    /* \"contracts/erc20.sol\":7659:7681  mint(tokenOwner, 1e24) */\n  0x20\n  shr\n  jump\t// in\ntag_11:\n    /* \"contracts/erc20.sol\":7303:8445  contract OzToken is ERC20, ERC20Detailed {\r... */\n  jump(tag_13)\n    /* \"contracts/erc20.sol\":8027:8184  function addMinter(address _minter) public {\r... */\ntag_10:\n    /* \"contracts/erc20.sol\":8103:8113  tokenOwner */\n  0x05\n  0x01\n  swap1\n  sload\n  swap1\n  0x0100\n  exp\n  swap1\n  div\n  0xffffffffffffffffffffffffffffffffffffffff\n  and\n    /* \"contracts/erc20.sol\":8089:8113  msg.sender == tokenOwner */\n  0xffffffffffffffffffffffffffffffffffffffff\n  and\n    /* \"contracts/erc20.sol\":8089:8099  msg.sender */\n  caller\n    /* \"contracts/erc20.sol\":8089:8113  msg.sender == tokenOwner */\n  0xffffffffffffffffffffffffffffffffffffffff\n  and\n  eq\n    /* \"contracts/erc20.sol\":8081:8142  require(msg.sender == tokenOwner, \"Sin permisos especiales!\") */\n  tag_15\n  jumpi\n  mload(0x40)\n  0x08c379a000000000000000000000000000000000000000000000000000000000\n  dup2\n  mstore\n  0x04\n  add\n  tag_16\n  swap1\n  tag_17\n  jump\t// in\ntag_16:\n  mload(0x40)\n  dup1\n  swap2\n  sub\n  swap1\n  revert\ntag_15:\n    /* \"contracts/erc20.sol\":8172:8176  true */\n  0x01\n    /* \"contracts/erc20.sol\":8153:8160  minters */\n  0x06\n    /* \"contracts/erc20.sol\":8153:8169  minters[_minter] */\n  0x00\n    /* \"contracts/erc20.sol\":8161:8168  _minter */\n  dup4\n    /* \"contracts/erc20.sol\":8153:8169  minters[_minter] */\n  0xffffffffffffffffffffffffffffffffffffffff\n  and\n  0xffffffffffffffffffffffffffffffffffffffff\n  and\n  dup2\n  mstore\n  0x20\n  add\n  swap1\n  dup2\n  mstore\n  0x20\n  add\n  0x00\n  keccak256\n  0x00\n    /* \"contracts/erc20.sol\":8153:8176  minters[_minter] = true */\n  0x0100\n  exp\n  dup2\n  sload\n  dup2\n  0xff\n  mul\n  not\n  and\n  swap1\n  dup4\n  iszero\n  iszero\n  mul\n  or\n  swap1\n  sstore\n  pop\n    /* \"contracts/erc20.sol\":8027:8184  function addMinter(address _minter) public {\r... */\n  pop\n  jump\t// out\n    /* \"contracts/erc20.sol\":7697:7845  function mint(address account, uint amount) public {\r... */\ntag_12:\n    /* \"contracts/erc20.sol\":7767:7774  minters */\n  0x06\n    /* \"contracts/erc20.sol\":7767:7786  minters[msg.sender] */\n  0x00\n    /* \"contracts/erc20.sol\":7775:7785  msg.sender */\n  caller\n    /* \"contracts/erc20.sol\":7767:7786  minters[msg.sender] */\n  0xffffffffffffffffffffffffffffffffffffffff\n  and\n  0xffffffffffffffffffffffffffffffffffffffff\n  and\n  dup2\n  mstore\n  0x20\n  add\n  swap1\n  dup2\n  mstore\n  0x20\n  add\n  0x00\n  keccak256\n  0x00\n  swap1\n  sload\n  swap1\n  0x0100\n  exp\n  swap1\n  div\n  0xff\n  and\n    /* \"contracts/erc20.sol\":7759:7804  require(minters[msg.sender], \"Sin permisos!\") */\n  tag_19\n  jumpi\n  mload(0x40)\n  0x08c379a000000000000000000000000000000000000000000000000000000000\n  dup2\n  mstore\n  0x04\n  add\n  tag_20\n  swap1\n  tag_21\n  jump\t// in\ntag_20:\n  mload(0x40)\n  dup1\n  swap2\n  sub\n  swap1\n  revert\ntag_19:\n    /* \"contracts/erc20.sol\":7815:7837  _mint(account, amount) */\n  tag_22\n    /* \"contracts/erc20.sol\":7821:7828  account */\n  dup3\n    /* \"contracts/erc20.sol\":7830:7836  amount */\n  dup3\n    /* \"contracts/erc20.sol\":7815:7820  _mint */\n  shl(0x20, tag_23)\n    /* \"contracts/erc20.sol\":7815:7837  _mint(account, amount) */\n  0x20\n  shr\n  jump\t// in\ntag_22:\n    /* \"contracts/erc20.sol\":7697:7845  function mint(address account, uint amount) public {\r... */\n  pop\n  pop\n  jump\t// out\n    /* \"contracts/erc20.sol\":2846:3238  function _mint(address account, uint amount) internal {\r... */\ntag_23:\n    /* \"contracts/erc20.sol\":2938:2939  0 */\n  0x00\n    /* \"contracts/erc20.sol\":2919:2940  account != address(0) */\n  0xffffffffffffffffffffffffffffffffffffffff\n  and\n    /* \"contracts/erc20.sol\":2919:2926  account */\n  dup3\n    /* \"contracts/erc20.sol\":2919:2940  account != address(0) */\n  0xffffffffffffffffffffffffffffffffffffffff\n  and\n  eq\n  iszero\n    /* \"contracts/erc20.sol\":2911:2978  require(account != address(0), \"ERC20: agente a la direccion cero\") */\n  tag_25\n  jumpi\n  mload(0x40)\n  0x08c379a000000000000000000000000000000000000000000000000000000000\n  dup2\n  mstore\n  0x04\n  add\n  tag_26\n  swap1\n  tag_27\n  jump\t// in\ntag_26:\n  mload(0x40)\n  dup1\n  swap2\n  sub\n  swap1\n  revert\ntag_25:\n    /* \"contracts/erc20.sol\":3006:3030  _totalSupply.add(amount) */\n  tag_28\n    /* \"contracts/erc20.sol\":3023:3029  amount */\n  dup2\n    /* \"contracts/erc20.sol\":3006:3018  _totalSupply */\n  sload(0x02)\n    /* \"contracts/erc20.sol\":3006:3022  _totalSupply.add */\n  or(tag_0_96, shl(0x20, tag_29))\n  swap1\n    /* \"contracts/erc20.sol\":3006:3030  _totalSupply.add(amount) */\n  swap2\n  swap1\n  0x20\n  shr\n  jump\t// in\ntag_28:\n    /* \"contracts/erc20.sol\":2991:3003  _totalSupply */\n  0x02\n    /* \"contracts/erc20.sol\":2991:3030  _totalSupply = _totalSupply.add(amount) */\n  dup2\n  swap1\n  sstore\n  pop\n    /* \"contracts/erc20.sol\":3065:3069  1e24 */\n  0xd3c21bcecceda1000000\n    /* \"contracts/erc20.sol\":3049:3061  _totalSupply */\n  sload(0x02)\n    /* \"contracts/erc20.sol\":3049:3069  _totalSupply <= 1e24 */\n  gt\n  iszero\n    /* \"contracts/erc20.sol\":3041:3115  require(_totalSupply <= 1e24, \"_totalSupply por exceder el limite maximo\") */\n  tag_30\n  jumpi\n  mload(0x40)\n  0x08c379a000000000000000000000000000000000000000000000000000000000\n  dup2\n  mstore\n  0x04\n  add\n  tag_31\n  swap1\n  tag_32\n  jump\t// in\ntag_31:\n  mload(0x40)\n  dup1\n  swap2\n  sub\n  swap1\n  revert\ntag_30:\n    /* \"contracts/erc20.sol\":3147:3177  _balances[account].add(amount) */\n  tag_33\n    /* \"contracts/erc20.sol\":3170:3176  amount */\n  dup2\n    /* \"contracts/erc20.sol\":3147:3156  _balances */\n  0x00\n    /* \"contracts/erc20.sol\":3147:3165  _balances[account] */\n  dup1\n    /* \"contracts/erc20.sol\":3157:3164  account */\n  dup6\n    /* \"contracts/erc20.sol\":3147:3165  _balances[account] */\n  0xffffffffffffffffffffffffffffffffffffffff\n  and\n  0xffffffffffffffffffffffffffffffffffffffff\n  and\n  dup2\n  mstore\n  0x20\n  add\n  swap1\n  dup2\n  mstore\n  0x20\n  add\n  0x00\n  keccak256\n  sload\n    /* \"contracts/erc20.sol\":3147:3169  _balances[account].add */\n  or(tag_0_96, shl(0x20, tag_29))\n  swap1\n    /* \"contracts/erc20.sol\":3147:3177  _balances[account].add(amount) */\n  swap2\n  swap1\n  0x20\n  shr\n  jump\t// in\ntag_33:\n    /* \"contracts/erc20.sol\":3126:3135  _balances */\n  0x00\n    /* \"contracts/erc20.sol\":3126:3144  _balances[account] */\n  dup1\n    /* \"contracts/erc20.sol\":3136:3143  account */\n  dup5\n    /* \"contracts/erc20.sol\":3126:3144  _balances[account] */\n  0xffffffffffffffffffffffffffffffffffffffff\n  and\n  0xffffffffffffffffffffffffffffffffffffffff\n  and\n  dup2\n  mstore\n  0x20\n  add\n  swap1\n  dup2\n  mstore\n  0x20\n  add\n  0x00\n  keccak256\n    /* \"contracts/erc20.sol\":3126:3177  _balances[account] = _balances[account].add(amount) */\n  dup2\n  swap1\n  sstore\n  pop\n    /* \"contracts/erc20.sol\":3214:3221  account */\n  dup2\n    /* \"contracts/erc20.sol\":3193:3230  Transfer(address(0), account, amount) */\n  0xffffffffffffffffffffffffffffffffffffffff\n  and\n    /* \"contracts/erc20.sol\":3210:3211  0 */\n  0x00\n    /* \"contracts/erc20.sol\":3193:3230  Transfer(address(0), account, amount) */\n  0xffffffffffffffffffffffffffffffffffffffff\n  and\n  0xddf252ad1be2c89b69c2b068fc378daa952ba7f163c4a11628f55a4df523b3ef\n    /* \"contracts/erc20.sol\":3223:3229  amount */\n  dup4\n    /* \"contracts/erc20.sol\":3193:3230  Transfer(address(0), account, amount) */\n  mload(0x40)\n  tag_34\n  swap2\n  swap1\n  tag_35\n  jump\t// in\ntag_34:\n  mload(0x40)\n  dup1\n  swap2\n  sub\n  swap1\n  log3\n    /* \"contracts/erc20.sol\":2846:3238  function _mint(address account, uint amount) internal {\r... */\n  pop\n  pop\n  jump\t// out\n    /* \"contracts/erc20.sol\":4556:4733  function add(uint a, uint b) internal pure returns (uint) {\r... */\ntag_29:\n    /* \"contracts/erc20.sol\":4608:4612  uint */\n  0x00\n    /* \"contracts/erc20.sol\":4625:4631  uint c */\n  dup1\n    /* \"contracts/erc20.sol\":4638:4639  b */\n  dup3\n    /* \"contracts/erc20.sol\":4634:4635  a */\n  dup5\n    /* \"contracts/erc20.sol\":4634:4639  a + b */\n  tag_37\n  swap2\n  swap1\n  tag_38\n  jump\t// in\ntag_37:\n    /* \"contracts/erc20.sol\":4625:4639  uint c = a + b */\n  swap1\n  pop\n    /* \"contracts/erc20.sol\":4663:4664  a */\n  dup4\n    /* \"contracts/erc20.sol\":4658:4659  c */\n  dup2\n    /* \"contracts/erc20.sol\":4658:4664  c >= a */\n  lt\n  iszero\n    /* \"contracts/erc20.sol\":4650:4704  require(c >= a, \"SafeMath: desbordamiento en la suma\") */\n  tag_39\n  jumpi\n  mload(0x40)\n  0x08c379a000000000000000000000000000000000000000000000000000000000\n  dup2\n  mstore\n  0x04\n  add\n  tag_40\n  swap1\n  tag_41\n  jump\t// in\ntag_40:\n  mload(0x40)\n  dup1\n  swap2\n  sub\n  swap1\n  revert\ntag_39:\n    /* \"contracts/erc20.sol\":4724:4725  c */\n  dup1\n    /* \"contracts/erc20.sol\":4717:4725  return c */\n  swap2\n  pop\n  pop\n    /* \"contracts/erc20.sol\":4556:4733  function add(uint a, uint b) internal pure returns (uint) {\r... */\n  swap3\n  swap2\n  pop\n  pop\n  jump\t// out\n    /* \"contracts/erc20.sol\":7303:8445  contract OzToken is ERC20, ERC20Detailed {\r... */\ntag_6:\n  dup3\n  dup1\n  sload\n  tag_42\n  swap1\n  tag_43\n  jump\t// in\ntag_42:\n  swap1\n  0x00\n  mstore\n  keccak256(0x00, 0x20)\n  swap1\n  0x1f\n  add\n  0x20\n  swap1\n  div\n  dup2\n  add\n  swap3\n  dup3\n  tag_45\n  jumpi\n  0x00\n  dup6\n  sstore\n  jump(tag_44)\ntag_45:\n  dup3\n  0x1f\n  lt\n  tag_46\n  jumpi\n  dup1\n  mload\n  not(0xff)\n  and\n  dup4\n  dup1\n  add\n  or\n  dup6\n  sstore\n  jump(tag_44)\ntag_46:\n  dup3\n  dup1\n  add\n  0x01\n  add\n  dup6\n  sstore\n  dup3\n  iszero\n  tag_44\n  jumpi\n  swap2\n  dup3\n  add\ntag_47:\n  dup3\n  dup2\n  gt\n  iszero\n  tag_48\n  jumpi\n  dup3\n  mload\n  dup3\n  sstore\n  swap2\n  0x20\n  add\n  swap2\n  swap1\n  0x01\n  add\n  swap1\n  jump(tag_47)\ntag_48:\ntag_44:\n  pop\n  swap1\n  pop\n  tag_49\n  swap2\n  swap1\n  tag_50\n  jump\t// in\ntag_49:\n  pop\n  swap1\n  jump\t// out\ntag_50:\ntag_51:\n  dup1\n  dup3\n  gt\n  iszero\n  tag_52\n  jumpi\n  0x00\n  dup2\n  0x00\n  swap1\n  sstore\n  pop\n  0x01\n  add\n  jump(tag_51)\ntag_52:\n  pop\n  swap1\n  jump\t// out\n    /* \"#utility.yul\":7:373   */\ntag_54:\n    /* \"#utility.yul\":149:152   */\n  0x00\n    /* \"#utility.yul\":170:237   */\n  tag_56\n    /* \"#utility.yul\":234:236   */\n  0x21\n    /* \"#utility.yul\":229:232   */\n  dup4\n    /* \"#utility.yul\":170:237   */\n  tag_57\n  jump\t// in\ntag_56:\n    /* \"#utility.yul\":163:237   */\n  swap2\n  pop\n    /* \"#utility.yul\":246:339   */\n  tag_58\n    /* \"#utility.yul\":335:338   */\n  dup3\n    /* \"#utility.yul\":246:339   */\n  tag_59\n  jump\t// in\ntag_58:\n    /* \"#utility.yul\":364:366   */\n  0x40\n    /* \"#utility.yul\":359:362   */\n  dup3\n    /* \"#utility.yul\":355:367   */\n  add\n    /* \"#utility.yul\":348:367   */\n  swap1\n  pop\n    /* \"#utility.yul\":7:373   */\n  swap2\n  swap1\n  pop\n  jump\t// out\n    /* \"#utility.yul\":379:745   */\ntag_60:\n    /* \"#utility.yul\":521:524   */\n  0x00\n    /* \"#utility.yul\":542:609   */\n  tag_62\n    /* \"#utility.yul\":606:608   */\n  0x29\n    /* \"#utility.yul\":601:604   */\n  dup4\n    /* \"#utility.yul\":542:609   */\n  tag_57\n  jump\t// in\ntag_62:\n    /* \"#utility.yul\":535:609   */\n  swap2\n  pop\n    /* \"#utility.yul\":618:711   */\n  tag_63\n    /* \"#utility.yul\":707:710   */\n  dup3\n    /* \"#utility.yul\":618:711   */\n  tag_64\n  jump\t// in\ntag_63:\n    /* \"#utility.yul\":736:738   */\n  0x40\n    /* \"#utility.yul\":731:734   */\n  dup3\n    /* \"#utility.yul\":727:739   */\n  add\n    /* \"#utility.yul\":720:739   */\n  swap1\n  pop\n    /* \"#utility.yul\":379:745   */\n  swap2\n  swap1\n  pop\n  jump\t// out\n    /* \"#utility.yul\":751:1117   */\ntag_65:\n    /* \"#utility.yul\":893:896   */\n  0x00\n    /* \"#utility.yul\":914:981   */\n  tag_67\n    /* \"#utility.yul\":978:980   */\n  0x18\n    /* \"#utility.yul\":973:976   */\n  dup4\n    /* \"#utility.yul\":914:981   */\n  tag_57\n  jump\t// in\ntag_67:\n    /* \"#utility.yul\":907:981   */\n  swap2\n  pop\n    /* \"#utility.yul\":990:1083   */\n  tag_68\n    /* \"#utility.yul\":1079:1082   */\n  dup3\n    /* \"#utility.yul\":990:1083   */\n  tag_69\n  jump\t// in\ntag_68:\n    /* \"#utility.yul\":1108:1110   */\n  0x20\n    /* \"#utility.yul\":1103:1106   */\n  dup3\n    /* \"#utility.yul\":1099:1111   */\n  add\n    /* \"#utility.yul\":1092:1111   */\n  swap1\n  pop\n    /* \"#utility.yul\":751:1117   */\n  swap2\n  swap1\n  pop\n  jump\t// out\n    /* \"#utility.yul\":1123:1489   */\ntag_70:\n    /* \"#utility.yul\":1265:1268   */\n  0x00\n    /* \"#utility.yul\":1286:1353   */\n  tag_72\n    /* \"#utility.yul\":1350:1352   */\n  0x23\n    /* \"#utility.yul\":1345:1348   */\n  dup4\n    /* \"#utility.yul\":1286:1353   */\n  tag_57\n  jump\t// in\ntag_72:\n    /* \"#utility.yul\":1279:1353   */\n  swap2\n  pop\n    /* \"#utility.yul\":1362:1455   */\n  tag_73\n    /* \"#utility.yul\":1451:1454   */\n  dup3\n    /* \"#utility.yul\":1362:1455   */\n  tag_74\n  jump\t// in\ntag_73:\n    /* \"#utility.yul\":1480:1482   */\n  0x40\n    /* \"#utility.yul\":1475:1478   */\n  dup3\n    /* \"#utility.yul\":1471:1483   */\n  add\n    /* \"#utility.yul\":1464:1483   */\n  swap1\n  pop\n    /* \"#utility.yul\":1123:1489   */\n  swap2\n  swap1\n  pop\n  jump\t// out\n    /* \"#utility.yul\":1495:1861   */\ntag_75:\n    /* \"#utility.yul\":1637:1640   */\n  0x00\n    /* \"#utility.yul\":1658:1725   */\n  tag_77\n    /* \"#utility.yul\":1722:1724   */\n  0x0d\n    /* \"#utility.yul\":1717:1720   */\n  dup4\n    /* \"#utility.yul\":1658:1725   */\n  tag_57\n  jump\t// in\ntag_77:\n    /* \"#utility.yul\":1651:1725   */\n  swap2\n  pop\n    /* \"#utility.yul\":1734:1827   */\n  tag_78\n    /* \"#utility.yul\":1823:1826   */\n  dup3\n    /* \"#utility.yul\":1734:1827   */\n  tag_79\n  jump\t// in\ntag_78:\n    /* \"#utility.yul\":1852:1854   */\n  0x20\n    /* \"#utility.yul\":1847:1850   */\n  dup3\n    /* \"#utility.yul\":1843:1855   */\n  add\n    /* \"#utility.yul\":1836:1855   */\n  swap1\n  pop\n    /* \"#utility.yul\":1495:1861   */\n  swap2\n  swap1\n  pop\n  jump\t// out\n    /* \"#utility.yul\":1867:1985   */\ntag_80:\n    /* \"#utility.yul\":1954:1978   */\n  tag_82\n    /* \"#utility.yul\":1972:1977   */\n  dup2\n    /* \"#utility.yul\":1954:1978   */\n  tag_83\n  jump\t// in\ntag_82:\n    /* \"#utility.yul\":1949:1952   */\n  dup3\n    /* \"#utility.yul\":1942:1979   */\n  mstore\n    /* \"#utility.yul\":1867:1985   */\n  pop\n  pop\n  jump\t// out\n    /* \"#utility.yul\":1991:2410   */\ntag_27:\n    /* \"#utility.yul\":2157:2161   */\n  0x00\n    /* \"#utility.yul\":2195:2197   */\n  0x20\n    /* \"#utility.yul\":2184:2193   */\n  dup3\n    /* \"#utility.yul\":2180:2198   */\n  add\n    /* \"#utility.yul\":2172:2198   */\n  swap1\n  pop\n    /* \"#utility.yul\":2244:2253   */\n  dup2\n    /* \"#utility.yul\":2238:2242   */\n  dup2\n    /* \"#utility.yul\":2234:2254   */\n  sub\n    /* \"#utility.yul\":2230:2231   */\n  0x00\n    /* \"#utility.yul\":2219:2228   */\n  dup4\n    /* \"#utility.yul\":2215:2232   */\n  add\n    /* \"#utility.yul\":2208:2255   */\n  mstore\n    /* \"#utility.yul\":2272:2403   */\n  tag_85\n    /* \"#utility.yul\":2398:2402   */\n  dup2\n    /* \"#utility.yul\":2272:2403   */\n  tag_54\n  jump\t// in\ntag_85:\n    /* \"#utility.yul\":2264:2403   */\n  swap1\n  pop\n    /* \"#utility.yul\":1991:2410   */\n  swap2\n  swap1\n  pop\n  jump\t// out\n    /* \"#utility.yul\":2416:2835   */\ntag_32:\n    /* \"#utility.yul\":2582:2586   */\n  0x00\n    /* \"#utility.yul\":2620:2622   */\n  0x20\n    /* \"#utility.yul\":2609:2618   */\n  dup3\n    /* \"#utility.yul\":2605:2623   */\n  add\n    /* \"#utility.yul\":2597:2623   */\n  swap1\n  pop\n    /* \"#utility.yul\":2669:2678   */\n  dup2\n    /* \"#utility.yul\":2663:2667   */\n  dup2\n    /* \"#utility.yul\":2659:2679   */\n  sub\n    /* \"#utility.yul\":2655:2656   */\n  0x00\n    /* \"#utility.yul\":2644:2653   */\n  dup4\n    /* \"#utility.yul\":2640:2657   */\n  add\n    /* \"#utility.yul\":2633:2680   */\n  mstore\n    /* \"#utility.yul\":2697:2828   */\n  tag_87\n    /* \"#utility.yul\":2823:2827   */\n  dup2\n    /* \"#utility.yul\":2697:2828   */\n  tag_60\n  jump\t// in\ntag_87:\n    /* \"#utility.yul\":2689:2828   */\n  swap1\n  pop\n    /* \"#utility.yul\":2416:2835   */\n  swap2\n  swap1\n  pop\n  jump\t// out\n    /* \"#utility.yul\":2841:3260   */\ntag_17:\n    /* \"#utility.yul\":3007:3011   */\n  0x00\n    /* \"#utility.yul\":3045:3047   */\n  0x20\n    /* \"#utility.yul\":3034:3043   */\n  dup3\n    /* \"#utility.yul\":3030:3048   */\n  add\n    /* \"#utility.yul\":3022:3048   */\n  swap1\n  pop\n    /* \"#utility.yul\":3094:3103   */\n  dup2\n    /* \"#utility.yul\":3088:3092   */\n  dup2\n    /* \"#utility.yul\":3084:3104   */\n  sub\n    /* \"#utility.yul\":3080:3081   */\n  0x00\n    /* \"#utility.yul\":3069:3078   */\n  dup4\n    /* \"#utility.yul\":3065:3082   */\n  add\n    /* \"#utility.yul\":3058:3105   */\n  mstore\n    /* \"#utility.yul\":3122:3253   */\n  tag_89\n    /* \"#utility.yul\":3248:3252   */\n  dup2\n    /* \"#utility.yul\":3122:3253   */\n  tag_65\n  jump\t// in\ntag_89:\n    /* \"#utility.yul\":3114:3253   */\n  swap1\n  pop\n    /* \"#utility.yul\":2841:3260   */\n  swap2\n  swap1\n  pop\n  jump\t// out\n    /* \"#utility.yul\":3266:3685   */\ntag_41:\n    /* \"#utility.yul\":3432:3436   */\n  0x00\n    /* \"#utility.yul\":3470:3472   */\n  0x20\n    /* \"#utility.yul\":3459:3468   */\n  dup3\n    /* \"#utility.yul\":3455:3473   */\n  add\n    /* \"#utility.yul\":3447:3473   */\n  swap1\n  pop\n    /* \"#utility.yul\":3519:3528   */\n  dup2\n    /* \"#utility.yul\":3513:3517   */\n  dup2\n    /* \"#utility.yul\":3509:3529   */\n  sub\n    /* \"#utility.yul\":3505:3506   */\n  0x00\n    /* \"#utility.yul\":3494:3503   */\n  dup4\n    /* \"#utility.yul\":3490:3507   */\n  add\n    /* \"#utility.yul\":3483:3530   */\n  mstore\n    /* \"#utility.yul\":3547:3678   */\n  tag_91\n    /* \"#utility.yul\":3673:3677   */\n  dup2\n    /* \"#utility.yul\":3547:3678   */\n  tag_70\n  jump\t// in\ntag_91:\n    /* \"#utility.yul\":3539:3678   */\n  swap1\n  pop\n    /* \"#utility.yul\":3266:3685   */\n  swap2\n  swap1\n  pop\n  jump\t// out\n    /* \"#utility.yul\":3691:4110   */\ntag_21:\n    /* \"#utility.yul\":3857:3861   */\n  0x00\n    /* \"#utility.yul\":3895:3897   */\n  0x20\n    /* \"#utility.yul\":3884:3893   */\n  dup3\n    /* \"#utility.yul\":3880:3898   */\n  add\n    /* \"#utility.yul\":3872:3898   */\n  swap1\n  pop\n    /* \"#utility.yul\":3944:3953   */\n  dup2\n    /* \"#utility.yul\":3938:3942   */\n  dup2\n    /* \"#utility.yul\":3934:3954   */\n  sub\n    /* \"#utility.yul\":3930:3931   */\n  0x00\n    /* \"#utility.yul\":3919:3928   */\n  dup4\n    /* \"#utility.yul\":3915:3932   */\n  add\n    /* \"#utility.yul\":3908:3955   */\n  mstore\n    /* \"#utility.yul\":3972:4103   */\n  tag_93\n    /* \"#utility.yul\":4098:4102   */\n  dup2\n    /* \"#utility.yul\":3972:4103   */\n  tag_75\n  jump\t// in\ntag_93:\n    /* \"#utility.yul\":3964:4103   */\n  swap1\n  pop\n    /* \"#utility.yul\":3691:4110   */\n  swap2\n  swap1\n  pop\n  jump\t// out\n    /* \"#utility.yul\":4116:4338   */\ntag_35:\n    /* \"#utility.yul\":4209:4213   */\n  0x00\n    /* \"#utility.yul\":4247:4249   */\n  0x20\n    /* \"#utility.yul\":4236:4245   */\n  dup3\n    /* \"#utility.yul\":4232:4250   */\n  add\n    /* \"#utility.yul\":4224:4250   */\n  swap1\n  pop\n    /* \"#utility.yul\":4260:4331   */\n  tag_95\n    /* \"#utility.yul\":4328:4329   */\n  0x00\n    /* \"#utility.yul\":4317:4326   */\n  dup4\n    /* \"#utility.yul\":4313:4330   */\n  add\n    /* \"#utility.yul\":4304:4310   */\n  dup5\n    /* \"#utility.yul\":4260:4331   */\n  tag_80\n  jump\t// in\ntag_95:\n    /* \"#utility.yul\":4116:4338   */\n  swap3\n  swap2\n  pop\n  pop\n  jump\t// out\n    /* \"#utility.yul\":4344:4513   */\ntag_57:\n    /* \"#utility.yul\":4428:4439   */\n  0x00\n    /* \"#utility.yul\":4462:4468   */\n  dup3\n    /* \"#utility.yul\":4457:4460   */\n  dup3\n    /* \"#utility.yul\":4450:4469   */\n  mstore\n    /* \"#utility.yul\":4502:4506   */\n  0x20\n    /* \"#utility.yul\":4497:4500   */\n  dup3\n    /* \"#utility.yul\":4493:4507   */\n  add\n    /* \"#utility.yul\":4478:4507   */\n  swap1\n  pop\n    /* \"#utility.yul\":4344:4513   */\n  swap3\n  swap2\n  pop\n  pop\n  jump\t// out\n    /* \"#utility.yul\":4519:4824   */\ntag_38:\n    /* \"#utility.yul\":4559:4562   */\n  0x00\n    /* \"#utility.yul\":4578:4598   */\n  tag_98\n    /* \"#utility.yul\":4596:4597   */\n  dup3\n    /* \"#utility.yul\":4578:4598   */\n  tag_83\n  jump\t// in\ntag_98:\n    /* \"#utility.yul\":4573:4598   */\n  swap2\n  pop\n    /* \"#utility.yul\":4612:4632   */\n  tag_99\n    /* \"#utility.yul\":4630:4631   */\n  dup4\n    /* \"#utility.yul\":4612:4632   */\n  tag_83\n  jump\t// in\ntag_99:\n    /* \"#utility.yul\":4607:4632   */\n  swap3\n  pop\n    /* \"#utility.yul\":4766:4767   */\n  dup3\n    /* \"#utility.yul\":4698:4764   */\n  0xffffffffffffffffffffffffffffffffffffffffffffffffffffffffffffffff\n    /* \"#utility.yul\":4694:4768   */\n  sub\n    /* \"#utility.yul\":4691:4692   */\n  dup3\n    /* \"#utility.yul\":4688:4769   */\n  gt\n    /* \"#utility.yul\":4685:4792   */\n  iszero\n  tag_100\n  jumpi\n    /* \"#utility.yul\":4772:4790   */\n  tag_101\n  tag_102\n  jump\t// in\ntag_101:\n    /* \"#utility.yul\":4685:4792   */\ntag_100:\n    /* \"#utility.yul\":4816:4817   */\n  dup3\n    /* \"#utility.yul\":4813:4814   */\n  dup3\n    /* \"#utility.yul\":4809:4818   */\n  add\n    /* \"#utility.yul\":4802:4818   */\n  swap1\n  pop\n    /* \"#utility.yul\":4519:4824   */\n  swap3\n  swap2\n  pop\n  pop\n  jump\t// out\n    /* \"#utility.yul\":4830:4907   */\ntag_83:\n    /* \"#utility.yul\":4867:4874   */\n  0x00\n    /* \"#utility.yul\":4896:4901   */\n  dup2\n    /* \"#utility.yul\":4885:4901   */\n  swap1\n  pop\n    /* \"#utility.yul\":4830:4907   */\n  swap2\n  swap1\n  pop\n  jump\t// out\n    /* \"#utility.yul\":4913:5233   */\ntag_43:\n    /* \"#utility.yul\":4957:4963   */\n  0x00\n    /* \"#utility.yul\":4994:4995   */\n  0x02\n    /* \"#utility.yul\":4988:4992   */\n  dup3\n    /* \"#utility.yul\":4984:4996   */\n  div\n    /* \"#utility.yul\":4974:4996   */\n  swap1\n  pop\n    /* \"#utility.yul\":5041:5042   */\n  0x01\n    /* \"#utility.yul\":5035:5039   */\n  dup3\n    /* \"#utility.yul\":5031:5043   */\n  and\n    /* \"#utility.yul\":5062:5080   */\n  dup1\n    /* \"#utility.yul\":5052:5133   */\n  tag_105\n  jumpi\n    /* \"#utility.yul\":5118:5122   */\n  0x7f\n    /* \"#utility.yul\":5110:5116   */\n  dup3\n    /* \"#utility.yul\":5106:5123   */\n  and\n    /* \"#utility.yul\":5096:5123   */\n  swap2\n  pop\n    /* \"#utility.yul\":5052:5133   */\ntag_105:\n    /* \"#utility.yul\":5180:5182   */\n  0x20\n    /* \"#utility.yul\":5172:5178   */\n  dup3\n    /* \"#utility.yul\":5169:5183   */\n  lt\n    /* \"#utility.yul\":5149:5167   */\n  dup2\n    /* \"#utility.yul\":5146:5184   */\n  eq\n    /* \"#utility.yul\":5143:5227   */\n  iszero\n  tag_106\n  jumpi\n    /* \"#utility.yul\":5199:5217   */\n  tag_107\n  tag_108\n  jump\t// in\ntag_107:\n    /* \"#utility.yul\":5143:5227   */\ntag_106:\n    /* \"#utility.yul\":4964:5233   */\n  pop\n    /* \"#utility.yul\":4913:5233   */\n  swap2\n  swap1\n  pop\n  jump\t// out\n    /* \"#utility.yul\":5239:5419   */\ntag_102:\n    /* \"#utility.yul\":5287:5364   */\n  0x4e487b7100000000000000000000000000000000000000000000000000000000\n    /* \"#utility.yul\":5284:5285   */\n  0x00\n    /* \"#utility.yul\":5277:5365   */\n  mstore\n    /* \"#utility.yul\":5384:5388   */\n  0x11\n    /* \"#utility.yul\":5381:5382   */\n  0x04\n    /* \"#utility.yul\":5374:5389   */\n  mstore\n    /* \"#utility.yul\":5408:5412   */\n  0x24\n    /* \"#utility.yul\":5405:5406   */\n  0x00\n    /* \"#utility.yul\":5398:5413   */\n  revert\n    /* \"#utility.yul\":5425:5605   */\ntag_108:\n    /* \"#utility.yul\":5473:5550   */\n  0x4e487b7100000000000000000000000000000000000000000000000000000000\n    /* \"#utility.yul\":5470:5471   */\n  0x00\n    /* \"#utility.yul\":5463:5551   */\n  mstore\n    /* \"#utility.yul\":5570:5574   */\n  0x22\n    /* \"#utility.yul\":5567:5568   */\n  0x04\n    /* \"#utility.yul\":5560:5575   */\n  mstore\n    /* \"#utility.yul\":5594:5598   */\n  0x24\n    /* \"#utility.yul\":5591:5592   */\n  0x00\n    /* \"#utility.yul\":5584:5599   */\n  revert\n    /* \"#utility.yul\":5611:5831   */\ntag_59:\n    /* \"#utility.yul\":5751:5785   */\n  0x45524332303a206167656e74652061206c6120646972656363696f6e20636572\n    /* \"#utility.yul\":5747:5748   */\n  0x00\n    /* \"#utility.yul\":5739:5745   */\n  dup3\n    /* \"#utility.yul\":5735:5749   */\n  add\n    /* \"#utility.yul\":5728:5786   */\n  mstore\n    /* \"#utility.yul\":5820:5823   */\n  0x6f00000000000000000000000000000000000000000000000000000000000000\n    /* \"#utility.yul\":5815:5817   */\n  0x20\n    /* \"#utility.yul\":5807:5813   */\n  dup3\n    /* \"#utility.yul\":5803:5818   */\n  add\n    /* \"#utility.yul\":5796:5824   */\n  mstore\n    /* \"#utility.yul\":5611:5831   */\n  pop\n  jump\t// out\n    /* \"#utility.yul\":5837:6065   */\ntag_64:\n    /* \"#utility.yul\":5977:6011   */\n  0x5f746f74616c537570706c7920706f72206578636564657220656c206c696d69\n    /* \"#utility.yul\":5973:5974   */\n  0x00\n    /* \"#utility.yul\":5965:5971   */\n  dup3\n    /* \"#utility.yul\":5961:5975   */\n  add\n    /* \"#utility.yul\":5954:6012   */\n  mstore\n    /* \"#utility.yul\":6046:6057   */\n  0x7465206d6178696d6f0000000000000000000000000000000000000000000000\n    /* \"#utility.yul\":6041:6043   */\n  0x20\n    /* \"#utility.yul\":6033:6039   */\n  dup3\n    /* \"#utility.yul\":6029:6044   */\n  add\n    /* \"#utility.yul\":6022:6058   */\n  mstore\n    /* \"#utility.yul\":5837:6065   */\n  pop\n  jump\t// out\n    /* \"#utility.yul\":6071:6245   */\ntag_69:\n    /* \"#utility.yul\":6211:6237   */\n  0x53696e207065726d69736f7320657370656369616c6573210000000000000000\n    /* \"#utility.yul\":6207:6208   */\n  0x00\n    /* \"#utility.yul\":6199:6205   */\n  dup3\n    /* \"#utility.yul\":6195:6209   */\n  add\n    /* \"#utility.yul\":6188:6238   */\n  mstore\n    /* \"#utility.yul\":6071:6245   */\n  pop\n  jump\t// out\n    /* \"#utility.yul\":6251:6473   */\ntag_74:\n    /* \"#utility.yul\":6391:6425   */\n  0x536166654d6174683a20646573626f7264616d69656e746f20656e206c612073\n    /* \"#utility.yul\":6387:6388   */\n  0x00\n    /* \"#utility.yul\":6379:6385   */\n  dup3\n    /* \"#utility.yul\":6375:6389   */\n  add\n    /* \"#utility.yul\":6368:6426   */\n  mstore\n    /* \"#utility.yul\":6460:6465   */\n  0x756d610000000000000000000000000000000000000000000000000000000000\n    /* \"#utility.yul\":6455:6457   */\n  0x20\n    /* \"#utility.yul\":6447:6453   */\n  dup3\n    /* \"#utility.yul\":6443:6458   */\n  add\n    /* \"#utility.yul\":6436:6466   */\n  mstore\n    /* \"#utility.yul\":6251:6473   */\n  pop\n  jump\t// out\n    /* \"#utility.yul\":6479:6642   */\ntag_79:\n    /* \"#utility.yul\":6619:6634   */\n  0x53696e207065726d69736f732100000000000000000000000000000000000000\n    /* \"#utility.yul\":6615:6616   */\n  0x00\n    /* \"#utility.yul\":6607:6613   */\n  dup3\n    /* \"#utility.yul\":6603:6617   */\n  add\n    /* \"#utility.yul\":6596:6635   */\n  mstore\n    /* \"#utility.yul\":6479:6642   */\n  pop\n  jump\t// out\n    /* \"contracts/erc20.sol\":7303:8445  contract OzToken is ERC20, ERC20Detailed {\r... */\ntag_13:\n  dataSize(sub_0)\n  dup1\n  dataOffset(sub_0)\n  0x00\n  codecopy\n  0x00\n  return\nstop\n\nsub_0: assembly {\n        /* \"contracts/erc20.sol\":7303:8445  contract OzToken is ERC20, ERC20Detailed {\r... */\n      mstore(0x40, 0x80)\n      callvalue\n      dup1\n      iszero\n      tag_1\n      jumpi\n      0x00\n      dup1\n      revert\n    tag_1:\n      pop\n      jumpi(tag_2, lt(calldatasize, 0x04))\n      shr(0xe0, calldataload(0x00))\n      dup1\n      0x42966c68\n      gt\n      tag_21\n      jumpi\n      dup1\n      0xa3e67610\n      gt\n      tag_22\n      jumpi\n      dup1\n      0xa3e67610\n      eq\n      tag_16\n      jumpi\n      dup1\n      0xa457c2d7\n      eq\n      tag_17\n      jumpi\n      dup1\n      0xa9059cbb\n      eq\n      tag_18\n      jumpi\n      dup1\n      0xdd62ed3e\n      eq\n      tag_19\n      jumpi\n      dup1\n      0xf46eccc4\n      eq\n      tag_20\n      jumpi\n      jump(tag_2)\n    tag_22:\n      dup1\n      0x42966c68\n      eq\n      tag_12\n      jumpi\n      dup1\n      0x70a08231\n      eq\n      tag_13\n      jumpi\n      dup1\n      0x95d89b41\n      eq\n      tag_14\n      jumpi\n      dup1\n      0x983b2d56\n      eq\n      tag_15\n      jumpi\n      jump(tag_2)\n    tag_21:\n      dup1\n      0x23b872dd\n      gt\n      tag_23\n      jumpi\n      dup1\n      0x23b872dd\n      eq\n      tag_7\n      jumpi\n      dup1\n      0x3092afd5\n      eq\n      tag_8\n      jumpi\n      dup1\n      0x313ce567\n      eq\n      tag_9\n      jumpi\n      dup1\n      0x39509351\n      eq\n      tag_10\n      jumpi\n      dup1\n      0x40c10f19\n      eq\n      tag_11\n      jumpi\n      jump(tag_2)\n    tag_23:\n      dup1\n      0x06fdde03\n      eq\n      tag_3\n      jumpi\n      dup1\n      0x095ea7b3\n      eq\n      tag_4\n      jumpi\n      dup1\n      0x18160ddd\n      eq\n      tag_5\n      jumpi\n      dup1\n      0x18e02bd9\n      eq\n      tag_6\n      jumpi\n    tag_2:\n      0x00\n      dup1\n      revert\n        /* \"contracts/erc20.sol\":4260:4343  function name() public view returns (string memory) {\r... */\n    tag_3:\n      tag_24\n      tag_25\n      jump\t// in\n    tag_24:\n      mload(0x40)\n      tag_26\n      swap2\n      swap1\n      tag_27\n      jump\t// in\n    tag_26:\n      mload(0x40)\n      dup1\n      swap2\n      sub\n      swap1\n      return\n        /* \"contracts/erc20.sol\":1514:1670  function approve(address spender, uint amount) public override returns (bool) {\r... */\n    tag_4:\n      tag_28\n      0x04\n      dup1\n      calldatasize\n      sub\n      dup2\n      add\n      swap1\n      tag_29\n      swap2\n      swap1\n      tag_30\n      jump\t// in\n    tag_29:\n      tag_31\n      jump\t// in\n    tag_28:\n      mload(0x40)\n      tag_32\n      swap2\n      swap1\n      tag_33\n      jump\t// in\n    tag_32:\n      mload(0x40)\n      dup1\n      swap2\n      sub\n      swap1\n      return\n        /* \"contracts/erc20.sol\":975:1072  function totalSupply() public view override returns (uint) {\r... */\n    tag_5:\n      tag_34\n      tag_35\n      jump\t// in\n    tag_34:\n      mload(0x40)\n      tag_36\n      swap2\n      swap1\n      tag_37\n      jump\t// in\n    tag_36:\n      mload(0x40)\n      dup1\n      swap2\n      sub\n      swap1\n      return\n        /* \"contracts/erc20.sol\":7853:8019  function setTokenOwner(address _tokenOwner) public {\r... */\n    tag_6:\n      tag_38\n      0x04\n      dup1\n      calldatasize\n      sub\n      dup2\n      add\n      swap1\n      tag_39\n      swap2\n      swap1\n      tag_40\n      jump\t// in\n    tag_39:\n      tag_41\n      jump\t// in\n    tag_38:\n      stop\n        /* \"contracts/erc20.sol\":1676:1854  function transferFrom(address sender, address recipient, uint amount) public override returns (bool) {\r... */\n    tag_7:\n      tag_42\n      0x04\n      dup1\n      calldatasize\n      sub\n      dup2\n      add\n      swap1\n      tag_43\n      swap2\n      swap1\n      tag_44\n      jump\t// in\n    tag_43:\n      tag_45\n      jump\t// in\n    tag_42:\n      mload(0x40)\n      tag_46\n      swap2\n      swap1\n      tag_33\n      jump\t// in\n    tag_46:\n      mload(0x40)\n      dup1\n      swap2\n      sub\n      swap1\n      return\n        /* \"contracts/erc20.sol\":8192:8353  function removeMinter(address _minter) public {\r... */\n    tag_8:\n      tag_47\n      0x04\n      dup1\n      calldatasize\n      sub\n      dup2\n      add\n      swap1\n      tag_48\n      swap2\n      swap1\n      tag_40\n      jump\t// in\n    tag_48:\n      tag_49\n      jump\t// in\n    tag_47:\n      stop\n        /* \"contracts/erc20.sol\":4442:4525  function decimals() public view returns (uint8) {\r... */\n    tag_9:\n      tag_50\n      tag_51\n      jump\t// in\n    tag_50:\n      mload(0x40)\n      tag_52\n      swap2\n      swap1\n      tag_53\n      jump\t// in\n    tag_52:\n      mload(0x40)\n      dup1\n      swap2\n      sub\n      swap1\n      return\n        /* \"contracts/erc20.sol\":1860:2063  function increaseAllowance(address spender, uint addedValue) public returns (bool) {\r... */\n    tag_10:\n      tag_54\n      0x04\n      dup1\n      calldatasize\n      sub\n      dup2\n      add\n      swap1\n      tag_55\n      swap2\n      swap1\n      tag_30\n      jump\t// in\n    tag_55:\n      tag_56\n      jump\t// in\n    tag_54:\n      mload(0x40)\n      tag_57\n      swap2\n      swap1\n      tag_33\n      jump\t// in\n    tag_57:\n      mload(0x40)\n      dup1\n      swap2\n      sub\n      swap1\n      return\n        /* \"contracts/erc20.sol\":7697:7845  function mint(address account, uint amount) public {\r... */\n    tag_11:\n      tag_58\n      0x04\n      dup1\n      calldatasize\n      sub\n      dup2\n      add\n      swap1\n      tag_59\n      swap2\n      swap1\n      tag_30\n      jump\t// in\n    tag_59:\n      tag_60\n      jump\t// in\n    tag_58:\n      stop\n        /* \"contracts/erc20.sol\":8361:8442  function burn(uint256 amount) public {\r... */\n    tag_12:\n      tag_61\n      0x04\n      dup1\n      calldatasize\n      sub\n      dup2\n      add\n      swap1\n      tag_62\n      swap2\n      swap1\n      tag_63\n      jump\t// in\n    tag_62:\n      tag_64\n      jump\t// in\n    tag_61:\n      stop\n        /* \"contracts/erc20.sol\":1078:1194  function balanceOf(address account) public view override returns (uint) {\r... */\n    tag_13:\n      tag_65\n      0x04\n      dup1\n      calldatasize\n      sub\n      dup2\n      add\n      swap1\n      tag_66\n      swap2\n      swap1\n      tag_40\n      jump\t// in\n    tag_66:\n      tag_67\n      jump\t// in\n    tag_65:\n      mload(0x40)\n      tag_68\n      swap2\n      swap1\n      tag_37\n      jump\t// in\n    tag_68:\n      mload(0x40)\n      dup1\n      swap2\n      sub\n      swap1\n      return\n        /* \"contracts/erc20.sol\":4349:4436  function symbol() public view returns (string memory) {\r... */\n    tag_14:\n      tag_69\n      tag_70\n      jump\t// in\n    tag_69:\n      mload(0x40)\n      tag_71\n      swap2\n      swap1\n      tag_27\n      jump\t// in\n    tag_71:\n      mload(0x40)\n      dup1\n      swap2\n      sub\n      swap1\n      return\n        /* \"contracts/erc20.sol\":8027:8184  function addMinter(address _minter) public {\r... */\n    tag_15:\n      tag_72\n      0x04\n      dup1\n      calldatasize\n      sub\n      dup2\n      add\n      swap1\n      tag_73\n      swap2\n      swap1\n      tag_40\n      jump\t// in\n    tag_73:\n      tag_74\n      jump\t// in\n    tag_72:\n      stop\n        /* \"contracts/erc20.sol\":7450:7475  address public tokenOwner */\n    tag_16:\n      tag_75\n      tag_76\n      jump\t// in\n    tag_75:\n      mload(0x40)\n      tag_77\n      swap2\n      swap1\n      tag_78\n      jump\t// in\n    tag_77:\n      mload(0x40)\n      dup1\n      swap2\n      sub\n      swap1\n      return\n        /* \"contracts/erc20.sol\":2069:2340  function decreaseAllowance(address spender, uint subtractedValue) public returns (bool) {\r... */\n    tag_17:\n      tag_79\n      0x04\n      dup1\n      calldatasize\n      sub\n      dup2\n      add\n      swap1\n      tag_80\n      swap2\n      swap1\n      tag_30\n      jump\t// in\n    tag_80:\n      tag_81\n      jump\t// in\n    tag_79:\n      mload(0x40)\n      tag_82\n      swap2\n      swap1\n      tag_33\n      jump\t// in\n    tag_82:\n      mload(0x40)\n      dup1\n      swap2\n      sub\n      swap1\n      return\n        /* \"contracts/erc20.sol\":1200:1362  function transfer(address recipient, uint amount) public override returns (bool) {\r... */\n    tag_18:\n      tag_83\n      0x04\n      dup1\n      calldatasize\n      sub\n      dup2\n      add\n      swap1\n      tag_84\n      swap2\n      swap1\n      tag_30\n      jump\t// in\n    tag_84:\n      tag_85\n      jump\t// in\n    tag_83:\n      mload(0x40)\n      tag_86\n      swap2\n      swap1\n      tag_33\n      jump\t// in\n    tag_86:\n      mload(0x40)\n      dup1\n      swap2\n      sub\n      swap1\n      return\n        /* \"contracts/erc20.sol\":1368:1508  function allowance(address owner, address spender) public view override returns (uint) {\r... */\n    tag_19:\n      tag_87\n      0x04\n      dup1\n      calldatasize\n      sub\n      dup2\n      add\n      swap1\n      tag_88\n      swap2\n      swap1\n      tag_89\n      jump\t// in\n    tag_88:\n      tag_90\n      jump\t// in\n    tag_87:\n      mload(0x40)\n      tag_91\n      swap2\n      swap1\n      tag_37\n      jump\t// in\n    tag_91:\n      mload(0x40)\n      dup1\n      swap2\n      sub\n      swap1\n      return\n        /* \"contracts/erc20.sol\":7482:7522  mapping (address => bool) public minters */\n    tag_20:\n      tag_92\n      0x04\n      dup1\n      calldatasize\n      sub\n      dup2\n      add\n      swap1\n      tag_93\n      swap2\n      swap1\n      tag_40\n      jump\t// in\n    tag_93:\n      tag_94\n      jump\t// in\n    tag_92:\n      mload(0x40)\n      tag_95\n      swap2\n      swap1\n      tag_33\n      jump\t// in\n    tag_95:\n      mload(0x40)\n      dup1\n      swap2\n      sub\n      swap1\n      return\n        /* \"contracts/erc20.sol\":4260:4343  function name() public view returns (string memory) {\r... */\n    tag_25:\n        /* \"contracts/erc20.sol\":4297:4310  string memory */\n      0x60\n        /* \"contracts/erc20.sol\":4330:4335  _name */\n      0x03\n        /* \"contracts/erc20.sol\":4323:4335  return _name */\n      dup1\n      sload\n      tag_98\n      swap1\n      tag_99\n      jump\t// in\n    tag_98:\n      dup1\n      0x1f\n      add\n      0x20\n      dup1\n      swap2\n      div\n      mul\n      0x20\n      add\n      mload(0x40)\n      swap1\n      dup2\n      add\n      0x40\n      mstore\n      dup1\n      swap3\n      swap2\n      swap1\n      dup2\n      dup2\n      mstore\n      0x20\n      add\n      dup3\n      dup1\n      sload\n      tag_100\n      swap1\n      tag_99\n      jump\t// in\n    tag_100:\n      dup1\n      iszero\n      tag_101\n      jumpi\n      dup1\n      0x1f\n      lt\n      tag_102\n      jumpi\n      0x0100\n      dup1\n      dup4\n      sload\n      div\n      mul\n      dup4\n      mstore\n      swap2\n      0x20\n      add\n      swap2\n      jump(tag_101)\n    tag_102:\n      dup3\n      add\n      swap2\n      swap1\n      0x00\n      mstore\n      keccak256(0x00, 0x20)\n      swap1\n    tag_103:\n      dup2\n      sload\n      dup2\n      mstore\n      swap1\n      0x01\n      add\n      swap1\n      0x20\n      add\n      dup1\n      dup4\n      gt\n      tag_103\n      jumpi\n      dup3\n      swap1\n      sub\n      0x1f\n      and\n      dup3\n      add\n      swap2\n    tag_101:\n      pop\n      pop\n      pop\n      pop\n      pop\n      swap1\n      pop\n        /* \"contracts/erc20.sol\":4260:4343  function name() public view returns (string memory) {\r... */\n      swap1\n      jump\t// out\n        /* \"contracts/erc20.sol\":1514:1670  function approve(address spender, uint amount) public override returns (bool) {\r... */\n    tag_31:\n        /* \"contracts/erc20.sol\":1586:1590  bool */\n      0x00\n        /* \"contracts/erc20.sol\":1603:1640  _approve(msg.sender, spender, amount) */\n      tag_105\n        /* \"contracts/erc20.sol\":1612:1622  msg.sender */\n      caller\n        /* \"contracts/erc20.sol\":1624:1631  spender */\n      dup5\n        /* \"contracts/erc20.sol\":1633:1639  amount */\n      dup5\n        /* \"contracts/erc20.sol\":1603:1611  _approve */\n      tag_106\n        /* \"contracts/erc20.sol\":1603:1640  _approve(msg.sender, spender, amount) */\n      jump\t// in\n    tag_105:\n        /* \"contracts/erc20.sol\":1658:1662  true */\n      0x01\n        /* \"contracts/erc20.sol\":1651:1662  return true */\n      swap1\n      pop\n        /* \"contracts/erc20.sol\":1514:1670  function approve(address spender, uint amount) public override returns (bool) {\r... */\n      swap3\n      swap2\n      pop\n      pop\n      jump\t// out\n        /* \"contracts/erc20.sol\":975:1072  function totalSupply() public view override returns (uint) {\r... */\n    tag_35:\n        /* \"contracts/erc20.sol\":1028:1032  uint */\n      0x00\n        /* \"contracts/erc20.sol\":1052:1064  _totalSupply */\n      sload(0x02)\n        /* \"contracts/erc20.sol\":1045:1064  return _totalSupply */\n      swap1\n      pop\n        /* \"contracts/erc20.sol\":975:1072  function totalSupply() public view override returns (uint) {\r... */\n      swap1\n      jump\t// out\n        /* \"contracts/erc20.sol\":7853:8019  function setTokenOwner(address _tokenOwner) public {\r... */\n    tag_41:\n        /* \"contracts/erc20.sol\":7937:7947  tokenOwner */\n      0x05\n      0x01\n      swap1\n      sload\n      swap1\n      0x0100\n      exp\n      swap1\n      div\n      0xffffffffffffffffffffffffffffffffffffffff\n      and\n        /* \"contracts/erc20.sol\":7923:7947  msg.sender == tokenOwner */\n      0xffffffffffffffffffffffffffffffffffffffff\n      and\n        /* \"contracts/erc20.sol\":7923:7933  msg.sender */\n      caller\n        /* \"contracts/erc20.sol\":7923:7947  msg.sender == tokenOwner */\n      0xffffffffffffffffffffffffffffffffffffffff\n      and\n      eq\n        /* \"contracts/erc20.sol\":7915:7976  require(msg.sender == tokenOwner, \"Sin permisos especiales!\") */\n      tag_109\n      jumpi\n      mload(0x40)\n      0x08c379a000000000000000000000000000000000000000000000000000000000\n      dup2\n      mstore\n      0x04\n      add\n      tag_110\n      swap1\n      tag_111\n      jump\t// in\n    tag_110:\n      mload(0x40)\n      dup1\n      swap2\n      sub\n      swap1\n      revert\n    tag_109:\n        /* \"contracts/erc20.sol\":8000:8011  _tokenOwner */\n      dup1\n        /* \"contracts/erc20.sol\":7987:7997  tokenOwner */\n      0x05\n      0x01\n        /* \"contracts/erc20.sol\":7987:8011  tokenOwner = _tokenOwner */\n      0x0100\n      exp\n      dup2\n      sload\n      dup2\n      0xffffffffffffffffffffffffffffffffffffffff\n      mul\n      not\n      and\n      swap1\n      dup4\n      0xffffffffffffffffffffffffffffffffffffffff\n      and\n      mul\n      or\n      swap1\n      sstore\n      pop\n        /* \"contracts/erc20.sol\":7853:8019  function setTokenOwner(address _tokenOwner) public {\r... */\n      pop\n      jump\t// out\n        /* \"contracts/erc20.sol\":1676:1854  function transferFrom(address sender, address recipient, uint amount) public override returns (bool) {\r... */\n    tag_45:\n        /* \"contracts/erc20.sol\":1771:1775  bool */\n      0x00\n        /* \"contracts/erc20.sol\":1788:1824  _transfer(sender, recipient, amount) */\n      tag_113\n        /* \"contracts/erc20.sol\":1798:1804  sender */\n      dup5\n        /* \"contracts/erc20.sol\":1806:1815  recipient */\n      dup5\n        /* \"contracts/erc20.sol\":1817:1823  amount */\n      dup5\n        /* \"contracts/erc20.sol\":1788:1797  _transfer */\n      tag_114\n        /* \"contracts/erc20.sol\":1788:1824  _transfer(sender, recipient, amount) */\n      jump\t// in\n    tag_113:\n        /* \"contracts/erc20.sol\":1842:1846  true */\n      0x01\n        /* \"contracts/erc20.sol\":1835:1846  return true */\n      swap1\n      pop\n        /* \"contracts/erc20.sol\":1676:1854  function transferFrom(address sender, address recipient, uint amount) public override returns (bool) {\r... */\n      swap4\n      swap3\n      pop\n      pop\n      pop\n      jump\t// out\n        /* \"contracts/erc20.sol\":8192:8353  function removeMinter(address _minter) public {\r... */\n    tag_49:\n        /* \"contracts/erc20.sol\":8271:8281  tokenOwner */\n      0x05\n      0x01\n      swap1\n      sload\n      swap1\n      0x0100\n      exp\n      swap1\n      div\n      0xffffffffffffffffffffffffffffffffffffffff\n      and\n        /* \"contracts/erc20.sol\":8257:8281  msg.sender == tokenOwner */\n      0xffffffffffffffffffffffffffffffffffffffff\n      and\n        /* \"contracts/erc20.sol\":8257:8267  msg.sender */\n      caller\n        /* \"contracts/erc20.sol\":8257:8281  msg.sender == tokenOwner */\n      0xffffffffffffffffffffffffffffffffffffffff\n      and\n      eq\n        /* \"contracts/erc20.sol\":8249:8310  require(msg.sender == tokenOwner, \"Sin permisos especiales!\") */\n      tag_116\n      jumpi\n      mload(0x40)\n      0x08c379a000000000000000000000000000000000000000000000000000000000\n      dup2\n      mstore\n      0x04\n      add\n      tag_117\n      swap1\n      tag_111\n      jump\t// in\n    tag_117:\n      mload(0x40)\n      dup1\n      swap2\n      sub\n      swap1\n      revert\n    tag_116:\n        /* \"contracts/erc20.sol\":8340:8345  false */\n      0x00\n        /* \"contracts/erc20.sol\":8321:8328  minters */\n      0x06\n        /* \"contracts/erc20.sol\":8321:8337  minters[_minter] */\n      0x00\n        /* \"contracts/erc20.sol\":8329:8336  _minter */\n      dup4\n        /* \"contracts/erc20.sol\":8321:8337  minters[_minter] */\n      0xffffffffffffffffffffffffffffffffffffffff\n      and\n      0xffffffffffffffffffffffffffffffffffffffff\n      and\n      dup2\n      mstore\n      0x20\n      add\n      swap1\n      dup2\n      mstore\n      0x20\n      add\n      0x00\n      keccak256\n      0x00\n        /* \"contracts/erc20.sol\":8321:8345  minters[_minter] = false */\n      0x0100\n      exp\n      dup2\n      sload\n      dup2\n      0xff\n      mul\n      not\n      and\n      swap1\n      dup4\n      iszero\n      iszero\n      mul\n      or\n      swap1\n      sstore\n      pop\n        /* \"contracts/erc20.sol\":8192:8353  function removeMinter(address _minter) public {\r... */\n      pop\n      jump\t// out\n        /* \"contracts/erc20.sol\":4442:4525  function decimals() public view returns (uint8) {\r... */\n    tag_51:\n        /* \"contracts/erc20.sol\":4483:4488  uint8 */\n      0x00\n        /* \"contracts/erc20.sol\":4508:4517  _decimals */\n      0x05\n      0x00\n      swap1\n      sload\n      swap1\n      0x0100\n      exp\n      swap1\n      div\n      0xff\n      and\n        /* \"contracts/erc20.sol\":4501:4517  return _decimals */\n      swap1\n      pop\n        /* \"contracts/erc20.sol\":4442:4525  function decimals() public view returns (uint8) {\r... */\n      swap1\n      jump\t// out\n        /* \"contracts/erc20.sol\":1860:2063  function increaseAllowance(address spender, uint addedValue) public returns (bool) {\r... */\n    tag_56:\n        /* \"contracts/erc20.sol\":1937:1941  bool */\n      0x00\n        /* \"contracts/erc20.sol\":1954:2033  _approve(msg.sender, spender, _allowances[msg.sender][spender].add(addedValue)) */\n      tag_120\n        /* \"contracts/erc20.sol\":1963:1973  msg.sender */\n      caller\n        /* \"contracts/erc20.sol\":1975:1982  spender */\n      dup5\n        /* \"contracts/erc20.sol\":1984:2032  _allowances[msg.sender][spender].add(addedValue) */\n      tag_121\n        /* \"contracts/erc20.sol\":2021:2031  addedValue */\n      dup6\n        /* \"contracts/erc20.sol\":1984:1995  _allowances */\n      0x01\n        /* \"contracts/erc20.sol\":1984:2007  _allowances[msg.sender] */\n      0x00\n        /* \"contracts/erc20.sol\":1996:2006  msg.sender */\n      caller\n        /* \"contracts/erc20.sol\":1984:2007  _allowances[msg.sender] */\n      0xffffffffffffffffffffffffffffffffffffffff\n      and\n      0xffffffffffffffffffffffffffffffffffffffff\n      and\n      dup2\n      mstore\n      0x20\n      add\n      swap1\n      dup2\n      mstore\n      0x20\n      add\n      0x00\n      keccak256\n        /* \"contracts/erc20.sol\":1984:2016  _allowances[msg.sender][spender] */\n      0x00\n        /* \"contracts/erc20.sol\":2008:2015  spender */\n      dup10\n        /* \"contracts/erc20.sol\":1984:2016  _allowances[msg.sender][spender] */\n      0xffffffffffffffffffffffffffffffffffffffff\n      and\n      0xffffffffffffffffffffffffffffffffffffffff\n      and\n      dup2\n      mstore\n      0x20\n      add\n      swap1\n      dup2\n      mstore\n      0x20\n      add\n      0x00\n      keccak256\n      sload\n        /* \"contracts/erc20.sol\":1984:2020  _allowances[msg.sender][spender].add */\n      tag_96\n      swap1\n        /* \"contracts/erc20.sol\":1984:2032  _allowances[msg.sender][spender].add(addedValue) */\n      swap2\n      swap1\n      0xffffffff\n      and\n      jump\t// in\n    tag_121:\n        /* \"contracts/erc20.sol\":1954:1962  _approve */\n      tag_106\n        /* \"contracts/erc20.sol\":1954:2033  _approve(msg.sender, spender, _allowances[msg.sender][spender].add(addedValue)) */\n      jump\t// in\n    tag_120:\n        /* \"contracts/erc20.sol\":2051:2055  true */\n      0x01\n        /* \"contracts/erc20.sol\":2044:2055  return true */\n      swap1\n      pop\n        /* \"contracts/erc20.sol\":1860:2063  function increaseAllowance(address spender, uint addedValue) public returns (bool) {\r... */\n      swap3\n      swap2\n      pop\n      pop\n      jump\t// out\n        /* \"contracts/erc20.sol\":7697:7845  function mint(address account, uint amount) public {\r... */\n    tag_60:\n        /* \"contracts/erc20.sol\":7767:7774  minters */\n      0x06\n        /* \"contracts/erc20.sol\":7767:7786  minters[msg.sender] */\n      0x00\n        /* \"contracts/erc20.sol\":7775:7785  msg.sender */\n      caller\n        /* \"contracts/erc20.sol\":7767:7786  minters[msg.sender] */\n      0xffffffffffffffffffffffffffffffffffffffff\n      and\n      0xffffffffffffffffffffffffffffffffffffffff\n      and\n      dup2\n      mstore\n      0x20\n      add\n      swap1\n      dup2\n      mstore\n      0x20\n      add\n      0x00\n      keccak256\n      0x00\n      swap1\n      sload\n      swap1\n      0x0100\n      exp\n      swap1\n      div\n      0xff\n      and\n        /* \"contracts/erc20.sol\":7759:7804  require(minters[msg.sender], \"Sin permisos!\") */\n      tag_123\n      jumpi\n      mload(0x40)\n      0x08c379a000000000000000000000000000000000000000000000000000000000\n      dup2\n      mstore\n      0x04\n      add\n      tag_124\n      swap1\n      tag_125\n      jump\t// in\n    tag_124:\n      mload(0x40)\n      dup1\n      swap2\n      sub\n      swap1\n      revert\n    tag_123:\n        /* \"contracts/erc20.sol\":7815:7837  _mint(account, amount) */\n      tag_126\n        /* \"contracts/erc20.sol\":7821:7828  account */\n      dup3\n        /* \"contracts/erc20.sol\":7830:7836  amount */\n      dup3\n        /* \"contracts/erc20.sol\":7815:7820  _mint */\n      tag_127\n        /* \"contracts/erc20.sol\":7815:7837  _mint(account, amount) */\n      jump\t// in\n    tag_126:\n        /* \"contracts/erc20.sol\":7697:7845  function mint(address account, uint amount) public {\r... */\n      pop\n      pop\n      jump\t// out\n        /* \"contracts/erc20.sol\":8361:8442  function burn(uint256 amount) public {\r... */\n    tag_64:\n        /* \"contracts/erc20.sol\":8409:8434  _burn(msg.sender, amount) */\n      tag_129\n        /* \"contracts/erc20.sol\":8415:8425  msg.sender */\n      caller\n        /* \"contracts/erc20.sol\":8427:8433  amount */\n      dup3\n        /* \"contracts/erc20.sol\":8409:8414  _burn */\n      tag_130\n        /* \"contracts/erc20.sol\":8409:8434  _burn(msg.sender, amount) */\n      jump\t// in\n    tag_129:\n        /* \"contracts/erc20.sol\":8361:8442  function burn(uint256 amount) public {\r... */\n      pop\n      jump\t// out\n        /* \"contracts/erc20.sol\":1078:1194  function balanceOf(address account) public view override returns (uint) {\r... */\n    tag_67:\n        /* \"contracts/erc20.sol\":1144:1148  uint */\n      0x00\n        /* \"contracts/erc20.sol\":1168:1177  _balances */\n      dup1\n        /* \"contracts/erc20.sol\":1168:1186  _balances[account] */\n      0x00\n        /* \"contracts/erc20.sol\":1178:1185  account */\n      dup4\n        /* \"contracts/erc20.sol\":1168:1186  _balances[account] */\n      0xffffffffffffffffffffffffffffffffffffffff\n      and\n      0xffffffffffffffffffffffffffffffffffffffff\n      and\n      dup2\n      mstore\n      0x20\n      add\n      swap1\n      dup2\n      mstore\n      0x20\n      add\n      0x00\n      keccak256\n      sload\n        /* \"contracts/erc20.sol\":1161:1186  return _balances[account] */\n      swap1\n      pop\n        /* \"contracts/erc20.sol\":1078:1194  function balanceOf(address account) public view override returns (uint) {\r... */\n      swap2\n      swap1\n      pop\n      jump\t// out\n        /* \"contracts/erc20.sol\":4349:4436  function symbol() public view returns (string memory) {\r... */\n    tag_70:\n        /* \"contracts/erc20.sol\":4388:4401  string memory */\n      0x60\n        /* \"contracts/erc20.sol\":4421:4428  _symbol */\n      0x04\n        /* \"contracts/erc20.sol\":4414:4428  return _symbol */\n      dup1\n      sload\n      tag_133\n      swap1\n      tag_99\n      jump\t// in\n    tag_133:\n      dup1\n      0x1f\n      add\n      0x20\n      dup1\n      swap2\n      div\n      mul\n      0x20\n      add\n      mload(0x40)\n      swap1\n      dup2\n      add\n      0x40\n      mstore\n      dup1\n      swap3\n      swap2\n      swap1\n      dup2\n      dup2\n      mstore\n      0x20\n      add\n      dup3\n      dup1\n      sload\n      tag_134\n      swap1\n      tag_99\n      jump\t// in\n    tag_134:\n      dup1\n      iszero\n      tag_135\n      jumpi\n      dup1\n      0x1f\n      lt\n      tag_136\n      jumpi\n      0x0100\n      dup1\n      dup4\n      sload\n      div\n      mul\n      dup4\n      mstore\n      swap2\n      0x20\n      add\n      swap2\n      jump(tag_135)\n    tag_136:\n      dup3\n      add\n      swap2\n      swap1\n      0x00\n      mstore\n      keccak256(0x00, 0x20)\n      swap1\n    tag_137:\n      dup2\n      sload\n      dup2\n      mstore\n      swap1\n      0x01\n      add\n      swap1\n      0x20\n      add\n      dup1\n      dup4\n      gt\n      tag_137\n      jumpi\n      dup3\n      swap1\n      sub\n      0x1f\n      and\n      dup3\n      add\n      swap2\n    tag_135:\n      pop\n      pop\n      pop\n      pop\n      pop\n      swap1\n      pop\n        /* \"contracts/erc20.sol\":4349:4436  function symbol() public view returns (string memory) {\r... */\n      swap1\n      jump\t// out\n        /* \"contracts/erc20.sol\":8027:8184  function addMinter(address _minter) public {\r... */\n    tag_74:\n        /* \"contracts/erc20.sol\":8103:8113  tokenOwner */\n      0x05\n      0x01\n      swap1\n      sload\n      swap1\n      0x0100\n      exp\n      swap1\n      div\n      0xffffffffffffffffffffffffffffffffffffffff\n      and\n        /* \"contracts/erc20.sol\":8089:8113  msg.sender == tokenOwner */\n      0xffffffffffffffffffffffffffffffffffffffff\n      and\n        /* \"contracts/erc20.sol\":8089:8099  msg.sender */\n      caller\n        /* \"contracts/erc20.sol\":8089:8113  msg.sender == tokenOwner */\n      0xffffffffffffffffffffffffffffffffffffffff\n      and\n      eq\n        /* \"contracts/erc20.sol\":8081:8142  require(msg.sender == tokenOwner, \"Sin permisos especiales!\") */\n      tag_139\n      jumpi\n      mload(0x40)\n      0x08c379a000000000000000000000000000000000000000000000000000000000\n      dup2\n      mstore\n      0x04\n      add\n      tag_140\n      swap1\n      tag_111\n      jump\t// in\n    tag_140:\n      mload(0x40)\n      dup1\n      swap2\n      sub\n      swap1\n      revert\n    tag_139:\n        /* \"contracts/erc20.sol\":8172:8176  true */\n      0x01\n        /* \"contracts/erc20.sol\":8153:8160  minters */\n      0x06\n        /* \"contracts/erc20.sol\":8153:8169  minters[_minter] */\n      0x00\n        /* \"contracts/erc20.sol\":8161:8168  _minter */\n      dup4\n        /* \"contracts/erc20.sol\":8153:8169  minters[_minter] */\n      0xffffffffffffffffffffffffffffffffffffffff\n      and\n      0xffffffffffffffffffffffffffffffffffffffff\n      and\n      dup2\n      mstore\n      0x20\n      add\n      swap1\n      dup2\n      mstore\n      0x20\n      add\n      0x00\n      keccak256\n      0x00\n        /* \"contracts/erc20.sol\":8153:8176  minters[_minter] = true */\n      0x0100\n      exp\n      dup2\n      sload\n      dup2\n      0xff\n      mul\n      not\n      and\n      swap1\n      dup4\n      iszero\n      iszero\n      mul\n      or\n      swap1\n      sstore\n      pop\n        /* \"contracts/erc20.sol\":8027:8184  function addMinter(address _minter) public {\r... */\n      pop\n      jump\t// out\n        /* \"contracts/erc20.sol\":7450:7475  address public tokenOwner */\n    tag_76:\n      0x05\n      0x01\n      swap1\n      sload\n      swap1\n      0x0100\n      exp\n      swap1\n      div\n      0xffffffffffffffffffffffffffffffffffffffff\n      and\n      dup2\n      jump\t// out\n        /* \"contracts/erc20.sol\":2069:2340  function decreaseAllowance(address spender, uint subtractedValue) public returns (bool) {\r... */\n    tag_81:\n        /* \"contracts/erc20.sol\":2151:2155  bool */\n      0x00\n        /* \"contracts/erc20.sol\":2168:2310  _approve(msg.sender, spender, _allowances[msg.sender][spender].sub(subtractedValue, \"ERC20: disminucion de la asignacion por debajo de cero\")) */\n      tag_142\n        /* \"contracts/erc20.sol\":2177:2187  msg.sender */\n      caller\n        /* \"contracts/erc20.sol\":2189:2196  spender */\n      dup5\n        /* \"contracts/erc20.sol\":2198:2309  _allowances[msg.sender][spender].sub(subtractedValue, \"ERC20: disminucion de la asignacion por debajo de cero\") */\n      tag_143\n        /* \"contracts/erc20.sol\":2235:2250  subtractedValue */\n      dup6\n        /* \"contracts/erc20.sol\":2198:2309  _allowances[msg.sender][spender].sub(subtractedValue, \"ERC20: disminucion de la asignacion por debajo de cero\") */\n      mload(0x40)\n      dup1\n      0x60\n      add\n      0x40\n      mstore\n      dup1\n      0x36\n      dup2\n      mstore\n      0x20\n      add\n      data_39a9e457cd9646a6cb04d0ecb8a1ea7e68ccb3ce96f9ab7658369423053dbc1a\n      0x36\n      swap2\n      codecopy\n        /* \"contracts/erc20.sol\":2198:2209  _allowances */\n      0x01\n        /* \"contracts/erc20.sol\":2198:2221  _allowances[msg.sender] */\n      0x00\n        /* \"contracts/erc20.sol\":2210:2220  msg.sender */\n      caller\n        /* \"contracts/erc20.sol\":2198:2221  _allowances[msg.sender] */\n      0xffffffffffffffffffffffffffffffffffffffff\n      and\n      0xffffffffffffffffffffffffffffffffffffffff\n      and\n      dup2\n      mstore\n      0x20\n      add\n      swap1\n      dup2\n      mstore\n      0x20\n      add\n      0x00\n      keccak256\n        /* \"contracts/erc20.sol\":2198:2230  _allowances[msg.sender][spender] */\n      0x00\n        /* \"contracts/erc20.sol\":2222:2229  spender */\n      dup11\n        /* \"contracts/erc20.sol\":2198:2230  _allowances[msg.sender][spender] */\n      0xffffffffffffffffffffffffffffffffffffffff\n      and\n      0xffffffffffffffffffffffffffffffffffffffff\n      and\n      dup2\n      mstore\n      0x20\n      add\n      swap1\n      dup2\n      mstore\n      0x20\n      add\n      0x00\n      keccak256\n      sload\n        /* \"contracts/erc20.sol\":2198:2234  _allowances[msg.sender][spender].sub */\n      tag_144\n      swap1\n        /* \"contracts/erc20.sol\":2198:2309  _allowances[msg.sender][spender].sub(subtractedValue, \"ERC20: disminucion de la asignacion por debajo de cero\") */\n      swap3\n      swap2\n      swap1\n      0xffffffff\n      and\n      jump\t// in\n    tag_143:\n        /* \"contracts/erc20.sol\":2168:2176  _approve */\n      tag_106\n        /* \"contracts/erc20.sol\":2168:2310  _approve(msg.sender, spender, _allowances[msg.sender][spender].sub(subtractedValue, \"ERC20: disminucion de la asignacion por debajo de cero\")) */\n      jump\t// in\n    tag_142:\n        /* \"contracts/erc20.sol\":2328:2332  true */\n      0x01\n        /* \"contracts/erc20.sol\":2321:2332  return true */\n      swap1\n      pop\n        /* \"contracts/erc20.sol\":2069:2340  function decreaseAllowance(address spender, uint subtractedValue) public returns (bool) {\r... */\n      swap3\n      swap2\n      pop\n      pop\n      jump\t// out\n        /* \"contracts/erc20.sol\":1200:1362  function transfer(address recipient, uint amount) public override returns (bool) {\r... */\n    tag_85:\n        /* \"contracts/erc20.sol\":1275:1279  bool */\n      0x00\n        /* \"contracts/erc20.sol\":1292:1332  _transfer(msg.sender, recipient, amount) */\n      tag_146\n        /* \"contracts/erc20.sol\":1302:1312  msg.sender */\n      caller\n        /* \"contracts/erc20.sol\":1314:1323  recipient */\n      dup5\n        /* \"contracts/erc20.sol\":1325:1331  amount */\n      dup5\n        /* \"contracts/erc20.sol\":1292:1301  _transfer */\n      tag_114\n        /* \"contracts/erc20.sol\":1292:1332  _transfer(msg.sender, recipient, amount) */\n      jump\t// in\n    tag_146:\n        /* \"contracts/erc20.sol\":1350:1354  true */\n      0x01\n        /* \"contracts/erc20.sol\":1343:1354  return true */\n      swap1\n      pop\n        /* \"contracts/erc20.sol\":1200:1362  function transfer(address recipient, uint amount) public override returns (bool) {\r... */\n      swap3\n      swap2\n      pop\n      pop\n      jump\t// out\n        /* \"contracts/erc20.sol\":1368:1508  function allowance(address owner, address spender) public view override returns (uint) {\r... */\n    tag_90:\n        /* \"contracts/erc20.sol\":1449:1453  uint */\n      0x00\n        /* \"contracts/erc20.sol\":1473:1484  _allowances */\n      0x01\n        /* \"contracts/erc20.sol\":1473:1491  _allowances[owner] */\n      0x00\n        /* \"contracts/erc20.sol\":1485:1490  owner */\n      dup5\n        /* \"contracts/erc20.sol\":1473:1491  _allowances[owner] */\n      0xffffffffffffffffffffffffffffffffffffffff\n      and\n      0xffffffffffffffffffffffffffffffffffffffff\n      and\n      dup2\n      mstore\n      0x20\n      add\n      swap1\n      dup2\n      mstore\n      0x20\n      add\n      0x00\n      keccak256\n        /* \"contracts/erc20.sol\":1473:1500  _allowances[owner][spender] */\n      0x00\n        /* \"contracts/erc20.sol\":1492:1499  spender */\n      dup4\n        /* \"contracts/erc20.sol\":1473:1500  _allowances[owner][spender] */\n      0xffffffffffffffffffffffffffffffffffffffff\n      and\n      0xffffffffffffffffffffffffffffffffffffffff\n      and\n      dup2\n      mstore\n      0x20\n      add\n      swap1\n      dup2\n      mstore\n      0x20\n      add\n      0x00\n      keccak256\n      sload\n        /* \"contracts/erc20.sol\":1466:1500  return _allowances[owner][spender] */\n      swap1\n      pop\n        /* \"contracts/erc20.sol\":1368:1508  function allowance(address owner, address spender) public view override returns (uint) {\r... */\n      swap3\n      swap2\n      pop\n      pop\n      jump\t// out\n        /* \"contracts/erc20.sol\":7482:7522  mapping (address => bool) public minters */\n    tag_94:\n      mstore(0x20, 0x06)\n      dup1\n      0x00\n      mstore\n      keccak256(0x00, 0x40)\n      0x00\n      swap2\n      pop\n      sload\n      swap1\n      0x0100\n      exp\n      swap1\n      div\n      0xff\n      and\n      dup2\n      jump\t// out\n        /* \"contracts/erc20.sol\":4556:4733  function add(uint a, uint b) internal pure returns (uint) {\r... */\n    tag_96:\n        /* \"contracts/erc20.sol\":4608:4612  uint */\n      0x00\n        /* \"contracts/erc20.sol\":4625:4631  uint c */\n      dup1\n        /* \"contracts/erc20.sol\":4638:4639  b */\n      dup3\n        /* \"contracts/erc20.sol\":4634:4635  a */\n      dup5\n        /* \"contracts/erc20.sol\":4634:4639  a + b */\n      tag_149\n      swap2\n      swap1\n      tag_150\n      jump\t// in\n    tag_149:\n        /* \"contracts/erc20.sol\":4625:4639  uint c = a + b */\n      swap1\n      pop\n        /* \"contracts/erc20.sol\":4663:4664  a */\n      dup4\n        /* \"contracts/erc20.sol\":4658:4659  c */\n      dup2\n        /* \"contracts/erc20.sol\":4658:4664  c >= a */\n      lt\n      iszero\n        /* \"contracts/erc20.sol\":4650:4704  require(c >= a, \"SafeMath: desbordamiento en la suma\") */\n      tag_151\n      jumpi\n      mload(0x40)\n      0x08c379a000000000000000000000000000000000000000000000000000000000\n      dup2\n      mstore\n      0x04\n      add\n      tag_152\n      swap1\n      tag_153\n      jump\t// in\n    tag_152:\n      mload(0x40)\n      dup1\n      swap2\n      sub\n      swap1\n      revert\n    tag_151:\n        /* \"contracts/erc20.sol\":4724:4725  c */\n      dup1\n        /* \"contracts/erc20.sol\":4717:4725  return c */\n      swap2\n      pop\n      pop\n        /* \"contracts/erc20.sol\":4556:4733  function add(uint a, uint b) internal pure returns (uint) {\r... */\n      swap3\n      swap2\n      pop\n      pop\n      jump\t// out\n        /* \"contracts/erc20.sol\":3613:3950  function _approve(address owner, address spender, uint amount) internal {\r... */\n    tag_106:\n        /* \"contracts/erc20.sol\":3721:3722  0 */\n      0x00\n        /* \"contracts/erc20.sol\":3704:3723  owner != address(0) */\n      0xffffffffffffffffffffffffffffffffffffffff\n      and\n        /* \"contracts/erc20.sol\":3704:3709  owner */\n      dup4\n        /* \"contracts/erc20.sol\":3704:3723  owner != address(0) */\n      0xffffffffffffffffffffffffffffffffffffffff\n      and\n      eq\n      iszero\n        /* \"contracts/erc20.sol\":3696:3766  require(owner != address(0), \"ERC20: aprobar desde la direccion cero\") */\n      tag_155\n      jumpi\n      mload(0x40)\n      0x08c379a000000000000000000000000000000000000000000000000000000000\n      dup2\n      mstore\n      0x04\n      add\n      tag_156\n      swap1\n      tag_157\n      jump\t// in\n    tag_156:\n      mload(0x40)\n      dup1\n      swap2\n      sub\n      swap1\n      revert\n    tag_155:\n        /* \"contracts/erc20.sol\":3804:3805  0 */\n      0x00\n        /* \"contracts/erc20.sol\":3785:3806  spender != address(0) */\n      0xffffffffffffffffffffffffffffffffffffffff\n      and\n        /* \"contracts/erc20.sol\":3785:3792  spender */\n      dup3\n        /* \"contracts/erc20.sol\":3785:3806  spender != address(0) */\n      0xffffffffffffffffffffffffffffffffffffffff\n      and\n      eq\n      iszero\n        /* \"contracts/erc20.sol\":3777:3845  require(spender != address(0), \"ERC20: aprobar a la direccion cero\") */\n      tag_158\n      jumpi\n      mload(0x40)\n      0x08c379a000000000000000000000000000000000000000000000000000000000\n      dup2\n      mstore\n      0x04\n      add\n      tag_159\n      swap1\n      tag_160\n      jump\t// in\n    tag_159:\n      mload(0x40)\n      dup1\n      swap2\n      sub\n      swap1\n      revert\n    tag_158:\n        /* \"contracts/erc20.sol\":3888:3894  amount */\n      dup1\n        /* \"contracts/erc20.sol\":3858:3869  _allowances */\n      0x01\n        /* \"contracts/erc20.sol\":3858:3876  _allowances[owner] */\n      0x00\n        /* \"contracts/erc20.sol\":3870:3875  owner */\n      dup6\n        /* \"contracts/erc20.sol\":3858:3876  _allowances[owner] */\n      0xffffffffffffffffffffffffffffffffffffffff\n      and\n      0xffffffffffffffffffffffffffffffffffffffff\n      and\n      dup2\n      mstore\n      0x20\n      add\n      swap1\n      dup2\n      mstore\n      0x20\n      add\n      0x00\n      keccak256\n        /* \"contracts/erc20.sol\":3858:3885  _allowances[owner][spender] */\n      0x00\n        /* \"contracts/erc20.sol\":3877:3884  spender */\n      dup5\n        /* \"contracts/erc20.sol\":3858:3885  _allowances[owner][spender] */\n      0xffffffffffffffffffffffffffffffffffffffff\n      and\n      0xffffffffffffffffffffffffffffffffffffffff\n      and\n      dup2\n      mstore\n      0x20\n      add\n      swap1\n      dup2\n      mstore\n      0x20\n      add\n      0x00\n      keccak256\n        /* \"contracts/erc20.sol\":3858:3894  _allowances[owner][spender] = amount */\n      dup2\n      swap1\n      sstore\n      pop\n        /* \"contracts/erc20.sol\":3926:3933  spender */\n      dup2\n        /* \"contracts/erc20.sol\":3910:3942  Approval(owner, spender, amount) */\n      0xffffffffffffffffffffffffffffffffffffffff\n      and\n        /* \"contracts/erc20.sol\":3919:3924  owner */\n      dup4\n        /* \"contracts/erc20.sol\":3910:3942  Approval(owner, spender, amount) */\n      0xffffffffffffffffffffffffffffffffffffffff\n      and\n      0x8c5be1e5ebec7d5bd14f71427d1e84f3dd0314c0f7b2291e5b200ac8c7c3b925\n        /* \"contracts/erc20.sol\":3935:3941  amount */\n      dup4\n        /* \"contracts/erc20.sol\":3910:3942  Approval(owner, spender, amount) */\n      mload(0x40)\n      tag_161\n      swap2\n      swap1\n      tag_37\n      jump\t// in\n    tag_161:\n      mload(0x40)\n      dup1\n      swap2\n      sub\n      swap1\n      log3\n        /* \"contracts/erc20.sol\":3613:3950  function _approve(address owner, address spender, uint amount) internal {\r... */\n      pop\n      pop\n      pop\n      jump\t// out\n        /* \"contracts/erc20.sol\":2348:2838  function _transfer(address sender, address recipient, uint amount) internal {\r... */\n    tag_114:\n        /* \"contracts/erc20.sol\":2461:2462  0 */\n      0x00\n        /* \"contracts/erc20.sol\":2443:2463  sender != address(0) */\n      0xffffffffffffffffffffffffffffffffffffffff\n      and\n        /* \"contracts/erc20.sol\":2443:2449  sender */\n      dup4\n        /* \"contracts/erc20.sol\":2443:2463  sender != address(0) */\n      0xffffffffffffffffffffffffffffffffffffffff\n      and\n      eq\n      iszero\n        /* \"contracts/erc20.sol\":2435:2512  require(sender != address(0), \"ERC20: transferencia desde la direccion cero\") */\n      tag_163\n      jumpi\n      mload(0x40)\n      0x08c379a000000000000000000000000000000000000000000000000000000000\n      dup2\n      mstore\n      0x04\n      add\n      tag_164\n      swap1\n      tag_165\n      jump\t// in\n    tag_164:\n      mload(0x40)\n      dup1\n      swap2\n      sub\n      swap1\n      revert\n    tag_163:\n        /* \"contracts/erc20.sol\":2552:2553  0 */\n      0x00\n        /* \"contracts/erc20.sol\":2531:2554  recipient != address(0) */\n      0xffffffffffffffffffffffffffffffffffffffff\n      and\n        /* \"contracts/erc20.sol\":2531:2540  recipient */\n      dup3\n        /* \"contracts/erc20.sol\":2531:2554  recipient != address(0) */\n      0xffffffffffffffffffffffffffffffffffffffff\n      and\n      eq\n      iszero\n        /* \"contracts/erc20.sol\":2523:2596  require(recipient != address(0), \"ERC20: transferir a la direccion cero\") */\n      tag_166\n      jumpi\n      mload(0x40)\n      0x08c379a000000000000000000000000000000000000000000000000000000000\n      dup2\n      mstore\n      0x04\n      add\n      tag_167\n      swap1\n      tag_168\n      jump\t// in\n    tag_167:\n      mload(0x40)\n      dup1\n      swap2\n      sub\n      swap1\n      revert\n    tag_166:\n        /* \"contracts/erc20.sol\":2629:2713  _balances[sender].sub(amount, \"ERC20: el monto de la transferencia excede el saldo\") */\n      tag_169\n        /* \"contracts/erc20.sol\":2651:2657  amount */\n      dup2\n        /* \"contracts/erc20.sol\":2629:2713  _balances[sender].sub(amount, \"ERC20: el monto de la transferencia excede el saldo\") */\n      mload(0x40)\n      dup1\n      0x60\n      add\n      0x40\n      mstore\n      dup1\n      0x33\n      dup2\n      mstore\n      0x20\n      add\n      data_8ed302d156bb0e1b9333b1cc2b7ffc0d3cd399268d9d7b014b5553169595fda7\n      0x33\n      swap2\n      codecopy\n        /* \"contracts/erc20.sol\":2629:2638  _balances */\n      0x00\n        /* \"contracts/erc20.sol\":2629:2646  _balances[sender] */\n      dup1\n        /* \"contracts/erc20.sol\":2639:2645  sender */\n      dup8\n        /* \"contracts/erc20.sol\":2629:2646  _balances[sender] */\n      0xffffffffffffffffffffffffffffffffffffffff\n      and\n      0xffffffffffffffffffffffffffffffffffffffff\n      and\n      dup2\n      mstore\n      0x20\n      add\n      swap1\n      dup2\n      mstore\n      0x20\n      add\n      0x00\n      keccak256\n      sload\n        /* \"contracts/erc20.sol\":2629:2650  _balances[sender].sub */\n      tag_144\n      swap1\n        /* \"contracts/erc20.sol\":2629:2713  _balances[sender].sub(amount, \"ERC20: el monto de la transferencia excede el saldo\") */\n      swap3\n      swap2\n      swap1\n      0xffffffff\n      and\n      jump\t// in\n    tag_169:\n        /* \"contracts/erc20.sol\":2609:2618  _balances */\n      0x00\n        /* \"contracts/erc20.sol\":2609:2626  _balances[sender] */\n      dup1\n        /* \"contracts/erc20.sol\":2619:2625  sender */\n      dup6\n        /* \"contracts/erc20.sol\":2609:2626  _balances[sender] */\n      0xffffffffffffffffffffffffffffffffffffffff\n      and\n      0xffffffffffffffffffffffffffffffffffffffff\n      and\n      dup2\n      mstore\n      0x20\n      add\n      swap1\n      dup2\n      mstore\n      0x20\n      add\n      0x00\n      keccak256\n        /* \"contracts/erc20.sol\":2609:2713  _balances[sender] = _balances[sender].sub(amount, \"ERC20: el monto de la transferencia excede el saldo\") */\n      dup2\n      swap1\n      sstore\n      pop\n        /* \"contracts/erc20.sol\":2747:2779  _balances[recipient].add(amount) */\n      tag_170\n        /* \"contracts/erc20.sol\":2772:2778  amount */\n      dup2\n        /* \"contracts/erc20.sol\":2747:2756  _balances */\n      0x00\n        /* \"contracts/erc20.sol\":2747:2767  _balances[recipient] */\n      dup1\n        /* \"contracts/erc20.sol\":2757:2766  recipient */\n      dup6\n        /* \"contracts/erc20.sol\":2747:2767  _balances[recipient] */\n      0xffffffffffffffffffffffffffffffffffffffff\n      and\n      0xffffffffffffffffffffffffffffffffffffffff\n      and\n      dup2\n      mstore\n      0x20\n      add\n      swap1\n      dup2\n      mstore\n      0x20\n      add\n      0x00\n      keccak256\n      sload\n        /* \"contracts/erc20.sol\":2747:2771  _balances[recipient].add */\n      tag_96\n      swap1\n        /* \"contracts/erc20.sol\":2747:2779  _balances[recipient].add(amount) */\n      swap2\n      swap1\n      0xffffffff\n      and\n      jump\t// in\n    tag_170:\n        /* \"contracts/erc20.sol\":2724:2733  _balances */\n      0x00\n        /* \"contracts/erc20.sol\":2724:2744  _balances[recipient] */\n      dup1\n        /* \"contracts/erc20.sol\":2734:2743  recipient */\n      dup5\n        /* \"contracts/erc20.sol\":2724:2744  _balances[recipient] */\n      0xffffffffffffffffffffffffffffffffffffffff\n      and\n      0xffffffffffffffffffffffffffffffffffffffff\n      and\n      dup2\n      mstore\n      0x20\n      add\n      swap1\n      dup2\n      mstore\n      0x20\n      add\n      0x00\n      keccak256\n        /* \"contracts/erc20.sol\":2724:2779  _balances[recipient] = _balances[recipient].add(amount) */\n      dup2\n      swap1\n      sstore\n      pop\n        /* \"contracts/erc20.sol\":2812:2821  recipient */\n      dup2\n        /* \"contracts/erc20.sol\":2795:2830  Transfer(sender, recipient, amount) */\n      0xffffffffffffffffffffffffffffffffffffffff\n      and\n        /* \"contracts/erc20.sol\":2804:2810  sender */\n      dup4\n        /* \"contracts/erc20.sol\":2795:2830  Transfer(sender, recipient, amount) */\n      0xffffffffffffffffffffffffffffffffffffffff\n      and\n      0xddf252ad1be2c89b69c2b068fc378daa952ba7f163c4a11628f55a4df523b3ef\n        /* \"contracts/erc20.sol\":2823:2829  amount */\n      dup4\n        /* \"contracts/erc20.sol\":2795:2830  Transfer(sender, recipient, amount) */\n      mload(0x40)\n      tag_171\n      swap2\n      swap1\n      tag_37\n      jump\t// in\n    tag_171:\n      mload(0x40)\n      dup1\n      swap2\n      sub\n      swap1\n      log3\n        /* \"contracts/erc20.sol\":2348:2838  function _transfer(address sender, address recipient, uint amount) internal {\r... */\n      pop\n      pop\n      pop\n      jump\t// out\n        /* \"contracts/erc20.sol\":2846:3238  function _mint(address account, uint amount) internal {\r... */\n    tag_127:\n        /* \"contracts/erc20.sol\":2938:2939  0 */\n      0x00\n        /* \"contracts/erc20.sol\":2919:2940  account != address(0) */\n      0xffffffffffffffffffffffffffffffffffffffff\n      and\n        /* \"contracts/erc20.sol\":2919:2926  account */\n      dup3\n        /* \"contracts/erc20.sol\":2919:2940  account != address(0) */\n      0xffffffffffffffffffffffffffffffffffffffff\n      and\n      eq\n      iszero\n        /* \"contracts/erc20.sol\":2911:2978  require(account != address(0), \"ERC20: agente a la direccion cero\") */\n      tag_173\n      jumpi\n      mload(0x40)\n      0x08c379a000000000000000000000000000000000000000000000000000000000\n      dup2\n      mstore\n      0x04\n      add\n      tag_174\n      swap1\n      tag_175\n      jump\t// in\n    tag_174:\n      mload(0x40)\n      dup1\n      swap2\n      sub\n      swap1\n      revert\n    tag_173:\n        /* \"contracts/erc20.sol\":3006:3030  _totalSupply.add(amount) */\n      tag_176\n        /* \"contracts/erc20.sol\":3023:3029  amount */\n      dup2\n        /* \"contracts/erc20.sol\":3006:3018  _totalSupply */\n      sload(0x02)\n        /* \"contracts/erc20.sol\":3006:3022  _totalSupply.add */\n      tag_96\n      swap1\n        /* \"contracts/erc20.sol\":3006:3030  _totalSupply.add(amount) */\n      swap2\n      swap1\n      0xffffffff\n      and\n      jump\t// in\n    tag_176:\n        /* \"contracts/erc20.sol\":2991:3003  _totalSupply */\n      0x02\n        /* \"contracts/erc20.sol\":2991:3030  _totalSupply = _totalSupply.add(amount) */\n      dup2\n      swap1\n      sstore\n      pop\n        /* \"contracts/erc20.sol\":3065:3069  1e24 */\n      0xd3c21bcecceda1000000\n        /* \"contracts/erc20.sol\":3049:3061  _totalSupply */\n      sload(0x02)\n        /* \"contracts/erc20.sol\":3049:3069  _totalSupply <= 1e24 */\n      gt\n      iszero\n        /* \"contracts/erc20.sol\":3041:3115  require(_totalSupply <= 1e24, \"_totalSupply por exceder el limite maximo\") */\n      tag_177\n      jumpi\n      mload(0x40)\n      0x08c379a000000000000000000000000000000000000000000000000000000000\n      dup2\n      mstore\n      0x04\n      add\n      tag_178\n      swap1\n      tag_179\n      jump\t// in\n    tag_178:\n      mload(0x40)\n      dup1\n      swap2\n      sub\n      swap1\n      revert\n    tag_177:\n        /* \"contracts/erc20.sol\":3147:3177  _balances[account].add(amount) */\n      tag_180\n        /* \"contracts/erc20.sol\":3170:3176  amount */\n      dup2\n        /* \"contracts/erc20.sol\":3147:3156  _balances */\n      0x00\n        /* \"contracts/erc20.sol\":3147:3165  _balances[account] */\n      dup1\n        /* \"contracts/erc20.sol\":3157:3164  account */\n      dup6\n        /* \"contracts/erc20.sol\":3147:3165  _balances[account] */\n      0xffffffffffffffffffffffffffffffffffffffff\n      and\n      0xffffffffffffffffffffffffffffffffffffffff\n      and\n      dup2\n      mstore\n      0x20\n      add\n      swap1\n      dup2\n      mstore\n      0x20\n      add\n      0x00\n      keccak256\n      sload\n        /* \"contracts/erc20.sol\":3147:3169  _balances[account].add */\n      tag_96\n      swap1\n        /* \"contracts/erc20.sol\":3147:3177  _balances[account].add(amount) */\n      swap2\n      swap1\n      0xffffffff\n      and\n      jump\t// in\n    tag_180:\n        /* \"contracts/erc20.sol\":3126:3135  _balances */\n      0x00\n        /* \"contracts/erc20.sol\":3126:3144  _balances[account] */\n      dup1\n        /* \"contracts/erc20.sol\":3136:3143  account */\n      dup5\n        /* \"contracts/erc20.sol\":3126:3144  _balances[account] */\n      0xffffffffffffffffffffffffffffffffffffffff\n      and\n      0xffffffffffffffffffffffffffffffffffffffff\n      and\n      dup2\n      mstore\n      0x20\n      add\n      swap1\n      dup2\n      mstore\n      0x20\n      add\n      0x00\n      keccak256\n        /* \"contracts/erc20.sol\":3126:3177  _balances[account] = _balances[account].add(amount) */\n      dup2\n      swap1\n      sstore\n      pop\n        /* \"contracts/erc20.sol\":3214:3221  account */\n      dup2\n        /* \"contracts/erc20.sol\":3193:3230  Transfer(address(0), account, amount) */\n      0xffffffffffffffffffffffffffffffffffffffff\n      and\n        /* \"contracts/erc20.sol\":3210:3211  0 */\n      0x00\n        /* \"contracts/erc20.sol\":3193:3230  Transfer(address(0), account, amount) */\n      0xffffffffffffffffffffffffffffffffffffffff\n      and\n      0xddf252ad1be2c89b69c2b068fc378daa952ba7f163c4a11628f55a4df523b3ef\n        /* \"contracts/erc20.sol\":3223:3229  amount */\n      dup4\n        /* \"contracts/erc20.sol\":3193:3230  Transfer(address(0), account, amount) */\n      mload(0x40)\n      tag_181\n      swap2\n      swap1\n      tag_37\n      jump\t// in\n    tag_181:\n      mload(0x40)\n      dup1\n      swap2\n      sub\n      swap1\n      log3\n        /* \"contracts/erc20.sol\":2846:3238  function _mint(address account, uint amount) internal {\r... */\n      pop\n      pop\n      jump\t// out\n        /* \"contracts/erc20.sol\":3250:3607  function _burn(address account, uint amount) internal {\r... */\n    tag_130:\n        /* \"contracts/erc20.sol\":3342:3343  0 */\n      0x00\n        /* \"contracts/erc20.sol\":3323:3344  account != address(0) */\n      0xffffffffffffffffffffffffffffffffffffffff\n      and\n        /* \"contracts/erc20.sol\":3323:3330  account */\n      dup3\n        /* \"contracts/erc20.sol\":3323:3344  account != address(0) */\n      0xffffffffffffffffffffffffffffffffffffffff\n      and\n      eq\n      iszero\n        /* \"contracts/erc20.sol\":3315:3386  require(account != address(0), \"ERC20: quemar desde la direccion cero\") */\n      tag_183\n      jumpi\n      mload(0x40)\n      0x08c379a000000000000000000000000000000000000000000000000000000000\n      dup2\n      mstore\n      0x04\n      add\n      tag_184\n      swap1\n      tag_185\n      jump\t// in\n    tag_184:\n      mload(0x40)\n      dup1\n      swap2\n      sub\n      swap1\n      revert\n    tag_183:\n        /* \"contracts/erc20.sol\":3420:3496  _balances[account].sub(amount, \"ERC20: la cantidad quemada excede el saldo\") */\n      tag_186\n        /* \"contracts/erc20.sol\":3443:3449  amount */\n      dup2\n        /* \"contracts/erc20.sol\":3420:3496  _balances[account].sub(amount, \"ERC20: la cantidad quemada excede el saldo\") */\n      mload(0x40)\n      dup1\n      0x60\n      add\n      0x40\n      mstore\n      dup1\n      0x2a\n      dup2\n      mstore\n      0x20\n      add\n      data_866258f6c7865e46aa656a532304f6ffa9e3cc6506900bcf9b0a52a03f39091c\n      0x2a\n      swap2\n      codecopy\n        /* \"contracts/erc20.sol\":3420:3429  _balances */\n      0x00\n        /* \"contracts/erc20.sol\":3420:3438  _balances[account] */\n      dup1\n        /* \"contracts/erc20.sol\":3430:3437  account */\n      dup7\n        /* \"contracts/erc20.sol\":3420:3438  _balances[account] */\n      0xffffffffffffffffffffffffffffffffffffffff\n      and\n      0xffffffffffffffffffffffffffffffffffffffff\n      and\n      dup2\n      mstore\n      0x20\n      add\n      swap1\n      dup2\n      mstore\n      0x20\n      add\n      0x00\n      keccak256\n      sload\n        /* \"contracts/erc20.sol\":3420:3442  _balances[account].sub */\n      tag_144\n      swap1\n        /* \"contracts/erc20.sol\":3420:3496  _balances[account].sub(amount, \"ERC20: la cantidad quemada excede el saldo\") */\n      swap3\n      swap2\n      swap1\n      0xffffffff\n      and\n      jump\t// in\n    tag_186:\n        /* \"contracts/erc20.sol\":3399:3408  _balances */\n      0x00\n        /* \"contracts/erc20.sol\":3399:3417  _balances[account] */\n      dup1\n        /* \"contracts/erc20.sol\":3409:3416  account */\n      dup5\n        /* \"contracts/erc20.sol\":3399:3417  _balances[account] */\n      0xffffffffffffffffffffffffffffffffffffffff\n      and\n      0xffffffffffffffffffffffffffffffffffffffff\n      and\n      dup2\n      mstore\n      0x20\n      add\n      swap1\n      dup2\n      mstore\n      0x20\n      add\n      0x00\n      keccak256\n        /* \"contracts/erc20.sol\":3399:3496  _balances[account] = _balances[account].sub(amount, \"ERC20: la cantidad quemada excede el saldo\") */\n      dup2\n      swap1\n      sstore\n      pop\n        /* \"contracts/erc20.sol\":3522:3546  _totalSupply.sub(amount) */\n      tag_187\n        /* \"contracts/erc20.sol\":3539:3545  amount */\n      dup2\n        /* \"contracts/erc20.sol\":3522:3534  _totalSupply */\n      sload(0x02)\n        /* \"contracts/erc20.sol\":3522:3538  _totalSupply.sub */\n      tag_188\n      swap1\n        /* \"contracts/erc20.sol\":3522:3546  _totalSupply.sub(amount) */\n      swap2\n      swap1\n      0xffffffff\n      and\n      jump\t// in\n    tag_187:\n        /* \"contracts/erc20.sol\":3507:3519  _totalSupply */\n      0x02\n        /* \"contracts/erc20.sol\":3507:3546  _totalSupply = _totalSupply.sub(amount) */\n      dup2\n      swap1\n      sstore\n      pop\n        /* \"contracts/erc20.sol\":3588:3589  0 */\n      0x00\n        /* \"contracts/erc20.sol\":3562:3599  Transfer(account, address(0), amount) */\n      0xffffffffffffffffffffffffffffffffffffffff\n      and\n        /* \"contracts/erc20.sol\":3571:3578  account */\n      dup3\n        /* \"contracts/erc20.sol\":3562:3599  Transfer(account, address(0), amount) */\n      0xffffffffffffffffffffffffffffffffffffffff\n      and\n      0xddf252ad1be2c89b69c2b068fc378daa952ba7f163c4a11628f55a4df523b3ef\n        /* \"contracts/erc20.sol\":3592:3598  amount */\n      dup4\n        /* \"contracts/erc20.sol\":3562:3599  Transfer(account, address(0), amount) */\n      mload(0x40)\n      tag_189\n      swap2\n      swap1\n      tag_37\n      jump\t// in\n    tag_189:\n      mload(0x40)\n      dup1\n      swap2\n      sub\n      swap1\n      log3\n        /* \"contracts/erc20.sol\":3250:3607  function _burn(address account, uint amount) internal {\r... */\n      pop\n      pop\n      jump\t// out\n        /* \"contracts/erc20.sol\":4878:5058  function sub(uint a, uint b, string memory errorMessage) internal pure returns (uint) {\r... */\n    tag_144:\n        /* \"contracts/erc20.sol\":4958:4962  uint */\n      0x00\n        /* \"contracts/erc20.sol\":4988:4989  a */\n      dup4\n        /* \"contracts/erc20.sol\":4983:4984  b */\n      dup4\n        /* \"contracts/erc20.sol\":4983:4989  b <= a */\n      gt\n      iszero\n        /* \"contracts/erc20.sol\":4991:5003  errorMessage */\n      dup3\n        /* \"contracts/erc20.sol\":4975:5004  require(b <= a, errorMessage) */\n      swap1\n      tag_191\n      jumpi\n      mload(0x40)\n      0x08c379a000000000000000000000000000000000000000000000000000000000\n      dup2\n      mstore\n      0x04\n      add\n      tag_192\n      swap2\n      swap1\n      tag_27\n      jump\t// in\n    tag_192:\n      mload(0x40)\n      dup1\n      swap2\n      sub\n      swap1\n      revert\n    tag_191:\n      pop\n        /* \"contracts/erc20.sol\":5015:5021  uint c */\n      0x00\n        /* \"contracts/erc20.sol\":5028:5029  b */\n      dup4\n        /* \"contracts/erc20.sol\":5024:5025  a */\n      dup6\n        /* \"contracts/erc20.sol\":5024:5029  a - b */\n      tag_193\n      swap2\n      swap1\n      tag_194\n      jump\t// in\n    tag_193:\n        /* \"contracts/erc20.sol\":5015:5029  uint c = a - b */\n      swap1\n      pop\n        /* \"contracts/erc20.sol\":5049:5050  c */\n      dup1\n        /* \"contracts/erc20.sol\":5042:5050  return c */\n      swap2\n      pop\n      pop\n        /* \"contracts/erc20.sol\":4878:5058  function sub(uint a, uint b, string memory errorMessage) internal pure returns (uint) {\r... */\n      swap4\n      swap3\n      pop\n      pop\n      pop\n      jump\t// out\n        /* \"contracts/erc20.sol\":4739:4872  function sub(uint a, uint b) internal pure returns (uint) {\r... */\n    tag_188:\n        /* \"contracts/erc20.sol\":4791:4795  uint */\n      0x00\n        /* \"contracts/erc20.sol\":4815:4864  sub(a, b, \"SafeMath: desbordamiento en la resta\") */\n      tag_196\n        /* \"contracts/erc20.sol\":4819:4820  a */\n      dup4\n        /* \"contracts/erc20.sol\":4822:4823  b */\n      dup4\n        /* \"contracts/erc20.sol\":4815:4864  sub(a, b, \"SafeMath: desbordamiento en la resta\") */\n      mload(0x40)\n      dup1\n      0x60\n      add\n      0x40\n      mstore\n      dup1\n      0x24\n      dup2\n      mstore\n      0x20\n      add\n      data_84aea65bef2579a1e9d3c1eae05f7ee312a2065637aab168a896bd56440048cd\n      0x24\n      swap2\n      codecopy\n        /* \"contracts/erc20.sol\":4815:4818  sub */\n      tag_144\n        /* \"contracts/erc20.sol\":4815:4864  sub(a, b, \"SafeMath: desbordamiento en la resta\") */\n      jump\t// in\n    tag_196:\n        /* \"contracts/erc20.sol\":4808:4864  return sub(a, b, \"SafeMath: desbordamiento en la resta\") */\n      swap1\n      pop\n        /* \"contracts/erc20.sol\":4739:4872  function sub(uint a, uint b) internal pure returns (uint) {\r... */\n      swap3\n      swap2\n      pop\n      pop\n      jump\t// out\n        /* \"#utility.yul\":7:146   */\n    tag_198:\n        /* \"#utility.yul\":53:58   */\n      0x00\n        /* \"#utility.yul\":91:97   */\n      dup2\n        /* \"#utility.yul\":78:98   */\n      calldataload\n        /* \"#utility.yul\":69:98   */\n      swap1\n      pop\n        /* \"#utility.yul\":107:140   */\n      tag_200\n        /* \"#utility.yul\":134:139   */\n      dup2\n        /* \"#utility.yul\":107:140   */\n      tag_201\n      jump\t// in\n    tag_200:\n        /* \"#utility.yul\":7:146   */\n      swap3\n      swap2\n      pop\n      pop\n      jump\t// out\n        /* \"#utility.yul\":152:291   */\n    tag_202:\n        /* \"#utility.yul\":198:203   */\n      0x00\n        /* \"#utility.yul\":236:242   */\n      dup2\n        /* \"#utility.yul\":223:243   */\n      calldataload\n        /* \"#utility.yul\":214:243   */\n      swap1\n      pop\n        /* \"#utility.yul\":252:285   */\n      tag_204\n        /* \"#utility.yul\":279:284   */\n      dup2\n        /* \"#utility.yul\":252:285   */\n      tag_205\n      jump\t// in\n    tag_204:\n        /* \"#utility.yul\":152:291   */\n      swap3\n      swap2\n      pop\n      pop\n      jump\t// out\n        /* \"#utility.yul\":297:626   */\n    tag_40:\n        /* \"#utility.yul\":356:362   */\n      0x00\n        /* \"#utility.yul\":405:407   */\n      0x20\n        /* \"#utility.yul\":393:402   */\n      dup3\n        /* \"#utility.yul\":384:391   */\n      dup5\n        /* \"#utility.yul\":380:403   */\n      sub\n        /* \"#utility.yul\":376:408   */\n      slt\n        /* \"#utility.yul\":373:492   */\n      iszero\n      tag_207\n      jumpi\n        /* \"#utility.yul\":411:490   */\n      tag_208\n      tag_209\n      jump\t// in\n    tag_208:\n        /* \"#utility.yul\":373:492   */\n    tag_207:\n        /* \"#utility.yul\":531:532   */\n      0x00\n        /* \"#utility.yul\":556:609   */\n      tag_210\n        /* \"#utility.yul\":601:608   */\n      dup5\n        /* \"#utility.yul\":592:598   */\n      dup3\n        /* \"#utility.yul\":581:590   */\n      dup6\n        /* \"#utility.yul\":577:599   */\n      add\n        /* \"#utility.yul\":556:609   */\n      tag_198\n      jump\t// in\n    tag_210:\n        /* \"#utility.yul\":546:609   */\n      swap2\n      pop\n        /* \"#utility.yul\":502:619   */\n      pop\n        /* \"#utility.yul\":297:626   */\n      swap3\n      swap2\n      pop\n      pop\n      jump\t// out\n        /* \"#utility.yul\":632:1106   */\n    tag_89:\n        /* \"#utility.yul\":700:706   */\n      0x00\n        /* \"#utility.yul\":708:714   */\n      dup1\n        /* \"#utility.yul\":757:759   */\n      0x40\n        /* \"#utility.yul\":745:754   */\n      dup4\n        /* \"#utility.yul\":736:743   */\n      dup6\n        /* \"#utility.yul\":732:755   */\n      sub\n        /* \"#utility.yul\":728:760   */\n      slt\n        /* \"#utility.yul\":725:844   */\n      iszero\n      tag_212\n      jumpi\n        /* \"#utility.yul\":763:842   */\n      tag_213\n      tag_209\n      jump\t// in\n    tag_213:\n        /* \"#utility.yul\":725:844   */\n    tag_212:\n        /* \"#utility.yul\":883:884   */\n      0x00\n        /* \"#utility.yul\":908:961   */\n      tag_214\n        /* \"#utility.yul\":953:960   */\n      dup6\n        /* \"#utility.yul\":944:950   */\n      dup3\n        /* \"#utility.yul\":933:942   */\n      dup7\n        /* \"#utility.yul\":929:951   */\n      add\n        /* \"#utility.yul\":908:961   */\n      tag_198\n      jump\t// in\n    tag_214:\n        /* \"#utility.yul\":898:961   */\n      swap3\n      pop\n        /* \"#utility.yul\":854:971   */\n      pop\n        /* \"#utility.yul\":1010:1012   */\n      0x20\n        /* \"#utility.yul\":1036:1089   */\n      tag_215\n        /* \"#utility.yul\":1081:1088   */\n      dup6\n        /* \"#utility.yul\":1072:1078   */\n      dup3\n        /* \"#utility.yul\":1061:1070   */\n      dup7\n        /* \"#utility.yul\":1057:1079   */\n      add\n        /* \"#utility.yul\":1036:1089   */\n      tag_198\n      jump\t// in\n    tag_215:\n        /* \"#utility.yul\":1026:1089   */\n      swap2\n      pop\n        /* \"#utility.yul\":981:1099   */\n      pop\n        /* \"#utility.yul\":632:1106   */\n      swap3\n      pop\n      swap3\n      swap1\n      pop\n      jump\t// out\n        /* \"#utility.yul\":1112:1731   */\n    tag_44:\n        /* \"#utility.yul\":1189:1195   */\n      0x00\n        /* \"#utility.yul\":1197:1203   */\n      dup1\n        /* \"#utility.yul\":1205:1211   */\n      0x00\n        /* \"#utility.yul\":1254:1256   */\n      0x60\n        /* \"#utility.yul\":1242:1251   */\n      dup5\n        /* \"#utility.yul\":1233:1240   */\n      dup7\n        /* \"#utility.yul\":1229:1252   */\n      sub\n        /* \"#utility.yul\":1225:1257   */\n      slt\n        /* \"#utility.yul\":1222:1341   */\n      iszero\n      tag_217\n      jumpi\n        /* \"#utility.yul\":1260:1339   */\n      tag_218\n      tag_209\n      jump\t// in\n    tag_218:\n        /* \"#utility.yul\":1222:1341   */\n    tag_217:\n        /* \"#utility.yul\":1380:1381   */\n      0x00\n        /* \"#utility.yul\":1405:1458   */\n      tag_219\n        /* \"#utility.yul\":1450:1457   */\n      dup7\n        /* \"#utility.yul\":1441:1447   */\n      dup3\n        /* \"#utility.yul\":1430:1439   */\n      dup8\n        /* \"#utility.yul\":1426:1448   */\n      add\n        /* \"#utility.yul\":1405:1458   */\n      tag_198\n      jump\t// in\n    tag_219:\n        /* \"#utility.yul\":1395:1458   */\n      swap4\n      pop\n        /* \"#utility.yul\":1351:1468   */\n      pop\n        /* \"#utility.yul\":1507:1509   */\n      0x20\n        /* \"#utility.yul\":1533:1586   */\n      tag_220\n        /* \"#utility.yul\":1578:1585   */\n      dup7\n        /* \"#utility.yul\":1569:1575   */\n      dup3\n        /* \"#utility.yul\":1558:1567   */\n      dup8\n        /* \"#utility.yul\":1554:1576   */\n      add\n        /* \"#utility.yul\":1533:1586   */\n      tag_198\n      jump\t// in\n    tag_220:\n        /* \"#utility.yul\":1523:1586   */\n      swap3\n      pop\n        /* \"#utility.yul\":1478:1596   */\n      pop\n        /* \"#utility.yul\":1635:1637   */\n      0x40\n        /* \"#utility.yul\":1661:1714   */\n      tag_221\n        /* \"#utility.yul\":1706:1713   */\n      dup7\n        /* \"#utility.yul\":1697:1703   */\n      dup3\n        /* \"#utility.yul\":1686:1695   */\n      dup8\n        /* \"#utility.yul\":1682:1704   */\n      add\n        /* \"#utility.yul\":1661:1714   */\n      tag_202\n      jump\t// in\n    tag_221:\n        /* \"#utility.yul\":1651:1714   */\n      swap2\n      pop\n        /* \"#utility.yul\":1606:1724   */\n      pop\n        /* \"#utility.yul\":1112:1731   */\n      swap3\n      pop\n      swap3\n      pop\n      swap3\n      jump\t// out\n        /* \"#utility.yul\":1737:2211   */\n    tag_30:\n        /* \"#utility.yul\":1805:1811   */\n      0x00\n        /* \"#utility.yul\":1813:1819   */\n      dup1\n        /* \"#utility.yul\":1862:1864   */\n      0x40\n        /* \"#utility.yul\":1850:1859   */\n      dup4\n        /* \"#utility.yul\":1841:1848   */\n      dup6\n        /* \"#utility.yul\":1837:1860   */\n      sub\n        /* \"#utility.yul\":1833:1865   */\n      slt\n        /* \"#utility.yul\":1830:1949   */\n      iszero\n      tag_223\n      jumpi\n        /* \"#utility.yul\":1868:1947   */\n      tag_224\n      tag_209\n      jump\t// in\n    tag_224:\n        /* \"#utility.yul\":1830:1949   */\n    tag_223:\n        /* \"#utility.yul\":1988:1989   */\n      0x00\n        /* \"#utility.yul\":2013:2066   */\n      tag_225\n        /* \"#utility.yul\":2058:2065   */\n      dup6\n        /* \"#utility.yul\":2049:2055   */\n      dup3\n        /* \"#utility.yul\":2038:2047   */\n      dup7\n        /* \"#utility.yul\":2034:2056   */\n      add\n        /* \"#utility.yul\":2013:2066   */\n      tag_198\n      jump\t// in\n    tag_225:\n        /* \"#utility.yul\":2003:2066   */\n      swap3\n      pop\n        /* \"#utility.yul\":1959:2076   */\n      pop\n        /* \"#utility.yul\":2115:2117   */\n      0x20\n        /* \"#utility.yul\":2141:2194   */\n      tag_226\n        /* \"#utility.yul\":2186:2193   */\n      dup6\n        /* \"#utility.yul\":2177:2183   */\n      dup3\n        /* \"#utility.yul\":2166:2175   */\n      dup7\n        /* \"#utility.yul\":2162:2184   */\n      add\n        /* \"#utility.yul\":2141:2194   */\n      tag_202\n      jump\t// in\n    tag_226:\n        /* \"#utility.yul\":2131:2194   */\n      swap2\n      pop\n        /* \"#utility.yul\":2086:2204   */\n      pop\n        /* \"#utility.yul\":1737:2211   */\n      swap3\n      pop\n      swap3\n      swap1\n      pop\n      jump\t// out\n        /* \"#utility.yul\":2217:2546   */\n    tag_63:\n        /* \"#utility.yul\":2276:2282   */\n      0x00\n        /* \"#utility.yul\":2325:2327   */\n      0x20\n        /* \"#utility.yul\":2313:2322   */\n      dup3\n        /* \"#utility.yul\":2304:2311   */\n      dup5\n        /* \"#utility.yul\":2300:2323   */\n      sub\n        /* \"#utility.yul\":2296:2328   */\n      slt\n        /* \"#utility.yul\":2293:2412   */\n      iszero\n      tag_228\n      jumpi\n        /* \"#utility.yul\":2331:2410   */\n      tag_229\n      tag_209\n      jump\t// in\n    tag_229:\n        /* \"#utility.yul\":2293:2412   */\n    tag_228:\n        /* \"#utility.yul\":2451:2452   */\n      0x00\n        /* \"#utility.yul\":2476:2529   */\n      tag_230\n        /* \"#utility.yul\":2521:2528   */\n      dup5\n        /* \"#utility.yul\":2512:2518   */\n      dup3\n        /* \"#utility.yul\":2501:2510   */\n      dup6\n        /* \"#utility.yul\":2497:2519   */\n      add\n        /* \"#utility.yul\":2476:2529   */\n      tag_202\n      jump\t// in\n    tag_230:\n        /* \"#utility.yul\":2466:2529   */\n      swap2\n      pop\n        /* \"#utility.yul\":2422:2539   */\n      pop\n        /* \"#utility.yul\":2217:2546   */\n      swap3\n      swap2\n      pop\n      pop\n      jump\t// out\n        /* \"#utility.yul\":2552:2670   */\n    tag_231:\n        /* \"#utility.yul\":2639:2663   */\n      tag_233\n        /* \"#utility.yul\":2657:2662   */\n      dup2\n        /* \"#utility.yul\":2639:2663   */\n      tag_234\n      jump\t// in\n    tag_233:\n        /* \"#utility.yul\":2634:2637   */\n      dup3\n        /* \"#utility.yul\":2627:2664   */\n      mstore\n        /* \"#utility.yul\":2552:2670   */\n      pop\n      pop\n      jump\t// out\n        /* \"#utility.yul\":2676:2785   */\n    tag_235:\n        /* \"#utility.yul\":2757:2778   */\n      tag_237\n        /* \"#utility.yul\":2772:2777   */\n      dup2\n        /* \"#utility.yul\":2757:2778   */\n      tag_238\n      jump\t// in\n    tag_237:\n        /* \"#utility.yul\":2752:2755   */\n      dup3\n        /* \"#utility.yul\":2745:2779   */\n      mstore\n        /* \"#utility.yul\":2676:2785   */\n      pop\n      pop\n      jump\t// out\n        /* \"#utility.yul\":2791:3155   */\n    tag_239:\n        /* \"#utility.yul\":2879:2882   */\n      0x00\n        /* \"#utility.yul\":2907:2946   */\n      tag_241\n        /* \"#utility.yul\":2940:2945   */\n      dup3\n        /* \"#utility.yul\":2907:2946   */\n      tag_242\n      jump\t// in\n    tag_241:\n        /* \"#utility.yul\":2962:3033   */\n      tag_243\n        /* \"#utility.yul\":3026:3032   */\n      dup2\n        /* \"#utility.yul\":3021:3024   */\n      dup6\n        /* \"#utility.yul\":2962:3033   */\n      tag_244\n      jump\t// in\n    tag_243:\n        /* \"#utility.yul\":2955:3033   */\n      swap4\n      pop\n        /* \"#utility.yul\":3042:3094   */\n      tag_245\n        /* \"#utility.yul\":3087:3093   */\n      dup2\n        /* \"#utility.yul\":3082:3085   */\n      dup6\n        /* \"#utility.yul\":3075:3079   */\n      0x20\n        /* \"#utility.yul\":3068:3073   */\n      dup7\n        /* \"#utility.yul\":3064:3080   */\n      add\n        /* \"#utility.yul\":3042:3094   */\n      tag_246\n      jump\t// in\n    tag_245:\n        /* \"#utility.yul\":3119:3148   */\n      tag_247\n        /* \"#utility.yul\":3141:3147   */\n      dup2\n        /* \"#utility.yul\":3119:3148   */\n      tag_248\n      jump\t// in\n    tag_247:\n        /* \"#utility.yul\":3114:3117   */\n      dup5\n        /* \"#utility.yul\":3110:3149   */\n      add\n        /* \"#utility.yul\":3103:3149   */\n      swap2\n      pop\n        /* \"#utility.yul\":2883:3155   */\n      pop\n        /* \"#utility.yul\":2791:3155   */\n      swap3\n      swap2\n      pop\n      pop\n      jump\t// out\n        /* \"#utility.yul\":3161:3527   */\n    tag_249:\n        /* \"#utility.yul\":3303:3306   */\n      0x00\n        /* \"#utility.yul\":3324:3391   */\n      tag_251\n        /* \"#utility.yul\":3388:3390   */\n      0x21\n        /* \"#utility.yul\":3383:3386   */\n      dup4\n        /* \"#utility.yul\":3324:3391   */\n      tag_244\n      jump\t// in\n    tag_251:\n        /* \"#utility.yul\":3317:3391   */\n      swap2\n      pop\n        /* \"#utility.yul\":3400:3493   */\n      tag_252\n        /* \"#utility.yul\":3489:3492   */\n      dup3\n        /* \"#utility.yul\":3400:3493   */\n      tag_253\n      jump\t// in\n    tag_252:\n        /* \"#utility.yul\":3518:3520   */\n      0x40\n        /* \"#utility.yul\":3513:3516   */\n      dup3\n        /* \"#utility.yul\":3509:3521   */\n      add\n        /* \"#utility.yul\":3502:3521   */\n      swap1\n      pop\n        /* \"#utility.yul\":3161:3527   */\n      swap2\n      swap1\n      pop\n      jump\t// out\n        /* \"#utility.yul\":3533:3899   */\n    tag_254:\n        /* \"#utility.yul\":3675:3678   */\n      0x00\n        /* \"#utility.yul\":3696:3763   */\n      tag_256\n        /* \"#utility.yul\":3760:3762   */\n      0x26\n        /* \"#utility.yul\":3755:3758   */\n      dup4\n        /* \"#utility.yul\":3696:3763   */\n      tag_244\n      jump\t// in\n    tag_256:\n        /* \"#utility.yul\":3689:3763   */\n      swap2\n      pop\n        /* \"#utility.yul\":3772:3865   */\n      tag_257\n        /* \"#utility.yul\":3861:3864   */\n      dup3\n        /* \"#utility.yul\":3772:3865   */\n      tag_258\n      jump\t// in\n    tag_257:\n        /* \"#utility.yul\":3890:3892   */\n      0x40\n        /* \"#utility.yul\":3885:3888   */\n      dup3\n        /* \"#utility.yul\":3881:3893   */\n      add\n        /* \"#utility.yul\":3874:3893   */\n      swap1\n      pop\n        /* \"#utility.yul\":3533:3899   */\n      swap2\n      swap1\n      pop\n      jump\t// out\n        /* \"#utility.yul\":3905:4271   */\n    tag_259:\n        /* \"#utility.yul\":4047:4050   */\n      0x00\n        /* \"#utility.yul\":4068:4135   */\n      tag_261\n        /* \"#utility.yul\":4132:4134   */\n      0x25\n        /* \"#utility.yul\":4127:4130   */\n      dup4\n        /* \"#utility.yul\":4068:4135   */\n      tag_244\n      jump\t// in\n    tag_261:\n        /* \"#utility.yul\":4061:4135   */\n      swap2\n      pop\n        /* \"#utility.yul\":4144:4237   */\n      tag_262\n        /* \"#utility.yul\":4233:4236   */\n      dup3\n        /* \"#utility.yul\":4144:4237   */\n      tag_263\n      jump\t// in\n    tag_262:\n        /* \"#utility.yul\":4262:4264   */\n      0x40\n        /* \"#utility.yul\":4257:4260   */\n      dup3\n        /* \"#utility.yul\":4253:4265   */\n      add\n        /* \"#utility.yul\":4246:4265   */\n      swap1\n      pop\n        /* \"#utility.yul\":3905:4271   */\n      swap2\n      swap1\n      pop\n      jump\t// out\n        /* \"#utility.yul\":4277:4643   */\n    tag_264:\n        /* \"#utility.yul\":4419:4422   */\n      0x00\n        /* \"#utility.yul\":4440:4507   */\n      tag_266\n        /* \"#utility.yul\":4504:4506   */\n      0x2c\n        /* \"#utility.yul\":4499:4502   */\n      dup4\n        /* \"#utility.yul\":4440:4507   */\n      tag_244\n      jump\t// in\n    tag_266:\n        /* \"#utility.yul\":4433:4507   */\n      swap2\n      pop\n        /* \"#utility.yul\":4516:4609   */\n      tag_267\n        /* \"#utility.yul\":4605:4608   */\n      dup3\n        /* \"#utility.yul\":4516:4609   */\n      tag_268\n      jump\t// in\n    tag_267:\n        /* \"#utility.yul\":4634:4636   */\n      0x40\n        /* \"#utility.yul\":4629:4632   */\n      dup3\n        /* \"#utility.yul\":4625:4637   */\n      add\n        /* \"#utility.yul\":4618:4637   */\n      swap1\n      pop\n        /* \"#utility.yul\":4277:4643   */\n      swap2\n      swap1\n      pop\n      jump\t// out\n        /* \"#utility.yul\":4649:5015   */\n    tag_269:\n        /* \"#utility.yul\":4791:4794   */\n      0x00\n        /* \"#utility.yul\":4812:4879   */\n      tag_271\n        /* \"#utility.yul\":4876:4878   */\n      0x25\n        /* \"#utility.yul\":4871:4874   */\n      dup4\n        /* \"#utility.yul\":4812:4879   */\n      tag_244\n      jump\t// in\n    tag_271:\n        /* \"#utility.yul\":4805:4879   */\n      swap2\n      pop\n        /* \"#utility.yul\":4888:4981   */\n      tag_272\n        /* \"#utility.yul\":4977:4980   */\n      dup3\n        /* \"#utility.yul\":4888:4981   */\n      tag_273\n      jump\t// in\n    tag_272:\n        /* \"#utility.yul\":5006:5008   */\n      0x40\n        /* \"#utility.yul\":5001:5004   */\n      dup3\n        /* \"#utility.yul\":4997:5009   */\n      add\n        /* \"#utility.yul\":4990:5009   */\n      swap1\n      pop\n        /* \"#utility.yul\":4649:5015   */\n      swap2\n      swap1\n      pop\n      jump\t// out\n        /* \"#utility.yul\":5021:5387   */\n    tag_274:\n        /* \"#utility.yul\":5163:5166   */\n      0x00\n        /* \"#utility.yul\":5184:5251   */\n      tag_276\n        /* \"#utility.yul\":5248:5250   */\n      0x29\n        /* \"#utility.yul\":5243:5246   */\n      dup4\n        /* \"#utility.yul\":5184:5251   */\n      tag_244\n      jump\t// in\n    tag_276:\n        /* \"#utility.yul\":5177:5251   */\n      swap2\n      pop\n        /* \"#utility.yul\":5260:5353   */\n      tag_277\n        /* \"#utility.yul\":5349:5352   */\n      dup3\n        /* \"#utility.yul\":5260:5353   */\n      tag_278\n      jump\t// in\n    tag_277:\n        /* \"#utility.yul\":5378:5380   */\n      0x40\n        /* \"#utility.yul\":5373:5376   */\n      dup3\n        /* \"#utility.yul\":5369:5381   */\n      add\n        /* \"#utility.yul\":5362:5381   */\n      swap1\n      pop\n        /* \"#utility.yul\":5021:5387   */\n      swap2\n      swap1\n      pop\n      jump\t// out\n        /* \"#utility.yul\":5393:5759   */\n    tag_279:\n        /* \"#utility.yul\":5535:5538   */\n      0x00\n        /* \"#utility.yul\":5556:5623   */\n      tag_281\n        /* \"#utility.yul\":5620:5622   */\n      0x18\n        /* \"#utility.yul\":5615:5618   */\n      dup4\n        /* \"#utility.yul\":5556:5623   */\n      tag_244\n      jump\t// in\n    tag_281:\n        /* \"#utility.yul\":5549:5623   */\n      swap2\n      pop\n        /* \"#utility.yul\":5632:5725   */\n      tag_282\n        /* \"#utility.yul\":5721:5724   */\n      dup3\n        /* \"#utility.yul\":5632:5725   */\n      tag_283\n      jump\t// in\n    tag_282:\n        /* \"#utility.yul\":5750:5752   */\n      0x20\n        /* \"#utility.yul\":5745:5748   */\n      dup3\n        /* \"#utility.yul\":5741:5753   */\n      add\n        /* \"#utility.yul\":5734:5753   */\n      swap1\n      pop\n        /* \"#utility.yul\":5393:5759   */\n      swap2\n      swap1\n      pop\n      jump\t// out\n        /* \"#utility.yul\":5765:6131   */\n    tag_284:\n        /* \"#utility.yul\":5907:5910   */\n      0x00\n        /* \"#utility.yul\":5928:5995   */\n      tag_286\n        /* \"#utility.yul\":5992:5994   */\n      0x23\n        /* \"#utility.yul\":5987:5990   */\n      dup4\n        /* \"#utility.yul\":5928:5995   */\n      tag_244\n      jump\t// in\n    tag_286:\n        /* \"#utility.yul\":5921:5995   */\n      swap2\n      pop\n        /* \"#utility.yul\":6004:6097   */\n      tag_287\n        /* \"#utility.yul\":6093:6096   */\n      dup3\n        /* \"#utility.yul\":6004:6097   */\n      tag_288\n      jump\t// in\n    tag_287:\n        /* \"#utility.yul\":6122:6124   */\n      0x40\n        /* \"#utility.yul\":6117:6120   */\n      dup3\n        /* \"#utility.yul\":6113:6125   */\n      add\n        /* \"#utility.yul\":6106:6125   */\n      swap1\n      pop\n        /* \"#utility.yul\":5765:6131   */\n      swap2\n      swap1\n      pop\n      jump\t// out\n        /* \"#utility.yul\":6137:6503   */\n    tag_289:\n        /* \"#utility.yul\":6279:6282   */\n      0x00\n        /* \"#utility.yul\":6300:6367   */\n      tag_291\n        /* \"#utility.yul\":6364:6366   */\n      0x22\n        /* \"#utility.yul\":6359:6362   */\n      dup4\n        /* \"#utility.yul\":6300:6367   */\n      tag_244\n      jump\t// in\n    tag_291:\n        /* \"#utility.yul\":6293:6367   */\n      swap2\n      pop\n        /* \"#utility.yul\":6376:6469   */\n      tag_292\n        /* \"#utility.yul\":6465:6468   */\n      dup3\n        /* \"#utility.yul\":6376:6469   */\n      tag_293\n      jump\t// in\n    tag_292:\n        /* \"#utility.yul\":6494:6496   */\n      0x40\n        /* \"#utility.yul\":6489:6492   */\n      dup3\n        /* \"#utility.yul\":6485:6497   */\n      add\n        /* \"#utility.yul\":6478:6497   */\n      swap1\n      pop\n        /* \"#utility.yul\":6137:6503   */\n      swap2\n      swap1\n      pop\n      jump\t// out\n        /* \"#utility.yul\":6509:6875   */\n    tag_294:\n        /* \"#utility.yul\":6651:6654   */\n      0x00\n        /* \"#utility.yul\":6672:6739   */\n      tag_296\n        /* \"#utility.yul\":6736:6738   */\n      0x0d\n        /* \"#utility.yul\":6731:6734   */\n      dup4\n        /* \"#utility.yul\":6672:6739   */\n      tag_244\n      jump\t// in\n    tag_296:\n        /* \"#utility.yul\":6665:6739   */\n      swap2\n      pop\n        /* \"#utility.yul\":6748:6841   */\n      tag_297\n        /* \"#utility.yul\":6837:6840   */\n      dup3\n        /* \"#utility.yul\":6748:6841   */\n      tag_298\n      jump\t// in\n    tag_297:\n        /* \"#utility.yul\":6866:6868   */\n      0x20\n        /* \"#utility.yul\":6861:6864   */\n      dup3\n        /* \"#utility.yul\":6857:6869   */\n      add\n        /* \"#utility.yul\":6850:6869   */\n      swap1\n      pop\n        /* \"#utility.yul\":6509:6875   */\n      swap2\n      swap1\n      pop\n      jump\t// out\n        /* \"#utility.yul\":6881:6999   */\n    tag_299:\n        /* \"#utility.yul\":6968:6992   */\n      tag_301\n        /* \"#utility.yul\":6986:6991   */\n      dup2\n        /* \"#utility.yul\":6968:6992   */\n      tag_302\n      jump\t// in\n    tag_301:\n        /* \"#utility.yul\":6963:6966   */\n      dup3\n        /* \"#utility.yul\":6956:6993   */\n      mstore\n        /* \"#utility.yul\":6881:6999   */\n      pop\n      pop\n      jump\t// out\n        /* \"#utility.yul\":7005:7117   */\n    tag_303:\n        /* \"#utility.yul\":7088:7110   */\n      tag_305\n        /* \"#utility.yul\":7104:7109   */\n      dup2\n        /* \"#utility.yul\":7088:7110   */\n      tag_306\n      jump\t// in\n    tag_305:\n        /* \"#utility.yul\":7083:7086   */\n      dup3\n        /* \"#utility.yul\":7076:7111   */\n      mstore\n        /* \"#utility.yul\":7005:7117   */\n      pop\n      pop\n      jump\t// out\n        /* \"#utility.yul\":7123:7345   */\n    tag_78:\n        /* \"#utility.yul\":7216:7220   */\n      0x00\n        /* \"#utility.yul\":7254:7256   */\n      0x20\n        /* \"#utility.yul\":7243:7252   */\n      dup3\n        /* \"#utility.yul\":7239:7257   */\n      add\n        /* \"#utility.yul\":7231:7257   */\n      swap1\n      pop\n        /* \"#utility.yul\":7267:7338   */\n      tag_308\n        /* \"#utility.yul\":7335:7336   */\n      0x00\n        /* \"#utility.yul\":7324:7333   */\n      dup4\n        /* \"#utility.yul\":7320:7337   */\n      add\n        /* \"#utility.yul\":7311:7317   */\n      dup5\n        /* \"#utility.yul\":7267:7338   */\n      tag_231\n      jump\t// in\n    tag_308:\n        /* \"#utility.yul\":7123:7345   */\n      swap3\n      swap2\n      pop\n      pop\n      jump\t// out\n        /* \"#utility.yul\":7351:7561   */\n    tag_33:\n        /* \"#utility.yul\":7438:7442   */\n      0x00\n        /* \"#utility.yul\":7476:7478   */\n      0x20\n        /* \"#utility.yul\":7465:7474   */\n      dup3\n        /* \"#utility.yul\":7461:7479   */\n      add\n        /* \"#utility.yul\":7453:7479   */\n      swap1\n      pop\n        /* \"#utility.yul\":7489:7554   */\n      tag_310\n        /* \"#utility.yul\":7551:7552   */\n      0x00\n        /* \"#utility.yul\":7540:7549   */\n      dup4\n        /* \"#utility.yul\":7536:7553   */\n      add\n        /* \"#utility.yul\":7527:7533   */\n      dup5\n        /* \"#utility.yul\":7489:7554   */\n      tag_235\n      jump\t// in\n    tag_310:\n        /* \"#utility.yul\":7351:7561   */\n      swap3\n      swap2\n      pop\n      pop\n      jump\t// out\n        /* \"#utility.yul\":7567:7880   */\n    tag_27:\n        /* \"#utility.yul\":7680:7684   */\n      0x00\n        /* \"#utility.yul\":7718:7720   */\n      0x20\n        /* \"#utility.yul\":7707:7716   */\n      dup3\n        /* \"#utility.yul\":7703:7721   */\n      add\n        /* \"#utility.yul\":7695:7721   */\n      swap1\n      pop\n        /* \"#utility.yul\":7767:7776   */\n      dup2\n        /* \"#utility.yul\":7761:7765   */\n      dup2\n        /* \"#utility.yul\":7757:7777   */\n      sub\n        /* \"#utility.yul\":7753:7754   */\n      0x00\n        /* \"#utility.yul\":7742:7751   */\n      dup4\n        /* \"#utility.yul\":7738:7755   */\n      add\n        /* \"#utility.yul\":7731:7778   */\n      mstore\n        /* \"#utility.yul\":7795:7873   */\n      tag_312\n        /* \"#utility.yul\":7868:7872   */\n      dup2\n        /* \"#utility.yul\":7859:7865   */\n      dup5\n        /* \"#utility.yul\":7795:7873   */\n      tag_239\n      jump\t// in\n    tag_312:\n        /* \"#utility.yul\":7787:7873   */\n      swap1\n      pop\n        /* \"#utility.yul\":7567:7880   */\n      swap3\n      swap2\n      pop\n      pop\n      jump\t// out\n        /* \"#utility.yul\":7886:8305   */\n    tag_175:\n        /* \"#utility.yul\":8052:8056   */\n      0x00\n        /* \"#utility.yul\":8090:8092   */\n      0x20\n        /* \"#utility.yul\":8079:8088   */\n      dup3\n        /* \"#utility.yul\":8075:8093   */\n      add\n        /* \"#utility.yul\":8067:8093   */\n      swap1\n      pop\n        /* \"#utility.yul\":8139:8148   */\n      dup2\n        /* \"#utility.yul\":8133:8137   */\n      dup2\n        /* \"#utility.yul\":8129:8149   */\n      sub\n        /* \"#utility.yul\":8125:8126   */\n      0x00\n        /* \"#utility.yul\":8114:8123   */\n      dup4\n        /* \"#utility.yul\":8110:8127   */\n      add\n        /* \"#utility.yul\":8103:8150   */\n      mstore\n        /* \"#utility.yul\":8167:8298   */\n      tag_314\n        /* \"#utility.yul\":8293:8297   */\n      dup2\n        /* \"#utility.yul\":8167:8298   */\n      tag_249\n      jump\t// in\n    tag_314:\n        /* \"#utility.yul\":8159:8298   */\n      swap1\n      pop\n        /* \"#utility.yul\":7886:8305   */\n      swap2\n      swap1\n      pop\n      jump\t// out\n        /* \"#utility.yul\":8311:8730   */\n    tag_157:\n        /* \"#utility.yul\":8477:8481   */\n      0x00\n        /* \"#utility.yul\":8515:8517   */\n      0x20\n        /* \"#utility.yul\":8504:8513   */\n      dup3\n        /* \"#utility.yul\":8500:8518   */\n      add\n        /* \"#utility.yul\":8492:8518   */\n      swap1\n      pop\n        /* \"#utility.yul\":8564:8573   */\n      dup2\n        /* \"#utility.yul\":8558:8562   */\n      dup2\n        /* \"#utility.yul\":8554:8574   */\n      sub\n        /* \"#utility.yul\":8550:8551   */\n      0x00\n        /* \"#utility.yul\":8539:8548   */\n      dup4\n        /* \"#utility.yul\":8535:8552   */\n      add\n        /* \"#utility.yul\":8528:8575   */\n      mstore\n        /* \"#utility.yul\":8592:8723   */\n      tag_316\n        /* \"#utility.yul\":8718:8722   */\n      dup2\n        /* \"#utility.yul\":8592:8723   */\n      tag_254\n      jump\t// in\n    tag_316:\n        /* \"#utility.yul\":8584:8723   */\n      swap1\n      pop\n        /* \"#utility.yul\":8311:8730   */\n      swap2\n      swap1\n      pop\n      jump\t// out\n        /* \"#utility.yul\":8736:9155   */\n    tag_168:\n        /* \"#utility.yul\":8902:8906   */\n      0x00\n        /* \"#utility.yul\":8940:8942   */\n      0x20\n        /* \"#utility.yul\":8929:8938   */\n      dup3\n        /* \"#utility.yul\":8925:8943   */\n      add\n        /* \"#utility.yul\":8917:8943   */\n      swap1\n      pop\n        /* \"#utility.yul\":8989:8998   */\n      dup2\n        /* \"#utility.yul\":8983:8987   */\n      dup2\n        /* \"#utility.yul\":8979:8999   */\n      sub\n        /* \"#utility.yul\":8975:8976   */\n      0x00\n        /* \"#utility.yul\":8964:8973   */\n      dup4\n        /* \"#utility.yul\":8960:8977   */\n      add\n        /* \"#utility.yul\":8953:9000   */\n      mstore\n        /* \"#utility.yul\":9017:9148   */\n      tag_318\n        /* \"#utility.yul\":9143:9147   */\n      dup2\n        /* \"#utility.yul\":9017:9148   */\n      tag_259\n      jump\t// in\n    tag_318:\n        /* \"#utility.yul\":9009:9148   */\n      swap1\n      pop\n        /* \"#utility.yul\":8736:9155   */\n      swap2\n      swap1\n      pop\n      jump\t// out\n        /* \"#utility.yul\":9161:9580   */\n    tag_165:\n        /* \"#utility.yul\":9327:9331   */\n      0x00\n        /* \"#utility.yul\":9365:9367   */\n      0x20\n        /* \"#utility.yul\":9354:9363   */\n      dup3\n        /* \"#utility.yul\":9350:9368   */\n      add\n        /* \"#utility.yul\":9342:9368   */\n      swap1\n      pop\n        /* \"#utility.yul\":9414:9423   */\n      dup2\n        /* \"#utility.yul\":9408:9412   */\n      dup2\n        /* \"#utility.yul\":9404:9424   */\n      sub\n        /* \"#utility.yul\":9400:9401   */\n      0x00\n        /* \"#utility.yul\":9389:9398   */\n      dup4\n        /* \"#utility.yul\":9385:9402   */\n      add\n        /* \"#utility.yul\":9378:9425   */\n      mstore\n        /* \"#utility.yul\":9442:9573   */\n      tag_320\n        /* \"#utility.yul\":9568:9572   */\n      dup2\n        /* \"#utility.yul\":9442:9573   */\n      tag_264\n      jump\t// in\n    tag_320:\n        /* \"#utility.yul\":9434:9573   */\n      swap1\n      pop\n        /* \"#utility.yul\":9161:9580   */\n      swap2\n      swap1\n      pop\n      jump\t// out\n        /* \"#utility.yul\":9586:10005   */\n    tag_185:\n        /* \"#utility.yul\":9752:9756   */\n      0x00\n        /* \"#utility.yul\":9790:9792   */\n      0x20\n        /* \"#utility.yul\":9779:9788   */\n      dup3\n        /* \"#utility.yul\":9775:9793   */\n      add\n        /* \"#utility.yul\":9767:9793   */\n      swap1\n      pop\n        /* \"#utility.yul\":9839:9848   */\n      dup2\n        /* \"#utility.yul\":9833:9837   */\n      dup2\n        /* \"#utility.yul\":9829:9849   */\n      sub\n        /* \"#utility.yul\":9825:9826   */\n      0x00\n        /* \"#utility.yul\":9814:9823   */\n      dup4\n        /* \"#utility.yul\":9810:9827   */\n      add\n        /* \"#utility.yul\":9803:9850   */\n      mstore\n        /* \"#utility.yul\":9867:9998   */\n      tag_322\n        /* \"#utility.yul\":9993:9997   */\n      dup2\n        /* \"#utility.yul\":9867:9998   */\n      tag_269\n      jump\t// in\n    tag_322:\n        /* \"#utility.yul\":9859:9998   */\n      swap1\n      pop\n        /* \"#utility.yul\":9586:10005   */\n      swap2\n      swap1\n      pop\n      jump\t// out\n        /* \"#utility.yul\":10011:10430   */\n    tag_179:\n        /* \"#utility.yul\":10177:10181   */\n      0x00\n        /* \"#utility.yul\":10215:10217   */\n      0x20\n        /* \"#utility.yul\":10204:10213   */\n      dup3\n        /* \"#utility.yul\":10200:10218   */\n      add\n        /* \"#utility.yul\":10192:10218   */\n      swap1\n      pop\n        /* \"#utility.yul\":10264:10273   */\n      dup2\n        /* \"#utility.yul\":10258:10262   */\n      dup2\n        /* \"#utility.yul\":10254:10274   */\n      sub\n        /* \"#utility.yul\":10250:10251   */\n      0x00\n        /* \"#utility.yul\":10239:10248   */\n      dup4\n        /* \"#utility.yul\":10235:10252   */\n      add\n        /* \"#utility.yul\":10228:10275   */\n      mstore\n        /* \"#utility.yul\":10292:10423   */\n      tag_324\n        /* \"#utility.yul\":10418:10422   */\n      dup2\n        /* \"#utility.yul\":10292:10423   */\n      tag_274\n      jump\t// in\n    tag_324:\n        /* \"#utility.yul\":10284:10423   */\n      swap1\n      pop\n        /* \"#utility.yul\":10011:10430   */\n      swap2\n      swap1\n      pop\n      jump\t// out\n        /* \"#utility.yul\":10436:10855   */\n    tag_111:\n        /* \"#utility.yul\":10602:10606   */\n      0x00\n        /* \"#utility.yul\":10640:10642   */\n      0x20\n        /* \"#utility.yul\":10629:10638   */\n      dup3\n        /* \"#utility.yul\":10625:10643   */\n      add\n        /* \"#utility.yul\":10617:10643   */\n      swap1\n      pop\n        /* \"#utility.yul\":10689:10698   */\n      dup2\n        /* \"#utility.yul\":10683:10687   */\n      dup2\n        /* \"#utility.yul\":10679:10699   */\n      sub\n        /* \"#utility.yul\":10675:10676   */\n      0x00\n        /* \"#utility.yul\":10664:10673   */\n      dup4\n        /* \"#utility.yul\":10660:10677   */\n      add\n        /* \"#utility.yul\":10653:10700   */\n      mstore\n        /* \"#utility.yul\":10717:10848   */\n      tag_326\n        /* \"#utility.yul\":10843:10847   */\n      dup2\n        /* \"#utility.yul\":10717:10848   */\n      tag_279\n      jump\t// in\n    tag_326:\n        /* \"#utility.yul\":10709:10848   */\n      swap1\n      pop\n        /* \"#utility.yul\":10436:10855   */\n      swap2\n      swap1\n      pop\n      jump\t// out\n        /* \"#utility.yul\":10861:11280   */\n    tag_153:\n        /* \"#utility.yul\":11027:11031   */\n      0x00\n        /* \"#utility.yul\":11065:11067   */\n      0x20\n        /* \"#utility.yul\":11054:11063   */\n      dup3\n        /* \"#utility.yul\":11050:11068   */\n      add\n        /* \"#utility.yul\":11042:11068   */\n      swap1\n      pop\n        /* \"#utility.yul\":11114:11123   */\n      dup2\n        /* \"#utility.yul\":11108:11112   */\n      dup2\n        /* \"#utility.yul\":11104:11124   */\n      sub\n        /* \"#utility.yul\":11100:11101   */\n      0x00\n        /* \"#utility.yul\":11089:11098   */\n      dup4\n        /* \"#utility.yul\":11085:11102   */\n      add\n        /* \"#utility.yul\":11078:11125   */\n      mstore\n        /* \"#utility.yul\":11142:11273   */\n      tag_328\n        /* \"#utility.yul\":11268:11272   */\n      dup2\n        /* \"#utility.yul\":11142:11273   */\n      tag_284\n      jump\t// in\n    tag_328:\n        /* \"#utility.yul\":11134:11273   */\n      swap1\n      pop\n        /* \"#utility.yul\":10861:11280   */\n      swap2\n      swap1\n      pop\n      jump\t// out\n        /* \"#utility.yul\":11286:11705   */\n    tag_160:\n        /* \"#utility.yul\":11452:11456   */\n      0x00\n        /* \"#utility.yul\":11490:11492   */\n      0x20\n        /* \"#utility.yul\":11479:11488   */\n      dup3\n        /* \"#utility.yul\":11475:11493   */\n      add\n        /* \"#utility.yul\":11467:11493   */\n      swap1\n      pop\n        /* \"#utility.yul\":11539:11548   */\n      dup2\n        /* \"#utility.yul\":11533:11537   */\n      dup2\n        /* \"#utility.yul\":11529:11549   */\n      sub\n        /* \"#utility.yul\":11525:11526   */\n      0x00\n        /* \"#utility.yul\":11514:11523   */\n      dup4\n        /* \"#utility.yul\":11510:11527   */\n      add\n        /* \"#utility.yul\":11503:11550   */\n      mstore\n        /* \"#utility.yul\":11567:11698   */\n      tag_330\n        /* \"#utility.yul\":11693:11697   */\n      dup2\n        /* \"#utility.yul\":11567:11698   */\n      tag_289\n      jump\t// in\n    tag_330:\n        /* \"#utility.yul\":11559:11698   */\n      swap1\n      pop\n        /* \"#utility.yul\":11286:11705   */\n      swap2\n      swap1\n      pop\n      jump\t// out\n        /* \"#utility.yul\":11711:12130   */\n    tag_125:\n        /* \"#utility.yul\":11877:11881   */\n      0x00\n        /* \"#utility.yul\":11915:11917   */\n      0x20\n        /* \"#utility.yul\":11904:11913   */\n      dup3\n        /* \"#utility.yul\":11900:11918   */\n      add\n        /* \"#utility.yul\":11892:11918   */\n      swap1\n      pop\n        /* \"#utility.yul\":11964:11973   */\n      dup2\n        /* \"#utility.yul\":11958:11962   */\n      dup2\n        /* \"#utility.yul\":11954:11974   */\n      sub\n        /* \"#utility.yul\":11950:11951   */\n      0x00\n        /* \"#utility.yul\":11939:11948   */\n      dup4\n        /* \"#utility.yul\":11935:11952   */\n      add\n        /* \"#utility.yul\":11928:11975   */\n      mstore\n        /* \"#utility.yul\":11992:12123   */\n      tag_332\n        /* \"#utility.yul\":12118:12122   */\n      dup2\n        /* \"#utility.yul\":11992:12123   */\n      tag_294\n      jump\t// in\n    tag_332:\n        /* \"#utility.yul\":11984:12123   */\n      swap1\n      pop\n        /* \"#utility.yul\":11711:12130   */\n      swap2\n      swap1\n      pop\n      jump\t// out\n        /* \"#utility.yul\":12136:12358   */\n    tag_37:\n        /* \"#utility.yul\":12229:12233   */\n      0x00\n        /* \"#utility.yul\":12267:12269   */\n      0x20\n        /* \"#utility.yul\":12256:12265   */\n      dup3\n        /* \"#utility.yul\":12252:12270   */\n      add\n        /* \"#utility.yul\":12244:12270   */\n      swap1\n      pop\n        /* \"#utility.yul\":12280:12351   */\n      tag_334\n        /* \"#utility.yul\":12348:12349   */\n      0x00\n        /* \"#utility.yul\":12337:12346   */\n      dup4\n        /* \"#utility.yul\":12333:12350   */\n      add\n        /* \"#utility.yul\":12324:12330   */\n      dup5\n        /* \"#utility.yul\":12280:12351   */\n      tag_299\n      jump\t// in\n    tag_334:\n        /* \"#utility.yul\":12136:12358   */\n      swap3\n      swap2\n      pop\n      pop\n      jump\t// out\n        /* \"#utility.yul\":12364:12578   */\n    tag_53:\n        /* \"#utility.yul\":12453:12457   */\n      0x00\n        /* \"#utility.yul\":12491:12493   */\n      0x20\n        /* \"#utility.yul\":12480:12489   */\n      dup3\n        /* \"#utility.yul\":12476:12494   */\n      add\n        /* \"#utility.yul\":12468:12494   */\n      swap1\n      pop\n        /* \"#utility.yul\":12504:12571   */\n      tag_336\n        /* \"#utility.yul\":12568:12569   */\n      0x00\n        /* \"#utility.yul\":12557:12566   */\n      dup4\n        /* \"#utility.yul\":12553:12570   */\n      add\n        /* \"#utility.yul\":12544:12550   */\n      dup5\n        /* \"#utility.yul\":12504:12571   */\n      tag_303\n      jump\t// in\n    tag_336:\n        /* \"#utility.yul\":12364:12578   */\n      swap3\n      swap2\n      pop\n      pop\n      jump\t// out\n        /* \"#utility.yul\":12665:12764   */\n    tag_242:\n        /* \"#utility.yul\":12717:12723   */\n      0x00\n        /* \"#utility.yul\":12751:12756   */\n      dup2\n        /* \"#utility.yul\":12745:12757   */\n      mload\n        /* \"#utility.yul\":12735:12757   */\n      swap1\n      pop\n        /* \"#utility.yul\":12665:12764   */\n      swap2\n      swap1\n      pop\n      jump\t// out\n        /* \"#utility.yul\":12770:12939   */\n    tag_244:\n        /* \"#utility.yul\":12854:12865   */\n      0x00\n        /* \"#utility.yul\":12888:12894   */\n      dup3\n        /* \"#utility.yul\":12883:12886   */\n      dup3\n        /* \"#utility.yul\":12876:12895   */\n      mstore\n        /* \"#utility.yul\":12928:12932   */\n      0x20\n        /* \"#utility.yul\":12923:12926   */\n      dup3\n        /* \"#utility.yul\":12919:12933   */\n      add\n        /* \"#utility.yul\":12904:12933   */\n      swap1\n      pop\n        /* \"#utility.yul\":12770:12939   */\n      swap3\n      swap2\n      pop\n      pop\n      jump\t// out\n        /* \"#utility.yul\":12945:13250   */\n    tag_150:\n        /* \"#utility.yul\":12985:12988   */\n      0x00\n        /* \"#utility.yul\":13004:13024   */\n      tag_342\n        /* \"#utility.yul\":13022:13023   */\n      dup3\n        /* \"#utility.yul\":13004:13024   */\n      tag_302\n      jump\t// in\n    tag_342:\n        /* \"#utility.yul\":12999:13024   */\n      swap2\n      pop\n        /* \"#utility.yul\":13038:13058   */\n      tag_343\n        /* \"#utility.yul\":13056:13057   */\n      dup4\n        /* \"#utility.yul\":13038:13058   */\n      tag_302\n      jump\t// in\n    tag_343:\n        /* \"#utility.yul\":13033:13058   */\n      swap3\n      pop\n        /* \"#utility.yul\":13192:13193   */\n      dup3\n        /* \"#utility.yul\":13124:13190   */\n      0xffffffffffffffffffffffffffffffffffffffffffffffffffffffffffffffff\n        /* \"#utility.yul\":13120:13194   */\n      sub\n        /* \"#utility.yul\":13117:13118   */\n      dup3\n        /* \"#utility.yul\":13114:13195   */\n      gt\n        /* \"#utility.yul\":13111:13218   */\n      iszero\n      tag_344\n      jumpi\n        /* \"#utility.yul\":13198:13216   */\n      tag_345\n      tag_346\n      jump\t// in\n    tag_345:\n        /* \"#utility.yul\":13111:13218   */\n    tag_344:\n        /* \"#utility.yul\":13242:13243   */\n      dup3\n        /* \"#utility.yul\":13239:13240   */\n      dup3\n        /* \"#utility.yul\":13235:13244   */\n      add\n        /* \"#utility.yul\":13228:13244   */\n      swap1\n      pop\n        /* \"#utility.yul\":12945:13250   */\n      swap3\n      swap2\n      pop\n      pop\n      jump\t// out\n        /* \"#utility.yul\":13256:13447   */\n    tag_194:\n        /* \"#utility.yul\":13296:13300   */\n      0x00\n        /* \"#utility.yul\":13316:13336   */\n      tag_348\n        /* \"#utility.yul\":13334:13335   */\n      dup3\n        /* \"#utility.yul\":13316:13336   */\n      tag_302\n      jump\t// in\n    tag_348:\n        /* \"#utility.yul\":13311:13336   */\n      swap2\n      pop\n        /* \"#utility.yul\":13350:13370   */\n      tag_349\n        /* \"#utility.yul\":13368:13369   */\n      dup4\n        /* \"#utility.yul\":13350:13370   */\n      tag_302\n      jump\t// in\n    tag_349:\n        /* \"#utility.yul\":13345:13370   */\n      swap3\n      pop\n        /* \"#utility.yul\":13389:13390   */\n      dup3\n        /* \"#utility.yul\":13386:13387   */\n      dup3\n        /* \"#utility.yul\":13383:13391   */\n      lt\n        /* \"#utility.yul\":13380:13414   */\n      iszero\n      tag_350\n      jumpi\n        /* \"#utility.yul\":13394:13412   */\n      tag_351\n      tag_346\n      jump\t// in\n    tag_351:\n        /* \"#utility.yul\":13380:13414   */\n    tag_350:\n        /* \"#utility.yul\":13439:13440   */\n      dup3\n        /* \"#utility.yul\":13436:13437   */\n      dup3\n        /* \"#utility.yul\":13432:13441   */\n      sub\n        /* \"#utility.yul\":13424:13441   */\n      swap1\n      pop\n        /* \"#utility.yul\":13256:13447   */\n      swap3\n      swap2\n      pop\n      pop\n      jump\t// out\n        /* \"#utility.yul\":13453:13549   */\n    tag_234:\n        /* \"#utility.yul\":13490:13497   */\n      0x00\n        /* \"#utility.yul\":13519:13543   */\n      tag_353\n        /* \"#utility.yul\":13537:13542   */\n      dup3\n        /* \"#utility.yul\":13519:13543   */\n      tag_354\n      jump\t// in\n    tag_353:\n        /* \"#utility.yul\":13508:13543   */\n      swap1\n      pop\n        /* \"#utility.yul\":13453:13549   */\n      swap2\n      swap1\n      pop\n      jump\t// out\n        /* \"#utility.yul\":13555:13645   */\n    tag_238:\n        /* \"#utility.yul\":13589:13596   */\n      0x00\n        /* \"#utility.yul\":13632:13637   */\n      dup2\n        /* \"#utility.yul\":13625:13638   */\n      iszero\n        /* \"#utility.yul\":13618:13639   */\n      iszero\n        /* \"#utility.yul\":13607:13639   */\n      swap1\n      pop\n        /* \"#utility.yul\":13555:13645   */\n      swap2\n      swap1\n      pop\n      jump\t// out\n        /* \"#utility.yul\":13651:13777   */\n    tag_354:\n        /* \"#utility.yul\":13688:13695   */\n      0x00\n        /* \"#utility.yul\":13728:13770   */\n      0xffffffffffffffffffffffffffffffffffffffff\n        /* \"#utility.yul\":13721:13726   */\n      dup3\n        /* \"#utility.yul\":13717:13771   */\n      and\n        /* \"#utility.yul\":13706:13771   */\n      swap1\n      pop\n        /* \"#utility.yul\":13651:13777   */\n      swap2\n      swap1\n      pop\n      jump\t// out\n        /* \"#utility.yul\":13783:13860   */\n    tag_302:\n        /* \"#utility.yul\":13820:13827   */\n      0x00\n        /* \"#utility.yul\":13849:13854   */\n      dup2\n        /* \"#utility.yul\":13838:13854   */\n      swap1\n      pop\n        /* \"#utility.yul\":13783:13860   */\n      swap2\n      swap1\n      pop\n      jump\t// out\n        /* \"#utility.yul\":13866:13952   */\n    tag_306:\n        /* \"#utility.yul\":13901:13908   */\n      0x00\n        /* \"#utility.yul\":13941:13945   */\n      0xff\n        /* \"#utility.yul\":13934:13939   */\n      dup3\n        /* \"#utility.yul\":13930:13946   */\n      and\n        /* \"#utility.yul\":13919:13946   */\n      swap1\n      pop\n        /* \"#utility.yul\":13866:13952   */\n      swap2\n      swap1\n      pop\n      jump\t// out\n        /* \"#utility.yul\":13958:14265   */\n    tag_246:\n        /* \"#utility.yul\":14026:14027   */\n      0x00\n        /* \"#utility.yul\":14036:14149   */\n    tag_360:\n        /* \"#utility.yul\":14050:14056   */\n      dup4\n        /* \"#utility.yul\":14047:14048   */\n      dup2\n        /* \"#utility.yul\":14044:14057   */\n      lt\n        /* \"#utility.yul\":14036:14149   */\n      iszero\n      tag_362\n      jumpi\n        /* \"#utility.yul\":14135:14136   */\n      dup1\n        /* \"#utility.yul\":14130:14133   */\n      dup3\n        /* \"#utility.yul\":14126:14137   */\n      add\n        /* \"#utility.yul\":14120:14138   */\n      mload\n        /* \"#utility.yul\":14116:14117   */\n      dup2\n        /* \"#utility.yul\":14111:14114   */\n      dup5\n        /* \"#utility.yul\":14107:14118   */\n      add\n        /* \"#utility.yul\":14100:14139   */\n      mstore\n        /* \"#utility.yul\":14072:14074   */\n      0x20\n        /* \"#utility.yul\":14069:14070   */\n      dup2\n        /* \"#utility.yul\":14065:14075   */\n      add\n        /* \"#utility.yul\":14060:14075   */\n      swap1\n      pop\n        /* \"#utility.yul\":14036:14149   */\n      jump(tag_360)\n    tag_362:\n        /* \"#utility.yul\":14167:14173   */\n      dup4\n        /* \"#utility.yul\":14164:14165   */\n      dup2\n        /* \"#utility.yul\":14161:14174   */\n      gt\n        /* \"#utility.yul\":14158:14259   */\n      iszero\n      tag_363\n      jumpi\n        /* \"#utility.yul\":14247:14248   */\n      0x00\n        /* \"#utility.yul\":14238:14244   */\n      dup5\n        /* \"#utility.yul\":14233:14236   */\n      dup5\n        /* \"#utility.yul\":14229:14245   */\n      add\n        /* \"#utility.yul\":14222:14249   */\n      mstore\n        /* \"#utility.yul\":14158:14259   */\n    tag_363:\n        /* \"#utility.yul\":14007:14265   */\n      pop\n        /* \"#utility.yul\":13958:14265   */\n      pop\n      pop\n      pop\n      jump\t// out\n        /* \"#utility.yul\":14271:14591   */\n    tag_99:\n        /* \"#utility.yul\":14315:14321   */\n      0x00\n        /* \"#utility.yul\":14352:14353   */\n      0x02\n        /* \"#utility.yul\":14346:14350   */\n      dup3\n        /* \"#utility.yul\":14342:14354   */\n      div\n        /* \"#utility.yul\":14332:14354   */\n      swap1\n      pop\n        /* \"#utility.yul\":14399:14400   */\n      0x01\n        /* \"#utility.yul\":14393:14397   */\n      dup3\n        /* \"#utility.yul\":14389:14401   */\n      and\n        /* \"#utility.yul\":14420:14438   */\n      dup1\n        /* \"#utility.yul\":14410:14491   */\n      tag_365\n      jumpi\n        /* \"#utility.yul\":14476:14480   */\n      0x7f\n        /* \"#utility.yul\":14468:14474   */\n      dup3\n        /* \"#utility.yul\":14464:14481   */\n      and\n        /* \"#utility.yul\":14454:14481   */\n      swap2\n      pop\n        /* \"#utility.yul\":14410:14491   */\n    tag_365:\n        /* \"#utility.yul\":14538:14540   */\n      0x20\n        /* \"#utility.yul\":14530:14536   */\n      dup3\n        /* \"#utility.yul\":14527:14541   */\n      lt\n        /* \"#utility.yul\":14507:14525   */\n      dup2\n        /* \"#utility.yul\":14504:14542   */\n      eq\n        /* \"#utility.yul\":14501:14585   */\n      iszero\n      tag_366\n      jumpi\n        /* \"#utility.yul\":14557:14575   */\n      tag_367\n      tag_368\n      jump\t// in\n    tag_367:\n        /* \"#utility.yul\":14501:14585   */\n    tag_366:\n        /* \"#utility.yul\":14322:14591   */\n      pop\n        /* \"#utility.yul\":14271:14591   */\n      swap2\n      swap1\n      pop\n      jump\t// out\n        /* \"#utility.yul\":14597:14777   */\n    tag_346:\n        /* \"#utility.yul\":14645:14722   */\n      0x4e487b7100000000000000000000000000000000000000000000000000000000\n        /* \"#utility.yul\":14642:14643   */\n      0x00\n        /* \"#utility.yul\":14635:14723   */\n      mstore\n        /* \"#utility.yul\":14742:14746   */\n      0x11\n        /* \"#utility.yul\":14739:14740   */\n      0x04\n        /* \"#utility.yul\":14732:14747   */\n      mstore\n        /* \"#utility.yul\":14766:14770   */\n      0x24\n        /* \"#utility.yul\":14763:14764   */\n      0x00\n        /* \"#utility.yul\":14756:14771   */\n      revert\n        /* \"#utility.yul\":14783:14963   */\n    tag_368:\n        /* \"#utility.yul\":14831:14908   */\n      0x4e487b7100000000000000000000000000000000000000000000000000000000\n        /* \"#utility.yul\":14828:14829   */\n      0x00\n        /* \"#utility.yul\":14821:14909   */\n      mstore\n        /* \"#utility.yul\":14928:14932   */\n      0x22\n        /* \"#utility.yul\":14925:14926   */\n      0x04\n        /* \"#utility.yul\":14918:14933   */\n      mstore\n        /* \"#utility.yul\":14952:14956   */\n      0x24\n        /* \"#utility.yul\":14949:14950   */\n      0x00\n        /* \"#utility.yul\":14942:14957   */\n      revert\n        /* \"#utility.yul\":15092:15209   */\n    tag_209:\n        /* \"#utility.yul\":15201:15202   */\n      0x00\n        /* \"#utility.yul\":15198:15199   */\n      dup1\n        /* \"#utility.yul\":15191:15203   */\n      revert\n        /* \"#utility.yul\":15215:15317   */\n    tag_248:\n        /* \"#utility.yul\":15256:15262   */\n      0x00\n        /* \"#utility.yul\":15307:15309   */\n      0x1f\n        /* \"#utility.yul\":15303:15310   */\n      not\n        /* \"#utility.yul\":15298:15300   */\n      0x1f\n        /* \"#utility.yul\":15291:15296   */\n      dup4\n        /* \"#utility.yul\":15287:15301   */\n      add\n        /* \"#utility.yul\":15283:15311   */\n      and\n        /* \"#utility.yul\":15273:15311   */\n      swap1\n      pop\n        /* \"#utility.yul\":15215:15317   */\n      swap2\n      swap1\n      pop\n      jump\t// out\n        /* \"#utility.yul\":15323:15543   */\n    tag_253:\n        /* \"#utility.yul\":15463:15497   */\n      0x45524332303a206167656e74652061206c6120646972656363696f6e20636572\n        /* \"#utility.yul\":15459:15460   */\n      0x00\n        /* \"#utility.yul\":15451:15457   */\n      dup3\n        /* \"#utility.yul\":15447:15461   */\n      add\n        /* \"#utility.yul\":15440:15498   */\n      mstore\n        /* \"#utility.yul\":15532:15535   */\n      0x6f00000000000000000000000000000000000000000000000000000000000000\n        /* \"#utility.yul\":15527:15529   */\n      0x20\n        /* \"#utility.yul\":15519:15525   */\n      dup3\n        /* \"#utility.yul\":15515:15530   */\n      add\n        /* \"#utility.yul\":15508:15536   */\n      mstore\n        /* \"#utility.yul\":15323:15543   */\n      pop\n      jump\t// out\n        /* \"#utility.yul\":15549:15774   */\n    tag_258:\n        /* \"#utility.yul\":15689:15723   */\n      0x45524332303a206170726f626172206465736465206c6120646972656363696f\n        /* \"#utility.yul\":15685:15686   */\n      0x00\n        /* \"#utility.yul\":15677:15683   */\n      dup3\n        /* \"#utility.yul\":15673:15687   */\n      add\n        /* \"#utility.yul\":15666:15724   */\n      mstore\n        /* \"#utility.yul\":15758:15766   */\n      0x6e206365726f0000000000000000000000000000000000000000000000000000\n        /* \"#utility.yul\":15753:15755   */\n      0x20\n        /* \"#utility.yul\":15745:15751   */\n      dup3\n        /* \"#utility.yul\":15741:15756   */\n      add\n        /* \"#utility.yul\":15734:15767   */\n      mstore\n        /* \"#utility.yul\":15549:15774   */\n      pop\n      jump\t// out\n        /* \"#utility.yul\":15780:16004   */\n    tag_263:\n        /* \"#utility.yul\":15920:15954   */\n      0x45524332303a207472616e7366657269722061206c6120646972656363696f6e\n        /* \"#utility.yul\":15916:15917   */\n      0x00\n        /* \"#utility.yul\":15908:15914   */\n      dup3\n        /* \"#utility.yul\":15904:15918   */\n      add\n        /* \"#utility.yul\":15897:15955   */\n      mstore\n        /* \"#utility.yul\":15989:15996   */\n      0x206365726f000000000000000000000000000000000000000000000000000000\n        /* \"#utility.yul\":15984:15986   */\n      0x20\n        /* \"#utility.yul\":15976:15982   */\n      dup3\n        /* \"#utility.yul\":15972:15987   */\n      add\n        /* \"#utility.yul\":15965:15997   */\n      mstore\n        /* \"#utility.yul\":15780:16004   */\n      pop\n      jump\t// out\n        /* \"#utility.yul\":16010:16241   */\n    tag_268:\n        /* \"#utility.yul\":16150:16184   */\n      0x45524332303a207472616e73666572656e636961206465736465206c61206469\n        /* \"#utility.yul\":16146:16147   */\n      0x00\n        /* \"#utility.yul\":16138:16144   */\n      dup3\n        /* \"#utility.yul\":16134:16148   */\n      add\n        /* \"#utility.yul\":16127:16185   */\n      mstore\n        /* \"#utility.yul\":16219:16233   */\n      0x72656363696f6e206365726f0000000000000000000000000000000000000000\n        /* \"#utility.yul\":16214:16216   */\n      0x20\n        /* \"#utility.yul\":16206:16212   */\n      dup3\n        /* \"#utility.yul\":16202:16217   */\n      add\n        /* \"#utility.yul\":16195:16234   */\n      mstore\n        /* \"#utility.yul\":16010:16241   */\n      pop\n      jump\t// out\n        /* \"#utility.yul\":16247:16471   */\n    tag_273:\n        /* \"#utility.yul\":16387:16421   */\n      0x45524332303a207175656d6172206465736465206c6120646972656363696f6e\n        /* \"#utility.yul\":16383:16384   */\n      0x00\n        /* \"#utility.yul\":16375:16381   */\n      dup3\n        /* \"#utility.yul\":16371:16385   */\n      add\n        /* \"#utility.yul\":16364:16422   */\n      mstore\n        /* \"#utility.yul\":16456:16463   */\n      0x206365726f000000000000000000000000000000000000000000000000000000\n        /* \"#utility.yul\":16451:16453   */\n      0x20\n        /* \"#utility.yul\":16443:16449   */\n      dup3\n        /* \"#utility.yul\":16439:16454   */\n      add\n        /* \"#utility.yul\":16432:16464   */\n      mstore\n        /* \"#utility.yul\":16247:16471   */\n      pop\n      jump\t// out\n        /* \"#utility.yul\":16477:16705   */\n    tag_278:\n        /* \"#utility.yul\":16617:16651   */\n      0x5f746f74616c537570706c7920706f72206578636564657220656c206c696d69\n        /* \"#utility.yul\":16613:16614   */\n      0x00\n        /* \"#utility.yul\":16605:16611   */\n      dup3\n        /* \"#utility.yul\":16601:16615   */\n      add\n        /* \"#utility.yul\":16594:16652   */\n      mstore\n        /* \"#utility.yul\":16686:16697   */\n      0x7465206d6178696d6f0000000000000000000000000000000000000000000000\n        /* \"#utility.yul\":16681:16683   */\n      0x20\n        /* \"#utility.yul\":16673:16679   */\n      dup3\n        /* \"#utility.yul\":16669:16684   */\n      add\n        /* \"#utility.yul\":16662:16698   */\n      mstore\n        /* \"#utility.yul\":16477:16705   */\n      pop\n      jump\t// out\n        /* \"#utility.yul\":16711:16885   */\n    tag_283:\n        /* \"#utility.yul\":16851:16877   */\n      0x53696e207065726d69736f7320657370656369616c6573210000000000000000\n        /* \"#utility.yul\":16847:16848   */\n      0x00\n        /* \"#utility.yul\":16839:16845   */\n      dup3\n        /* \"#utility.yul\":16835:16849   */\n      add\n        /* \"#utility.yul\":16828:16878   */\n      mstore\n        /* \"#utility.yul\":16711:16885   */\n      pop\n      jump\t// out\n        /* \"#utility.yul\":16891:17113   */\n    tag_288:\n        /* \"#utility.yul\":17031:17065   */\n      0x536166654d6174683a20646573626f7264616d69656e746f20656e206c612073\n        /* \"#utility.yul\":17027:17028   */\n      0x00\n        /* \"#utility.yul\":17019:17025   */\n      dup3\n        /* \"#utility.yul\":17015:17029   */\n      add\n        /* \"#utility.yul\":17008:17066   */\n      mstore\n        /* \"#utility.yul\":17100:17105   */\n      0x756d610000000000000000000000000000000000000000000000000000000000\n        /* \"#utility.yul\":17095:17097   */\n      0x20\n        /* \"#utility.yul\":17087:17093   */\n      dup3\n        /* \"#utility.yul\":17083:17098   */\n      add\n        /* \"#utility.yul\":17076:17106   */\n      mstore\n        /* \"#utility.yul\":16891:17113   */\n      pop\n      jump\t// out\n        /* \"#utility.yul\":17119:17340   */\n    tag_293:\n        /* \"#utility.yul\":17259:17293   */\n      0x45524332303a206170726f6261722061206c6120646972656363696f6e206365\n        /* \"#utility.yul\":17255:17256   */\n      0x00\n        /* \"#utility.yul\":17247:17253   */\n      dup3\n        /* \"#utility.yul\":17243:17257   */\n      add\n        /* \"#utility.yul\":17236:17294   */\n      mstore\n        /* \"#utility.yul\":17328:17332   */\n      0x726f000000000000000000000000000000000000000000000000000000000000\n        /* \"#utility.yul\":17323:17325   */\n      0x20\n        /* \"#utility.yul\":17315:17321   */\n      dup3\n        /* \"#utility.yul\":17311:17326   */\n      add\n        /* \"#utility.yul\":17304:17333   */\n      mstore\n        /* \"#utility.yul\":17119:17340   */\n      pop\n      jump\t// out\n        /* \"#utility.yul\":17346:17509   */\n    tag_298:\n        /* \"#utility.yul\":17486:17501   */\n      0x53696e207065726d69736f732100000000000000000000000000000000000000\n        /* \"#utility.yul\":17482:17483   */\n      0x00\n        /* \"#utility.yul\":17474:17480   */\n      dup3\n        /* \"#utility.yul\":17470:17484   */\n      add\n        /* \"#utility.yul\":17463:17502   */\n      mstore\n        /* \"#utility.yul\":17346:17509   */\n      pop\n      jump\t// out\n        /* \"#utility.yul\":17515:17637   */\n    tag_201:\n        /* \"#utility.yul\":17588:17612   */\n      tag_386\n        /* \"#utility.yul\":17606:17611   */\n      dup2\n        /* \"#utility.yul\":17588:17612   */\n      tag_234\n      jump\t// in\n    tag_386:\n        /* \"#utility.yul\":17581:17586   */\n      dup2\n        /* \"#utility.yul\":17578:17613   */\n      eq\n        /* \"#utility.yul\":17568:17631   */\n      tag_387\n      jumpi\n        /* \"#utility.yul\":17627:17628   */\n      0x00\n        /* \"#utility.yul\":17624:17625   */\n      dup1\n        /* \"#utility.yul\":17617:17629   */\n      revert\n        /* \"#utility.yul\":17568:17631   */\n    tag_387:\n        /* \"#utility.yul\":17515:17637   */\n      pop\n      jump\t// out\n        /* \"#utility.yul\":17643:17765   */\n    tag_205:\n        /* \"#utility.yul\":17716:17740   */\n      tag_389\n        /* \"#utility.yul\":17734:17739   */\n      dup2\n        /* \"#utility.yul\":17716:17740   */\n      tag_302\n      jump\t// in\n    tag_389:\n        /* \"#utility.yul\":17709:17714   */\n      dup2\n        /* \"#utility.yul\":17706:17741   */\n      eq\n        /* \"#utility.yul\":17696:17759   */\n      tag_390\n      jumpi\n        /* \"#utility.yul\":17755:17756   */\n      0x00\n        /* \"#utility.yul\":17752:17753   */\n      dup1\n        /* \"#utility.yul\":17745:17757   */\n      revert\n        /* \"#utility.yul\":17696:17759   */\n    tag_390:\n        /* \"#utility.yul\":17643:17765   */\n      pop\n      jump\t// out\n    stop\n    data_39a9e457cd9646a6cb04d0ecb8a1ea7e68ccb3ce96f9ab7658369423053dbc1a 45524332303a206469736d696e7563696f6e206465206c6120617369676e6163696f6e20706f7220646562616a6f206465206365726f\n    data_84aea65bef2579a1e9d3c1eae05f7ee312a2065637aab168a896bd56440048cd 536166654d6174683a20646573626f7264616d69656e746f20656e206c61207265737461\n    data_866258f6c7865e46aa656a532304f6ffa9e3cc6506900bcf9b0a52a03f39091c 45524332303a206c612063616e7469646164207175656d6164612065786365646520656c2073616c646f\n    data_8ed302d156bb0e1b9333b1cc2b7ffc0d3cd399268d9d7b014b5553169595fda7 45524332303a20656c206d6f6e746f206465206c61207472616e73666572656e6369612065786365646520656c2073616c646f\n\n    auxdata: 0xa2646970667358221220f11805ca9c272cbd17dc417d711da00efd3a57e5a234a90a1037ede2d4dbaae164736f6c63430008070033\n}\n",
				"bytecode": {
					"linkReferences": {},
					"object": "60806040523480156200001157600080fd5b506040518060400160405280600881526020017f4f7a20546f6b656e0000000000000000000000000000000000000000000000008152506040518060400160405280600381526020017f4f5a54000000000000000000000000000000000000000000000000000000000081525060008260039080519060200190620000989291906200056b565b508160049080519060200190620000b19291906200056b565b5080600560006101000a81548160ff021916908360ff16021790555050505033600560016101000a81548173ffffffffffffffffffffffffffffffffffffffff021916908373ffffffffffffffffffffffffffffffffffffffff16021790555062000144600560019054906101000a900473ffffffffffffffffffffffffffffffffffffffff166200018860201b60201c565b62000182600560019054906101000a900473ffffffffffffffffffffffffffffffffffffffff1669d3c21bcecceda10000006200027660201b60201c565b62000a01565b600560019054906101000a900473ffffffffffffffffffffffffffffffffffffffff1673ffffffffffffffffffffffffffffffffffffffff163373ffffffffffffffffffffffffffffffffffffffff16146200021b576040517f08c379a0000000000000000000000000000000000000000000000000000000008152600401620002129062000733565b60405180910390fd5b6001600660008373ffffffffffffffffffffffffffffffffffffffff1673ffffffffffffffffffffffffffffffffffffffff16815260200190815260200160002060006101000a81548160ff02191690831515021790555050565b600660003373ffffffffffffffffffffffffffffffffffffffff1673ffffffffffffffffffffffffffffffffffffffff16815260200190815260200160002060009054906101000a900460ff1662000305576040517f08c379a0000000000000000000000000000000000000000000000000000000008152600401620002fc9062000777565b60405180910390fd5b6200031782826200031b60201b60201c565b5050565b600073ffffffffffffffffffffffffffffffffffffffff168273ffffffffffffffffffffffffffffffffffffffff1614156200038e576040517f08c379a00000000000000000000000000000000000000000000000000000000081526004016200038590620006ef565b60405180910390fd5b620003aa816002546200050860201b62000b121790919060201c565b60028190555069d3c21bcecceda1000000600254111562000402576040517f08c379a0000000000000000000000000000000000000000000000000000000008152600401620003f99062000711565b60405180910390fd5b6200045a816000808573ffffffffffffffffffffffffffffffffffffffff1673ffffffffffffffffffffffffffffffffffffffff168152602001908152602001600020546200050860201b62000b121790919060201c565b6000808473ffffffffffffffffffffffffffffffffffffffff1673ffffffffffffffffffffffffffffffffffffffff168152602001908152602001600020819055508173ffffffffffffffffffffffffffffffffffffffff16600073ffffffffffffffffffffffffffffffffffffffff167fddf252ad1be2c89b69c2b068fc378daa952ba7f163c4a11628f55a4df523b3ef83604051620004fc919062000799565b60405180910390a35050565b6000808284620005199190620007c7565b90508381101562000561576040517f08c379a0000000000000000000000000000000000000000000000000000000008152600401620005589062000755565b60405180910390fd5b8091505092915050565b82805462000579906200082e565b90600052602060002090601f0160209004810192826200059d5760008555620005e9565b82601f10620005b857805160ff1916838001178555620005e9565b82800160010185558215620005e9579182015b82811115620005e8578251825591602001919060010190620005cb565b5b509050620005f89190620005fc565b5090565b5b8082111562000617576000816000905550600101620005fd565b5090565b60006200062a602183620007b6565b91506200063782620008c2565b604082019050919050565b600062000651602983620007b6565b91506200065e8262000911565b604082019050919050565b600062000678601883620007b6565b9150620006858262000960565b602082019050919050565b60006200069f602383620007b6565b9150620006ac8262000989565b604082019050919050565b6000620006c6600d83620007b6565b9150620006d382620009d8565b602082019050919050565b620006e98162000824565b82525050565b600060208201905081810360008301526200070a816200061b565b9050919050565b600060208201905081810360008301526200072c8162000642565b9050919050565b600060208201905081810360008301526200074e8162000669565b9050919050565b60006020820190508181036000830152620007708162000690565b9050919050565b600060208201905081810360008301526200079281620006b7565b9050919050565b6000602082019050620007b06000830184620006de565b92915050565b600082825260208201905092915050565b6000620007d48262000824565b9150620007e18362000824565b9250827fffffffffffffffffffffffffffffffffffffffffffffffffffffffffffffffff0382111562000819576200081862000864565b5b828201905092915050565b6000819050919050565b600060028204905060018216806200084757607f821691505b602082108114156200085e576200085d62000893565b5b50919050565b7f4e487b7100000000000000000000000000000000000000000000000000000000600052601160045260246000fd5b7f4e487b7100000000000000000000000000000000000000000000000000000000600052602260045260246000fd5b7f45524332303a206167656e74652061206c6120646972656363696f6e2063657260008201527f6f00000000000000000000000000000000000000000000000000000000000000602082015250565b7f5f746f74616c537570706c7920706f72206578636564657220656c206c696d6960008201527f7465206d6178696d6f0000000000000000000000000000000000000000000000602082015250565b7f53696e207065726d69736f7320657370656369616c6573210000000000000000600082015250565b7f536166654d6174683a20646573626f7264616d69656e746f20656e206c61207360008201527f756d610000000000000000000000000000000000000000000000000000000000602082015250565b7f53696e207065726d69736f732100000000000000000000000000000000000000600082015250565b611e808062000a116000396000f3fe608060405234801561001057600080fd5b50600436106101165760003560e01c806342966c68116100a2578063a3e6761011610071578063a3e67610146102df578063a457c2d7146102fd578063a9059cbb1461032d578063dd62ed3e1461035d578063f46eccc41461038d57610116565b806342966c681461025957806370a082311461027557806395d89b41146102a5578063983b2d56146102c357610116565b806323b872dd116100e957806323b872dd146101a35780633092afd5146101d3578063313ce567146101ef578063395093511461020d57806340c10f191461023d57610116565b806306fdde031461011b578063095ea7b31461013957806318160ddd1461016957806318e02bd914610187575b600080fd5b6101236103bd565b604051610130919061172f565b60405180910390f35b610153600480360381019061014e91906114b9565b61044f565b6040516101609190611714565b60405180910390f35b610171610466565b60405161017e9190611891565b60405180910390f35b6101a1600480360381019061019c91906113f9565b610470565b005b6101bd60048036038101906101b89190611466565b610544565b6040516101ca9190611714565b60405180910390f35b6101ed60048036038101906101e891906113f9565b61055c565b005b6101f7610647565b60405161020491906118ac565b60405180910390f35b610227600480360381019061022291906114b9565b61065e565b6040516102349190611714565b60405180910390f35b610257600480360381019061025291906114b9565b610703565b005b610273600480360381019061026e91906114f9565b61079d565b005b61028f600480360381019061028a91906113f9565b6107aa565b60405161029c9190611891565b60405180910390f35b6102ad6107f2565b6040516102ba919061172f565b60405180910390f35b6102dd60048036038101906102d891906113f9565b610884565b005b6102e761096f565b6040516102f491906116f9565b60405180910390f35b610317600480360381019061031291906114b9565b610995565b6040516103249190611714565b60405180910390f35b610347600480360381019061034291906114b9565b610a54565b6040516103549190611714565b60405180910390f35b61037760048036038101906103729190611426565b610a6b565b6040516103849190611891565b60405180910390f35b6103a760048036038101906103a291906113f9565b610af2565b6040516103b49190611714565b60405180910390f35b6060600380546103cc906119f5565b80601f01602080910402602001604051908101604052809291908181526020018280546103f8906119f5565b80156104455780601f1061041a57610100808354040283529160200191610445565b820191906000526020600020905b81548152906001019060200180831161042857829003601f168201915b5050505050905090565b600061045c338484610b70565b6001905092915050565b6000600254905090565b600560019054906101000a900473ffffffffffffffffffffffffffffffffffffffff1673ffffffffffffffffffffffffffffffffffffffff163373ffffffffffffffffffffffffffffffffffffffff1614610500576040517f08c379a00000000000000000000000000000000000000000000000000000000081526004016104f790611811565b60405180910390fd5b80600560016101000a81548173ffffffffffffffffffffffffffffffffffffffff021916908373ffffffffffffffffffffffffffffffffffffffff16021790555050565b6000610551848484610d3b565b600190509392505050565b600560019054906101000a900473ffffffffffffffffffffffffffffffffffffffff1673ffffffffffffffffffffffffffffffffffffffff163373ffffffffffffffffffffffffffffffffffffffff16146105ec576040517f08c379a00000000000000000000000000000000000000000000000000000000081526004016105e390611811565b60405180910390fd5b6000600660008373ffffffffffffffffffffffffffffffffffffffff1673ffffffffffffffffffffffffffffffffffffffff16815260200190815260200160002060006101000a81548160ff02191690831515021790555050565b6000600560009054906101000a900460ff16905090565b60006106f933846106f485600160003373ffffffffffffffffffffffffffffffffffffffff1673ffffffffffffffffffffffffffffffffffffffff16815260200190815260200160002060008973ffffffffffffffffffffffffffffffffffffffff1673ffffffffffffffffffffffffffffffffffffffff16815260200190815260200160002054610b1290919063ffffffff16565b610b70565b6001905092915050565b600660003373ffffffffffffffffffffffffffffffffffffffff1673ffffffffffffffffffffffffffffffffffffffff16815260200190815260200160002060009054906101000a900460ff1661078f576040517f08c379a000000000000000000000000000000000000000000000000000000000815260040161078690611871565b60405180910390fd5b6107998282610fc5565b5050565b6107a7338261119c565b50565b60008060008373ffffffffffffffffffffffffffffffffffffffff1673ffffffffffffffffffffffffffffffffffffffff168152602001908152602001600020549050919050565b606060048054610801906119f5565b80601f016020809104026020016040519081016040528092919081815260200182805461082d906119f5565b801561087a5780601f1061084f5761010080835404028352916020019161087a565b820191906000526020600020905b81548152906001019060200180831161085d57829003601f168201915b5050505050905090565b600560019054906101000a900473ffffffffffffffffffffffffffffffffffffffff1673ffffffffffffffffffffffffffffffffffffffff163373ffffffffffffffffffffffffffffffffffffffff1614610914576040517f08c379a000000000000000000000000000000000000000000000000000000000815260040161090b90611811565b60405180910390fd5b6001600660008373ffffffffffffffffffffffffffffffffffffffff1673ffffffffffffffffffffffffffffffffffffffff16815260200190815260200160002060006101000a81548160ff02191690831515021790555050565b600560019054906101000a900473ffffffffffffffffffffffffffffffffffffffff1681565b6000610a4a3384610a4585604051806060016040528060368152602001611d9460369139600160003373ffffffffffffffffffffffffffffffffffffffff1673ffffffffffffffffffffffffffffffffffffffff16815260200190815260200160002060008a73ffffffffffffffffffffffffffffffffffffffff1673ffffffffffffffffffffffffffffffffffffffff1681526020019081526020016000205461133e9092919063ffffffff16565b610b70565b6001905092915050565b6000610a61338484610d3b565b6001905092915050565b6000600160008473ffffffffffffffffffffffffffffffffffffffff1673ffffffffffffffffffffffffffffffffffffffff16815260200190815260200160002060008373ffffffffffffffffffffffffffffffffffffffff1673ffffffffffffffffffffffffffffffffffffffff16815260200190815260200160002054905092915050565b60066020528060005260406000206000915054906101000a900460ff1681565b6000808284610b2191906118e3565b905083811015610b66576040517f08c379a0000000000000000000000000000000000000000000000000000000008152600401610b5d90611831565b60405180910390fd5b8091505092915050565b600073ffffffffffffffffffffffffffffffffffffffff168373ffffffffffffffffffffffffffffffffffffffff161415610be0576040517f08c379a0000000000000000000000000000000000000000000000000000000008152600401610bd790611771565b60405180910390fd5b600073ffffffffffffffffffffffffffffffffffffffff168273ffffffffffffffffffffffffffffffffffffffff161415610c50576040517f08c379a0000000000000000000000000000000000000000000000000000000008152600401610c4790611851565b60405180910390fd5b80600160008573ffffffffffffffffffffffffffffffffffffffff1673ffffffffffffffffffffffffffffffffffffffff16815260200190815260200160002060008473ffffffffffffffffffffffffffffffffffffffff1673ffffffffffffffffffffffffffffffffffffffff168152602001908152602001600020819055508173ffffffffffffffffffffffffffffffffffffffff168373ffffffffffffffffffffffffffffffffffffffff167f8c5be1e5ebec7d5bd14f71427d1e84f3dd0314c0f7b2291e5b200ac8c7c3b92583604051610d2e9190611891565b60405180910390a3505050565b600073ffffffffffffffffffffffffffffffffffffffff168373ffffffffffffffffffffffffffffffffffffffff161415610dab576040517f08c379a0000000000000000000000000000000000000000000000000000000008152600401610da2906117b1565b60405180910390fd5b600073ffffffffffffffffffffffffffffffffffffffff168273ffffffffffffffffffffffffffffffffffffffff161415610e1b576040517f08c379a0000000000000000000000000000000000000000000000000000000008152600401610e1290611791565b60405180910390fd5b610e8681604051806060016040528060338152602001611e18603391396000808773ffffffffffffffffffffffffffffffffffffffff1673ffffffffffffffffffffffffffffffffffffffff1681526020019081526020016000205461133e9092919063ffffffff16565b6000808573ffffffffffffffffffffffffffffffffffffffff1673ffffffffffffffffffffffffffffffffffffffff16815260200190815260200160002081905550610f19816000808573ffffffffffffffffffffffffffffffffffffffff1673ffffffffffffffffffffffffffffffffffffffff16815260200190815260200160002054610b1290919063ffffffff16565b6000808473ffffffffffffffffffffffffffffffffffffffff1673ffffffffffffffffffffffffffffffffffffffff168152602001908152602001600020819055508173ffffffffffffffffffffffffffffffffffffffff168373ffffffffffffffffffffffffffffffffffffffff167fddf252ad1be2c89b69c2b068fc378daa952ba7f163c4a11628f55a4df523b3ef83604051610fb89190611891565b60405180910390a3505050565b600073ffffffffffffffffffffffffffffffffffffffff168273ffffffffffffffffffffffffffffffffffffffff161415611035576040517f08c379a000000000000000000000000000000000000000000000000000000000815260040161102c90611751565b60405180910390fd5b61104a81600254610b1290919063ffffffff16565b60028190555069d3c21bcecceda1000000600254111561109f576040517f08c379a0000000000000000000000000000000000000000000000000000000008152600401611096906117f1565b60405180910390fd5b6110f0816000808573ffffffffffffffffffffffffffffffffffffffff1673ffffffffffffffffffffffffffffffffffffffff16815260200190815260200160002054610b1290919063ffffffff16565b6000808473ffffffffffffffffffffffffffffffffffffffff1673ffffffffffffffffffffffffffffffffffffffff168152602001908152602001600020819055508173ffffffffffffffffffffffffffffffffffffffff16600073ffffffffffffffffffffffffffffffffffffffff167fddf252ad1be2c89b69c2b068fc378daa952ba7f163c4a11628f55a4df523b3ef836040516111909190611891565b60405180910390a35050565b600073ffffffffffffffffffffffffffffffffffffffff168273ffffffffffffffffffffffffffffffffffffffff16141561120c576040517f08c379a0000000000000000000000000000000000000000000000000000000008152600401611203906117d1565b60405180910390fd5b611277816040518060600160405280602a8152602001611dee602a91396000808673ffffffffffffffffffffffffffffffffffffffff1673ffffffffffffffffffffffffffffffffffffffff1681526020019081526020016000205461133e9092919063ffffffff16565b6000808473ffffffffffffffffffffffffffffffffffffffff1673ffffffffffffffffffffffffffffffffffffffff168152602001908152602001600020819055506112ce816002546113a290919063ffffffff16565b600281905550600073ffffffffffffffffffffffffffffffffffffffff168273ffffffffffffffffffffffffffffffffffffffff167fddf252ad1be2c89b69c2b068fc378daa952ba7f163c4a11628f55a4df523b3ef836040516113329190611891565b60405180910390a35050565b6000838311158290611386576040517f08c379a000000000000000000000000000000000000000000000000000000000815260040161137d919061172f565b60405180910390fd5b50600083856113959190611939565b9050809150509392505050565b60006113c78383604051806060016040528060248152602001611dca6024913961133e565b905092915050565b6000813590506113de81611d65565b92915050565b6000813590506113f381611d7c565b92915050565b60006020828403121561140f5761140e611a85565b5b600061141d848285016113cf565b91505092915050565b6000806040838503121561143d5761143c611a85565b5b600061144b858286016113cf565b925050602061145c858286016113cf565b9150509250929050565b60008060006060848603121561147f5761147e611a85565b5b600061148d868287016113cf565b935050602061149e868287016113cf565b92505060406114af868287016113e4565b9150509250925092565b600080604083850312156114d0576114cf611a85565b5b60006114de858286016113cf565b92505060206114ef858286016113e4565b9150509250929050565b60006020828403121561150f5761150e611a85565b5b600061151d848285016113e4565b91505092915050565b61152f8161196d565b82525050565b61153e8161197f565b82525050565b600061154f826118c7565b61155981856118d2565b93506115698185602086016119c2565b61157281611a8a565b840191505092915050565b600061158a6021836118d2565b915061159582611a9b565b604082019050919050565b60006115ad6026836118d2565b91506115b882611aea565b604082019050919050565b60006115d06025836118d2565b91506115db82611b39565b604082019050919050565b60006115f3602c836118d2565b91506115fe82611b88565b604082019050919050565b60006116166025836118d2565b915061162182611bd7565b604082019050919050565b60006116396029836118d2565b915061164482611c26565b604082019050919050565b600061165c6018836118d2565b915061166782611c75565b602082019050919050565b600061167f6023836118d2565b915061168a82611c9e565b604082019050919050565b60006116a26022836118d2565b91506116ad82611ced565b604082019050919050565b60006116c5600d836118d2565b91506116d082611d3c565b602082019050919050565b6116e4816119ab565b82525050565b6116f3816119b5565b82525050565b600060208201905061170e6000830184611526565b92915050565b60006020820190506117296000830184611535565b92915050565b600060208201905081810360008301526117498184611544565b905092915050565b6000602082019050818103600083015261176a8161157d565b9050919050565b6000602082019050818103600083015261178a816115a0565b9050919050565b600060208201905081810360008301526117aa816115c3565b9050919050565b600060208201905081810360008301526117ca816115e6565b9050919050565b600060208201905081810360008301526117ea81611609565b9050919050565b6000602082019050818103600083015261180a8161162c565b9050919050565b6000602082019050818103600083015261182a8161164f565b9050919050565b6000602082019050818103600083015261184a81611672565b9050919050565b6000602082019050818103600083015261186a81611695565b9050919050565b6000602082019050818103600083015261188a816116b8565b9050919050565b60006020820190506118a660008301846116db565b92915050565b60006020820190506118c160008301846116ea565b92915050565b600081519050919050565b600082825260208201905092915050565b60006118ee826119ab565b91506118f9836119ab565b9250827fffffffffffffffffffffffffffffffffffffffffffffffffffffffffffffffff0382111561192e5761192d611a27565b5b828201905092915050565b6000611944826119ab565b915061194f836119ab565b92508282101561196257611961611a27565b5b828203905092915050565b60006119788261198b565b9050919050565b60008115159050919050565b600073ffffffffffffffffffffffffffffffffffffffff82169050919050565b6000819050919050565b600060ff82169050919050565b60005b838110156119e05780820151818401526020810190506119c5565b838111156119ef576000848401525b50505050565b60006002820490506001821680611a0d57607f821691505b60208210811415611a2157611a20611a56565b5b50919050565b7f4e487b7100000000000000000000000000000000000000000000000000000000600052601160045260246000fd5b7f4e487b7100000000000000000000000000000000000000000000000000000000600052602260045260246000fd5b600080fd5b6000601f19601f8301169050919050565b7f45524332303a206167656e74652061206c6120646972656363696f6e2063657260008201527f6f00000000000000000000000000000000000000000000000000000000000000602082015250565b7f45524332303a206170726f626172206465736465206c6120646972656363696f60008201527f6e206365726f0000000000000000000000000000000000000000000000000000602082015250565b7f45524332303a207472616e7366657269722061206c6120646972656363696f6e60008201527f206365726f000000000000000000000000000000000000000000000000000000602082015250565b7f45524332303a207472616e73666572656e636961206465736465206c6120646960008201527f72656363696f6e206365726f0000000000000000000000000000000000000000602082015250565b7f45524332303a207175656d6172206465736465206c6120646972656363696f6e60008201527f206365726f000000000000000000000000000000000000000000000000000000602082015250565b7f5f746f74616c537570706c7920706f72206578636564657220656c206c696d6960008201527f7465206d6178696d6f0000000000000000000000000000000000000000000000602082015250565b7f53696e207065726d69736f7320657370656369616c6573210000000000000000600082015250565b7f536166654d6174683a20646573626f7264616d69656e746f20656e206c61207360008201527f756d610000000000000000000000000000000000000000000000000000000000602082015250565b7f45524332303a206170726f6261722061206c6120646972656363696f6e20636560008201527f726f000000000000000000000000000000000000000000000000000000000000602082015250565b7f53696e207065726d69736f732100000000000000000000000000000000000000600082015250565b611d6e8161196d565b8114611d7957600080fd5b50565b611d85816119ab565b8114611d9057600080fd5b5056fe45524332303a206469736d696e7563696f6e206465206c6120617369676e6163696f6e20706f7220646562616a6f206465206365726f536166654d6174683a20646573626f7264616d69656e746f20656e206c6120726573746145524332303a206c612063616e7469646164207175656d6164612065786365646520656c2073616c646f45524332303a20656c206d6f6e746f206465206c61207472616e73666572656e6369612065786365646520656c2073616c646fa2646970667358221220f11805ca9c272cbd17dc417d711da00efd3a57e5a234a90a1037ede2d4dbaae164736f6c63430008070033",
					"opcodes": "PUSH1 0x80 PUSH1 0x40 MSTORE CALLVALUE DUP1 ISZERO PUSH3 0x11 JUMPI PUSH1 0x0 DUP1 REVERT JUMPDEST POP PUSH1 0x40 MLOAD DUP1 PUSH1 0x40 ADD PUSH1 0x40 MSTORE DUP1 PUSH1 0x8 DUP2 MSTORE PUSH1 0x20 ADD PUSH32 0x4F7A20546F6B656E000000000000000000000000000000000000000000000000 DUP2 MSTORE POP PUSH1 0x40 MLOAD DUP1 PUSH1 0x40 ADD PUSH1 0x40 MSTORE DUP1 PUSH1 0x3 DUP2 MSTORE PUSH1 0x20 ADD PUSH32 0x4F5A540000000000000000000000000000000000000000000000000000000000 DUP2 MSTORE POP PUSH1 0x0 DUP3 PUSH1 0x3 SWAP1 DUP1 MLOAD SWAP1 PUSH1 0x20 ADD SWAP1 PUSH3 0x98 SWAP3 SWAP2 SWAP1 PUSH3 0x56B JUMP JUMPDEST POP DUP2 PUSH1 0x4 SWAP1 DUP1 MLOAD SWAP1 PUSH1 0x20 ADD SWAP1 PUSH3 0xB1 SWAP3 SWAP2 SWAP1 PUSH3 0x56B JUMP JUMPDEST POP DUP1 PUSH1 0x5 PUSH1 0x0 PUSH2 0x100 EXP DUP2 SLOAD DUP2 PUSH1 0xFF MUL NOT AND SWAP1 DUP4 PUSH1 0xFF AND MUL OR SWAP1 SSTORE POP POP POP POP CALLER PUSH1 0x5 PUSH1 0x1 PUSH2 0x100 EXP DUP2 SLOAD DUP2 PUSH20 0xFFFFFFFFFFFFFFFFFFFFFFFFFFFFFFFFFFFFFFFF MUL NOT AND SWAP1 DUP4 PUSH20 0xFFFFFFFFFFFFFFFFFFFFFFFFFFFFFFFFFFFFFFFF AND MUL OR SWAP1 SSTORE POP PUSH3 0x144 PUSH1 0x5 PUSH1 0x1 SWAP1 SLOAD SWAP1 PUSH2 0x100 EXP SWAP1 DIV PUSH20 0xFFFFFFFFFFFFFFFFFFFFFFFFFFFFFFFFFFFFFFFF AND PUSH3 0x188 PUSH1 0x20 SHL PUSH1 0x20 SHR JUMP JUMPDEST PUSH3 0x182 PUSH1 0x5 PUSH1 0x1 SWAP1 SLOAD SWAP1 PUSH2 0x100 EXP SWAP1 DIV PUSH20 0xFFFFFFFFFFFFFFFFFFFFFFFFFFFFFFFFFFFFFFFF AND PUSH10 0xD3C21BCECCEDA1000000 PUSH3 0x276 PUSH1 0x20 SHL PUSH1 0x20 SHR JUMP JUMPDEST PUSH3 0xA01 JUMP JUMPDEST PUSH1 0x5 PUSH1 0x1 SWAP1 SLOAD SWAP1 PUSH2 0x100 EXP SWAP1 DIV PUSH20 0xFFFFFFFFFFFFFFFFFFFFFFFFFFFFFFFFFFFFFFFF AND PUSH20 0xFFFFFFFFFFFFFFFFFFFFFFFFFFFFFFFFFFFFFFFF AND CALLER PUSH20 0xFFFFFFFFFFFFFFFFFFFFFFFFFFFFFFFFFFFFFFFF AND EQ PUSH3 0x21B JUMPI PUSH1 0x40 MLOAD PUSH32 0x8C379A000000000000000000000000000000000000000000000000000000000 DUP2 MSTORE PUSH1 0x4 ADD PUSH3 0x212 SWAP1 PUSH3 0x733 JUMP JUMPDEST PUSH1 0x40 MLOAD DUP1 SWAP2 SUB SWAP1 REVERT JUMPDEST PUSH1 0x1 PUSH1 0x6 PUSH1 0x0 DUP4 PUSH20 0xFFFFFFFFFFFFFFFFFFFFFFFFFFFFFFFFFFFFFFFF AND PUSH20 0xFFFFFFFFFFFFFFFFFFFFFFFFFFFFFFFFFFFFFFFF AND DUP2 MSTORE PUSH1 0x20 ADD SWAP1 DUP2 MSTORE PUSH1 0x20 ADD PUSH1 0x0 KECCAK256 PUSH1 0x0 PUSH2 0x100 EXP DUP2 SLOAD DUP2 PUSH1 0xFF MUL NOT AND SWAP1 DUP4 ISZERO ISZERO MUL OR SWAP1 SSTORE POP POP JUMP JUMPDEST PUSH1 0x6 PUSH1 0x0 CALLER PUSH20 0xFFFFFFFFFFFFFFFFFFFFFFFFFFFFFFFFFFFFFFFF AND PUSH20 0xFFFFFFFFFFFFFFFFFFFFFFFFFFFFFFFFFFFFFFFF AND DUP2 MSTORE PUSH1 0x20 ADD SWAP1 DUP2 MSTORE PUSH1 0x20 ADD PUSH1 0x0 KECCAK256 PUSH1 0x0 SWAP1 SLOAD SWAP1 PUSH2 0x100 EXP SWAP1 DIV PUSH1 0xFF AND PUSH3 0x305 JUMPI PUSH1 0x40 MLOAD PUSH32 0x8C379A000000000000000000000000000000000000000000000000000000000 DUP2 MSTORE PUSH1 0x4 ADD PUSH3 0x2FC SWAP1 PUSH3 0x777 JUMP JUMPDEST PUSH1 0x40 MLOAD DUP1 SWAP2 SUB SWAP1 REVERT JUMPDEST PUSH3 0x317 DUP3 DUP3 PUSH3 0x31B PUSH1 0x20 SHL PUSH1 0x20 SHR JUMP JUMPDEST POP POP JUMP JUMPDEST PUSH1 0x0 PUSH20 0xFFFFFFFFFFFFFFFFFFFFFFFFFFFFFFFFFFFFFFFF AND DUP3 PUSH20 0xFFFFFFFFFFFFFFFFFFFFFFFFFFFFFFFFFFFFFFFF AND EQ ISZERO PUSH3 0x38E JUMPI PUSH1 0x40 MLOAD PUSH32 0x8C379A000000000000000000000000000000000000000000000000000000000 DUP2 MSTORE PUSH1 0x4 ADD PUSH3 0x385 SWAP1 PUSH3 0x6EF JUMP JUMPDEST PUSH1 0x40 MLOAD DUP1 SWAP2 SUB SWAP1 REVERT JUMPDEST PUSH3 0x3AA DUP2 PUSH1 0x2 SLOAD PUSH3 0x508 PUSH1 0x20 SHL PUSH3 0xB12 OR SWAP1 SWAP2 SWAP1 PUSH1 0x20 SHR JUMP JUMPDEST PUSH1 0x2 DUP2 SWAP1 SSTORE POP PUSH10 0xD3C21BCECCEDA1000000 PUSH1 0x2 SLOAD GT ISZERO PUSH3 0x402 JUMPI PUSH1 0x40 MLOAD PUSH32 0x8C379A000000000000000000000000000000000000000000000000000000000 DUP2 MSTORE PUSH1 0x4 ADD PUSH3 0x3F9 SWAP1 PUSH3 0x711 JUMP JUMPDEST PUSH1 0x40 MLOAD DUP1 SWAP2 SUB SWAP1 REVERT JUMPDEST PUSH3 0x45A DUP2 PUSH1 0x0 DUP1 DUP6 PUSH20 0xFFFFFFFFFFFFFFFFFFFFFFFFFFFFFFFFFFFFFFFF AND PUSH20 0xFFFFFFFFFFFFFFFFFFFFFFFFFFFFFFFFFFFFFFFF AND DUP2 MSTORE PUSH1 0x20 ADD SWAP1 DUP2 MSTORE PUSH1 0x20 ADD PUSH1 0x0 KECCAK256 SLOAD PUSH3 0x508 PUSH1 0x20 SHL PUSH3 0xB12 OR SWAP1 SWAP2 SWAP1 PUSH1 0x20 SHR JUMP JUMPDEST PUSH1 0x0 DUP1 DUP5 PUSH20 0xFFFFFFFFFFFFFFFFFFFFFFFFFFFFFFFFFFFFFFFF AND PUSH20 0xFFFFFFFFFFFFFFFFFFFFFFFFFFFFFFFFFFFFFFFF AND DUP2 MSTORE PUSH1 0x20 ADD SWAP1 DUP2 MSTORE PUSH1 0x20 ADD PUSH1 0x0 KECCAK256 DUP2 SWAP1 SSTORE POP DUP2 PUSH20 0xFFFFFFFFFFFFFFFFFFFFFFFFFFFFFFFFFFFFFFFF AND PUSH1 0x0 PUSH20 0xFFFFFFFFFFFFFFFFFFFFFFFFFFFFFFFFFFFFFFFF AND PUSH32 0xDDF252AD1BE2C89B69C2B068FC378DAA952BA7F163C4A11628F55A4DF523B3EF DUP4 PUSH1 0x40 MLOAD PUSH3 0x4FC SWAP2 SWAP1 PUSH3 0x799 JUMP JUMPDEST PUSH1 0x40 MLOAD DUP1 SWAP2 SUB SWAP1 LOG3 POP POP JUMP JUMPDEST PUSH1 0x0 DUP1 DUP3 DUP5 PUSH3 0x519 SWAP2 SWAP1 PUSH3 0x7C7 JUMP JUMPDEST SWAP1 POP DUP4 DUP2 LT ISZERO PUSH3 0x561 JUMPI PUSH1 0x40 MLOAD PUSH32 0x8C379A000000000000000000000000000000000000000000000000000000000 DUP2 MSTORE PUSH1 0x4 ADD PUSH3 0x558 SWAP1 PUSH3 0x755 JUMP JUMPDEST PUSH1 0x40 MLOAD DUP1 SWAP2 SUB SWAP1 REVERT JUMPDEST DUP1 SWAP2 POP POP SWAP3 SWAP2 POP POP JUMP JUMPDEST DUP3 DUP1 SLOAD PUSH3 0x579 SWAP1 PUSH3 0x82E JUMP JUMPDEST SWAP1 PUSH1 0x0 MSTORE PUSH1 0x20 PUSH1 0x0 KECCAK256 SWAP1 PUSH1 0x1F ADD PUSH1 0x20 SWAP1 DIV DUP2 ADD SWAP3 DUP3 PUSH3 0x59D JUMPI PUSH1 0x0 DUP6 SSTORE PUSH3 0x5E9 JUMP JUMPDEST DUP3 PUSH1 0x1F LT PUSH3 0x5B8 JUMPI DUP1 MLOAD PUSH1 0xFF NOT AND DUP4 DUP1 ADD OR DUP6 SSTORE PUSH3 0x5E9 JUMP JUMPDEST DUP3 DUP1 ADD PUSH1 0x1 ADD DUP6 SSTORE DUP3 ISZERO PUSH3 0x5E9 JUMPI SWAP2 DUP3 ADD JUMPDEST DUP3 DUP2 GT ISZERO PUSH3 0x5E8 JUMPI DUP3 MLOAD DUP3 SSTORE SWAP2 PUSH1 0x20 ADD SWAP2 SWAP1 PUSH1 0x1 ADD SWAP1 PUSH3 0x5CB JUMP JUMPDEST JUMPDEST POP SWAP1 POP PUSH3 0x5F8 SWAP2 SWAP1 PUSH3 0x5FC JUMP JUMPDEST POP SWAP1 JUMP JUMPDEST JUMPDEST DUP1 DUP3 GT ISZERO PUSH3 0x617 JUMPI PUSH1 0x0 DUP2 PUSH1 0x0 SWAP1 SSTORE POP PUSH1 0x1 ADD PUSH3 0x5FD JUMP JUMPDEST POP SWAP1 JUMP JUMPDEST PUSH1 0x0 PUSH3 0x62A PUSH1 0x21 DUP4 PUSH3 0x7B6 JUMP JUMPDEST SWAP2 POP PUSH3 0x637 DUP3 PUSH3 0x8C2 JUMP JUMPDEST PUSH1 0x40 DUP3 ADD SWAP1 POP SWAP2 SWAP1 POP JUMP JUMPDEST PUSH1 0x0 PUSH3 0x651 PUSH1 0x29 DUP4 PUSH3 0x7B6 JUMP JUMPDEST SWAP2 POP PUSH3 0x65E DUP3 PUSH3 0x911 JUMP JUMPDEST PUSH1 0x40 DUP3 ADD SWAP1 POP SWAP2 SWAP1 POP JUMP JUMPDEST PUSH1 0x0 PUSH3 0x678 PUSH1 0x18 DUP4 PUSH3 0x7B6 JUMP JUMPDEST SWAP2 POP PUSH3 0x685 DUP3 PUSH3 0x960 JUMP JUMPDEST PUSH1 0x20 DUP3 ADD SWAP1 POP SWAP2 SWAP1 POP JUMP JUMPDEST PUSH1 0x0 PUSH3 0x69F PUSH1 0x23 DUP4 PUSH3 0x7B6 JUMP JUMPDEST SWAP2 POP PUSH3 0x6AC DUP3 PUSH3 0x989 JUMP JUMPDEST PUSH1 0x40 DUP3 ADD SWAP1 POP SWAP2 SWAP1 POP JUMP JUMPDEST PUSH1 0x0 PUSH3 0x6C6 PUSH1 0xD DUP4 PUSH3 0x7B6 JUMP JUMPDEST SWAP2 POP PUSH3 0x6D3 DUP3 PUSH3 0x9D8 JUMP JUMPDEST PUSH1 0x20 DUP3 ADD SWAP1 POP SWAP2 SWAP1 POP JUMP JUMPDEST PUSH3 0x6E9 DUP2 PUSH3 0x824 JUMP JUMPDEST DUP3 MSTORE POP POP JUMP JUMPDEST PUSH1 0x0 PUSH1 0x20 DUP3 ADD SWAP1 POP DUP2 DUP2 SUB PUSH1 0x0 DUP4 ADD MSTORE PUSH3 0x70A DUP2 PUSH3 0x61B JUMP JUMPDEST SWAP1 POP SWAP2 SWAP1 POP JUMP JUMPDEST PUSH1 0x0 PUSH1 0x20 DUP3 ADD SWAP1 POP DUP2 DUP2 SUB PUSH1 0x0 DUP4 ADD MSTORE PUSH3 0x72C DUP2 PUSH3 0x642 JUMP JUMPDEST SWAP1 POP SWAP2 SWAP1 POP JUMP JUMPDEST PUSH1 0x0 PUSH1 0x20 DUP3 ADD SWAP1 POP DUP2 DUP2 SUB PUSH1 0x0 DUP4 ADD MSTORE PUSH3 0x74E DUP2 PUSH3 0x669 JUMP JUMPDEST SWAP1 POP SWAP2 SWAP1 POP JUMP JUMPDEST PUSH1 0x0 PUSH1 0x20 DUP3 ADD SWAP1 POP DUP2 DUP2 SUB PUSH1 0x0 DUP4 ADD MSTORE PUSH3 0x770 DUP2 PUSH3 0x690 JUMP JUMPDEST SWAP1 POP SWAP2 SWAP1 POP JUMP JUMPDEST PUSH1 0x0 PUSH1 0x20 DUP3 ADD SWAP1 POP DUP2 DUP2 SUB PUSH1 0x0 DUP4 ADD MSTORE PUSH3 0x792 DUP2 PUSH3 0x6B7 JUMP JUMPDEST SWAP1 POP SWAP2 SWAP1 POP JUMP JUMPDEST PUSH1 0x0 PUSH1 0x20 DUP3 ADD SWAP1 POP PUSH3 0x7B0 PUSH1 0x0 DUP4 ADD DUP5 PUSH3 0x6DE JUMP JUMPDEST SWAP3 SWAP2 POP POP JUMP JUMPDEST PUSH1 0x0 DUP3 DUP3 MSTORE PUSH1 0x20 DUP3 ADD SWAP1 POP SWAP3 SWAP2 POP POP JUMP JUMPDEST PUSH1 0x0 PUSH3 0x7D4 DUP3 PUSH3 0x824 JUMP JUMPDEST SWAP2 POP PUSH3 0x7E1 DUP4 PUSH3 0x824 JUMP JUMPDEST SWAP3 POP DUP3 PUSH32 0xFFFFFFFFFFFFFFFFFFFFFFFFFFFFFFFFFFFFFFFFFFFFFFFFFFFFFFFFFFFFFFFF SUB DUP3 GT ISZERO PUSH3 0x819 JUMPI PUSH3 0x818 PUSH3 0x864 JUMP JUMPDEST JUMPDEST DUP3 DUP3 ADD SWAP1 POP SWAP3 SWAP2 POP POP JUMP JUMPDEST PUSH1 0x0 DUP2 SWAP1 POP SWAP2 SWAP1 POP JUMP JUMPDEST PUSH1 0x0 PUSH1 0x2 DUP3 DIV SWAP1 POP PUSH1 0x1 DUP3 AND DUP1 PUSH3 0x847 JUMPI PUSH1 0x7F DUP3 AND SWAP2 POP JUMPDEST PUSH1 0x20 DUP3 LT DUP2 EQ ISZERO PUSH3 0x85E JUMPI PUSH3 0x85D PUSH3 0x893 JUMP JUMPDEST JUMPDEST POP SWAP2 SWAP1 POP JUMP JUMPDEST PUSH32 0x4E487B7100000000000000000000000000000000000000000000000000000000 PUSH1 0x0 MSTORE PUSH1 0x11 PUSH1 0x4 MSTORE PUSH1 0x24 PUSH1 0x0 REVERT JUMPDEST PUSH32 0x4E487B7100000000000000000000000000000000000000000000000000000000 PUSH1 0x0 MSTORE PUSH1 0x22 PUSH1 0x4 MSTORE PUSH1 0x24 PUSH1 0x0 REVERT JUMPDEST PUSH32 0x45524332303A206167656E74652061206C6120646972656363696F6E20636572 PUSH1 0x0 DUP3 ADD MSTORE PUSH32 0x6F00000000000000000000000000000000000000000000000000000000000000 PUSH1 0x20 DUP3 ADD MSTORE POP JUMP JUMPDEST PUSH32 0x5F746F74616C537570706C7920706F72206578636564657220656C206C696D69 PUSH1 0x0 DUP3 ADD MSTORE PUSH32 0x7465206D6178696D6F0000000000000000000000000000000000000000000000 PUSH1 0x20 DUP3 ADD MSTORE POP JUMP JUMPDEST PUSH32 0x53696E207065726D69736F7320657370656369616C6573210000000000000000 PUSH1 0x0 DUP3 ADD MSTORE POP JUMP JUMPDEST PUSH32 0x536166654D6174683A20646573626F7264616D69656E746F20656E206C612073 PUSH1 0x0 DUP3 ADD MSTORE PUSH32 0x756D610000000000000000000000000000000000000000000000000000000000 PUSH1 0x20 DUP3 ADD MSTORE POP JUMP JUMPDEST PUSH32 0x53696E207065726D69736F732100000000000000000000000000000000000000 PUSH1 0x0 DUP3 ADD MSTORE POP JUMP JUMPDEST PUSH2 0x1E80 DUP1 PUSH3 0xA11 PUSH1 0x0 CODECOPY PUSH1 0x0 RETURN INVALID PUSH1 0x80 PUSH1 0x40 MSTORE CALLVALUE DUP1 ISZERO PUSH2 0x10 JUMPI PUSH1 0x0 DUP1 REVERT JUMPDEST POP PUSH1 0x4 CALLDATASIZE LT PUSH2 0x116 JUMPI PUSH1 0x0 CALLDATALOAD PUSH1 0xE0 SHR DUP1 PUSH4 0x42966C68 GT PUSH2 0xA2 JUMPI DUP1 PUSH4 0xA3E67610 GT PUSH2 0x71 JUMPI DUP1 PUSH4 0xA3E67610 EQ PUSH2 0x2DF JUMPI DUP1 PUSH4 0xA457C2D7 EQ PUSH2 0x2FD JUMPI DUP1 PUSH4 0xA9059CBB EQ PUSH2 0x32D JUMPI DUP1 PUSH4 0xDD62ED3E EQ PUSH2 0x35D JUMPI DUP1 PUSH4 0xF46ECCC4 EQ PUSH2 0x38D JUMPI PUSH2 0x116 JUMP JUMPDEST DUP1 PUSH4 0x42966C68 EQ PUSH2 0x259 JUMPI DUP1 PUSH4 0x70A08231 EQ PUSH2 0x275 JUMPI DUP1 PUSH4 0x95D89B41 EQ PUSH2 0x2A5 JUMPI DUP1 PUSH4 0x983B2D56 EQ PUSH2 0x2C3 JUMPI PUSH2 0x116 JUMP JUMPDEST DUP1 PUSH4 0x23B872DD GT PUSH2 0xE9 JUMPI DUP1 PUSH4 0x23B872DD EQ PUSH2 0x1A3 JUMPI DUP1 PUSH4 0x3092AFD5 EQ PUSH2 0x1D3 JUMPI DUP1 PUSH4 0x313CE567 EQ PUSH2 0x1EF JUMPI DUP1 PUSH4 0x39509351 EQ PUSH2 0x20D JUMPI DUP1 PUSH4 0x40C10F19 EQ PUSH2 0x23D JUMPI PUSH2 0x116 JUMP JUMPDEST DUP1 PUSH4 0x6FDDE03 EQ PUSH2 0x11B JUMPI DUP1 PUSH4 0x95EA7B3 EQ PUSH2 0x139 JUMPI DUP1 PUSH4 0x18160DDD EQ PUSH2 0x169 JUMPI DUP1 PUSH4 0x18E02BD9 EQ PUSH2 0x187 JUMPI JUMPDEST PUSH1 0x0 DUP1 REVERT JUMPDEST PUSH2 0x123 PUSH2 0x3BD JUMP JUMPDEST PUSH1 0x40 MLOAD PUSH2 0x130 SWAP2 SWAP1 PUSH2 0x172F JUMP JUMPDEST PUSH1 0x40 MLOAD DUP1 SWAP2 SUB SWAP1 RETURN JUMPDEST PUSH2 0x153 PUSH1 0x4 DUP1 CALLDATASIZE SUB DUP2 ADD SWAP1 PUSH2 0x14E SWAP2 SWAP1 PUSH2 0x14B9 JUMP JUMPDEST PUSH2 0x44F JUMP JUMPDEST PUSH1 0x40 MLOAD PUSH2 0x160 SWAP2 SWAP1 PUSH2 0x1714 JUMP JUMPDEST PUSH1 0x40 MLOAD DUP1 SWAP2 SUB SWAP1 RETURN JUMPDEST PUSH2 0x171 PUSH2 0x466 JUMP JUMPDEST PUSH1 0x40 MLOAD PUSH2 0x17E SWAP2 SWAP1 PUSH2 0x1891 JUMP JUMPDEST PUSH1 0x40 MLOAD DUP1 SWAP2 SUB SWAP1 RETURN JUMPDEST PUSH2 0x1A1 PUSH1 0x4 DUP1 CALLDATASIZE SUB DUP2 ADD SWAP1 PUSH2 0x19C SWAP2 SWAP1 PUSH2 0x13F9 JUMP JUMPDEST PUSH2 0x470 JUMP JUMPDEST STOP JUMPDEST PUSH2 0x1BD PUSH1 0x4 DUP1 CALLDATASIZE SUB DUP2 ADD SWAP1 PUSH2 0x1B8 SWAP2 SWAP1 PUSH2 0x1466 JUMP JUMPDEST PUSH2 0x544 JUMP JUMPDEST PUSH1 0x40 MLOAD PUSH2 0x1CA SWAP2 SWAP1 PUSH2 0x1714 JUMP JUMPDEST PUSH1 0x40 MLOAD DUP1 SWAP2 SUB SWAP1 RETURN JUMPDEST PUSH2 0x1ED PUSH1 0x4 DUP1 CALLDATASIZE SUB DUP2 ADD SWAP1 PUSH2 0x1E8 SWAP2 SWAP1 PUSH2 0x13F9 JUMP JUMPDEST PUSH2 0x55C JUMP JUMPDEST STOP JUMPDEST PUSH2 0x1F7 PUSH2 0x647 JUMP JUMPDEST PUSH1 0x40 MLOAD PUSH2 0x204 SWAP2 SWAP1 PUSH2 0x18AC JUMP JUMPDEST PUSH1 0x40 MLOAD DUP1 SWAP2 SUB SWAP1 RETURN JUMPDEST PUSH2 0x227 PUSH1 0x4 DUP1 CALLDATASIZE SUB DUP2 ADD SWAP1 PUSH2 0x222 SWAP2 SWAP1 PUSH2 0x14B9 JUMP JUMPDEST PUSH2 0x65E JUMP JUMPDEST PUSH1 0x40 MLOAD PUSH2 0x234 SWAP2 SWAP1 PUSH2 0x1714 JUMP JUMPDEST PUSH1 0x40 MLOAD DUP1 SWAP2 SUB SWAP1 RETURN JUMPDEST PUSH2 0x257 PUSH1 0x4 DUP1 CALLDATASIZE SUB DUP2 ADD SWAP1 PUSH2 0x252 SWAP2 SWAP1 PUSH2 0x14B9 JUMP JUMPDEST PUSH2 0x703 JUMP JUMPDEST STOP JUMPDEST PUSH2 0x273 PUSH1 0x4 DUP1 CALLDATASIZE SUB DUP2 ADD SWAP1 PUSH2 0x26E SWAP2 SWAP1 PUSH2 0x14F9 JUMP JUMPDEST PUSH2 0x79D JUMP JUMPDEST STOP JUMPDEST PUSH2 0x28F PUSH1 0x4 DUP1 CALLDATASIZE SUB DUP2 ADD SWAP1 PUSH2 0x28A SWAP2 SWAP1 PUSH2 0x13F9 JUMP JUMPDEST PUSH2 0x7AA JUMP JUMPDEST PUSH1 0x40 MLOAD PUSH2 0x29C SWAP2 SWAP1 PUSH2 0x1891 JUMP JUMPDEST PUSH1 0x40 MLOAD DUP1 SWAP2 SUB SWAP1 RETURN JUMPDEST PUSH2 0x2AD PUSH2 0x7F2 JUMP JUMPDEST PUSH1 0x40 MLOAD PUSH2 0x2BA SWAP2 SWAP1 PUSH2 0x172F JUMP JUMPDEST PUSH1 0x40 MLOAD DUP1 SWAP2 SUB SWAP1 RETURN JUMPDEST PUSH2 0x2DD PUSH1 0x4 DUP1 CALLDATASIZE SUB DUP2 ADD SWAP1 PUSH2 0x2D8 SWAP2 SWAP1 PUSH2 0x13F9 JUMP JUMPDEST PUSH2 0x884 JUMP JUMPDEST STOP JUMPDEST PUSH2 0x2E7 PUSH2 0x96F JUMP JUMPDEST PUSH1 0x40 MLOAD PUSH2 0x2F4 SWAP2 SWAP1 PUSH2 0x16F9 JUMP JUMPDEST PUSH1 0x40 MLOAD DUP1 SWAP2 SUB SWAP1 RETURN JUMPDEST PUSH2 0x317 PUSH1 0x4 DUP1 CALLDATASIZE SUB DUP2 ADD SWAP1 PUSH2 0x312 SWAP2 SWAP1 PUSH2 0x14B9 JUMP JUMPDEST PUSH2 0x995 JUMP JUMPDEST PUSH1 0x40 MLOAD PUSH2 0x324 SWAP2 SWAP1 PUSH2 0x1714 JUMP JUMPDEST PUSH1 0x40 MLOAD DUP1 SWAP2 SUB SWAP1 RETURN JUMPDEST PUSH2 0x347 PUSH1 0x4 DUP1 CALLDATASIZE SUB DUP2 ADD SWAP1 PUSH2 0x342 SWAP2 SWAP1 PUSH2 0x14B9 JUMP JUMPDEST PUSH2 0xA54 JUMP JUMPDEST PUSH1 0x40 MLOAD PUSH2 0x354 SWAP2 SWAP1 PUSH2 0x1714 JUMP JUMPDEST PUSH1 0x40 MLOAD DUP1 SWAP2 SUB SWAP1 RETURN JUMPDEST PUSH2 0x377 PUSH1 0x4 DUP1 CALLDATASIZE SUB DUP2 ADD SWAP1 PUSH2 0x372 SWAP2 SWAP1 PUSH2 0x1426 JUMP JUMPDEST PUSH2 0xA6B JUMP JUMPDEST PUSH1 0x40 MLOAD PUSH2 0x384 SWAP2 SWAP1 PUSH2 0x1891 JUMP JUMPDEST PUSH1 0x40 MLOAD DUP1 SWAP2 SUB SWAP1 RETURN JUMPDEST PUSH2 0x3A7 PUSH1 0x4 DUP1 CALLDATASIZE SUB DUP2 ADD SWAP1 PUSH2 0x3A2 SWAP2 SWAP1 PUSH2 0x13F9 JUMP JUMPDEST PUSH2 0xAF2 JUMP JUMPDEST PUSH1 0x40 MLOAD PUSH2 0x3B4 SWAP2 SWAP1 PUSH2 0x1714 JUMP JUMPDEST PUSH1 0x40 MLOAD DUP1 SWAP2 SUB SWAP1 RETURN JUMPDEST PUSH1 0x60 PUSH1 0x3 DUP1 SLOAD PUSH2 0x3CC SWAP1 PUSH2 0x19F5 JUMP JUMPDEST DUP1 PUSH1 0x1F ADD PUSH1 0x20 DUP1 SWAP2 DIV MUL PUSH1 0x20 ADD PUSH1 0x40 MLOAD SWAP1 DUP2 ADD PUSH1 0x40 MSTORE DUP1 SWAP3 SWAP2 SWAP1 DUP2 DUP2 MSTORE PUSH1 0x20 ADD DUP3 DUP1 SLOAD PUSH2 0x3F8 SWAP1 PUSH2 0x19F5 JUMP JUMPDEST DUP1 ISZERO PUSH2 0x445 JUMPI DUP1 PUSH1 0x1F LT PUSH2 0x41A JUMPI PUSH2 0x100 DUP1 DUP4 SLOAD DIV MUL DUP4 MSTORE SWAP2 PUSH1 0x20 ADD SWAP2 PUSH2 0x445 JUMP JUMPDEST DUP3 ADD SWAP2 SWAP1 PUSH1 0x0 MSTORE PUSH1 0x20 PUSH1 0x0 KECCAK256 SWAP1 JUMPDEST DUP2 SLOAD DUP2 MSTORE SWAP1 PUSH1 0x1 ADD SWAP1 PUSH1 0x20 ADD DUP1 DUP4 GT PUSH2 0x428 JUMPI DUP3 SWAP1 SUB PUSH1 0x1F AND DUP3 ADD SWAP2 JUMPDEST POP POP POP POP POP SWAP1 POP SWAP1 JUMP JUMPDEST PUSH1 0x0 PUSH2 0x45C CALLER DUP5 DUP5 PUSH2 0xB70 JUMP JUMPDEST PUSH1 0x1 SWAP1 POP SWAP3 SWAP2 POP POP JUMP JUMPDEST PUSH1 0x0 PUSH1 0x2 SLOAD SWAP1 POP SWAP1 JUMP JUMPDEST PUSH1 0x5 PUSH1 0x1 SWAP1 SLOAD SWAP1 PUSH2 0x100 EXP SWAP1 DIV PUSH20 0xFFFFFFFFFFFFFFFFFFFFFFFFFFFFFFFFFFFFFFFF AND PUSH20 0xFFFFFFFFFFFFFFFFFFFFFFFFFFFFFFFFFFFFFFFF AND CALLER PUSH20 0xFFFFFFFFFFFFFFFFFFFFFFFFFFFFFFFFFFFFFFFF AND EQ PUSH2 0x500 JUMPI PUSH1 0x40 MLOAD PUSH32 0x8C379A000000000000000000000000000000000000000000000000000000000 DUP2 MSTORE PUSH1 0x4 ADD PUSH2 0x4F7 SWAP1 PUSH2 0x1811 JUMP JUMPDEST PUSH1 0x40 MLOAD DUP1 SWAP2 SUB SWAP1 REVERT JUMPDEST DUP1 PUSH1 0x5 PUSH1 0x1 PUSH2 0x100 EXP DUP2 SLOAD DUP2 PUSH20 0xFFFFFFFFFFFFFFFFFFFFFFFFFFFFFFFFFFFFFFFF MUL NOT AND SWAP1 DUP4 PUSH20 0xFFFFFFFFFFFFFFFFFFFFFFFFFFFFFFFFFFFFFFFF AND MUL OR SWAP1 SSTORE POP POP JUMP JUMPDEST PUSH1 0x0 PUSH2 0x551 DUP5 DUP5 DUP5 PUSH2 0xD3B JUMP JUMPDEST PUSH1 0x1 SWAP1 POP SWAP4 SWAP3 POP POP POP JUMP JUMPDEST PUSH1 0x5 PUSH1 0x1 SWAP1 SLOAD SWAP1 PUSH2 0x100 EXP SWAP1 DIV PUSH20 0xFFFFFFFFFFFFFFFFFFFFFFFFFFFFFFFFFFFFFFFF AND PUSH20 0xFFFFFFFFFFFFFFFFFFFFFFFFFFFFFFFFFFFFFFFF AND CALLER PUSH20 0xFFFFFFFFFFFFFFFFFFFFFFFFFFFFFFFFFFFFFFFF AND EQ PUSH2 0x5EC JUMPI PUSH1 0x40 MLOAD PUSH32 0x8C379A000000000000000000000000000000000000000000000000000000000 DUP2 MSTORE PUSH1 0x4 ADD PUSH2 0x5E3 SWAP1 PUSH2 0x1811 JUMP JUMPDEST PUSH1 0x40 MLOAD DUP1 SWAP2 SUB SWAP1 REVERT JUMPDEST PUSH1 0x0 PUSH1 0x6 PUSH1 0x0 DUP4 PUSH20 0xFFFFFFFFFFFFFFFFFFFFFFFFFFFFFFFFFFFFFFFF AND PUSH20 0xFFFFFFFFFFFFFFFFFFFFFFFFFFFFFFFFFFFFFFFF AND DUP2 MSTORE PUSH1 0x20 ADD SWAP1 DUP2 MSTORE PUSH1 0x20 ADD PUSH1 0x0 KECCAK256 PUSH1 0x0 PUSH2 0x100 EXP DUP2 SLOAD DUP2 PUSH1 0xFF MUL NOT AND SWAP1 DUP4 ISZERO ISZERO MUL OR SWAP1 SSTORE POP POP JUMP JUMPDEST PUSH1 0x0 PUSH1 0x5 PUSH1 0x0 SWAP1 SLOAD SWAP1 PUSH2 0x100 EXP SWAP1 DIV PUSH1 0xFF AND SWAP1 POP SWAP1 JUMP JUMPDEST PUSH1 0x0 PUSH2 0x6F9 CALLER DUP5 PUSH2 0x6F4 DUP6 PUSH1 0x1 PUSH1 0x0 CALLER PUSH20 0xFFFFFFFFFFFFFFFFFFFFFFFFFFFFFFFFFFFFFFFF AND PUSH20 0xFFFFFFFFFFFFFFFFFFFFFFFFFFFFFFFFFFFFFFFF AND DUP2 MSTORE PUSH1 0x20 ADD SWAP1 DUP2 MSTORE PUSH1 0x20 ADD PUSH1 0x0 KECCAK256 PUSH1 0x0 DUP10 PUSH20 0xFFFFFFFFFFFFFFFFFFFFFFFFFFFFFFFFFFFFFFFF AND PUSH20 0xFFFFFFFFFFFFFFFFFFFFFFFFFFFFFFFFFFFFFFFF AND DUP2 MSTORE PUSH1 0x20 ADD SWAP1 DUP2 MSTORE PUSH1 0x20 ADD PUSH1 0x0 KECCAK256 SLOAD PUSH2 0xB12 SWAP1 SWAP2 SWAP1 PUSH4 0xFFFFFFFF AND JUMP JUMPDEST PUSH2 0xB70 JUMP JUMPDEST PUSH1 0x1 SWAP1 POP SWAP3 SWAP2 POP POP JUMP JUMPDEST PUSH1 0x6 PUSH1 0x0 CALLER PUSH20 0xFFFFFFFFFFFFFFFFFFFFFFFFFFFFFFFFFFFFFFFF AND PUSH20 0xFFFFFFFFFFFFFFFFFFFFFFFFFFFFFFFFFFFFFFFF AND DUP2 MSTORE PUSH1 0x20 ADD SWAP1 DUP2 MSTORE PUSH1 0x20 ADD PUSH1 0x0 KECCAK256 PUSH1 0x0 SWAP1 SLOAD SWAP1 PUSH2 0x100 EXP SWAP1 DIV PUSH1 0xFF AND PUSH2 0x78F JUMPI PUSH1 0x40 MLOAD PUSH32 0x8C379A000000000000000000000000000000000000000000000000000000000 DUP2 MSTORE PUSH1 0x4 ADD PUSH2 0x786 SWAP1 PUSH2 0x1871 JUMP JUMPDEST PUSH1 0x40 MLOAD DUP1 SWAP2 SUB SWAP1 REVERT JUMPDEST PUSH2 0x799 DUP3 DUP3 PUSH2 0xFC5 JUMP JUMPDEST POP POP JUMP JUMPDEST PUSH2 0x7A7 CALLER DUP3 PUSH2 0x119C JUMP JUMPDEST POP JUMP JUMPDEST PUSH1 0x0 DUP1 PUSH1 0x0 DUP4 PUSH20 0xFFFFFFFFFFFFFFFFFFFFFFFFFFFFFFFFFFFFFFFF AND PUSH20 0xFFFFFFFFFFFFFFFFFFFFFFFFFFFFFFFFFFFFFFFF AND DUP2 MSTORE PUSH1 0x20 ADD SWAP1 DUP2 MSTORE PUSH1 0x20 ADD PUSH1 0x0 KECCAK256 SLOAD SWAP1 POP SWAP2 SWAP1 POP JUMP JUMPDEST PUSH1 0x60 PUSH1 0x4 DUP1 SLOAD PUSH2 0x801 SWAP1 PUSH2 0x19F5 JUMP JUMPDEST DUP1 PUSH1 0x1F ADD PUSH1 0x20 DUP1 SWAP2 DIV MUL PUSH1 0x20 ADD PUSH1 0x40 MLOAD SWAP1 DUP2 ADD PUSH1 0x40 MSTORE DUP1 SWAP3 SWAP2 SWAP1 DUP2 DUP2 MSTORE PUSH1 0x20 ADD DUP3 DUP1 SLOAD PUSH2 0x82D SWAP1 PUSH2 0x19F5 JUMP JUMPDEST DUP1 ISZERO PUSH2 0x87A JUMPI DUP1 PUSH1 0x1F LT PUSH2 0x84F JUMPI PUSH2 0x100 DUP1 DUP4 SLOAD DIV MUL DUP4 MSTORE SWAP2 PUSH1 0x20 ADD SWAP2 PUSH2 0x87A JUMP JUMPDEST DUP3 ADD SWAP2 SWAP1 PUSH1 0x0 MSTORE PUSH1 0x20 PUSH1 0x0 KECCAK256 SWAP1 JUMPDEST DUP2 SLOAD DUP2 MSTORE SWAP1 PUSH1 0x1 ADD SWAP1 PUSH1 0x20 ADD DUP1 DUP4 GT PUSH2 0x85D JUMPI DUP3 SWAP1 SUB PUSH1 0x1F AND DUP3 ADD SWAP2 JUMPDEST POP POP POP POP POP SWAP1 POP SWAP1 JUMP JUMPDEST PUSH1 0x5 PUSH1 0x1 SWAP1 SLOAD SWAP1 PUSH2 0x100 EXP SWAP1 DIV PUSH20 0xFFFFFFFFFFFFFFFFFFFFFFFFFFFFFFFFFFFFFFFF AND PUSH20 0xFFFFFFFFFFFFFFFFFFFFFFFFFFFFFFFFFFFFFFFF AND CALLER PUSH20 0xFFFFFFFFFFFFFFFFFFFFFFFFFFFFFFFFFFFFFFFF AND EQ PUSH2 0x914 JUMPI PUSH1 0x40 MLOAD PUSH32 0x8C379A000000000000000000000000000000000000000000000000000000000 DUP2 MSTORE PUSH1 0x4 ADD PUSH2 0x90B SWAP1 PUSH2 0x1811 JUMP JUMPDEST PUSH1 0x40 MLOAD DUP1 SWAP2 SUB SWAP1 REVERT JUMPDEST PUSH1 0x1 PUSH1 0x6 PUSH1 0x0 DUP4 PUSH20 0xFFFFFFFFFFFFFFFFFFFFFFFFFFFFFFFFFFFFFFFF AND PUSH20 0xFFFFFFFFFFFFFFFFFFFFFFFFFFFFFFFFFFFFFFFF AND DUP2 MSTORE PUSH1 0x20 ADD SWAP1 DUP2 MSTORE PUSH1 0x20 ADD PUSH1 0x0 KECCAK256 PUSH1 0x0 PUSH2 0x100 EXP DUP2 SLOAD DUP2 PUSH1 0xFF MUL NOT AND SWAP1 DUP4 ISZERO ISZERO MUL OR SWAP1 SSTORE POP POP JUMP JUMPDEST PUSH1 0x5 PUSH1 0x1 SWAP1 SLOAD SWAP1 PUSH2 0x100 EXP SWAP1 DIV PUSH20 0xFFFFFFFFFFFFFFFFFFFFFFFFFFFFFFFFFFFFFFFF AND DUP2 JUMP JUMPDEST PUSH1 0x0 PUSH2 0xA4A CALLER DUP5 PUSH2 0xA45 DUP6 PUSH1 0x40 MLOAD DUP1 PUSH1 0x60 ADD PUSH1 0x40 MSTORE DUP1 PUSH1 0x36 DUP2 MSTORE PUSH1 0x20 ADD PUSH2 0x1D94 PUSH1 0x36 SWAP2 CODECOPY PUSH1 0x1 PUSH1 0x0 CALLER PUSH20 0xFFFFFFFFFFFFFFFFFFFFFFFFFFFFFFFFFFFFFFFF AND PUSH20 0xFFFFFFFFFFFFFFFFFFFFFFFFFFFFFFFFFFFFFFFF AND DUP2 MSTORE PUSH1 0x20 ADD SWAP1 DUP2 MSTORE PUSH1 0x20 ADD PUSH1 0x0 KECCAK256 PUSH1 0x0 DUP11 PUSH20 0xFFFFFFFFFFFFFFFFFFFFFFFFFFFFFFFFFFFFFFFF AND PUSH20 0xFFFFFFFFFFFFFFFFFFFFFFFFFFFFFFFFFFFFFFFF AND DUP2 MSTORE PUSH1 0x20 ADD SWAP1 DUP2 MSTORE PUSH1 0x20 ADD PUSH1 0x0 KECCAK256 SLOAD PUSH2 0x133E SWAP1 SWAP3 SWAP2 SWAP1 PUSH4 0xFFFFFFFF AND JUMP JUMPDEST PUSH2 0xB70 JUMP JUMPDEST PUSH1 0x1 SWAP1 POP SWAP3 SWAP2 POP POP JUMP JUMPDEST PUSH1 0x0 PUSH2 0xA61 CALLER DUP5 DUP5 PUSH2 0xD3B JUMP JUMPDEST PUSH1 0x1 SWAP1 POP SWAP3 SWAP2 POP POP JUMP JUMPDEST PUSH1 0x0 PUSH1 0x1 PUSH1 0x0 DUP5 PUSH20 0xFFFFFFFFFFFFFFFFFFFFFFFFFFFFFFFFFFFFFFFF AND PUSH20 0xFFFFFFFFFFFFFFFFFFFFFFFFFFFFFFFFFFFFFFFF AND DUP2 MSTORE PUSH1 0x20 ADD SWAP1 DUP2 MSTORE PUSH1 0x20 ADD PUSH1 0x0 KECCAK256 PUSH1 0x0 DUP4 PUSH20 0xFFFFFFFFFFFFFFFFFFFFFFFFFFFFFFFFFFFFFFFF AND PUSH20 0xFFFFFFFFFFFFFFFFFFFFFFFFFFFFFFFFFFFFFFFF AND DUP2 MSTORE PUSH1 0x20 ADD SWAP1 DUP2 MSTORE PUSH1 0x20 ADD PUSH1 0x0 KECCAK256 SLOAD SWAP1 POP SWAP3 SWAP2 POP POP JUMP JUMPDEST PUSH1 0x6 PUSH1 0x20 MSTORE DUP1 PUSH1 0x0 MSTORE PUSH1 0x40 PUSH1 0x0 KECCAK256 PUSH1 0x0 SWAP2 POP SLOAD SWAP1 PUSH2 0x100 EXP SWAP1 DIV PUSH1 0xFF AND DUP2 JUMP JUMPDEST PUSH1 0x0 DUP1 DUP3 DUP5 PUSH2 0xB21 SWAP2 SWAP1 PUSH2 0x18E3 JUMP JUMPDEST SWAP1 POP DUP4 DUP2 LT ISZERO PUSH2 0xB66 JUMPI PUSH1 0x40 MLOAD PUSH32 0x8C379A000000000000000000000000000000000000000000000000000000000 DUP2 MSTORE PUSH1 0x4 ADD PUSH2 0xB5D SWAP1 PUSH2 0x1831 JUMP JUMPDEST PUSH1 0x40 MLOAD DUP1 SWAP2 SUB SWAP1 REVERT JUMPDEST DUP1 SWAP2 POP POP SWAP3 SWAP2 POP POP JUMP JUMPDEST PUSH1 0x0 PUSH20 0xFFFFFFFFFFFFFFFFFFFFFFFFFFFFFFFFFFFFFFFF AND DUP4 PUSH20 0xFFFFFFFFFFFFFFFFFFFFFFFFFFFFFFFFFFFFFFFF AND EQ ISZERO PUSH2 0xBE0 JUMPI PUSH1 0x40 MLOAD PUSH32 0x8C379A000000000000000000000000000000000000000000000000000000000 DUP2 MSTORE PUSH1 0x4 ADD PUSH2 0xBD7 SWAP1 PUSH2 0x1771 JUMP JUMPDEST PUSH1 0x40 MLOAD DUP1 SWAP2 SUB SWAP1 REVERT JUMPDEST PUSH1 0x0 PUSH20 0xFFFFFFFFFFFFFFFFFFFFFFFFFFFFFFFFFFFFFFFF AND DUP3 PUSH20 0xFFFFFFFFFFFFFFFFFFFFFFFFFFFFFFFFFFFFFFFF AND EQ ISZERO PUSH2 0xC50 JUMPI PUSH1 0x40 MLOAD PUSH32 0x8C379A000000000000000000000000000000000000000000000000000000000 DUP2 MSTORE PUSH1 0x4 ADD PUSH2 0xC47 SWAP1 PUSH2 0x1851 JUMP JUMPDEST PUSH1 0x40 MLOAD DUP1 SWAP2 SUB SWAP1 REVERT JUMPDEST DUP1 PUSH1 0x1 PUSH1 0x0 DUP6 PUSH20 0xFFFFFFFFFFFFFFFFFFFFFFFFFFFFFFFFFFFFFFFF AND PUSH20 0xFFFFFFFFFFFFFFFFFFFFFFFFFFFFFFFFFFFFFFFF AND DUP2 MSTORE PUSH1 0x20 ADD SWAP1 DUP2 MSTORE PUSH1 0x20 ADD PUSH1 0x0 KECCAK256 PUSH1 0x0 DUP5 PUSH20 0xFFFFFFFFFFFFFFFFFFFFFFFFFFFFFFFFFFFFFFFF AND PUSH20 0xFFFFFFFFFFFFFFFFFFFFFFFFFFFFFFFFFFFFFFFF AND DUP2 MSTORE PUSH1 0x20 ADD SWAP1 DUP2 MSTORE PUSH1 0x20 ADD PUSH1 0x0 KECCAK256 DUP2 SWAP1 SSTORE POP DUP2 PUSH20 0xFFFFFFFFFFFFFFFFFFFFFFFFFFFFFFFFFFFFFFFF AND DUP4 PUSH20 0xFFFFFFFFFFFFFFFFFFFFFFFFFFFFFFFFFFFFFFFF AND PUSH32 0x8C5BE1E5EBEC7D5BD14F71427D1E84F3DD0314C0F7B2291E5B200AC8C7C3B925 DUP4 PUSH1 0x40 MLOAD PUSH2 0xD2E SWAP2 SWAP1 PUSH2 0x1891 JUMP JUMPDEST PUSH1 0x40 MLOAD DUP1 SWAP2 SUB SWAP1 LOG3 POP POP POP JUMP JUMPDEST PUSH1 0x0 PUSH20 0xFFFFFFFFFFFFFFFFFFFFFFFFFFFFFFFFFFFFFFFF AND DUP4 PUSH20 0xFFFFFFFFFFFFFFFFFFFFFFFFFFFFFFFFFFFFFFFF AND EQ ISZERO PUSH2 0xDAB JUMPI PUSH1 0x40 MLOAD PUSH32 0x8C379A000000000000000000000000000000000000000000000000000000000 DUP2 MSTORE PUSH1 0x4 ADD PUSH2 0xDA2 SWAP1 PUSH2 0x17B1 JUMP JUMPDEST PUSH1 0x40 MLOAD DUP1 SWAP2 SUB SWAP1 REVERT JUMPDEST PUSH1 0x0 PUSH20 0xFFFFFFFFFFFFFFFFFFFFFFFFFFFFFFFFFFFFFFFF AND DUP3 PUSH20 0xFFFFFFFFFFFFFFFFFFFFFFFFFFFFFFFFFFFFFFFF AND EQ ISZERO PUSH2 0xE1B JUMPI PUSH1 0x40 MLOAD PUSH32 0x8C379A000000000000000000000000000000000000000000000000000000000 DUP2 MSTORE PUSH1 0x4 ADD PUSH2 0xE12 SWAP1 PUSH2 0x1791 JUMP JUMPDEST PUSH1 0x40 MLOAD DUP1 SWAP2 SUB SWAP1 REVERT JUMPDEST PUSH2 0xE86 DUP2 PUSH1 0x40 MLOAD DUP1 PUSH1 0x60 ADD PUSH1 0x40 MSTORE DUP1 PUSH1 0x33 DUP2 MSTORE PUSH1 0x20 ADD PUSH2 0x1E18 PUSH1 0x33 SWAP2 CODECOPY PUSH1 0x0 DUP1 DUP8 PUSH20 0xFFFFFFFFFFFFFFFFFFFFFFFFFFFFFFFFFFFFFFFF AND PUSH20 0xFFFFFFFFFFFFFFFFFFFFFFFFFFFFFFFFFFFFFFFF AND DUP2 MSTORE PUSH1 0x20 ADD SWAP1 DUP2 MSTORE PUSH1 0x20 ADD PUSH1 0x0 KECCAK256 SLOAD PUSH2 0x133E SWAP1 SWAP3 SWAP2 SWAP1 PUSH4 0xFFFFFFFF AND JUMP JUMPDEST PUSH1 0x0 DUP1 DUP6 PUSH20 0xFFFFFFFFFFFFFFFFFFFFFFFFFFFFFFFFFFFFFFFF AND PUSH20 0xFFFFFFFFFFFFFFFFFFFFFFFFFFFFFFFFFFFFFFFF AND DUP2 MSTORE PUSH1 0x20 ADD SWAP1 DUP2 MSTORE PUSH1 0x20 ADD PUSH1 0x0 KECCAK256 DUP2 SWAP1 SSTORE POP PUSH2 0xF19 DUP2 PUSH1 0x0 DUP1 DUP6 PUSH20 0xFFFFFFFFFFFFFFFFFFFFFFFFFFFFFFFFFFFFFFFF AND PUSH20 0xFFFFFFFFFFFFFFFFFFFFFFFFFFFFFFFFFFFFFFFF AND DUP2 MSTORE PUSH1 0x20 ADD SWAP1 DUP2 MSTORE PUSH1 0x20 ADD PUSH1 0x0 KECCAK256 SLOAD PUSH2 0xB12 SWAP1 SWAP2 SWAP1 PUSH4 0xFFFFFFFF AND JUMP JUMPDEST PUSH1 0x0 DUP1 DUP5 PUSH20 0xFFFFFFFFFFFFFFFFFFFFFFFFFFFFFFFFFFFFFFFF AND PUSH20 0xFFFFFFFFFFFFFFFFFFFFFFFFFFFFFFFFFFFFFFFF AND DUP2 MSTORE PUSH1 0x20 ADD SWAP1 DUP2 MSTORE PUSH1 0x20 ADD PUSH1 0x0 KECCAK256 DUP2 SWAP1 SSTORE POP DUP2 PUSH20 0xFFFFFFFFFFFFFFFFFFFFFFFFFFFFFFFFFFFFFFFF AND DUP4 PUSH20 0xFFFFFFFFFFFFFFFFFFFFFFFFFFFFFFFFFFFFFFFF AND PUSH32 0xDDF252AD1BE2C89B69C2B068FC378DAA952BA7F163C4A11628F55A4DF523B3EF DUP4 PUSH1 0x40 MLOAD PUSH2 0xFB8 SWAP2 SWAP1 PUSH2 0x1891 JUMP JUMPDEST PUSH1 0x40 MLOAD DUP1 SWAP2 SUB SWAP1 LOG3 POP POP POP JUMP JUMPDEST PUSH1 0x0 PUSH20 0xFFFFFFFFFFFFFFFFFFFFFFFFFFFFFFFFFFFFFFFF AND DUP3 PUSH20 0xFFFFFFFFFFFFFFFFFFFFFFFFFFFFFFFFFFFFFFFF AND EQ ISZERO PUSH2 0x1035 JUMPI PUSH1 0x40 MLOAD PUSH32 0x8C379A000000000000000000000000000000000000000000000000000000000 DUP2 MSTORE PUSH1 0x4 ADD PUSH2 0x102C SWAP1 PUSH2 0x1751 JUMP JUMPDEST PUSH1 0x40 MLOAD DUP1 SWAP2 SUB SWAP1 REVERT JUMPDEST PUSH2 0x104A DUP2 PUSH1 0x2 SLOAD PUSH2 0xB12 SWAP1 SWAP2 SWAP1 PUSH4 0xFFFFFFFF AND JUMP JUMPDEST PUSH1 0x2 DUP2 SWAP1 SSTORE POP PUSH10 0xD3C21BCECCEDA1000000 PUSH1 0x2 SLOAD GT ISZERO PUSH2 0x109F JUMPI PUSH1 0x40 MLOAD PUSH32 0x8C379A000000000000000000000000000000000000000000000000000000000 DUP2 MSTORE PUSH1 0x4 ADD PUSH2 0x1096 SWAP1 PUSH2 0x17F1 JUMP JUMPDEST PUSH1 0x40 MLOAD DUP1 SWAP2 SUB SWAP1 REVERT JUMPDEST PUSH2 0x10F0 DUP2 PUSH1 0x0 DUP1 DUP6 PUSH20 0xFFFFFFFFFFFFFFFFFFFFFFFFFFFFFFFFFFFFFFFF AND PUSH20 0xFFFFFFFFFFFFFFFFFFFFFFFFFFFFFFFFFFFFFFFF AND DUP2 MSTORE PUSH1 0x20 ADD SWAP1 DUP2 MSTORE PUSH1 0x20 ADD PUSH1 0x0 KECCAK256 SLOAD PUSH2 0xB12 SWAP1 SWAP2 SWAP1 PUSH4 0xFFFFFFFF AND JUMP JUMPDEST PUSH1 0x0 DUP1 DUP5 PUSH20 0xFFFFFFFFFFFFFFFFFFFFFFFFFFFFFFFFFFFFFFFF AND PUSH20 0xFFFFFFFFFFFFFFFFFFFFFFFFFFFFFFFFFFFFFFFF AND DUP2 MSTORE PUSH1 0x20 ADD SWAP1 DUP2 MSTORE PUSH1 0x20 ADD PUSH1 0x0 KECCAK256 DUP2 SWAP1 SSTORE POP DUP2 PUSH20 0xFFFFFFFFFFFFFFFFFFFFFFFFFFFFFFFFFFFFFFFF AND PUSH1 0x0 PUSH20 0xFFFFFFFFFFFFFFFFFFFFFFFFFFFFFFFFFFFFFFFF AND PUSH32 0xDDF252AD1BE2C89B69C2B068FC378DAA952BA7F163C4A11628F55A4DF523B3EF DUP4 PUSH1 0x40 MLOAD PUSH2 0x1190 SWAP2 SWAP1 PUSH2 0x1891 JUMP JUMPDEST PUSH1 0x40 MLOAD DUP1 SWAP2 SUB SWAP1 LOG3 POP POP JUMP JUMPDEST PUSH1 0x0 PUSH20 0xFFFFFFFFFFFFFFFFFFFFFFFFFFFFFFFFFFFFFFFF AND DUP3 PUSH20 0xFFFFFFFFFFFFFFFFFFFFFFFFFFFFFFFFFFFFFFFF AND EQ ISZERO PUSH2 0x120C JUMPI PUSH1 0x40 MLOAD PUSH32 0x8C379A000000000000000000000000000000000000000000000000000000000 DUP2 MSTORE PUSH1 0x4 ADD PUSH2 0x1203 SWAP1 PUSH2 0x17D1 JUMP JUMPDEST PUSH1 0x40 MLOAD DUP1 SWAP2 SUB SWAP1 REVERT JUMPDEST PUSH2 0x1277 DUP2 PUSH1 0x40 MLOAD DUP1 PUSH1 0x60 ADD PUSH1 0x40 MSTORE DUP1 PUSH1 0x2A DUP2 MSTORE PUSH1 0x20 ADD PUSH2 0x1DEE PUSH1 0x2A SWAP2 CODECOPY PUSH1 0x0 DUP1 DUP7 PUSH20 0xFFFFFFFFFFFFFFFFFFFFFFFFFFFFFFFFFFFFFFFF AND PUSH20 0xFFFFFFFFFFFFFFFFFFFFFFFFFFFFFFFFFFFFFFFF AND DUP2 MSTORE PUSH1 0x20 ADD SWAP1 DUP2 MSTORE PUSH1 0x20 ADD PUSH1 0x0 KECCAK256 SLOAD PUSH2 0x133E SWAP1 SWAP3 SWAP2 SWAP1 PUSH4 0xFFFFFFFF AND JUMP JUMPDEST PUSH1 0x0 DUP1 DUP5 PUSH20 0xFFFFFFFFFFFFFFFFFFFFFFFFFFFFFFFFFFFFFFFF AND PUSH20 0xFFFFFFFFFFFFFFFFFFFFFFFFFFFFFFFFFFFFFFFF AND DUP2 MSTORE PUSH1 0x20 ADD SWAP1 DUP2 MSTORE PUSH1 0x20 ADD PUSH1 0x0 KECCAK256 DUP2 SWAP1 SSTORE POP PUSH2 0x12CE DUP2 PUSH1 0x2 SLOAD PUSH2 0x13A2 SWAP1 SWAP2 SWAP1 PUSH4 0xFFFFFFFF AND JUMP JUMPDEST PUSH1 0x2 DUP2 SWAP1 SSTORE POP PUSH1 0x0 PUSH20 0xFFFFFFFFFFFFFFFFFFFFFFFFFFFFFFFFFFFFFFFF AND DUP3 PUSH20 0xFFFFFFFFFFFFFFFFFFFFFFFFFFFFFFFFFFFFFFFF AND PUSH32 0xDDF252AD1BE2C89B69C2B068FC378DAA952BA7F163C4A11628F55A4DF523B3EF DUP4 PUSH1 0x40 MLOAD PUSH2 0x1332 SWAP2 SWAP1 PUSH2 0x1891 JUMP JUMPDEST PUSH1 0x40 MLOAD DUP1 SWAP2 SUB SWAP1 LOG3 POP POP JUMP JUMPDEST PUSH1 0x0 DUP4 DUP4 GT ISZERO DUP3 SWAP1 PUSH2 0x1386 JUMPI PUSH1 0x40 MLOAD PUSH32 0x8C379A000000000000000000000000000000000000000000000000000000000 DUP2 MSTORE PUSH1 0x4 ADD PUSH2 0x137D SWAP2 SWAP1 PUSH2 0x172F JUMP JUMPDEST PUSH1 0x40 MLOAD DUP1 SWAP2 SUB SWAP1 REVERT JUMPDEST POP PUSH1 0x0 DUP4 DUP6 PUSH2 0x1395 SWAP2 SWAP1 PUSH2 0x1939 JUMP JUMPDEST SWAP1 POP DUP1 SWAP2 POP POP SWAP4 SWAP3 POP POP POP JUMP JUMPDEST PUSH1 0x0 PUSH2 0x13C7 DUP4 DUP4 PUSH1 0x40 MLOAD DUP1 PUSH1 0x60 ADD PUSH1 0x40 MSTORE DUP1 PUSH1 0x24 DUP2 MSTORE PUSH1 0x20 ADD PUSH2 0x1DCA PUSH1 0x24 SWAP2 CODECOPY PUSH2 0x133E JUMP JUMPDEST SWAP1 POP SWAP3 SWAP2 POP POP JUMP JUMPDEST PUSH1 0x0 DUP2 CALLDATALOAD SWAP1 POP PUSH2 0x13DE DUP2 PUSH2 0x1D65 JUMP JUMPDEST SWAP3 SWAP2 POP POP JUMP JUMPDEST PUSH1 0x0 DUP2 CALLDATALOAD SWAP1 POP PUSH2 0x13F3 DUP2 PUSH2 0x1D7C JUMP JUMPDEST SWAP3 SWAP2 POP POP JUMP JUMPDEST PUSH1 0x0 PUSH1 0x20 DUP3 DUP5 SUB SLT ISZERO PUSH2 0x140F JUMPI PUSH2 0x140E PUSH2 0x1A85 JUMP JUMPDEST JUMPDEST PUSH1 0x0 PUSH2 0x141D DUP5 DUP3 DUP6 ADD PUSH2 0x13CF JUMP JUMPDEST SWAP2 POP POP SWAP3 SWAP2 POP POP JUMP JUMPDEST PUSH1 0x0 DUP1 PUSH1 0x40 DUP4 DUP6 SUB SLT ISZERO PUSH2 0x143D JUMPI PUSH2 0x143C PUSH2 0x1A85 JUMP JUMPDEST JUMPDEST PUSH1 0x0 PUSH2 0x144B DUP6 DUP3 DUP7 ADD PUSH2 0x13CF JUMP JUMPDEST SWAP3 POP POP PUSH1 0x20 PUSH2 0x145C DUP6 DUP3 DUP7 ADD PUSH2 0x13CF JUMP JUMPDEST SWAP2 POP POP SWAP3 POP SWAP3 SWAP1 POP JUMP JUMPDEST PUSH1 0x0 DUP1 PUSH1 0x0 PUSH1 0x60 DUP5 DUP7 SUB SLT ISZERO PUSH2 0x147F JUMPI PUSH2 0x147E PUSH2 0x1A85 JUMP JUMPDEST JUMPDEST PUSH1 0x0 PUSH2 0x148D DUP7 DUP3 DUP8 ADD PUSH2 0x13CF JUMP JUMPDEST SWAP4 POP POP PUSH1 0x20 PUSH2 0x149E DUP7 DUP3 DUP8 ADD PUSH2 0x13CF JUMP JUMPDEST SWAP3 POP POP PUSH1 0x40 PUSH2 0x14AF DUP7 DUP3 DUP8 ADD PUSH2 0x13E4 JUMP JUMPDEST SWAP2 POP POP SWAP3 POP SWAP3 POP SWAP3 JUMP JUMPDEST PUSH1 0x0 DUP1 PUSH1 0x40 DUP4 DUP6 SUB SLT ISZERO PUSH2 0x14D0 JUMPI PUSH2 0x14CF PUSH2 0x1A85 JUMP JUMPDEST JUMPDEST PUSH1 0x0 PUSH2 0x14DE DUP6 DUP3 DUP7 ADD PUSH2 0x13CF JUMP JUMPDEST SWAP3 POP POP PUSH1 0x20 PUSH2 0x14EF DUP6 DUP3 DUP7 ADD PUSH2 0x13E4 JUMP JUMPDEST SWAP2 POP POP SWAP3 POP SWAP3 SWAP1 POP JUMP JUMPDEST PUSH1 0x0 PUSH1 0x20 DUP3 DUP5 SUB SLT ISZERO PUSH2 0x150F JUMPI PUSH2 0x150E PUSH2 0x1A85 JUMP JUMPDEST JUMPDEST PUSH1 0x0 PUSH2 0x151D DUP5 DUP3 DUP6 ADD PUSH2 0x13E4 JUMP JUMPDEST SWAP2 POP POP SWAP3 SWAP2 POP POP JUMP JUMPDEST PUSH2 0x152F DUP2 PUSH2 0x196D JUMP JUMPDEST DUP3 MSTORE POP POP JUMP JUMPDEST PUSH2 0x153E DUP2 PUSH2 0x197F JUMP JUMPDEST DUP3 MSTORE POP POP JUMP JUMPDEST PUSH1 0x0 PUSH2 0x154F DUP3 PUSH2 0x18C7 JUMP JUMPDEST PUSH2 0x1559 DUP2 DUP6 PUSH2 0x18D2 JUMP JUMPDEST SWAP4 POP PUSH2 0x1569 DUP2 DUP6 PUSH1 0x20 DUP7 ADD PUSH2 0x19C2 JUMP JUMPDEST PUSH2 0x1572 DUP2 PUSH2 0x1A8A JUMP JUMPDEST DUP5 ADD SWAP2 POP POP SWAP3 SWAP2 POP POP JUMP JUMPDEST PUSH1 0x0 PUSH2 0x158A PUSH1 0x21 DUP4 PUSH2 0x18D2 JUMP JUMPDEST SWAP2 POP PUSH2 0x1595 DUP3 PUSH2 0x1A9B JUMP JUMPDEST PUSH1 0x40 DUP3 ADD SWAP1 POP SWAP2 SWAP1 POP JUMP JUMPDEST PUSH1 0x0 PUSH2 0x15AD PUSH1 0x26 DUP4 PUSH2 0x18D2 JUMP JUMPDEST SWAP2 POP PUSH2 0x15B8 DUP3 PUSH2 0x1AEA JUMP JUMPDEST PUSH1 0x40 DUP3 ADD SWAP1 POP SWAP2 SWAP1 POP JUMP JUMPDEST PUSH1 0x0 PUSH2 0x15D0 PUSH1 0x25 DUP4 PUSH2 0x18D2 JUMP JUMPDEST SWAP2 POP PUSH2 0x15DB DUP3 PUSH2 0x1B39 JUMP JUMPDEST PUSH1 0x40 DUP3 ADD SWAP1 POP SWAP2 SWAP1 POP JUMP JUMPDEST PUSH1 0x0 PUSH2 0x15F3 PUSH1 0x2C DUP4 PUSH2 0x18D2 JUMP JUMPDEST SWAP2 POP PUSH2 0x15FE DUP3 PUSH2 0x1B88 JUMP JUMPDEST PUSH1 0x40 DUP3 ADD SWAP1 POP SWAP2 SWAP1 POP JUMP JUMPDEST PUSH1 0x0 PUSH2 0x1616 PUSH1 0x25 DUP4 PUSH2 0x18D2 JUMP JUMPDEST SWAP2 POP PUSH2 0x1621 DUP3 PUSH2 0x1BD7 JUMP JUMPDEST PUSH1 0x40 DUP3 ADD SWAP1 POP SWAP2 SWAP1 POP JUMP JUMPDEST PUSH1 0x0 PUSH2 0x1639 PUSH1 0x29 DUP4 PUSH2 0x18D2 JUMP JUMPDEST SWAP2 POP PUSH2 0x1644 DUP3 PUSH2 0x1C26 JUMP JUMPDEST PUSH1 0x40 DUP3 ADD SWAP1 POP SWAP2 SWAP1 POP JUMP JUMPDEST PUSH1 0x0 PUSH2 0x165C PUSH1 0x18 DUP4 PUSH2 0x18D2 JUMP JUMPDEST SWAP2 POP PUSH2 0x1667 DUP3 PUSH2 0x1C75 JUMP JUMPDEST PUSH1 0x20 DUP3 ADD SWAP1 POP SWAP2 SWAP1 POP JUMP JUMPDEST PUSH1 0x0 PUSH2 0x167F PUSH1 0x23 DUP4 PUSH2 0x18D2 JUMP JUMPDEST SWAP2 POP PUSH2 0x168A DUP3 PUSH2 0x1C9E JUMP JUMPDEST PUSH1 0x40 DUP3 ADD SWAP1 POP SWAP2 SWAP1 POP JUMP JUMPDEST PUSH1 0x0 PUSH2 0x16A2 PUSH1 0x22 DUP4 PUSH2 0x18D2 JUMP JUMPDEST SWAP2 POP PUSH2 0x16AD DUP3 PUSH2 0x1CED JUMP JUMPDEST PUSH1 0x40 DUP3 ADD SWAP1 POP SWAP2 SWAP1 POP JUMP JUMPDEST PUSH1 0x0 PUSH2 0x16C5 PUSH1 0xD DUP4 PUSH2 0x18D2 JUMP JUMPDEST SWAP2 POP PUSH2 0x16D0 DUP3 PUSH2 0x1D3C JUMP JUMPDEST PUSH1 0x20 DUP3 ADD SWAP1 POP SWAP2 SWAP1 POP JUMP JUMPDEST PUSH2 0x16E4 DUP2 PUSH2 0x19AB JUMP JUMPDEST DUP3 MSTORE POP POP JUMP JUMPDEST PUSH2 0x16F3 DUP2 PUSH2 0x19B5 JUMP JUMPDEST DUP3 MSTORE POP POP JUMP JUMPDEST PUSH1 0x0 PUSH1 0x20 DUP3 ADD SWAP1 POP PUSH2 0x170E PUSH1 0x0 DUP4 ADD DUP5 PUSH2 0x1526 JUMP JUMPDEST SWAP3 SWAP2 POP POP JUMP JUMPDEST PUSH1 0x0 PUSH1 0x20 DUP3 ADD SWAP1 POP PUSH2 0x1729 PUSH1 0x0 DUP4 ADD DUP5 PUSH2 0x1535 JUMP JUMPDEST SWAP3 SWAP2 POP POP JUMP JUMPDEST PUSH1 0x0 PUSH1 0x20 DUP3 ADD SWAP1 POP DUP2 DUP2 SUB PUSH1 0x0 DUP4 ADD MSTORE PUSH2 0x1749 DUP2 DUP5 PUSH2 0x1544 JUMP JUMPDEST SWAP1 POP SWAP3 SWAP2 POP POP JUMP JUMPDEST PUSH1 0x0 PUSH1 0x20 DUP3 ADD SWAP1 POP DUP2 DUP2 SUB PUSH1 0x0 DUP4 ADD MSTORE PUSH2 0x176A DUP2 PUSH2 0x157D JUMP JUMPDEST SWAP1 POP SWAP2 SWAP1 POP JUMP JUMPDEST PUSH1 0x0 PUSH1 0x20 DUP3 ADD SWAP1 POP DUP2 DUP2 SUB PUSH1 0x0 DUP4 ADD MSTORE PUSH2 0x178A DUP2 PUSH2 0x15A0 JUMP JUMPDEST SWAP1 POP SWAP2 SWAP1 POP JUMP JUMPDEST PUSH1 0x0 PUSH1 0x20 DUP3 ADD SWAP1 POP DUP2 DUP2 SUB PUSH1 0x0 DUP4 ADD MSTORE PUSH2 0x17AA DUP2 PUSH2 0x15C3 JUMP JUMPDEST SWAP1 POP SWAP2 SWAP1 POP JUMP JUMPDEST PUSH1 0x0 PUSH1 0x20 DUP3 ADD SWAP1 POP DUP2 DUP2 SUB PUSH1 0x0 DUP4 ADD MSTORE PUSH2 0x17CA DUP2 PUSH2 0x15E6 JUMP JUMPDEST SWAP1 POP SWAP2 SWAP1 POP JUMP JUMPDEST PUSH1 0x0 PUSH1 0x20 DUP3 ADD SWAP1 POP DUP2 DUP2 SUB PUSH1 0x0 DUP4 ADD MSTORE PUSH2 0x17EA DUP2 PUSH2 0x1609 JUMP JUMPDEST SWAP1 POP SWAP2 SWAP1 POP JUMP JUMPDEST PUSH1 0x0 PUSH1 0x20 DUP3 ADD SWAP1 POP DUP2 DUP2 SUB PUSH1 0x0 DUP4 ADD MSTORE PUSH2 0x180A DUP2 PUSH2 0x162C JUMP JUMPDEST SWAP1 POP SWAP2 SWAP1 POP JUMP JUMPDEST PUSH1 0x0 PUSH1 0x20 DUP3 ADD SWAP1 POP DUP2 DUP2 SUB PUSH1 0x0 DUP4 ADD MSTORE PUSH2 0x182A DUP2 PUSH2 0x164F JUMP JUMPDEST SWAP1 POP SWAP2 SWAP1 POP JUMP JUMPDEST PUSH1 0x0 PUSH1 0x20 DUP3 ADD SWAP1 POP DUP2 DUP2 SUB PUSH1 0x0 DUP4 ADD MSTORE PUSH2 0x184A DUP2 PUSH2 0x1672 JUMP JUMPDEST SWAP1 POP SWAP2 SWAP1 POP JUMP JUMPDEST PUSH1 0x0 PUSH1 0x20 DUP3 ADD SWAP1 POP DUP2 DUP2 SUB PUSH1 0x0 DUP4 ADD MSTORE PUSH2 0x186A DUP2 PUSH2 0x1695 JUMP JUMPDEST SWAP1 POP SWAP2 SWAP1 POP JUMP JUMPDEST PUSH1 0x0 PUSH1 0x20 DUP3 ADD SWAP1 POP DUP2 DUP2 SUB PUSH1 0x0 DUP4 ADD MSTORE PUSH2 0x188A DUP2 PUSH2 0x16B8 JUMP JUMPDEST SWAP1 POP SWAP2 SWAP1 POP JUMP JUMPDEST PUSH1 0x0 PUSH1 0x20 DUP3 ADD SWAP1 POP PUSH2 0x18A6 PUSH1 0x0 DUP4 ADD DUP5 PUSH2 0x16DB JUMP JUMPDEST SWAP3 SWAP2 POP POP JUMP JUMPDEST PUSH1 0x0 PUSH1 0x20 DUP3 ADD SWAP1 POP PUSH2 0x18C1 PUSH1 0x0 DUP4 ADD DUP5 PUSH2 0x16EA JUMP JUMPDEST SWAP3 SWAP2 POP POP JUMP JUMPDEST PUSH1 0x0 DUP2 MLOAD SWAP1 POP SWAP2 SWAP1 POP JUMP JUMPDEST PUSH1 0x0 DUP3 DUP3 MSTORE PUSH1 0x20 DUP3 ADD SWAP1 POP SWAP3 SWAP2 POP POP JUMP JUMPDEST PUSH1 0x0 PUSH2 0x18EE DUP3 PUSH2 0x19AB JUMP JUMPDEST SWAP2 POP PUSH2 0x18F9 DUP4 PUSH2 0x19AB JUMP JUMPDEST SWAP3 POP DUP3 PUSH32 0xFFFFFFFFFFFFFFFFFFFFFFFFFFFFFFFFFFFFFFFFFFFFFFFFFFFFFFFFFFFFFFFF SUB DUP3 GT ISZERO PUSH2 0x192E JUMPI PUSH2 0x192D PUSH2 0x1A27 JUMP JUMPDEST JUMPDEST DUP3 DUP3 ADD SWAP1 POP SWAP3 SWAP2 POP POP JUMP JUMPDEST PUSH1 0x0 PUSH2 0x1944 DUP3 PUSH2 0x19AB JUMP JUMPDEST SWAP2 POP PUSH2 0x194F DUP4 PUSH2 0x19AB JUMP JUMPDEST SWAP3 POP DUP3 DUP3 LT ISZERO PUSH2 0x1962 JUMPI PUSH2 0x1961 PUSH2 0x1A27 JUMP JUMPDEST JUMPDEST DUP3 DUP3 SUB SWAP1 POP SWAP3 SWAP2 POP POP JUMP JUMPDEST PUSH1 0x0 PUSH2 0x1978 DUP3 PUSH2 0x198B JUMP JUMPDEST SWAP1 POP SWAP2 SWAP1 POP JUMP JUMPDEST PUSH1 0x0 DUP2 ISZERO ISZERO SWAP1 POP SWAP2 SWAP1 POP JUMP JUMPDEST PUSH1 0x0 PUSH20 0xFFFFFFFFFFFFFFFFFFFFFFFFFFFFFFFFFFFFFFFF DUP3 AND SWAP1 POP SWAP2 SWAP1 POP JUMP JUMPDEST PUSH1 0x0 DUP2 SWAP1 POP SWAP2 SWAP1 POP JUMP JUMPDEST PUSH1 0x0 PUSH1 0xFF DUP3 AND SWAP1 POP SWAP2 SWAP1 POP JUMP JUMPDEST PUSH1 0x0 JUMPDEST DUP4 DUP2 LT ISZERO PUSH2 0x19E0 JUMPI DUP1 DUP3 ADD MLOAD DUP2 DUP5 ADD MSTORE PUSH1 0x20 DUP2 ADD SWAP1 POP PUSH2 0x19C5 JUMP JUMPDEST DUP4 DUP2 GT ISZERO PUSH2 0x19EF JUMPI PUSH1 0x0 DUP5 DUP5 ADD MSTORE JUMPDEST POP POP POP POP JUMP JUMPDEST PUSH1 0x0 PUSH1 0x2 DUP3 DIV SWAP1 POP PUSH1 0x1 DUP3 AND DUP1 PUSH2 0x1A0D JUMPI PUSH1 0x7F DUP3 AND SWAP2 POP JUMPDEST PUSH1 0x20 DUP3 LT DUP2 EQ ISZERO PUSH2 0x1A21 JUMPI PUSH2 0x1A20 PUSH2 0x1A56 JUMP JUMPDEST JUMPDEST POP SWAP2 SWAP1 POP JUMP JUMPDEST PUSH32 0x4E487B7100000000000000000000000000000000000000000000000000000000 PUSH1 0x0 MSTORE PUSH1 0x11 PUSH1 0x4 MSTORE PUSH1 0x24 PUSH1 0x0 REVERT JUMPDEST PUSH32 0x4E487B7100000000000000000000000000000000000000000000000000000000 PUSH1 0x0 MSTORE PUSH1 0x22 PUSH1 0x4 MSTORE PUSH1 0x24 PUSH1 0x0 REVERT JUMPDEST PUSH1 0x0 DUP1 REVERT JUMPDEST PUSH1 0x0 PUSH1 0x1F NOT PUSH1 0x1F DUP4 ADD AND SWAP1 POP SWAP2 SWAP1 POP JUMP JUMPDEST PUSH32 0x45524332303A206167656E74652061206C6120646972656363696F6E20636572 PUSH1 0x0 DUP3 ADD MSTORE PUSH32 0x6F00000000000000000000000000000000000000000000000000000000000000 PUSH1 0x20 DUP3 ADD MSTORE POP JUMP JUMPDEST PUSH32 0x45524332303A206170726F626172206465736465206C6120646972656363696F PUSH1 0x0 DUP3 ADD MSTORE PUSH32 0x6E206365726F0000000000000000000000000000000000000000000000000000 PUSH1 0x20 DUP3 ADD MSTORE POP JUMP JUMPDEST PUSH32 0x45524332303A207472616E7366657269722061206C6120646972656363696F6E PUSH1 0x0 DUP3 ADD MSTORE PUSH32 0x206365726F000000000000000000000000000000000000000000000000000000 PUSH1 0x20 DUP3 ADD MSTORE POP JUMP JUMPDEST PUSH32 0x45524332303A207472616E73666572656E636961206465736465206C61206469 PUSH1 0x0 DUP3 ADD MSTORE PUSH32 0x72656363696F6E206365726F0000000000000000000000000000000000000000 PUSH1 0x20 DUP3 ADD MSTORE POP JUMP JUMPDEST PUSH32 0x45524332303A207175656D6172206465736465206C6120646972656363696F6E PUSH1 0x0 DUP3 ADD MSTORE PUSH32 0x206365726F000000000000000000000000000000000000000000000000000000 PUSH1 0x20 DUP3 ADD MSTORE POP JUMP JUMPDEST PUSH32 0x5F746F74616C537570706C7920706F72206578636564657220656C206C696D69 PUSH1 0x0 DUP3 ADD MSTORE PUSH32 0x7465206D6178696D6F0000000000000000000000000000000000000000000000 PUSH1 0x20 DUP3 ADD MSTORE POP JUMP JUMPDEST PUSH32 0x53696E207065726D69736F7320657370656369616C6573210000000000000000 PUSH1 0x0 DUP3 ADD MSTORE POP JUMP JUMPDEST PUSH32 0x536166654D6174683A20646573626F7264616D69656E746F20656E206C612073 PUSH1 0x0 DUP3 ADD MSTORE PUSH32 0x756D610000000000000000000000000000000000000000000000000000000000 PUSH1 0x20 DUP3 ADD MSTORE POP JUMP JUMPDEST PUSH32 0x45524332303A206170726F6261722061206C6120646972656363696F6E206365 PUSH1 0x0 DUP3 ADD MSTORE PUSH32 0x726F000000000000000000000000000000000000000000000000000000000000 PUSH1 0x20 DUP3 ADD MSTORE POP JUMP JUMPDEST PUSH32 0x53696E207065726D69736F732100000000000000000000000000000000000000 PUSH1 0x0 DUP3 ADD MSTORE POP JUMP JUMPDEST PUSH2 0x1D6E DUP2 PUSH2 0x196D JUMP JUMPDEST DUP2 EQ PUSH2 0x1D79 JUMPI PUSH1 0x0 DUP1 REVERT JUMPDEST POP JUMP JUMPDEST PUSH2 0x1D85 DUP2 PUSH2 0x19AB JUMP JUMPDEST DUP2 EQ PUSH2 0x1D90 JUMPI PUSH1 0x0 DUP1 REVERT JUMPDEST POP JUMP INVALID GASLIMIT MSTORE NUMBER ORIGIN ADDRESS GASPRICE KECCAK256 PUSH5 0x69736D696E PUSH22 0x63696F6E206465206C6120617369676E6163696F6E20 PUSH17 0x6F7220646562616A6F206465206365726F MSTORE8 PUSH2 0x6665 0x4D PUSH2 0x7468 GASPRICE KECCAK256 PUSH5 0x6573626F72 PUSH5 0x616D69656E PUSH21 0x6F20656E206C6120726573746145524332303A206C PUSH2 0x2063 PUSH2 0x6E74 PUSH10 0x646164207175656D6164 PUSH2 0x2065 PUSH25 0x6365646520656C2073616C646F45524332303A20656C206D6F PUSH15 0x746F206465206C61207472616E7366 PUSH6 0x72656E636961 KECCAK256 PUSH6 0x786365646520 PUSH6 0x6C2073616C64 PUSH16 0xA2646970667358221220F11805CA9C27 0x2C 0xBD OR 0xDC COINBASE PUSH30 0x711DA00EFD3A57E5A234A90A1037EDE2D4DBAAE164736F6C634300080700 CALLER "
				},
				"gasEstimates": {
					"creation": {
						"codeDepositCost": "1561600",
						"executionCost": "infinite",
						"totalCost": "infinite"
					},
					"external": {
						"addMinter(address)": "27121",
						"allowance(address,address)": "infinite",
						"approve(address,uint256)": "infinite",
						"balanceOf(address)": "2886",
						"burn(uint256)": "infinite",
						"decimals()": "2546",
						"decreaseAllowance(address,uint256)": "infinite",
						"increaseAllowance(address,uint256)": "infinite",
						"mint(address,uint256)": "infinite",
						"minters(address)": "2955",
						"name()": "infinite",
						"removeMinter(address)": "27077",
						"setTokenOwner(address)": "27082",
						"symbol()": "infinite",
						"tokenOwner()": "2586",
						"totalSupply()": "2505",
						"transfer(address,uint256)": "infinite",
						"transferFrom(address,address,uint256)": "infinite"
					}
				},
				"methodIdentifiers": {
					"addMinter(address)": "983b2d56",
					"allowance(address,address)": "dd62ed3e",
					"approve(address,uint256)": "095ea7b3",
					"balanceOf(address)": "70a08231",
					"burn(uint256)": "42966c68",
					"decimals()": "313ce567",
					"decreaseAllowance(address,uint256)": "a457c2d7",
					"increaseAllowance(address,uint256)": "39509351",
					"mint(address,uint256)": "40c10f19",
					"minters(address)": "f46eccc4",
					"name()": "06fdde03",
					"removeMinter(address)": "3092afd5",
					"setTokenOwner(address)": "18e02bd9",
					"symbol()": "95d89b41",
					"tokenOwner()": "a3e67610",
					"totalSupply()": "18160ddd",
					"transfer(address,uint256)": "a9059cbb",
					"transferFrom(address,address,uint256)": "23b872dd"
				}
			},
			"storageLayout": {
				"storage": [
					{
						"astId": 77,
						"contract": "contracts/erc20.sol:OzToken",
						"label": "_balances",
						"offset": 0,
						"slot": "0",
						"type": "t_mapping(t_address,t_uint256)"
					},
					{
						"astId": 83,
						"contract": "contracts/erc20.sol:OzToken",
						"label": "_allowances",
						"offset": 0,
						"slot": "1",
						"type": "t_mapping(t_address,t_mapping(t_address,t_uint256))"
					},
					{
						"astId": 85,
						"contract": "contracts/erc20.sol:OzToken",
						"label": "_totalSupply",
						"offset": 0,
						"slot": "2",
						"type": "t_uint256"
					},
					{
						"astId": 446,
						"contract": "contracts/erc20.sol:OzToken",
						"label": "_name",
						"offset": 0,
						"slot": "3",
						"type": "t_string_storage"
					},
					{
						"astId": 448,
						"contract": "contracts/erc20.sol:OzToken",
						"label": "_symbol",
						"offset": 0,
						"slot": "4",
						"type": "t_string_storage"
					},
					{
						"astId": 450,
						"contract": "contracts/erc20.sol:OzToken",
						"label": "_decimals",
						"offset": 0,
						"slot": "5",
						"type": "t_uint8"
					},
					{
						"astId": 837,
						"contract": "contracts/erc20.sol:OzToken",
						"label": "tokenOwner",
						"offset": 1,
						"slot": "5",
						"type": "t_address"
					},
					{
						"astId": 841,
						"contract": "contracts/erc20.sol:OzToken",
						"label": "minters",
						"offset": 0,
						"slot": "6",
						"type": "t_mapping(t_address,t_bool)"
					}
				],
				"types": {
					"t_address": {
						"encoding": "inplace",
						"label": "address",
						"numberOfBytes": "20"
					},
					"t_bool": {
						"encoding": "inplace",
						"label": "bool",
						"numberOfBytes": "1"
					},
					"t_mapping(t_address,t_bool)": {
						"encoding": "mapping",
						"key": "t_address",
						"label": "mapping(address => bool)",
						"numberOfBytes": "32",
						"value": "t_bool"
					},
					"t_mapping(t_address,t_mapping(t_address,t_uint256))": {
						"encoding": "mapping",
						"key": "t_address",
						"label": "mapping(address => mapping(address => uint256))",
						"numberOfBytes": "32",
						"value": "t_mapping(t_address,t_uint256)"
					},
					"t_mapping(t_address,t_uint256)": {
						"encoding": "mapping",
						"key": "t_address",
						"label": "mapping(address => uint256)",
						"numberOfBytes": "32",
						"value": "t_uint256"
					},
					"t_string_storage": {
						"encoding": "bytes",
						"label": "string",
						"numberOfBytes": "32"
					},
					"t_uint256": {
						"encoding": "inplace",
						"label": "uint256",
						"numberOfBytes": "32"
					},
					"t_uint8": {
						"encoding": "inplace",
						"label": "uint8",
						"numberOfBytes": "1"
					}
				}
			},
			"userdoc": {
				"kind": "user",
				"methods": {},
				"version": 1
			}
		}
	}
}