{
	"contracts/Jugador.sol": {
		"Jugador": {
			"abi": [
				{
					"inputs": [
						{
							"internalType": "address",
							"name": "_cont",
							"type": "address"
						}
					],
					"stateMutability": "nonpayable",
					"type": "constructor"
				},
				{
					"anonymous": false,
					"inputs": [
						{
							"indexed": true,
							"internalType": "address",
							"name": "previousOwner",
							"type": "address"
						},
						{
							"indexed": true,
							"internalType": "address",
							"name": "newOwner",
							"type": "address"
						}
					],
					"name": "OwnershipTransferred",
					"type": "event"
				},
				{
					"inputs": [
						{
							"internalType": "string",
							"name": "l",
							"type": "string"
						}
					],
					"name": "apostarLetra",
					"outputs": [],
					"stateMutability": "nonpayable",
					"type": "function"
				},
				{
					"inputs": [
						{
							"internalType": "string",
							"name": "_str",
							"type": "string"
						}
					],
					"name": "crearPalabra",
					"outputs": [],
					"stateMutability": "nonpayable",
					"type": "function"
				},
				{
					"inputs": [],
					"name": "elegirPalabra",
					"outputs": [
						{
							"internalType": "contract Word",
							"name": "",
							"type": "address"
						}
					],
					"stateMutability": "nonpayable",
					"type": "function"
				},
				{
					"inputs": [],
					"name": "getID",
					"outputs": [
						{
							"internalType": "uint256",
							"name": "",
							"type": "uint256"
						}
					],
					"stateMutability": "view",
					"type": "function"
				},
				{
					"inputs": [],
					"name": "owner",
					"outputs": [
						{
							"internalType": "address",
							"name": "",
							"type": "address"
						}
					],
					"stateMutability": "view",
					"type": "function"
				},
				{
					"inputs": [
						{
							"internalType": "address",
							"name": "newOwner",
							"type": "address"
						}
					],
					"name": "transferOwnership",
					"outputs": [],
					"stateMutability": "nonpayable",
					"type": "function"
				}
			],
			"devdoc": {
				"kind": "dev",
				"methods": {
					"transferOwnership(address)": {
						"details": "Allows the current owner to transfer control of the contract to a newOwner.",
						"params": {
							"newOwner": "The address to transfer ownership to."
						}
					}
				},
				"version": 1
			},
			"evm": {
				"assembly": "    /* \"contracts/Jugador.sol\":181:1020  contract Jugador is Ownable{... */\n  mstore(0x40, 0x80)\n    /* \"contracts/Jugador.sol\":267:396  constructor(address _cont){... */\n  callvalue\n  dup1\n  iszero\n  tag_1\n  jumpi\n  0x00\n  dup1\n  revert\ntag_1:\n  pop\n  mload(0x40)\n  sub(codesize, bytecodeSize)\n  dup1\n  bytecodeSize\n  dup4\n  codecopy\n  dup2\n  dup2\n  add\n  0x40\n  mstore\n  dup2\n  add\n  swap1\n  tag_2\n  swap2\n  swap1\n  tag_3\n  jump\t// in\ntag_2:\n    /* \"contracts/Ownable.sol\":558:568  msg.sender */\n  caller\n    /* \"contracts/Ownable.sol\":550:555  owner */\n  0x00\n  dup1\n    /* \"contracts/Ownable.sol\":550:568  owner = msg.sender */\n  0x0100\n  exp\n  dup2\n  sload\n  dup2\n  0xffffffffffffffffffffffffffffffffffffffff\n  mul\n  not\n  and\n  swap1\n  dup4\n  0xffffffffffffffffffffffffffffffffffffffff\n  and\n  mul\n  or\n  swap1\n  sstore\n  pop\n    /* \"contracts/Jugador.sol\":317:322  _cont */\n  dup1\n    /* \"contracts/Jugador.sol\":303:308  juego */\n  0x02\n  0x00\n    /* \"contracts/Jugador.sol\":303:323  juego = Juego(_cont) */\n  0x0100\n  exp\n  dup2\n  sload\n  dup2\n  0xffffffffffffffffffffffffffffffffffffffff\n  mul\n  not\n  and\n  swap1\n  dup4\n  0xffffffffffffffffffffffffffffffffffffffff\n  and\n  mul\n  or\n  swap1\n  sstore\n  pop\n    /* \"contracts/Jugador.sol\":338:343  juego */\n  0x02\n  0x00\n  swap1\n  sload\n  swap1\n  0x0100\n  exp\n  swap1\n  div\n  0xffffffffffffffffffffffffffffffffffffffff\n  and\n    /* \"contracts/Jugador.sol\":338:356  juego.crearJugador */\n  0xffffffffffffffffffffffffffffffffffffffff\n  and\n  0xfe1c2543\n    /* \"contracts/Jugador.sol\":338:358  juego.crearJugador() */\n  mload(0x40)\n  dup2\n  0xffffffff\n  and\n  0xe0\n  shl\n  dup2\n  mstore\n  0x04\n  add\n  0x20\n  mload(0x40)\n  dup1\n  dup4\n  sub\n  dup2\n  0x00\n  dup8\n  dup1\n  extcodesize\n  iszero\n  dup1\n  iszero\n  tag_8\n  jumpi\n  0x00\n  dup1\n  revert\ntag_8:\n  pop\n  gas\n  call\n  iszero\n  dup1\n  iszero\n  tag_10\n  jumpi\n  returndatasize\n  0x00\n  dup1\n  returndatacopy\n  revert(0x00, returndatasize)\ntag_10:\n  pop\n  pop\n  pop\n  pop\n  mload(0x40)\n  returndatasize\n  not(0x1f)\n  0x1f\n  dup3\n  add\n  and\n  dup3\n  add\n  dup1\n  0x40\n  mstore\n  pop\n  dup2\n  add\n  swap1\n  tag_11\n  swap2\n  swap1\n  tag_12\n  jump\t// in\ntag_11:\n    /* \"contracts/Jugador.sol\":333:335  id */\n  0x01\n    /* \"contracts/Jugador.sol\":333:358  id = juego.crearJugador() */\n  dup2\n  swap1\n  sstore\n  pop\n    /* \"contracts/Jugador.sol\":377:389  new Word(\"\") */\n  mload(0x40)\n  tag_13\n  swap1\n  tag_14\n  jump\t// in\ntag_13:\n  tag_15\n  swap1\n  tag_16\n  jump\t// in\ntag_15:\n  mload(0x40)\n  dup1\n  swap2\n  sub\n  swap1\n  0x00\n  create\n  dup1\n  iszero\n  dup1\n  iszero\n  tag_17\n  jumpi\n  returndatasize\n  0x00\n  dup1\n  returndatacopy\n  revert(0x00, returndatasize)\ntag_17:\n  pop\n    /* \"contracts/Jugador.sol\":368:374  actual */\n  0x03\n  0x00\n    /* \"contracts/Jugador.sol\":368:389  actual = new Word(\"\") */\n  0x0100\n  exp\n  dup2\n  sload\n  dup2\n  0xffffffffffffffffffffffffffffffffffffffff\n  mul\n  not\n  and\n  swap1\n  dup4\n  0xffffffffffffffffffffffffffffffffffffffff\n  and\n  mul\n  or\n  swap1\n  sstore\n  pop\n    /* \"contracts/Jugador.sol\":267:396  constructor(address _cont){... */\n  pop\n    /* \"contracts/Jugador.sol\":181:1020  contract Jugador is Ownable{... */\n  jump(tag_18)\ntag_14:\n  dataSize(sub_1)\n  dup1\n  dataOffset(sub_1)\n  dup4\n  codecopy\n  add\n  swap1\n  jump\t// out\n    /* \"#utility.yul\":7:150   */\ntag_20:\n    /* \"#utility.yul\":64:69   */\n  0x00\n    /* \"#utility.yul\":95:101   */\n  dup2\n    /* \"#utility.yul\":89:102   */\n  mload\n    /* \"#utility.yul\":80:102   */\n  swap1\n  pop\n    /* \"#utility.yul\":111:144   */\n  tag_22\n    /* \"#utility.yul\":138:143   */\n  dup2\n    /* \"#utility.yul\":111:144   */\n  tag_23\n  jump\t// in\ntag_22:\n    /* \"#utility.yul\":7:150   */\n  swap3\n  swap2\n  pop\n  pop\n  jump\t// out\n    /* \"#utility.yul\":156:299   */\ntag_24:\n    /* \"#utility.yul\":213:218   */\n  0x00\n    /* \"#utility.yul\":244:250   */\n  dup2\n    /* \"#utility.yul\":238:251   */\n  mload\n    /* \"#utility.yul\":229:251   */\n  swap1\n  pop\n    /* \"#utility.yul\":260:293   */\n  tag_26\n    /* \"#utility.yul\":287:292   */\n  dup2\n    /* \"#utility.yul\":260:293   */\n  tag_27\n  jump\t// in\ntag_26:\n    /* \"#utility.yul\":156:299   */\n  swap3\n  swap2\n  pop\n  pop\n  jump\t// out\n    /* \"#utility.yul\":305:656   */\ntag_3:\n    /* \"#utility.yul\":375:381   */\n  0x00\n    /* \"#utility.yul\":424:426   */\n  0x20\n    /* \"#utility.yul\":412:421   */\n  dup3\n    /* \"#utility.yul\":403:410   */\n  dup5\n    /* \"#utility.yul\":399:422   */\n  sub\n    /* \"#utility.yul\":395:427   */\n  slt\n    /* \"#utility.yul\":392:511   */\n  iszero\n  tag_29\n  jumpi\n    /* \"#utility.yul\":430:509   */\n  tag_30\n  tag_31\n  jump\t// in\ntag_30:\n    /* \"#utility.yul\":392:511   */\ntag_29:\n    /* \"#utility.yul\":550:551   */\n  0x00\n    /* \"#utility.yul\":575:639   */\n  tag_32\n    /* \"#utility.yul\":631:638   */\n  dup5\n    /* \"#utility.yul\":622:628   */\n  dup3\n    /* \"#utility.yul\":611:620   */\n  dup6\n    /* \"#utility.yul\":607:629   */\n  add\n    /* \"#utility.yul\":575:639   */\n  tag_20\n  jump\t// in\ntag_32:\n    /* \"#utility.yul\":565:639   */\n  swap2\n  pop\n    /* \"#utility.yul\":521:649   */\n  pop\n    /* \"#utility.yul\":305:656   */\n  swap3\n  swap2\n  pop\n  pop\n  jump\t// out\n    /* \"#utility.yul\":662:1013   */\ntag_12:\n    /* \"#utility.yul\":732:738   */\n  0x00\n    /* \"#utility.yul\":781:783   */\n  0x20\n    /* \"#utility.yul\":769:778   */\n  dup3\n    /* \"#utility.yul\":760:767   */\n  dup5\n    /* \"#utility.yul\":756:779   */\n  sub\n    /* \"#utility.yul\":752:784   */\n  slt\n    /* \"#utility.yul\":749:868   */\n  iszero\n  tag_34\n  jumpi\n    /* \"#utility.yul\":787:866   */\n  tag_35\n  tag_31\n  jump\t// in\ntag_35:\n    /* \"#utility.yul\":749:868   */\ntag_34:\n    /* \"#utility.yul\":907:908   */\n  0x00\n    /* \"#utility.yul\":932:996   */\n  tag_36\n    /* \"#utility.yul\":988:995   */\n  dup5\n    /* \"#utility.yul\":979:985   */\n  dup3\n    /* \"#utility.yul\":968:977   */\n  dup6\n    /* \"#utility.yul\":964:986   */\n  add\n    /* \"#utility.yul\":932:996   */\n  tag_24\n  jump\t// in\ntag_36:\n    /* \"#utility.yul\":922:996   */\n  swap2\n  pop\n    /* \"#utility.yul\":878:1006   */\n  pop\n    /* \"#utility.yul\":662:1013   */\n  swap3\n  swap2\n  pop\n  pop\n  jump\t// out\n    /* \"#utility.yul\":1019:1383   */\ntag_37:\n    /* \"#utility.yul\":1161:1164   */\n  0x00\n    /* \"#utility.yul\":1182:1248   */\n  tag_39\n    /* \"#utility.yul\":1246:1247   */\n  0x00\n    /* \"#utility.yul\":1241:1244   */\n  dup4\n    /* \"#utility.yul\":1182:1248   */\n  tag_40\n  jump\t// in\ntag_39:\n    /* \"#utility.yul\":1175:1248   */\n  swap2\n  pop\n    /* \"#utility.yul\":1257:1350   */\n  tag_41\n    /* \"#utility.yul\":1346:1349   */\n  dup3\n    /* \"#utility.yul\":1257:1350   */\n  tag_42\n  jump\t// in\ntag_41:\n    /* \"#utility.yul\":1375:1376   */\n  0x00\n    /* \"#utility.yul\":1370:1373   */\n  dup3\n    /* \"#utility.yul\":1366:1377   */\n  add\n    /* \"#utility.yul\":1359:1377   */\n  swap1\n  pop\n    /* \"#utility.yul\":1019:1383   */\n  swap2\n  swap1\n  pop\n  jump\t// out\n    /* \"#utility.yul\":1389:1808   */\ntag_16:\n    /* \"#utility.yul\":1555:1559   */\n  0x00\n    /* \"#utility.yul\":1593:1595   */\n  0x20\n    /* \"#utility.yul\":1582:1591   */\n  dup3\n    /* \"#utility.yul\":1578:1596   */\n  add\n    /* \"#utility.yul\":1570:1596   */\n  swap1\n  pop\n    /* \"#utility.yul\":1642:1651   */\n  dup2\n    /* \"#utility.yul\":1636:1640   */\n  dup2\n    /* \"#utility.yul\":1632:1652   */\n  sub\n    /* \"#utility.yul\":1628:1629   */\n  0x00\n    /* \"#utility.yul\":1617:1626   */\n  dup4\n    /* \"#utility.yul\":1613:1630   */\n  add\n    /* \"#utility.yul\":1606:1653   */\n  mstore\n    /* \"#utility.yul\":1670:1801   */\n  tag_44\n    /* \"#utility.yul\":1796:1800   */\n  dup2\n    /* \"#utility.yul\":1670:1801   */\n  tag_37\n  jump\t// in\ntag_44:\n    /* \"#utility.yul\":1662:1801   */\n  swap1\n  pop\n    /* \"#utility.yul\":1389:1808   */\n  swap2\n  swap1\n  pop\n  jump\t// out\n    /* \"#utility.yul\":1895:2064   */\ntag_40:\n    /* \"#utility.yul\":1979:1990   */\n  0x00\n    /* \"#utility.yul\":2013:2019   */\n  dup3\n    /* \"#utility.yul\":2008:2011   */\n  dup3\n    /* \"#utility.yul\":2001:2020   */\n  mstore\n    /* \"#utility.yul\":2053:2057   */\n  0x20\n    /* \"#utility.yul\":2048:2051   */\n  dup3\n    /* \"#utility.yul\":2044:2058   */\n  add\n    /* \"#utility.yul\":2029:2058   */\n  swap1\n  pop\n    /* \"#utility.yul\":1895:2064   */\n  swap3\n  swap2\n  pop\n  pop\n  jump\t// out\n    /* \"#utility.yul\":2070:2166   */\ntag_48:\n    /* \"#utility.yul\":2107:2114   */\n  0x00\n    /* \"#utility.yul\":2136:2160   */\n  tag_50\n    /* \"#utility.yul\":2154:2159   */\n  dup3\n    /* \"#utility.yul\":2136:2160   */\n  tag_51\n  jump\t// in\ntag_50:\n    /* \"#utility.yul\":2125:2160   */\n  swap1\n  pop\n    /* \"#utility.yul\":2070:2166   */\n  swap2\n  swap1\n  pop\n  jump\t// out\n    /* \"#utility.yul\":2172:2298   */\ntag_51:\n    /* \"#utility.yul\":2209:2216   */\n  0x00\n    /* \"#utility.yul\":2249:2291   */\n  0xffffffffffffffffffffffffffffffffffffffff\n    /* \"#utility.yul\":2242:2247   */\n  dup3\n    /* \"#utility.yul\":2238:2292   */\n  and\n    /* \"#utility.yul\":2227:2292   */\n  swap1\n  pop\n    /* \"#utility.yul\":2172:2298   */\n  swap2\n  swap1\n  pop\n  jump\t// out\n    /* \"#utility.yul\":2304:2381   */\ntag_53:\n    /* \"#utility.yul\":2341:2348   */\n  0x00\n    /* \"#utility.yul\":2370:2375   */\n  dup2\n    /* \"#utility.yul\":2359:2375   */\n  swap1\n  pop\n    /* \"#utility.yul\":2304:2381   */\n  swap2\n  swap1\n  pop\n  jump\t// out\n    /* \"#utility.yul\":2510:2627   */\ntag_31:\n    /* \"#utility.yul\":2619:2620   */\n  0x00\n    /* \"#utility.yul\":2616:2617   */\n  dup1\n    /* \"#utility.yul\":2609:2621   */\n  revert\n    /* \"#utility.yul\":2633:2747   */\ntag_42:\n  pop\n  jump\t// out\n    /* \"#utility.yul\":2753:2875   */\ntag_23:\n    /* \"#utility.yul\":2826:2850   */\n  tag_60\n    /* \"#utility.yul\":2844:2849   */\n  dup2\n    /* \"#utility.yul\":2826:2850   */\n  tag_48\n  jump\t// in\ntag_60:\n    /* \"#utility.yul\":2819:2824   */\n  dup2\n    /* \"#utility.yul\":2816:2851   */\n  eq\n    /* \"#utility.yul\":2806:2869   */\n  tag_61\n  jumpi\n    /* \"#utility.yul\":2865:2866   */\n  0x00\n    /* \"#utility.yul\":2862:2863   */\n  dup1\n    /* \"#utility.yul\":2855:2867   */\n  revert\n    /* \"#utility.yul\":2806:2869   */\ntag_61:\n    /* \"#utility.yul\":2753:2875   */\n  pop\n  jump\t// out\n    /* \"#utility.yul\":2881:3003   */\ntag_27:\n    /* \"#utility.yul\":2954:2978   */\n  tag_63\n    /* \"#utility.yul\":2972:2977   */\n  dup2\n    /* \"#utility.yul\":2954:2978   */\n  tag_53\n  jump\t// in\ntag_63:\n    /* \"#utility.yul\":2947:2952   */\n  dup2\n    /* \"#utility.yul\":2944:2979   */\n  eq\n    /* \"#utility.yul\":2934:2997   */\n  tag_64\n  jumpi\n    /* \"#utility.yul\":2993:2994   */\n  0x00\n    /* \"#utility.yul\":2990:2991   */\n  dup1\n    /* \"#utility.yul\":2983:2995   */\n  revert\n    /* \"#utility.yul\":2934:2997   */\ntag_64:\n    /* \"#utility.yul\":2881:3003   */\n  pop\n  jump\t// out\n    /* \"contracts/Jugador.sol\":181:1020  contract Jugador is Ownable{... */\ntag_18:\n  dataSize(sub_0)\n  dup1\n  dataOffset(sub_0)\n  0x00\n  codecopy\n  0x00\n  return\nstop\n\nsub_0: assembly {\n        /* \"contracts/Jugador.sol\":181:1020  contract Jugador is Ownable{... */\n      mstore(0x40, 0x80)\n      callvalue\n      dup1\n      iszero\n      tag_1\n      jumpi\n      0x00\n      dup1\n      revert\n    tag_1:\n      pop\n      jumpi(tag_2, lt(calldatasize, 0x04))\n      shr(0xe0, calldataload(0x00))\n      dup1\n      0x0f0355da\n      eq\n      tag_3\n      jumpi\n      dup1\n      0x51b6447f\n      eq\n      tag_4\n      jumpi\n      dup1\n      0x8da5cb5b\n      eq\n      tag_5\n      jumpi\n      dup1\n      0xab9dbd07\n      eq\n      tag_6\n      jumpi\n      dup1\n      0xb0ea68f3\n      eq\n      tag_7\n      jumpi\n      dup1\n      0xf2fde38b\n      eq\n      tag_8\n      jumpi\n    tag_2:\n      0x00\n      dup1\n      revert\n        /* \"contracts/Jugador.sol\":612:853  function elegirPalabra() public onlyOwner returns (Word){... */\n    tag_3:\n      tag_9\n      tag_10\n      jump\t// in\n    tag_9:\n      mload(0x40)\n      tag_11\n      swap2\n      swap1\n      tag_12\n      jump\t// in\n    tag_11:\n      mload(0x40)\n      dup1\n      swap2\n      sub\n      swap1\n      return\n        /* \"contracts/Jugador.sol\":478:606  function crearPalabra(string memory _str) public onlyOwner{... */\n    tag_4:\n      tag_13\n      0x04\n      dup1\n      calldatasize\n      sub\n      dup2\n      add\n      swap1\n      tag_14\n      swap2\n      swap1\n      tag_15\n      jump\t// in\n    tag_14:\n      tag_16\n      jump\t// in\n    tag_13:\n      stop\n        /* \"contracts/Ownable.sol\":286:306  address public owner */\n    tag_5:\n      tag_17\n      tag_18\n      jump\t// in\n    tag_17:\n      mload(0x40)\n      tag_19\n      swap2\n      swap1\n      tag_20\n      jump\t// in\n    tag_19:\n      mload(0x40)\n      dup1\n      swap2\n      sub\n      swap1\n      return\n        /* \"contracts/Jugador.sol\":402:472  function getID() public view  returns (uint){... */\n    tag_6:\n      tag_21\n      tag_22\n      jump\t// in\n    tag_21:\n      mload(0x40)\n      tag_23\n      swap2\n      swap1\n      tag_24\n      jump\t// in\n    tag_23:\n      mload(0x40)\n      dup1\n      swap2\n      sub\n      swap1\n      return\n        /* \"contracts/Jugador.sol\":859:1014  function apostarLetra(string memory l) public onlyOwner{... */\n    tag_7:\n      tag_25\n      0x04\n      dup1\n      calldatasize\n      sub\n      dup2\n      add\n      swap1\n      tag_26\n      swap2\n      swap1\n      tag_15\n      jump\t// in\n    tag_26:\n      tag_27\n      jump\t// in\n    tag_25:\n      stop\n        /* \"contracts/Ownable.sol\":899:1087  function transferOwnership(address newOwner) public onlyOwner {... */\n    tag_8:\n      tag_28\n      0x04\n      dup1\n      calldatasize\n      sub\n      dup2\n      add\n      swap1\n      tag_29\n      swap2\n      swap1\n      tag_30\n      jump\t// in\n    tag_29:\n      tag_31\n      jump\t// in\n    tag_28:\n      stop\n        /* \"contracts/Jugador.sol\":612:853  function elegirPalabra() public onlyOwner returns (Word){... */\n    tag_10:\n        /* \"contracts/Jugador.sol\":663:667  Word */\n      0x00\n        /* \"contracts/Ownable.sol\":711:716  owner */\n      dup1\n      0x00\n      swap1\n      sload\n      swap1\n      0x0100\n      exp\n      swap1\n      div\n      0xffffffffffffffffffffffffffffffffffffffff\n      and\n        /* \"contracts/Ownable.sol\":697:716  msg.sender == owner */\n      0xffffffffffffffffffffffffffffffffffffffff\n      and\n        /* \"contracts/Ownable.sol\":697:707  msg.sender */\n      caller\n        /* \"contracts/Ownable.sol\":697:716  msg.sender == owner */\n      0xffffffffffffffffffffffffffffffffffffffff\n      and\n      eq\n        /* \"contracts/Ownable.sol\":689:717  require(msg.sender == owner) */\n      tag_33\n      jumpi\n      0x00\n      dup1\n      revert\n    tag_33:\n        /* \"contracts/Jugador.sol\":678:687  Word word */\n      0x00\n        /* \"contracts/Jugador.sol\":691:696  juego */\n      0x02\n      0x00\n      swap1\n      sload\n      swap1\n      0x0100\n      exp\n      swap1\n      div\n      0xffffffffffffffffffffffffffffffffffffffff\n      and\n        /* \"contracts/Jugador.sol\":691:710  juego.elegirPalabra */\n      0xffffffffffffffffffffffffffffffffffffffff\n      and\n      0x47ac0cd4\n        /* \"contracts/Jugador.sol\":711:713  id */\n      sload(0x01)\n        /* \"contracts/Jugador.sol\":691:714  juego.elegirPalabra(id) */\n      mload(0x40)\n      dup3\n      0xffffffff\n      and\n      0xe0\n      shl\n      dup2\n      mstore\n      0x04\n      add\n      tag_35\n      swap2\n      swap1\n      tag_24\n      jump\t// in\n    tag_35:\n      0x20\n      mload(0x40)\n      dup1\n      dup4\n      sub\n      dup2\n      0x00\n      dup8\n      dup1\n      extcodesize\n      iszero\n      dup1\n      iszero\n      tag_36\n      jumpi\n      0x00\n      dup1\n      revert\n    tag_36:\n      pop\n      gas\n      call\n      iszero\n      dup1\n      iszero\n      tag_38\n      jumpi\n      returndatasize\n      0x00\n      dup1\n      returndatacopy\n      revert(0x00, returndatasize)\n    tag_38:\n      pop\n      pop\n      pop\n      pop\n      mload(0x40)\n      returndatasize\n      not(0x1f)\n      0x1f\n      dup3\n      add\n      and\n      dup3\n      add\n      dup1\n      0x40\n      mstore\n      pop\n      dup2\n      add\n      swap1\n      tag_39\n      swap2\n      swap1\n      tag_40\n      jump\t// in\n    tag_39:\n        /* \"contracts/Jugador.sol\":678:714  Word word  = juego.elegirPalabra(id) */\n      swap1\n      pop\n        /* \"contracts/Jugador.sol\":820:824  word */\n      dup1\n        /* \"contracts/Jugador.sol\":811:817  actual */\n      0x03\n      0x00\n        /* \"contracts/Jugador.sol\":811:824  actual = word */\n      0x0100\n      exp\n      dup2\n      sload\n      dup2\n      0xffffffffffffffffffffffffffffffffffffffff\n      mul\n      not\n      and\n      swap1\n      dup4\n      0xffffffffffffffffffffffffffffffffffffffff\n      and\n      mul\n      or\n      swap1\n      sstore\n      pop\n        /* \"contracts/Jugador.sol\":841:845  word */\n      dup1\n        /* \"contracts/Jugador.sol\":834:845  return word */\n      swap2\n      pop\n      pop\n        /* \"contracts/Jugador.sol\":612:853  function elegirPalabra() public onlyOwner returns (Word){... */\n      swap1\n      jump\t// out\n        /* \"contracts/Jugador.sol\":478:606  function crearPalabra(string memory _str) public onlyOwner{... */\n    tag_16:\n        /* \"contracts/Ownable.sol\":711:716  owner */\n      0x00\n      dup1\n      sload\n      swap1\n      0x0100\n      exp\n      swap1\n      div\n      0xffffffffffffffffffffffffffffffffffffffff\n      and\n        /* \"contracts/Ownable.sol\":697:716  msg.sender == owner */\n      0xffffffffffffffffffffffffffffffffffffffff\n      and\n        /* \"contracts/Ownable.sol\":697:707  msg.sender */\n      caller\n        /* \"contracts/Ownable.sol\":697:716  msg.sender == owner */\n      0xffffffffffffffffffffffffffffffffffffffff\n      and\n      eq\n        /* \"contracts/Ownable.sol\":689:717  require(msg.sender == owner) */\n      tag_42\n      jumpi\n      0x00\n      dup1\n      revert\n    tag_42:\n        /* \"contracts/Jugador.sol\":546:554  uint idW */\n      0x00\n        /* \"contracts/Jugador.sol\":570:575  juego */\n      0x02\n      0x00\n      swap1\n      sload\n      swap1\n      0x0100\n      exp\n      swap1\n      div\n      0xffffffffffffffffffffffffffffffffffffffff\n      and\n        /* \"contracts/Jugador.sol\":570:589  juego._crearPalabra */\n      0xffffffffffffffffffffffffffffffffffffffff\n      and\n      0x2801ba8a\n        /* \"contracts/Jugador.sol\":590:594  _str */\n      dup4\n        /* \"contracts/Jugador.sol\":596:598  id */\n      sload(0x01)\n        /* \"contracts/Jugador.sol\":570:599  juego._crearPalabra(_str, id) */\n      mload(0x40)\n      dup4\n      0xffffffff\n      and\n      0xe0\n      shl\n      dup2\n      mstore\n      0x04\n      add\n      tag_44\n      swap3\n      swap2\n      swap1\n      tag_45\n      jump\t// in\n    tag_44:\n      0x20\n      mload(0x40)\n      dup1\n      dup4\n      sub\n      dup2\n      0x00\n      dup8\n      dup1\n      extcodesize\n      iszero\n      dup1\n      iszero\n      tag_46\n      jumpi\n      0x00\n      dup1\n      revert\n    tag_46:\n      pop\n      gas\n      call\n      iszero\n      dup1\n      iszero\n      tag_48\n      jumpi\n      returndatasize\n      0x00\n      dup1\n      returndatacopy\n      revert(0x00, returndatasize)\n    tag_48:\n      pop\n      pop\n      pop\n      pop\n      mload(0x40)\n      returndatasize\n      not(0x1f)\n      0x1f\n      dup3\n      add\n      and\n      dup3\n      add\n      dup1\n      0x40\n      mstore\n      pop\n      dup2\n      add\n      swap1\n      tag_49\n      swap2\n      swap1\n      tag_50\n      jump\t// in\n    tag_49:\n        /* \"contracts/Jugador.sol\":564:599  idW = juego._crearPalabra(_str, id) */\n      swap1\n      pop\n        /* \"contracts/Jugador.sol\":536:606  {... */\n      pop\n        /* \"contracts/Jugador.sol\":478:606  function crearPalabra(string memory _str) public onlyOwner{... */\n      pop\n      jump\t// out\n        /* \"contracts/Ownable.sol\":286:306  address public owner */\n    tag_18:\n      0x00\n      dup1\n      sload\n      swap1\n      0x0100\n      exp\n      swap1\n      div\n      0xffffffffffffffffffffffffffffffffffffffff\n      and\n      dup2\n      jump\t// out\n        /* \"contracts/Jugador.sol\":402:472  function getID() public view  returns (uint){... */\n    tag_22:\n        /* \"contracts/Jugador.sol\":441:445  uint */\n      0x00\n        /* \"contracts/Jugador.sol\":463:465  id */\n      sload(0x01)\n        /* \"contracts/Jugador.sol\":456:465  return id */\n      swap1\n      pop\n        /* \"contracts/Jugador.sol\":402:472  function getID() public view  returns (uint){... */\n      swap1\n      jump\t// out\n        /* \"contracts/Jugador.sol\":859:1014  function apostarLetra(string memory l) public onlyOwner{... */\n    tag_27:\n        /* \"contracts/Ownable.sol\":711:716  owner */\n      0x00\n      dup1\n      sload\n      swap1\n      0x0100\n      exp\n      swap1\n      div\n      0xffffffffffffffffffffffffffffffffffffffff\n      and\n        /* \"contracts/Ownable.sol\":697:716  msg.sender == owner */\n      0xffffffffffffffffffffffffffffffffffffffff\n      and\n        /* \"contracts/Ownable.sol\":697:707  msg.sender */\n      caller\n        /* \"contracts/Ownable.sol\":697:716  msg.sender == owner */\n      0xffffffffffffffffffffffffffffffffffffffff\n      and\n      eq\n        /* \"contracts/Ownable.sol\":689:717  require(msg.sender == owner) */\n      tag_53\n      jumpi\n      0x00\n      dup1\n      revert\n    tag_53:\n        /* \"contracts/Jugador.sol\":951:952  0 */\n      0x00\n        /* \"contracts/Jugador.sol\":932:938  actual */\n      0x03\n      0x00\n      swap1\n      sload\n      swap1\n      0x0100\n      exp\n      swap1\n      div\n      0xffffffffffffffffffffffffffffffffffffffff\n      and\n        /* \"contracts/Jugador.sol\":932:945  actual.getLen */\n      0xffffffffffffffffffffffffffffffffffffffff\n      and\n      0x4a90be57\n        /* \"contracts/Jugador.sol\":932:947  actual.getLen() */\n      mload(0x40)\n      dup2\n      0xffffffff\n      and\n      0xe0\n      shl\n      dup2\n      mstore\n      0x04\n      add\n      0x20\n      mload(0x40)\n      dup1\n      dup4\n      sub\n      dup2\n      dup7\n      dup1\n      extcodesize\n      iszero\n      dup1\n      iszero\n      tag_55\n      jumpi\n      0x00\n      dup1\n      revert\n    tag_55:\n      pop\n      gas\n      staticcall\n      iszero\n      dup1\n      iszero\n      tag_57\n      jumpi\n      returndatasize\n      0x00\n      dup1\n      returndatacopy\n      revert(0x00, returndatasize)\n    tag_57:\n      pop\n      pop\n      pop\n      pop\n      mload(0x40)\n      returndatasize\n      not(0x1f)\n      0x1f\n      dup3\n      add\n      and\n      dup3\n      add\n      dup1\n      0x40\n      mstore\n      pop\n      dup2\n      add\n      swap1\n      tag_58\n      swap2\n      swap1\n      tag_50\n      jump\t// in\n    tag_58:\n        /* \"contracts/Jugador.sol\":932:952  actual.getLen() != 0 */\n      eq\n      iszero\n        /* \"contracts/Jugador.sol\":924:953  require(actual.getLen() != 0) */\n      tag_59\n      jumpi\n      0x00\n      dup1\n      revert\n    tag_59:\n        /* \"contracts/Jugador.sol\":859:1014  function apostarLetra(string memory l) public onlyOwner{... */\n      pop\n      jump\t// out\n        /* \"contracts/Ownable.sol\":899:1087  function transferOwnership(address newOwner) public onlyOwner {... */\n    tag_31:\n        /* \"contracts/Ownable.sol\":711:716  owner */\n      0x00\n      dup1\n      sload\n      swap1\n      0x0100\n      exp\n      swap1\n      div\n      0xffffffffffffffffffffffffffffffffffffffff\n      and\n        /* \"contracts/Ownable.sol\":697:716  msg.sender == owner */\n      0xffffffffffffffffffffffffffffffffffffffff\n      and\n        /* \"contracts/Ownable.sol\":697:707  msg.sender */\n      caller\n        /* \"contracts/Ownable.sol\":697:716  msg.sender == owner */\n      0xffffffffffffffffffffffffffffffffffffffff\n      and\n      eq\n        /* \"contracts/Ownable.sol\":689:717  require(msg.sender == owner) */\n      tag_61\n      jumpi\n      0x00\n      dup1\n      revert\n    tag_61:\n        /* \"contracts/Ownable.sol\":999:1000  0 */\n      0x00\n        /* \"contracts/Ownable.sol\":979:1001  newOwner != address(0) */\n      0xffffffffffffffffffffffffffffffffffffffff\n      and\n        /* \"contracts/Ownable.sol\":979:987  newOwner */\n      dup2\n        /* \"contracts/Ownable.sol\":979:1001  newOwner != address(0) */\n      0xffffffffffffffffffffffffffffffffffffffff\n      and\n      eq\n      iszero\n        /* \"contracts/Ownable.sol\":971:1002  require(newOwner != address(0)) */\n      tag_63\n      jumpi\n      0x00\n      dup1\n      revert\n    tag_63:\n        /* \"contracts/Ownable.sol\":1045:1053  newOwner */\n      dup1\n        /* \"contracts/Ownable.sol\":1017:1054  OwnershipTransferred(owner, newOwner) */\n      0xffffffffffffffffffffffffffffffffffffffff\n      and\n        /* \"contracts/Ownable.sol\":1038:1043  owner */\n      0x00\n      dup1\n      sload\n      swap1\n      0x0100\n      exp\n      swap1\n      div\n      0xffffffffffffffffffffffffffffffffffffffff\n      and\n        /* \"contracts/Ownable.sol\":1017:1054  OwnershipTransferred(owner, newOwner) */\n      0xffffffffffffffffffffffffffffffffffffffff\n      and\n      0x8be0079c531659141344cd1fd0a4f28419497f9722a3daafe3b4186f6b6457e0\n      mload(0x40)\n      mload(0x40)\n      dup1\n      swap2\n      sub\n      swap1\n      log3\n        /* \"contracts/Ownable.sol\":1072:1080  newOwner */\n      dup1\n        /* \"contracts/Ownable.sol\":1064:1069  owner */\n      0x00\n      dup1\n        /* \"contracts/Ownable.sol\":1064:1080  owner = newOwner */\n      0x0100\n      exp\n      dup2\n      sload\n      dup2\n      0xffffffffffffffffffffffffffffffffffffffff\n      mul\n      not\n      and\n      swap1\n      dup4\n      0xffffffffffffffffffffffffffffffffffffffff\n      and\n      mul\n      or\n      swap1\n      sstore\n      pop\n        /* \"contracts/Ownable.sol\":899:1087  function transferOwnership(address newOwner) public onlyOwner {... */\n      pop\n      jump\t// out\n        /* \"#utility.yul\":7:419   */\n    tag_65:\n        /* \"#utility.yul\":85:90   */\n      0x00\n        /* \"#utility.yul\":110:176   */\n      tag_67\n        /* \"#utility.yul\":126:175   */\n      tag_68\n        /* \"#utility.yul\":168:174   */\n      dup5\n        /* \"#utility.yul\":126:175   */\n      tag_69\n      jump\t// in\n    tag_68:\n        /* \"#utility.yul\":110:176   */\n      tag_70\n      jump\t// in\n    tag_67:\n        /* \"#utility.yul\":101:176   */\n      swap1\n      pop\n        /* \"#utility.yul\":199:205   */\n      dup3\n        /* \"#utility.yul\":192:197   */\n      dup2\n        /* \"#utility.yul\":185:206   */\n      mstore\n        /* \"#utility.yul\":237:241   */\n      0x20\n        /* \"#utility.yul\":230:235   */\n      dup2\n        /* \"#utility.yul\":226:242   */\n      add\n        /* \"#utility.yul\":275:278   */\n      dup5\n        /* \"#utility.yul\":266:272   */\n      dup5\n        /* \"#utility.yul\":261:264   */\n      dup5\n        /* \"#utility.yul\":257:273   */\n      add\n        /* \"#utility.yul\":254:279   */\n      gt\n        /* \"#utility.yul\":251:363   */\n      iszero\n      tag_71\n      jumpi\n        /* \"#utility.yul\":282:361   */\n      tag_72\n      tag_73\n      jump\t// in\n    tag_72:\n        /* \"#utility.yul\":251:363   */\n    tag_71:\n        /* \"#utility.yul\":372:413   */\n      tag_74\n        /* \"#utility.yul\":406:412   */\n      dup5\n        /* \"#utility.yul\":401:404   */\n      dup3\n        /* \"#utility.yul\":396:399   */\n      dup6\n        /* \"#utility.yul\":372:413   */\n      tag_75\n      jump\t// in\n    tag_74:\n        /* \"#utility.yul\":91:419   */\n      pop\n        /* \"#utility.yul\":7:419   */\n      swap4\n      swap3\n      pop\n      pop\n      pop\n      jump\t// out\n        /* \"#utility.yul\":425:564   */\n    tag_76:\n        /* \"#utility.yul\":471:476   */\n      0x00\n        /* \"#utility.yul\":509:515   */\n      dup2\n        /* \"#utility.yul\":496:516   */\n      calldataload\n        /* \"#utility.yul\":487:516   */\n      swap1\n      pop\n        /* \"#utility.yul\":525:558   */\n      tag_78\n        /* \"#utility.yul\":552:557   */\n      dup2\n        /* \"#utility.yul\":525:558   */\n      tag_79\n      jump\t// in\n    tag_78:\n        /* \"#utility.yul\":425:564   */\n      swap3\n      swap2\n      pop\n      pop\n      jump\t// out\n        /* \"#utility.yul\":570:737   */\n    tag_80:\n        /* \"#utility.yul\":639:644   */\n      0x00\n        /* \"#utility.yul\":670:676   */\n      dup2\n        /* \"#utility.yul\":664:677   */\n      mload\n        /* \"#utility.yul\":655:677   */\n      swap1\n      pop\n        /* \"#utility.yul\":686:731   */\n      tag_82\n        /* \"#utility.yul\":725:730   */\n      dup2\n        /* \"#utility.yul\":686:731   */\n      tag_83\n      jump\t// in\n    tag_82:\n        /* \"#utility.yul\":570:737   */\n      swap3\n      swap2\n      pop\n      pop\n      jump\t// out\n        /* \"#utility.yul\":757:1097   */\n    tag_84:\n        /* \"#utility.yul\":813:818   */\n      0x00\n        /* \"#utility.yul\":862:865   */\n      dup3\n        /* \"#utility.yul\":855:859   */\n      0x1f\n        /* \"#utility.yul\":847:853   */\n      dup4\n        /* \"#utility.yul\":843:860   */\n      add\n        /* \"#utility.yul\":839:866   */\n      slt\n        /* \"#utility.yul\":829:951   */\n      tag_86\n      jumpi\n        /* \"#utility.yul\":870:949   */\n      tag_87\n      tag_88\n      jump\t// in\n    tag_87:\n        /* \"#utility.yul\":829:951   */\n    tag_86:\n        /* \"#utility.yul\":987:993   */\n      dup2\n        /* \"#utility.yul\":974:994   */\n      calldataload\n        /* \"#utility.yul\":1012:1091   */\n      tag_89\n        /* \"#utility.yul\":1087:1090   */\n      dup5\n        /* \"#utility.yul\":1079:1085   */\n      dup3\n        /* \"#utility.yul\":1072:1076   */\n      0x20\n        /* \"#utility.yul\":1064:1070   */\n      dup7\n        /* \"#utility.yul\":1060:1077   */\n      add\n        /* \"#utility.yul\":1012:1091   */\n      tag_65\n      jump\t// in\n    tag_89:\n        /* \"#utility.yul\":1003:1091   */\n      swap2\n      pop\n        /* \"#utility.yul\":819:1097   */\n      pop\n        /* \"#utility.yul\":757:1097   */\n      swap3\n      swap2\n      pop\n      pop\n      jump\t// out\n        /* \"#utility.yul\":1103:1246   */\n    tag_90:\n        /* \"#utility.yul\":1160:1165   */\n      0x00\n        /* \"#utility.yul\":1191:1197   */\n      dup2\n        /* \"#utility.yul\":1185:1198   */\n      mload\n        /* \"#utility.yul\":1176:1198   */\n      swap1\n      pop\n        /* \"#utility.yul\":1207:1240   */\n      tag_92\n        /* \"#utility.yul\":1234:1239   */\n      dup2\n        /* \"#utility.yul\":1207:1240   */\n      tag_93\n      jump\t// in\n    tag_92:\n        /* \"#utility.yul\":1103:1246   */\n      swap3\n      swap2\n      pop\n      pop\n      jump\t// out\n        /* \"#utility.yul\":1252:1581   */\n    tag_30:\n        /* \"#utility.yul\":1311:1317   */\n      0x00\n        /* \"#utility.yul\":1360:1362   */\n      0x20\n        /* \"#utility.yul\":1348:1357   */\n      dup3\n        /* \"#utility.yul\":1339:1346   */\n      dup5\n        /* \"#utility.yul\":1335:1358   */\n      sub\n        /* \"#utility.yul\":1331:1363   */\n      slt\n        /* \"#utility.yul\":1328:1447   */\n      iszero\n      tag_95\n      jumpi\n        /* \"#utility.yul\":1366:1445   */\n      tag_96\n      tag_97\n      jump\t// in\n    tag_96:\n        /* \"#utility.yul\":1328:1447   */\n    tag_95:\n        /* \"#utility.yul\":1486:1487   */\n      0x00\n        /* \"#utility.yul\":1511:1564   */\n      tag_98\n        /* \"#utility.yul\":1556:1563   */\n      dup5\n        /* \"#utility.yul\":1547:1553   */\n      dup3\n        /* \"#utility.yul\":1536:1545   */\n      dup6\n        /* \"#utility.yul\":1532:1554   */\n      add\n        /* \"#utility.yul\":1511:1564   */\n      tag_76\n      jump\t// in\n    tag_98:\n        /* \"#utility.yul\":1501:1564   */\n      swap2\n      pop\n        /* \"#utility.yul\":1457:1574   */\n      pop\n        /* \"#utility.yul\":1252:1581   */\n      swap3\n      swap2\n      pop\n      pop\n      jump\t// out\n        /* \"#utility.yul\":1587:1962   */\n    tag_40:\n        /* \"#utility.yul\":1669:1675   */\n      0x00\n        /* \"#utility.yul\":1718:1720   */\n      0x20\n        /* \"#utility.yul\":1706:1715   */\n      dup3\n        /* \"#utility.yul\":1697:1704   */\n      dup5\n        /* \"#utility.yul\":1693:1716   */\n      sub\n        /* \"#utility.yul\":1689:1721   */\n      slt\n        /* \"#utility.yul\":1686:1805   */\n      iszero\n      tag_100\n      jumpi\n        /* \"#utility.yul\":1724:1803   */\n      tag_101\n      tag_97\n      jump\t// in\n    tag_101:\n        /* \"#utility.yul\":1686:1805   */\n    tag_100:\n        /* \"#utility.yul\":1844:1845   */\n      0x00\n        /* \"#utility.yul\":1869:1945   */\n      tag_102\n        /* \"#utility.yul\":1937:1944   */\n      dup5\n        /* \"#utility.yul\":1928:1934   */\n      dup3\n        /* \"#utility.yul\":1917:1926   */\n      dup6\n        /* \"#utility.yul\":1913:1935   */\n      add\n        /* \"#utility.yul\":1869:1945   */\n      tag_80\n      jump\t// in\n    tag_102:\n        /* \"#utility.yul\":1859:1945   */\n      swap2\n      pop\n        /* \"#utility.yul\":1815:1955   */\n      pop\n        /* \"#utility.yul\":1587:1962   */\n      swap3\n      swap2\n      pop\n      pop\n      jump\t// out\n        /* \"#utility.yul\":1968:2477   */\n    tag_15:\n        /* \"#utility.yul\":2037:2043   */\n      0x00\n        /* \"#utility.yul\":2086:2088   */\n      0x20\n        /* \"#utility.yul\":2074:2083   */\n      dup3\n        /* \"#utility.yul\":2065:2072   */\n      dup5\n        /* \"#utility.yul\":2061:2084   */\n      sub\n        /* \"#utility.yul\":2057:2089   */\n      slt\n        /* \"#utility.yul\":2054:2173   */\n      iszero\n      tag_104\n      jumpi\n        /* \"#utility.yul\":2092:2171   */\n      tag_105\n      tag_97\n      jump\t// in\n    tag_105:\n        /* \"#utility.yul\":2054:2173   */\n    tag_104:\n        /* \"#utility.yul\":2240:2241   */\n      0x00\n        /* \"#utility.yul\":2229:2238   */\n      dup3\n        /* \"#utility.yul\":2225:2242   */\n      add\n        /* \"#utility.yul\":2212:2243   */\n      calldataload\n        /* \"#utility.yul\":2270:2288   */\n      0xffffffffffffffff\n        /* \"#utility.yul\":2262:2268   */\n      dup2\n        /* \"#utility.yul\":2259:2289   */\n      gt\n        /* \"#utility.yul\":2256:2373   */\n      iszero\n      tag_106\n      jumpi\n        /* \"#utility.yul\":2292:2371   */\n      tag_107\n      tag_108\n      jump\t// in\n    tag_107:\n        /* \"#utility.yul\":2256:2373   */\n    tag_106:\n        /* \"#utility.yul\":2397:2460   */\n      tag_109\n        /* \"#utility.yul\":2452:2459   */\n      dup5\n        /* \"#utility.yul\":2443:2449   */\n      dup3\n        /* \"#utility.yul\":2432:2441   */\n      dup6\n        /* \"#utility.yul\":2428:2450   */\n      add\n        /* \"#utility.yul\":2397:2460   */\n      tag_84\n      jump\t// in\n    tag_109:\n        /* \"#utility.yul\":2387:2460   */\n      swap2\n      pop\n        /* \"#utility.yul\":2183:2470   */\n      pop\n        /* \"#utility.yul\":1968:2477   */\n      swap3\n      swap2\n      pop\n      pop\n      jump\t// out\n        /* \"#utility.yul\":2483:2834   */\n    tag_50:\n        /* \"#utility.yul\":2553:2559   */\n      0x00\n        /* \"#utility.yul\":2602:2604   */\n      0x20\n        /* \"#utility.yul\":2590:2599   */\n      dup3\n        /* \"#utility.yul\":2581:2588   */\n      dup5\n        /* \"#utility.yul\":2577:2600   */\n      sub\n        /* \"#utility.yul\":2573:2605   */\n      slt\n        /* \"#utility.yul\":2570:2689   */\n      iszero\n      tag_111\n      jumpi\n        /* \"#utility.yul\":2608:2687   */\n      tag_112\n      tag_97\n      jump\t// in\n    tag_112:\n        /* \"#utility.yul\":2570:2689   */\n    tag_111:\n        /* \"#utility.yul\":2728:2729   */\n      0x00\n        /* \"#utility.yul\":2753:2817   */\n      tag_113\n        /* \"#utility.yul\":2809:2816   */\n      dup5\n        /* \"#utility.yul\":2800:2806   */\n      dup3\n        /* \"#utility.yul\":2789:2798   */\n      dup6\n        /* \"#utility.yul\":2785:2807   */\n      add\n        /* \"#utility.yul\":2753:2817   */\n      tag_90\n      jump\t// in\n    tag_113:\n        /* \"#utility.yul\":2743:2817   */\n      swap2\n      pop\n        /* \"#utility.yul\":2699:2827   */\n      pop\n        /* \"#utility.yul\":2483:2834   */\n      swap3\n      swap2\n      pop\n      pop\n      jump\t// out\n        /* \"#utility.yul\":2840:2958   */\n    tag_114:\n        /* \"#utility.yul\":2927:2951   */\n      tag_116\n        /* \"#utility.yul\":2945:2950   */\n      dup2\n        /* \"#utility.yul\":2927:2951   */\n      tag_117\n      jump\t// in\n    tag_116:\n        /* \"#utility.yul\":2922:2925   */\n      dup3\n        /* \"#utility.yul\":2915:2952   */\n      mstore\n        /* \"#utility.yul\":2840:2958   */\n      pop\n      pop\n      jump\t// out\n        /* \"#utility.yul\":2964:3119   */\n    tag_118:\n        /* \"#utility.yul\":3063:3112   */\n      tag_120\n        /* \"#utility.yul\":3106:3111   */\n      dup2\n        /* \"#utility.yul\":3063:3112   */\n      tag_121\n      jump\t// in\n    tag_120:\n        /* \"#utility.yul\":3058:3061   */\n      dup3\n        /* \"#utility.yul\":3051:3113   */\n      mstore\n        /* \"#utility.yul\":2964:3119   */\n      pop\n      pop\n      jump\t// out\n        /* \"#utility.yul\":3125:3489   */\n    tag_122:\n        /* \"#utility.yul\":3213:3216   */\n      0x00\n        /* \"#utility.yul\":3241:3280   */\n      tag_124\n        /* \"#utility.yul\":3274:3279   */\n      dup3\n        /* \"#utility.yul\":3241:3280   */\n      tag_125\n      jump\t// in\n    tag_124:\n        /* \"#utility.yul\":3296:3367   */\n      tag_126\n        /* \"#utility.yul\":3360:3366   */\n      dup2\n        /* \"#utility.yul\":3355:3358   */\n      dup6\n        /* \"#utility.yul\":3296:3367   */\n      tag_127\n      jump\t// in\n    tag_126:\n        /* \"#utility.yul\":3289:3367   */\n      swap4\n      pop\n        /* \"#utility.yul\":3376:3428   */\n      tag_128\n        /* \"#utility.yul\":3421:3427   */\n      dup2\n        /* \"#utility.yul\":3416:3419   */\n      dup6\n        /* \"#utility.yul\":3409:3413   */\n      0x20\n        /* \"#utility.yul\":3402:3407   */\n      dup7\n        /* \"#utility.yul\":3398:3414   */\n      add\n        /* \"#utility.yul\":3376:3428   */\n      tag_129\n      jump\t// in\n    tag_128:\n        /* \"#utility.yul\":3453:3482   */\n      tag_130\n        /* \"#utility.yul\":3475:3481   */\n      dup2\n        /* \"#utility.yul\":3453:3482   */\n      tag_131\n      jump\t// in\n    tag_130:\n        /* \"#utility.yul\":3448:3451   */\n      dup5\n        /* \"#utility.yul\":3444:3483   */\n      add\n        /* \"#utility.yul\":3437:3483   */\n      swap2\n      pop\n        /* \"#utility.yul\":3217:3489   */\n      pop\n        /* \"#utility.yul\":3125:3489   */\n      swap3\n      swap2\n      pop\n      pop\n      jump\t// out\n        /* \"#utility.yul\":3495:3613   */\n    tag_132:\n        /* \"#utility.yul\":3582:3606   */\n      tag_134\n        /* \"#utility.yul\":3600:3605   */\n      dup2\n        /* \"#utility.yul\":3582:3606   */\n      tag_135\n      jump\t// in\n    tag_134:\n        /* \"#utility.yul\":3577:3580   */\n      dup3\n        /* \"#utility.yul\":3570:3607   */\n      mstore\n        /* \"#utility.yul\":3495:3613   */\n      pop\n      pop\n      jump\t// out\n        /* \"#utility.yul\":3619:3841   */\n    tag_20:\n        /* \"#utility.yul\":3712:3716   */\n      0x00\n        /* \"#utility.yul\":3750:3752   */\n      0x20\n        /* \"#utility.yul\":3739:3748   */\n      dup3\n        /* \"#utility.yul\":3735:3753   */\n      add\n        /* \"#utility.yul\":3727:3753   */\n      swap1\n      pop\n        /* \"#utility.yul\":3763:3834   */\n      tag_137\n        /* \"#utility.yul\":3831:3832   */\n      0x00\n        /* \"#utility.yul\":3820:3829   */\n      dup4\n        /* \"#utility.yul\":3816:3833   */\n      add\n        /* \"#utility.yul\":3807:3813   */\n      dup5\n        /* \"#utility.yul\":3763:3834   */\n      tag_114\n      jump\t// in\n    tag_137:\n        /* \"#utility.yul\":3619:3841   */\n      swap3\n      swap2\n      pop\n      pop\n      jump\t// out\n        /* \"#utility.yul\":3847:4093   */\n    tag_12:\n        /* \"#utility.yul\":3952:3956   */\n      0x00\n        /* \"#utility.yul\":3990:3992   */\n      0x20\n        /* \"#utility.yul\":3979:3988   */\n      dup3\n        /* \"#utility.yul\":3975:3993   */\n      add\n        /* \"#utility.yul\":3967:3993   */\n      swap1\n      pop\n        /* \"#utility.yul\":4003:4086   */\n      tag_139\n        /* \"#utility.yul\":4083:4084   */\n      0x00\n        /* \"#utility.yul\":4072:4081   */\n      dup4\n        /* \"#utility.yul\":4068:4085   */\n      add\n        /* \"#utility.yul\":4059:4065   */\n      dup5\n        /* \"#utility.yul\":4003:4086   */\n      tag_118\n      jump\t// in\n    tag_139:\n        /* \"#utility.yul\":3847:4093   */\n      swap3\n      swap2\n      pop\n      pop\n      jump\t// out\n        /* \"#utility.yul\":4099:4522   */\n    tag_45:\n        /* \"#utility.yul\":4240:4244   */\n      0x00\n        /* \"#utility.yul\":4278:4280   */\n      0x40\n        /* \"#utility.yul\":4267:4276   */\n      dup3\n        /* \"#utility.yul\":4263:4281   */\n      add\n        /* \"#utility.yul\":4255:4281   */\n      swap1\n      pop\n        /* \"#utility.yul\":4327:4336   */\n      dup2\n        /* \"#utility.yul\":4321:4325   */\n      dup2\n        /* \"#utility.yul\":4317:4337   */\n      sub\n        /* \"#utility.yul\":4313:4314   */\n      0x00\n        /* \"#utility.yul\":4302:4311   */\n      dup4\n        /* \"#utility.yul\":4298:4315   */\n      add\n        /* \"#utility.yul\":4291:4338   */\n      mstore\n        /* \"#utility.yul\":4355:4433   */\n      tag_141\n        /* \"#utility.yul\":4428:4432   */\n      dup2\n        /* \"#utility.yul\":4419:4425   */\n      dup6\n        /* \"#utility.yul\":4355:4433   */\n      tag_122\n      jump\t// in\n    tag_141:\n        /* \"#utility.yul\":4347:4433   */\n      swap1\n      pop\n        /* \"#utility.yul\":4443:4515   */\n      tag_142\n        /* \"#utility.yul\":4511:4513   */\n      0x20\n        /* \"#utility.yul\":4500:4509   */\n      dup4\n        /* \"#utility.yul\":4496:4514   */\n      add\n        /* \"#utility.yul\":4487:4493   */\n      dup5\n        /* \"#utility.yul\":4443:4515   */\n      tag_132\n      jump\t// in\n    tag_142:\n        /* \"#utility.yul\":4099:4522   */\n      swap4\n      swap3\n      pop\n      pop\n      pop\n      jump\t// out\n        /* \"#utility.yul\":4528:4750   */\n    tag_24:\n        /* \"#utility.yul\":4621:4625   */\n      0x00\n        /* \"#utility.yul\":4659:4661   */\n      0x20\n        /* \"#utility.yul\":4648:4657   */\n      dup3\n        /* \"#utility.yul\":4644:4662   */\n      add\n        /* \"#utility.yul\":4636:4662   */\n      swap1\n      pop\n        /* \"#utility.yul\":4672:4743   */\n      tag_144\n        /* \"#utility.yul\":4740:4741   */\n      0x00\n        /* \"#utility.yul\":4729:4738   */\n      dup4\n        /* \"#utility.yul\":4725:4742   */\n      add\n        /* \"#utility.yul\":4716:4722   */\n      dup5\n        /* \"#utility.yul\":4672:4743   */\n      tag_132\n      jump\t// in\n    tag_144:\n        /* \"#utility.yul\":4528:4750   */\n      swap3\n      swap2\n      pop\n      pop\n      jump\t// out\n        /* \"#utility.yul\":4756:4885   */\n    tag_70:\n        /* \"#utility.yul\":4790:4796   */\n      0x00\n        /* \"#utility.yul\":4817:4837   */\n      tag_146\n      tag_147\n      jump\t// in\n    tag_146:\n        /* \"#utility.yul\":4807:4837   */\n      swap1\n      pop\n        /* \"#utility.yul\":4846:4879   */\n      tag_148\n        /* \"#utility.yul\":4874:4878   */\n      dup3\n        /* \"#utility.yul\":4866:4872   */\n      dup3\n        /* \"#utility.yul\":4846:4879   */\n      tag_149\n      jump\t// in\n    tag_148:\n        /* \"#utility.yul\":4756:4885   */\n      swap2\n      swap1\n      pop\n      jump\t// out\n        /* \"#utility.yul\":4891:4966   */\n    tag_147:\n        /* \"#utility.yul\":4924:4930   */\n      0x00\n        /* \"#utility.yul\":4957:4959   */\n      0x40\n        /* \"#utility.yul\":4951:4960   */\n      mload\n        /* \"#utility.yul\":4941:4960   */\n      swap1\n      pop\n        /* \"#utility.yul\":4891:4966   */\n      swap1\n      jump\t// out\n        /* \"#utility.yul\":4972:5280   */\n    tag_69:\n        /* \"#utility.yul\":5034:5038   */\n      0x00\n        /* \"#utility.yul\":5124:5142   */\n      0xffffffffffffffff\n        /* \"#utility.yul\":5116:5122   */\n      dup3\n        /* \"#utility.yul\":5113:5143   */\n      gt\n        /* \"#utility.yul\":5110:5166   */\n      iszero\n      tag_152\n      jumpi\n        /* \"#utility.yul\":5146:5164   */\n      tag_153\n      tag_154\n      jump\t// in\n    tag_153:\n        /* \"#utility.yul\":5110:5166   */\n    tag_152:\n        /* \"#utility.yul\":5184:5213   */\n      tag_155\n        /* \"#utility.yul\":5206:5212   */\n      dup3\n        /* \"#utility.yul\":5184:5213   */\n      tag_131\n      jump\t// in\n    tag_155:\n        /* \"#utility.yul\":5176:5213   */\n      swap1\n      pop\n        /* \"#utility.yul\":5268:5272   */\n      0x20\n        /* \"#utility.yul\":5262:5266   */\n      dup2\n        /* \"#utility.yul\":5258:5273   */\n      add\n        /* \"#utility.yul\":5250:5273   */\n      swap1\n      pop\n        /* \"#utility.yul\":4972:5280   */\n      swap2\n      swap1\n      pop\n      jump\t// out\n        /* \"#utility.yul\":5286:5385   */\n    tag_125:\n        /* \"#utility.yul\":5338:5344   */\n      0x00\n        /* \"#utility.yul\":5372:5377   */\n      dup2\n        /* \"#utility.yul\":5366:5378   */\n      mload\n        /* \"#utility.yul\":5356:5378   */\n      swap1\n      pop\n        /* \"#utility.yul\":5286:5385   */\n      swap2\n      swap1\n      pop\n      jump\t// out\n        /* \"#utility.yul\":5391:5560   */\n    tag_127:\n        /* \"#utility.yul\":5475:5486   */\n      0x00\n        /* \"#utility.yul\":5509:5515   */\n      dup3\n        /* \"#utility.yul\":5504:5507   */\n      dup3\n        /* \"#utility.yul\":5497:5516   */\n      mstore\n        /* \"#utility.yul\":5549:5553   */\n      0x20\n        /* \"#utility.yul\":5544:5547   */\n      dup3\n        /* \"#utility.yul\":5540:5554   */\n      add\n        /* \"#utility.yul\":5525:5554   */\n      swap1\n      pop\n        /* \"#utility.yul\":5391:5560   */\n      swap3\n      swap2\n      pop\n      pop\n      jump\t// out\n        /* \"#utility.yul\":5566:5662   */\n    tag_117:\n        /* \"#utility.yul\":5603:5610   */\n      0x00\n        /* \"#utility.yul\":5632:5656   */\n      tag_159\n        /* \"#utility.yul\":5650:5655   */\n      dup3\n        /* \"#utility.yul\":5632:5656   */\n      tag_160\n      jump\t// in\n    tag_159:\n        /* \"#utility.yul\":5621:5656   */\n      swap1\n      pop\n        /* \"#utility.yul\":5566:5662   */\n      swap2\n      swap1\n      pop\n      jump\t// out\n        /* \"#utility.yul\":5668:5776   */\n    tag_161:\n        /* \"#utility.yul\":5717:5724   */\n      0x00\n        /* \"#utility.yul\":5746:5770   */\n      tag_163\n        /* \"#utility.yul\":5764:5769   */\n      dup3\n        /* \"#utility.yul\":5746:5770   */\n      tag_117\n      jump\t// in\n    tag_163:\n        /* \"#utility.yul\":5735:5770   */\n      swap1\n      pop\n        /* \"#utility.yul\":5668:5776   */\n      swap2\n      swap1\n      pop\n      jump\t// out\n        /* \"#utility.yul\":5782:5908   */\n    tag_160:\n        /* \"#utility.yul\":5819:5826   */\n      0x00\n        /* \"#utility.yul\":5859:5901   */\n      0xffffffffffffffffffffffffffffffffffffffff\n        /* \"#utility.yul\":5852:5857   */\n      dup3\n        /* \"#utility.yul\":5848:5902   */\n      and\n        /* \"#utility.yul\":5837:5902   */\n      swap1\n      pop\n        /* \"#utility.yul\":5782:5908   */\n      swap2\n      swap1\n      pop\n      jump\t// out\n        /* \"#utility.yul\":5914:5991   */\n    tag_135:\n        /* \"#utility.yul\":5951:5958   */\n      0x00\n        /* \"#utility.yul\":5980:5985   */\n      dup2\n        /* \"#utility.yul\":5969:5985   */\n      swap1\n      pop\n        /* \"#utility.yul\":5914:5991   */\n      swap2\n      swap1\n      pop\n      jump\t// out\n        /* \"#utility.yul\":5997:6135   */\n    tag_121:\n        /* \"#utility.yul\":6059:6068   */\n      0x00\n        /* \"#utility.yul\":6092:6129   */\n      tag_167\n        /* \"#utility.yul\":6123:6128   */\n      dup3\n        /* \"#utility.yul\":6092:6129   */\n      tag_168\n      jump\t// in\n    tag_167:\n        /* \"#utility.yul\":6079:6129   */\n      swap1\n      pop\n        /* \"#utility.yul\":5997:6135   */\n      swap2\n      swap1\n      pop\n      jump\t// out\n        /* \"#utility.yul\":6141:6267   */\n    tag_168:\n        /* \"#utility.yul\":6191:6200   */\n      0x00\n        /* \"#utility.yul\":6224:6261   */\n      tag_170\n        /* \"#utility.yul\":6255:6260   */\n      dup3\n        /* \"#utility.yul\":6224:6261   */\n      tag_171\n      jump\t// in\n    tag_170:\n        /* \"#utility.yul\":6211:6261   */\n      swap1\n      pop\n        /* \"#utility.yul\":6141:6267   */\n      swap2\n      swap1\n      pop\n      jump\t// out\n        /* \"#utility.yul\":6273:6386   */\n    tag_171:\n        /* \"#utility.yul\":6323:6332   */\n      0x00\n        /* \"#utility.yul\":6356:6380   */\n      tag_173\n        /* \"#utility.yul\":6374:6379   */\n      dup3\n        /* \"#utility.yul\":6356:6380   */\n      tag_160\n      jump\t// in\n    tag_173:\n        /* \"#utility.yul\":6343:6380   */\n      swap1\n      pop\n        /* \"#utility.yul\":6273:6386   */\n      swap2\n      swap1\n      pop\n      jump\t// out\n        /* \"#utility.yul\":6392:6546   */\n    tag_75:\n        /* \"#utility.yul\":6476:6482   */\n      dup3\n        /* \"#utility.yul\":6471:6474   */\n      dup2\n        /* \"#utility.yul\":6466:6469   */\n      dup4\n        /* \"#utility.yul\":6453:6483   */\n      calldatacopy\n        /* \"#utility.yul\":6538:6539   */\n      0x00\n        /* \"#utility.yul\":6529:6535   */\n      dup4\n        /* \"#utility.yul\":6524:6527   */\n      dup4\n        /* \"#utility.yul\":6520:6536   */\n      add\n        /* \"#utility.yul\":6513:6540   */\n      mstore\n        /* \"#utility.yul\":6392:6546   */\n      pop\n      pop\n      pop\n      jump\t// out\n        /* \"#utility.yul\":6552:6859   */\n    tag_129:\n        /* \"#utility.yul\":6620:6621   */\n      0x00\n        /* \"#utility.yul\":6630:6743   */\n    tag_176:\n        /* \"#utility.yul\":6644:6650   */\n      dup4\n        /* \"#utility.yul\":6641:6642   */\n      dup2\n        /* \"#utility.yul\":6638:6651   */\n      lt\n        /* \"#utility.yul\":6630:6743   */\n      iszero\n      tag_178\n      jumpi\n        /* \"#utility.yul\":6729:6730   */\n      dup1\n        /* \"#utility.yul\":6724:6727   */\n      dup3\n        /* \"#utility.yul\":6720:6731   */\n      add\n        /* \"#utility.yul\":6714:6732   */\n      mload\n        /* \"#utility.yul\":6710:6711   */\n      dup2\n        /* \"#utility.yul\":6705:6708   */\n      dup5\n        /* \"#utility.yul\":6701:6712   */\n      add\n        /* \"#utility.yul\":6694:6733   */\n      mstore\n        /* \"#utility.yul\":6666:6668   */\n      0x20\n        /* \"#utility.yul\":6663:6664   */\n      dup2\n        /* \"#utility.yul\":6659:6669   */\n      add\n        /* \"#utility.yul\":6654:6669   */\n      swap1\n      pop\n        /* \"#utility.yul\":6630:6743   */\n      jump(tag_176)\n    tag_178:\n        /* \"#utility.yul\":6761:6767   */\n      dup4\n        /* \"#utility.yul\":6758:6759   */\n      dup2\n        /* \"#utility.yul\":6755:6768   */\n      gt\n        /* \"#utility.yul\":6752:6853   */\n      iszero\n      tag_179\n      jumpi\n        /* \"#utility.yul\":6841:6842   */\n      0x00\n        /* \"#utility.yul\":6832:6838   */\n      dup5\n        /* \"#utility.yul\":6827:6830   */\n      dup5\n        /* \"#utility.yul\":6823:6839   */\n      add\n        /* \"#utility.yul\":6816:6843   */\n      mstore\n        /* \"#utility.yul\":6752:6853   */\n    tag_179:\n        /* \"#utility.yul\":6601:6859   */\n      pop\n        /* \"#utility.yul\":6552:6859   */\n      pop\n      pop\n      pop\n      jump\t// out\n        /* \"#utility.yul\":6865:7146   */\n    tag_149:\n        /* \"#utility.yul\":6948:6975   */\n      tag_181\n        /* \"#utility.yul\":6970:6974   */\n      dup3\n        /* \"#utility.yul\":6948:6975   */\n      tag_131\n      jump\t// in\n    tag_181:\n        /* \"#utility.yul\":6940:6946   */\n      dup2\n        /* \"#utility.yul\":6936:6976   */\n      add\n        /* \"#utility.yul\":7078:7084   */\n      dup2\n        /* \"#utility.yul\":7066:7076   */\n      dup2\n        /* \"#utility.yul\":7063:7085   */\n      lt\n        /* \"#utility.yul\":7042:7060   */\n      0xffffffffffffffff\n        /* \"#utility.yul\":7030:7040   */\n      dup3\n        /* \"#utility.yul\":7027:7061   */\n      gt\n        /* \"#utility.yul\":7024:7086   */\n      or\n        /* \"#utility.yul\":7021:7109   */\n      iszero\n      tag_182\n      jumpi\n        /* \"#utility.yul\":7089:7107   */\n      tag_183\n      tag_154\n      jump\t// in\n    tag_183:\n        /* \"#utility.yul\":7021:7109   */\n    tag_182:\n        /* \"#utility.yul\":7129:7139   */\n      dup1\n        /* \"#utility.yul\":7125:7127   */\n      0x40\n        /* \"#utility.yul\":7118:7140   */\n      mstore\n        /* \"#utility.yul\":6908:7146   */\n      pop\n        /* \"#utility.yul\":6865:7146   */\n      pop\n      pop\n      jump\t// out\n        /* \"#utility.yul\":7152:7332   */\n    tag_154:\n        /* \"#utility.yul\":7200:7277   */\n      0x4e487b7100000000000000000000000000000000000000000000000000000000\n        /* \"#utility.yul\":7197:7198   */\n      0x00\n        /* \"#utility.yul\":7190:7278   */\n      mstore\n        /* \"#utility.yul\":7297:7301   */\n      0x41\n        /* \"#utility.yul\":7294:7295   */\n      0x04\n        /* \"#utility.yul\":7287:7302   */\n      mstore\n        /* \"#utility.yul\":7321:7325   */\n      0x24\n        /* \"#utility.yul\":7318:7319   */\n      0x00\n        /* \"#utility.yul\":7311:7326   */\n      revert\n        /* \"#utility.yul\":7338:7455   */\n    tag_88:\n        /* \"#utility.yul\":7447:7448   */\n      0x00\n        /* \"#utility.yul\":7444:7445   */\n      dup1\n        /* \"#utility.yul\":7437:7449   */\n      revert\n        /* \"#utility.yul\":7461:7578   */\n    tag_73:\n        /* \"#utility.yul\":7570:7571   */\n      0x00\n        /* \"#utility.yul\":7567:7568   */\n      dup1\n        /* \"#utility.yul\":7560:7572   */\n      revert\n        /* \"#utility.yul\":7584:7701   */\n    tag_108:\n        /* \"#utility.yul\":7693:7694   */\n      0x00\n        /* \"#utility.yul\":7690:7691   */\n      dup1\n        /* \"#utility.yul\":7683:7695   */\n      revert\n        /* \"#utility.yul\":7707:7824   */\n    tag_97:\n        /* \"#utility.yul\":7816:7817   */\n      0x00\n        /* \"#utility.yul\":7813:7814   */\n      dup1\n        /* \"#utility.yul\":7806:7818   */\n      revert\n        /* \"#utility.yul\":7830:7932   */\n    tag_131:\n        /* \"#utility.yul\":7871:7877   */\n      0x00\n        /* \"#utility.yul\":7922:7924   */\n      0x1f\n        /* \"#utility.yul\":7918:7925   */\n      not\n        /* \"#utility.yul\":7913:7915   */\n      0x1f\n        /* \"#utility.yul\":7906:7911   */\n      dup4\n        /* \"#utility.yul\":7902:7916   */\n      add\n        /* \"#utility.yul\":7898:7926   */\n      and\n        /* \"#utility.yul\":7888:7926   */\n      swap1\n      pop\n        /* \"#utility.yul\":7830:7932   */\n      swap2\n      swap1\n      pop\n      jump\t// out\n        /* \"#utility.yul\":7938:8060   */\n    tag_79:\n        /* \"#utility.yul\":8011:8035   */\n      tag_191\n        /* \"#utility.yul\":8029:8034   */\n      dup2\n        /* \"#utility.yul\":8011:8035   */\n      tag_117\n      jump\t// in\n    tag_191:\n        /* \"#utility.yul\":8004:8009   */\n      dup2\n        /* \"#utility.yul\":8001:8036   */\n      eq\n        /* \"#utility.yul\":7991:8054   */\n      tag_192\n      jumpi\n        /* \"#utility.yul\":8050:8051   */\n      0x00\n        /* \"#utility.yul\":8047:8048   */\n      dup1\n        /* \"#utility.yul\":8040:8052   */\n      revert\n        /* \"#utility.yul\":7991:8054   */\n    tag_192:\n        /* \"#utility.yul\":7938:8060   */\n      pop\n      jump\t// out\n        /* \"#utility.yul\":8066:8212   */\n    tag_83:\n        /* \"#utility.yul\":8151:8187   */\n      tag_194\n        /* \"#utility.yul\":8181:8186   */\n      dup2\n        /* \"#utility.yul\":8151:8187   */\n      tag_161\n      jump\t// in\n    tag_194:\n        /* \"#utility.yul\":8144:8149   */\n      dup2\n        /* \"#utility.yul\":8141:8188   */\n      eq\n        /* \"#utility.yul\":8131:8206   */\n      tag_195\n      jumpi\n        /* \"#utility.yul\":8202:8203   */\n      0x00\n        /* \"#utility.yul\":8199:8200   */\n      dup1\n        /* \"#utility.yul\":8192:8204   */\n      revert\n        /* \"#utility.yul\":8131:8206   */\n    tag_195:\n        /* \"#utility.yul\":8066:8212   */\n      pop\n      jump\t// out\n        /* \"#utility.yul\":8218:8340   */\n    tag_93:\n        /* \"#utility.yul\":8291:8315   */\n      tag_197\n        /* \"#utility.yul\":8309:8314   */\n      dup2\n        /* \"#utility.yul\":8291:8315   */\n      tag_135\n      jump\t// in\n    tag_197:\n        /* \"#utility.yul\":8284:8289   */\n      dup2\n        /* \"#utility.yul\":8281:8316   */\n      eq\n        /* \"#utility.yul\":8271:8334   */\n      tag_198\n      jumpi\n        /* \"#utility.yul\":8330:8331   */\n      0x00\n        /* \"#utility.yul\":8327:8328   */\n      dup1\n        /* \"#utility.yul\":8320:8332   */\n      revert\n        /* \"#utility.yul\":8271:8334   */\n    tag_198:\n        /* \"#utility.yul\":8218:8340   */\n      pop\n      jump\t// out\n\n    auxdata: 0xa2646970667358221220fdc778d3a7dcea2414e6c73c990eb122c29a539a92499be941188a289a83134d64736f6c63430008070033\n}\n\nsub_1: assembly {\n        /* \"contracts/Palabra.sol\":70:1448  contract Word {... */\n      mstore(0x40, 0x80)\n        /* \"contracts/Palabra.sol\":123:208  constructor(string memory s){... */\n      callvalue\n      dup1\n      iszero\n      tag_1\n      jumpi\n      0x00\n      dup1\n      revert\n    tag_1:\n      pop\n      mload(0x40)\n      sub(codesize, bytecodeSize)\n      dup1\n      bytecodeSize\n      dup4\n      codecopy\n      dup2\n      dup2\n      add\n      0x40\n      mstore\n      dup2\n      add\n      swap1\n      tag_2\n      swap2\n      swap1\n      tag_3\n      jump\t// in\n    tag_2:\n        /* \"contracts/Palabra.sol\":167:168  s */\n      dup1\n        /* \"contracts/Palabra.sol\":161:164  str */\n      0x00\n        /* \"contracts/Palabra.sol\":161:168  str = s */\n      swap1\n      dup1\n      mload\n      swap1\n      0x20\n      add\n      swap1\n      tag_6\n      swap3\n      swap2\n      swap1\n      tag_7\n      jump\t// in\n    tag_6:\n      pop\n        /* \"contracts/Palabra.sol\":190:193  str */\n      0x00\n        /* \"contracts/Palabra.sol\":184:201  bytes(str).length */\n      dup1\n      sload\n      tag_8\n      swap1\n      tag_9\n      jump\t// in\n    tag_8:\n      swap1\n      pop\n        /* \"contracts/Palabra.sol\":178:181  len */\n      0x01\n        /* \"contracts/Palabra.sol\":178:201  len = bytes(str).length */\n      dup2\n      swap1\n      sstore\n      pop\n        /* \"contracts/Palabra.sol\":123:208  constructor(string memory s){... */\n      pop\n        /* \"contracts/Palabra.sol\":70:1448  contract Word {... */\n      jump(tag_10)\n    tag_7:\n      dup3\n      dup1\n      sload\n      tag_11\n      swap1\n      tag_9\n      jump\t// in\n    tag_11:\n      swap1\n      0x00\n      mstore\n      keccak256(0x00, 0x20)\n      swap1\n      0x1f\n      add\n      0x20\n      swap1\n      div\n      dup2\n      add\n      swap3\n      dup3\n      tag_13\n      jumpi\n      0x00\n      dup6\n      sstore\n      jump(tag_12)\n    tag_13:\n      dup3\n      0x1f\n      lt\n      tag_14\n      jumpi\n      dup1\n      mload\n      not(0xff)\n      and\n      dup4\n      dup1\n      add\n      or\n      dup6\n      sstore\n      jump(tag_12)\n    tag_14:\n      dup3\n      dup1\n      add\n      0x01\n      add\n      dup6\n      sstore\n      dup3\n      iszero\n      tag_12\n      jumpi\n      swap2\n      dup3\n      add\n    tag_15:\n      dup3\n      dup2\n      gt\n      iszero\n      tag_16\n      jumpi\n      dup3\n      mload\n      dup3\n      sstore\n      swap2\n      0x20\n      add\n      swap2\n      swap1\n      0x01\n      add\n      swap1\n      jump(tag_15)\n    tag_16:\n    tag_12:\n      pop\n      swap1\n      pop\n      tag_17\n      swap2\n      swap1\n      tag_18\n      jump\t// in\n    tag_17:\n      pop\n      swap1\n      jump\t// out\n    tag_18:\n    tag_19:\n      dup1\n      dup3\n      gt\n      iszero\n      tag_20\n      jumpi\n      0x00\n      dup2\n      0x00\n      swap1\n      sstore\n      pop\n      0x01\n      add\n      jump(tag_19)\n    tag_20:\n      pop\n      swap1\n      jump\t// out\n        /* \"#utility.yul\":7:428   */\n    tag_22:\n        /* \"#utility.yul\":96:101   */\n      0x00\n        /* \"#utility.yul\":121:187   */\n      tag_24\n        /* \"#utility.yul\":137:186   */\n      tag_25\n        /* \"#utility.yul\":179:185   */\n      dup5\n        /* \"#utility.yul\":137:186   */\n      tag_26\n      jump\t// in\n    tag_25:\n        /* \"#utility.yul\":121:187   */\n      tag_27\n      jump\t// in\n    tag_24:\n        /* \"#utility.yul\":112:187   */\n      swap1\n      pop\n        /* \"#utility.yul\":210:216   */\n      dup3\n        /* \"#utility.yul\":203:208   */\n      dup2\n        /* \"#utility.yul\":196:217   */\n      mstore\n        /* \"#utility.yul\":248:252   */\n      0x20\n        /* \"#utility.yul\":241:246   */\n      dup2\n        /* \"#utility.yul\":237:253   */\n      add\n        /* \"#utility.yul\":286:289   */\n      dup5\n        /* \"#utility.yul\":277:283   */\n      dup5\n        /* \"#utility.yul\":272:275   */\n      dup5\n        /* \"#utility.yul\":268:284   */\n      add\n        /* \"#utility.yul\":265:290   */\n      gt\n        /* \"#utility.yul\":262:374   */\n      iszero\n      tag_28\n      jumpi\n        /* \"#utility.yul\":293:372   */\n      tag_29\n      tag_30\n      jump\t// in\n    tag_29:\n        /* \"#utility.yul\":262:374   */\n    tag_28:\n        /* \"#utility.yul\":383:422   */\n      tag_31\n        /* \"#utility.yul\":415:421   */\n      dup5\n        /* \"#utility.yul\":410:413   */\n      dup3\n        /* \"#utility.yul\":405:408   */\n      dup6\n        /* \"#utility.yul\":383:422   */\n      tag_32\n      jump\t// in\n    tag_31:\n        /* \"#utility.yul\":102:428   */\n      pop\n        /* \"#utility.yul\":7:428   */\n      swap4\n      swap3\n      pop\n      pop\n      pop\n      jump\t// out\n        /* \"#utility.yul\":448:803   */\n    tag_33:\n        /* \"#utility.yul\":515:520   */\n      0x00\n        /* \"#utility.yul\":564:567   */\n      dup3\n        /* \"#utility.yul\":557:561   */\n      0x1f\n        /* \"#utility.yul\":549:555   */\n      dup4\n        /* \"#utility.yul\":545:562   */\n      add\n        /* \"#utility.yul\":541:568   */\n      slt\n        /* \"#utility.yul\":531:653   */\n      tag_35\n      jumpi\n        /* \"#utility.yul\":572:651   */\n      tag_36\n      tag_37\n      jump\t// in\n    tag_36:\n        /* \"#utility.yul\":531:653   */\n    tag_35:\n        /* \"#utility.yul\":682:688   */\n      dup2\n        /* \"#utility.yul\":676:689   */\n      mload\n        /* \"#utility.yul\":707:797   */\n      tag_38\n        /* \"#utility.yul\":793:796   */\n      dup5\n        /* \"#utility.yul\":785:791   */\n      dup3\n        /* \"#utility.yul\":778:782   */\n      0x20\n        /* \"#utility.yul\":770:776   */\n      dup7\n        /* \"#utility.yul\":766:783   */\n      add\n        /* \"#utility.yul\":707:797   */\n      tag_22\n      jump\t// in\n    tag_38:\n        /* \"#utility.yul\":698:797   */\n      swap2\n      pop\n        /* \"#utility.yul\":521:803   */\n      pop\n        /* \"#utility.yul\":448:803   */\n      swap3\n      swap2\n      pop\n      pop\n      jump\t// out\n        /* \"#utility.yul\":809:1333   */\n    tag_3:\n        /* \"#utility.yul\":889:895   */\n      0x00\n        /* \"#utility.yul\":938:940   */\n      0x20\n        /* \"#utility.yul\":926:935   */\n      dup3\n        /* \"#utility.yul\":917:924   */\n      dup5\n        /* \"#utility.yul\":913:936   */\n      sub\n        /* \"#utility.yul\":909:941   */\n      slt\n        /* \"#utility.yul\":906:1025   */\n      iszero\n      tag_40\n      jumpi\n        /* \"#utility.yul\":944:1023   */\n      tag_41\n      tag_42\n      jump\t// in\n    tag_41:\n        /* \"#utility.yul\":906:1025   */\n    tag_40:\n        /* \"#utility.yul\":1085:1086   */\n      0x00\n        /* \"#utility.yul\":1074:1083   */\n      dup3\n        /* \"#utility.yul\":1070:1087   */\n      add\n        /* \"#utility.yul\":1064:1088   */\n      mload\n        /* \"#utility.yul\":1115:1133   */\n      0xffffffffffffffff\n        /* \"#utility.yul\":1107:1113   */\n      dup2\n        /* \"#utility.yul\":1104:1134   */\n      gt\n        /* \"#utility.yul\":1101:1218   */\n      iszero\n      tag_43\n      jumpi\n        /* \"#utility.yul\":1137:1216   */\n      tag_44\n      tag_45\n      jump\t// in\n    tag_44:\n        /* \"#utility.yul\":1101:1218   */\n    tag_43:\n        /* \"#utility.yul\":1242:1316   */\n      tag_46\n        /* \"#utility.yul\":1308:1315   */\n      dup5\n        /* \"#utility.yul\":1299:1305   */\n      dup3\n        /* \"#utility.yul\":1288:1297   */\n      dup6\n        /* \"#utility.yul\":1284:1306   */\n      add\n        /* \"#utility.yul\":1242:1316   */\n      tag_33\n      jump\t// in\n    tag_46:\n        /* \"#utility.yul\":1232:1316   */\n      swap2\n      pop\n        /* \"#utility.yul\":1035:1326   */\n      pop\n        /* \"#utility.yul\":809:1333   */\n      swap3\n      swap2\n      pop\n      pop\n      jump\t// out\n        /* \"#utility.yul\":1339:1468   */\n    tag_27:\n        /* \"#utility.yul\":1373:1379   */\n      0x00\n        /* \"#utility.yul\":1400:1420   */\n      tag_48\n      tag_49\n      jump\t// in\n    tag_48:\n        /* \"#utility.yul\":1390:1420   */\n      swap1\n      pop\n        /* \"#utility.yul\":1429:1462   */\n      tag_50\n        /* \"#utility.yul\":1457:1461   */\n      dup3\n        /* \"#utility.yul\":1449:1455   */\n      dup3\n        /* \"#utility.yul\":1429:1462   */\n      tag_51\n      jump\t// in\n    tag_50:\n        /* \"#utility.yul\":1339:1468   */\n      swap2\n      swap1\n      pop\n      jump\t// out\n        /* \"#utility.yul\":1474:1549   */\n    tag_49:\n        /* \"#utility.yul\":1507:1513   */\n      0x00\n        /* \"#utility.yul\":1540:1542   */\n      0x40\n        /* \"#utility.yul\":1534:1543   */\n      mload\n        /* \"#utility.yul\":1524:1543   */\n      swap1\n      pop\n        /* \"#utility.yul\":1474:1549   */\n      swap1\n      jump\t// out\n        /* \"#utility.yul\":1555:1863   */\n    tag_26:\n        /* \"#utility.yul\":1617:1621   */\n      0x00\n        /* \"#utility.yul\":1707:1725   */\n      0xffffffffffffffff\n        /* \"#utility.yul\":1699:1705   */\n      dup3\n        /* \"#utility.yul\":1696:1726   */\n      gt\n        /* \"#utility.yul\":1693:1749   */\n      iszero\n      tag_54\n      jumpi\n        /* \"#utility.yul\":1729:1747   */\n      tag_55\n      tag_56\n      jump\t// in\n    tag_55:\n        /* \"#utility.yul\":1693:1749   */\n    tag_54:\n        /* \"#utility.yul\":1767:1796   */\n      tag_57\n        /* \"#utility.yul\":1789:1795   */\n      dup3\n        /* \"#utility.yul\":1767:1796   */\n      tag_58\n      jump\t// in\n    tag_57:\n        /* \"#utility.yul\":1759:1796   */\n      swap1\n      pop\n        /* \"#utility.yul\":1851:1855   */\n      0x20\n        /* \"#utility.yul\":1845:1849   */\n      dup2\n        /* \"#utility.yul\":1841:1856   */\n      add\n        /* \"#utility.yul\":1833:1856   */\n      swap1\n      pop\n        /* \"#utility.yul\":1555:1863   */\n      swap2\n      swap1\n      pop\n      jump\t// out\n        /* \"#utility.yul\":1869:2176   */\n    tag_32:\n        /* \"#utility.yul\":1937:1938   */\n      0x00\n        /* \"#utility.yul\":1947:2060   */\n    tag_60:\n        /* \"#utility.yul\":1961:1967   */\n      dup4\n        /* \"#utility.yul\":1958:1959   */\n      dup2\n        /* \"#utility.yul\":1955:1968   */\n      lt\n        /* \"#utility.yul\":1947:2060   */\n      iszero\n      tag_62\n      jumpi\n        /* \"#utility.yul\":2046:2047   */\n      dup1\n        /* \"#utility.yul\":2041:2044   */\n      dup3\n        /* \"#utility.yul\":2037:2048   */\n      add\n        /* \"#utility.yul\":2031:2049   */\n      mload\n        /* \"#utility.yul\":2027:2028   */\n      dup2\n        /* \"#utility.yul\":2022:2025   */\n      dup5\n        /* \"#utility.yul\":2018:2029   */\n      add\n        /* \"#utility.yul\":2011:2050   */\n      mstore\n        /* \"#utility.yul\":1983:1985   */\n      0x20\n        /* \"#utility.yul\":1980:1981   */\n      dup2\n        /* \"#utility.yul\":1976:1986   */\n      add\n        /* \"#utility.yul\":1971:1986   */\n      swap1\n      pop\n        /* \"#utility.yul\":1947:2060   */\n      jump(tag_60)\n    tag_62:\n        /* \"#utility.yul\":2078:2084   */\n      dup4\n        /* \"#utility.yul\":2075:2076   */\n      dup2\n        /* \"#utility.yul\":2072:2085   */\n      gt\n        /* \"#utility.yul\":2069:2170   */\n      iszero\n      tag_63\n      jumpi\n        /* \"#utility.yul\":2158:2159   */\n      0x00\n        /* \"#utility.yul\":2149:2155   */\n      dup5\n        /* \"#utility.yul\":2144:2147   */\n      dup5\n        /* \"#utility.yul\":2140:2156   */\n      add\n        /* \"#utility.yul\":2133:2160   */\n      mstore\n        /* \"#utility.yul\":2069:2170   */\n    tag_63:\n        /* \"#utility.yul\":1918:2176   */\n      pop\n        /* \"#utility.yul\":1869:2176   */\n      pop\n      pop\n      pop\n      jump\t// out\n        /* \"#utility.yul\":2182:2502   */\n    tag_9:\n        /* \"#utility.yul\":2226:2232   */\n      0x00\n        /* \"#utility.yul\":2263:2264   */\n      0x02\n        /* \"#utility.yul\":2257:2261   */\n      dup3\n        /* \"#utility.yul\":2253:2265   */\n      div\n        /* \"#utility.yul\":2243:2265   */\n      swap1\n      pop\n        /* \"#utility.yul\":2310:2311   */\n      0x01\n        /* \"#utility.yul\":2304:2308   */\n      dup3\n        /* \"#utility.yul\":2300:2312   */\n      and\n        /* \"#utility.yul\":2331:2349   */\n      dup1\n        /* \"#utility.yul\":2321:2402   */\n      tag_65\n      jumpi\n        /* \"#utility.yul\":2387:2391   */\n      0x7f\n        /* \"#utility.yul\":2379:2385   */\n      dup3\n        /* \"#utility.yul\":2375:2392   */\n      and\n        /* \"#utility.yul\":2365:2392   */\n      swap2\n      pop\n        /* \"#utility.yul\":2321:2402   */\n    tag_65:\n        /* \"#utility.yul\":2449:2451   */\n      0x20\n        /* \"#utility.yul\":2441:2447   */\n      dup3\n        /* \"#utility.yul\":2438:2452   */\n      lt\n        /* \"#utility.yul\":2418:2436   */\n      dup2\n        /* \"#utility.yul\":2415:2453   */\n      eq\n        /* \"#utility.yul\":2412:2496   */\n      iszero\n      tag_66\n      jumpi\n        /* \"#utility.yul\":2468:2486   */\n      tag_67\n      tag_68\n      jump\t// in\n    tag_67:\n        /* \"#utility.yul\":2412:2496   */\n    tag_66:\n        /* \"#utility.yul\":2233:2502   */\n      pop\n        /* \"#utility.yul\":2182:2502   */\n      swap2\n      swap1\n      pop\n      jump\t// out\n        /* \"#utility.yul\":2508:2789   */\n    tag_51:\n        /* \"#utility.yul\":2591:2618   */\n      tag_70\n        /* \"#utility.yul\":2613:2617   */\n      dup3\n        /* \"#utility.yul\":2591:2618   */\n      tag_58\n      jump\t// in\n    tag_70:\n        /* \"#utility.yul\":2583:2589   */\n      dup2\n        /* \"#utility.yul\":2579:2619   */\n      add\n        /* \"#utility.yul\":2721:2727   */\n      dup2\n        /* \"#utility.yul\":2709:2719   */\n      dup2\n        /* \"#utility.yul\":2706:2728   */\n      lt\n        /* \"#utility.yul\":2685:2703   */\n      0xffffffffffffffff\n        /* \"#utility.yul\":2673:2683   */\n      dup3\n        /* \"#utility.yul\":2670:2704   */\n      gt\n        /* \"#utility.yul\":2667:2729   */\n      or\n        /* \"#utility.yul\":2664:2752   */\n      iszero\n      tag_71\n      jumpi\n        /* \"#utility.yul\":2732:2750   */\n      tag_72\n      tag_56\n      jump\t// in\n    tag_72:\n        /* \"#utility.yul\":2664:2752   */\n    tag_71:\n        /* \"#utility.yul\":2772:2782   */\n      dup1\n        /* \"#utility.yul\":2768:2770   */\n      0x40\n        /* \"#utility.yul\":2761:2783   */\n      mstore\n        /* \"#utility.yul\":2551:2789   */\n      pop\n        /* \"#utility.yul\":2508:2789   */\n      pop\n      pop\n      jump\t// out\n        /* \"#utility.yul\":2795:2975   */\n    tag_68:\n        /* \"#utility.yul\":2843:2920   */\n      0x4e487b7100000000000000000000000000000000000000000000000000000000\n        /* \"#utility.yul\":2840:2841   */\n      0x00\n        /* \"#utility.yul\":2833:2921   */\n      mstore\n        /* \"#utility.yul\":2940:2944   */\n      0x22\n        /* \"#utility.yul\":2937:2938   */\n      0x04\n        /* \"#utility.yul\":2930:2945   */\n      mstore\n        /* \"#utility.yul\":2964:2968   */\n      0x24\n        /* \"#utility.yul\":2961:2962   */\n      0x00\n        /* \"#utility.yul\":2954:2969   */\n      revert\n        /* \"#utility.yul\":2981:3161   */\n    tag_56:\n        /* \"#utility.yul\":3029:3106   */\n      0x4e487b7100000000000000000000000000000000000000000000000000000000\n        /* \"#utility.yul\":3026:3027   */\n      0x00\n        /* \"#utility.yul\":3019:3107   */\n      mstore\n        /* \"#utility.yul\":3126:3130   */\n      0x41\n        /* \"#utility.yul\":3123:3124   */\n      0x04\n        /* \"#utility.yul\":3116:3131   */\n      mstore\n        /* \"#utility.yul\":3150:3154   */\n      0x24\n        /* \"#utility.yul\":3147:3148   */\n      0x00\n        /* \"#utility.yul\":3140:3155   */\n      revert\n        /* \"#utility.yul\":3167:3284   */\n    tag_37:\n        /* \"#utility.yul\":3276:3277   */\n      0x00\n        /* \"#utility.yul\":3273:3274   */\n      dup1\n        /* \"#utility.yul\":3266:3278   */\n      revert\n        /* \"#utility.yul\":3290:3407   */\n    tag_30:\n        /* \"#utility.yul\":3399:3400   */\n      0x00\n        /* \"#utility.yul\":3396:3397   */\n      dup1\n        /* \"#utility.yul\":3389:3401   */\n      revert\n        /* \"#utility.yul\":3413:3530   */\n    tag_45:\n        /* \"#utility.yul\":3522:3523   */\n      0x00\n        /* \"#utility.yul\":3519:3520   */\n      dup1\n        /* \"#utility.yul\":3512:3524   */\n      revert\n        /* \"#utility.yul\":3536:3653   */\n    tag_42:\n        /* \"#utility.yul\":3645:3646   */\n      0x00\n        /* \"#utility.yul\":3642:3643   */\n      dup1\n        /* \"#utility.yul\":3635:3647   */\n      revert\n        /* \"#utility.yul\":3659:3761   */\n    tag_58:\n        /* \"#utility.yul\":3700:3706   */\n      0x00\n        /* \"#utility.yul\":3751:3753   */\n      0x1f\n        /* \"#utility.yul\":3747:3754   */\n      not\n        /* \"#utility.yul\":3742:3744   */\n      0x1f\n        /* \"#utility.yul\":3735:3740   */\n      dup4\n        /* \"#utility.yul\":3731:3745   */\n      add\n        /* \"#utility.yul\":3727:3755   */\n      and\n        /* \"#utility.yul\":3717:3755   */\n      swap1\n      pop\n        /* \"#utility.yul\":3659:3761   */\n      swap2\n      swap1\n      pop\n      jump\t// out\n        /* \"contracts/Palabra.sol\":70:1448  contract Word {... */\n    tag_10:\n      dataSize(sub_0)\n      dup1\n      dataOffset(sub_0)\n      0x00\n      codecopy\n      0x00\n      return\n    stop\n\n    sub_0: assembly {\n            /* \"contracts/Palabra.sol\":70:1448  contract Word {... */\n          mstore(0x40, 0x80)\n          callvalue\n          dup1\n          iszero\n          tag_1\n          jumpi\n          0x00\n          dup1\n          revert\n        tag_1:\n          pop\n          jumpi(tag_2, lt(calldatasize, 0x04))\n          shr(0xe0, calldataload(0x00))\n          dup1\n          0x4a90be57\n          eq\n          tag_3\n          jumpi\n          dup1\n          0xb587e20a\n          eq\n          tag_4\n          jumpi\n          dup1\n          0xb8c9e4ed\n          eq\n          tag_5\n          jumpi\n          dup1\n          0xf5db08d9\n          eq\n          tag_6\n          jumpi\n        tag_2:\n          0x00\n          dup1\n          revert\n            /* \"contracts/Palabra.sol\":215:285  function getLen() public view returns(uint){... */\n        tag_3:\n          tag_7\n          tag_8\n          jump\t// in\n        tag_7:\n          mload(0x40)\n          tag_9\n          swap2\n          swap1\n          tag_10\n          jump\t// in\n        tag_9:\n          mload(0x40)\n          dup1\n          swap2\n          sub\n          swap1\n          return\n            /* \"contracts/Palabra.sol\":1308:1446  function chequearPalabra(string memory p) public view returns (bool){... */\n        tag_4:\n          tag_11\n          0x04\n          dup1\n          calldatasize\n          sub\n          dup2\n          add\n          swap1\n          tag_12\n          swap2\n          swap1\n          tag_13\n          jump\t// in\n        tag_12:\n          tag_14\n          jump\t// in\n        tag_11:\n          mload(0x40)\n          tag_15\n          swap2\n          swap1\n          tag_16\n          jump\t// in\n        tag_15:\n          mload(0x40)\n          dup1\n          swap2\n          sub\n          swap1\n          return\n            /* \"contracts/Palabra.sol\":295:375  function getStr() public view returns (string memory){... */\n        tag_5:\n          tag_17\n          tag_18\n          jump\t// in\n        tag_17:\n          mload(0x40)\n          tag_19\n          swap2\n          swap1\n          tag_20\n          jump\t// in\n        tag_19:\n          mload(0x40)\n          dup1\n          swap2\n          sub\n          swap1\n          return\n            /* \"contracts/Palabra.sol\":673:1302  function index(string memory l) public view returns (uint [] memory) {... */\n        tag_6:\n          tag_21\n          0x04\n          dup1\n          calldatasize\n          sub\n          dup2\n          add\n          swap1\n          tag_22\n          swap2\n          swap1\n          tag_13\n          jump\t// in\n        tag_22:\n          tag_23\n          jump\t// in\n        tag_21:\n          mload(0x40)\n          tag_24\n          swap2\n          swap1\n          tag_25\n          jump\t// in\n        tag_24:\n          mload(0x40)\n          dup1\n          swap2\n          sub\n          swap1\n          return\n            /* \"contracts/Palabra.sol\":215:285  function getLen() public view returns(uint){... */\n        tag_8:\n            /* \"contracts/Palabra.sol\":253:257  uint */\n          0x00\n            /* \"contracts/Palabra.sol\":275:278  len */\n          sload(0x01)\n            /* \"contracts/Palabra.sol\":268:278  return len */\n          swap1\n          pop\n            /* \"contracts/Palabra.sol\":215:285  function getLen() public view returns(uint){... */\n          swap1\n          jump\t// out\n            /* \"contracts/Palabra.sol\":1308:1446  function chequearPalabra(string memory p) public view returns (bool){... */\n        tag_14:\n            /* \"contracts/Palabra.sol\":1371:1375  bool */\n          0x00\n            /* \"contracts/Palabra.sol\":1433:1436  str */\n          dup1\n            /* \"contracts/Palabra.sol\":1417:1438  keccak256(bytes(str)) */\n          mload(0x40)\n          tag_28\n          swap2\n          swap1\n          tag_29\n          jump\t// in\n        tag_28:\n          mload(0x40)\n          dup1\n          swap2\n          sub\n          swap1\n          keccak256\n            /* \"contracts/Palabra.sol\":1410:1411  p */\n          dup3\n            /* \"contracts/Palabra.sol\":1394:1413  keccak256(bytes(p)) */\n          dup1\n          mload\n          swap1\n          0x20\n          add\n          keccak256\n            /* \"contracts/Palabra.sol\":1394:1438  keccak256(bytes(p)) == keccak256(bytes(str)) */\n          eq\n            /* \"contracts/Palabra.sol\":1386:1439  return (keccak256(bytes(p)) == keccak256(bytes(str))) */\n          swap1\n          pop\n            /* \"contracts/Palabra.sol\":1308:1446  function chequearPalabra(string memory p) public view returns (bool){... */\n          swap2\n          swap1\n          pop\n          jump\t// out\n            /* \"contracts/Palabra.sol\":295:375  function getStr() public view returns (string memory){... */\n        tag_18:\n            /* \"contracts/Palabra.sol\":334:347  string memory */\n          0x60\n            /* \"contracts/Palabra.sol\":365:368  str */\n          0x00\n            /* \"contracts/Palabra.sol\":358:368  return str */\n          dup1\n          sload\n          tag_31\n          swap1\n          tag_32\n          jump\t// in\n        tag_31:\n          dup1\n          0x1f\n          add\n          0x20\n          dup1\n          swap2\n          div\n          mul\n          0x20\n          add\n          mload(0x40)\n          swap1\n          dup2\n          add\n          0x40\n          mstore\n          dup1\n          swap3\n          swap2\n          swap1\n          dup2\n          dup2\n          mstore\n          0x20\n          add\n          dup3\n          dup1\n          sload\n          tag_33\n          swap1\n          tag_32\n          jump\t// in\n        tag_33:\n          dup1\n          iszero\n          tag_34\n          jumpi\n          dup1\n          0x1f\n          lt\n          tag_35\n          jumpi\n          0x0100\n          dup1\n          dup4\n          sload\n          div\n          mul\n          dup4\n          mstore\n          swap2\n          0x20\n          add\n          swap2\n          jump(tag_34)\n        tag_35:\n          dup3\n          add\n          swap2\n          swap1\n          0x00\n          mstore\n          keccak256(0x00, 0x20)\n          swap1\n        tag_36:\n          dup2\n          sload\n          dup2\n          mstore\n          swap1\n          0x01\n          add\n          swap1\n          0x20\n          add\n          dup1\n          dup4\n          gt\n          tag_36\n          jumpi\n          dup3\n          swap1\n          sub\n          0x1f\n          and\n          dup3\n          add\n          swap2\n        tag_34:\n          pop\n          pop\n          pop\n          pop\n          pop\n          swap1\n          pop\n            /* \"contracts/Palabra.sol\":295:375  function getStr() public view returns (string memory){... */\n          swap1\n          jump\t// out\n            /* \"contracts/Palabra.sol\":673:1302  function index(string memory l) public view returns (uint [] memory) {... */\n        tag_23:\n            /* \"contracts/Palabra.sol\":726:740  uint [] memory */\n          0x60\n            /* \"contracts/Palabra.sol\":943:958  string memory s */\n          dup1\n            /* \"contracts/Palabra.sol\":968:974  uint k */\n          0x00\n            /* \"contracts/Palabra.sol\":986:1003  uint[] memory ind */\n          dup1\n            /* \"contracts/Palabra.sol\":1017:1020  len */\n          sload(0x01)\n            /* \"contracts/Palabra.sol\":1006:1021  new uint[](len) */\n          0xffffffffffffffff\n          dup2\n          gt\n          iszero\n          tag_38\n          jumpi\n          tag_39\n          tag_40\n          jump\t// in\n        tag_39:\n        tag_38:\n          mload(0x40)\n          swap1\n          dup1\n          dup3\n          mstore\n          dup1\n          0x20\n          mul\n          0x20\n          add\n          dup3\n          add\n          0x40\n          mstore\n          dup1\n          iszero\n          tag_41\n          jumpi\n          dup2\n          0x20\n          add\n          0x20\n          dup3\n          mul\n          dup1\n          calldatasize\n          dup4\n          calldatacopy\n          dup1\n          dup3\n          add\n          swap2\n          pop\n          pop\n          swap1\n          pop\n        tag_41:\n          pop\n            /* \"contracts/Palabra.sol\":986:1021  uint[] memory ind = new uint[](len) */\n          swap1\n          pop\n            /* \"contracts/Palabra.sol\":1036:1042  uint i */\n          0x00\n            /* \"contracts/Palabra.sol\":1045:1046  1 */\n          0x01\n            /* \"contracts/Palabra.sol\":1036:1046  uint i = 1 */\n          swap1\n          pop\n            /* \"contracts/Palabra.sol\":1032:1258  for(uint i = 1; i <= len; i++) {... */\n        tag_42:\n            /* \"contracts/Palabra.sol\":1053:1056  len */\n          sload(0x01)\n            /* \"contracts/Palabra.sol\":1048:1049  i */\n          dup2\n            /* \"contracts/Palabra.sol\":1048:1056  i <= len */\n          gt\n            /* \"contracts/Palabra.sol\":1032:1258  for(uint i = 1; i <= len; i++) {... */\n          tag_43\n          jumpi\n            /* \"contracts/Palabra.sol\":1081:1098  getSlice(i,i,str) */\n          tag_45\n            /* \"contracts/Palabra.sol\":1090:1091  i */\n          dup2\n            /* \"contracts/Palabra.sol\":1092:1093  i */\n          dup3\n            /* \"contracts/Palabra.sol\":1094:1097  str */\n          0x00\n            /* \"contracts/Palabra.sol\":1081:1098  getSlice(i,i,str) */\n          dup1\n          sload\n          tag_46\n          swap1\n          tag_32\n          jump\t// in\n        tag_46:\n          dup1\n          0x1f\n          add\n          0x20\n          dup1\n          swap2\n          div\n          mul\n          0x20\n          add\n          mload(0x40)\n          swap1\n          dup2\n          add\n          0x40\n          mstore\n          dup1\n          swap3\n          swap2\n          swap1\n          dup2\n          dup2\n          mstore\n          0x20\n          add\n          dup3\n          dup1\n          sload\n          tag_47\n          swap1\n          tag_32\n          jump\t// in\n        tag_47:\n          dup1\n          iszero\n          tag_48\n          jumpi\n          dup1\n          0x1f\n          lt\n          tag_49\n          jumpi\n          0x0100\n          dup1\n          dup4\n          sload\n          div\n          mul\n          dup4\n          mstore\n          swap2\n          0x20\n          add\n          swap2\n          jump(tag_48)\n        tag_49:\n          dup3\n          add\n          swap2\n          swap1\n          0x00\n          mstore\n          keccak256(0x00, 0x20)\n          swap1\n        tag_50:\n          dup2\n          sload\n          dup2\n          mstore\n          swap1\n          0x01\n          add\n          swap1\n          0x20\n          add\n          dup1\n          dup4\n          gt\n          tag_50\n          jumpi\n          dup3\n          swap1\n          sub\n          0x1f\n          and\n          dup3\n          add\n          swap2\n        tag_48:\n          pop\n          pop\n          pop\n          pop\n          pop\n            /* \"contracts/Palabra.sol\":1081:1089  getSlice */\n          tag_51\n            /* \"contracts/Palabra.sol\":1081:1098  getSlice(i,i,str) */\n          jump\t// in\n        tag_45:\n            /* \"contracts/Palabra.sol\":1077:1098  s = getSlice(i,i,str) */\n          swap4\n          pop\n            /* \"contracts/Palabra.sol\":1154:1155  l */\n          dup6\n            /* \"contracts/Palabra.sol\":1138:1157  keccak256(bytes(l)) */\n          dup1\n          mload\n          swap1\n          0x20\n          add\n          keccak256\n            /* \"contracts/Palabra.sol\":1131:1132  s */\n          dup5\n            /* \"contracts/Palabra.sol\":1115:1134  keccak256(bytes(s)) */\n          dup1\n          mload\n          swap1\n          0x20\n          add\n          keccak256\n            /* \"contracts/Palabra.sol\":1115:1157  keccak256(bytes(s)) == keccak256(bytes(l)) */\n          eq\n            /* \"contracts/Palabra.sol\":1112:1230  if(keccak256(bytes(s)) == keccak256(bytes(l)))... */\n          iszero\n          tag_52\n          jumpi\n            /* \"contracts/Palabra.sol\":1184:1185  1 */\n          0x01\n            /* \"contracts/Palabra.sol\":1175:1178  ind */\n          dup3\n            /* \"contracts/Palabra.sol\":1179:1180  k */\n          dup5\n            /* \"contracts/Palabra.sol\":1175:1181  ind[k] */\n          dup2\n          mload\n          dup2\n          lt\n          tag_53\n          jumpi\n          tag_54\n          tag_55\n          jump\t// in\n        tag_54:\n        tag_53:\n          0x20\n          mul\n          0x20\n          add\n          add\n            /* \"contracts/Palabra.sol\":1175:1185  ind[k] = 1 */\n          dup2\n          dup2\n          mstore\n          pop\n          pop\n            /* \"contracts/Palabra.sol\":1112:1230  if(keccak256(bytes(s)) == keccak256(bytes(l)))... */\n          jump(tag_56)\n        tag_52:\n            /* \"contracts/Palabra.sol\":1229:1230  0 */\n          0x00\n            /* \"contracts/Palabra.sol\":1220:1223  ind */\n          dup3\n            /* \"contracts/Palabra.sol\":1224:1225  k */\n          dup5\n            /* \"contracts/Palabra.sol\":1220:1226  ind[k] */\n          dup2\n          mload\n          dup2\n          lt\n          tag_57\n          jumpi\n          tag_58\n          tag_55\n          jump\t// in\n        tag_58:\n        tag_57:\n          0x20\n          mul\n          0x20\n          add\n          add\n            /* \"contracts/Palabra.sol\":1220:1230  ind[k] = 0 */\n          dup2\n          dup2\n          mstore\n          pop\n          pop\n            /* \"contracts/Palabra.sol\":1112:1230  if(keccak256(bytes(s)) == keccak256(bytes(l)))... */\n        tag_56:\n            /* \"contracts/Palabra.sol\":1244:1247  k++ */\n          dup3\n          dup1\n          tag_59\n          swap1\n          tag_60\n          jump\t// in\n        tag_59:\n          swap4\n          pop\n          pop\n            /* \"contracts/Palabra.sol\":1058:1061  i++ */\n          dup1\n          dup1\n          tag_61\n          swap1\n          tag_60\n          jump\t// in\n        tag_61:\n          swap2\n          pop\n          pop\n            /* \"contracts/Palabra.sol\":1032:1258  for(uint i = 1; i <= len; i++) {... */\n          jump(tag_42)\n        tag_43:\n          pop\n            /* \"contracts/Palabra.sol\":1283:1286  ind */\n          dup1\n            /* \"contracts/Palabra.sol\":1276:1286  return ind */\n          swap4\n          pop\n          pop\n          pop\n          pop\n            /* \"contracts/Palabra.sol\":673:1302  function index(string memory l) public view returns (uint [] memory) {... */\n          swap2\n          swap1\n          pop\n          jump\t// out\n            /* \"contracts/Palabra.sol\":385:667  function getSlice(uint256 begin, uint256 end, string memory text) private pure returns (string memory) {... */\n        tag_51:\n            /* \"contracts/Palabra.sol\":473:486  string memory */\n          0x60\n            /* \"contracts/Palabra.sol\":498:512  bytes memory a */\n          0x00\n            /* \"contracts/Palabra.sol\":535:536  1 */\n          0x01\n            /* \"contracts/Palabra.sol\":529:534  begin */\n          dup6\n            /* \"contracts/Palabra.sol\":525:528  end */\n          dup6\n            /* \"contracts/Palabra.sol\":525:534  end-begin */\n          tag_63\n          swap2\n          swap1\n          tag_64\n          jump\t// in\n        tag_63:\n            /* \"contracts/Palabra.sol\":525:536  end-begin+1 */\n          tag_65\n          swap2\n          swap1\n          tag_66\n          jump\t// in\n        tag_65:\n            /* \"contracts/Palabra.sol\":515:537  new bytes(end-begin+1) */\n          0xffffffffffffffff\n          dup2\n          gt\n          iszero\n          tag_67\n          jumpi\n          tag_68\n          tag_40\n          jump\t// in\n        tag_68:\n        tag_67:\n          mload(0x40)\n          swap1\n          dup1\n          dup3\n          mstore\n          dup1\n          0x1f\n          add\n          not(0x1f)\n          and\n          0x20\n          add\n          dup3\n          add\n          0x40\n          mstore\n          dup1\n          iszero\n          tag_69\n          jumpi\n          dup2\n          0x20\n          add\n          0x01\n          dup3\n          mul\n          dup1\n          calldatasize\n          dup4\n          calldatacopy\n          dup1\n          dup3\n          add\n          swap2\n          pop\n          pop\n          swap1\n          pop\n        tag_69:\n          pop\n            /* \"contracts/Palabra.sol\":498:537  bytes memory a = new bytes(end-begin+1) */\n          swap1\n          pop\n            /* \"contracts/Palabra.sol\":551:557  uint i */\n          0x00\n            /* \"contracts/Palabra.sol\":547:631  for(uint i=0;i<=end-begin;i++){... */\n        tag_70:\n            /* \"contracts/Palabra.sol\":567:572  begin */\n          dup6\n            /* \"contracts/Palabra.sol\":563:566  end */\n          dup6\n            /* \"contracts/Palabra.sol\":563:572  end-begin */\n          tag_73\n          swap2\n          swap1\n          tag_64\n          jump\t// in\n        tag_73:\n            /* \"contracts/Palabra.sol\":560:561  i */\n          dup2\n            /* \"contracts/Palabra.sol\":560:572  i<=end-begin */\n          gt\n            /* \"contracts/Palabra.sol\":547:631  for(uint i=0;i<=end-begin;i++){... */\n          tag_71\n          jumpi\n            /* \"contracts/Palabra.sol\":604:608  text */\n          dup4\n            /* \"contracts/Palabra.sol\":618:619  1 */\n          0x01\n            /* \"contracts/Palabra.sol\":612:617  begin */\n          dup8\n            /* \"contracts/Palabra.sol\":610:611  i */\n          dup4\n            /* \"contracts/Palabra.sol\":610:617  i+begin */\n          tag_74\n          swap2\n          swap1\n          tag_66\n          jump\t// in\n        tag_74:\n            /* \"contracts/Palabra.sol\":610:619  i+begin-1 */\n          tag_75\n          swap2\n          swap1\n          tag_64\n          jump\t// in\n        tag_75:\n            /* \"contracts/Palabra.sol\":598:620  bytes(text)[i+begin-1] */\n          dup2\n          mload\n          dup2\n          lt\n          tag_76\n          jumpi\n          tag_77\n          tag_55\n          jump\t// in\n        tag_77:\n        tag_76:\n          0x20\n          add\n          add\n          mload\n          0xf8\n          shr\n          0xf8\n          shl\n            /* \"contracts/Palabra.sol\":591:592  a */\n          dup3\n            /* \"contracts/Palabra.sol\":593:594  i */\n          dup3\n            /* \"contracts/Palabra.sol\":591:595  a[i] */\n          dup2\n          mload\n          dup2\n          lt\n          tag_78\n          jumpi\n          tag_79\n          tag_55\n          jump\t// in\n        tag_79:\n        tag_78:\n          0x20\n          add\n          add\n            /* \"contracts/Palabra.sol\":591:620  a[i] = bytes(text)[i+begin-1] */\n          swap1\n          not(0xffffffffffffffffffffffffffffffffffffffffffffffffffffffffffffff)\n          and\n          swap1\n          dup2\n          0x00\n          byte\n          swap1\n          mstore8\n          pop\n            /* \"contracts/Palabra.sol\":573:576  i++ */\n          dup1\n          dup1\n          tag_80\n          swap1\n          tag_60\n          jump\t// in\n        tag_80:\n          swap2\n          pop\n          pop\n            /* \"contracts/Palabra.sol\":547:631  for(uint i=0;i<=end-begin;i++){... */\n          jump(tag_70)\n        tag_71:\n          pop\n            /* \"contracts/Palabra.sol\":654:655  a */\n          dup1\n            /* \"contracts/Palabra.sol\":640:656  return string(a) */\n          swap2\n          pop\n          pop\n            /* \"contracts/Palabra.sol\":385:667  function getSlice(uint256 begin, uint256 end, string memory text) private pure returns (string memory) {... */\n          swap4\n          swap3\n          pop\n          pop\n          pop\n          jump\t// out\n            /* \"#utility.yul\":7:419   */\n        tag_82:\n            /* \"#utility.yul\":85:90   */\n          0x00\n            /* \"#utility.yul\":110:176   */\n          tag_84\n            /* \"#utility.yul\":126:175   */\n          tag_85\n            /* \"#utility.yul\":168:174   */\n          dup5\n            /* \"#utility.yul\":126:175   */\n          tag_86\n          jump\t// in\n        tag_85:\n            /* \"#utility.yul\":110:176   */\n          tag_87\n          jump\t// in\n        tag_84:\n            /* \"#utility.yul\":101:176   */\n          swap1\n          pop\n            /* \"#utility.yul\":199:205   */\n          dup3\n            /* \"#utility.yul\":192:197   */\n          dup2\n            /* \"#utility.yul\":185:206   */\n          mstore\n            /* \"#utility.yul\":237:241   */\n          0x20\n            /* \"#utility.yul\":230:235   */\n          dup2\n            /* \"#utility.yul\":226:242   */\n          add\n            /* \"#utility.yul\":275:278   */\n          dup5\n            /* \"#utility.yul\":266:272   */\n          dup5\n            /* \"#utility.yul\":261:264   */\n          dup5\n            /* \"#utility.yul\":257:273   */\n          add\n            /* \"#utility.yul\":254:279   */\n          gt\n            /* \"#utility.yul\":251:363   */\n          iszero\n          tag_88\n          jumpi\n            /* \"#utility.yul\":282:361   */\n          tag_89\n          tag_90\n          jump\t// in\n        tag_89:\n            /* \"#utility.yul\":251:363   */\n        tag_88:\n            /* \"#utility.yul\":372:413   */\n          tag_91\n            /* \"#utility.yul\":406:412   */\n          dup5\n            /* \"#utility.yul\":401:404   */\n          dup3\n            /* \"#utility.yul\":396:399   */\n          dup6\n            /* \"#utility.yul\":372:413   */\n          tag_92\n          jump\t// in\n        tag_91:\n            /* \"#utility.yul\":91:419   */\n          pop\n            /* \"#utility.yul\":7:419   */\n          swap4\n          swap3\n          pop\n          pop\n          pop\n          jump\t// out\n            /* \"#utility.yul\":439:779   */\n        tag_93:\n            /* \"#utility.yul\":495:500   */\n          0x00\n            /* \"#utility.yul\":544:547   */\n          dup3\n            /* \"#utility.yul\":537:541   */\n          0x1f\n            /* \"#utility.yul\":529:535   */\n          dup4\n            /* \"#utility.yul\":525:542   */\n          add\n            /* \"#utility.yul\":521:548   */\n          slt\n            /* \"#utility.yul\":511:633   */\n          tag_95\n          jumpi\n            /* \"#utility.yul\":552:631   */\n          tag_96\n          tag_97\n          jump\t// in\n        tag_96:\n            /* \"#utility.yul\":511:633   */\n        tag_95:\n            /* \"#utility.yul\":669:675   */\n          dup2\n            /* \"#utility.yul\":656:676   */\n          calldataload\n            /* \"#utility.yul\":694:773   */\n          tag_98\n            /* \"#utility.yul\":769:772   */\n          dup5\n            /* \"#utility.yul\":761:767   */\n          dup3\n            /* \"#utility.yul\":754:758   */\n          0x20\n            /* \"#utility.yul\":746:752   */\n          dup7\n            /* \"#utility.yul\":742:759   */\n          add\n            /* \"#utility.yul\":694:773   */\n          tag_82\n          jump\t// in\n        tag_98:\n            /* \"#utility.yul\":685:773   */\n          swap2\n          pop\n            /* \"#utility.yul\":501:779   */\n          pop\n            /* \"#utility.yul\":439:779   */\n          swap3\n          swap2\n          pop\n          pop\n          jump\t// out\n            /* \"#utility.yul\":785:1294   */\n        tag_13:\n            /* \"#utility.yul\":854:860   */\n          0x00\n            /* \"#utility.yul\":903:905   */\n          0x20\n            /* \"#utility.yul\":891:900   */\n          dup3\n            /* \"#utility.yul\":882:889   */\n          dup5\n            /* \"#utility.yul\":878:901   */\n          sub\n            /* \"#utility.yul\":874:906   */\n          slt\n            /* \"#utility.yul\":871:990   */\n          iszero\n          tag_100\n          jumpi\n            /* \"#utility.yul\":909:988   */\n          tag_101\n          tag_102\n          jump\t// in\n        tag_101:\n            /* \"#utility.yul\":871:990   */\n        tag_100:\n            /* \"#utility.yul\":1057:1058   */\n          0x00\n            /* \"#utility.yul\":1046:1055   */\n          dup3\n            /* \"#utility.yul\":1042:1059   */\n          add\n            /* \"#utility.yul\":1029:1060   */\n          calldataload\n            /* \"#utility.yul\":1087:1105   */\n          0xffffffffffffffff\n            /* \"#utility.yul\":1079:1085   */\n          dup2\n            /* \"#utility.yul\":1076:1106   */\n          gt\n            /* \"#utility.yul\":1073:1190   */\n          iszero\n          tag_103\n          jumpi\n            /* \"#utility.yul\":1109:1188   */\n          tag_104\n          tag_105\n          jump\t// in\n        tag_104:\n            /* \"#utility.yul\":1073:1190   */\n        tag_103:\n            /* \"#utility.yul\":1214:1277   */\n          tag_106\n            /* \"#utility.yul\":1269:1276   */\n          dup5\n            /* \"#utility.yul\":1260:1266   */\n          dup3\n            /* \"#utility.yul\":1249:1258   */\n          dup6\n            /* \"#utility.yul\":1245:1267   */\n          add\n            /* \"#utility.yul\":1214:1277   */\n          tag_93\n          jump\t// in\n        tag_106:\n            /* \"#utility.yul\":1204:1277   */\n          swap2\n          pop\n            /* \"#utility.yul\":1000:1287   */\n          pop\n            /* \"#utility.yul\":785:1294   */\n          swap3\n          swap2\n          pop\n          pop\n          jump\t// out\n            /* \"#utility.yul\":1300:1479   */\n        tag_107:\n            /* \"#utility.yul\":1369:1379   */\n          0x00\n            /* \"#utility.yul\":1390:1436   */\n          tag_109\n            /* \"#utility.yul\":1432:1435   */\n          dup4\n            /* \"#utility.yul\":1424:1430   */\n          dup4\n            /* \"#utility.yul\":1390:1436   */\n          tag_110\n          jump\t// in\n        tag_109:\n            /* \"#utility.yul\":1468:1472   */\n          0x20\n            /* \"#utility.yul\":1463:1466   */\n          dup4\n            /* \"#utility.yul\":1459:1473   */\n          add\n            /* \"#utility.yul\":1445:1473   */\n          swap1\n          pop\n            /* \"#utility.yul\":1300:1479   */\n          swap3\n          swap2\n          pop\n          pop\n          jump\t// out\n            /* \"#utility.yul\":1515:2247   */\n        tag_111:\n            /* \"#utility.yul\":1634:1637   */\n          0x00\n            /* \"#utility.yul\":1663:1717   */\n          tag_113\n            /* \"#utility.yul\":1711:1716   */\n          dup3\n            /* \"#utility.yul\":1663:1717   */\n          tag_114\n          jump\t// in\n        tag_113:\n            /* \"#utility.yul\":1733:1819   */\n          tag_115\n            /* \"#utility.yul\":1812:1818   */\n          dup2\n            /* \"#utility.yul\":1807:1810   */\n          dup6\n            /* \"#utility.yul\":1733:1819   */\n          tag_116\n          jump\t// in\n        tag_115:\n            /* \"#utility.yul\":1726:1819   */\n          swap4\n          pop\n            /* \"#utility.yul\":1843:1899   */\n          tag_117\n            /* \"#utility.yul\":1893:1898   */\n          dup4\n            /* \"#utility.yul\":1843:1899   */\n          tag_118\n          jump\t// in\n        tag_117:\n            /* \"#utility.yul\":1922:1929   */\n          dup1\n            /* \"#utility.yul\":1953:1954   */\n          0x00\n            /* \"#utility.yul\":1938:2222   */\n        tag_119:\n            /* \"#utility.yul\":1963:1969   */\n          dup4\n            /* \"#utility.yul\":1960:1961   */\n          dup2\n            /* \"#utility.yul\":1957:1970   */\n          lt\n            /* \"#utility.yul\":1938:2222   */\n          iszero\n          tag_121\n          jumpi\n            /* \"#utility.yul\":2039:2045   */\n          dup2\n            /* \"#utility.yul\":2033:2046   */\n          mload\n            /* \"#utility.yul\":2066:2129   */\n          tag_122\n            /* \"#utility.yul\":2125:2128   */\n          dup9\n            /* \"#utility.yul\":2110:2123   */\n          dup3\n            /* \"#utility.yul\":2066:2129   */\n          tag_107\n          jump\t// in\n        tag_122:\n            /* \"#utility.yul\":2059:2129   */\n          swap8\n          pop\n            /* \"#utility.yul\":2152:2212   */\n          tag_123\n            /* \"#utility.yul\":2205:2211   */\n          dup4\n            /* \"#utility.yul\":2152:2212   */\n          tag_124\n          jump\t// in\n        tag_123:\n            /* \"#utility.yul\":2142:2212   */\n          swap3\n          pop\n            /* \"#utility.yul\":1998:2222   */\n          pop\n            /* \"#utility.yul\":1985:1986   */\n          0x01\n            /* \"#utility.yul\":1982:1983   */\n          dup2\n            /* \"#utility.yul\":1978:1987   */\n          add\n            /* \"#utility.yul\":1973:1987   */\n          swap1\n          pop\n            /* \"#utility.yul\":1938:2222   */\n          jump(tag_119)\n        tag_121:\n            /* \"#utility.yul\":1942:1956   */\n          pop\n            /* \"#utility.yul\":2238:2241   */\n          dup6\n            /* \"#utility.yul\":2231:2241   */\n          swap4\n          pop\n            /* \"#utility.yul\":1639:2247   */\n          pop\n          pop\n          pop\n            /* \"#utility.yul\":1515:2247   */\n          swap3\n          swap2\n          pop\n          pop\n          jump\t// out\n            /* \"#utility.yul\":2253:2362   */\n        tag_125:\n            /* \"#utility.yul\":2334:2355   */\n          tag_127\n            /* \"#utility.yul\":2349:2354   */\n          dup2\n            /* \"#utility.yul\":2334:2355   */\n          tag_128\n          jump\t// in\n        tag_127:\n            /* \"#utility.yul\":2329:2332   */\n          dup3\n            /* \"#utility.yul\":2322:2356   */\n          mstore\n            /* \"#utility.yul\":2253:2362   */\n          pop\n          pop\n          jump\t// out\n            /* \"#utility.yul\":2390:3239   */\n        tag_129:\n            /* \"#utility.yul\":2495:2498   */\n          0x00\n            /* \"#utility.yul\":2532:2537   */\n          dup2\n            /* \"#utility.yul\":2526:2538   */\n          sload\n            /* \"#utility.yul\":2561:2597   */\n          tag_131\n            /* \"#utility.yul\":2587:2596   */\n          dup2\n            /* \"#utility.yul\":2561:2597   */\n          tag_32\n          jump\t// in\n        tag_131:\n            /* \"#utility.yul\":2613:2701   */\n          tag_132\n            /* \"#utility.yul\":2694:2700   */\n          dup2\n            /* \"#utility.yul\":2689:2692   */\n          dup7\n            /* \"#utility.yul\":2613:2701   */\n          tag_133\n          jump\t// in\n        tag_132:\n            /* \"#utility.yul\":2606:2701   */\n          swap5\n          pop\n            /* \"#utility.yul\":2732:2733   */\n          0x01\n            /* \"#utility.yul\":2721:2730   */\n          dup3\n            /* \"#utility.yul\":2717:2734   */\n          and\n            /* \"#utility.yul\":2748:2749   */\n          0x00\n            /* \"#utility.yul\":2743:2880   */\n          dup2\n          eq\n          tag_135\n          jumpi\n            /* \"#utility.yul\":2894:2895   */\n          0x01\n            /* \"#utility.yul\":2889:3233   */\n          dup2\n          eq\n          tag_136\n          jumpi\n            /* \"#utility.yul\":2710:3233   */\n          jump(tag_134)\n            /* \"#utility.yul\":2743:2880   */\n        tag_135:\n            /* \"#utility.yul\":2827:2831   */\n          0xff\n            /* \"#utility.yul\":2823:2832   */\n          not\n            /* \"#utility.yul\":2812:2821   */\n          dup4\n            /* \"#utility.yul\":2808:2833   */\n          and\n            /* \"#utility.yul\":2803:2806   */\n          dup7\n            /* \"#utility.yul\":2796:2834   */\n          mstore\n            /* \"#utility.yul\":2863:2869   */\n          dup2\n            /* \"#utility.yul\":2858:2861   */\n          dup7\n            /* \"#utility.yul\":2854:2870   */\n          add\n            /* \"#utility.yul\":2847:2870   */\n          swap4\n          pop\n            /* \"#utility.yul\":2743:2880   */\n          jump(tag_134)\n            /* \"#utility.yul\":2889:3233   */\n        tag_136:\n            /* \"#utility.yul\":2956:2997   */\n          tag_137\n            /* \"#utility.yul\":2991:2996   */\n          dup6\n            /* \"#utility.yul\":2956:2997   */\n          tag_138\n          jump\t// in\n        tag_137:\n            /* \"#utility.yul\":3019:3020   */\n          0x00\n            /* \"#utility.yul\":3033:3187   */\n        tag_139:\n            /* \"#utility.yul\":3047:3053   */\n          dup4\n            /* \"#utility.yul\":3044:3045   */\n          dup2\n            /* \"#utility.yul\":3041:3054   */\n          lt\n            /* \"#utility.yul\":3033:3187   */\n          iszero\n          tag_141\n          jumpi\n            /* \"#utility.yul\":3121:3128   */\n          dup2\n            /* \"#utility.yul\":3115:3129   */\n          sload\n            /* \"#utility.yul\":3111:3112   */\n          dup2\n            /* \"#utility.yul\":3106:3109   */\n          dup10\n            /* \"#utility.yul\":3102:3113   */\n          add\n            /* \"#utility.yul\":3095:3130   */\n          mstore\n            /* \"#utility.yul\":3171:3172   */\n          0x01\n            /* \"#utility.yul\":3162:3169   */\n          dup3\n            /* \"#utility.yul\":3158:3173   */\n          add\n            /* \"#utility.yul\":3147:3173   */\n          swap2\n          pop\n            /* \"#utility.yul\":3069:3073   */\n          0x20\n            /* \"#utility.yul\":3066:3067   */\n          dup2\n            /* \"#utility.yul\":3062:3074   */\n          add\n            /* \"#utility.yul\":3057:3074   */\n          swap1\n          pop\n            /* \"#utility.yul\":3033:3187   */\n          jump(tag_139)\n        tag_141:\n            /* \"#utility.yul\":3216:3222   */\n          dup4\n            /* \"#utility.yul\":3211:3214   */\n          dup9\n            /* \"#utility.yul\":3207:3223   */\n          add\n            /* \"#utility.yul\":3200:3223   */\n          swap6\n          pop\n            /* \"#utility.yul\":2896:3233   */\n          pop\n          pop\n            /* \"#utility.yul\":2710:3233   */\n        tag_134:\n          pop\n            /* \"#utility.yul\":2499:3239   */\n          pop\n          pop\n            /* \"#utility.yul\":2390:3239   */\n          swap3\n          swap2\n          pop\n          pop\n          jump\t// out\n            /* \"#utility.yul\":3245:3609   */\n        tag_142:\n            /* \"#utility.yul\":3333:3336   */\n          0x00\n            /* \"#utility.yul\":3361:3400   */\n          tag_144\n            /* \"#utility.yul\":3394:3399   */\n          dup3\n            /* \"#utility.yul\":3361:3400   */\n          tag_145\n          jump\t// in\n        tag_144:\n            /* \"#utility.yul\":3416:3487   */\n          tag_146\n            /* \"#utility.yul\":3480:3486   */\n          dup2\n            /* \"#utility.yul\":3475:3478   */\n          dup6\n            /* \"#utility.yul\":3416:3487   */\n          tag_147\n          jump\t// in\n        tag_146:\n            /* \"#utility.yul\":3409:3487   */\n          swap4\n          pop\n            /* \"#utility.yul\":3496:3548   */\n          tag_148\n            /* \"#utility.yul\":3541:3547   */\n          dup2\n            /* \"#utility.yul\":3536:3539   */\n          dup6\n            /* \"#utility.yul\":3529:3533   */\n          0x20\n            /* \"#utility.yul\":3522:3527   */\n          dup7\n            /* \"#utility.yul\":3518:3534   */\n          add\n            /* \"#utility.yul\":3496:3548   */\n          tag_149\n          jump\t// in\n        tag_148:\n            /* \"#utility.yul\":3573:3602   */\n          tag_150\n            /* \"#utility.yul\":3595:3601   */\n          dup2\n            /* \"#utility.yul\":3573:3602   */\n          tag_151\n          jump\t// in\n        tag_150:\n            /* \"#utility.yul\":3568:3571   */\n          dup5\n            /* \"#utility.yul\":3564:3603   */\n          add\n            /* \"#utility.yul\":3557:3603   */\n          swap2\n          pop\n            /* \"#utility.yul\":3337:3609   */\n          pop\n            /* \"#utility.yul\":3245:3609   */\n          swap3\n          swap2\n          pop\n          pop\n          jump\t// out\n            /* \"#utility.yul\":3615:3723   */\n        tag_110:\n            /* \"#utility.yul\":3692:3716   */\n          tag_153\n            /* \"#utility.yul\":3710:3715   */\n          dup2\n            /* \"#utility.yul\":3692:3716   */\n          tag_154\n          jump\t// in\n        tag_153:\n            /* \"#utility.yul\":3687:3690   */\n          dup3\n            /* \"#utility.yul\":3680:3717   */\n          mstore\n            /* \"#utility.yul\":3615:3723   */\n          pop\n          pop\n          jump\t// out\n            /* \"#utility.yul\":3729:3847   */\n        tag_155:\n            /* \"#utility.yul\":3816:3840   */\n          tag_157\n            /* \"#utility.yul\":3834:3839   */\n          dup2\n            /* \"#utility.yul\":3816:3840   */\n          tag_154\n          jump\t// in\n        tag_157:\n            /* \"#utility.yul\":3811:3814   */\n          dup3\n            /* \"#utility.yul\":3804:3841   */\n          mstore\n            /* \"#utility.yul\":3729:3847   */\n          pop\n          pop\n          jump\t// out\n            /* \"#utility.yul\":3853:4126   */\n        tag_29:\n            /* \"#utility.yul\":3984:3987   */\n          0x00\n            /* \"#utility.yul\":4006:4100   */\n          tag_159\n            /* \"#utility.yul\":4096:4099   */\n          dup3\n            /* \"#utility.yul\":4087:4093   */\n          dup5\n            /* \"#utility.yul\":4006:4100   */\n          tag_129\n          jump\t// in\n        tag_159:\n            /* \"#utility.yul\":3999:4100   */\n          swap2\n          pop\n            /* \"#utility.yul\":4117:4120   */\n          dup2\n            /* \"#utility.yul\":4110:4120   */\n          swap1\n          pop\n            /* \"#utility.yul\":3853:4126   */\n          swap3\n          swap2\n          pop\n          pop\n          jump\t// out\n            /* \"#utility.yul\":4132:4505   */\n        tag_25:\n            /* \"#utility.yul\":4275:4279   */\n          0x00\n            /* \"#utility.yul\":4313:4315   */\n          0x20\n            /* \"#utility.yul\":4302:4311   */\n          dup3\n            /* \"#utility.yul\":4298:4316   */\n          add\n            /* \"#utility.yul\":4290:4316   */\n          swap1\n          pop\n            /* \"#utility.yul\":4362:4371   */\n          dup2\n            /* \"#utility.yul\":4356:4360   */\n          dup2\n            /* \"#utility.yul\":4352:4372   */\n          sub\n            /* \"#utility.yul\":4348:4349   */\n          0x00\n            /* \"#utility.yul\":4337:4346   */\n          dup4\n            /* \"#utility.yul\":4333:4350   */\n          add\n            /* \"#utility.yul\":4326:4373   */\n          mstore\n            /* \"#utility.yul\":4390:4498   */\n          tag_161\n            /* \"#utility.yul\":4493:4497   */\n          dup2\n            /* \"#utility.yul\":4484:4490   */\n          dup5\n            /* \"#utility.yul\":4390:4498   */\n          tag_111\n          jump\t// in\n        tag_161:\n            /* \"#utility.yul\":4382:4498   */\n          swap1\n          pop\n            /* \"#utility.yul\":4132:4505   */\n          swap3\n          swap2\n          pop\n          pop\n          jump\t// out\n            /* \"#utility.yul\":4511:4721   */\n        tag_16:\n            /* \"#utility.yul\":4598:4602   */\n          0x00\n            /* \"#utility.yul\":4636:4638   */\n          0x20\n            /* \"#utility.yul\":4625:4634   */\n          dup3\n            /* \"#utility.yul\":4621:4639   */\n          add\n            /* \"#utility.yul\":4613:4639   */\n          swap1\n          pop\n            /* \"#utility.yul\":4649:4714   */\n          tag_163\n            /* \"#utility.yul\":4711:4712   */\n          0x00\n            /* \"#utility.yul\":4700:4709   */\n          dup4\n            /* \"#utility.yul\":4696:4713   */\n          add\n            /* \"#utility.yul\":4687:4693   */\n          dup5\n            /* \"#utility.yul\":4649:4714   */\n          tag_125\n          jump\t// in\n        tag_163:\n            /* \"#utility.yul\":4511:4721   */\n          swap3\n          swap2\n          pop\n          pop\n          jump\t// out\n            /* \"#utility.yul\":4727:5040   */\n        tag_20:\n            /* \"#utility.yul\":4840:4844   */\n          0x00\n            /* \"#utility.yul\":4878:4880   */\n          0x20\n            /* \"#utility.yul\":4867:4876   */\n          dup3\n            /* \"#utility.yul\":4863:4881   */\n          add\n            /* \"#utility.yul\":4855:4881   */\n          swap1\n          pop\n            /* \"#utility.yul\":4927:4936   */\n          dup2\n            /* \"#utility.yul\":4921:4925   */\n          dup2\n            /* \"#utility.yul\":4917:4937   */\n          sub\n            /* \"#utility.yul\":4913:4914   */\n          0x00\n            /* \"#utility.yul\":4902:4911   */\n          dup4\n            /* \"#utility.yul\":4898:4915   */\n          add\n            /* \"#utility.yul\":4891:4938   */\n          mstore\n            /* \"#utility.yul\":4955:5033   */\n          tag_165\n            /* \"#utility.yul\":5028:5032   */\n          dup2\n            /* \"#utility.yul\":5019:5025   */\n          dup5\n            /* \"#utility.yul\":4955:5033   */\n          tag_142\n          jump\t// in\n        tag_165:\n            /* \"#utility.yul\":4947:5033   */\n          swap1\n          pop\n            /* \"#utility.yul\":4727:5040   */\n          swap3\n          swap2\n          pop\n          pop\n          jump\t// out\n            /* \"#utility.yul\":5046:5268   */\n        tag_10:\n            /* \"#utility.yul\":5139:5143   */\n          0x00\n            /* \"#utility.yul\":5177:5179   */\n          0x20\n            /* \"#utility.yul\":5166:5175   */\n          dup3\n            /* \"#utility.yul\":5162:5180   */\n          add\n            /* \"#utility.yul\":5154:5180   */\n          swap1\n          pop\n            /* \"#utility.yul\":5190:5261   */\n          tag_167\n            /* \"#utility.yul\":5258:5259   */\n          0x00\n            /* \"#utility.yul\":5247:5256   */\n          dup4\n            /* \"#utility.yul\":5243:5260   */\n          add\n            /* \"#utility.yul\":5234:5240   */\n          dup5\n            /* \"#utility.yul\":5190:5261   */\n          tag_155\n          jump\t// in\n        tag_167:\n            /* \"#utility.yul\":5046:5268   */\n          swap3\n          swap2\n          pop\n          pop\n          jump\t// out\n            /* \"#utility.yul\":5274:5403   */\n        tag_87:\n            /* \"#utility.yul\":5308:5314   */\n          0x00\n            /* \"#utility.yul\":5335:5355   */\n          tag_169\n          tag_170\n          jump\t// in\n        tag_169:\n            /* \"#utility.yul\":5325:5355   */\n          swap1\n          pop\n            /* \"#utility.yul\":5364:5397   */\n          tag_171\n            /* \"#utility.yul\":5392:5396   */\n          dup3\n            /* \"#utility.yul\":5384:5390   */\n          dup3\n            /* \"#utility.yul\":5364:5397   */\n          tag_172\n          jump\t// in\n        tag_171:\n            /* \"#utility.yul\":5274:5403   */\n          swap2\n          swap1\n          pop\n          jump\t// out\n            /* \"#utility.yul\":5409:5484   */\n        tag_170:\n            /* \"#utility.yul\":5442:5448   */\n          0x00\n            /* \"#utility.yul\":5475:5477   */\n          0x40\n            /* \"#utility.yul\":5469:5478   */\n          mload\n            /* \"#utility.yul\":5459:5478   */\n          swap1\n          pop\n            /* \"#utility.yul\":5409:5484   */\n          swap1\n          jump\t// out\n            /* \"#utility.yul\":5490:5798   */\n        tag_86:\n            /* \"#utility.yul\":5552:5556   */\n          0x00\n            /* \"#utility.yul\":5642:5660   */\n          0xffffffffffffffff\n            /* \"#utility.yul\":5634:5640   */\n          dup3\n            /* \"#utility.yul\":5631:5661   */\n          gt\n            /* \"#utility.yul\":5628:5684   */\n          iszero\n          tag_175\n          jumpi\n            /* \"#utility.yul\":5664:5682   */\n          tag_176\n          tag_40\n          jump\t// in\n        tag_176:\n            /* \"#utility.yul\":5628:5684   */\n        tag_175:\n            /* \"#utility.yul\":5702:5731   */\n          tag_177\n            /* \"#utility.yul\":5724:5730   */\n          dup3\n            /* \"#utility.yul\":5702:5731   */\n          tag_151\n          jump\t// in\n        tag_177:\n            /* \"#utility.yul\":5694:5731   */\n          swap1\n          pop\n            /* \"#utility.yul\":5786:5790   */\n          0x20\n            /* \"#utility.yul\":5780:5784   */\n          dup2\n            /* \"#utility.yul\":5776:5791   */\n          add\n            /* \"#utility.yul\":5768:5791   */\n          swap1\n          pop\n            /* \"#utility.yul\":5490:5798   */\n          swap2\n          swap1\n          pop\n          jump\t// out\n            /* \"#utility.yul\":5804:5936   */\n        tag_118:\n            /* \"#utility.yul\":5871:5875   */\n          0x00\n            /* \"#utility.yul\":5894:5897   */\n          dup2\n            /* \"#utility.yul\":5886:5897   */\n          swap1\n          pop\n            /* \"#utility.yul\":5924:5928   */\n          0x20\n            /* \"#utility.yul\":5919:5922   */\n          dup3\n            /* \"#utility.yul\":5915:5929   */\n          add\n            /* \"#utility.yul\":5907:5929   */\n          swap1\n          pop\n            /* \"#utility.yul\":5804:5936   */\n          swap2\n          swap1\n          pop\n          jump\t// out\n            /* \"#utility.yul\":5942:6086   */\n        tag_138:\n            /* \"#utility.yul\":5994:5998   */\n          0x00\n            /* \"#utility.yul\":6017:6020   */\n          dup2\n            /* \"#utility.yul\":6009:6020   */\n          swap1\n          pop\n            /* \"#utility.yul\":6040:6043   */\n          dup2\n            /* \"#utility.yul\":6037:6038   */\n          0x00\n            /* \"#utility.yul\":6030:6044   */\n          mstore\n            /* \"#utility.yul\":6074:6078   */\n          0x20\n            /* \"#utility.yul\":6071:6072   */\n          0x00\n            /* \"#utility.yul\":6061:6079   */\n          keccak256\n            /* \"#utility.yul\":6053:6079   */\n          swap1\n          pop\n            /* \"#utility.yul\":5942:6086   */\n          swap2\n          swap1\n          pop\n          jump\t// out\n            /* \"#utility.yul\":6092:6206   */\n        tag_114:\n            /* \"#utility.yul\":6159:6165   */\n          0x00\n            /* \"#utility.yul\":6193:6198   */\n          dup2\n            /* \"#utility.yul\":6187:6199   */\n          mload\n            /* \"#utility.yul\":6177:6199   */\n          swap1\n          pop\n            /* \"#utility.yul\":6092:6206   */\n          swap2\n          swap1\n          pop\n          jump\t// out\n            /* \"#utility.yul\":6212:6311   */\n        tag_145:\n            /* \"#utility.yul\":6264:6270   */\n          0x00\n            /* \"#utility.yul\":6298:6303   */\n          dup2\n            /* \"#utility.yul\":6292:6304   */\n          mload\n            /* \"#utility.yul\":6282:6304   */\n          swap1\n          pop\n            /* \"#utility.yul\":6212:6311   */\n          swap2\n          swap1\n          pop\n          jump\t// out\n            /* \"#utility.yul\":6317:6430   */\n        tag_124:\n            /* \"#utility.yul\":6387:6391   */\n          0x00\n            /* \"#utility.yul\":6419:6423   */\n          0x20\n            /* \"#utility.yul\":6414:6417   */\n          dup3\n            /* \"#utility.yul\":6410:6424   */\n          add\n            /* \"#utility.yul\":6402:6424   */\n          swap1\n          pop\n            /* \"#utility.yul\":6317:6430   */\n          swap2\n          swap1\n          pop\n          jump\t// out\n            /* \"#utility.yul\":6436:6620   */\n        tag_116:\n            /* \"#utility.yul\":6535:6546   */\n          0x00\n            /* \"#utility.yul\":6569:6575   */\n          dup3\n            /* \"#utility.yul\":6564:6567   */\n          dup3\n            /* \"#utility.yul\":6557:6576   */\n          mstore\n            /* \"#utility.yul\":6609:6613   */\n          0x20\n            /* \"#utility.yul\":6604:6607   */\n          dup3\n            /* \"#utility.yul\":6600:6614   */\n          add\n            /* \"#utility.yul\":6585:6614   */\n          swap1\n          pop\n            /* \"#utility.yul\":6436:6620   */\n          swap3\n          swap2\n          pop\n          pop\n          jump\t// out\n            /* \"#utility.yul\":6626:6773   */\n        tag_133:\n            /* \"#utility.yul\":6727:6738   */\n          0x00\n            /* \"#utility.yul\":6764:6767   */\n          dup2\n            /* \"#utility.yul\":6749:6767   */\n          swap1\n          pop\n            /* \"#utility.yul\":6626:6773   */\n          swap3\n          swap2\n          pop\n          pop\n          jump\t// out\n            /* \"#utility.yul\":6779:6948   */\n        tag_147:\n            /* \"#utility.yul\":6863:6874   */\n          0x00\n            /* \"#utility.yul\":6897:6903   */\n          dup3\n            /* \"#utility.yul\":6892:6895   */\n          dup3\n            /* \"#utility.yul\":6885:6904   */\n          mstore\n            /* \"#utility.yul\":6937:6941   */\n          0x20\n            /* \"#utility.yul\":6932:6935   */\n          dup3\n            /* \"#utility.yul\":6928:6942   */\n          add\n            /* \"#utility.yul\":6913:6942   */\n          swap1\n          pop\n            /* \"#utility.yul\":6779:6948   */\n          swap3\n          swap2\n          pop\n          pop\n          jump\t// out\n            /* \"#utility.yul\":6954:7259   */\n        tag_66:\n            /* \"#utility.yul\":6994:6997   */\n          0x00\n            /* \"#utility.yul\":7013:7033   */\n          tag_187\n            /* \"#utility.yul\":7031:7032   */\n          dup3\n            /* \"#utility.yul\":7013:7033   */\n          tag_154\n          jump\t// in\n        tag_187:\n            /* \"#utility.yul\":7008:7033   */\n          swap2\n          pop\n            /* \"#utility.yul\":7047:7067   */\n          tag_188\n            /* \"#utility.yul\":7065:7066   */\n          dup4\n            /* \"#utility.yul\":7047:7067   */\n          tag_154\n          jump\t// in\n        tag_188:\n            /* \"#utility.yul\":7042:7067   */\n          swap3\n          pop\n            /* \"#utility.yul\":7201:7202   */\n          dup3\n            /* \"#utility.yul\":7133:7199   */\n          0xffffffffffffffffffffffffffffffffffffffffffffffffffffffffffffffff\n            /* \"#utility.yul\":7129:7203   */\n          sub\n            /* \"#utility.yul\":7126:7127   */\n          dup3\n            /* \"#utility.yul\":7123:7204   */\n          gt\n            /* \"#utility.yul\":7120:7227   */\n          iszero\n          tag_189\n          jumpi\n            /* \"#utility.yul\":7207:7225   */\n          tag_190\n          tag_191\n          jump\t// in\n        tag_190:\n            /* \"#utility.yul\":7120:7227   */\n        tag_189:\n            /* \"#utility.yul\":7251:7252   */\n          dup3\n            /* \"#utility.yul\":7248:7249   */\n          dup3\n            /* \"#utility.yul\":7244:7253   */\n          add\n            /* \"#utility.yul\":7237:7253   */\n          swap1\n          pop\n            /* \"#utility.yul\":6954:7259   */\n          swap3\n          swap2\n          pop\n          pop\n          jump\t// out\n            /* \"#utility.yul\":7265:7456   */\n        tag_64:\n            /* \"#utility.yul\":7305:7309   */\n          0x00\n            /* \"#utility.yul\":7325:7345   */\n          tag_193\n            /* \"#utility.yul\":7343:7344   */\n          dup3\n            /* \"#utility.yul\":7325:7345   */\n          tag_154\n          jump\t// in\n        tag_193:\n            /* \"#utility.yul\":7320:7345   */\n          swap2\n          pop\n            /* \"#utility.yul\":7359:7379   */\n          tag_194\n            /* \"#utility.yul\":7377:7378   */\n          dup4\n            /* \"#utility.yul\":7359:7379   */\n          tag_154\n          jump\t// in\n        tag_194:\n            /* \"#utility.yul\":7354:7379   */\n          swap3\n          pop\n            /* \"#utility.yul\":7398:7399   */\n          dup3\n            /* \"#utility.yul\":7395:7396   */\n          dup3\n            /* \"#utility.yul\":7392:7400   */\n          lt\n            /* \"#utility.yul\":7389:7423   */\n          iszero\n          tag_195\n          jumpi\n            /* \"#utility.yul\":7403:7421   */\n          tag_196\n          tag_191\n          jump\t// in\n        tag_196:\n            /* \"#utility.yul\":7389:7423   */\n        tag_195:\n            /* \"#utility.yul\":7448:7449   */\n          dup3\n            /* \"#utility.yul\":7445:7446   */\n          dup3\n            /* \"#utility.yul\":7441:7450   */\n          sub\n            /* \"#utility.yul\":7433:7450   */\n          swap1\n          pop\n            /* \"#utility.yul\":7265:7456   */\n          swap3\n          swap2\n          pop\n          pop\n          jump\t// out\n            /* \"#utility.yul\":7462:7552   */\n        tag_128:\n            /* \"#utility.yul\":7496:7503   */\n          0x00\n            /* \"#utility.yul\":7539:7544   */\n          dup2\n            /* \"#utility.yul\":7532:7545   */\n          iszero\n            /* \"#utility.yul\":7525:7546   */\n          iszero\n            /* \"#utility.yul\":7514:7546   */\n          swap1\n          pop\n            /* \"#utility.yul\":7462:7552   */\n          swap2\n          swap1\n          pop\n          jump\t// out\n            /* \"#utility.yul\":7558:7635   */\n        tag_154:\n            /* \"#utility.yul\":7595:7602   */\n          0x00\n            /* \"#utility.yul\":7624:7629   */\n          dup2\n            /* \"#utility.yul\":7613:7629   */\n          swap1\n          pop\n            /* \"#utility.yul\":7558:7635   */\n          swap2\n          swap1\n          pop\n          jump\t// out\n            /* \"#utility.yul\":7641:7795   */\n        tag_92:\n            /* \"#utility.yul\":7725:7731   */\n          dup3\n            /* \"#utility.yul\":7720:7723   */\n          dup2\n            /* \"#utility.yul\":7715:7718   */\n          dup4\n            /* \"#utility.yul\":7702:7732   */\n          calldatacopy\n            /* \"#utility.yul\":7787:7788   */\n          0x00\n            /* \"#utility.yul\":7778:7784   */\n          dup4\n            /* \"#utility.yul\":7773:7776   */\n          dup4\n            /* \"#utility.yul\":7769:7785   */\n          add\n            /* \"#utility.yul\":7762:7789   */\n          mstore\n            /* \"#utility.yul\":7641:7795   */\n          pop\n          pop\n          pop\n          jump\t// out\n            /* \"#utility.yul\":7801:8108   */\n        tag_149:\n            /* \"#utility.yul\":7869:7870   */\n          0x00\n            /* \"#utility.yul\":7879:7992   */\n        tag_201:\n            /* \"#utility.yul\":7893:7899   */\n          dup4\n            /* \"#utility.yul\":7890:7891   */\n          dup2\n            /* \"#utility.yul\":7887:7900   */\n          lt\n            /* \"#utility.yul\":7879:7992   */\n          iszero\n          tag_203\n          jumpi\n            /* \"#utility.yul\":7978:7979   */\n          dup1\n            /* \"#utility.yul\":7973:7976   */\n          dup3\n            /* \"#utility.yul\":7969:7980   */\n          add\n            /* \"#utility.yul\":7963:7981   */\n          mload\n            /* \"#utility.yul\":7959:7960   */\n          dup2\n            /* \"#utility.yul\":7954:7957   */\n          dup5\n            /* \"#utility.yul\":7950:7961   */\n          add\n            /* \"#utility.yul\":7943:7982   */\n          mstore\n            /* \"#utility.yul\":7915:7917   */\n          0x20\n            /* \"#utility.yul\":7912:7913   */\n          dup2\n            /* \"#utility.yul\":7908:7918   */\n          add\n            /* \"#utility.yul\":7903:7918   */\n          swap1\n          pop\n            /* \"#utility.yul\":7879:7992   */\n          jump(tag_201)\n        tag_203:\n            /* \"#utility.yul\":8010:8016   */\n          dup4\n            /* \"#utility.yul\":8007:8008   */\n          dup2\n            /* \"#utility.yul\":8004:8017   */\n          gt\n            /* \"#utility.yul\":8001:8102   */\n          iszero\n          tag_204\n          jumpi\n            /* \"#utility.yul\":8090:8091   */\n          0x00\n            /* \"#utility.yul\":8081:8087   */\n          dup5\n            /* \"#utility.yul\":8076:8079   */\n          dup5\n            /* \"#utility.yul\":8072:8088   */\n          add\n            /* \"#utility.yul\":8065:8092   */\n          mstore\n            /* \"#utility.yul\":8001:8102   */\n        tag_204:\n            /* \"#utility.yul\":7850:8108   */\n          pop\n            /* \"#utility.yul\":7801:8108   */\n          pop\n          pop\n          pop\n          jump\t// out\n            /* \"#utility.yul\":8114:8434   */\n        tag_32:\n            /* \"#utility.yul\":8158:8164   */\n          0x00\n            /* \"#utility.yul\":8195:8196   */\n          0x02\n            /* \"#utility.yul\":8189:8193   */\n          dup3\n            /* \"#utility.yul\":8185:8197   */\n          div\n            /* \"#utility.yul\":8175:8197   */\n          swap1\n          pop\n            /* \"#utility.yul\":8242:8243   */\n          0x01\n            /* \"#utility.yul\":8236:8240   */\n          dup3\n            /* \"#utility.yul\":8232:8244   */\n          and\n            /* \"#utility.yul\":8263:8281   */\n          dup1\n            /* \"#utility.yul\":8253:8334   */\n          tag_206\n          jumpi\n            /* \"#utility.yul\":8319:8323   */\n          0x7f\n            /* \"#utility.yul\":8311:8317   */\n          dup3\n            /* \"#utility.yul\":8307:8324   */\n          and\n            /* \"#utility.yul\":8297:8324   */\n          swap2\n          pop\n            /* \"#utility.yul\":8253:8334   */\n        tag_206:\n            /* \"#utility.yul\":8381:8383   */\n          0x20\n            /* \"#utility.yul\":8373:8379   */\n          dup3\n            /* \"#utility.yul\":8370:8384   */\n          lt\n            /* \"#utility.yul\":8350:8368   */\n          dup2\n            /* \"#utility.yul\":8347:8385   */\n          eq\n            /* \"#utility.yul\":8344:8428   */\n          iszero\n          tag_207\n          jumpi\n            /* \"#utility.yul\":8400:8418   */\n          tag_208\n          tag_209\n          jump\t// in\n        tag_208:\n            /* \"#utility.yul\":8344:8428   */\n        tag_207:\n            /* \"#utility.yul\":8165:8434   */\n          pop\n            /* \"#utility.yul\":8114:8434   */\n          swap2\n          swap1\n          pop\n          jump\t// out\n            /* \"#utility.yul\":8440:8721   */\n        tag_172:\n            /* \"#utility.yul\":8523:8550   */\n          tag_211\n            /* \"#utility.yul\":8545:8549   */\n          dup3\n            /* \"#utility.yul\":8523:8550   */\n          tag_151\n          jump\t// in\n        tag_211:\n            /* \"#utility.yul\":8515:8521   */\n          dup2\n            /* \"#utility.yul\":8511:8551   */\n          add\n            /* \"#utility.yul\":8653:8659   */\n          dup2\n            /* \"#utility.yul\":8641:8651   */\n          dup2\n            /* \"#utility.yul\":8638:8660   */\n          lt\n            /* \"#utility.yul\":8617:8635   */\n          0xffffffffffffffff\n            /* \"#utility.yul\":8605:8615   */\n          dup3\n            /* \"#utility.yul\":8602:8636   */\n          gt\n            /* \"#utility.yul\":8599:8661   */\n          or\n            /* \"#utility.yul\":8596:8684   */\n          iszero\n          tag_212\n          jumpi\n            /* \"#utility.yul\":8664:8682   */\n          tag_213\n          tag_40\n          jump\t// in\n        tag_213:\n            /* \"#utility.yul\":8596:8684   */\n        tag_212:\n            /* \"#utility.yul\":8704:8714   */\n          dup1\n            /* \"#utility.yul\":8700:8702   */\n          0x40\n            /* \"#utility.yul\":8693:8715   */\n          mstore\n            /* \"#utility.yul\":8483:8721   */\n          pop\n            /* \"#utility.yul\":8440:8721   */\n          pop\n          pop\n          jump\t// out\n            /* \"#utility.yul\":8727:8960   */\n        tag_60:\n            /* \"#utility.yul\":8766:8769   */\n          0x00\n            /* \"#utility.yul\":8789:8813   */\n          tag_215\n            /* \"#utility.yul\":8807:8812   */\n          dup3\n            /* \"#utility.yul\":8789:8813   */\n          tag_154\n          jump\t// in\n        tag_215:\n            /* \"#utility.yul\":8780:8813   */\n          swap2\n          pop\n            /* \"#utility.yul\":8835:8901   */\n          0xffffffffffffffffffffffffffffffffffffffffffffffffffffffffffffffff\n            /* \"#utility.yul\":8828:8833   */\n          dup3\n            /* \"#utility.yul\":8825:8902   */\n          eq\n            /* \"#utility.yul\":8822:8925   */\n          iszero\n          tag_216\n          jumpi\n            /* \"#utility.yul\":8905:8923   */\n          tag_217\n          tag_191\n          jump\t// in\n        tag_217:\n            /* \"#utility.yul\":8822:8925   */\n        tag_216:\n            /* \"#utility.yul\":8952:8953   */\n          0x01\n            /* \"#utility.yul\":8945:8950   */\n          dup3\n            /* \"#utility.yul\":8941:8954   */\n          add\n            /* \"#utility.yul\":8934:8954   */\n          swap1\n          pop\n            /* \"#utility.yul\":8727:8960   */\n          swap2\n          swap1\n          pop\n          jump\t// out\n            /* \"#utility.yul\":8966:9146   */\n        tag_191:\n            /* \"#utility.yul\":9014:9091   */\n          0x4e487b7100000000000000000000000000000000000000000000000000000000\n            /* \"#utility.yul\":9011:9012   */\n          0x00\n            /* \"#utility.yul\":9004:9092   */\n          mstore\n            /* \"#utility.yul\":9111:9115   */\n          0x11\n            /* \"#utility.yul\":9108:9109   */\n          0x04\n            /* \"#utility.yul\":9101:9116   */\n          mstore\n            /* \"#utility.yul\":9135:9139   */\n          0x24\n            /* \"#utility.yul\":9132:9133   */\n          0x00\n            /* \"#utility.yul\":9125:9140   */\n          revert\n            /* \"#utility.yul\":9152:9332   */\n        tag_209:\n            /* \"#utility.yul\":9200:9277   */\n          0x4e487b7100000000000000000000000000000000000000000000000000000000\n            /* \"#utility.yul\":9197:9198   */\n          0x00\n            /* \"#utility.yul\":9190:9278   */\n          mstore\n            /* \"#utility.yul\":9297:9301   */\n          0x22\n            /* \"#utility.yul\":9294:9295   */\n          0x04\n            /* \"#utility.yul\":9287:9302   */\n          mstore\n            /* \"#utility.yul\":9321:9325   */\n          0x24\n            /* \"#utility.yul\":9318:9319   */\n          0x00\n            /* \"#utility.yul\":9311:9326   */\n          revert\n            /* \"#utility.yul\":9338:9518   */\n        tag_55:\n            /* \"#utility.yul\":9386:9463   */\n          0x4e487b7100000000000000000000000000000000000000000000000000000000\n            /* \"#utility.yul\":9383:9384   */\n          0x00\n            /* \"#utility.yul\":9376:9464   */\n          mstore\n            /* \"#utility.yul\":9483:9487   */\n          0x32\n            /* \"#utility.yul\":9480:9481   */\n          0x04\n            /* \"#utility.yul\":9473:9488   */\n          mstore\n            /* \"#utility.yul\":9507:9511   */\n          0x24\n            /* \"#utility.yul\":9504:9505   */\n          0x00\n            /* \"#utility.yul\":9497:9512   */\n          revert\n            /* \"#utility.yul\":9524:9704   */\n        tag_40:\n            /* \"#utility.yul\":9572:9649   */\n          0x4e487b7100000000000000000000000000000000000000000000000000000000\n            /* \"#utility.yul\":9569:9570   */\n          0x00\n            /* \"#utility.yul\":9562:9650   */\n          mstore\n            /* \"#utility.yul\":9669:9673   */\n          0x41\n            /* \"#utility.yul\":9666:9667   */\n          0x04\n            /* \"#utility.yul\":9659:9674   */\n          mstore\n            /* \"#utility.yul\":9693:9697   */\n          0x24\n            /* \"#utility.yul\":9690:9691   */\n          0x00\n            /* \"#utility.yul\":9683:9698   */\n          revert\n            /* \"#utility.yul\":9710:9827   */\n        tag_97:\n            /* \"#utility.yul\":9819:9820   */\n          0x00\n            /* \"#utility.yul\":9816:9817   */\n          dup1\n            /* \"#utility.yul\":9809:9821   */\n          revert\n            /* \"#utility.yul\":9833:9950   */\n        tag_90:\n            /* \"#utility.yul\":9942:9943   */\n          0x00\n            /* \"#utility.yul\":9939:9940   */\n          dup1\n            /* \"#utility.yul\":9932:9944   */\n          revert\n            /* \"#utility.yul\":9956:10073   */\n        tag_105:\n            /* \"#utility.yul\":10065:10066   */\n          0x00\n            /* \"#utility.yul\":10062:10063   */\n          dup1\n            /* \"#utility.yul\":10055:10067   */\n          revert\n            /* \"#utility.yul\":10079:10196   */\n        tag_102:\n            /* \"#utility.yul\":10188:10189   */\n          0x00\n            /* \"#utility.yul\":10185:10186   */\n          dup1\n            /* \"#utility.yul\":10178:10190   */\n          revert\n            /* \"#utility.yul\":10202:10304   */\n        tag_151:\n            /* \"#utility.yul\":10243:10249   */\n          0x00\n            /* \"#utility.yul\":10294:10296   */\n          0x1f\n            /* \"#utility.yul\":10290:10297   */\n          not\n            /* \"#utility.yul\":10285:10287   */\n          0x1f\n            /* \"#utility.yul\":10278:10283   */\n          dup4\n            /* \"#utility.yul\":10274:10288   */\n          add\n            /* \"#utility.yul\":10270:10298   */\n          and\n            /* \"#utility.yul\":10260:10298   */\n          swap1\n          pop\n            /* \"#utility.yul\":10202:10304   */\n          swap2\n          swap1\n          pop\n          jump\t// out\n\n        auxdata: 0xa2646970667358221220fbe79013d391d031056210041c8d1093367ac6951efc4eba5565366601b08e7564736f6c63430008070033\n    }\n}\n",
				"bytecode": {
					"linkReferences": {},
					"object": "60806040523480156200001157600080fd5b5060405162001be638038062001be683398181016040528101906200003791906200021e565b336000806101000a81548173ffffffffffffffffffffffffffffffffffffffff021916908373ffffffffffffffffffffffffffffffffffffffff16021790555080600260006101000a81548173ffffffffffffffffffffffffffffffffffffffff021916908373ffffffffffffffffffffffffffffffffffffffff160217905550600260009054906101000a900473ffffffffffffffffffffffffffffffffffffffff1673ffffffffffffffffffffffffffffffffffffffff1663fe1c25436040518163ffffffff1660e01b8152600401602060405180830381600087803b1580156200012357600080fd5b505af115801562000138573d6000803e3d6000fd5b505050506040513d601f19601f820116820180604052508101906200015e919062000250565b6001819055506040516200017290620001e2565b6200017d90620002a9565b604051809103906000f0801580156200019a573d6000803e3d6000fd5b50600360006101000a81548173ffffffffffffffffffffffffffffffffffffffff021916908373ffffffffffffffffffffffffffffffffffffffff1602179055505062000356565b610de18062000e0583390190565b600081519050620002018162000322565b92915050565b60008151905062000218816200033c565b92915050565b6000602082840312156200023757620002366200031a565b5b60006200024784828501620001f0565b91505092915050565b6000602082840312156200026957620002686200031a565b5b6000620002798482850162000207565b91505092915050565b600062000291600083620002cb565b91506200029e826200031f565b600082019050919050565b60006020820190508181036000830152620002c48162000282565b9050919050565b600082825260208201905092915050565b6000620002e982620002f0565b9050919050565b600073ffffffffffffffffffffffffffffffffffffffff82169050919050565b6000819050919050565b600080fd5b50565b6200032d81620002dc565b81146200033957600080fd5b50565b620003478162000310565b81146200035357600080fd5b50565b610a9f80620003666000396000f3fe608060405234801561001057600080fd5b50600436106100625760003560e01c80630f0355da1461006757806351b6447f146100855780638da5cb5b146100a1578063ab9dbd07146100bf578063b0ea68f3146100dd578063f2fde38b146100f9575b600080fd5b61006f610115565b60405161007c9190610801565b60405180910390f35b61009f600480360381019061009a919061070a565b61026b565b005b6100a961037c565b6040516100b691906107e6565b60405180910390f35b6100c76103a0565b6040516100d4919061084c565b60405180910390f35b6100f760048036038101906100f2919061070a565b6103aa565b005b610113600480360381019061010e91906106b0565b6104b2565b005b60008060009054906101000a900473ffffffffffffffffffffffffffffffffffffffff1673ffffffffffffffffffffffffffffffffffffffff163373ffffffffffffffffffffffffffffffffffffffff161461017057600080fd5b6000600260009054906101000a900473ffffffffffffffffffffffffffffffffffffffff1673ffffffffffffffffffffffffffffffffffffffff166347ac0cd46001546040518263ffffffff1660e01b81526004016101cf919061084c565b602060405180830381600087803b1580156101e957600080fd5b505af11580156101fd573d6000803e3d6000fd5b505050506040513d601f19601f8201168201806040525081019061022191906106dd565b905080600360006101000a81548173ffffffffffffffffffffffffffffffffffffffff021916908373ffffffffffffffffffffffffffffffffffffffff1602179055508091505090565b60008054906101000a900473ffffffffffffffffffffffffffffffffffffffff1673ffffffffffffffffffffffffffffffffffffffff163373ffffffffffffffffffffffffffffffffffffffff16146102c357600080fd5b6000600260009054906101000a900473ffffffffffffffffffffffffffffffffffffffff1673ffffffffffffffffffffffffffffffffffffffff16632801ba8a836001546040518363ffffffff1660e01b815260040161032492919061081c565b602060405180830381600087803b15801561033e57600080fd5b505af1158015610352573d6000803e3d6000fd5b505050506040513d601f19601f820116820180604052508101906103769190610753565b90505050565b60008054906101000a900473ffffffffffffffffffffffffffffffffffffffff1681565b6000600154905090565b60008054906101000a900473ffffffffffffffffffffffffffffffffffffffff1673ffffffffffffffffffffffffffffffffffffffff163373ffffffffffffffffffffffffffffffffffffffff161461040257600080fd5b6000600360009054906101000a900473ffffffffffffffffffffffffffffffffffffffff1673ffffffffffffffffffffffffffffffffffffffff16634a90be576040518163ffffffff1660e01b815260040160206040518083038186803b15801561046c57600080fd5b505afa158015610480573d6000803e3d6000fd5b505050506040513d601f19601f820116820180604052508101906104a49190610753565b14156104af57600080fd5b50565b60008054906101000a900473ffffffffffffffffffffffffffffffffffffffff1673ffffffffffffffffffffffffffffffffffffffff163373ffffffffffffffffffffffffffffffffffffffff161461050a57600080fd5b600073ffffffffffffffffffffffffffffffffffffffff168173ffffffffffffffffffffffffffffffffffffffff16141561054457600080fd5b8073ffffffffffffffffffffffffffffffffffffffff1660008054906101000a900473ffffffffffffffffffffffffffffffffffffffff1673ffffffffffffffffffffffffffffffffffffffff167f8be0079c531659141344cd1fd0a4f28419497f9722a3daafe3b4186f6b6457e060405160405180910390a3806000806101000a81548173ffffffffffffffffffffffffffffffffffffffff021916908373ffffffffffffffffffffffffffffffffffffffff16021790555050565b600061061461060f8461088c565b610867565b9050828152602081018484840111156106305761062f610a04565b5b61063b84828561095d565b509392505050565b60008135905061065281610a24565b92915050565b60008151905061066781610a3b565b92915050565b600082601f830112610682576106816109ff565b5b8135610692848260208601610601565b91505092915050565b6000815190506106aa81610a52565b92915050565b6000602082840312156106c6576106c5610a0e565b5b60006106d484828501610643565b91505092915050565b6000602082840312156106f3576106f2610a0e565b5b600061070184828501610658565b91505092915050565b6000602082840312156107205761071f610a0e565b5b600082013567ffffffffffffffff81111561073e5761073d610a09565b5b61074a8482850161066d565b91505092915050565b60006020828403121561076957610768610a0e565b5b60006107778482850161069b565b91505092915050565b610789816108d9565b82525050565b61079881610927565b82525050565b60006107a9826108bd565b6107b381856108c8565b93506107c381856020860161096c565b6107cc81610a13565b840191505092915050565b6107e08161091d565b82525050565b60006020820190506107fb6000830184610780565b92915050565b6000602082019050610816600083018461078f565b92915050565b60006040820190508181036000830152610836818561079e565b905061084560208301846107d7565b9392505050565b600060208201905061086160008301846107d7565b92915050565b6000610871610882565b905061087d828261099f565b919050565b6000604051905090565b600067ffffffffffffffff8211156108a7576108a66109d0565b5b6108b082610a13565b9050602081019050919050565b600081519050919050565b600082825260208201905092915050565b60006108e4826108fd565b9050919050565b60006108f6826108d9565b9050919050565b600073ffffffffffffffffffffffffffffffffffffffff82169050919050565b6000819050919050565b600061093282610939565b9050919050565b60006109448261094b565b9050919050565b6000610956826108fd565b9050919050565b82818337600083830152505050565b60005b8381101561098a57808201518184015260208101905061096f565b83811115610999576000848401525b50505050565b6109a882610a13565b810181811067ffffffffffffffff821117156109c7576109c66109d0565b5b80604052505050565b7f4e487b7100000000000000000000000000000000000000000000000000000000600052604160045260246000fd5b600080fd5b600080fd5b600080fd5b600080fd5b6000601f19601f8301169050919050565b610a2d816108d9565b8114610a3857600080fd5b50565b610a44816108eb565b8114610a4f57600080fd5b50565b610a5b8161091d565b8114610a6657600080fd5b5056fea2646970667358221220fdc778d3a7dcea2414e6c73c990eb122c29a539a92499be941188a289a83134d64736f6c6343000807003360806040523480156200001157600080fd5b5060405162000de138038062000de183398181016040528101906200003791906200019c565b80600090805190602001906200004f9291906200006e565b50600080546200005f9062000282565b90506001819055505062000371565b8280546200007c9062000282565b90600052602060002090601f016020900481019282620000a05760008555620000ec565b82601f10620000bb57805160ff1916838001178555620000ec565b82800160010185558215620000ec579182015b82811115620000eb578251825591602001919060010190620000ce565b5b509050620000fb9190620000ff565b5090565b5b808211156200011a57600081600090555060010162000100565b5090565b6000620001356200012f8462000216565b620001ed565b90508281526020810184848401111562000154576200015362000351565b5b620001618482856200024c565b509392505050565b600082601f8301126200018157620001806200034c565b5b8151620001938482602086016200011e565b91505092915050565b600060208284031215620001b557620001b46200035b565b5b600082015167ffffffffffffffff811115620001d657620001d562000356565b5b620001e48482850162000169565b91505092915050565b6000620001f96200020c565b9050620002078282620002b8565b919050565b6000604051905090565b600067ffffffffffffffff8211156200023457620002336200031d565b5b6200023f8262000360565b9050602081019050919050565b60005b838110156200026c5780820151818401526020810190506200024f565b838111156200027c576000848401525b50505050565b600060028204905060018216806200029b57607f821691505b60208210811415620002b257620002b1620002ee565b5b50919050565b620002c38262000360565b810181811067ffffffffffffffff82111715620002e557620002e46200031d565b5b80604052505050565b7f4e487b7100000000000000000000000000000000000000000000000000000000600052602260045260246000fd5b7f4e487b7100000000000000000000000000000000000000000000000000000000600052604160045260246000fd5b600080fd5b600080fd5b600080fd5b600080fd5b6000601f19601f8301169050919050565b610a6080620003816000396000f3fe608060405234801561001057600080fd5b506004361061004c5760003560e01c80634a90be5714610051578063b587e20a1461006f578063b8c9e4ed1461009f578063f5db08d9146100bd575b600080fd5b6100596100ed565b60405161006691906106d5565b60405180910390f35b610089600480360381019061008491906104bb565b6100f7565b6040516100969190610698565b60405180910390f35b6100a761011f565b6040516100b491906106b3565b60405180910390f35b6100d760048036038101906100d291906104bb565b6101b1565b6040516100e49190610676565b60405180910390f35b6000600154905090565b600080604051610107919061065f565b60405180910390208280519060200120149050919050565b60606000805461012e9061089d565b80601f016020809104026020016040519081016040528092919081815260200182805461015a9061089d565b80156101a75780601f1061017c576101008083540402835291602001916101a7565b820191906000526020600020905b81548152906001019060200180831161018a57829003601f168201915b5050505050905090565b60608060008060015467ffffffffffffffff8111156101d3576101d26109d6565b5b6040519080825280602002602001820160405280156102015781602001602082028036833780820191505090505b5090506000600190505b600154811161032a576102a98182600080546102269061089d565b80601f01602080910402602001604051908101604052809291908181526020018280546102529061089d565b801561029f5780601f106102745761010080835404028352916020019161029f565b820191906000526020600020905b81548152906001019060200180831161028257829003601f168201915b5050505050610336565b93508580519060200120848051906020012014156102e75760018284815181106102d6576102d56109a7565b5b602002602001018181525050610309565b60008284815181106102fc576102fb6109a7565b5b6020026020010181815250505b828061031490610900565b935050808061032290610900565b91505061020b565b50809350505050919050565b60606000600185856103489190610811565b61035291906107bb565b67ffffffffffffffff81111561036b5761036a6109d6565b5b6040519080825280601f01601f19166020018201604052801561039d5781602001600182028036833780820191505090505b50905060005b85856103af9190610811565b811161043f5783600187836103c491906107bb565b6103ce9190610811565b815181106103df576103de6109a7565b5b602001015160f81c60f81b8282815181106103fd576103fc6109a7565b5b60200101907effffffffffffffffffffffffffffffffffffffffffffffffffffffffffffff1916908160001a905350808061043790610900565b9150506103a3565b50809150509392505050565b600061045e61045984610715565b6106f0565b90508281526020810184848401111561047a57610479610a0a565b5b61048584828561085b565b509392505050565b600082601f8301126104a2576104a1610a05565b5b81356104b284826020860161044b565b91505092915050565b6000602082840312156104d1576104d0610a14565b5b600082013567ffffffffffffffff8111156104ef576104ee610a0f565b5b6104fb8482850161048d565b91505092915050565b60006105108383610641565b60208301905092915050565b60006105278261076b565b610531818561078e565b935061053c83610746565b8060005b8381101561056d5781516105548882610504565b975061055f83610781565b925050600181019050610540565b5085935050505092915050565b61058381610845565b82525050565b600081546105968161089d565b6105a0818661079f565b945060018216600081146105bb57600181146105cc576105ff565b60ff198316865281860193506105ff565b6105d585610756565b60005b838110156105f7578154818901526001820191506020810190506105d8565b838801955050505b50505092915050565b600061061382610776565b61061d81856107aa565b935061062d81856020860161086a565b61063681610a19565b840191505092915050565b61064a81610851565b82525050565b61065981610851565b82525050565b600061066b8284610589565b915081905092915050565b60006020820190508181036000830152610690818461051c565b905092915050565b60006020820190506106ad600083018461057a565b92915050565b600060208201905081810360008301526106cd8184610608565b905092915050565b60006020820190506106ea6000830184610650565b92915050565b60006106fa61070b565b905061070682826108cf565b919050565b6000604051905090565b600067ffffffffffffffff8211156107305761072f6109d6565b5b61073982610a19565b9050602081019050919050565b6000819050602082019050919050565b60008190508160005260206000209050919050565b600081519050919050565b600081519050919050565b6000602082019050919050565b600082825260208201905092915050565b600081905092915050565b600082825260208201905092915050565b60006107c682610851565b91506107d183610851565b9250827fffffffffffffffffffffffffffffffffffffffffffffffffffffffffffffffff0382111561080657610805610949565b5b828201905092915050565b600061081c82610851565b915061082783610851565b92508282101561083a57610839610949565b5b828203905092915050565b60008115159050919050565b6000819050919050565b82818337600083830152505050565b60005b8381101561088857808201518184015260208101905061086d565b83811115610897576000848401525b50505050565b600060028204905060018216806108b557607f821691505b602082108114156108c9576108c8610978565b5b50919050565b6108d882610a19565b810181811067ffffffffffffffff821117156108f7576108f66109d6565b5b80604052505050565b600061090b82610851565b91507fffffffffffffffffffffffffffffffffffffffffffffffffffffffffffffffff82141561093e5761093d610949565b5b600182019050919050565b7f4e487b7100000000000000000000000000000000000000000000000000000000600052601160045260246000fd5b7f4e487b7100000000000000000000000000000000000000000000000000000000600052602260045260246000fd5b7f4e487b7100000000000000000000000000000000000000000000000000000000600052603260045260246000fd5b7f4e487b7100000000000000000000000000000000000000000000000000000000600052604160045260246000fd5b600080fd5b600080fd5b600080fd5b600080fd5b6000601f19601f830116905091905056fea2646970667358221220fbe79013d391d031056210041c8d1093367ac6951efc4eba5565366601b08e7564736f6c63430008070033",
					"opcodes": "PUSH1 0x80 PUSH1 0x40 MSTORE CALLVALUE DUP1 ISZERO PUSH3 0x11 JUMPI PUSH1 0x0 DUP1 REVERT JUMPDEST POP PUSH1 0x40 MLOAD PUSH3 0x1BE6 CODESIZE SUB DUP1 PUSH3 0x1BE6 DUP4 CODECOPY DUP2 DUP2 ADD PUSH1 0x40 MSTORE DUP2 ADD SWAP1 PUSH3 0x37 SWAP2 SWAP1 PUSH3 0x21E JUMP JUMPDEST CALLER PUSH1 0x0 DUP1 PUSH2 0x100 EXP DUP2 SLOAD DUP2 PUSH20 0xFFFFFFFFFFFFFFFFFFFFFFFFFFFFFFFFFFFFFFFF MUL NOT AND SWAP1 DUP4 PUSH20 0xFFFFFFFFFFFFFFFFFFFFFFFFFFFFFFFFFFFFFFFF AND MUL OR SWAP1 SSTORE POP DUP1 PUSH1 0x2 PUSH1 0x0 PUSH2 0x100 EXP DUP2 SLOAD DUP2 PUSH20 0xFFFFFFFFFFFFFFFFFFFFFFFFFFFFFFFFFFFFFFFF MUL NOT AND SWAP1 DUP4 PUSH20 0xFFFFFFFFFFFFFFFFFFFFFFFFFFFFFFFFFFFFFFFF AND MUL OR SWAP1 SSTORE POP PUSH1 0x2 PUSH1 0x0 SWAP1 SLOAD SWAP1 PUSH2 0x100 EXP SWAP1 DIV PUSH20 0xFFFFFFFFFFFFFFFFFFFFFFFFFFFFFFFFFFFFFFFF AND PUSH20 0xFFFFFFFFFFFFFFFFFFFFFFFFFFFFFFFFFFFFFFFF AND PUSH4 0xFE1C2543 PUSH1 0x40 MLOAD DUP2 PUSH4 0xFFFFFFFF AND PUSH1 0xE0 SHL DUP2 MSTORE PUSH1 0x4 ADD PUSH1 0x20 PUSH1 0x40 MLOAD DUP1 DUP4 SUB DUP2 PUSH1 0x0 DUP8 DUP1 EXTCODESIZE ISZERO DUP1 ISZERO PUSH3 0x123 JUMPI PUSH1 0x0 DUP1 REVERT JUMPDEST POP GAS CALL ISZERO DUP1 ISZERO PUSH3 0x138 JUMPI RETURNDATASIZE PUSH1 0x0 DUP1 RETURNDATACOPY RETURNDATASIZE PUSH1 0x0 REVERT JUMPDEST POP POP POP POP PUSH1 0x40 MLOAD RETURNDATASIZE PUSH1 0x1F NOT PUSH1 0x1F DUP3 ADD AND DUP3 ADD DUP1 PUSH1 0x40 MSTORE POP DUP2 ADD SWAP1 PUSH3 0x15E SWAP2 SWAP1 PUSH3 0x250 JUMP JUMPDEST PUSH1 0x1 DUP2 SWAP1 SSTORE POP PUSH1 0x40 MLOAD PUSH3 0x172 SWAP1 PUSH3 0x1E2 JUMP JUMPDEST PUSH3 0x17D SWAP1 PUSH3 0x2A9 JUMP JUMPDEST PUSH1 0x40 MLOAD DUP1 SWAP2 SUB SWAP1 PUSH1 0x0 CREATE DUP1 ISZERO DUP1 ISZERO PUSH3 0x19A JUMPI RETURNDATASIZE PUSH1 0x0 DUP1 RETURNDATACOPY RETURNDATASIZE PUSH1 0x0 REVERT JUMPDEST POP PUSH1 0x3 PUSH1 0x0 PUSH2 0x100 EXP DUP2 SLOAD DUP2 PUSH20 0xFFFFFFFFFFFFFFFFFFFFFFFFFFFFFFFFFFFFFFFF MUL NOT AND SWAP1 DUP4 PUSH20 0xFFFFFFFFFFFFFFFFFFFFFFFFFFFFFFFFFFFFFFFF AND MUL OR SWAP1 SSTORE POP POP PUSH3 0x356 JUMP JUMPDEST PUSH2 0xDE1 DUP1 PUSH3 0xE05 DUP4 CODECOPY ADD SWAP1 JUMP JUMPDEST PUSH1 0x0 DUP2 MLOAD SWAP1 POP PUSH3 0x201 DUP2 PUSH3 0x322 JUMP JUMPDEST SWAP3 SWAP2 POP POP JUMP JUMPDEST PUSH1 0x0 DUP2 MLOAD SWAP1 POP PUSH3 0x218 DUP2 PUSH3 0x33C JUMP JUMPDEST SWAP3 SWAP2 POP POP JUMP JUMPDEST PUSH1 0x0 PUSH1 0x20 DUP3 DUP5 SUB SLT ISZERO PUSH3 0x237 JUMPI PUSH3 0x236 PUSH3 0x31A JUMP JUMPDEST JUMPDEST PUSH1 0x0 PUSH3 0x247 DUP5 DUP3 DUP6 ADD PUSH3 0x1F0 JUMP JUMPDEST SWAP2 POP POP SWAP3 SWAP2 POP POP JUMP JUMPDEST PUSH1 0x0 PUSH1 0x20 DUP3 DUP5 SUB SLT ISZERO PUSH3 0x269 JUMPI PUSH3 0x268 PUSH3 0x31A JUMP JUMPDEST JUMPDEST PUSH1 0x0 PUSH3 0x279 DUP5 DUP3 DUP6 ADD PUSH3 0x207 JUMP JUMPDEST SWAP2 POP POP SWAP3 SWAP2 POP POP JUMP JUMPDEST PUSH1 0x0 PUSH3 0x291 PUSH1 0x0 DUP4 PUSH3 0x2CB JUMP JUMPDEST SWAP2 POP PUSH3 0x29E DUP3 PUSH3 0x31F JUMP JUMPDEST PUSH1 0x0 DUP3 ADD SWAP1 POP SWAP2 SWAP1 POP JUMP JUMPDEST PUSH1 0x0 PUSH1 0x20 DUP3 ADD SWAP1 POP DUP2 DUP2 SUB PUSH1 0x0 DUP4 ADD MSTORE PUSH3 0x2C4 DUP2 PUSH3 0x282 JUMP JUMPDEST SWAP1 POP SWAP2 SWAP1 POP JUMP JUMPDEST PUSH1 0x0 DUP3 DUP3 MSTORE PUSH1 0x20 DUP3 ADD SWAP1 POP SWAP3 SWAP2 POP POP JUMP JUMPDEST PUSH1 0x0 PUSH3 0x2E9 DUP3 PUSH3 0x2F0 JUMP JUMPDEST SWAP1 POP SWAP2 SWAP1 POP JUMP JUMPDEST PUSH1 0x0 PUSH20 0xFFFFFFFFFFFFFFFFFFFFFFFFFFFFFFFFFFFFFFFF DUP3 AND SWAP1 POP SWAP2 SWAP1 POP JUMP JUMPDEST PUSH1 0x0 DUP2 SWAP1 POP SWAP2 SWAP1 POP JUMP JUMPDEST PUSH1 0x0 DUP1 REVERT JUMPDEST POP JUMP JUMPDEST PUSH3 0x32D DUP2 PUSH3 0x2DC JUMP JUMPDEST DUP2 EQ PUSH3 0x339 JUMPI PUSH1 0x0 DUP1 REVERT JUMPDEST POP JUMP JUMPDEST PUSH3 0x347 DUP2 PUSH3 0x310 JUMP JUMPDEST DUP2 EQ PUSH3 0x353 JUMPI PUSH1 0x0 DUP1 REVERT JUMPDEST POP JUMP JUMPDEST PUSH2 0xA9F DUP1 PUSH3 0x366 PUSH1 0x0 CODECOPY PUSH1 0x0 RETURN INVALID PUSH1 0x80 PUSH1 0x40 MSTORE CALLVALUE DUP1 ISZERO PUSH2 0x10 JUMPI PUSH1 0x0 DUP1 REVERT JUMPDEST POP PUSH1 0x4 CALLDATASIZE LT PUSH2 0x62 JUMPI PUSH1 0x0 CALLDATALOAD PUSH1 0xE0 SHR DUP1 PUSH4 0xF0355DA EQ PUSH2 0x67 JUMPI DUP1 PUSH4 0x51B6447F EQ PUSH2 0x85 JUMPI DUP1 PUSH4 0x8DA5CB5B EQ PUSH2 0xA1 JUMPI DUP1 PUSH4 0xAB9DBD07 EQ PUSH2 0xBF JUMPI DUP1 PUSH4 0xB0EA68F3 EQ PUSH2 0xDD JUMPI DUP1 PUSH4 0xF2FDE38B EQ PUSH2 0xF9 JUMPI JUMPDEST PUSH1 0x0 DUP1 REVERT JUMPDEST PUSH2 0x6F PUSH2 0x115 JUMP JUMPDEST PUSH1 0x40 MLOAD PUSH2 0x7C SWAP2 SWAP1 PUSH2 0x801 JUMP JUMPDEST PUSH1 0x40 MLOAD DUP1 SWAP2 SUB SWAP1 RETURN JUMPDEST PUSH2 0x9F PUSH1 0x4 DUP1 CALLDATASIZE SUB DUP2 ADD SWAP1 PUSH2 0x9A SWAP2 SWAP1 PUSH2 0x70A JUMP JUMPDEST PUSH2 0x26B JUMP JUMPDEST STOP JUMPDEST PUSH2 0xA9 PUSH2 0x37C JUMP JUMPDEST PUSH1 0x40 MLOAD PUSH2 0xB6 SWAP2 SWAP1 PUSH2 0x7E6 JUMP JUMPDEST PUSH1 0x40 MLOAD DUP1 SWAP2 SUB SWAP1 RETURN JUMPDEST PUSH2 0xC7 PUSH2 0x3A0 JUMP JUMPDEST PUSH1 0x40 MLOAD PUSH2 0xD4 SWAP2 SWAP1 PUSH2 0x84C JUMP JUMPDEST PUSH1 0x40 MLOAD DUP1 SWAP2 SUB SWAP1 RETURN JUMPDEST PUSH2 0xF7 PUSH1 0x4 DUP1 CALLDATASIZE SUB DUP2 ADD SWAP1 PUSH2 0xF2 SWAP2 SWAP1 PUSH2 0x70A JUMP JUMPDEST PUSH2 0x3AA JUMP JUMPDEST STOP JUMPDEST PUSH2 0x113 PUSH1 0x4 DUP1 CALLDATASIZE SUB DUP2 ADD SWAP1 PUSH2 0x10E SWAP2 SWAP1 PUSH2 0x6B0 JUMP JUMPDEST PUSH2 0x4B2 JUMP JUMPDEST STOP JUMPDEST PUSH1 0x0 DUP1 PUSH1 0x0 SWAP1 SLOAD SWAP1 PUSH2 0x100 EXP SWAP1 DIV PUSH20 0xFFFFFFFFFFFFFFFFFFFFFFFFFFFFFFFFFFFFFFFF AND PUSH20 0xFFFFFFFFFFFFFFFFFFFFFFFFFFFFFFFFFFFFFFFF AND CALLER PUSH20 0xFFFFFFFFFFFFFFFFFFFFFFFFFFFFFFFFFFFFFFFF AND EQ PUSH2 0x170 JUMPI PUSH1 0x0 DUP1 REVERT JUMPDEST PUSH1 0x0 PUSH1 0x2 PUSH1 0x0 SWAP1 SLOAD SWAP1 PUSH2 0x100 EXP SWAP1 DIV PUSH20 0xFFFFFFFFFFFFFFFFFFFFFFFFFFFFFFFFFFFFFFFF AND PUSH20 0xFFFFFFFFFFFFFFFFFFFFFFFFFFFFFFFFFFFFFFFF AND PUSH4 0x47AC0CD4 PUSH1 0x1 SLOAD PUSH1 0x40 MLOAD DUP3 PUSH4 0xFFFFFFFF AND PUSH1 0xE0 SHL DUP2 MSTORE PUSH1 0x4 ADD PUSH2 0x1CF SWAP2 SWAP1 PUSH2 0x84C JUMP JUMPDEST PUSH1 0x20 PUSH1 0x40 MLOAD DUP1 DUP4 SUB DUP2 PUSH1 0x0 DUP8 DUP1 EXTCODESIZE ISZERO DUP1 ISZERO PUSH2 0x1E9 JUMPI PUSH1 0x0 DUP1 REVERT JUMPDEST POP GAS CALL ISZERO DUP1 ISZERO PUSH2 0x1FD JUMPI RETURNDATASIZE PUSH1 0x0 DUP1 RETURNDATACOPY RETURNDATASIZE PUSH1 0x0 REVERT JUMPDEST POP POP POP POP PUSH1 0x40 MLOAD RETURNDATASIZE PUSH1 0x1F NOT PUSH1 0x1F DUP3 ADD AND DUP3 ADD DUP1 PUSH1 0x40 MSTORE POP DUP2 ADD SWAP1 PUSH2 0x221 SWAP2 SWAP1 PUSH2 0x6DD JUMP JUMPDEST SWAP1 POP DUP1 PUSH1 0x3 PUSH1 0x0 PUSH2 0x100 EXP DUP2 SLOAD DUP2 PUSH20 0xFFFFFFFFFFFFFFFFFFFFFFFFFFFFFFFFFFFFFFFF MUL NOT AND SWAP1 DUP4 PUSH20 0xFFFFFFFFFFFFFFFFFFFFFFFFFFFFFFFFFFFFFFFF AND MUL OR SWAP1 SSTORE POP DUP1 SWAP2 POP POP SWAP1 JUMP JUMPDEST PUSH1 0x0 DUP1 SLOAD SWAP1 PUSH2 0x100 EXP SWAP1 DIV PUSH20 0xFFFFFFFFFFFFFFFFFFFFFFFFFFFFFFFFFFFFFFFF AND PUSH20 0xFFFFFFFFFFFFFFFFFFFFFFFFFFFFFFFFFFFFFFFF AND CALLER PUSH20 0xFFFFFFFFFFFFFFFFFFFFFFFFFFFFFFFFFFFFFFFF AND EQ PUSH2 0x2C3 JUMPI PUSH1 0x0 DUP1 REVERT JUMPDEST PUSH1 0x0 PUSH1 0x2 PUSH1 0x0 SWAP1 SLOAD SWAP1 PUSH2 0x100 EXP SWAP1 DIV PUSH20 0xFFFFFFFFFFFFFFFFFFFFFFFFFFFFFFFFFFFFFFFF AND PUSH20 0xFFFFFFFFFFFFFFFFFFFFFFFFFFFFFFFFFFFFFFFF AND PUSH4 0x2801BA8A DUP4 PUSH1 0x1 SLOAD PUSH1 0x40 MLOAD DUP4 PUSH4 0xFFFFFFFF AND PUSH1 0xE0 SHL DUP2 MSTORE PUSH1 0x4 ADD PUSH2 0x324 SWAP3 SWAP2 SWAP1 PUSH2 0x81C JUMP JUMPDEST PUSH1 0x20 PUSH1 0x40 MLOAD DUP1 DUP4 SUB DUP2 PUSH1 0x0 DUP8 DUP1 EXTCODESIZE ISZERO DUP1 ISZERO PUSH2 0x33E JUMPI PUSH1 0x0 DUP1 REVERT JUMPDEST POP GAS CALL ISZERO DUP1 ISZERO PUSH2 0x352 JUMPI RETURNDATASIZE PUSH1 0x0 DUP1 RETURNDATACOPY RETURNDATASIZE PUSH1 0x0 REVERT JUMPDEST POP POP POP POP PUSH1 0x40 MLOAD RETURNDATASIZE PUSH1 0x1F NOT PUSH1 0x1F DUP3 ADD AND DUP3 ADD DUP1 PUSH1 0x40 MSTORE POP DUP2 ADD SWAP1 PUSH2 0x376 SWAP2 SWAP1 PUSH2 0x753 JUMP JUMPDEST SWAP1 POP POP POP JUMP JUMPDEST PUSH1 0x0 DUP1 SLOAD SWAP1 PUSH2 0x100 EXP SWAP1 DIV PUSH20 0xFFFFFFFFFFFFFFFFFFFFFFFFFFFFFFFFFFFFFFFF AND DUP2 JUMP JUMPDEST PUSH1 0x0 PUSH1 0x1 SLOAD SWAP1 POP SWAP1 JUMP JUMPDEST PUSH1 0x0 DUP1 SLOAD SWAP1 PUSH2 0x100 EXP SWAP1 DIV PUSH20 0xFFFFFFFFFFFFFFFFFFFFFFFFFFFFFFFFFFFFFFFF AND PUSH20 0xFFFFFFFFFFFFFFFFFFFFFFFFFFFFFFFFFFFFFFFF AND CALLER PUSH20 0xFFFFFFFFFFFFFFFFFFFFFFFFFFFFFFFFFFFFFFFF AND EQ PUSH2 0x402 JUMPI PUSH1 0x0 DUP1 REVERT JUMPDEST PUSH1 0x0 PUSH1 0x3 PUSH1 0x0 SWAP1 SLOAD SWAP1 PUSH2 0x100 EXP SWAP1 DIV PUSH20 0xFFFFFFFFFFFFFFFFFFFFFFFFFFFFFFFFFFFFFFFF AND PUSH20 0xFFFFFFFFFFFFFFFFFFFFFFFFFFFFFFFFFFFFFFFF AND PUSH4 0x4A90BE57 PUSH1 0x40 MLOAD DUP2 PUSH4 0xFFFFFFFF AND PUSH1 0xE0 SHL DUP2 MSTORE PUSH1 0x4 ADD PUSH1 0x20 PUSH1 0x40 MLOAD DUP1 DUP4 SUB DUP2 DUP7 DUP1 EXTCODESIZE ISZERO DUP1 ISZERO PUSH2 0x46C JUMPI PUSH1 0x0 DUP1 REVERT JUMPDEST POP GAS STATICCALL ISZERO DUP1 ISZERO PUSH2 0x480 JUMPI RETURNDATASIZE PUSH1 0x0 DUP1 RETURNDATACOPY RETURNDATASIZE PUSH1 0x0 REVERT JUMPDEST POP POP POP POP PUSH1 0x40 MLOAD RETURNDATASIZE PUSH1 0x1F NOT PUSH1 0x1F DUP3 ADD AND DUP3 ADD DUP1 PUSH1 0x40 MSTORE POP DUP2 ADD SWAP1 PUSH2 0x4A4 SWAP2 SWAP1 PUSH2 0x753 JUMP JUMPDEST EQ ISZERO PUSH2 0x4AF JUMPI PUSH1 0x0 DUP1 REVERT JUMPDEST POP JUMP JUMPDEST PUSH1 0x0 DUP1 SLOAD SWAP1 PUSH2 0x100 EXP SWAP1 DIV PUSH20 0xFFFFFFFFFFFFFFFFFFFFFFFFFFFFFFFFFFFFFFFF AND PUSH20 0xFFFFFFFFFFFFFFFFFFFFFFFFFFFFFFFFFFFFFFFF AND CALLER PUSH20 0xFFFFFFFFFFFFFFFFFFFFFFFFFFFFFFFFFFFFFFFF AND EQ PUSH2 0x50A JUMPI PUSH1 0x0 DUP1 REVERT JUMPDEST PUSH1 0x0 PUSH20 0xFFFFFFFFFFFFFFFFFFFFFFFFFFFFFFFFFFFFFFFF AND DUP2 PUSH20 0xFFFFFFFFFFFFFFFFFFFFFFFFFFFFFFFFFFFFFFFF AND EQ ISZERO PUSH2 0x544 JUMPI PUSH1 0x0 DUP1 REVERT JUMPDEST DUP1 PUSH20 0xFFFFFFFFFFFFFFFFFFFFFFFFFFFFFFFFFFFFFFFF AND PUSH1 0x0 DUP1 SLOAD SWAP1 PUSH2 0x100 EXP SWAP1 DIV PUSH20 0xFFFFFFFFFFFFFFFFFFFFFFFFFFFFFFFFFFFFFFFF AND PUSH20 0xFFFFFFFFFFFFFFFFFFFFFFFFFFFFFFFFFFFFFFFF AND PUSH32 0x8BE0079C531659141344CD1FD0A4F28419497F9722A3DAAFE3B4186F6B6457E0 PUSH1 0x40 MLOAD PUSH1 0x40 MLOAD DUP1 SWAP2 SUB SWAP1 LOG3 DUP1 PUSH1 0x0 DUP1 PUSH2 0x100 EXP DUP2 SLOAD DUP2 PUSH20 0xFFFFFFFFFFFFFFFFFFFFFFFFFFFFFFFFFFFFFFFF MUL NOT AND SWAP1 DUP4 PUSH20 0xFFFFFFFFFFFFFFFFFFFFFFFFFFFFFFFFFFFFFFFF AND MUL OR SWAP1 SSTORE POP POP JUMP JUMPDEST PUSH1 0x0 PUSH2 0x614 PUSH2 0x60F DUP5 PUSH2 0x88C JUMP JUMPDEST PUSH2 0x867 JUMP JUMPDEST SWAP1 POP DUP3 DUP2 MSTORE PUSH1 0x20 DUP2 ADD DUP5 DUP5 DUP5 ADD GT ISZERO PUSH2 0x630 JUMPI PUSH2 0x62F PUSH2 0xA04 JUMP JUMPDEST JUMPDEST PUSH2 0x63B DUP5 DUP3 DUP6 PUSH2 0x95D JUMP JUMPDEST POP SWAP4 SWAP3 POP POP POP JUMP JUMPDEST PUSH1 0x0 DUP2 CALLDATALOAD SWAP1 POP PUSH2 0x652 DUP2 PUSH2 0xA24 JUMP JUMPDEST SWAP3 SWAP2 POP POP JUMP JUMPDEST PUSH1 0x0 DUP2 MLOAD SWAP1 POP PUSH2 0x667 DUP2 PUSH2 0xA3B JUMP JUMPDEST SWAP3 SWAP2 POP POP JUMP JUMPDEST PUSH1 0x0 DUP3 PUSH1 0x1F DUP4 ADD SLT PUSH2 0x682 JUMPI PUSH2 0x681 PUSH2 0x9FF JUMP JUMPDEST JUMPDEST DUP2 CALLDATALOAD PUSH2 0x692 DUP5 DUP3 PUSH1 0x20 DUP7 ADD PUSH2 0x601 JUMP JUMPDEST SWAP2 POP POP SWAP3 SWAP2 POP POP JUMP JUMPDEST PUSH1 0x0 DUP2 MLOAD SWAP1 POP PUSH2 0x6AA DUP2 PUSH2 0xA52 JUMP JUMPDEST SWAP3 SWAP2 POP POP JUMP JUMPDEST PUSH1 0x0 PUSH1 0x20 DUP3 DUP5 SUB SLT ISZERO PUSH2 0x6C6 JUMPI PUSH2 0x6C5 PUSH2 0xA0E JUMP JUMPDEST JUMPDEST PUSH1 0x0 PUSH2 0x6D4 DUP5 DUP3 DUP6 ADD PUSH2 0x643 JUMP JUMPDEST SWAP2 POP POP SWAP3 SWAP2 POP POP JUMP JUMPDEST PUSH1 0x0 PUSH1 0x20 DUP3 DUP5 SUB SLT ISZERO PUSH2 0x6F3 JUMPI PUSH2 0x6F2 PUSH2 0xA0E JUMP JUMPDEST JUMPDEST PUSH1 0x0 PUSH2 0x701 DUP5 DUP3 DUP6 ADD PUSH2 0x658 JUMP JUMPDEST SWAP2 POP POP SWAP3 SWAP2 POP POP JUMP JUMPDEST PUSH1 0x0 PUSH1 0x20 DUP3 DUP5 SUB SLT ISZERO PUSH2 0x720 JUMPI PUSH2 0x71F PUSH2 0xA0E JUMP JUMPDEST JUMPDEST PUSH1 0x0 DUP3 ADD CALLDATALOAD PUSH8 0xFFFFFFFFFFFFFFFF DUP2 GT ISZERO PUSH2 0x73E JUMPI PUSH2 0x73D PUSH2 0xA09 JUMP JUMPDEST JUMPDEST PUSH2 0x74A DUP5 DUP3 DUP6 ADD PUSH2 0x66D JUMP JUMPDEST SWAP2 POP POP SWAP3 SWAP2 POP POP JUMP JUMPDEST PUSH1 0x0 PUSH1 0x20 DUP3 DUP5 SUB SLT ISZERO PUSH2 0x769 JUMPI PUSH2 0x768 PUSH2 0xA0E JUMP JUMPDEST JUMPDEST PUSH1 0x0 PUSH2 0x777 DUP5 DUP3 DUP6 ADD PUSH2 0x69B JUMP JUMPDEST SWAP2 POP POP SWAP3 SWAP2 POP POP JUMP JUMPDEST PUSH2 0x789 DUP2 PUSH2 0x8D9 JUMP JUMPDEST DUP3 MSTORE POP POP JUMP JUMPDEST PUSH2 0x798 DUP2 PUSH2 0x927 JUMP JUMPDEST DUP3 MSTORE POP POP JUMP JUMPDEST PUSH1 0x0 PUSH2 0x7A9 DUP3 PUSH2 0x8BD JUMP JUMPDEST PUSH2 0x7B3 DUP2 DUP6 PUSH2 0x8C8 JUMP JUMPDEST SWAP4 POP PUSH2 0x7C3 DUP2 DUP6 PUSH1 0x20 DUP7 ADD PUSH2 0x96C JUMP JUMPDEST PUSH2 0x7CC DUP2 PUSH2 0xA13 JUMP JUMPDEST DUP5 ADD SWAP2 POP POP SWAP3 SWAP2 POP POP JUMP JUMPDEST PUSH2 0x7E0 DUP2 PUSH2 0x91D JUMP JUMPDEST DUP3 MSTORE POP POP JUMP JUMPDEST PUSH1 0x0 PUSH1 0x20 DUP3 ADD SWAP1 POP PUSH2 0x7FB PUSH1 0x0 DUP4 ADD DUP5 PUSH2 0x780 JUMP JUMPDEST SWAP3 SWAP2 POP POP JUMP JUMPDEST PUSH1 0x0 PUSH1 0x20 DUP3 ADD SWAP1 POP PUSH2 0x816 PUSH1 0x0 DUP4 ADD DUP5 PUSH2 0x78F JUMP JUMPDEST SWAP3 SWAP2 POP POP JUMP JUMPDEST PUSH1 0x0 PUSH1 0x40 DUP3 ADD SWAP1 POP DUP2 DUP2 SUB PUSH1 0x0 DUP4 ADD MSTORE PUSH2 0x836 DUP2 DUP6 PUSH2 0x79E JUMP JUMPDEST SWAP1 POP PUSH2 0x845 PUSH1 0x20 DUP4 ADD DUP5 PUSH2 0x7D7 JUMP JUMPDEST SWAP4 SWAP3 POP POP POP JUMP JUMPDEST PUSH1 0x0 PUSH1 0x20 DUP3 ADD SWAP1 POP PUSH2 0x861 PUSH1 0x0 DUP4 ADD DUP5 PUSH2 0x7D7 JUMP JUMPDEST SWAP3 SWAP2 POP POP JUMP JUMPDEST PUSH1 0x0 PUSH2 0x871 PUSH2 0x882 JUMP JUMPDEST SWAP1 POP PUSH2 0x87D DUP3 DUP3 PUSH2 0x99F JUMP JUMPDEST SWAP2 SWAP1 POP JUMP JUMPDEST PUSH1 0x0 PUSH1 0x40 MLOAD SWAP1 POP SWAP1 JUMP JUMPDEST PUSH1 0x0 PUSH8 0xFFFFFFFFFFFFFFFF DUP3 GT ISZERO PUSH2 0x8A7 JUMPI PUSH2 0x8A6 PUSH2 0x9D0 JUMP JUMPDEST JUMPDEST PUSH2 0x8B0 DUP3 PUSH2 0xA13 JUMP JUMPDEST SWAP1 POP PUSH1 0x20 DUP2 ADD SWAP1 POP SWAP2 SWAP1 POP JUMP JUMPDEST PUSH1 0x0 DUP2 MLOAD SWAP1 POP SWAP2 SWAP1 POP JUMP JUMPDEST PUSH1 0x0 DUP3 DUP3 MSTORE PUSH1 0x20 DUP3 ADD SWAP1 POP SWAP3 SWAP2 POP POP JUMP JUMPDEST PUSH1 0x0 PUSH2 0x8E4 DUP3 PUSH2 0x8FD JUMP JUMPDEST SWAP1 POP SWAP2 SWAP1 POP JUMP JUMPDEST PUSH1 0x0 PUSH2 0x8F6 DUP3 PUSH2 0x8D9 JUMP JUMPDEST SWAP1 POP SWAP2 SWAP1 POP JUMP JUMPDEST PUSH1 0x0 PUSH20 0xFFFFFFFFFFFFFFFFFFFFFFFFFFFFFFFFFFFFFFFF DUP3 AND SWAP1 POP SWAP2 SWAP1 POP JUMP JUMPDEST PUSH1 0x0 DUP2 SWAP1 POP SWAP2 SWAP1 POP JUMP JUMPDEST PUSH1 0x0 PUSH2 0x932 DUP3 PUSH2 0x939 JUMP JUMPDEST SWAP1 POP SWAP2 SWAP1 POP JUMP JUMPDEST PUSH1 0x0 PUSH2 0x944 DUP3 PUSH2 0x94B JUMP JUMPDEST SWAP1 POP SWAP2 SWAP1 POP JUMP JUMPDEST PUSH1 0x0 PUSH2 0x956 DUP3 PUSH2 0x8FD JUMP JUMPDEST SWAP1 POP SWAP2 SWAP1 POP JUMP JUMPDEST DUP3 DUP2 DUP4 CALLDATACOPY PUSH1 0x0 DUP4 DUP4 ADD MSTORE POP POP POP JUMP JUMPDEST PUSH1 0x0 JUMPDEST DUP4 DUP2 LT ISZERO PUSH2 0x98A JUMPI DUP1 DUP3 ADD MLOAD DUP2 DUP5 ADD MSTORE PUSH1 0x20 DUP2 ADD SWAP1 POP PUSH2 0x96F JUMP JUMPDEST DUP4 DUP2 GT ISZERO PUSH2 0x999 JUMPI PUSH1 0x0 DUP5 DUP5 ADD MSTORE JUMPDEST POP POP POP POP JUMP JUMPDEST PUSH2 0x9A8 DUP3 PUSH2 0xA13 JUMP JUMPDEST DUP2 ADD DUP2 DUP2 LT PUSH8 0xFFFFFFFFFFFFFFFF DUP3 GT OR ISZERO PUSH2 0x9C7 JUMPI PUSH2 0x9C6 PUSH2 0x9D0 JUMP JUMPDEST JUMPDEST DUP1 PUSH1 0x40 MSTORE POP POP POP JUMP JUMPDEST PUSH32 0x4E487B7100000000000000000000000000000000000000000000000000000000 PUSH1 0x0 MSTORE PUSH1 0x41 PUSH1 0x4 MSTORE PUSH1 0x24 PUSH1 0x0 REVERT JUMPDEST PUSH1 0x0 DUP1 REVERT JUMPDEST PUSH1 0x0 DUP1 REVERT JUMPDEST PUSH1 0x0 DUP1 REVERT JUMPDEST PUSH1 0x0 DUP1 REVERT JUMPDEST PUSH1 0x0 PUSH1 0x1F NOT PUSH1 0x1F DUP4 ADD AND SWAP1 POP SWAP2 SWAP1 POP JUMP JUMPDEST PUSH2 0xA2D DUP2 PUSH2 0x8D9 JUMP JUMPDEST DUP2 EQ PUSH2 0xA38 JUMPI PUSH1 0x0 DUP1 REVERT JUMPDEST POP JUMP JUMPDEST PUSH2 0xA44 DUP2 PUSH2 0x8EB JUMP JUMPDEST DUP2 EQ PUSH2 0xA4F JUMPI PUSH1 0x0 DUP1 REVERT JUMPDEST POP JUMP JUMPDEST PUSH2 0xA5B DUP2 PUSH2 0x91D JUMP JUMPDEST DUP2 EQ PUSH2 0xA66 JUMPI PUSH1 0x0 DUP1 REVERT JUMPDEST POP JUMP INVALID LOG2 PUSH5 0x6970667358 0x22 SLT KECCAK256 REVERT 0xC7 PUSH25 0xD3A7DCEA2414E6C73C990EB122C29A539A92499BE941188A28 SWAP11 DUP4 SGT 0x4D PUSH5 0x736F6C6343 STOP ADDMOD SMOD STOP CALLER PUSH1 0x80 PUSH1 0x40 MSTORE CALLVALUE DUP1 ISZERO PUSH3 0x11 JUMPI PUSH1 0x0 DUP1 REVERT JUMPDEST POP PUSH1 0x40 MLOAD PUSH3 0xDE1 CODESIZE SUB DUP1 PUSH3 0xDE1 DUP4 CODECOPY DUP2 DUP2 ADD PUSH1 0x40 MSTORE DUP2 ADD SWAP1 PUSH3 0x37 SWAP2 SWAP1 PUSH3 0x19C JUMP JUMPDEST DUP1 PUSH1 0x0 SWAP1 DUP1 MLOAD SWAP1 PUSH1 0x20 ADD SWAP1 PUSH3 0x4F SWAP3 SWAP2 SWAP1 PUSH3 0x6E JUMP JUMPDEST POP PUSH1 0x0 DUP1 SLOAD PUSH3 0x5F SWAP1 PUSH3 0x282 JUMP JUMPDEST SWAP1 POP PUSH1 0x1 DUP2 SWAP1 SSTORE POP POP PUSH3 0x371 JUMP JUMPDEST DUP3 DUP1 SLOAD PUSH3 0x7C SWAP1 PUSH3 0x282 JUMP JUMPDEST SWAP1 PUSH1 0x0 MSTORE PUSH1 0x20 PUSH1 0x0 KECCAK256 SWAP1 PUSH1 0x1F ADD PUSH1 0x20 SWAP1 DIV DUP2 ADD SWAP3 DUP3 PUSH3 0xA0 JUMPI PUSH1 0x0 DUP6 SSTORE PUSH3 0xEC JUMP JUMPDEST DUP3 PUSH1 0x1F LT PUSH3 0xBB JUMPI DUP1 MLOAD PUSH1 0xFF NOT AND DUP4 DUP1 ADD OR DUP6 SSTORE PUSH3 0xEC JUMP JUMPDEST DUP3 DUP1 ADD PUSH1 0x1 ADD DUP6 SSTORE DUP3 ISZERO PUSH3 0xEC JUMPI SWAP2 DUP3 ADD JUMPDEST DUP3 DUP2 GT ISZERO PUSH3 0xEB JUMPI DUP3 MLOAD DUP3 SSTORE SWAP2 PUSH1 0x20 ADD SWAP2 SWAP1 PUSH1 0x1 ADD SWAP1 PUSH3 0xCE JUMP JUMPDEST JUMPDEST POP SWAP1 POP PUSH3 0xFB SWAP2 SWAP1 PUSH3 0xFF JUMP JUMPDEST POP SWAP1 JUMP JUMPDEST JUMPDEST DUP1 DUP3 GT ISZERO PUSH3 0x11A JUMPI PUSH1 0x0 DUP2 PUSH1 0x0 SWAP1 SSTORE POP PUSH1 0x1 ADD PUSH3 0x100 JUMP JUMPDEST POP SWAP1 JUMP JUMPDEST PUSH1 0x0 PUSH3 0x135 PUSH3 0x12F DUP5 PUSH3 0x216 JUMP JUMPDEST PUSH3 0x1ED JUMP JUMPDEST SWAP1 POP DUP3 DUP2 MSTORE PUSH1 0x20 DUP2 ADD DUP5 DUP5 DUP5 ADD GT ISZERO PUSH3 0x154 JUMPI PUSH3 0x153 PUSH3 0x351 JUMP JUMPDEST JUMPDEST PUSH3 0x161 DUP5 DUP3 DUP6 PUSH3 0x24C JUMP JUMPDEST POP SWAP4 SWAP3 POP POP POP JUMP JUMPDEST PUSH1 0x0 DUP3 PUSH1 0x1F DUP4 ADD SLT PUSH3 0x181 JUMPI PUSH3 0x180 PUSH3 0x34C JUMP JUMPDEST JUMPDEST DUP2 MLOAD PUSH3 0x193 DUP5 DUP3 PUSH1 0x20 DUP7 ADD PUSH3 0x11E JUMP JUMPDEST SWAP2 POP POP SWAP3 SWAP2 POP POP JUMP JUMPDEST PUSH1 0x0 PUSH1 0x20 DUP3 DUP5 SUB SLT ISZERO PUSH3 0x1B5 JUMPI PUSH3 0x1B4 PUSH3 0x35B JUMP JUMPDEST JUMPDEST PUSH1 0x0 DUP3 ADD MLOAD PUSH8 0xFFFFFFFFFFFFFFFF DUP2 GT ISZERO PUSH3 0x1D6 JUMPI PUSH3 0x1D5 PUSH3 0x356 JUMP JUMPDEST JUMPDEST PUSH3 0x1E4 DUP5 DUP3 DUP6 ADD PUSH3 0x169 JUMP JUMPDEST SWAP2 POP POP SWAP3 SWAP2 POP POP JUMP JUMPDEST PUSH1 0x0 PUSH3 0x1F9 PUSH3 0x20C JUMP JUMPDEST SWAP1 POP PUSH3 0x207 DUP3 DUP3 PUSH3 0x2B8 JUMP JUMPDEST SWAP2 SWAP1 POP JUMP JUMPDEST PUSH1 0x0 PUSH1 0x40 MLOAD SWAP1 POP SWAP1 JUMP JUMPDEST PUSH1 0x0 PUSH8 0xFFFFFFFFFFFFFFFF DUP3 GT ISZERO PUSH3 0x234 JUMPI PUSH3 0x233 PUSH3 0x31D JUMP JUMPDEST JUMPDEST PUSH3 0x23F DUP3 PUSH3 0x360 JUMP JUMPDEST SWAP1 POP PUSH1 0x20 DUP2 ADD SWAP1 POP SWAP2 SWAP1 POP JUMP JUMPDEST PUSH1 0x0 JUMPDEST DUP4 DUP2 LT ISZERO PUSH3 0x26C JUMPI DUP1 DUP3 ADD MLOAD DUP2 DUP5 ADD MSTORE PUSH1 0x20 DUP2 ADD SWAP1 POP PUSH3 0x24F JUMP JUMPDEST DUP4 DUP2 GT ISZERO PUSH3 0x27C JUMPI PUSH1 0x0 DUP5 DUP5 ADD MSTORE JUMPDEST POP POP POP POP JUMP JUMPDEST PUSH1 0x0 PUSH1 0x2 DUP3 DIV SWAP1 POP PUSH1 0x1 DUP3 AND DUP1 PUSH3 0x29B JUMPI PUSH1 0x7F DUP3 AND SWAP2 POP JUMPDEST PUSH1 0x20 DUP3 LT DUP2 EQ ISZERO PUSH3 0x2B2 JUMPI PUSH3 0x2B1 PUSH3 0x2EE JUMP JUMPDEST JUMPDEST POP SWAP2 SWAP1 POP JUMP JUMPDEST PUSH3 0x2C3 DUP3 PUSH3 0x360 JUMP JUMPDEST DUP2 ADD DUP2 DUP2 LT PUSH8 0xFFFFFFFFFFFFFFFF DUP3 GT OR ISZERO PUSH3 0x2E5 JUMPI PUSH3 0x2E4 PUSH3 0x31D JUMP JUMPDEST JUMPDEST DUP1 PUSH1 0x40 MSTORE POP POP POP JUMP JUMPDEST PUSH32 0x4E487B7100000000000000000000000000000000000000000000000000000000 PUSH1 0x0 MSTORE PUSH1 0x22 PUSH1 0x4 MSTORE PUSH1 0x24 PUSH1 0x0 REVERT JUMPDEST PUSH32 0x4E487B7100000000000000000000000000000000000000000000000000000000 PUSH1 0x0 MSTORE PUSH1 0x41 PUSH1 0x4 MSTORE PUSH1 0x24 PUSH1 0x0 REVERT JUMPDEST PUSH1 0x0 DUP1 REVERT JUMPDEST PUSH1 0x0 DUP1 REVERT JUMPDEST PUSH1 0x0 DUP1 REVERT JUMPDEST PUSH1 0x0 DUP1 REVERT JUMPDEST PUSH1 0x0 PUSH1 0x1F NOT PUSH1 0x1F DUP4 ADD AND SWAP1 POP SWAP2 SWAP1 POP JUMP JUMPDEST PUSH2 0xA60 DUP1 PUSH3 0x381 PUSH1 0x0 CODECOPY PUSH1 0x0 RETURN INVALID PUSH1 0x80 PUSH1 0x40 MSTORE CALLVALUE DUP1 ISZERO PUSH2 0x10 JUMPI PUSH1 0x0 DUP1 REVERT JUMPDEST POP PUSH1 0x4 CALLDATASIZE LT PUSH2 0x4C JUMPI PUSH1 0x0 CALLDATALOAD PUSH1 0xE0 SHR DUP1 PUSH4 0x4A90BE57 EQ PUSH2 0x51 JUMPI DUP1 PUSH4 0xB587E20A EQ PUSH2 0x6F JUMPI DUP1 PUSH4 0xB8C9E4ED EQ PUSH2 0x9F JUMPI DUP1 PUSH4 0xF5DB08D9 EQ PUSH2 0xBD JUMPI JUMPDEST PUSH1 0x0 DUP1 REVERT JUMPDEST PUSH2 0x59 PUSH2 0xED JUMP JUMPDEST PUSH1 0x40 MLOAD PUSH2 0x66 SWAP2 SWAP1 PUSH2 0x6D5 JUMP JUMPDEST PUSH1 0x40 MLOAD DUP1 SWAP2 SUB SWAP1 RETURN JUMPDEST PUSH2 0x89 PUSH1 0x4 DUP1 CALLDATASIZE SUB DUP2 ADD SWAP1 PUSH2 0x84 SWAP2 SWAP1 PUSH2 0x4BB JUMP JUMPDEST PUSH2 0xF7 JUMP JUMPDEST PUSH1 0x40 MLOAD PUSH2 0x96 SWAP2 SWAP1 PUSH2 0x698 JUMP JUMPDEST PUSH1 0x40 MLOAD DUP1 SWAP2 SUB SWAP1 RETURN JUMPDEST PUSH2 0xA7 PUSH2 0x11F JUMP JUMPDEST PUSH1 0x40 MLOAD PUSH2 0xB4 SWAP2 SWAP1 PUSH2 0x6B3 JUMP JUMPDEST PUSH1 0x40 MLOAD DUP1 SWAP2 SUB SWAP1 RETURN JUMPDEST PUSH2 0xD7 PUSH1 0x4 DUP1 CALLDATASIZE SUB DUP2 ADD SWAP1 PUSH2 0xD2 SWAP2 SWAP1 PUSH2 0x4BB JUMP JUMPDEST PUSH2 0x1B1 JUMP JUMPDEST PUSH1 0x40 MLOAD PUSH2 0xE4 SWAP2 SWAP1 PUSH2 0x676 JUMP JUMPDEST PUSH1 0x40 MLOAD DUP1 SWAP2 SUB SWAP1 RETURN JUMPDEST PUSH1 0x0 PUSH1 0x1 SLOAD SWAP1 POP SWAP1 JUMP JUMPDEST PUSH1 0x0 DUP1 PUSH1 0x40 MLOAD PUSH2 0x107 SWAP2 SWAP1 PUSH2 0x65F JUMP JUMPDEST PUSH1 0x40 MLOAD DUP1 SWAP2 SUB SWAP1 KECCAK256 DUP3 DUP1 MLOAD SWAP1 PUSH1 0x20 ADD KECCAK256 EQ SWAP1 POP SWAP2 SWAP1 POP JUMP JUMPDEST PUSH1 0x60 PUSH1 0x0 DUP1 SLOAD PUSH2 0x12E SWAP1 PUSH2 0x89D JUMP JUMPDEST DUP1 PUSH1 0x1F ADD PUSH1 0x20 DUP1 SWAP2 DIV MUL PUSH1 0x20 ADD PUSH1 0x40 MLOAD SWAP1 DUP2 ADD PUSH1 0x40 MSTORE DUP1 SWAP3 SWAP2 SWAP1 DUP2 DUP2 MSTORE PUSH1 0x20 ADD DUP3 DUP1 SLOAD PUSH2 0x15A SWAP1 PUSH2 0x89D JUMP JUMPDEST DUP1 ISZERO PUSH2 0x1A7 JUMPI DUP1 PUSH1 0x1F LT PUSH2 0x17C JUMPI PUSH2 0x100 DUP1 DUP4 SLOAD DIV MUL DUP4 MSTORE SWAP2 PUSH1 0x20 ADD SWAP2 PUSH2 0x1A7 JUMP JUMPDEST DUP3 ADD SWAP2 SWAP1 PUSH1 0x0 MSTORE PUSH1 0x20 PUSH1 0x0 KECCAK256 SWAP1 JUMPDEST DUP2 SLOAD DUP2 MSTORE SWAP1 PUSH1 0x1 ADD SWAP1 PUSH1 0x20 ADD DUP1 DUP4 GT PUSH2 0x18A JUMPI DUP3 SWAP1 SUB PUSH1 0x1F AND DUP3 ADD SWAP2 JUMPDEST POP POP POP POP POP SWAP1 POP SWAP1 JUMP JUMPDEST PUSH1 0x60 DUP1 PUSH1 0x0 DUP1 PUSH1 0x1 SLOAD PUSH8 0xFFFFFFFFFFFFFFFF DUP2 GT ISZERO PUSH2 0x1D3 JUMPI PUSH2 0x1D2 PUSH2 0x9D6 JUMP JUMPDEST JUMPDEST PUSH1 0x40 MLOAD SWAP1 DUP1 DUP3 MSTORE DUP1 PUSH1 0x20 MUL PUSH1 0x20 ADD DUP3 ADD PUSH1 0x40 MSTORE DUP1 ISZERO PUSH2 0x201 JUMPI DUP2 PUSH1 0x20 ADD PUSH1 0x20 DUP3 MUL DUP1 CALLDATASIZE DUP4 CALLDATACOPY DUP1 DUP3 ADD SWAP2 POP POP SWAP1 POP JUMPDEST POP SWAP1 POP PUSH1 0x0 PUSH1 0x1 SWAP1 POP JUMPDEST PUSH1 0x1 SLOAD DUP2 GT PUSH2 0x32A JUMPI PUSH2 0x2A9 DUP2 DUP3 PUSH1 0x0 DUP1 SLOAD PUSH2 0x226 SWAP1 PUSH2 0x89D JUMP JUMPDEST DUP1 PUSH1 0x1F ADD PUSH1 0x20 DUP1 SWAP2 DIV MUL PUSH1 0x20 ADD PUSH1 0x40 MLOAD SWAP1 DUP2 ADD PUSH1 0x40 MSTORE DUP1 SWAP3 SWAP2 SWAP1 DUP2 DUP2 MSTORE PUSH1 0x20 ADD DUP3 DUP1 SLOAD PUSH2 0x252 SWAP1 PUSH2 0x89D JUMP JUMPDEST DUP1 ISZERO PUSH2 0x29F JUMPI DUP1 PUSH1 0x1F LT PUSH2 0x274 JUMPI PUSH2 0x100 DUP1 DUP4 SLOAD DIV MUL DUP4 MSTORE SWAP2 PUSH1 0x20 ADD SWAP2 PUSH2 0x29F JUMP JUMPDEST DUP3 ADD SWAP2 SWAP1 PUSH1 0x0 MSTORE PUSH1 0x20 PUSH1 0x0 KECCAK256 SWAP1 JUMPDEST DUP2 SLOAD DUP2 MSTORE SWAP1 PUSH1 0x1 ADD SWAP1 PUSH1 0x20 ADD DUP1 DUP4 GT PUSH2 0x282 JUMPI DUP3 SWAP1 SUB PUSH1 0x1F AND DUP3 ADD SWAP2 JUMPDEST POP POP POP POP POP PUSH2 0x336 JUMP JUMPDEST SWAP4 POP DUP6 DUP1 MLOAD SWAP1 PUSH1 0x20 ADD KECCAK256 DUP5 DUP1 MLOAD SWAP1 PUSH1 0x20 ADD KECCAK256 EQ ISZERO PUSH2 0x2E7 JUMPI PUSH1 0x1 DUP3 DUP5 DUP2 MLOAD DUP2 LT PUSH2 0x2D6 JUMPI PUSH2 0x2D5 PUSH2 0x9A7 JUMP JUMPDEST JUMPDEST PUSH1 0x20 MUL PUSH1 0x20 ADD ADD DUP2 DUP2 MSTORE POP POP PUSH2 0x309 JUMP JUMPDEST PUSH1 0x0 DUP3 DUP5 DUP2 MLOAD DUP2 LT PUSH2 0x2FC JUMPI PUSH2 0x2FB PUSH2 0x9A7 JUMP JUMPDEST JUMPDEST PUSH1 0x20 MUL PUSH1 0x20 ADD ADD DUP2 DUP2 MSTORE POP POP JUMPDEST DUP3 DUP1 PUSH2 0x314 SWAP1 PUSH2 0x900 JUMP JUMPDEST SWAP4 POP POP DUP1 DUP1 PUSH2 0x322 SWAP1 PUSH2 0x900 JUMP JUMPDEST SWAP2 POP POP PUSH2 0x20B JUMP JUMPDEST POP DUP1 SWAP4 POP POP POP POP SWAP2 SWAP1 POP JUMP JUMPDEST PUSH1 0x60 PUSH1 0x0 PUSH1 0x1 DUP6 DUP6 PUSH2 0x348 SWAP2 SWAP1 PUSH2 0x811 JUMP JUMPDEST PUSH2 0x352 SWAP2 SWAP1 PUSH2 0x7BB JUMP JUMPDEST PUSH8 0xFFFFFFFFFFFFFFFF DUP2 GT ISZERO PUSH2 0x36B JUMPI PUSH2 0x36A PUSH2 0x9D6 JUMP JUMPDEST JUMPDEST PUSH1 0x40 MLOAD SWAP1 DUP1 DUP3 MSTORE DUP1 PUSH1 0x1F ADD PUSH1 0x1F NOT AND PUSH1 0x20 ADD DUP3 ADD PUSH1 0x40 MSTORE DUP1 ISZERO PUSH2 0x39D JUMPI DUP2 PUSH1 0x20 ADD PUSH1 0x1 DUP3 MUL DUP1 CALLDATASIZE DUP4 CALLDATACOPY DUP1 DUP3 ADD SWAP2 POP POP SWAP1 POP JUMPDEST POP SWAP1 POP PUSH1 0x0 JUMPDEST DUP6 DUP6 PUSH2 0x3AF SWAP2 SWAP1 PUSH2 0x811 JUMP JUMPDEST DUP2 GT PUSH2 0x43F JUMPI DUP4 PUSH1 0x1 DUP8 DUP4 PUSH2 0x3C4 SWAP2 SWAP1 PUSH2 0x7BB JUMP JUMPDEST PUSH2 0x3CE SWAP2 SWAP1 PUSH2 0x811 JUMP JUMPDEST DUP2 MLOAD DUP2 LT PUSH2 0x3DF JUMPI PUSH2 0x3DE PUSH2 0x9A7 JUMP JUMPDEST JUMPDEST PUSH1 0x20 ADD ADD MLOAD PUSH1 0xF8 SHR PUSH1 0xF8 SHL DUP3 DUP3 DUP2 MLOAD DUP2 LT PUSH2 0x3FD JUMPI PUSH2 0x3FC PUSH2 0x9A7 JUMP JUMPDEST JUMPDEST PUSH1 0x20 ADD ADD SWAP1 PUSH31 0xFFFFFFFFFFFFFFFFFFFFFFFFFFFFFFFFFFFFFFFFFFFFFFFFFFFFFFFFFFFFFF NOT AND SWAP1 DUP2 PUSH1 0x0 BYTE SWAP1 MSTORE8 POP DUP1 DUP1 PUSH2 0x437 SWAP1 PUSH2 0x900 JUMP JUMPDEST SWAP2 POP POP PUSH2 0x3A3 JUMP JUMPDEST POP DUP1 SWAP2 POP POP SWAP4 SWAP3 POP POP POP JUMP JUMPDEST PUSH1 0x0 PUSH2 0x45E PUSH2 0x459 DUP5 PUSH2 0x715 JUMP JUMPDEST PUSH2 0x6F0 JUMP JUMPDEST SWAP1 POP DUP3 DUP2 MSTORE PUSH1 0x20 DUP2 ADD DUP5 DUP5 DUP5 ADD GT ISZERO PUSH2 0x47A JUMPI PUSH2 0x479 PUSH2 0xA0A JUMP JUMPDEST JUMPDEST PUSH2 0x485 DUP5 DUP3 DUP6 PUSH2 0x85B JUMP JUMPDEST POP SWAP4 SWAP3 POP POP POP JUMP JUMPDEST PUSH1 0x0 DUP3 PUSH1 0x1F DUP4 ADD SLT PUSH2 0x4A2 JUMPI PUSH2 0x4A1 PUSH2 0xA05 JUMP JUMPDEST JUMPDEST DUP2 CALLDATALOAD PUSH2 0x4B2 DUP5 DUP3 PUSH1 0x20 DUP7 ADD PUSH2 0x44B JUMP JUMPDEST SWAP2 POP POP SWAP3 SWAP2 POP POP JUMP JUMPDEST PUSH1 0x0 PUSH1 0x20 DUP3 DUP5 SUB SLT ISZERO PUSH2 0x4D1 JUMPI PUSH2 0x4D0 PUSH2 0xA14 JUMP JUMPDEST JUMPDEST PUSH1 0x0 DUP3 ADD CALLDATALOAD PUSH8 0xFFFFFFFFFFFFFFFF DUP2 GT ISZERO PUSH2 0x4EF JUMPI PUSH2 0x4EE PUSH2 0xA0F JUMP JUMPDEST JUMPDEST PUSH2 0x4FB DUP5 DUP3 DUP6 ADD PUSH2 0x48D JUMP JUMPDEST SWAP2 POP POP SWAP3 SWAP2 POP POP JUMP JUMPDEST PUSH1 0x0 PUSH2 0x510 DUP4 DUP4 PUSH2 0x641 JUMP JUMPDEST PUSH1 0x20 DUP4 ADD SWAP1 POP SWAP3 SWAP2 POP POP JUMP JUMPDEST PUSH1 0x0 PUSH2 0x527 DUP3 PUSH2 0x76B JUMP JUMPDEST PUSH2 0x531 DUP2 DUP6 PUSH2 0x78E JUMP JUMPDEST SWAP4 POP PUSH2 0x53C DUP4 PUSH2 0x746 JUMP JUMPDEST DUP1 PUSH1 0x0 JUMPDEST DUP4 DUP2 LT ISZERO PUSH2 0x56D JUMPI DUP2 MLOAD PUSH2 0x554 DUP9 DUP3 PUSH2 0x504 JUMP JUMPDEST SWAP8 POP PUSH2 0x55F DUP4 PUSH2 0x781 JUMP JUMPDEST SWAP3 POP POP PUSH1 0x1 DUP2 ADD SWAP1 POP PUSH2 0x540 JUMP JUMPDEST POP DUP6 SWAP4 POP POP POP POP SWAP3 SWAP2 POP POP JUMP JUMPDEST PUSH2 0x583 DUP2 PUSH2 0x845 JUMP JUMPDEST DUP3 MSTORE POP POP JUMP JUMPDEST PUSH1 0x0 DUP2 SLOAD PUSH2 0x596 DUP2 PUSH2 0x89D JUMP JUMPDEST PUSH2 0x5A0 DUP2 DUP7 PUSH2 0x79F JUMP JUMPDEST SWAP5 POP PUSH1 0x1 DUP3 AND PUSH1 0x0 DUP2 EQ PUSH2 0x5BB JUMPI PUSH1 0x1 DUP2 EQ PUSH2 0x5CC JUMPI PUSH2 0x5FF JUMP JUMPDEST PUSH1 0xFF NOT DUP4 AND DUP7 MSTORE DUP2 DUP7 ADD SWAP4 POP PUSH2 0x5FF JUMP JUMPDEST PUSH2 0x5D5 DUP6 PUSH2 0x756 JUMP JUMPDEST PUSH1 0x0 JUMPDEST DUP4 DUP2 LT ISZERO PUSH2 0x5F7 JUMPI DUP2 SLOAD DUP2 DUP10 ADD MSTORE PUSH1 0x1 DUP3 ADD SWAP2 POP PUSH1 0x20 DUP2 ADD SWAP1 POP PUSH2 0x5D8 JUMP JUMPDEST DUP4 DUP9 ADD SWAP6 POP POP POP JUMPDEST POP POP POP SWAP3 SWAP2 POP POP JUMP JUMPDEST PUSH1 0x0 PUSH2 0x613 DUP3 PUSH2 0x776 JUMP JUMPDEST PUSH2 0x61D DUP2 DUP6 PUSH2 0x7AA JUMP JUMPDEST SWAP4 POP PUSH2 0x62D DUP2 DUP6 PUSH1 0x20 DUP7 ADD PUSH2 0x86A JUMP JUMPDEST PUSH2 0x636 DUP2 PUSH2 0xA19 JUMP JUMPDEST DUP5 ADD SWAP2 POP POP SWAP3 SWAP2 POP POP JUMP JUMPDEST PUSH2 0x64A DUP2 PUSH2 0x851 JUMP JUMPDEST DUP3 MSTORE POP POP JUMP JUMPDEST PUSH2 0x659 DUP2 PUSH2 0x851 JUMP JUMPDEST DUP3 MSTORE POP POP JUMP JUMPDEST PUSH1 0x0 PUSH2 0x66B DUP3 DUP5 PUSH2 0x589 JUMP JUMPDEST SWAP2 POP DUP2 SWAP1 POP SWAP3 SWAP2 POP POP JUMP JUMPDEST PUSH1 0x0 PUSH1 0x20 DUP3 ADD SWAP1 POP DUP2 DUP2 SUB PUSH1 0x0 DUP4 ADD MSTORE PUSH2 0x690 DUP2 DUP5 PUSH2 0x51C JUMP JUMPDEST SWAP1 POP SWAP3 SWAP2 POP POP JUMP JUMPDEST PUSH1 0x0 PUSH1 0x20 DUP3 ADD SWAP1 POP PUSH2 0x6AD PUSH1 0x0 DUP4 ADD DUP5 PUSH2 0x57A JUMP JUMPDEST SWAP3 SWAP2 POP POP JUMP JUMPDEST PUSH1 0x0 PUSH1 0x20 DUP3 ADD SWAP1 POP DUP2 DUP2 SUB PUSH1 0x0 DUP4 ADD MSTORE PUSH2 0x6CD DUP2 DUP5 PUSH2 0x608 JUMP JUMPDEST SWAP1 POP SWAP3 SWAP2 POP POP JUMP JUMPDEST PUSH1 0x0 PUSH1 0x20 DUP3 ADD SWAP1 POP PUSH2 0x6EA PUSH1 0x0 DUP4 ADD DUP5 PUSH2 0x650 JUMP JUMPDEST SWAP3 SWAP2 POP POP JUMP JUMPDEST PUSH1 0x0 PUSH2 0x6FA PUSH2 0x70B JUMP JUMPDEST SWAP1 POP PUSH2 0x706 DUP3 DUP3 PUSH2 0x8CF JUMP JUMPDEST SWAP2 SWAP1 POP JUMP JUMPDEST PUSH1 0x0 PUSH1 0x40 MLOAD SWAP1 POP SWAP1 JUMP JUMPDEST PUSH1 0x0 PUSH8 0xFFFFFFFFFFFFFFFF DUP3 GT ISZERO PUSH2 0x730 JUMPI PUSH2 0x72F PUSH2 0x9D6 JUMP JUMPDEST JUMPDEST PUSH2 0x739 DUP3 PUSH2 0xA19 JUMP JUMPDEST SWAP1 POP PUSH1 0x20 DUP2 ADD SWAP1 POP SWAP2 SWAP1 POP JUMP JUMPDEST PUSH1 0x0 DUP2 SWAP1 POP PUSH1 0x20 DUP3 ADD SWAP1 POP SWAP2 SWAP1 POP JUMP JUMPDEST PUSH1 0x0 DUP2 SWAP1 POP DUP2 PUSH1 0x0 MSTORE PUSH1 0x20 PUSH1 0x0 KECCAK256 SWAP1 POP SWAP2 SWAP1 POP JUMP JUMPDEST PUSH1 0x0 DUP2 MLOAD SWAP1 POP SWAP2 SWAP1 POP JUMP JUMPDEST PUSH1 0x0 DUP2 MLOAD SWAP1 POP SWAP2 SWAP1 POP JUMP JUMPDEST PUSH1 0x0 PUSH1 0x20 DUP3 ADD SWAP1 POP SWAP2 SWAP1 POP JUMP JUMPDEST PUSH1 0x0 DUP3 DUP3 MSTORE PUSH1 0x20 DUP3 ADD SWAP1 POP SWAP3 SWAP2 POP POP JUMP JUMPDEST PUSH1 0x0 DUP2 SWAP1 POP SWAP3 SWAP2 POP POP JUMP JUMPDEST PUSH1 0x0 DUP3 DUP3 MSTORE PUSH1 0x20 DUP3 ADD SWAP1 POP SWAP3 SWAP2 POP POP JUMP JUMPDEST PUSH1 0x0 PUSH2 0x7C6 DUP3 PUSH2 0x851 JUMP JUMPDEST SWAP2 POP PUSH2 0x7D1 DUP4 PUSH2 0x851 JUMP JUMPDEST SWAP3 POP DUP3 PUSH32 0xFFFFFFFFFFFFFFFFFFFFFFFFFFFFFFFFFFFFFFFFFFFFFFFFFFFFFFFFFFFFFFFF SUB DUP3 GT ISZERO PUSH2 0x806 JUMPI PUSH2 0x805 PUSH2 0x949 JUMP JUMPDEST JUMPDEST DUP3 DUP3 ADD SWAP1 POP SWAP3 SWAP2 POP POP JUMP JUMPDEST PUSH1 0x0 PUSH2 0x81C DUP3 PUSH2 0x851 JUMP JUMPDEST SWAP2 POP PUSH2 0x827 DUP4 PUSH2 0x851 JUMP JUMPDEST SWAP3 POP DUP3 DUP3 LT ISZERO PUSH2 0x83A JUMPI PUSH2 0x839 PUSH2 0x949 JUMP JUMPDEST JUMPDEST DUP3 DUP3 SUB SWAP1 POP SWAP3 SWAP2 POP POP JUMP JUMPDEST PUSH1 0x0 DUP2 ISZERO ISZERO SWAP1 POP SWAP2 SWAP1 POP JUMP JUMPDEST PUSH1 0x0 DUP2 SWAP1 POP SWAP2 SWAP1 POP JUMP JUMPDEST DUP3 DUP2 DUP4 CALLDATACOPY PUSH1 0x0 DUP4 DUP4 ADD MSTORE POP POP POP JUMP JUMPDEST PUSH1 0x0 JUMPDEST DUP4 DUP2 LT ISZERO PUSH2 0x888 JUMPI DUP1 DUP3 ADD MLOAD DUP2 DUP5 ADD MSTORE PUSH1 0x20 DUP2 ADD SWAP1 POP PUSH2 0x86D JUMP JUMPDEST DUP4 DUP2 GT ISZERO PUSH2 0x897 JUMPI PUSH1 0x0 DUP5 DUP5 ADD MSTORE JUMPDEST POP POP POP POP JUMP JUMPDEST PUSH1 0x0 PUSH1 0x2 DUP3 DIV SWAP1 POP PUSH1 0x1 DUP3 AND DUP1 PUSH2 0x8B5 JUMPI PUSH1 0x7F DUP3 AND SWAP2 POP JUMPDEST PUSH1 0x20 DUP3 LT DUP2 EQ ISZERO PUSH2 0x8C9 JUMPI PUSH2 0x8C8 PUSH2 0x978 JUMP JUMPDEST JUMPDEST POP SWAP2 SWAP1 POP JUMP JUMPDEST PUSH2 0x8D8 DUP3 PUSH2 0xA19 JUMP JUMPDEST DUP2 ADD DUP2 DUP2 LT PUSH8 0xFFFFFFFFFFFFFFFF DUP3 GT OR ISZERO PUSH2 0x8F7 JUMPI PUSH2 0x8F6 PUSH2 0x9D6 JUMP JUMPDEST JUMPDEST DUP1 PUSH1 0x40 MSTORE POP POP POP JUMP JUMPDEST PUSH1 0x0 PUSH2 0x90B DUP3 PUSH2 0x851 JUMP JUMPDEST SWAP2 POP PUSH32 0xFFFFFFFFFFFFFFFFFFFFFFFFFFFFFFFFFFFFFFFFFFFFFFFFFFFFFFFFFFFFFFFF DUP3 EQ ISZERO PUSH2 0x93E JUMPI PUSH2 0x93D PUSH2 0x949 JUMP JUMPDEST JUMPDEST PUSH1 0x1 DUP3 ADD SWAP1 POP SWAP2 SWAP1 POP JUMP JUMPDEST PUSH32 0x4E487B7100000000000000000000000000000000000000000000000000000000 PUSH1 0x0 MSTORE PUSH1 0x11 PUSH1 0x4 MSTORE PUSH1 0x24 PUSH1 0x0 REVERT JUMPDEST PUSH32 0x4E487B7100000000000000000000000000000000000000000000000000000000 PUSH1 0x0 MSTORE PUSH1 0x22 PUSH1 0x4 MSTORE PUSH1 0x24 PUSH1 0x0 REVERT JUMPDEST PUSH32 0x4E487B7100000000000000000000000000000000000000000000000000000000 PUSH1 0x0 MSTORE PUSH1 0x32 PUSH1 0x4 MSTORE PUSH1 0x24 PUSH1 0x0 REVERT JUMPDEST PUSH32 0x4E487B7100000000000000000000000000000000000000000000000000000000 PUSH1 0x0 MSTORE PUSH1 0x41 PUSH1 0x4 MSTORE PUSH1 0x24 PUSH1 0x0 REVERT JUMPDEST PUSH1 0x0 DUP1 REVERT JUMPDEST PUSH1 0x0 DUP1 REVERT JUMPDEST PUSH1 0x0 DUP1 REVERT JUMPDEST PUSH1 0x0 DUP1 REVERT JUMPDEST PUSH1 0x0 PUSH1 0x1F NOT PUSH1 0x1F DUP4 ADD AND SWAP1 POP SWAP2 SWAP1 POP JUMP INVALID LOG2 PUSH5 0x6970667358 0x22 SLT KECCAK256 0xFB 0xE7 SWAP1 SGT 0xD3 SWAP2 0xD0 BALANCE SDIV PUSH3 0x10041C DUP14 LT SWAP4 CALLDATASIZE PUSH27 0xC6951EFC4EBA5565366601B08E7564736F6C634300080700330000 "
				},
				"gasEstimates": {
					"creation": {
						"codeDepositCost": "543800",
						"executionCost": "infinite",
						"totalCost": "infinite"
					},
					"external": {
						"apostarLetra(string)": "infinite",
						"crearPalabra(string)": "infinite",
						"elegirPalabra()": "infinite",
						"getID()": "2481",
						"owner()": "2533",
						"transferOwnership(address)": "30693"
					}
				},
				"methodIdentifiers": {
					"apostarLetra(string)": "b0ea68f3",
					"crearPalabra(string)": "51b6447f",
					"elegirPalabra()": "0f0355da",
					"getID()": "ab9dbd07",
					"owner()": "8da5cb5b",
					"transferOwnership(address)": "f2fde38b"
				}
			},
			"storageLayout": {
				"storage": [
					{
						"astId": 329,
						"contract": "contracts/Jugador.sol:Jugador",
						"label": "owner",
						"offset": 0,
						"slot": "0",
						"type": "t_address"
					},
					{
						"astId": 225,
						"contract": "contracts/Jugador.sol:Jugador",
						"label": "id",
						"offset": 0,
						"slot": "1",
						"type": "t_uint256"
					},
					{
						"astId": 228,
						"contract": "contracts/Jugador.sol:Jugador",
						"label": "juego",
						"offset": 0,
						"slot": "2",
						"type": "t_contract(Juego)216"
					},
					{
						"astId": 231,
						"contract": "contracts/Jugador.sol:Jugador",
						"label": "actual",
						"offset": 0,
						"slot": "3",
						"type": "t_contract(Word)584"
					}
				],
				"types": {
					"t_address": {
						"encoding": "inplace",
						"label": "address",
						"numberOfBytes": "20"
					},
					"t_contract(Juego)216": {
						"encoding": "inplace",
						"label": "contract Juego",
						"numberOfBytes": "20"
					},
					"t_contract(Word)584": {
						"encoding": "inplace",
						"label": "contract Word",
						"numberOfBytes": "20"
					},
					"t_uint256": {
						"encoding": "inplace",
						"label": "uint256",
						"numberOfBytes": "32"
					}
				}
			},
			"userdoc": {
				"kind": "user",
				"methods": {},
				"version": 1
			}
		}
	}
}