{
  "contractName": "HasbuToken",
  "abi": [
    {
      "inputs": [],
      "stateMutability": "nonpayable",
      "type": "constructor"
    },
    {
      "anonymous": false,
      "inputs": [
        {
          "indexed": true,
          "internalType": "address",
          "name": "owner",
          "type": "address"
        },
        {
          "indexed": true,
          "internalType": "address",
          "name": "approved",
          "type": "address"
        },
        {
          "indexed": true,
          "internalType": "uint256",
          "name": "tokenId",
          "type": "uint256"
        }
      ],
      "name": "Approval",
      "type": "event"
    },
    {
      "anonymous": false,
      "inputs": [
        {
          "indexed": true,
          "internalType": "address",
          "name": "owner",
          "type": "address"
        },
        {
          "indexed": true,
          "internalType": "address",
          "name": "operator",
          "type": "address"
        },
        {
          "indexed": false,
          "internalType": "bool",
          "name": "approved",
          "type": "bool"
        }
      ],
      "name": "ApprovalForAll",
      "type": "event"
    },
    {
      "anonymous": false,
      "inputs": [
        {
          "indexed": true,
          "internalType": "address",
          "name": "previousOwner",
          "type": "address"
        },
        {
          "indexed": true,
          "internalType": "address",
          "name": "newOwner",
          "type": "address"
        }
      ],
      "name": "OwnershipTransferred",
      "type": "event"
    },
    {
      "anonymous": false,
      "inputs": [
        {
          "indexed": true,
          "internalType": "address",
          "name": "from",
          "type": "address"
        },
        {
          "indexed": true,
          "internalType": "address",
          "name": "to",
          "type": "address"
        },
        {
          "indexed": true,
          "internalType": "uint256",
          "name": "tokenId",
          "type": "uint256"
        }
      ],
      "name": "Transfer",
      "type": "event"
    },
    {
      "inputs": [
        {
          "internalType": "address",
          "name": "to",
          "type": "address"
        },
        {
          "internalType": "uint256",
          "name": "tokenId",
          "type": "uint256"
        }
      ],
      "name": "approve",
      "outputs": [],
      "stateMutability": "nonpayable",
      "type": "function"
    },
    {
      "inputs": [
        {
          "internalType": "address",
          "name": "owner",
          "type": "address"
        }
      ],
      "name": "balanceOf",
      "outputs": [
        {
          "internalType": "uint256",
          "name": "",
          "type": "uint256"
        }
      ],
      "stateMutability": "view",
      "type": "function",
      "constant": true
    },
    {
      "inputs": [
        {
          "internalType": "uint256",
          "name": "tokenId",
          "type": "uint256"
        }
      ],
      "name": "getApproved",
      "outputs": [
        {
          "internalType": "address",
          "name": "",
          "type": "address"
        }
      ],
      "stateMutability": "view",
      "type": "function",
      "constant": true
    },
    {
      "inputs": [
        {
          "internalType": "address",
          "name": "owner",
          "type": "address"
        },
        {
          "internalType": "address",
          "name": "operator",
          "type": "address"
        }
      ],
      "name": "isApprovedForAll",
      "outputs": [
        {
          "internalType": "bool",
          "name": "",
          "type": "bool"
        }
      ],
      "stateMutability": "view",
      "type": "function",
      "constant": true
    },
    {
      "inputs": [],
      "name": "name",
      "outputs": [
        {
          "internalType": "string",
          "name": "",
          "type": "string"
        }
      ],
      "stateMutability": "view",
      "type": "function",
      "constant": true
    },
    {
      "inputs": [],
      "name": "owner",
      "outputs": [
        {
          "internalType": "address",
          "name": "",
          "type": "address"
        }
      ],
      "stateMutability": "view",
      "type": "function",
      "constant": true
    },
    {
      "inputs": [
        {
          "internalType": "uint256",
          "name": "tokenId",
          "type": "uint256"
        }
      ],
      "name": "ownerOf",
      "outputs": [
        {
          "internalType": "address",
          "name": "",
          "type": "address"
        }
      ],
      "stateMutability": "view",
      "type": "function",
      "constant": true
    },
    {
      "inputs": [
        {
          "internalType": "address",
          "name": "from",
          "type": "address"
        },
        {
          "internalType": "address",
          "name": "to",
          "type": "address"
        },
        {
          "internalType": "uint256",
          "name": "tokenId",
          "type": "uint256"
        }
      ],
      "name": "safeTransferFrom",
      "outputs": [],
      "stateMutability": "nonpayable",
      "type": "function"
    },
    {
      "inputs": [
        {
          "internalType": "address",
          "name": "from",
          "type": "address"
        },
        {
          "internalType": "address",
          "name": "to",
          "type": "address"
        },
        {
          "internalType": "uint256",
          "name": "tokenId",
          "type": "uint256"
        },
        {
          "internalType": "bytes",
          "name": "data",
          "type": "bytes"
        }
      ],
      "name": "safeTransferFrom",
      "outputs": [],
      "stateMutability": "nonpayable",
      "type": "function"
    },
    {
      "inputs": [
        {
          "internalType": "address",
          "name": "operator",
          "type": "address"
        },
        {
          "internalType": "bool",
          "name": "approved",
          "type": "bool"
        }
      ],
      "name": "setApprovalForAll",
      "outputs": [],
      "stateMutability": "nonpayable",
      "type": "function"
    },
    {
      "inputs": [
        {
          "internalType": "bytes4",
          "name": "interfaceId",
          "type": "bytes4"
        }
      ],
      "name": "supportsInterface",
      "outputs": [
        {
          "internalType": "bool",
          "name": "",
          "type": "bool"
        }
      ],
      "stateMutability": "view",
      "type": "function",
      "constant": true
    },
    {
      "inputs": [],
      "name": "symbol",
      "outputs": [
        {
          "internalType": "string",
          "name": "",
          "type": "string"
        }
      ],
      "stateMutability": "view",
      "type": "function",
      "constant": true
    },
    {
      "inputs": [
        {
          "internalType": "address",
          "name": "from",
          "type": "address"
        },
        {
          "internalType": "address",
          "name": "to",
          "type": "address"
        },
        {
          "internalType": "uint256",
          "name": "tokenId",
          "type": "uint256"
        }
      ],
      "name": "transferFrom",
      "outputs": [],
      "stateMutability": "nonpayable",
      "type": "function"
    },
    {
      "inputs": [
        {
          "internalType": "address",
          "name": "newOwner",
          "type": "address"
        }
      ],
      "name": "transferOwnership",
      "outputs": [],
      "stateMutability": "nonpayable",
      "type": "function"
    },
    {
      "inputs": [
        {
          "internalType": "address",
          "name": "to",
          "type": "address"
        }
      ],
      "name": "mint",
      "outputs": [
        {
          "internalType": "uint256",
          "name": "",
          "type": "uint256"
        }
      ],
      "stateMutability": "nonpayable",
      "type": "function"
    },
    {
      "inputs": [
        {
          "internalType": "uint256",
          "name": "tokenId",
          "type": "uint256"
        }
      ],
      "name": "tokenURI",
      "outputs": [
        {
          "internalType": "string",
          "name": "",
          "type": "string"
        }
      ],
      "stateMutability": "view",
      "type": "function",
      "constant": true
    }
  ],
  "bytecode": "0x608060405260006007553480156200001657600080fd5b506040518060400160405280600881526020017f48617362754e46540000000000000000000000000000000000000000000000008152506040518060400160405280600381526020017f484153000000000000000000000000000000000000000000000000000000000081525081600090805190602001906200009b929190620000fe565b508060019080519060200190620000b4929190620000fe565b50505033600660006101000a81548173ffffffffffffffffffffffffffffffffffffffff021916908373ffffffffffffffffffffffffffffffffffffffff16021790555062000213565b8280546200010c90620001ae565b90600052602060002090601f0160209004810192826200013057600085556200017c565b82601f106200014b57805160ff19168380011785556200017c565b828001600101855582156200017c579182015b828111156200017b5782518255916020019190600101906200015e565b5b5090506200018b91906200018f565b5090565b5b80821115620001aa57600081600090555060010162000190565b5090565b60006002820490506001821680620001c757607f821691505b60208210811415620001de57620001dd620001e4565b5b50919050565b7f4e487b7100000000000000000000000000000000000000000000000000000000600052602260045260246000fd5b6125c580620002236000396000f3fe608060405234801561001057600080fd5b50600436106101005760003560e01c806370a0823111610097578063b88d4fde11610066578063b88d4fde146102bf578063c87b56dd146102db578063e985e9c51461030b578063f2fde38b1461033b57610100565b806370a08231146102375780638da5cb5b1461026757806395d89b4114610285578063a22cb465146102a357610100565b806323b872dd116100d357806323b872dd1461019f57806342842e0e146101bb5780636352211e146101d75780636a6278421461020757610100565b806301ffc9a71461010557806306fdde0314610135578063081812fc14610153578063095ea7b314610183575b600080fd5b61011f600480360381019061011a9190611989565b610357565b60405161012c9190611cba565b60405180910390f35b61013d610439565b60405161014a9190611cd5565b60405180910390f35b61016d600480360381019061016891906119e3565b6104cb565b60405161017a9190611c53565b60405180910390f35b61019d60048036038101906101989190611949565b610511565b005b6101b960048036038101906101b49190611833565b610629565b005b6101d560048036038101906101d09190611833565b610689565b005b6101f160048036038101906101ec91906119e3565b6106a9565b6040516101fe9190611c53565b60405180910390f35b610221600480360381019061021c91906117c6565b61075b565b60405161022e9190611e77565b60405180910390f35b610251600480360381019061024c91906117c6565b610843565b60405161025e9190611e77565b60405180910390f35b61026f6108fb565b60405161027c9190611c53565b60405180910390f35b61028d610921565b60405161029a9190611cd5565b60405180910390f35b6102bd60048036038101906102b89190611909565b6109b3565b005b6102d960048036038101906102d49190611886565b6109c9565b005b6102f560048036038101906102f091906119e3565b610a2b565b6040516103029190611cd5565b60405180910390f35b610325600480360381019061032091906117f3565b610a95565b6040516103329190611cba565b60405180910390f35b610355600480360381019061035091906117c6565b610b29565b005b60007f80ac58cd000000000000000000000000000000000000000000000000000000007bffffffffffffffffffffffffffffffffffffffffffffffffffffffff1916827bffffffffffffffffffffffffffffffffffffffffffffffffffffffff1916148061042257507f5b5e139f000000000000000000000000000000000000000000000000000000007bffffffffffffffffffffffffffffffffffffffffffffffffffffffff1916827bffffffffffffffffffffffffffffffffffffffffffffffffffffffff1916145b80610432575061043182610c7d565b5b9050919050565b60606000805461044890612060565b80601f016020809104026020016040519081016040528092919081815260200182805461047490612060565b80156104c15780601f10610496576101008083540402835291602001916104c1565b820191906000526020600020905b8154815290600101906020018083116104a457829003601f168201915b5050505050905090565b60006104d682610ce7565b6004600083815260200190815260200160002060009054906101000a900473ffffffffffffffffffffffffffffffffffffffff169050919050565b600061051c826106a9565b90508073ffffffffffffffffffffffffffffffffffffffff168373ffffffffffffffffffffffffffffffffffffffff16141561058d576040517f08c379a000000000000000000000000000000000000000000000000000000000815260040161058490611e37565b60405180910390fd5b8073ffffffffffffffffffffffffffffffffffffffff166105ac610d32565b73ffffffffffffffffffffffffffffffffffffffff1614806105db57506105da816105d5610d32565b610a95565b5b61061a576040517f08c379a000000000000000000000000000000000000000000000000000000000815260040161061190611db7565b60405180910390fd5b6106248383610d3a565b505050565b61063a610634610d32565b82610df3565b610679576040517f08c379a000000000000000000000000000000000000000000000000000000000815260040161067090611e57565b60405180910390fd5b610684838383610e88565b505050565b6106a4838383604051806020016040528060008152506109c9565b505050565b6000806002600084815260200190815260200160002060009054906101000a900473ffffffffffffffffffffffffffffffffffffffff169050600073ffffffffffffffffffffffffffffffffffffffff168173ffffffffffffffffffffffffffffffffffffffff161415610752576040517f08c379a000000000000000000000000000000000000000000000000000000000815260040161074990611e17565b60405180910390fd5b80915050919050565b6000600660009054906101000a900473ffffffffffffffffffffffffffffffffffffffff1673ffffffffffffffffffffffffffffffffffffffff163373ffffffffffffffffffffffffffffffffffffffff16146107b757600080fd5b600760008154809291906107ca906120c3565b91905055506107db8260075461111a565b6007548273ffffffffffffffffffffffffffffffffffffffff16600073ffffffffffffffffffffffffffffffffffffffff167fddf252ad1be2c89b69c2b068fc378daa952ba7f163c4a11628f55a4df523b3ef60405160405180910390a46007549050919050565b60008073ffffffffffffffffffffffffffffffffffffffff168273ffffffffffffffffffffffffffffffffffffffff1614156108b4576040517f08c379a00000000000000000000000000000000000000000000000000000000081526004016108ab90611d97565b60405180910390fd5b600360008373ffffffffffffffffffffffffffffffffffffffff1673ffffffffffffffffffffffffffffffffffffffff168152602001908152602001600020549050919050565b600660009054906101000a900473ffffffffffffffffffffffffffffffffffffffff1681565b60606001805461093090612060565b80601f016020809104026020016040519081016040528092919081815260200182805461095c90612060565b80156109a95780601f1061097e576101008083540402835291602001916109a9565b820191906000526020600020905b81548152906001019060200180831161098c57829003601f168201915b5050505050905090565b6109c56109be610d32565b83836112f4565b5050565b6109da6109d4610d32565b83610df3565b610a19576040517f08c379a0000000000000000000000000000000000000000000000000000000008152600401610a1090611e57565b60405180910390fd5b610a2584848484611461565b50505050565b6060610a36826114bd565b610a75576040517f08c379a0000000000000000000000000000000000000000000000000000000008152600401610a6c90611df7565b60405180910390fd5b604051806080016040528060598152602001612537605991399050919050565b6000600560008473ffffffffffffffffffffffffffffffffffffffff1673ffffffffffffffffffffffffffffffffffffffff16815260200190815260200160002060008373ffffffffffffffffffffffffffffffffffffffff1673ffffffffffffffffffffffffffffffffffffffff16815260200190815260200160002060009054906101000a900460ff16905092915050565b600660009054906101000a900473ffffffffffffffffffffffffffffffffffffffff1673ffffffffffffffffffffffffffffffffffffffff163373ffffffffffffffffffffffffffffffffffffffff1614610b8357600080fd5b600073ffffffffffffffffffffffffffffffffffffffff168173ffffffffffffffffffffffffffffffffffffffff161415610bbd57600080fd5b8073ffffffffffffffffffffffffffffffffffffffff16600660009054906101000a900473ffffffffffffffffffffffffffffffffffffffff1673ffffffffffffffffffffffffffffffffffffffff167f8be0079c531659141344cd1fd0a4f28419497f9722a3daafe3b4186f6b6457e060405160405180910390a380600660006101000a81548173ffffffffffffffffffffffffffffffffffffffff021916908373ffffffffffffffffffffffffffffffffffffffff16021790555050565b60007f01ffc9a7000000000000000000000000000000000000000000000000000000007bffffffffffffffffffffffffffffffffffffffffffffffffffffffff1916827bffffffffffffffffffffffffffffffffffffffffffffffffffffffff1916149050919050565b610cf0816114bd565b610d2f576040517f08c379a0000000000000000000000000000000000000000000000000000000008152600401610d2690611e17565b60405180910390fd5b50565b600033905090565b816004600083815260200190815260200160002060006101000a81548173ffffffffffffffffffffffffffffffffffffffff021916908373ffffffffffffffffffffffffffffffffffffffff160217905550808273ffffffffffffffffffffffffffffffffffffffff16610dad836106a9565b73ffffffffffffffffffffffffffffffffffffffff167f8c5be1e5ebec7d5bd14f71427d1e84f3dd0314c0f7b2291e5b200ac8c7c3b92560405160405180910390a45050565b600080610dff836106a9565b90508073ffffffffffffffffffffffffffffffffffffffff168473ffffffffffffffffffffffffffffffffffffffff161480610e415750610e408185610a95565b5b80610e7f57508373ffffffffffffffffffffffffffffffffffffffff16610e67846104cb565b73ffffffffffffffffffffffffffffffffffffffff16145b91505092915050565b8273ffffffffffffffffffffffffffffffffffffffff16610ea8826106a9565b73ffffffffffffffffffffffffffffffffffffffff1614610efe576040517f08c379a0000000000000000000000000000000000000000000000000000000008152600401610ef590611d17565b60405180910390fd5b600073ffffffffffffffffffffffffffffffffffffffff168273ffffffffffffffffffffffffffffffffffffffff161415610f6e576040517f08c379a0000000000000000000000000000000000000000000000000000000008152600401610f6590611d57565b60405180910390fd5b610f79838383611529565b6004600082815260200190815260200160002060006101000a81549073ffffffffffffffffffffffffffffffffffffffff02191690556001600360008573ffffffffffffffffffffffffffffffffffffffff1673ffffffffffffffffffffffffffffffffffffffff1681526020019081526020016000206000828254610fff9190611f76565b925050819055506001600360008473ffffffffffffffffffffffffffffffffffffffff1673ffffffffffffffffffffffffffffffffffffffff16815260200190815260200160002060008282546110569190611f20565b92505081905550816002600083815260200190815260200160002060006101000a81548173ffffffffffffffffffffffffffffffffffffffff021916908373ffffffffffffffffffffffffffffffffffffffff160217905550808273ffffffffffffffffffffffffffffffffffffffff168473ffffffffffffffffffffffffffffffffffffffff167fddf252ad1be2c89b69c2b068fc378daa952ba7f163c4a11628f55a4df523b3ef60405160405180910390a461111583838361152e565b505050565b600073ffffffffffffffffffffffffffffffffffffffff168273ffffffffffffffffffffffffffffffffffffffff16141561118a576040517f08c379a000000000000000000000000000000000000000000000000000000000815260040161118190611dd7565b60405180910390fd5b611193816114bd565b156111d3576040517f08c379a00000000000000000000000000000000000000000000000000000000081526004016111ca90611d37565b60405180910390fd5b6111df60008383611529565b6001600360008473ffffffffffffffffffffffffffffffffffffffff1673ffffffffffffffffffffffffffffffffffffffff168152602001908152602001600020600082825461122f9190611f20565b92505081905550816002600083815260200190815260200160002060006101000a81548173ffffffffffffffffffffffffffffffffffffffff021916908373ffffffffffffffffffffffffffffffffffffffff160217905550808273ffffffffffffffffffffffffffffffffffffffff16600073ffffffffffffffffffffffffffffffffffffffff167fddf252ad1be2c89b69c2b068fc378daa952ba7f163c4a11628f55a4df523b3ef60405160405180910390a46112f06000838361152e565b5050565b8173ffffffffffffffffffffffffffffffffffffffff168373ffffffffffffffffffffffffffffffffffffffff161415611363576040517f08c379a000000000000000000000000000000000000000000000000000000000815260040161135a90611d77565b60405180910390fd5b80600560008573ffffffffffffffffffffffffffffffffffffffff1673ffffffffffffffffffffffffffffffffffffffff16815260200190815260200160002060008473ffffffffffffffffffffffffffffffffffffffff1673ffffffffffffffffffffffffffffffffffffffff16815260200190815260200160002060006101000a81548160ff0219169083151502179055508173ffffffffffffffffffffffffffffffffffffffff168373ffffffffffffffffffffffffffffffffffffffff167f17307eab39ab6107e8899845ad3d59bd9653f200f220920489ca2b5937696c31836040516114549190611cba565b60405180910390a3505050565b61146c848484610e88565b61147884848484611533565b6114b7576040517f08c379a00000000000000000000000000000000000000000000000000000000081526004016114ae90611cf7565b60405180910390fd5b50505050565b60008073ffffffffffffffffffffffffffffffffffffffff166002600084815260200190815260200160002060009054906101000a900473ffffffffffffffffffffffffffffffffffffffff1673ffffffffffffffffffffffffffffffffffffffff1614159050919050565b505050565b505050565b60006115548473ffffffffffffffffffffffffffffffffffffffff166116ca565b156116bd578373ffffffffffffffffffffffffffffffffffffffff1663150b7a0261157d610d32565b8786866040518563ffffffff1660e01b815260040161159f9493929190611c6e565b602060405180830381600087803b1580156115b957600080fd5b505af19250505080156115ea57506040513d601f19601f820116820180604052508101906115e791906119b6565b60015b61166d573d806000811461161a576040519150601f19603f3d011682016040523d82523d6000602084013e61161f565b606091505b50600081511415611665576040517f08c379a000000000000000000000000000000000000000000000000000000000815260040161165c90611cf7565b60405180910390fd5b805181602001fd5b63150b7a0260e01b7bffffffffffffffffffffffffffffffffffffffffffffffffffffffff1916817bffffffffffffffffffffffffffffffffffffffffffffffffffffffff1916149150506116c2565b600190505b949350505050565b6000808273ffffffffffffffffffffffffffffffffffffffff163b119050919050565b60006117006116fb84611eb7565b611e92565b90508281526020810184848401111561171c5761171b61219e565b5b61172784828561201e565b509392505050565b60008135905061173e816124da565b92915050565b600081359050611753816124f1565b92915050565b60008135905061176881612508565b92915050565b60008151905061177d81612508565b92915050565b600082601f83011261179857611797612199565b5b81356117a88482602086016116ed565b91505092915050565b6000813590506117c08161251f565b92915050565b6000602082840312156117dc576117db6121a8565b5b60006117ea8482850161172f565b91505092915050565b6000806040838503121561180a576118096121a8565b5b60006118188582860161172f565b92505060206118298582860161172f565b9150509250929050565b60008060006060848603121561184c5761184b6121a8565b5b600061185a8682870161172f565b935050602061186b8682870161172f565b925050604061187c868287016117b1565b9150509250925092565b600080600080608085870312156118a05761189f6121a8565b5b60006118ae8782880161172f565b94505060206118bf8782880161172f565b93505060406118d0878288016117b1565b925050606085013567ffffffffffffffff8111156118f1576118f06121a3565b5b6118fd87828801611783565b91505092959194509250565b600080604083850312156119205761191f6121a8565b5b600061192e8582860161172f565b925050602061193f85828601611744565b9150509250929050565b600080604083850312156119605761195f6121a8565b5b600061196e8582860161172f565b925050602061197f858286016117b1565b9150509250929050565b60006020828403121561199f5761199e6121a8565b5b60006119ad84828501611759565b91505092915050565b6000602082840312156119cc576119cb6121a8565b5b60006119da8482850161176e565b91505092915050565b6000602082840312156119f9576119f86121a8565b5b6000611a07848285016117b1565b91505092915050565b611a1981611faa565b82525050565b611a2881611fbc565b82525050565b6000611a3982611ee8565b611a438185611efe565b9350611a5381856020860161202d565b611a5c816121ad565b840191505092915050565b6000611a7282611ef3565b611a7c8185611f0f565b9350611a8c81856020860161202d565b611a95816121ad565b840191505092915050565b6000611aad603283611f0f565b9150611ab8826121be565b604082019050919050565b6000611ad0602583611f0f565b9150611adb8261220d565b604082019050919050565b6000611af3601c83611f0f565b9150611afe8261225c565b602082019050919050565b6000611b16602483611f0f565b9150611b2182612285565b604082019050919050565b6000611b39601983611f0f565b9150611b44826122d4565b602082019050919050565b6000611b5c602983611f0f565b9150611b67826122fd565b604082019050919050565b6000611b7f603e83611f0f565b9150611b8a8261234c565b604082019050919050565b6000611ba2602083611f0f565b9150611bad8261239b565b602082019050919050565b6000611bc5602f83611f0f565b9150611bd0826123c4565b604082019050919050565b6000611be8601883611f0f565b9150611bf382612413565b602082019050919050565b6000611c0b602183611f0f565b9150611c168261243c565b604082019050919050565b6000611c2e602e83611f0f565b9150611c398261248b565b604082019050919050565b611c4d81612014565b82525050565b6000602082019050611c686000830184611a10565b92915050565b6000608082019050611c836000830187611a10565b611c906020830186611a10565b611c9d6040830185611c44565b8181036060830152611caf8184611a2e565b905095945050505050565b6000602082019050611ccf6000830184611a1f565b92915050565b60006020820190508181036000830152611cef8184611a67565b905092915050565b60006020820190508181036000830152611d1081611aa0565b9050919050565b60006020820190508181036000830152611d3081611ac3565b9050919050565b60006020820190508181036000830152611d5081611ae6565b9050919050565b60006020820190508181036000830152611d7081611b09565b9050919050565b60006020820190508181036000830152611d9081611b2c565b9050919050565b60006020820190508181036000830152611db081611b4f565b9050919050565b60006020820190508181036000830152611dd081611b72565b9050919050565b60006020820190508181036000830152611df081611b95565b9050919050565b60006020820190508181036000830152611e1081611bb8565b9050919050565b60006020820190508181036000830152611e3081611bdb565b9050919050565b60006020820190508181036000830152611e5081611bfe565b9050919050565b60006020820190508181036000830152611e7081611c21565b9050919050565b6000602082019050611e8c6000830184611c44565b92915050565b6000611e9c611ead565b9050611ea88282612092565b919050565b6000604051905090565b600067ffffffffffffffff821115611ed257611ed161216a565b5b611edb826121ad565b9050602081019050919050565b600081519050919050565b600081519050919050565b600082825260208201905092915050565b600082825260208201905092915050565b6000611f2b82612014565b9150611f3683612014565b9250827fffffffffffffffffffffffffffffffffffffffffffffffffffffffffffffffff03821115611f6b57611f6a61210c565b5b828201905092915050565b6000611f8182612014565b9150611f8c83612014565b925082821015611f9f57611f9e61210c565b5b828203905092915050565b6000611fb582611ff4565b9050919050565b60008115159050919050565b60007fffffffff0000000000000000000000000000000000000000000000000000000082169050919050565b600073ffffffffffffffffffffffffffffffffffffffff82169050919050565b6000819050919050565b82818337600083830152505050565b60005b8381101561204b578082015181840152602081019050612030565b8381111561205a576000848401525b50505050565b6000600282049050600182168061207857607f821691505b6020821081141561208c5761208b61213b565b5b50919050565b61209b826121ad565b810181811067ffffffffffffffff821117156120ba576120b961216a565b5b80604052505050565b60006120ce82612014565b91507fffffffffffffffffffffffffffffffffffffffffffffffffffffffffffffffff8214156121015761210061210c565b5b600182019050919050565b7f4e487b7100000000000000000000000000000000000000000000000000000000600052601160045260246000fd5b7f4e487b7100000000000000000000000000000000000000000000000000000000600052602260045260246000fd5b7f4e487b7100000000000000000000000000000000000000000000000000000000600052604160045260246000fd5b600080fd5b600080fd5b600080fd5b600080fd5b6000601f19601f8301169050919050565b7f4552433732313a207472616e7366657220746f206e6f6e20455243373231526560008201527f63656976657220696d706c656d656e7465720000000000000000000000000000602082015250565b7f4552433732313a207472616e736665722066726f6d20696e636f72726563742060008201527f6f776e6572000000000000000000000000000000000000000000000000000000602082015250565b7f4552433732313a20746f6b656e20616c7265616479206d696e74656400000000600082015250565b7f4552433732313a207472616e7366657220746f20746865207a65726f2061646460008201527f7265737300000000000000000000000000000000000000000000000000000000602082015250565b7f4552433732313a20617070726f766520746f2063616c6c657200000000000000600082015250565b7f4552433732313a2061646472657373207a65726f206973206e6f74206120766160008201527f6c6964206f776e65720000000000000000000000000000000000000000000000602082015250565b7f4552433732313a20617070726f76652063616c6c6572206973206e6f7420746f60008201527f6b656e206f776e6572206e6f7220617070726f76656420666f7220616c6c0000602082015250565b7f4552433732313a206d696e7420746f20746865207a65726f2061646472657373600082015250565b7f4552433732314d657461646174613a2055524920717565727920666f72206e6f60008201527f6e6578697374656e7420746f6b656e0000000000000000000000000000000000602082015250565b7f4552433732313a20696e76616c696420746f6b656e2049440000000000000000600082015250565b7f4552433732313a20617070726f76616c20746f2063757272656e74206f776e6560008201527f7200000000000000000000000000000000000000000000000000000000000000602082015250565b7f4552433732313a2063616c6c6572206973206e6f7420746f6b656e206f776e6560008201527f72206e6f7220617070726f766564000000000000000000000000000000000000602082015250565b6124e381611faa565b81146124ee57600080fd5b50565b6124fa81611fbc565b811461250557600080fd5b50565b61251181611fc8565b811461251c57600080fd5b50565b61252881612014565b811461253357600080fd5b5056fe68747470733a2f2f6261666b726569616778347274626b6d7573337a6c716a6a347735336e666c613665686670343773747937676b32687433756b72697164753376342e697066732e6e667473746f726167652e6c696e6b2fa2646970667358221220f9e4f23cc70a446d480f5a23b86ce1594548ebce9bd5c2c2158d566effbdb65764736f6c63430008070033",
  "immutableReferences": {},
  "source": "// SPDX-License-Identifier: GPL-3.0\r\npragma solidity ^0.8.0;\r\n\r\nimport \"./OpenZeppelin ERC721/ERC721/ERC721.sol\";\r\nimport \"./Ownable.sol\";\r\n\r\ncontract HasbuToken is ERC721, Ownable{\r\n\r\n    uint256 token_count=0;\r\n\r\n    constructor() ERC721(\"HasbuNFT\", \"HAS\") {}\r\n\r\n    function mint(address to) public onlyOwner returns(uint256){\r\n        token_count++;\r\n        _mint(to, token_count);\r\n\r\n        emit Transfer(address(0), to, token_count);\r\n        return token_count;\r\n    }\r\n\r\n      function tokenURI(uint256 tokenId) public view virtual override returns (string memory) {\r\n        require(_exists(tokenId), \"ERC721Metadata: URI query for nonexistent token\");\r\n        return \"https://bafkreiagx4rtbkmus3zlqjj4w53nfla6ehfp47sty7gk2ht3ukriqdu3v4.ipfs.nftstorage.link/\";\r\n    }\r\n\r\n\r\n}",
  "sourcePath": "C:\\Users\\Manu\\Desktop\\tp TDL\\clonado19 1554\\tdl-solidity\\contracts\\HasbuToken.sol",
  "compiler": {
    "name": "solc",
    "version": "0.8.7+commit.e28d00a7.Emscripten.clang"
  },
  "schemaVersion": "3.4.7",
  "updatedAt": "2022-07-20T17:03:51.124Z",
  "networkType": "ethereum",
  "devdoc": {
    "kind": "dev",
    "methods": {
      "approve(address,uint256)": {
        "details": "See {IERC721-approve}."
      },
      "balanceOf(address)": {
        "details": "See {IERC721-balanceOf}."
      },
      "getApproved(uint256)": {
        "details": "See {IERC721-getApproved}."
      },
      "isApprovedForAll(address,address)": {
        "details": "See {IERC721-isApprovedForAll}."
      },
      "name()": {
        "details": "See {IERC721Metadata-name}."
      },
      "ownerOf(uint256)": {
        "details": "See {IERC721-ownerOf}."
      },
      "safeTransferFrom(address,address,uint256)": {
        "details": "See {IERC721-safeTransferFrom}."
      },
      "safeTransferFrom(address,address,uint256,bytes)": {
        "details": "See {IERC721-safeTransferFrom}."
      },
      "setApprovalForAll(address,bool)": {
        "details": "See {IERC721-setApprovalForAll}."
      },
      "supportsInterface(bytes4)": {
        "details": "See {IERC165-supportsInterface}."
      },
      "symbol()": {
        "details": "See {IERC721Metadata-symbol}."
      },
      "tokenURI(uint256)": {
        "details": "See {IERC721Metadata-tokenURI}."
      },
      "transferFrom(address,address,uint256)": {
        "details": "See {IERC721-transferFrom}."
      },
      "transferOwnership(address)": {
        "details": "Allows the current owner to transfer control of the contract to a newOwner.",
        "params": {
          "newOwner": "The address to transfer ownership to."
        }
      }
    },
    "version": 1
  },
  "userdoc": {
    "kind": "user",
    "methods": {},
    "version": 1
  }
}