{
  "contractName": "HasbuNFT",
  "abi": [
    {
      "inputs": [
        {
          "internalType": "string",
          "name": "_palabra",
          "type": "string"
        }
      ],
      "stateMutability": "nonpayable",
      "type": "constructor"
    },
    {
      "anonymous": false,
      "inputs": [
        {
          "indexed": true,
          "internalType": "address",
          "name": "_owner",
          "type": "address"
        },
        {
          "indexed": true,
          "internalType": "address",
          "name": "_approved",
          "type": "address"
        },
        {
          "indexed": false,
          "internalType": "uint256",
          "name": "_tokenId",
          "type": "uint256"
        }
      ],
      "name": "Approval",
      "type": "event"
    },
    {
      "anonymous": false,
      "inputs": [
        {
          "indexed": true,
          "internalType": "address",
          "name": "previousOwner",
          "type": "address"
        },
        {
          "indexed": true,
          "internalType": "address",
          "name": "newOwner",
          "type": "address"
        }
      ],
      "name": "OwnershipTransferred",
      "type": "event"
    },
    {
      "anonymous": false,
      "inputs": [
        {
          "indexed": true,
          "internalType": "address",
          "name": "_from",
          "type": "address"
        },
        {
          "indexed": true,
          "internalType": "address",
          "name": "_to",
          "type": "address"
        },
        {
          "indexed": false,
          "internalType": "uint256",
          "name": "_tokenId",
          "type": "uint256"
        }
      ],
      "name": "Transfer",
      "type": "event"
    },
    {
      "inputs": [],
      "name": "name",
      "outputs": [
        {
          "internalType": "string",
          "name": "",
          "type": "string"
        }
      ],
      "stateMutability": "view",
      "type": "function"
    },
    {
      "inputs": [],
      "name": "owner",
      "outputs": [
        {
          "internalType": "address",
          "name": "",
          "type": "address"
        }
      ],
      "stateMutability": "view",
      "type": "function"
    },
    {
      "inputs": [],
      "name": "symbol",
      "outputs": [
        {
          "internalType": "string",
          "name": "",
          "type": "string"
        }
      ],
      "stateMutability": "view",
      "type": "function"
    },
    {
      "inputs": [
        {
          "internalType": "address",
          "name": "newOwner",
          "type": "address"
        }
      ],
      "name": "transferOwnership",
      "outputs": [],
      "stateMutability": "nonpayable",
      "type": "function"
    },
    {
      "inputs": [
        {
          "internalType": "address",
          "name": "to",
          "type": "address"
        }
      ],
      "name": "_mint",
      "outputs": [],
      "stateMutability": "nonpayable",
      "type": "function"
    },
    {
      "inputs": [
        {
          "internalType": "address",
          "name": "_owner",
          "type": "address"
        }
      ],
      "name": "balanceOf",
      "outputs": [
        {
          "internalType": "uint256",
          "name": "",
          "type": "uint256"
        }
      ],
      "stateMutability": "view",
      "type": "function"
    },
    {
      "inputs": [
        {
          "internalType": "uint256",
          "name": "_tokenId",
          "type": "uint256"
        }
      ],
      "name": "ownerOf",
      "outputs": [
        {
          "internalType": "address",
          "name": "",
          "type": "address"
        }
      ],
      "stateMutability": "view",
      "type": "function"
    },
    {
      "inputs": [
        {
          "internalType": "address",
          "name": "to",
          "type": "address"
        },
        {
          "internalType": "uint256",
          "name": "_tokenId",
          "type": "uint256"
        }
      ],
      "name": "approve",
      "outputs": [],
      "stateMutability": "nonpayable",
      "type": "function"
    },
    {
      "inputs": [
        {
          "internalType": "address",
          "name": "_to",
          "type": "address"
        },
        {
          "internalType": "uint256",
          "name": "_tokenId",
          "type": "uint256"
        }
      ],
      "name": "transfer",
      "outputs": [],
      "stateMutability": "nonpayable",
      "type": "function"
    },
    {
      "inputs": [
        {
          "internalType": "uint256",
          "name": "_tokenId",
          "type": "uint256"
        }
      ],
      "name": "takeOwnership",
      "outputs": [],
      "stateMutability": "nonpayable",
      "type": "function"
    }
  ],
  "bytecode": "0x608060405260006003553480156200001657600080fd5b506040516200181b3803806200181b83398181016040528101906200003c9190620002c5565b6040518060400160405280600881526020017f48617362754e46540000000000000000000000000000000000000000000000008152506040518060400160405280600381526020017f48415300000000000000000000000000000000000000000000000000000000008152508160009081620000b9919062000561565b508060019081620000cb919062000561565b50505033600260006101000a81548173ffffffffffffffffffffffffffffffffffffffff021916908373ffffffffffffffffffffffffffffffffffffffff160217905550806004908162000120919062000561565b505062000648565b6000604051905090565b600080fd5b600080fd5b600080fd5b600080fd5b6000601f19601f8301169050919050565b7f4e487b7100000000000000000000000000000000000000000000000000000000600052604160045260246000fd5b620001918262000146565b810181811067ffffffffffffffff82111715620001b357620001b262000157565b5b80604052505050565b6000620001c862000128565b9050620001d6828262000186565b919050565b600067ffffffffffffffff821115620001f957620001f862000157565b5b620002048262000146565b9050602081019050919050565b60005b838110156200023157808201518184015260208101905062000214565b8381111562000241576000848401525b50505050565b60006200025e6200025884620001db565b620001bc565b9050828152602081018484840111156200027d576200027c62000141565b5b6200028a84828562000211565b509392505050565b600082601f830112620002aa57620002a96200013c565b5b8151620002bc84826020860162000247565b91505092915050565b600060208284031215620002de57620002dd62000132565b5b600082015167ffffffffffffffff811115620002ff57620002fe62000137565b5b6200030d8482850162000292565b91505092915050565b600081519050919050565b7f4e487b7100000000000000000000000000000000000000000000000000000000600052602260045260246000fd5b600060028204905060018216806200036957607f821691505b6020821081036200037f576200037e62000321565b5b50919050565b60008190508160005260206000209050919050565b60006020601f8301049050919050565b600082821b905092915050565b600060088302620003e97fffffffffffffffffffffffffffffffffffffffffffffffffffffffffffffffff82620003aa565b620003f58683620003aa565b95508019841693508086168417925050509392505050565b6000819050919050565b6000819050919050565b6000620004426200043c62000436846200040d565b62000417565b6200040d565b9050919050565b6000819050919050565b6200045e8362000421565b620004766200046d8262000449565b848454620003b7565b825550505050565b600090565b6200048d6200047e565b6200049a81848462000453565b505050565b5b81811015620004c257620004b660008262000483565b600181019050620004a0565b5050565b601f8211156200051157620004db8162000385565b620004e6846200039a565b81016020851015620004f6578190505b6200050e62000505856200039a565b8301826200049f565b50505b505050565b600082821c905092915050565b6000620005366000198460080262000516565b1980831691505092915050565b600062000551838362000523565b9150826002028217905092915050565b6200056c8262000316565b67ffffffffffffffff81111562000588576200058762000157565b5b62000594825462000350565b620005a1828285620004c6565b600060209050601f831160018114620005d95760008415620005c4578287015190505b620005d0858262000543565b86555062000640565b601f198416620005e98662000385565b60005b828110156200061357848901518255600182019150602085019450602081019050620005ec565b868310156200063357848901516200062f601f89168262000523565b8355505b6001600288020188555050505b505050505050565b6111c380620006586000396000f3fe608060405234801561001057600080fd5b506004361061009e5760003560e01c80638da5cb5b116100665780638da5cb5b1461015957806395d89b4114610177578063a9059cbb14610195578063b2e6ceeb146101b1578063f2fde38b146101cd5761009e565b806306fdde03146100a3578063095ea7b3146100c157806309aa7b67146100dd5780636352211e146100f957806370a0823114610129575b600080fd5b6100ab6101e9565b6040516100b89190610d54565b60405180910390f35b6100db60048036038101906100d69190610e0f565b61027b565b005b6100f760048036038101906100f29190610e4f565b61039e565b005b610113600480360381019061010e9190610e7c565b610593565b6040516101209190610eb8565b60405180910390f35b610143600480360381019061013e9190610e4f565b610644565b6040516101509190610ee2565b60405180910390f35b6101616106fb565b60405161016e9190610eb8565b60405180910390f35b61017f610721565b60405161018c9190610d54565b60405180910390f35b6101af60048036038101906101aa9190610e0f565b6107b3565b005b6101cb60048036038101906101c69190610e7c565b610862565b005b6101e760048036038101906101e29190610e4f565b610914565b005b6060600080546101f890610f2c565b80601f016020809104026020016040519081016040528092919081815260200182805461022490610f2c565b80156102715780601f1061024657610100808354040283529160200191610271565b820191906000526020600020905b81548152906001019060200180831161025457829003601f168201915b5050505050905090565b60006006600083815260200190815260200160002060009054906101000a900473ffffffffffffffffffffffffffffffffffffffff1690508273ffffffffffffffffffffffffffffffffffffffff168173ffffffffffffffffffffffffffffffffffffffff1603610321576040517f08c379a000000000000000000000000000000000000000000000000000000000815260040161031890610fcf565b60405180910390fd5b3373ffffffffffffffffffffffffffffffffffffffff168173ffffffffffffffffffffffffffffffffffffffff161461038f576040517f08c379a000000000000000000000000000000000000000000000000000000000815260040161038690611061565b60405180910390fd5b6103998383610a67565b505050565b600260009054906101000a900473ffffffffffffffffffffffffffffffffffffffff1673ffffffffffffffffffffffffffffffffffffffff163373ffffffffffffffffffffffffffffffffffffffff16146103f857600080fd5b600073ffffffffffffffffffffffffffffffffffffffff168173ffffffffffffffffffffffffffffffffffffffff1603610467576040517f08c379a000000000000000000000000000000000000000000000000000000000815260040161045e906110cd565b60405180910390fd5b6003600081548092919061047a9061111c565b9190505550600560008273ffffffffffffffffffffffffffffffffffffffff1673ffffffffffffffffffffffffffffffffffffffff16815260200190815260200160002060008154809291906104cf9061111c565b91905055508060066000600354815260200190815260200160002060006101000a81548173ffffffffffffffffffffffffffffffffffffffff021916908373ffffffffffffffffffffffffffffffffffffffff1602179055508073ffffffffffffffffffffffffffffffffffffffff16600073ffffffffffffffffffffffffffffffffffffffff167fddf252ad1be2c89b69c2b068fc378daa952ba7f163c4a11628f55a4df523b3ef6003546040516105889190610ee2565b60405180910390a350565b6000806006600084815260200190815260200160002060009054906101000a900473ffffffffffffffffffffffffffffffffffffffff169050600073ffffffffffffffffffffffffffffffffffffffff168173ffffffffffffffffffffffffffffffffffffffff160361063b576040517f08c379a0000000000000000000000000000000000000000000000000000000008152600401610632906110cd565b60405180910390fd5b80915050919050565b60008073ffffffffffffffffffffffffffffffffffffffff168273ffffffffffffffffffffffffffffffffffffffff16036106b4576040517f08c379a00000000000000000000000000000000000000000000000000000000081526004016106ab906110cd565b60405180910390fd5b600560008373ffffffffffffffffffffffffffffffffffffffff1673ffffffffffffffffffffffffffffffffffffffff168152602001908152602001600020549050919050565b600260009054906101000a900473ffffffffffffffffffffffffffffffffffffffff1681565b60606001805461073090610f2c565b80601f016020809104026020016040519081016040528092919081815260200182805461075c90610f2c565b80156107a95780601f1061077e576101008083540402835291602001916107a9565b820191906000526020600020905b81548152906001019060200180831161078c57829003601f168201915b5050505050905090565b803373ffffffffffffffffffffffffffffffffffffffff166006600083815260200190815260200160002060009054906101000a900473ffffffffffffffffffffffffffffffffffffffff1673ffffffffffffffffffffffffffffffffffffffff161461081f57600080fd5b61085d6006600084815260200190815260200160002060009054906101000a900473ffffffffffffffffffffffffffffffffffffffff168484610b55565b505050565b3373ffffffffffffffffffffffffffffffffffffffff166007600083815260200190815260200160002060009054906101000a900473ffffffffffffffffffffffffffffffffffffffff1673ffffffffffffffffffffffffffffffffffffffff16146108cd57600080fd5b60006006600083815260200190815260200160002060009054906101000a900473ffffffffffffffffffffffffffffffffffffffff169050610910813384610b55565b5050565b600260009054906101000a900473ffffffffffffffffffffffffffffffffffffffff1673ffffffffffffffffffffffffffffffffffffffff163373ffffffffffffffffffffffffffffffffffffffff161461096e57600080fd5b600073ffffffffffffffffffffffffffffffffffffffff168173ffffffffffffffffffffffffffffffffffffffff16036109a757600080fd5b8073ffffffffffffffffffffffffffffffffffffffff16600260009054906101000a900473ffffffffffffffffffffffffffffffffffffffff1673ffffffffffffffffffffffffffffffffffffffff167f8be0079c531659141344cd1fd0a4f28419497f9722a3daafe3b4186f6b6457e060405160405180910390a380600260006101000a81548173ffffffffffffffffffffffffffffffffffffffff021916908373ffffffffffffffffffffffffffffffffffffffff16021790555050565b816007600083815260200190815260200160002060006101000a81548173ffffffffffffffffffffffffffffffffffffffff021916908373ffffffffffffffffffffffffffffffffffffffff1602179055508173ffffffffffffffffffffffffffffffffffffffff166006600083815260200190815260200160002060009054906101000a900473ffffffffffffffffffffffffffffffffffffffff1673ffffffffffffffffffffffffffffffffffffffff167f8c5be1e5ebec7d5bd14f71427d1e84f3dd0314c0f7b2291e5b200ac8c7c3b92583604051610b499190610ee2565b60405180910390a35050565b600560008373ffffffffffffffffffffffffffffffffffffffff1673ffffffffffffffffffffffffffffffffffffffff1681526020019081526020016000206000815480929190610ba59061111c565b9190505550600560008473ffffffffffffffffffffffffffffffffffffffff1673ffffffffffffffffffffffffffffffffffffffff1681526020019081526020016000206000815480929190610bfa90611164565b9190505550816006600083815260200190815260200160002060006101000a81548173ffffffffffffffffffffffffffffffffffffffff021916908373ffffffffffffffffffffffffffffffffffffffff1602179055508173ffffffffffffffffffffffffffffffffffffffff168373ffffffffffffffffffffffffffffffffffffffff167fddf252ad1be2c89b69c2b068fc378daa952ba7f163c4a11628f55a4df523b3ef83604051610cae9190610ee2565b60405180910390a3505050565b600081519050919050565b600082825260208201905092915050565b60005b83811015610cf5578082015181840152602081019050610cda565b83811115610d04576000848401525b50505050565b6000601f19601f8301169050919050565b6000610d2682610cbb565b610d308185610cc6565b9350610d40818560208601610cd7565b610d4981610d0a565b840191505092915050565b60006020820190508181036000830152610d6e8184610d1b565b905092915050565b600080fd5b600073ffffffffffffffffffffffffffffffffffffffff82169050919050565b6000610da682610d7b565b9050919050565b610db681610d9b565b8114610dc157600080fd5b50565b600081359050610dd381610dad565b92915050565b6000819050919050565b610dec81610dd9565b8114610df757600080fd5b50565b600081359050610e0981610de3565b92915050565b60008060408385031215610e2657610e25610d76565b5b6000610e3485828601610dc4565b9250506020610e4585828601610dfa565b9150509250929050565b600060208284031215610e6557610e64610d76565b5b6000610e7384828501610dc4565b91505092915050565b600060208284031215610e9257610e91610d76565b5b6000610ea084828501610dfa565b91505092915050565b610eb281610d9b565b82525050565b6000602082019050610ecd6000830184610ea9565b92915050565b610edc81610dd9565b82525050565b6000602082019050610ef76000830184610ed3565b92915050565b7f4e487b7100000000000000000000000000000000000000000000000000000000600052602260045260246000fd5b60006002820490506001821680610f4457607f821691505b602082108103610f5757610f56610efd565b5b50919050565b7f4e6f207365207075656465207472616e7366657269722061207369206d69736d60008201527f6f00000000000000000000000000000000000000000000000000000000000000602082015250565b6000610fb9602183610cc6565b9150610fc482610f5d565b604082019050919050565b60006020820190508181036000830152610fe881610fac565b9050919050565b7f536f6c6f20656c206475656e6f207075656465206c6c616d617220657374612060008201527f66756e63696f6e00000000000000000000000000000000000000000000000000602082015250565b600061104b602783610cc6565b915061105682610fef565b604082019050919050565b6000602082019050818103600083015261107a8161103e565b9050919050565b7f4164647265737320300000000000000000000000000000000000000000000000600082015250565b60006110b7600983610cc6565b91506110c282611081565b602082019050919050565b600060208201905081810360008301526110e6816110aa565b9050919050565b7f4e487b7100000000000000000000000000000000000000000000000000000000600052601160045260246000fd5b600061112782610dd9565b91507fffffffffffffffffffffffffffffffffffffffffffffffffffffffffffffffff8203611159576111586110ed565b5b600182019050919050565b600061116f82610dd9565b915060008203611182576111816110ed565b5b60018203905091905056fea264697066735822122000e7f16c8df7a59c0c417b467c7d3c4f7ad7cb4aa134c228dc0d7ec9a2ff2e5364736f6c634300080f0033",
  "immutableReferences": {},
  "source": "// SPDX-License-Identifier: GPL-3.0\r\npragma solidity >=0.6.0  <0.9.0;\r\n\r\nimport \"./ERC721.sol\";\r\nimport \"./Ownable.sol\";\r\n\r\ncontract HasbuNFT is ERC721, Ownable{\r\n    uint256 token_count=0;\r\n    string palabra;\r\n\r\n    mapping(address => uint256) private balances;\r\n    mapping(uint256 => address) private owners;\r\n\r\n    mapping(uint256 => address) private approvals; // mapping que dado un tokenID te da la address aprobada \r\n\r\n    constructor(string memory _palabra) ERC721(\"HasbuNFT\", \"HAS\") {\r\n        palabra = _palabra;\r\n    }\r\n\r\n    modifier onlyOwnerOf(uint256 tokenID){\r\n        require(owners[tokenID] == msg.sender);\r\n        _;\r\n    }\r\n\r\n    function _mint(address to) public onlyOwner{\r\n        require( to != address(0), \"Address 0\");\r\n        token_count++;\r\n        balances[to] ++;\r\n        owners[token_count] = to;\r\n\r\n        emit Transfer(address(0), to, token_count);\r\n    }\r\n    \r\n    function balanceOf(address _owner) external view override returns (uint256){\r\n        require(_owner != address(0), \"Address 0\");\r\n        return balances[_owner];\r\n    }\r\n\r\n    function ownerOf(uint256 _tokenId) external view override returns (address){\r\n        address owner = owners[_tokenId];\r\n        require(owner != address(0), \"Address 0\");\r\n        return owner;\r\n    }\r\n\r\n    function approve(address to, uint256 _tokenId)  external override{\r\n        address owner = owners[_tokenId];\r\n\r\n        require(owner != to , \"No se puede transferir a si mismo\");\r\n        require(owner == msg.sender, \"Solo el dueno puede llamar esta funcion\");\r\n\r\n        _approve(to, _tokenId);\r\n    }\r\n\r\n    function _approve(address to, uint256 _tokenId) internal {\r\n        approvals[_tokenId] = to;\r\n        emit Approval(owners[_tokenId], to, _tokenId);\r\n    }\r\n\r\n    function _transfer(address _from, address _to, uint256 _tokenId) internal {\r\n        balances[_to]++;\r\n        balances[_from]--;\r\n        owners[_tokenId] = _to;\r\n        emit Transfer(_from, _to, _tokenId);\r\n  }\r\n\r\n    function transfer(address _to, uint256 _tokenId) external onlyOwnerOf(_tokenId) override{\r\n        _transfer(owners[_tokenId], _to, _tokenId);\r\n    }\r\n\r\n    \r\n    function takeOwnership(uint256 _tokenId)  external override{\r\n        require(approvals[_tokenId] == msg.sender);\r\n        address owner = owners[_tokenId];\r\n        _transfer(owner, msg.sender, _tokenId);\r\n    }\r\n\r\n}",
  "sourcePath": "C:\\Users\\Manu\\Desktop\\tp TDL\\clonado19 1554\\tdl-solidity\\contracts\\HasbuToken.sol",
  "compiler": {
    "name": "solc",
    "version": "0.8.15+commit.e14f2714.Emscripten.clang"
  },
  "schemaVersion": "3.4.7",
  "updatedAt": "2022-07-19T19:10:17.934Z",
  "devdoc": {
    "kind": "dev",
    "methods": {
      "transferOwnership(address)": {
        "details": "Allows the current owner to transfer control of the contract to a newOwner.",
        "params": {
          "newOwner": "The address to transfer ownership to."
        }
      }
    },
    "version": 1
  },
  "userdoc": {
    "kind": "user",
    "methods": {},
    "version": 1
  }
}