{
  "contractName": "HasbuCoin",
  "abi": [
    {
      "inputs": [],
      "stateMutability": "nonpayable",
      "type": "constructor"
    },
    {
      "anonymous": false,
      "inputs": [
        {
          "indexed": true,
          "internalType": "address",
          "name": "_from",
          "type": "address"
        },
        {
          "indexed": true,
          "internalType": "address",
          "name": "_to",
          "type": "address"
        },
        {
          "indexed": false,
          "internalType": "uint256",
          "name": "_value",
          "type": "uint256"
        }
      ],
      "name": "Transfer",
      "type": "event"
    },
    {
      "inputs": [
        {
          "internalType": "address",
          "name": "receiver",
          "type": "address"
        },
        {
          "internalType": "uint256",
          "name": "amount",
          "type": "uint256"
        }
      ],
      "name": "sendHasbuCoinByAssert",
      "outputs": [
        {
          "internalType": "bool",
          "name": "sufficient",
          "type": "bool"
        }
      ],
      "stateMutability": "nonpayable",
      "type": "function"
    },
    {
      "inputs": [
        {
          "internalType": "address",
          "name": "receiver",
          "type": "address"
        },
        {
          "internalType": "uint256",
          "name": "amount",
          "type": "uint256"
        }
      ],
      "name": "quitHasbuCoinByFail",
      "outputs": [
        {
          "internalType": "bool",
          "name": "sufficient",
          "type": "bool"
        }
      ],
      "stateMutability": "nonpayable",
      "type": "function"
    },
    {
      "inputs": [
        {
          "internalType": "address",
          "name": "addr",
          "type": "address"
        }
      ],
      "name": "getBalance",
      "outputs": [
        {
          "internalType": "uint256",
          "name": "",
          "type": "uint256"
        }
      ],
      "stateMutability": "view",
      "type": "function"
    },
    {
      "inputs": [],
      "name": "test",
      "outputs": [
        {
          "internalType": "string",
          "name": "",
          "type": "string"
        }
      ],
      "stateMutability": "view",
      "type": "function"
    }
  ],
  "bytecode": "0x608060405234801561001057600080fd5b506216e3606000803273ffffffffffffffffffffffffffffffffffffffff1673ffffffffffffffffffffffffffffffffffffffff16815260200190815260200160002081905550610769806100666000396000f3fe608060405234801561001057600080fd5b506004361061004c5760003560e01c806390f09c0614610051578063d85b126c14610081578063f8a8fd6d146100b1578063f8b2cb4f146100cf575b600080fd5b61006b600480360381019061006691906104f2565b6100ff565b604051610078919061054d565b60405180910390f35b61009b600480360381019061009691906104f2565b61026a565b6040516100a8919061054d565b60405180910390f35b6100b96103d4565b6040516100c69190610601565b60405180910390f35b6100e960048036038101906100e49190610623565b610411565b6040516100f6919061065f565b60405180910390f35b6000816000803373ffffffffffffffffffffffffffffffffffffffff1673ffffffffffffffffffffffffffffffffffffffff1681526020019081526020016000205410156101505760009050610264565b816000803373ffffffffffffffffffffffffffffffffffffffff1673ffffffffffffffffffffffffffffffffffffffff168152602001908152602001600020600082825461019e91906106a9565b92505081905550816000808573ffffffffffffffffffffffffffffffffffffffff1673ffffffffffffffffffffffffffffffffffffffff16815260200190815260200160002060008282546101f391906106dd565b925050819055508273ffffffffffffffffffffffffffffffffffffffff163373ffffffffffffffffffffffffffffffffffffffff167fddf252ad1be2c89b69c2b068fc378daa952ba7f163c4a11628f55a4df523b3ef84604051610257919061065f565b60405180910390a3600190505b92915050565b6000806000808573ffffffffffffffffffffffffffffffffffffffff1673ffffffffffffffffffffffffffffffffffffffff16815260200190815260200160002054036102ba57600090506103ce565b816000808573ffffffffffffffffffffffffffffffffffffffff1673ffffffffffffffffffffffffffffffffffffffff168152602001908152602001600020600082825461030891906106a9565b92505081905550816000803373ffffffffffffffffffffffffffffffffffffffff1673ffffffffffffffffffffffffffffffffffffffff168152602001908152602001600020600082825461035d91906106dd565b925050819055508273ffffffffffffffffffffffffffffffffffffffff163373ffffffffffffffffffffffffffffffffffffffff167fddf252ad1be2c89b69c2b068fc378daa952ba7f163c4a11628f55a4df523b3ef846040516103c1919061065f565b60405180910390a3600190505b92915050565b60606040518060400160405280600981526020017f484f4c4120414e444f0000000000000000000000000000000000000000000000815250905090565b60008060008373ffffffffffffffffffffffffffffffffffffffff1673ffffffffffffffffffffffffffffffffffffffff168152602001908152602001600020549050919050565b600080fd5b600073ffffffffffffffffffffffffffffffffffffffff82169050919050565b60006104898261045e565b9050919050565b6104998161047e565b81146104a457600080fd5b50565b6000813590506104b681610490565b92915050565b6000819050919050565b6104cf816104bc565b81146104da57600080fd5b50565b6000813590506104ec816104c6565b92915050565b6000806040838503121561050957610508610459565b5b6000610517858286016104a7565b9250506020610528858286016104dd565b9150509250929050565b60008115159050919050565b61054781610532565b82525050565b6000602082019050610562600083018461053e565b92915050565b600081519050919050565b600082825260208201905092915050565b60005b838110156105a2578082015181840152602081019050610587565b838111156105b1576000848401525b50505050565b6000601f19601f8301169050919050565b60006105d382610568565b6105dd8185610573565b93506105ed818560208601610584565b6105f6816105b7565b840191505092915050565b6000602082019050818103600083015261061b81846105c8565b905092915050565b60006020828403121561063957610638610459565b5b6000610647848285016104a7565b91505092915050565b610659816104bc565b82525050565b60006020820190506106746000830184610650565b92915050565b7f4e487b7100000000000000000000000000000000000000000000000000000000600052601160045260246000fd5b60006106b4826104bc565b91506106bf836104bc565b9250828210156106d2576106d161067a565b5b828203905092915050565b60006106e8826104bc565b91506106f3836104bc565b9250827fffffffffffffffffffffffffffffffffffffffffffffffffffffffffffffffff038211156107285761072761067a565b5b82820190509291505056fea26469706673582212209d60a2de910264d042c029aec866dd3b38112641e3811ed022648bc9ab97e72264736f6c634300080f0033",
  "immutableReferences": {},
  "source": "pragma solidity ^0.8.0;\n\ncontract HasbuCoin {\n    mapping (address => uint) balances;\n\n    event Transfer(address indexed _from, address indexed _to, uint256 _value);\n\n    constructor() public {\n        balances[tx.origin] = 1500000;\n    }\n\n    function sendHasbuCoinByAssert(address receiver, uint amount) public returns(bool sufficient){\n        if (balances[msg.sender] < amount) return false;\n        balances[msg.sender] -= amount;\n        balances[receiver] += amount;\n        emit Transfer(msg.sender, receiver, amount);\n        return true;\n    }\n\n    function quitHasbuCoinByFail(address receiver, uint amount) public returns(bool sufficient){\n        if (balances[receiver] == 0) return false;\n        balances[receiver] -= amount;\n        balances[msg.sender] += amount;\n        emit Transfer(msg.sender, receiver, amount);\n        return true;\n    }\n\n    function getBalance(address addr) public view returns(uint) {\n        return balances[addr];\n    }\n\n    function test() public view returns(string memory){\n        return \"HOLA ANDO\";\n    }\n}\n",
  "sourcePath": "/home/lauti/Documentos/TDL 2022/tdl-solidity/contracts/HasbuCoin.sol",
  "compiler": {
    "name": "solc",
    "version": "0.8.15+commit.e14f2714.Emscripten.clang"
  },
  "schemaVersion": "3.4.7",
  "updatedAt": "2022-07-07T03:25:51.164Z",
  "devdoc": {
    "kind": "dev",
    "methods": {},
    "version": 1
  },
  "userdoc": {
    "kind": "user",
    "methods": {},
    "version": 1
  }
}