{
  "contractName": "HasbuCoins",
  "abi": [
    {
      "inputs": [],
      "stateMutability": "nonpayable",
      "type": "constructor"
    },
    {
      "anonymous": false,
      "inputs": [
        {
          "indexed": true,
          "internalType": "address",
          "name": "owner",
          "type": "address"
        },
        {
          "indexed": true,
          "internalType": "address",
          "name": "spender",
          "type": "address"
        },
        {
          "indexed": false,
          "internalType": "uint256",
          "name": "value",
          "type": "uint256"
        }
      ],
      "name": "Approval",
      "type": "event"
    },
    {
      "anonymous": false,
      "inputs": [
        {
          "indexed": true,
          "internalType": "address",
          "name": "from",
          "type": "address"
        },
        {
          "indexed": true,
          "internalType": "address",
          "name": "to",
          "type": "address"
        },
        {
          "indexed": false,
          "internalType": "uint256",
          "name": "value",
          "type": "uint256"
        }
      ],
      "name": "Transfer",
      "type": "event"
    },
    {
      "inputs": [
        {
          "internalType": "address",
          "name": "owner",
          "type": "address"
        },
        {
          "internalType": "address",
          "name": "spender",
          "type": "address"
        }
      ],
      "name": "allowance",
      "outputs": [
        {
          "internalType": "uint256",
          "name": "",
          "type": "uint256"
        }
      ],
      "stateMutability": "view",
      "type": "function"
    },
    {
      "inputs": [
        {
          "internalType": "address",
          "name": "spender",
          "type": "address"
        },
        {
          "internalType": "uint256",
          "name": "amount",
          "type": "uint256"
        }
      ],
      "name": "approve",
      "outputs": [
        {
          "internalType": "bool",
          "name": "",
          "type": "bool"
        }
      ],
      "stateMutability": "nonpayable",
      "type": "function"
    },
    {
      "inputs": [
        {
          "internalType": "address",
          "name": "account",
          "type": "address"
        }
      ],
      "name": "balanceOf",
      "outputs": [
        {
          "internalType": "uint256",
          "name": "",
          "type": "uint256"
        }
      ],
      "stateMutability": "view",
      "type": "function"
    },
    {
      "inputs": [],
      "name": "decimals",
      "outputs": [
        {
          "internalType": "uint8",
          "name": "",
          "type": "uint8"
        }
      ],
      "stateMutability": "view",
      "type": "function"
    },
    {
      "inputs": [
        {
          "internalType": "address",
          "name": "spender",
          "type": "address"
        },
        {
          "internalType": "uint256",
          "name": "subtractedValue",
          "type": "uint256"
        }
      ],
      "name": "decreaseAllowance",
      "outputs": [
        {
          "internalType": "bool",
          "name": "",
          "type": "bool"
        }
      ],
      "stateMutability": "nonpayable",
      "type": "function"
    },
    {
      "inputs": [
        {
          "internalType": "address",
          "name": "spender",
          "type": "address"
        },
        {
          "internalType": "uint256",
          "name": "addedValue",
          "type": "uint256"
        }
      ],
      "name": "increaseAllowance",
      "outputs": [
        {
          "internalType": "bool",
          "name": "",
          "type": "bool"
        }
      ],
      "stateMutability": "nonpayable",
      "type": "function"
    },
    {
      "inputs": [
        {
          "internalType": "address",
          "name": "",
          "type": "address"
        }
      ],
      "name": "minters",
      "outputs": [
        {
          "internalType": "bool",
          "name": "",
          "type": "bool"
        }
      ],
      "stateMutability": "view",
      "type": "function"
    },
    {
      "inputs": [],
      "name": "name",
      "outputs": [
        {
          "internalType": "string",
          "name": "",
          "type": "string"
        }
      ],
      "stateMutability": "view",
      "type": "function"
    },
    {
      "inputs": [],
      "name": "symbol",
      "outputs": [
        {
          "internalType": "string",
          "name": "",
          "type": "string"
        }
      ],
      "stateMutability": "view",
      "type": "function"
    },
    {
      "inputs": [],
      "name": "tokenOwner",
      "outputs": [
        {
          "internalType": "address",
          "name": "",
          "type": "address"
        }
      ],
      "stateMutability": "view",
      "type": "function"
    },
    {
      "inputs": [],
      "name": "totalSupply",
      "outputs": [
        {
          "internalType": "uint256",
          "name": "",
          "type": "uint256"
        }
      ],
      "stateMutability": "view",
      "type": "function"
    },
    {
      "inputs": [
        {
          "internalType": "address",
          "name": "recipient",
          "type": "address"
        },
        {
          "internalType": "uint256",
          "name": "amount",
          "type": "uint256"
        }
      ],
      "name": "transfer",
      "outputs": [
        {
          "internalType": "bool",
          "name": "",
          "type": "bool"
        }
      ],
      "stateMutability": "nonpayable",
      "type": "function"
    },
    {
      "inputs": [
        {
          "internalType": "address",
          "name": "sender",
          "type": "address"
        },
        {
          "internalType": "address",
          "name": "recipient",
          "type": "address"
        },
        {
          "internalType": "uint256",
          "name": "amount",
          "type": "uint256"
        }
      ],
      "name": "transferFrom",
      "outputs": [
        {
          "internalType": "bool",
          "name": "",
          "type": "bool"
        }
      ],
      "stateMutability": "nonpayable",
      "type": "function"
    },
    {
      "inputs": [
        {
          "internalType": "address",
          "name": "account",
          "type": "address"
        },
        {
          "internalType": "uint256",
          "name": "amount",
          "type": "uint256"
        }
      ],
      "name": "mint",
      "outputs": [],
      "stateMutability": "nonpayable",
      "type": "function"
    },
    {
      "inputs": [
        {
          "internalType": "address",
          "name": "_tokenOwner",
          "type": "address"
        }
      ],
      "name": "setTokenOwner",
      "outputs": [],
      "stateMutability": "nonpayable",
      "type": "function"
    },
    {
      "inputs": [
        {
          "internalType": "address",
          "name": "_minter",
          "type": "address"
        }
      ],
      "name": "addMinter",
      "outputs": [],
      "stateMutability": "nonpayable",
      "type": "function"
    },
    {
      "inputs": [
        {
          "internalType": "address",
          "name": "_minter",
          "type": "address"
        }
      ],
      "name": "removeMinter",
      "outputs": [],
      "stateMutability": "nonpayable",
      "type": "function"
    },
    {
      "inputs": [
        {
          "internalType": "uint256",
          "name": "amount",
          "type": "uint256"
        }
      ],
      "name": "burn",
      "outputs": [],
      "stateMutability": "nonpayable",
      "type": "function"
    }
  ],
  "bytecode": "0x60806040523480156200001157600080fd5b506040518060400160405280600a81526020017f4861736275436f696e73000000000000000000000000000000000000000000008152506040518060400160405280600381526020017f484153000000000000000000000000000000000000000000000000000000000081525060008260039081620000919190620007d6565b508160049081620000a39190620007d6565b5080600560006101000a81548160ff021916908360ff16021790555050505033600560016101000a81548173ffffffffffffffffffffffffffffffffffffffff021916908373ffffffffffffffffffffffffffffffffffffffff16021790555062000136600560019054906101000a900473ffffffffffffffffffffffffffffffffffffffff166200017a60201b60201c565b62000174600560019054906101000a900473ffffffffffffffffffffffffffffffffffffffff1669d3c21bcecceda10000006200026860201b60201c565b62000c34565b600560019054906101000a900473ffffffffffffffffffffffffffffffffffffffff1673ffffffffffffffffffffffffffffffffffffffff163373ffffffffffffffffffffffffffffffffffffffff16146200020d576040517f08c379a000000000000000000000000000000000000000000000000000000000815260040162000204906200091e565b60405180910390fd5b6001600660008373ffffffffffffffffffffffffffffffffffffffff1673ffffffffffffffffffffffffffffffffffffffff16815260200190815260200160002060006101000a81548160ff02191690831515021790555050565b600660003373ffffffffffffffffffffffffffffffffffffffff1673ffffffffffffffffffffffffffffffffffffffff16815260200190815260200160002060009054906101000a900460ff16620002f7576040517f08c379a0000000000000000000000000000000000000000000000000000000008152600401620002ee9062000990565b60405180910390fd5b6200030982826200030d60201b60201c565b5050565b600073ffffffffffffffffffffffffffffffffffffffff168273ffffffffffffffffffffffffffffffffffffffff16036200037f576040517f08c379a0000000000000000000000000000000000000000000000000000000008152600401620003769062000a28565b60405180910390fd5b6200039b81600254620004f960201b62000b3c1790919060201c565b60028190555069d3c21bcecceda10000006002541115620003f3576040517f08c379a0000000000000000000000000000000000000000000000000000000008152600401620003ea9062000ac0565b60405180910390fd5b6200044b816000808573ffffffffffffffffffffffffffffffffffffffff1673ffffffffffffffffffffffffffffffffffffffff16815260200190815260200160002054620004f960201b62000b3c1790919060201c565b6000808473ffffffffffffffffffffffffffffffffffffffff1673ffffffffffffffffffffffffffffffffffffffff168152602001908152602001600020819055508173ffffffffffffffffffffffffffffffffffffffff16600073ffffffffffffffffffffffffffffffffffffffff167fddf252ad1be2c89b69c2b068fc378daa952ba7f163c4a11628f55a4df523b3ef83604051620004ed919062000af3565b60405180910390a35050565b60008082846200050a919062000b3f565b90508381101562000552576040517f08c379a0000000000000000000000000000000000000000000000000000000008152600401620005499062000c12565b60405180910390fd5b8091505092915050565b600081519050919050565b7f4e487b7100000000000000000000000000000000000000000000000000000000600052604160045260246000fd5b7f4e487b7100000000000000000000000000000000000000000000000000000000600052602260045260246000fd5b60006002820490506001821680620005de57607f821691505b602082108103620005f457620005f362000596565b5b50919050565b60008190508160005260206000209050919050565b60006020601f8301049050919050565b600082821b905092915050565b6000600883026200065e7fffffffffffffffffffffffffffffffffffffffffffffffffffffffffffffffff826200061f565b6200066a86836200061f565b95508019841693508086168417925050509392505050565b6000819050919050565b6000819050919050565b6000620006b7620006b1620006ab8462000682565b6200068c565b62000682565b9050919050565b6000819050919050565b620006d38362000696565b620006eb620006e282620006be565b8484546200062c565b825550505050565b600090565b62000702620006f3565b6200070f818484620006c8565b505050565b5b8181101562000737576200072b600082620006f8565b60018101905062000715565b5050565b601f82111562000786576200075081620005fa565b6200075b846200060f565b810160208510156200076b578190505b620007836200077a856200060f565b83018262000714565b50505b505050565b600082821c905092915050565b6000620007ab600019846008026200078b565b1980831691505092915050565b6000620007c6838362000798565b9150826002028217905092915050565b620007e1826200055c565b67ffffffffffffffff811115620007fd57620007fc62000567565b5b620008098254620005c5565b620008168282856200073b565b600060209050601f8311600181146200084e576000841562000839578287015190505b620008458582620007b8565b865550620008b5565b601f1984166200085e86620005fa565b60005b82811015620008885784890151825560018201915060208501945060208101905062000861565b86831015620008a85784890151620008a4601f89168262000798565b8355505b6001600288020188555050505b505050505050565b600082825260208201905092915050565b7f53696e207065726d69736f7320657370656369616c6573210000000000000000600082015250565b600062000906601883620008bd565b91506200091382620008ce565b602082019050919050565b600060208201905081810360008301526200093981620008f7565b9050919050565b7f53696e207065726d69736f732100000000000000000000000000000000000000600082015250565b600062000978600d83620008bd565b9150620009858262000940565b602082019050919050565b60006020820190508181036000830152620009ab8162000969565b9050919050565b7f45524332303a206167656e74652061206c6120646972656363696f6e2063657260008201527f6f00000000000000000000000000000000000000000000000000000000000000602082015250565b600062000a10602183620008bd565b915062000a1d82620009b2565b604082019050919050565b6000602082019050818103600083015262000a438162000a01565b9050919050565b7f5f746f74616c537570706c7920706f72206578636564657220656c206c696d6960008201527f7465206d6178696d6f0000000000000000000000000000000000000000000000602082015250565b600062000aa8602983620008bd565b915062000ab58262000a4a565b604082019050919050565b6000602082019050818103600083015262000adb8162000a99565b9050919050565b62000aed8162000682565b82525050565b600060208201905062000b0a600083018462000ae2565b92915050565b7f4e487b7100000000000000000000000000000000000000000000000000000000600052601160045260246000fd5b600062000b4c8262000682565b915062000b598362000682565b9250827fffffffffffffffffffffffffffffffffffffffffffffffffffffffffffffffff0382111562000b915762000b9062000b10565b5b828201905092915050565b7f536166654d6174683a20646573626f7264616d69656e746f20656e206c61207360008201527f756d610000000000000000000000000000000000000000000000000000000000602082015250565b600062000bfa602383620008bd565b915062000c078262000b9c565b604082019050919050565b6000602082019050818103600083015262000c2d8162000beb565b9050919050565b611eab8062000c446000396000f3fe608060405234801561001057600080fd5b50600436106101165760003560e01c806342966c68116100a2578063a3e6761011610071578063a3e67610146102df578063a457c2d7146102fd578063a9059cbb1461032d578063dd62ed3e1461035d578063f46eccc41461038d57610116565b806342966c681461025957806370a082311461027557806395d89b41146102a5578063983b2d56146102c357610116565b806323b872dd116100e957806323b872dd146101a35780633092afd5146101d3578063313ce567146101ef578063395093511461020d57806340c10f191461023d57610116565b806306fdde031461011b578063095ea7b31461013957806318160ddd1461016957806318e02bd914610187575b600080fd5b6101236103bd565b6040516101309190611494565b60405180910390f35b610153600480360381019061014e919061154f565b61044f565b60405161016091906115aa565b60405180910390f35b61017161046d565b60405161017e91906115d4565b60405180910390f35b6101a1600480360381019061019c91906115ef565b610477565b005b6101bd60048036038101906101b8919061161c565b61054b565b6040516101ca91906115aa565b60405180910390f35b6101ed60048036038101906101e891906115ef565b610563565b005b6101f761064e565b604051610204919061168b565b60405180910390f35b6102276004803603810190610222919061154f565b610665565b60405161023491906115aa565b60405180910390f35b6102576004803603810190610252919061154f565b610718565b005b610273600480360381019061026e91906116a6565b6107b2565b005b61028f600480360381019061028a91906115ef565b6107bf565b60405161029c91906115d4565b60405180910390f35b6102ad610807565b6040516102ba9190611494565b60405180910390f35b6102dd60048036038101906102d891906115ef565b610899565b005b6102e7610984565b6040516102f491906116e2565b60405180910390f35b6103176004803603810190610312919061154f565b6109aa565b60405161032491906115aa565b60405180910390f35b6103476004803603810190610342919061154f565b610a77565b60405161035491906115aa565b60405180910390f35b610377600480360381019061037291906116fd565b610a95565b60405161038491906115d4565b60405180910390f35b6103a760048036038101906103a291906115ef565b610b1c565b6040516103b491906115aa565b60405180910390f35b6060600380546103cc9061176c565b80601f01602080910402602001604051908101604052809291908181526020018280546103f89061176c565b80156104455780601f1061041a57610100808354040283529160200191610445565b820191906000526020600020905b81548152906001019060200180831161042857829003601f168201915b5050505050905090565b600061046361045c610b9a565b8484610ba2565b6001905092915050565b6000600254905090565b600560019054906101000a900473ffffffffffffffffffffffffffffffffffffffff1673ffffffffffffffffffffffffffffffffffffffff163373ffffffffffffffffffffffffffffffffffffffff1614610507576040517f08c379a00000000000000000000000000000000000000000000000000000000081526004016104fe906117e9565b60405180910390fd5b80600560016101000a81548173ffffffffffffffffffffffffffffffffffffffff021916908373ffffffffffffffffffffffffffffffffffffffff16021790555050565b6000610558848484610d6b565b600190509392505050565b600560019054906101000a900473ffffffffffffffffffffffffffffffffffffffff1673ffffffffffffffffffffffffffffffffffffffff163373ffffffffffffffffffffffffffffffffffffffff16146105f3576040517f08c379a00000000000000000000000000000000000000000000000000000000081526004016105ea906117e9565b60405180910390fd5b6000600660008373ffffffffffffffffffffffffffffffffffffffff1673ffffffffffffffffffffffffffffffffffffffff16815260200190815260200160002060006101000a81548160ff02191690831515021790555050565b6000600560009054906101000a900460ff16905090565b600061070e610672610b9a565b846107098560016000610683610b9a565b73ffffffffffffffffffffffffffffffffffffffff1673ffffffffffffffffffffffffffffffffffffffff16815260200190815260200160002060008973ffffffffffffffffffffffffffffffffffffffff1673ffffffffffffffffffffffffffffffffffffffff16815260200190815260200160002054610b3c90919063ffffffff16565b610ba2565b6001905092915050565b600660003373ffffffffffffffffffffffffffffffffffffffff1673ffffffffffffffffffffffffffffffffffffffff16815260200190815260200160002060009054906101000a900460ff166107a4576040517f08c379a000000000000000000000000000000000000000000000000000000000815260040161079b90611855565b60405180910390fd5b6107ae8282610ff3565b5050565b6107bc33826111c9565b50565b60008060008373ffffffffffffffffffffffffffffffffffffffff1673ffffffffffffffffffffffffffffffffffffffff168152602001908152602001600020549050919050565b6060600480546108169061176c565b80601f01602080910402602001604051908101604052809291908181526020018280546108429061176c565b801561088f5780601f106108645761010080835404028352916020019161088f565b820191906000526020600020905b81548152906001019060200180831161087257829003601f168201915b5050505050905090565b600560019054906101000a900473ffffffffffffffffffffffffffffffffffffffff1673ffffffffffffffffffffffffffffffffffffffff163373ffffffffffffffffffffffffffffffffffffffff1614610929576040517f08c379a0000000000000000000000000000000000000000000000000000000008152600401610920906117e9565b60405180910390fd5b6001600660008373ffffffffffffffffffffffffffffffffffffffff1673ffffffffffffffffffffffffffffffffffffffff16815260200190815260200160002060006101000a81548160ff02191690831515021790555050565b600560019054906101000a900473ffffffffffffffffffffffffffffffffffffffff1681565b6000610a6d6109b7610b9a565b84610a6885604051806060016040528060368152602001611dbf60369139600160006109e1610b9a565b73ffffffffffffffffffffffffffffffffffffffff1673ffffffffffffffffffffffffffffffffffffffff16815260200190815260200160002060008a73ffffffffffffffffffffffffffffffffffffffff1673ffffffffffffffffffffffffffffffffffffffff1681526020019081526020016000205461136a9092919063ffffffff16565b610ba2565b6001905092915050565b6000610a8b610a84610b9a565b8484610d6b565b6001905092915050565b6000600160008473ffffffffffffffffffffffffffffffffffffffff1673ffffffffffffffffffffffffffffffffffffffff16815260200190815260200160002060008373ffffffffffffffffffffffffffffffffffffffff1673ffffffffffffffffffffffffffffffffffffffff16815260200190815260200160002054905092915050565b60066020528060005260406000206000915054906101000a900460ff1681565b6000808284610b4b91906118a4565b905083811015610b90576040517f08c379a0000000000000000000000000000000000000000000000000000000008152600401610b879061196c565b60405180910390fd5b8091505092915050565b600033905090565b600073ffffffffffffffffffffffffffffffffffffffff168373ffffffffffffffffffffffffffffffffffffffff1603610c11576040517f08c379a0000000000000000000000000000000000000000000000000000000008152600401610c08906119fe565b60405180910390fd5b600073ffffffffffffffffffffffffffffffffffffffff168273ffffffffffffffffffffffffffffffffffffffff1603610c80576040517f08c379a0000000000000000000000000000000000000000000000000000000008152600401610c7790611a90565b60405180910390fd5b80600160008573ffffffffffffffffffffffffffffffffffffffff1673ffffffffffffffffffffffffffffffffffffffff16815260200190815260200160002060008473ffffffffffffffffffffffffffffffffffffffff1673ffffffffffffffffffffffffffffffffffffffff168152602001908152602001600020819055508173ffffffffffffffffffffffffffffffffffffffff168373ffffffffffffffffffffffffffffffffffffffff167f8c5be1e5ebec7d5bd14f71427d1e84f3dd0314c0f7b2291e5b200ac8c7c3b92583604051610d5e91906115d4565b60405180910390a3505050565b600073ffffffffffffffffffffffffffffffffffffffff168373ffffffffffffffffffffffffffffffffffffffff1603610dda576040517f08c379a0000000000000000000000000000000000000000000000000000000008152600401610dd190611b22565b60405180910390fd5b600073ffffffffffffffffffffffffffffffffffffffff168273ffffffffffffffffffffffffffffffffffffffff1603610e49576040517f08c379a0000000000000000000000000000000000000000000000000000000008152600401610e4090611bb4565b60405180910390fd5b610eb481604051806060016040528060338152602001611e43603391396000808773ffffffffffffffffffffffffffffffffffffffff1673ffffffffffffffffffffffffffffffffffffffff1681526020019081526020016000205461136a9092919063ffffffff16565b6000808573ffffffffffffffffffffffffffffffffffffffff1673ffffffffffffffffffffffffffffffffffffffff16815260200190815260200160002081905550610f47816000808573ffffffffffffffffffffffffffffffffffffffff1673ffffffffffffffffffffffffffffffffffffffff16815260200190815260200160002054610b3c90919063ffffffff16565b6000808473ffffffffffffffffffffffffffffffffffffffff1673ffffffffffffffffffffffffffffffffffffffff168152602001908152602001600020819055508173ffffffffffffffffffffffffffffffffffffffff168373ffffffffffffffffffffffffffffffffffffffff167fddf252ad1be2c89b69c2b068fc378daa952ba7f163c4a11628f55a4df523b3ef83604051610fe691906115d4565b60405180910390a3505050565b600073ffffffffffffffffffffffffffffffffffffffff168273ffffffffffffffffffffffffffffffffffffffff1603611062576040517f08c379a000000000000000000000000000000000000000000000000000000000815260040161105990611c46565b60405180910390fd5b61107781600254610b3c90919063ffffffff16565b60028190555069d3c21bcecceda100000060025411156110cc576040517f08c379a00000000000000000000000000000000000000000000000000000000081526004016110c390611cd8565b60405180910390fd5b61111d816000808573ffffffffffffffffffffffffffffffffffffffff1673ffffffffffffffffffffffffffffffffffffffff16815260200190815260200160002054610b3c90919063ffffffff16565b6000808473ffffffffffffffffffffffffffffffffffffffff1673ffffffffffffffffffffffffffffffffffffffff168152602001908152602001600020819055508173ffffffffffffffffffffffffffffffffffffffff16600073ffffffffffffffffffffffffffffffffffffffff167fddf252ad1be2c89b69c2b068fc378daa952ba7f163c4a11628f55a4df523b3ef836040516111bd91906115d4565b60405180910390a35050565b600073ffffffffffffffffffffffffffffffffffffffff168273ffffffffffffffffffffffffffffffffffffffff1603611238576040517f08c379a000000000000000000000000000000000000000000000000000000000815260040161122f90611d6a565b60405180910390fd5b6112a3816040518060600160405280602a8152602001611e19602a91396000808673ffffffffffffffffffffffffffffffffffffffff1673ffffffffffffffffffffffffffffffffffffffff1681526020019081526020016000205461136a9092919063ffffffff16565b6000808473ffffffffffffffffffffffffffffffffffffffff1673ffffffffffffffffffffffffffffffffffffffff168152602001908152602001600020819055506112fa816002546113ce90919063ffffffff16565b600281905550600073ffffffffffffffffffffffffffffffffffffffff168273ffffffffffffffffffffffffffffffffffffffff167fddf252ad1be2c89b69c2b068fc378daa952ba7f163c4a11628f55a4df523b3ef8360405161135e91906115d4565b60405180910390a35050565b60008383111582906113b2576040517f08c379a00000000000000000000000000000000000000000000000000000000081526004016113a99190611494565b60405180910390fd5b50600083856113c19190611d8a565b9050809150509392505050565b60006113f38383604051806060016040528060248152602001611df56024913961136a565b905092915050565b600081519050919050565b600082825260208201905092915050565b60005b8381101561143557808201518184015260208101905061141a565b83811115611444576000848401525b50505050565b6000601f19601f8301169050919050565b6000611466826113fb565b6114708185611406565b9350611480818560208601611417565b6114898161144a565b840191505092915050565b600060208201905081810360008301526114ae818461145b565b905092915050565b600080fd5b600073ffffffffffffffffffffffffffffffffffffffff82169050919050565b60006114e6826114bb565b9050919050565b6114f6816114db565b811461150157600080fd5b50565b600081359050611513816114ed565b92915050565b6000819050919050565b61152c81611519565b811461153757600080fd5b50565b60008135905061154981611523565b92915050565b60008060408385031215611566576115656114b6565b5b600061157485828601611504565b92505060206115858582860161153a565b9150509250929050565b60008115159050919050565b6115a48161158f565b82525050565b60006020820190506115bf600083018461159b565b92915050565b6115ce81611519565b82525050565b60006020820190506115e960008301846115c5565b92915050565b600060208284031215611605576116046114b6565b5b600061161384828501611504565b91505092915050565b600080600060608486031215611635576116346114b6565b5b600061164386828701611504565b935050602061165486828701611504565b92505060406116658682870161153a565b9150509250925092565b600060ff82169050919050565b6116858161166f565b82525050565b60006020820190506116a0600083018461167c565b92915050565b6000602082840312156116bc576116bb6114b6565b5b60006116ca8482850161153a565b91505092915050565b6116dc816114db565b82525050565b60006020820190506116f760008301846116d3565b92915050565b60008060408385031215611714576117136114b6565b5b600061172285828601611504565b925050602061173385828601611504565b9150509250929050565b7f4e487b7100000000000000000000000000000000000000000000000000000000600052602260045260246000fd5b6000600282049050600182168061178457607f821691505b6020821081036117975761179661173d565b5b50919050565b7f53696e207065726d69736f7320657370656369616c6573210000000000000000600082015250565b60006117d3601883611406565b91506117de8261179d565b602082019050919050565b60006020820190508181036000830152611802816117c6565b9050919050565b7f53696e207065726d69736f732100000000000000000000000000000000000000600082015250565b600061183f600d83611406565b915061184a82611809565b602082019050919050565b6000602082019050818103600083015261186e81611832565b9050919050565b7f4e487b7100000000000000000000000000000000000000000000000000000000600052601160045260246000fd5b60006118af82611519565b91506118ba83611519565b9250827fffffffffffffffffffffffffffffffffffffffffffffffffffffffffffffffff038211156118ef576118ee611875565b5b828201905092915050565b7f536166654d6174683a20646573626f7264616d69656e746f20656e206c61207360008201527f756d610000000000000000000000000000000000000000000000000000000000602082015250565b6000611956602383611406565b9150611961826118fa565b604082019050919050565b6000602082019050818103600083015261198581611949565b9050919050565b7f45524332303a206170726f626172206465736465206c6120646972656363696f60008201527f6e206365726f0000000000000000000000000000000000000000000000000000602082015250565b60006119e8602683611406565b91506119f38261198c565b604082019050919050565b60006020820190508181036000830152611a17816119db565b9050919050565b7f45524332303a206170726f6261722061206c6120646972656363696f6e20636560008201527f726f000000000000000000000000000000000000000000000000000000000000602082015250565b6000611a7a602283611406565b9150611a8582611a1e565b604082019050919050565b60006020820190508181036000830152611aa981611a6d565b9050919050565b7f45524332303a207472616e73666572656e636961206465736465206c6120646960008201527f72656363696f6e206365726f0000000000000000000000000000000000000000602082015250565b6000611b0c602c83611406565b9150611b1782611ab0565b604082019050919050565b60006020820190508181036000830152611b3b81611aff565b9050919050565b7f45524332303a207472616e7366657269722061206c6120646972656363696f6e60008201527f206365726f000000000000000000000000000000000000000000000000000000602082015250565b6000611b9e602583611406565b9150611ba982611b42565b604082019050919050565b60006020820190508181036000830152611bcd81611b91565b9050919050565b7f45524332303a206167656e74652061206c6120646972656363696f6e2063657260008201527f6f00000000000000000000000000000000000000000000000000000000000000602082015250565b6000611c30602183611406565b9150611c3b82611bd4565b604082019050919050565b60006020820190508181036000830152611c5f81611c23565b9050919050565b7f5f746f74616c537570706c7920706f72206578636564657220656c206c696d6960008201527f7465206d6178696d6f0000000000000000000000000000000000000000000000602082015250565b6000611cc2602983611406565b9150611ccd82611c66565b604082019050919050565b60006020820190508181036000830152611cf181611cb5565b9050919050565b7f45524332303a207175656d6172206465736465206c6120646972656363696f6e60008201527f206365726f000000000000000000000000000000000000000000000000000000602082015250565b6000611d54602583611406565b9150611d5f82611cf8565b604082019050919050565b60006020820190508181036000830152611d8381611d47565b9050919050565b6000611d9582611519565b9150611da083611519565b925082821015611db357611db2611875565b5b82820390509291505056fe45524332303a206469736d696e7563696f6e206465206c6120617369676e6163696f6e20706f7220646562616a6f206465206365726f536166654d6174683a20646573626f7264616d69656e746f20656e206c6120726573746145524332303a206c612063616e7469646164207175656d6164612065786365646520656c2073616c646f45524332303a20656c206d6f6e746f206465206c61207472616e73666572656e6369612065786365646520656c2073616c646fa2646970667358221220c122edfe2aa99d067d309a02a080d5cf8fbba1f7782fc04f3463730cee7139e164736f6c634300080f0033",
  "immutableReferences": {},
  "source": "//SPDX-License-Identifier: MIT\r\n/*\r\n* MIT License\r\n* ===========\r\n*/\r\n\r\npragma solidity ^0.8.0;\r\n\r\ninterface IERC20 {\r\n    function totalSupply() external view returns (uint);\r\n    function balanceOf(address account) external view returns (uint);\r\n    function transfer(address recipient, uint amount) external returns (bool);\r\n    function allowance(address owner, address spender) external view returns (uint);\r\n    function approve(address spender, uint amount) external returns (bool);\r\n    function transferFrom(address sender, address recipient, uint amount) external returns (bool);\r\n    event Transfer(address indexed from, address indexed to, uint value);\r\n    event Approval(address indexed owner, address indexed spender, uint value);\r\n}\r\n\r\ncontract Context {\r\n\r\n    function _msgSender() internal view returns (address) {\r\n        return msg.sender;\r\n    }\r\n}\r\n\r\ncontract ERC20 is Context, IERC20 {\r\n    using SafeMath for uint;\r\n\r\n    mapping (address => uint) private _balances;\r\n\r\n    mapping (address => mapping (address => uint)) private _allowances;\r\n\r\n    uint private _totalSupply;\r\n    function totalSupply() public view override returns (uint) {\r\n        return _totalSupply;\r\n    }\r\n    function balanceOf(address account) public view override returns (uint) {\r\n        return _balances[account];\r\n    }\r\n    function transfer(address recipient, uint amount) public override returns (bool) {\r\n        _transfer(_msgSender(), recipient, amount);\r\n        return true;\r\n    }\r\n    function allowance(address owner, address spender) public view override returns (uint) {\r\n        return _allowances[owner][spender];\r\n    }\r\n    function approve(address spender, uint amount) public override returns (bool) {\r\n        _approve(_msgSender(), spender, amount);\r\n        return true;\r\n    }\r\n    function transferFrom(address sender, address recipient, uint amount) public override returns (bool) {\r\n        _transfer(sender, recipient, amount);\r\n        return true;\r\n    }\r\n    function increaseAllowance(address spender, uint addedValue) public returns (bool) {\r\n        _approve(_msgSender(), spender, _allowances[_msgSender()][spender].add(addedValue));\r\n        return true;\r\n    }\r\n    function decreaseAllowance(address spender, uint subtractedValue) public returns (bool) {\r\n        _approve(_msgSender(), spender, _allowances[_msgSender()][spender].sub(subtractedValue, \"ERC20: disminucion de la asignacion por debajo de cero\"));\r\n        return true;\r\n    }\r\n\r\n    function _transfer(address sender, address recipient, uint amount) internal {\r\n        require(sender != address(0), \"ERC20: transferencia desde la direccion cero\");\r\n        require(recipient != address(0), \"ERC20: transferir a la direccion cero\");\r\n\r\n        _balances[sender] = _balances[sender].sub(amount, \"ERC20: el monto de la transferencia excede el saldo\");\r\n        _balances[recipient] = _balances[recipient].add(amount);\r\n        emit Transfer(sender, recipient, amount);\r\n    }\r\n\r\n    function _mint(address account, uint amount) internal {\r\n        require(account != address(0), \"ERC20: agente a la direccion cero\");\r\n\r\n        _totalSupply = _totalSupply.add(amount);\r\n        require(_totalSupply <= 1e24, \"_totalSupply por exceder el limite maximo\");\r\n        _balances[account] = _balances[account].add(amount);\r\n        emit Transfer(address(0), account, amount);\r\n    }\r\n    \r\n    function _burn(address account, uint amount) internal {\r\n        require(account != address(0), \"ERC20: quemar desde la direccion cero\");\r\n\r\n        _balances[account] = _balances[account].sub(amount, \"ERC20: la cantidad quemada excede el saldo\");\r\n        _totalSupply = _totalSupply.sub(amount);\r\n        emit Transfer(account, address(0), amount);\r\n    }\r\n    function _approve(address owner, address spender, uint amount) internal {\r\n        require(owner != address(0), \"ERC20: aprobar desde la direccion cero\");\r\n        require(spender != address(0), \"ERC20: aprobar a la direccion cero\");\r\n\r\n        _allowances[owner][spender] = amount;\r\n        emit Approval(owner, spender, amount);\r\n    }\r\n}\r\n\r\nabstract contract ERC20Detailed is IERC20 {\r\n    string private _name;\r\n    string private _symbol;\r\n    uint8 private _decimals;\r\n\r\n    constructor (string memory name, string memory symbol, uint8 decimals) {\r\n        _name = name;\r\n        _symbol = symbol;\r\n        _decimals = decimals;\r\n    }\r\n    function name() public view returns (string memory) {\r\n        return _name;\r\n    }\r\n    function symbol() public view returns (string memory) {\r\n        return _symbol;\r\n    }\r\n    function decimals() public view returns (uint8) {\r\n        return _decimals;\r\n    }\r\n}\r\n\r\nlibrary SafeMath {\r\n    function add(uint a, uint b) internal pure returns (uint) {\r\n        uint c = a + b;\r\n        require(c >= a, \"SafeMath: desbordamiento en la suma\");\r\n\r\n        return c;\r\n    }\r\n    function sub(uint a, uint b) internal pure returns (uint) {\r\n        return sub(a, b, \"SafeMath: desbordamiento en la resta\");\r\n    }\r\n    function sub(uint a, uint b, string memory errorMessage) internal pure returns (uint) {\r\n        require(b <= a, errorMessage);\r\n        uint c = a - b;\r\n\r\n        return c;\r\n    }\r\n    function mul(uint a, uint b) internal pure returns (uint) {\r\n        if (a == 0) {\r\n            return 0;\r\n        }\r\n\r\n        uint c = a * b;\r\n        require(c / a == b, \"SafeMath: desbordamiento en el producto\");\r\n\r\n        return c;\r\n    }\r\n    function div(uint a, uint b) internal pure returns (uint) {\r\n        return div(a, b, \"SafeMath: division por cero\");\r\n    }\r\n    function div(uint a, uint b, string memory errorMessage) internal pure returns (uint) {\r\n        require(b > 0, errorMessage);\r\n        uint c = a / b;\r\n\r\n        return c;\r\n    }\r\n}\r\n\r\nlibrary Address {\r\n    function isContract(address account) internal view returns (bool) {\r\n        bytes32 codehash;\r\n        bytes32 accountHash = 0xc5d2460186f7233c927e7db2dcc703c0e500b653ca82273b7bfad8045d85a470; //keccack256 hash of empty data\r\n        assembly { codehash := extcodehash(account) }\r\n        return (codehash != 0x0 && codehash != accountHash);\r\n    }\r\n}\r\n\r\nlibrary SafeERC20 {\r\n    using SafeMath for uint;\r\n    using Address for address;\r\n\r\n    function safeTransfer(IERC20 token, address to, uint value) internal {\r\n        callOptionalReturn(token, abi.encodeWithSelector(token.transfer.selector, to, value));\r\n    }\r\n\r\n    function safeTransferFrom(IERC20 token, address from, address to, uint value) internal {\r\n        callOptionalReturn(token, abi.encodeWithSelector(token.transferFrom.selector, from, to, value));\r\n    }\r\n\r\n    function safeApprove(IERC20 token, address spender, uint value) internal {\r\n        require((value == 0) || (token.allowance(address(this), spender) == 0),\r\n            \"SafeERC20: error de aprobacion invalida\"\r\n        );\r\n        callOptionalReturn(token, abi.encodeWithSelector(token.approve.selector, spender, value));\r\n    }\r\n    function callOptionalReturn(IERC20 token, bytes memory data) private {\r\n        require(address(token).isContract(), \"SafeERC20: llamada a un contrato invalido\");\r\n        (bool success, bytes memory returndata) = address(token).call(data);\r\n        require(success, \"SafeERC20: falla en la llamada del contrato\");\r\n\r\n        if (returndata.length > 0) {\r\n            require(abi.decode(returndata, (bool)), \"SafeERC20: ERC20 la operacion no tuvo exito\");\r\n        }\r\n    }\r\n}\r\n\r\ncontract HasbuCoins is ERC20, ERC20Detailed {\r\n    using SafeERC20 for IERC20;\r\n    using Address for address;\r\n    using SafeMath for uint;\r\n\r\n\r\n    address public tokenOwner;\r\n    mapping (address => bool) public minters;\r\n\r\n    constructor () ERC20Detailed(\"HasbuCoins\", \"HAS\", 0) {\r\n        tokenOwner = msg.sender;\r\n        addMinter(tokenOwner);\r\n        mint(tokenOwner, 1e24);\r\n    }\r\n\r\n    function mint(address account, uint amount) public {\r\n        require(minters[msg.sender], \"Sin permisos!\");\r\n        _mint(account, amount);\r\n    }\r\n\r\n    function setTokenOwner(address _tokenOwner) public {\r\n        require(msg.sender == tokenOwner, \"Sin permisos especiales!\");\r\n        tokenOwner = _tokenOwner;\r\n    }\r\n\r\n    function addMinter(address _minter) public {\r\n        require(msg.sender == tokenOwner, \"Sin permisos especiales!\");\r\n        minters[_minter] = true;\r\n    }\r\n\r\n    function removeMinter(address _minter) public {\r\n        require(msg.sender == tokenOwner, \"Sin permisos especiales!\");\r\n        minters[_minter] = false;\r\n    }\r\n\r\n    function burn(uint256 amount) public {\r\n        _burn(msg.sender, amount);\r\n    }\r\n}",
  "sourcePath": "C:\\Users\\Manu\\Desktop\\tp TDL\\clonado\\tdl-solidity\\contracts\\ERC20.sol",
  "compiler": {
    "name": "solc",
    "version": "0.8.15+commit.e14f2714.Emscripten.clang"
  },
  "schemaVersion": "3.4.7",
  "updatedAt": "2022-07-15T02:03:27.079Z",
  "devdoc": {
    "kind": "dev",
    "methods": {},
    "version": 1
  },
  "userdoc": {
    "kind": "user",
    "methods": {},
    "version": 1
  }
}