{
  "contractName": "Juego",
  "abi": [
    {
      "inputs": [],
      "stateMutability": "nonpayable",
      "type": "constructor"
    },
    {
      "anonymous": false,
      "inputs": [
        {
          "indexed": false,
          "internalType": "address",
          "name": "add",
          "type": "address"
        }
      ],
      "name": "AddressWord",
      "type": "event"
    },
    {
      "anonymous": false,
      "inputs": [
        {
          "indexed": false,
          "internalType": "address",
          "name": "from",
          "type": "address"
        },
        {
          "indexed": false,
          "internalType": "address",
          "name": "to",
          "type": "address"
        },
        {
          "indexed": false,
          "internalType": "uint256",
          "name": "id",
          "type": "uint256"
        }
      ],
      "name": "NFTMinted",
      "type": "event"
    },
    {
      "anonymous": false,
      "inputs": [
        {
          "indexed": true,
          "internalType": "address",
          "name": "previousOwner",
          "type": "address"
        },
        {
          "indexed": true,
          "internalType": "address",
          "name": "newOwner",
          "type": "address"
        }
      ],
      "name": "OwnershipTransferred",
      "type": "event"
    },
    {
      "stateMutability": "payable",
      "type": "fallback",
      "payable": true
    },
    {
      "inputs": [],
      "name": "owner",
      "outputs": [
        {
          "internalType": "address",
          "name": "",
          "type": "address"
        }
      ],
      "stateMutability": "view",
      "type": "function",
      "constant": true
    },
    {
      "inputs": [
        {
          "internalType": "address",
          "name": "newOwner",
          "type": "address"
        }
      ],
      "name": "transferOwnership",
      "outputs": [],
      "stateMutability": "nonpayable",
      "type": "function"
    },
    {
      "stateMutability": "payable",
      "type": "receive",
      "payable": true
    },
    {
      "inputs": [
        {
          "internalType": "address",
          "name": "to",
          "type": "address"
        },
        {
          "internalType": "string",
          "name": "word",
          "type": "string"
        }
      ],
      "name": "mint",
      "outputs": [],
      "stateMutability": "nonpayable",
      "type": "function"
    },
    {
      "inputs": [],
      "name": "crearJugador",
      "outputs": [],
      "stateMutability": "nonpayable",
      "type": "function"
    },
    {
      "inputs": [],
      "name": "getID",
      "outputs": [
        {
          "internalType": "uint256",
          "name": "",
          "type": "uint256"
        }
      ],
      "stateMutability": "view",
      "type": "function",
      "constant": true
    },
    {
      "inputs": [
        {
          "internalType": "address",
          "name": "add",
          "type": "address"
        }
      ],
      "name": "_crearPalabra",
      "outputs": [],
      "stateMutability": "nonpayable",
      "type": "function"
    },
    {
      "inputs": [
        {
          "internalType": "string",
          "name": "str",
          "type": "string"
        }
      ],
      "name": "crearPalabra",
      "outputs": [],
      "stateMutability": "nonpayable",
      "type": "function"
    },
    {
      "inputs": [],
      "name": "elegirPalabra",
      "outputs": [
        {
          "internalType": "address",
          "name": "",
          "type": "address"
        }
      ],
      "stateMutability": "nonpayable",
      "type": "function"
    },
    {
      "inputs": [],
      "name": "ping",
      "outputs": [
        {
          "internalType": "string",
          "name": "",
          "type": "string"
        }
      ],
      "stateMutability": "pure",
      "type": "function",
      "constant": true
    }
  ],
  "bytecode": "0x60806040526000600355600160065534801561001a57600080fd5b50336000806101000a81548173ffffffffffffffffffffffffffffffffffffffff021916908373ffffffffffffffffffffffffffffffffffffffff1602179055506040516100679061010d565b604051809103906000f080158015610083573d6000803e3d6000fd5b50600460006101000a81548173ffffffffffffffffffffffffffffffffffffffff021916908373ffffffffffffffffffffffffffffffffffffffff16021790555060018060003373ffffffffffffffffffffffffffffffffffffffff1673ffffffffffffffffffffffffffffffffffffffff1681526020019081526020016000208190555061011a565b613263806121ff83390190565b6120d6806101296000396000f3fe608060405260043610620000975760003560e01c80638da5cb5b11620000615780638da5cb5b146200015d578063ab9dbd07146200018d578063d0def52114620001bd578063f2fde38b14620001eb578063fe1c25431462000219576200009f565b80630f0355da14620000a15780634baaa9aa14620000d157806351b6447f14620000ff5780635c36b186146200012d576200009f565b366200009f57005b005b348015620000ae57600080fd5b50620000b962000233565b604051620000c8919062000e81565b60405180910390f35b348015620000de57600080fd5b50620000fd6004803603810190620000f7919062000c63565b620002ca565b005b3480156200010c57600080fd5b506200012b600480360381019062000125919062000cfb565b62000407565b005b3480156200013a57600080fd5b5062000145620005af565b60405162000154919062000f0f565b60405180910390f35b3480156200016a57600080fd5b5062000175620005ec565b60405162000184919062000e81565b60405180910390f35b3480156200019a57600080fd5b50620001a562000610565b604051620001b4919062000f55565b60405180910390f35b348015620001ca57600080fd5b50620001e96004803603810190620001e3919062000c95565b620006dc565b005b348015620001f857600080fd5b5062000217600480360381019062000211919062000c63565b6200085e565b005b3480156200022657600080fd5b5062000231620009af565b005b600080600160003373ffffffffffffffffffffffffffffffffffffffff1673ffffffffffffffffffffffffffffffffffffffff168152602001908152602001600020541415620002ba576040517f08c379a0000000000000000000000000000000000000000000000000000000008152600401620002b19062000f33565b60405180910390fd5b620002c53362000a11565b905090565b60008054906101000a900473ffffffffffffffffffffffffffffffffffffffff1673ffffffffffffffffffffffffffffffffffffffff163373ffffffffffffffffffffffffffffffffffffffff16146200032357600080fd5b33600260008373ffffffffffffffffffffffffffffffffffffffff1673ffffffffffffffffffffffffffffffffffffffff16815260200190815260200160002060006101000a81548173ffffffffffffffffffffffffffffffffffffffff021916908373ffffffffffffffffffffffffffffffffffffffff1602179055506005819080600181540180825580915050600190039060005260206000200160009091909190916101000a81548173ffffffffffffffffffffffffffffffffffffffff021916908373ffffffffffffffffffffffffffffffffffffffff16021790555050565b6000600160003373ffffffffffffffffffffffffffffffffffffffff1673ffffffffffffffffffffffffffffffffffffffff1681526020019081526020016000205414156200048d576040517f08c379a0000000000000000000000000000000000000000000000000000000008152600401620004849062000f33565b60405180910390fd5b6000816040516200049e9062000ba9565b620004aa919062000f0f565b604051809103906000f080158015620004c7573d6000803e3d6000fd5b50905033600260008373ffffffffffffffffffffffffffffffffffffffff1673ffffffffffffffffffffffffffffffffffffffff16815260200190815260200160002060006101000a81548173ffffffffffffffffffffffffffffffffffffffff021916908373ffffffffffffffffffffffffffffffffffffffff1602179055506005819080600181540180825580915050600190039060005260206000200160009091909190916101000a81548173ffffffffffffffffffffffffffffffffffffffff021916908373ffffffffffffffffffffffffffffffffffffffff1602179055505050565b60606040518060400160405280600481526020017f706f6e6700000000000000000000000000000000000000000000000000000000815250905090565b60008054906101000a900473ffffffffffffffffffffffffffffffffffffffff1681565b600080600160003373ffffffffffffffffffffffffffffffffffffffff1673ffffffffffffffffffffffffffffffffffffffff16815260200190815260200160002054141562000697576040517f08c379a00000000000000000000000000000000000000000000000000000000081526004016200068e9062000f33565b60405180910390fd5b600160003373ffffffffffffffffffffffffffffffffffffffff1673ffffffffffffffffffffffffffffffffffffffff16815260200190815260200160002054905090565b6000600160003373ffffffffffffffffffffffffffffffffffffffff1673ffffffffffffffffffffffffffffffffffffffff16815260200190815260200160002054141562000762576040517f08c379a0000000000000000000000000000000000000000000000000000000008152600401620007599062000f33565b60405180910390fd5b6000600460009054906101000a900473ffffffffffffffffffffffffffffffffffffffff1673ffffffffffffffffffffffffffffffffffffffff1663d0def52184846040518363ffffffff1660e01b8152600401620007c392919062000edb565b602060405180830381600087803b158015620007de57600080fd5b505af1158015620007f3573d6000803e3d6000fd5b505050506040513d601f19601f8201168201806040525081019062000819919062000d4c565b90507f2f7377f0470ca5f5d5bcb55c33ff5e20e0a2653933e0615e99f01e81640d0a9260008483604051620008519392919062000e9e565b60405180910390a1505050565b60008054906101000a900473ffffffffffffffffffffffffffffffffffffffff1673ffffffffffffffffffffffffffffffffffffffff163373ffffffffffffffffffffffffffffffffffffffff1614620008b757600080fd5b600073ffffffffffffffffffffffffffffffffffffffff168173ffffffffffffffffffffffffffffffffffffffff161415620008f257600080fd5b8073ffffffffffffffffffffffffffffffffffffffff1660008054906101000a900473ffffffffffffffffffffffffffffffffffffffff1673ffffffffffffffffffffffffffffffffffffffff167f8be0079c531659141344cd1fd0a4f28419497f9722a3daafe3b4186f6b6457e060405160405180910390a3806000806101000a81548173ffffffffffffffffffffffffffffffffffffffff021916908373ffffffffffffffffffffffffffffffffffffffff16021790555050565b60066000815480929190620009c490620010a6565b9190505550600654600160003373ffffffffffffffffffffffffffffffffffffffff1673ffffffffffffffffffffffffffffffffffffffff16815260200190815260200160002081905550565b6000806005805490501162000a2557600080fd5b6000600580549050600354428560405160200162000a469392919062000e3e565b6040516020818303038152906040528051906020012060001c62000a6b919062001126565b90506003600081548092919062000a8290620010a6565b919050555060006005828154811062000aa05762000a9f620011bc565b5b9060005260206000200160009054906101000a900473ffffffffffffffffffffffffffffffffffffffff1690508373ffffffffffffffffffffffffffffffffffffffff16600260008373ffffffffffffffffffffffffffffffffffffffff1673ffffffffffffffffffffffffffffffffffffffff16815260200190815260200160002060009054906101000a900473ffffffffffffffffffffffffffffffffffffffff1673ffffffffffffffffffffffffffffffffffffffff16141562000b6657600080fd5b7f72decc00bf832e18e33100d9e3bffeec8d662eb855d43bcc0f42f9b72d73dac38160405162000b97919062000e81565b60405180910390a18092505050919050565b610df780620012aa83390190565b600062000bce62000bc88462000f9b565b62000f72565b90508281526020810184848401111562000bed5762000bec6200121f565b5b62000bfa8482856200102b565b509392505050565b60008135905062000c138162001275565b92915050565b600082601f83011262000c315762000c306200121a565b5b813562000c4384826020860162000bb7565b91505092915050565b60008151905062000c5d816200128f565b92915050565b60006020828403121562000c7c5762000c7b62001229565b5b600062000c8c8482850162000c02565b91505092915050565b6000806040838503121562000caf5762000cae62001229565b5b600062000cbf8582860162000c02565b925050602083013567ffffffffffffffff81111562000ce35762000ce262001224565b5b62000cf18582860162000c19565b9150509250929050565b60006020828403121562000d145762000d1362001229565b5b600082013567ffffffffffffffff81111562000d355762000d3462001224565b5b62000d438482850162000c19565b91505092915050565b60006020828403121562000d655762000d6462001229565b5b600062000d758482850162000c4c565b91505092915050565b62000d898162000fed565b82525050565b62000da462000d9e8262000fed565b620010f4565b82525050565b600062000db78262000fd1565b62000dc3818562000fdc565b935062000dd58185602086016200103a565b62000de0816200122e565b840191505092915050565b600062000dfa600b8362000fdc565b915062000e07826200124c565b602082019050919050565b62000e1d8162001021565b82525050565b62000e3862000e328262001021565b6200111c565b82525050565b600062000e4c828662000e23565b60208201915062000e5e828562000e23565b60208201915062000e70828462000d8f565b601482019150819050949350505050565b600060208201905062000e98600083018462000d7e565b92915050565b600060608201905062000eb5600083018662000d7e565b62000ec4602083018562000d7e565b62000ed3604083018462000e12565b949350505050565b600060408201905062000ef2600083018562000d7e565b818103602083015262000f06818462000daa565b90509392505050565b6000602082019050818103600083015262000f2b818462000daa565b905092915050565b6000602082019050818103600083015262000f4e8162000deb565b9050919050565b600060208201905062000f6c600083018462000e12565b92915050565b600062000f7e62000f91565b905062000f8c828262001070565b919050565b6000604051905090565b600067ffffffffffffffff82111562000fb95762000fb8620011eb565b5b62000fc4826200122e565b9050602081019050919050565b600081519050919050565b600082825260208201905092915050565b600062000ffa8262001001565b9050919050565b600073ffffffffffffffffffffffffffffffffffffffff82169050919050565b6000819050919050565b82818337600083830152505050565b60005b838110156200105a5780820151818401526020810190506200103d565b838111156200106a576000848401525b50505050565b6200107b826200122e565b810181811067ffffffffffffffff821117156200109d576200109c620011eb565b5b80604052505050565b6000620010b38262001021565b91507fffffffffffffffffffffffffffffffffffffffffffffffffffffffffffffffff821415620010e957620010e86200115e565b5b600182019050919050565b6000620011018262001108565b9050919050565b600062001115826200123f565b9050919050565b6000819050919050565b6000620011338262001021565b9150620011408362001021565b9250826200115357620011526200118d565b5b828206905092915050565b7f4e487b7100000000000000000000000000000000000000000000000000000000600052601160045260246000fd5b7f4e487b7100000000000000000000000000000000000000000000000000000000600052601260045260246000fd5b7f4e487b7100000000000000000000000000000000000000000000000000000000600052603260045260246000fd5b7f4e487b7100000000000000000000000000000000000000000000000000000000600052604160045260246000fd5b600080fd5b600080fd5b600080fd5b600080fd5b6000601f19601f8301169050919050565b60008160601b9050919050565b7f616361206d61657374726f000000000000000000000000000000000000000000600082015250565b620012808162000fed565b81146200128c57600080fd5b50565b6200129a8162001021565b8114620012a657600080fd5b5056fe60806040523480156200001157600080fd5b5060405162000df738038062000df783398181016040528101906200003791906200019c565b80600090805190602001906200004f9291906200006e565b50600080546200005f9062000282565b90506001819055505062000371565b8280546200007c9062000282565b90600052602060002090601f016020900481019282620000a05760008555620000ec565b82601f10620000bb57805160ff1916838001178555620000ec565b82800160010185558215620000ec579182015b82811115620000eb578251825591602001919060010190620000ce565b5b509050620000fb9190620000ff565b5090565b5b808211156200011a57600081600090555060010162000100565b5090565b6000620001356200012f8462000216565b620001ed565b90508281526020810184848401111562000154576200015362000351565b5b620001618482856200024c565b509392505050565b600082601f8301126200018157620001806200034c565b5b8151620001938482602086016200011e565b91505092915050565b600060208284031215620001b557620001b46200035b565b5b600082015167ffffffffffffffff811115620001d657620001d562000356565b5b620001e48482850162000169565b91505092915050565b6000620001f96200020c565b9050620002078282620002b8565b919050565b6000604051905090565b600067ffffffffffffffff8211156200023457620002336200031d565b5b6200023f8262000360565b9050602081019050919050565b60005b838110156200026c5780820151818401526020810190506200024f565b838111156200027c576000848401525b50505050565b600060028204905060018216806200029b57607f821691505b60208210811415620002b257620002b1620002ee565b5b50919050565b620002c38262000360565b810181811067ffffffffffffffff82111715620002e557620002e46200031d565b5b80604052505050565b7f4e487b7100000000000000000000000000000000000000000000000000000000600052602260045260246000fd5b7f4e487b7100000000000000000000000000000000000000000000000000000000600052604160045260246000fd5b600080fd5b600080fd5b600080fd5b600080fd5b6000601f19601f8301169050919050565b610a7680620003816000396000f3fe608060405234801561001057600080fd5b506004361061004c5760003560e01c80634a90be5714610051578063b587e20a1461006f578063b8c9e4ed1461009f578063f5db08d9146100bd575b600080fd5b6100596100ed565b6040516100669190610724565b60405180910390f35b610089600480360381019061008491906105b1565b6100f7565b60405161009691906106e7565b60405180910390f35b6100a761011f565b6040516100b49190610702565b60405180910390f35b6100d760048036038101906100d291906105b1565b6101b1565b6040516100e49190610702565b60405180910390f35b6000600154905090565b60008060405161010791906106d0565b60405180910390208280519060200120149050919050565b60606000805461012e906108b3565b80601f016020809104026020016040519081016040528092919081815260200182805461015a906108b3565b80156101a75780601f1061017c576101008083540402835291602001916101a7565b820191906000526020600020905b81548152906001019060200180831161018a57829003601f168201915b5050505050905090565b60608060008060015467ffffffffffffffff8111156101d3576101d26109ec565b5b6040519080825280601f01601f1916602001820160405280156102055781602001600182028036833780820191505090505b5090506000600190505b60015481116103e3576102ad81826000805461022a906108b3565b80601f0160208091040260200160405190810160405280929190818152602001828054610256906108b3565b80156102a35780601f10610278576101008083540402835291602001916102a3565b820191906000526020600020905b81548152906001019060200180831161028657829003601f168201915b505050505061042c565b935085805190602001208480519060200120141561032b57836000815181106102d9576102d86109bd565b5b602001015160f81c60f81b8284815181106102f7576102f66109bd565b5b60200101907effffffffffffffffffffffffffffffffffffffffffffffffffffffffffffff1916908160001a9053506103c2565b6040518060400160405280600181526020017f2d00000000000000000000000000000000000000000000000000000000000000815250600081518110610374576103736109bd565b5b602001015160f81c60f81b828481518110610392576103916109bd565b5b60200101907effffffffffffffffffffffffffffffffffffffffffffffffffffffffffffff1916908160001a9053505b82806103cd90610916565b93505080806103db90610916565b91505061020f565b5060008190507fe0946fc24725e44d3504b73816ee9a9bad8140f33101592fc0590d704d049518816040516104189190610702565b60405180910390a180945050505050919050565b606060006001858561043e9190610827565b61044891906107d1565b67ffffffffffffffff811115610461576104606109ec565b5b6040519080825280601f01601f1916602001820160405280156104935781602001600182028036833780820191505090505b50905060005b85856104a59190610827565b81116105355783600187836104ba91906107d1565b6104c49190610827565b815181106104d5576104d46109bd565b5b602001015160f81c60f81b8282815181106104f3576104f26109bd565b5b60200101907effffffffffffffffffffffffffffffffffffffffffffffffffffffffffffff1916908160001a905350808061052d90610916565b915050610499565b50809150509392505050565b600061055461054f84610764565b61073f565b9050828152602081018484840111156105705761056f610a20565b5b61057b848285610871565b509392505050565b600082601f83011261059857610597610a1b565b5b81356105a8848260208601610541565b91505092915050565b6000602082840312156105c7576105c6610a2a565b5b600082013567ffffffffffffffff8111156105e5576105e4610a25565b5b6105f184828501610583565b91505092915050565b6106038161085b565b82525050565b60008154610616816108b3565b61062081866107b5565b9450600182166000811461063b576001811461064c5761067f565b60ff1983168652818601935061067f565b61065585610795565b60005b8381101561067757815481890152600182019150602081019050610658565b838801955050505b50505092915050565b6000610693826107aa565b61069d81856107c0565b93506106ad818560208601610880565b6106b681610a2f565b840191505092915050565b6106ca81610867565b82525050565b60006106dc8284610609565b915081905092915050565b60006020820190506106fc60008301846105fa565b92915050565b6000602082019050818103600083015261071c8184610688565b905092915050565b600060208201905061073960008301846106c1565b92915050565b600061074961075a565b905061075582826108e5565b919050565b6000604051905090565b600067ffffffffffffffff82111561077f5761077e6109ec565b5b61078882610a2f565b9050602081019050919050565b60008190508160005260206000209050919050565b600081519050919050565b600081905092915050565b600082825260208201905092915050565b60006107dc82610867565b91506107e783610867565b9250827fffffffffffffffffffffffffffffffffffffffffffffffffffffffffffffffff0382111561081c5761081b61095f565b5b828201905092915050565b600061083282610867565b915061083d83610867565b9250828210156108505761084f61095f565b5b828203905092915050565b60008115159050919050565b6000819050919050565b82818337600083830152505050565b60005b8381101561089e578082015181840152602081019050610883565b838111156108ad576000848401525b50505050565b600060028204905060018216806108cb57607f821691505b602082108114156108df576108de61098e565b5b50919050565b6108ee82610a2f565b810181811067ffffffffffffffff8211171561090d5761090c6109ec565b5b80604052505050565b600061092182610867565b91507fffffffffffffffffffffffffffffffffffffffffffffffffffffffffffffffff8214156109545761095361095f565b5b600182019050919050565b7f4e487b7100000000000000000000000000000000000000000000000000000000600052601160045260246000fd5b7f4e487b7100000000000000000000000000000000000000000000000000000000600052602260045260246000fd5b7f4e487b7100000000000000000000000000000000000000000000000000000000600052603260045260246000fd5b7f4e487b7100000000000000000000000000000000000000000000000000000000600052604160045260246000fd5b600080fd5b600080fd5b600080fd5b600080fd5b6000601f19601f830116905091905056fea264697066735822122007de105ddd5bb8c4b68915f93dec8a05c9bbbda7049a4324f7d9c8144d42c8ce64736f6c63430008070033a2646970667358221220f1b5524416087c28783b23217954c63515bf36cba7aa8120d2905f50e2f06f2064736f6c63430008070033608060405260006007553480156200001657600080fd5b506040518060400160405280600881526020017f48617362754e46540000000000000000000000000000000000000000000000008152506040518060400160405280600381526020017f484153000000000000000000000000000000000000000000000000000000000081525081600090805190602001906200009b929190620002d2565b508060019080519060200190620000b4929190620002d2565b50505033600660006101000a81548173ffffffffffffffffffffffffffffffffffffffff021916908373ffffffffffffffffffffffffffffffffffffffff160217905550604051806080016040528060598152602001620031b1605991396009604051620001229062000483565b9081526020016040518091039020908051906020019062000145929190620002d2565b506040518060800160405280605981526020016200304d60599139600960405162000170906200049a565b9081526020016040518091039020908051906020019062000193929190620002d2565b50604051806080016040528060598152602001620030ff605991396009604051620001be90620004df565b90815260200160405180910390209080519060200190620001e1929190620002d2565b50604051806080016040528060598152602001620031586059913960096040516200020c90620004c8565b908152602001604051809103902090805190602001906200022f929190620002d2565b50604051806080016040528060598152602001620030a66059913960096040516200025a906200046c565b908152602001604051809103902090805190602001906200027d929190620002d2565b506040518060800160405280605981526020016200320a605991396009604051620002a890620004b1565b90815260200160405180910390209080519060200190620002cb929190620002d2565b506200065c565b828054620002e09062000501565b90600052602060002090601f01602090048101928262000304576000855562000350565b82601f106200031f57805160ff191683800117855562000350565b8280016001018555821562000350579182015b828111156200034f57825182559160200191906001019062000332565b5b5090506200035f919062000363565b5090565b5b808211156200037e57600081600090555060010162000364565b5090565b600062000391600883620004f6565b91506200039e8262000566565b600882019050919050565b6000620003b8600783620004f6565b9150620003c5826200058f565b600782019050919050565b6000620003df600683620004f6565b9150620003ec82620005b8565b600682019050919050565b600062000406600783620004f6565b91506200041382620005e1565b600782019050919050565b60006200042d600983620004f6565b91506200043a826200060a565b600982019050919050565b600062000454600483620004f6565b9150620004618262000633565b600482019050919050565b6000620004798262000382565b9150819050919050565b60006200049082620003a9565b9150819050919050565b6000620004a782620003d0565b9150819050919050565b6000620004be82620003f7565b9150819050919050565b6000620004d5826200041e565b9150819050919050565b6000620004ec8262000445565b9150819050919050565b600081905092915050565b600060028204905060018216806200051a57607f821691505b6020821081141562000531576200053062000537565b5b50919050565b7f4e487b7100000000000000000000000000000000000000000000000000000000600052602260045260246000fd5b7f6c75636861646f72000000000000000000000000000000000000000000000000600082015250565b7f6d616e6461746f00000000000000000000000000000000000000000000000000600082015250565b7f7175697a61730000000000000000000000000000000000000000000000000000600082015250565b7f666f7274756e6100000000000000000000000000000000000000000000000000600082015250565b7f6d61726176696c6c610000000000000000000000000000000000000000000000600082015250565b7f6179657200000000000000000000000000000000000000000000000000000000600082015250565b6129e1806200066c6000396000f3fe608060405234801561001057600080fd5b506004361061010b5760003560e01c80638da5cb5b116100a2578063b88d4fde11610071578063b88d4fde146102b6578063c87b56dd146102d2578063d0def52114610302578063e985e9c514610332578063f2fde38b146103625761010b565b80638da5cb5b1461024257806395d89b4114610260578063a22cb4651461027e578063ada2da511461029a5761010b565b806323b872dd116100de57806323b872dd146101aa57806342842e0e146101c65780636352211e146101e257806370a08231146102125761010b565b806301ffc9a71461011057806306fdde0314610140578063081812fc1461015e578063095ea7b31461018e575b600080fd5b61012a60048036038101906101259190611c57565b61037e565b60405161013791906120de565b60405180910390f35b610148610460565b60405161015591906120f9565b60405180910390f35b61017860048036038101906101739190611d29565b6104f2565b6040516101859190612077565b60405180910390f35b6101a860048036038101906101a39190611c17565b610538565b005b6101c460048036038101906101bf9190611aa5565b610650565b005b6101e060048036038101906101db9190611aa5565b6106b0565b005b6101fc60048036038101906101f79190611d29565b6106d0565b6040516102099190612077565b60405180910390f35b61022c60048036038101906102279190611a38565b610782565b604051610239919061229b565b60405180910390f35b61024a61083a565b6040516102579190612077565b60405180910390f35b610268610860565b60405161027591906120f9565b60405180910390f35b61029860048036038101906102939190611b7b565b6108f2565b005b6102b460048036038101906102af9190611cb1565b610908565b005b6102d060048036038101906102cb9190611af8565b610999565b005b6102ec60048036038101906102e79190611d29565b6109fb565b6040516102f991906120f9565b60405180910390f35b61031c60048036038101906103179190611bbb565b610af4565b604051610329919061229b565b60405180910390f35b61034c60048036038101906103479190611a65565b610bf4565b60405161035991906120de565b60405180910390f35b61037c60048036038101906103779190611a38565b610c88565b005b60007f80ac58cd000000000000000000000000000000000000000000000000000000007bffffffffffffffffffffffffffffffffffffffffffffffffffffffff1916827bffffffffffffffffffffffffffffffffffffffffffffffffffffffff1916148061044957507f5b5e139f000000000000000000000000000000000000000000000000000000007bffffffffffffffffffffffffffffffffffffffffffffffffffffffff1916827bffffffffffffffffffffffffffffffffffffffffffffffffffffffff1916145b80610459575061045882610ddc565b5b9050919050565b60606000805461046f906124d5565b80601f016020809104026020016040519081016040528092919081815260200182805461049b906124d5565b80156104e85780601f106104bd576101008083540402835291602001916104e8565b820191906000526020600020905b8154815290600101906020018083116104cb57829003601f168201915b5050505050905090565b60006104fd82610e46565b6004600083815260200190815260200160002060009054906101000a900473ffffffffffffffffffffffffffffffffffffffff169050919050565b6000610543826106d0565b90508073ffffffffffffffffffffffffffffffffffffffff168373ffffffffffffffffffffffffffffffffffffffff1614156105b4576040517f08c379a00000000000000000000000000000000000000000000000000000000081526004016105ab9061225b565b60405180910390fd5b8073ffffffffffffffffffffffffffffffffffffffff166105d3610e91565b73ffffffffffffffffffffffffffffffffffffffff1614806106025750610601816105fc610e91565b610bf4565b5b610641576040517f08c379a0000000000000000000000000000000000000000000000000000000008152600401610638906121db565b60405180910390fd5b61064b8383610e99565b505050565b61066161065b610e91565b82610f52565b6106a0576040517f08c379a00000000000000000000000000000000000000000000000000000000081526004016106979061227b565b60405180910390fd5b6106ab838383610fe7565b505050565b6106cb83838360405180602001604052806000815250610999565b505050565b6000806002600084815260200190815260200160002060009054906101000a900473ffffffffffffffffffffffffffffffffffffffff169050600073ffffffffffffffffffffffffffffffffffffffff168173ffffffffffffffffffffffffffffffffffffffff161415610779576040517f08c379a00000000000000000000000000000000000000000000000000000000081526004016107709061223b565b60405180910390fd5b80915050919050565b60008073ffffffffffffffffffffffffffffffffffffffff168273ffffffffffffffffffffffffffffffffffffffff1614156107f3576040517f08c379a00000000000000000000000000000000000000000000000000000000081526004016107ea906121bb565b60405180910390fd5b600360008373ffffffffffffffffffffffffffffffffffffffff1673ffffffffffffffffffffffffffffffffffffffff168152602001908152602001600020549050919050565b600660009054906101000a900473ffffffffffffffffffffffffffffffffffffffff1681565b60606001805461086f906124d5565b80601f016020809104026020016040519081016040528092919081815260200182805461089b906124d5565b80156108e85780601f106108bd576101008083540402835291602001916108e8565b820191906000526020600020905b8154815290600101906020018083116108cb57829003601f168201915b5050505050905090565b6109046108fd610e91565b8383611279565b5050565b600660009054906101000a900473ffffffffffffffffffffffffffffffffffffffff1673ffffffffffffffffffffffffffffffffffffffff163373ffffffffffffffffffffffffffffffffffffffff161461096257600080fd5b806009836040516109739190612049565b9081526020016040518091039020908051906020019061099492919061184c565b505050565b6109aa6109a4610e91565b83610f52565b6109e9576040517f08c379a00000000000000000000000000000000000000000000000000000000081526004016109e09061227b565b60405180910390fd5b6109f5848484846113e6565b50505050565b6060610a0682611442565b610a45576040517f08c379a0000000000000000000000000000000000000000000000000000000008152600401610a3c9061221b565b60405180910390fd5b60096008604051610a569190612060565b90815260200160405180910390208054610a6f906124d5565b80601f0160208091040260200160405190810160405280929190818152602001828054610a9b906124d5565b8015610ae85780601f10610abd57610100808354040283529160200191610ae8565b820191906000526020600020905b815481529060010190602001808311610acb57829003601f168201915b50505050509050919050565b6000600660009054906101000a900473ffffffffffffffffffffffffffffffffffffffff1673ffffffffffffffffffffffffffffffffffffffff163373ffffffffffffffffffffffffffffffffffffffff1614610b5057600080fd5b60076000815480929190610b6390612538565b9190505550610b74836007546114ae565b8160089080519060200190610b8a92919061184c565b506007548373ffffffffffffffffffffffffffffffffffffffff16600073ffffffffffffffffffffffffffffffffffffffff167fddf252ad1be2c89b69c2b068fc378daa952ba7f163c4a11628f55a4df523b3ef60405160405180910390a4600754905092915050565b6000600560008473ffffffffffffffffffffffffffffffffffffffff1673ffffffffffffffffffffffffffffffffffffffff16815260200190815260200160002060008373ffffffffffffffffffffffffffffffffffffffff1673ffffffffffffffffffffffffffffffffffffffff16815260200190815260200160002060009054906101000a900460ff16905092915050565b600660009054906101000a900473ffffffffffffffffffffffffffffffffffffffff1673ffffffffffffffffffffffffffffffffffffffff163373ffffffffffffffffffffffffffffffffffffffff1614610ce257600080fd5b600073ffffffffffffffffffffffffffffffffffffffff168173ffffffffffffffffffffffffffffffffffffffff161415610d1c57600080fd5b8073ffffffffffffffffffffffffffffffffffffffff16600660009054906101000a900473ffffffffffffffffffffffffffffffffffffffff1673ffffffffffffffffffffffffffffffffffffffff167f8be0079c531659141344cd1fd0a4f28419497f9722a3daafe3b4186f6b6457e060405160405180910390a380600660006101000a81548173ffffffffffffffffffffffffffffffffffffffff021916908373ffffffffffffffffffffffffffffffffffffffff16021790555050565b60007f01ffc9a7000000000000000000000000000000000000000000000000000000007bffffffffffffffffffffffffffffffffffffffffffffffffffffffff1916827bffffffffffffffffffffffffffffffffffffffffffffffffffffffff1916149050919050565b610e4f81611442565b610e8e576040517f08c379a0000000000000000000000000000000000000000000000000000000008152600401610e859061223b565b60405180910390fd5b50565b600033905090565b816004600083815260200190815260200160002060006101000a81548173ffffffffffffffffffffffffffffffffffffffff021916908373ffffffffffffffffffffffffffffffffffffffff160217905550808273ffffffffffffffffffffffffffffffffffffffff16610f0c836106d0565b73ffffffffffffffffffffffffffffffffffffffff167f8c5be1e5ebec7d5bd14f71427d1e84f3dd0314c0f7b2291e5b200ac8c7c3b92560405160405180910390a45050565b600080610f5e836106d0565b90508073ffffffffffffffffffffffffffffffffffffffff168473ffffffffffffffffffffffffffffffffffffffff161480610fa05750610f9f8185610bf4565b5b80610fde57508373ffffffffffffffffffffffffffffffffffffffff16610fc6846104f2565b73ffffffffffffffffffffffffffffffffffffffff16145b91505092915050565b8273ffffffffffffffffffffffffffffffffffffffff16611007826106d0565b73ffffffffffffffffffffffffffffffffffffffff161461105d576040517f08c379a00000000000000000000000000000000000000000000000000000000081526004016110549061213b565b60405180910390fd5b600073ffffffffffffffffffffffffffffffffffffffff168273ffffffffffffffffffffffffffffffffffffffff1614156110cd576040517f08c379a00000000000000000000000000000000000000000000000000000000081526004016110c49061217b565b60405180910390fd5b6110d8838383611688565b6004600082815260200190815260200160002060006101000a81549073ffffffffffffffffffffffffffffffffffffffff02191690556001600360008573ffffffffffffffffffffffffffffffffffffffff1673ffffffffffffffffffffffffffffffffffffffff168152602001908152602001600020600082825461115e91906123eb565b925050819055506001600360008473ffffffffffffffffffffffffffffffffffffffff1673ffffffffffffffffffffffffffffffffffffffff16815260200190815260200160002060008282546111b59190612395565b92505081905550816002600083815260200190815260200160002060006101000a81548173ffffffffffffffffffffffffffffffffffffffff021916908373ffffffffffffffffffffffffffffffffffffffff160217905550808273ffffffffffffffffffffffffffffffffffffffff168473ffffffffffffffffffffffffffffffffffffffff167fddf252ad1be2c89b69c2b068fc378daa952ba7f163c4a11628f55a4df523b3ef60405160405180910390a461127483838361168d565b505050565b8173ffffffffffffffffffffffffffffffffffffffff168373ffffffffffffffffffffffffffffffffffffffff1614156112e8576040517f08c379a00000000000000000000000000000000000000000000000000000000081526004016112df9061219b565b60405180910390fd5b80600560008573ffffffffffffffffffffffffffffffffffffffff1673ffffffffffffffffffffffffffffffffffffffff16815260200190815260200160002060008473ffffffffffffffffffffffffffffffffffffffff1673ffffffffffffffffffffffffffffffffffffffff16815260200190815260200160002060006101000a81548160ff0219169083151502179055508173ffffffffffffffffffffffffffffffffffffffff168373ffffffffffffffffffffffffffffffffffffffff167f17307eab39ab6107e8899845ad3d59bd9653f200f220920489ca2b5937696c31836040516113d991906120de565b60405180910390a3505050565b6113f1848484610fe7565b6113fd84848484611692565b61143c576040517f08c379a00000000000000000000000000000000000000000000000000000000081526004016114339061211b565b60405180910390fd5b50505050565b60008073ffffffffffffffffffffffffffffffffffffffff166002600084815260200190815260200160002060009054906101000a900473ffffffffffffffffffffffffffffffffffffffff1673ffffffffffffffffffffffffffffffffffffffff1614159050919050565b600073ffffffffffffffffffffffffffffffffffffffff168273ffffffffffffffffffffffffffffffffffffffff16141561151e576040517f08c379a0000000000000000000000000000000000000000000000000000000008152600401611515906121fb565b60405180910390fd5b61152781611442565b15611567576040517f08c379a000000000000000000000000000000000000000000000000000000000815260040161155e9061215b565b60405180910390fd5b61157360008383611688565b6001600360008473ffffffffffffffffffffffffffffffffffffffff1673ffffffffffffffffffffffffffffffffffffffff16815260200190815260200160002060008282546115c39190612395565b92505081905550816002600083815260200190815260200160002060006101000a81548173ffffffffffffffffffffffffffffffffffffffff021916908373ffffffffffffffffffffffffffffffffffffffff160217905550808273ffffffffffffffffffffffffffffffffffffffff16600073ffffffffffffffffffffffffffffffffffffffff167fddf252ad1be2c89b69c2b068fc378daa952ba7f163c4a11628f55a4df523b3ef60405160405180910390a46116846000838361168d565b5050565b505050565b505050565b60006116b38473ffffffffffffffffffffffffffffffffffffffff16611829565b1561181c578373ffffffffffffffffffffffffffffffffffffffff1663150b7a026116dc610e91565b8786866040518563ffffffff1660e01b81526004016116fe9493929190612092565b602060405180830381600087803b15801561171857600080fd5b505af192505050801561174957506040513d601f19601f820116820180604052508101906117469190611c84565b60015b6117cc573d8060008114611779576040519150601f19603f3d011682016040523d82523d6000602084013e61177e565b606091505b506000815114156117c4576040517f08c379a00000000000000000000000000000000000000000000000000000000081526004016117bb9061211b565b60405180910390fd5b805181602001fd5b63150b7a0260e01b7bffffffffffffffffffffffffffffffffffffffffffffffffffffffff1916817bffffffffffffffffffffffffffffffffffffffffffffffffffffffff191614915050611821565b600190505b949350505050565b6000808273ffffffffffffffffffffffffffffffffffffffff163b119050919050565b828054611858906124d5565b90600052602060002090601f01602090048101928261187a57600085556118c1565b82601f1061189357805160ff19168380011785556118c1565b828001600101855582156118c1579182015b828111156118c05782518255916020019190600101906118a5565b5b5090506118ce91906118d2565b5090565b5b808211156118eb5760008160009055506001016118d3565b5090565b60006119026118fd846122db565b6122b6565b90508281526020810184848401111561191e5761191d612613565b5b611929848285612493565b509392505050565b600061194461193f8461230c565b6122b6565b9050828152602081018484840111156119605761195f612613565b5b61196b848285612493565b509392505050565b6000813590506119828161294f565b92915050565b60008135905061199781612966565b92915050565b6000813590506119ac8161297d565b92915050565b6000815190506119c18161297d565b92915050565b600082601f8301126119dc576119db61260e565b5b81356119ec8482602086016118ef565b91505092915050565b600082601f830112611a0a57611a0961260e565b5b8135611a1a848260208601611931565b91505092915050565b600081359050611a3281612994565b92915050565b600060208284031215611a4e57611a4d61261d565b5b6000611a5c84828501611973565b91505092915050565b60008060408385031215611a7c57611a7b61261d565b5b6000611a8a85828601611973565b9250506020611a9b85828601611973565b9150509250929050565b600080600060608486031215611abe57611abd61261d565b5b6000611acc86828701611973565b9350506020611add86828701611973565b9250506040611aee86828701611a23565b9150509250925092565b60008060008060808587031215611b1257611b1161261d565b5b6000611b2087828801611973565b9450506020611b3187828801611973565b9350506040611b4287828801611a23565b925050606085013567ffffffffffffffff811115611b6357611b62612618565b5b611b6f878288016119c7565b91505092959194509250565b60008060408385031215611b9257611b9161261d565b5b6000611ba085828601611973565b9250506020611bb185828601611988565b9150509250929050565b60008060408385031215611bd257611bd161261d565b5b6000611be085828601611973565b925050602083013567ffffffffffffffff811115611c0157611c00612618565b5b611c0d858286016119f5565b9150509250929050565b60008060408385031215611c2e57611c2d61261d565b5b6000611c3c85828601611973565b9250506020611c4d85828601611a23565b9150509250929050565b600060208284031215611c6d57611c6c61261d565b5b6000611c7b8482850161199d565b91505092915050565b600060208284031215611c9a57611c9961261d565b5b6000611ca8848285016119b2565b91505092915050565b60008060408385031215611cc857611cc761261d565b5b600083013567ffffffffffffffff811115611ce657611ce5612618565b5b611cf2858286016119f5565b925050602083013567ffffffffffffffff811115611d1357611d12612618565b5b611d1f858286016119f5565b9150509250929050565b600060208284031215611d3f57611d3e61261d565b5b6000611d4d84828501611a23565b91505092915050565b611d5f8161241f565b82525050565b611d6e81612431565b82525050565b6000611d7f82612352565b611d898185612368565b9350611d998185602086016124a2565b611da281612622565b840191505092915050565b6000611db88261235d565b611dc28185612379565b9350611dd28185602086016124a2565b611ddb81612622565b840191505092915050565b6000611df18261235d565b611dfb818561238a565b9350611e0b8185602086016124a2565b80840191505092915050565b60008154611e24816124d5565b611e2e818661238a565b94506001821660008114611e495760018114611e5a57611e8d565b60ff19831686528186019350611e8d565b611e638561233d565b60005b83811015611e8557815481890152600182019150602081019050611e66565b838801955050505b50505092915050565b6000611ea3603283612379565b9150611eae82612633565b604082019050919050565b6000611ec6602583612379565b9150611ed182612682565b604082019050919050565b6000611ee9601c83612379565b9150611ef4826126d1565b602082019050919050565b6000611f0c602483612379565b9150611f17826126fa565b604082019050919050565b6000611f2f601983612379565b9150611f3a82612749565b602082019050919050565b6000611f52602983612379565b9150611f5d82612772565b604082019050919050565b6000611f75603e83612379565b9150611f80826127c1565b604082019050919050565b6000611f98602083612379565b9150611fa382612810565b602082019050919050565b6000611fbb602f83612379565b9150611fc682612839565b604082019050919050565b6000611fde601883612379565b9150611fe982612888565b602082019050919050565b6000612001602183612379565b915061200c826128b1565b604082019050919050565b6000612024602e83612379565b915061202f82612900565b604082019050919050565b61204381612489565b82525050565b60006120558284611de6565b915081905092915050565b600061206c8284611e17565b915081905092915050565b600060208201905061208c6000830184611d56565b92915050565b60006080820190506120a76000830187611d56565b6120b46020830186611d56565b6120c1604083018561203a565b81810360608301526120d38184611d74565b905095945050505050565b60006020820190506120f36000830184611d65565b92915050565b600060208201905081810360008301526121138184611dad565b905092915050565b6000602082019050818103600083015261213481611e96565b9050919050565b6000602082019050818103600083015261215481611eb9565b9050919050565b6000602082019050818103600083015261217481611edc565b9050919050565b6000602082019050818103600083015261219481611eff565b9050919050565b600060208201905081810360008301526121b481611f22565b9050919050565b600060208201905081810360008301526121d481611f45565b9050919050565b600060208201905081810360008301526121f481611f68565b9050919050565b6000602082019050818103600083015261221481611f8b565b9050919050565b6000602082019050818103600083015261223481611fae565b9050919050565b6000602082019050818103600083015261225481611fd1565b9050919050565b6000602082019050818103600083015261227481611ff4565b9050919050565b6000602082019050818103600083015261229481612017565b9050919050565b60006020820190506122b0600083018461203a565b92915050565b60006122c06122d1565b90506122cc8282612507565b919050565b6000604051905090565b600067ffffffffffffffff8211156122f6576122f56125df565b5b6122ff82612622565b9050602081019050919050565b600067ffffffffffffffff821115612327576123266125df565b5b61233082612622565b9050602081019050919050565b60008190508160005260206000209050919050565b600081519050919050565b600081519050919050565b600082825260208201905092915050565b600082825260208201905092915050565b600081905092915050565b60006123a082612489565b91506123ab83612489565b9250827fffffffffffffffffffffffffffffffffffffffffffffffffffffffffffffffff038211156123e0576123df612581565b5b828201905092915050565b60006123f682612489565b915061240183612489565b92508282101561241457612413612581565b5b828203905092915050565b600061242a82612469565b9050919050565b60008115159050919050565b60007fffffffff0000000000000000000000000000000000000000000000000000000082169050919050565b600073ffffffffffffffffffffffffffffffffffffffff82169050919050565b6000819050919050565b82818337600083830152505050565b60005b838110156124c05780820151818401526020810190506124a5565b838111156124cf576000848401525b50505050565b600060028204905060018216806124ed57607f821691505b60208210811415612501576125006125b0565b5b50919050565b61251082612622565b810181811067ffffffffffffffff8211171561252f5761252e6125df565b5b80604052505050565b600061254382612489565b91507fffffffffffffffffffffffffffffffffffffffffffffffffffffffffffffffff82141561257657612575612581565b5b600182019050919050565b7f4e487b7100000000000000000000000000000000000000000000000000000000600052601160045260246000fd5b7f4e487b7100000000000000000000000000000000000000000000000000000000600052602260045260246000fd5b7f4e487b7100000000000000000000000000000000000000000000000000000000600052604160045260246000fd5b600080fd5b600080fd5b600080fd5b600080fd5b6000601f19601f8301169050919050565b7f4552433732313a207472616e7366657220746f206e6f6e20455243373231526560008201527f63656976657220696d706c656d656e7465720000000000000000000000000000602082015250565b7f4552433732313a207472616e736665722066726f6d20696e636f72726563742060008201527f6f776e6572000000000000000000000000000000000000000000000000000000602082015250565b7f4552433732313a20746f6b656e20616c7265616479206d696e74656400000000600082015250565b7f4552433732313a207472616e7366657220746f20746865207a65726f2061646460008201527f7265737300000000000000000000000000000000000000000000000000000000602082015250565b7f4552433732313a20617070726f766520746f2063616c6c657200000000000000600082015250565b7f4552433732313a2061646472657373207a65726f206973206e6f74206120766160008201527f6c6964206f776e65720000000000000000000000000000000000000000000000602082015250565b7f4552433732313a20617070726f76652063616c6c6572206973206e6f7420746f60008201527f6b656e206f776e6572206e6f7220617070726f76656420666f7220616c6c0000602082015250565b7f4552433732313a206d696e7420746f20746865207a65726f2061646472657373600082015250565b7f4552433732314d657461646174613a2055524920717565727920666f72206e6f60008201527f6e6578697374656e7420746f6b656e0000000000000000000000000000000000602082015250565b7f4552433732313a20696e76616c696420746f6b656e2049440000000000000000600082015250565b7f4552433732313a20617070726f76616c20746f2063757272656e74206f776e6560008201527f7200000000000000000000000000000000000000000000000000000000000000602082015250565b7f4552433732313a2063616c6c6572206973206e6f7420746f6b656e206f776e6560008201527f72206e6f7220617070726f766564000000000000000000000000000000000000602082015250565b6129588161241f565b811461296357600080fd5b50565b61296f81612431565b811461297a57600080fd5b50565b6129868161243d565b811461299157600080fd5b50565b61299d81612489565b81146129a857600080fd5b5056fea2646970667358221220b81ab68f124b6f2f7c58b7d85e6c84c1a0ff73ba5003013c5bdfe251ed1a94a064736f6c6343000807003368747470733a2f2f6261666b7265696632626f79686c6d693532716a6669666b746a767374327a666364736f35327437743234696479676b6934667a3274776a7869712e697066732e6e667473746f726167652e6c696e6b2f68747470733a2f2f6261666b72656965656868766875766b6c756b6666796879687273793735326778766b78756876636b72746a757577376a69683275703335376e692e697066732e6e667473746f726167652e6c696e6b2f68747470733a2f2f6261666b726569617277346d6f6d36326f66366a79647661626368333463677675363570356c6234736b7466726e72376474793535683571336e652e697066732e6e667473746f726167652e6c696e6b2f68747470733a2f2f6261666b72656965746e74333634726b766c6271337264646e72653235687a687a6c6d7063656f6975366b36337a756a6e7136766d79786c6473342e697066732e6e667473746f726167652e6c696e6b2f68747470733a2f2f6261666b7265696161776e6a6c626f743573336a69766d6c79687070786a6565666c6c74346676356163636c736b6e6b6c6e6d78617a37696c73712e697066732e6e667473746f726167652e6c696e6b2f68747470733a2f2f6261666b72656967346e35737237706c676966347261636f61736e33336a3768676f6a686437346133626d36636b6f636f32786c6b6d63697061612e697066732e6e667473746f726167652e6c696e6b2f",
  "immutableReferences": {},
  "source": "import \"./Word.sol\";\r\nimport \"./Ownable.sol\";\r\nimport \"./HasbuToken.sol\";\r\n\r\n// SPDX-License-Identifier: GPL-3.0\r\npragma solidity >=0.6.0  <0.9.0;\r\n\r\n// solo lo puede llamar jugador\r\n\r\n\r\ncontract Juego is Ownable{\r\n    mapping(address => uint) idByAddress;\r\n    mapping(address => address) wordOwner;\r\n    uint256 randNonce = 0;\r\n\r\n    HasbuToken NFT;\r\n    address[] private words;\r\n    uint256 private idCount = 1; // ID 1 sera el id del juego, para las palabras creadas por el mismo juego\r\n    \r\n     modifier onlyJugador(){\r\n        require(idByAddress[msg.sender] != 0, \"aca maestro\");\r\n        _;\r\n    }\r\n\r\n    event AddressWord(address add);\r\n    event NFTMinted(address from, address to, uint256 id);\r\n\r\n\r\n    constructor() {\r\n        NFT = new HasbuToken();\r\n        idByAddress[msg.sender] = 1;\r\n    }\r\n\r\n    function mint(address to, string memory word) public onlyJugador{\r\n        uint256 id = NFT.mint(to, word);\r\n        emit NFTMinted(address(0), to, id);\r\n    }\r\n\r\n   function crearJugador() public{\r\n       idCount++;\r\n       idByAddress[msg.sender] = idCount;\r\n   }\r\n\r\n   function getID() public view onlyJugador returns(uint){\r\n        return idByAddress[msg.sender];\r\n   }\r\n\r\n   function _crearPalabra(address add) public onlyOwner{\r\n    wordOwner[add] = msg.sender;\r\n    words.push(add);\r\n   }\r\n\r\n    function crearPalabra(string memory str) public onlyJugador{\r\n        // Modificador: solo id jugador puede llamar a esto\r\n        Word word = new Word(str);\r\n        wordOwner[address(word)] = msg.sender;\r\n        words.push(address(word));\r\n    }\r\n\r\n\r\n    function _elegirPalabra(address sender) private returns(address){\r\n        require(words.length > 0); // Nos fijamos que haya alguna palabra antes\r\n        uint indice = uint(keccak256(abi.encodePacked(randNonce, block.timestamp, sender))) %  words.length ;\r\n        randNonce++;\r\n        address addWord = words[indice];\r\n        require(wordOwner[addWord] != sender); // me fijo que la palabra asignada no sea creada por el jugador\r\n        emit AddressWord(addWord);\r\n        return addWord;\r\n    }\r\n\r\n    function elegirPalabra() public onlyJugador returns(address){\r\n        return _elegirPalabra(msg.sender);\r\n    }\r\n\r\n    function ping() public pure returns (string memory){\r\n        return \"pong\";\r\n    }\r\n\r\n    fallback() external payable{}\r\n    receive() external payable{}\r\n    \r\n}",
  "sourcePath": "C:\\Users\\Manu\\Desktop\\tp TDL\\clonado19 1554\\tdl-solidity\\contracts\\Juego.sol",
  "compiler": {
    "name": "solc",
    "version": "0.8.7+commit.e28d00a7.Emscripten.clang"
  },
  "schemaVersion": "3.4.7",
  "updatedAt": "2022-07-20T18:57:18.778Z",
  "networkType": "ethereum",
  "devdoc": {
    "kind": "dev",
    "methods": {
      "transferOwnership(address)": {
        "details": "Allows the current owner to transfer control of the contract to a newOwner.",
        "params": {
          "newOwner": "The address to transfer ownership to."
        }
      }
    },
    "version": 1
  },
  "userdoc": {
    "kind": "user",
    "methods": {},
    "version": 1
  }
}