{
  "contractName": "Juego",
  "abi": [
    {
      "inputs": [],
      "stateMutability": "nonpayable",
      "type": "constructor"
    },
    {
      "anonymous": false,
      "inputs": [
        {
          "indexed": false,
          "internalType": "address",
          "name": "add",
          "type": "address"
        }
      ],
      "name": "AddressWord",
      "type": "event"
    },
    {
      "anonymous": false,
      "inputs": [
        {
          "indexed": false,
          "internalType": "address",
          "name": "from",
          "type": "address"
        },
        {
          "indexed": false,
          "internalType": "address",
          "name": "to",
          "type": "address"
        },
        {
          "indexed": false,
          "internalType": "uint256",
          "name": "id",
          "type": "uint256"
        }
      ],
      "name": "NFTMinted",
      "type": "event"
    },
    {
      "anonymous": false,
      "inputs": [
        {
          "indexed": true,
          "internalType": "address",
          "name": "previousOwner",
          "type": "address"
        },
        {
          "indexed": true,
          "internalType": "address",
          "name": "newOwner",
          "type": "address"
        }
      ],
      "name": "OwnershipTransferred",
      "type": "event"
    },
    {
      "stateMutability": "payable",
      "type": "fallback",
      "payable": true
    },
    {
      "inputs": [],
      "name": "owner",
      "outputs": [
        {
          "internalType": "address",
          "name": "",
          "type": "address"
        }
      ],
      "stateMutability": "view",
      "type": "function",
      "constant": true
    },
    {
      "inputs": [
        {
          "internalType": "address",
          "name": "newOwner",
          "type": "address"
        }
      ],
      "name": "transferOwnership",
      "outputs": [],
      "stateMutability": "nonpayable",
      "type": "function"
    },
    {
      "stateMutability": "payable",
      "type": "receive",
      "payable": true
    },
    {
      "inputs": [
        {
          "internalType": "address",
          "name": "to",
          "type": "address"
        }
      ],
      "name": "mint",
      "outputs": [],
      "stateMutability": "nonpayable",
      "type": "function"
    },
    {
      "inputs": [],
      "name": "crearJugador",
      "outputs": [],
      "stateMutability": "nonpayable",
      "type": "function"
    },
    {
      "inputs": [],
      "name": "getID",
      "outputs": [
        {
          "internalType": "uint256",
          "name": "",
          "type": "uint256"
        }
      ],
      "stateMutability": "view",
      "type": "function",
      "constant": true
    },
    {
      "inputs": [
        {
          "internalType": "address",
          "name": "add",
          "type": "address"
        }
      ],
      "name": "_crearPalabra",
      "outputs": [],
      "stateMutability": "nonpayable",
      "type": "function"
    },
    {
      "inputs": [
        {
          "internalType": "string",
          "name": "str",
          "type": "string"
        }
      ],
      "name": "crearPalabra",
      "outputs": [],
      "stateMutability": "nonpayable",
      "type": "function"
    },
    {
      "inputs": [],
      "name": "elegirPalabra",
      "outputs": [
        {
          "internalType": "address",
          "name": "",
          "type": "address"
        }
      ],
      "stateMutability": "nonpayable",
      "type": "function"
    },
    {
      "inputs": [],
      "name": "ping",
      "outputs": [
        {
          "internalType": "string",
          "name": "",
          "type": "string"
        }
      ],
      "stateMutability": "pure",
      "type": "function",
      "constant": true
    }
  ],
  "bytecode": "0x60806040526000600355600160065534801561001a57600080fd5b50336000806101000a81548173ffffffffffffffffffffffffffffffffffffffff021916908373ffffffffffffffffffffffffffffffffffffffff1602179055506040516100679061010d565b604051809103906000f080158015610083573d6000803e3d6000fd5b50600460006101000a81548173ffffffffffffffffffffffffffffffffffffffff021916908373ffffffffffffffffffffffffffffffffffffffff16021790555060018060003373ffffffffffffffffffffffffffffffffffffffff1673ffffffffffffffffffffffffffffffffffffffff1681526020019081526020016000208190555061011a565b6116418061236283390190565b612239806101296000396000f3fe608060405260043610620000975760003560e01c80636a62784211620000615780636a627842146200015d5780638da5cb5b146200018b578063ab9dbd0714620001bb578063f2fde38b14620001eb578063fe1c25431462000219576200009f565b80630f0355da14620000a15780634baaa9aa14620000d157806351b6447f14620000ff5780635c36b186146200012d576200009f565b366200009f57005b005b348015620000ae57600080fd5b50620000b962000233565b604051620000c8919062000be3565b60405180910390f35b348015620000de57600080fd5b50620000fd6004803603810190620000f7919062000c45565b620002c9565b005b3480156200010c57600080fd5b506200012b600480360381019062000125919062000dd9565b62000406565b005b3480156200013a57600080fd5b5062000145620005ad565b60405162000154919062000ebd565b60405180910390f35b3480156200016a57600080fd5b5062000189600480360381019062000183919062000c45565b620005ea565b005b3480156200019857600080fd5b50620001a362000758565b604051620001b2919062000be3565b60405180910390f35b348015620001c857600080fd5b50620001d36200077c565b604051620001e2919062000efc565b60405180910390f35b348015620001f857600080fd5b5062000217600480360381019062000211919062000c45565b62000847565b005b3480156200022657600080fd5b506200023162000997565b005b600080600160003373ffffffffffffffffffffffffffffffffffffffff1673ffffffffffffffffffffffffffffffffffffffff1681526020019081526020016000205403620002b9576040517f08c379a0000000000000000000000000000000000000000000000000000000008152600401620002b09062000f69565b60405180910390fd5b620002c433620009f9565b905090565b60008054906101000a900473ffffffffffffffffffffffffffffffffffffffff1673ffffffffffffffffffffffffffffffffffffffff163373ffffffffffffffffffffffffffffffffffffffff16146200032257600080fd5b33600260008373ffffffffffffffffffffffffffffffffffffffff1673ffffffffffffffffffffffffffffffffffffffff16815260200190815260200160002060006101000a81548173ffffffffffffffffffffffffffffffffffffffff021916908373ffffffffffffffffffffffffffffffffffffffff1602179055506005819080600181540180825580915050600190039060005260206000200160009091909190916101000a81548173ffffffffffffffffffffffffffffffffffffffff021916908373ffffffffffffffffffffffffffffffffffffffff16021790555050565b6000600160003373ffffffffffffffffffffffffffffffffffffffff1673ffffffffffffffffffffffffffffffffffffffff16815260200190815260200160002054036200048b576040517f08c379a0000000000000000000000000000000000000000000000000000000008152600401620004829062000f69565b60405180910390fd5b6000816040516200049c9062000b90565b620004a8919062000ebd565b604051809103906000f080158015620004c5573d6000803e3d6000fd5b50905033600260008373ffffffffffffffffffffffffffffffffffffffff1673ffffffffffffffffffffffffffffffffffffffff16815260200190815260200160002060006101000a81548173ffffffffffffffffffffffffffffffffffffffff021916908373ffffffffffffffffffffffffffffffffffffffff1602179055506005819080600181540180825580915050600190039060005260206000200160009091909190916101000a81548173ffffffffffffffffffffffffffffffffffffffff021916908373ffffffffffffffffffffffffffffffffffffffff1602179055505050565b60606040518060400160405280600481526020017f706f6e6700000000000000000000000000000000000000000000000000000000815250905090565b6000600160003373ffffffffffffffffffffffffffffffffffffffff1673ffffffffffffffffffffffffffffffffffffffff16815260200190815260200160002054036200066f576040517f08c379a0000000000000000000000000000000000000000000000000000000008152600401620006669062000f69565b60405180910390fd5b6000600460009054906101000a900473ffffffffffffffffffffffffffffffffffffffff1673ffffffffffffffffffffffffffffffffffffffff166309aa7b67836040518263ffffffff1660e01b8152600401620006ce919062000be3565b6020604051808303816000875af1158015620006ee573d6000803e3d6000fd5b505050506040513d601f19601f8201168201806040525081019062000714919062000fbc565b90507f2f7377f0470ca5f5d5bcb55c33ff5e20e0a2653933e0615e99f01e81640d0a92600083836040516200074c9392919062000fee565b60405180910390a15050565b60008054906101000a900473ffffffffffffffffffffffffffffffffffffffff1681565b600080600160003373ffffffffffffffffffffffffffffffffffffffff1673ffffffffffffffffffffffffffffffffffffffff168152602001908152602001600020540362000802576040517f08c379a0000000000000000000000000000000000000000000000000000000008152600401620007f99062000f69565b60405180910390fd5b600160003373ffffffffffffffffffffffffffffffffffffffff1673ffffffffffffffffffffffffffffffffffffffff16815260200190815260200160002054905090565b60008054906101000a900473ffffffffffffffffffffffffffffffffffffffff1673ffffffffffffffffffffffffffffffffffffffff163373ffffffffffffffffffffffffffffffffffffffff1614620008a057600080fd5b600073ffffffffffffffffffffffffffffffffffffffff168173ffffffffffffffffffffffffffffffffffffffff1603620008da57600080fd5b8073ffffffffffffffffffffffffffffffffffffffff1660008054906101000a900473ffffffffffffffffffffffffffffffffffffffff1673ffffffffffffffffffffffffffffffffffffffff167f8be0079c531659141344cd1fd0a4f28419497f9722a3daafe3b4186f6b6457e060405160405180910390a3806000806101000a81548173ffffffffffffffffffffffffffffffffffffffff021916908373ffffffffffffffffffffffffffffffffffffffff16021790555050565b60066000815480929190620009ac906200105a565b9190505550600654600160003373ffffffffffffffffffffffffffffffffffffffff1673ffffffffffffffffffffffffffffffffffffffff16815260200190815260200160002081905550565b6000806005805490501162000a0d57600080fd5b6000600580549050600354428560405160200162000a2e939291906200111c565b6040516020818303038152906040528051906020012060001c62000a5391906200118e565b90506003600081548092919062000a6a906200105a565b919050555060006005828154811062000a885762000a87620011c6565b5b9060005260206000200160009054906101000a900473ffffffffffffffffffffffffffffffffffffffff1690508373ffffffffffffffffffffffffffffffffffffffff16600260008373ffffffffffffffffffffffffffffffffffffffff1673ffffffffffffffffffffffffffffffffffffffff16815260200190815260200160002060009054906101000a900473ffffffffffffffffffffffffffffffffffffffff1673ffffffffffffffffffffffffffffffffffffffff160362000b4d57600080fd5b7f72decc00bf832e18e33100d9e3bffeec8d662eb855d43bcc0f42f9b72d73dac38160405162000b7e919062000be3565b60405180910390a18092505050919050565b61100e80620011f683390190565b600073ffffffffffffffffffffffffffffffffffffffff82169050919050565b600062000bcb8262000b9e565b9050919050565b62000bdd8162000bbe565b82525050565b600060208201905062000bfa600083018462000bd2565b92915050565b6000604051905090565b600080fd5b600080fd5b62000c1f8162000bbe565b811462000c2b57600080fd5b50565b60008135905062000c3f8162000c14565b92915050565b60006020828403121562000c5e5762000c5d62000c0a565b5b600062000c6e8482850162000c2e565b91505092915050565b600080fd5b600080fd5b6000601f19601f8301169050919050565b7f4e487b7100000000000000000000000000000000000000000000000000000000600052604160045260246000fd5b62000ccc8262000c81565b810181811067ffffffffffffffff8211171562000cee5762000ced62000c92565b5b80604052505050565b600062000d0362000c00565b905062000d11828262000cc1565b919050565b600067ffffffffffffffff82111562000d345762000d3362000c92565b5b62000d3f8262000c81565b9050602081019050919050565b82818337600083830152505050565b600062000d7262000d6c8462000d16565b62000cf7565b90508281526020810184848401111562000d915762000d9062000c7c565b5b62000d9e84828562000d4c565b509392505050565b600082601f83011262000dbe5762000dbd62000c77565b5b813562000dd084826020860162000d5b565b91505092915050565b60006020828403121562000df25762000df162000c0a565b5b600082013567ffffffffffffffff81111562000e135762000e1262000c0f565b5b62000e218482850162000da6565b91505092915050565b600081519050919050565b600082825260208201905092915050565b60005b8381101562000e6657808201518184015260208101905062000e49565b8381111562000e76576000848401525b50505050565b600062000e898262000e2a565b62000e95818562000e35565b935062000ea781856020860162000e46565b62000eb28162000c81565b840191505092915050565b6000602082019050818103600083015262000ed9818462000e7c565b905092915050565b6000819050919050565b62000ef68162000ee1565b82525050565b600060208201905062000f13600083018462000eeb565b92915050565b7f616361206d61657374726f000000000000000000000000000000000000000000600082015250565b600062000f51600b8362000e35565b915062000f5e8262000f19565b602082019050919050565b6000602082019050818103600083015262000f848162000f42565b9050919050565b62000f968162000ee1565b811462000fa257600080fd5b50565b60008151905062000fb68162000f8b565b92915050565b60006020828403121562000fd55762000fd462000c0a565b5b600062000fe58482850162000fa5565b91505092915050565b600060608201905062001005600083018662000bd2565b62001014602083018562000bd2565b62001023604083018462000eeb565b949350505050565b7f4e487b7100000000000000000000000000000000000000000000000000000000600052601160045260246000fd5b6000620010678262000ee1565b91507fffffffffffffffffffffffffffffffffffffffffffffffffffffffffffffffff82036200109c576200109b6200102b565b5b600182019050919050565b6000819050919050565b620010c6620010c08262000ee1565b620010a7565b82525050565b60008160601b9050919050565b6000620010e682620010cc565b9050919050565b6000620010fa82620010d9565b9050919050565b62001116620011108262000bbe565b620010ed565b82525050565b60006200112a8286620010b1565b6020820191506200113c8285620010b1565b6020820191506200114e828462001101565b601482019150819050949350505050565b7f4e487b7100000000000000000000000000000000000000000000000000000000600052601260045260246000fd5b60006200119b8262000ee1565b9150620011a88362000ee1565b925082620011bb57620011ba6200115f565b5b828206905092915050565b7f4e487b7100000000000000000000000000000000000000000000000000000000600052603260045260246000fdfe60806040523480156200001157600080fd5b506040516200100e3803806200100e833981810160405281019062000037919062000204565b8060009081620000489190620004a0565b506000805462000058906200028f565b90506001819055505062000587565b6000604051905090565b600080fd5b600080fd5b600080fd5b600080fd5b6000601f19601f8301169050919050565b7f4e487b7100000000000000000000000000000000000000000000000000000000600052604160045260246000fd5b620000d08262000085565b810181811067ffffffffffffffff82111715620000f257620000f162000096565b5b80604052505050565b60006200010762000067565b9050620001158282620000c5565b919050565b600067ffffffffffffffff82111562000138576200013762000096565b5b620001438262000085565b9050602081019050919050565b60005b838110156200017057808201518184015260208101905062000153565b8381111562000180576000848401525b50505050565b60006200019d62000197846200011a565b620000fb565b905082815260208101848484011115620001bc57620001bb62000080565b5b620001c984828562000150565b509392505050565b600082601f830112620001e957620001e86200007b565b5b8151620001fb84826020860162000186565b91505092915050565b6000602082840312156200021d576200021c62000071565b5b600082015167ffffffffffffffff8111156200023e576200023d62000076565b5b6200024c84828501620001d1565b91505092915050565b600081519050919050565b7f4e487b7100000000000000000000000000000000000000000000000000000000600052602260045260246000fd5b60006002820490506001821680620002a857607f821691505b602082108103620002be57620002bd62000260565b5b50919050565b60008190508160005260206000209050919050565b60006020601f8301049050919050565b600082821b905092915050565b600060088302620003287fffffffffffffffffffffffffffffffffffffffffffffffffffffffffffffffff82620002e9565b620003348683620002e9565b95508019841693508086168417925050509392505050565b6000819050919050565b6000819050919050565b6000620003816200037b62000375846200034c565b62000356565b6200034c565b9050919050565b6000819050919050565b6200039d8362000360565b620003b5620003ac8262000388565b848454620002f6565b825550505050565b600090565b620003cc620003bd565b620003d981848462000392565b505050565b5b818110156200040157620003f5600082620003c2565b600181019050620003df565b5050565b601f82111562000450576200041a81620002c4565b6200042584620002d9565b8101602085101562000435578190505b6200044d6200044485620002d9565b830182620003de565b50505b505050565b600082821c905092915050565b6000620004756000198460080262000455565b1980831691505092915050565b600062000490838362000462565b9150826002028217905092915050565b620004ab8262000255565b67ffffffffffffffff811115620004c757620004c662000096565b5b620004d382546200028f565b620004e082828562000405565b600060209050601f83116001811462000518576000841562000503578287015190505b6200050f858262000482565b8655506200057f565b601f1984166200052886620002c4565b60005b8281101562000552578489015182556001820191506020850194506020810190506200052b565b868310156200057257848901516200056e601f89168262000462565b8355505b6001600288020188555050505b505050505050565b610a7780620005976000396000f3fe608060405234801561001057600080fd5b506004361061004c5760003560e01c80634a90be5714610051578063b587e20a1461006f578063b8c9e4ed1461009f578063f5db08d9146100bd575b600080fd5b6100596100ed565b6040516100669190610559565b60405180910390f35b610089600480360381019061008491906106ce565b6100f7565b6040516100969190610732565b60405180910390f35b6100a761011f565b6040516100b491906107d5565b60405180910390f35b6100d760048036038101906100d291906106ce565b6101b1565b6040516100e491906107d5565b60405180910390f35b6000600154905090565b60008060405161010791906108fa565b60405180910390208280519060200120149050919050565b60606000805461012e90610826565b80601f016020809104026020016040519081016040528092919081815260200182805461015a90610826565b80156101a75780601f1061017c576101008083540402835291602001916101a7565b820191906000526020600020905b81548152906001019060200180831161018a57829003601f168201915b5050505050905090565b60608060008060015467ffffffffffffffff8111156101d3576101d26105a3565b5b6040519080825280601f01601f1916602001820160405280156102055781602001600182028036833780820191505090505b5090506000600190505b60015481116103e2576102ad81826000805461022a90610826565b80601f016020809104026020016040519081016040528092919081815260200182805461025690610826565b80156102a35780601f10610278576101008083540402835291602001916102a3565b820191906000526020600020905b81548152906001019060200180831161028657829003601f168201915b505050505061042b565b9350858051906020012084805190602001200361032a57836000815181106102d8576102d7610911565b5b602001015160f81c60f81b8284815181106102f6576102f5610911565b5b60200101907effffffffffffffffffffffffffffffffffffffffffffffffffffffffffffff1916908160001a9053506103c1565b6040518060400160405280600181526020017f2d0000000000000000000000000000000000000000000000000000000000000081525060008151811061037357610372610911565b5b602001015160f81c60f81b82848151811061039157610390610911565b5b60200101907effffffffffffffffffffffffffffffffffffffffffffffffffffffffffffff1916908160001a9053505b82806103cc9061096f565b93505080806103da9061096f565b91505061020f565b5060008190507fe0946fc24725e44d3504b73816ee9a9bad8140f33101592fc0590d704d0495188160405161041791906107d5565b60405180910390a180945050505050919050565b606060006001858561043d91906109b7565b61044791906109eb565b67ffffffffffffffff8111156104605761045f6105a3565b5b6040519080825280601f01601f1916602001820160405280156104925781602001600182028036833780820191505090505b50905060005b85856104a491906109b7565b81116105345783600187836104b991906109eb565b6104c391906109b7565b815181106104d4576104d3610911565b5b602001015160f81c60f81b8282815181106104f2576104f1610911565b5b60200101907effffffffffffffffffffffffffffffffffffffffffffffffffffffffffffff1916908160001a905350808061052c9061096f565b915050610498565b50809150509392505050565b6000819050919050565b61055381610540565b82525050565b600060208201905061056e600083018461054a565b92915050565b6000604051905090565b600080fd5b600080fd5b600080fd5b600080fd5b6000601f19601f8301169050919050565b7f4e487b7100000000000000000000000000000000000000000000000000000000600052604160045260246000fd5b6105db82610592565b810181811067ffffffffffffffff821117156105fa576105f96105a3565b5b80604052505050565b600061060d610574565b905061061982826105d2565b919050565b600067ffffffffffffffff821115610639576106386105a3565b5b61064282610592565b9050602081019050919050565b82818337600083830152505050565b600061067161066c8461061e565b610603565b90508281526020810184848401111561068d5761068c61058d565b5b61069884828561064f565b509392505050565b600082601f8301126106b5576106b4610588565b5b81356106c584826020860161065e565b91505092915050565b6000602082840312156106e4576106e361057e565b5b600082013567ffffffffffffffff81111561070257610701610583565b5b61070e848285016106a0565b91505092915050565b60008115159050919050565b61072c81610717565b82525050565b60006020820190506107476000830184610723565b92915050565b600081519050919050565b600082825260208201905092915050565b60005b8381101561078757808201518184015260208101905061076c565b83811115610796576000848401525b50505050565b60006107a78261074d565b6107b18185610758565b93506107c1818560208601610769565b6107ca81610592565b840191505092915050565b600060208201905081810360008301526107ef818461079c565b905092915050565b7f4e487b7100000000000000000000000000000000000000000000000000000000600052602260045260246000fd5b6000600282049050600182168061083e57607f821691505b602082108103610851576108506107f7565b5b50919050565b600081905092915050565b60008190508160005260206000209050919050565b6000815461088481610826565b61088e8186610857565b945060018216600081146108a957600181146108be576108f1565b60ff19831686528115158202860193506108f1565b6108c785610862565b60005b838110156108e9578154818901526001820191506020810190506108ca565b838801955050505b50505092915050565b60006109068284610877565b915081905092915050565b7f4e487b7100000000000000000000000000000000000000000000000000000000600052603260045260246000fd5b7f4e487b7100000000000000000000000000000000000000000000000000000000600052601160045260246000fd5b600061097a82610540565b91507fffffffffffffffffffffffffffffffffffffffffffffffffffffffffffffffff82036109ac576109ab610940565b5b600182019050919050565b60006109c282610540565b91506109cd83610540565b9250828210156109e0576109df610940565b5b828203905092915050565b60006109f682610540565b9150610a0183610540565b9250827fffffffffffffffffffffffffffffffffffffffffffffffffffffffffffffffff03821115610a3657610a35610940565b5b82820190509291505056fea2646970667358221220fed3c0ef2830e8b73f67dfb370e5ec801f221ceb6bc390085a70f8774408b92864736f6c634300080f0033a264697066735822122062dee1be69d68d4f9e009fe716872a54e499a6da91d41fb454369bb462b1682c64736f6c634300080f0033608060405260006003553480156200001657600080fd5b506040518060400160405280600881526020017f48617362754e46540000000000000000000000000000000000000000000000008152506040518060400160405280600381526020017f484153000000000000000000000000000000000000000000000000000000000081525081600090816200009491906200036a565b508060019081620000a691906200036a565b50505033600260006101000a81548173ffffffffffffffffffffffffffffffffffffffff021916908373ffffffffffffffffffffffffffffffffffffffff16021790555062000451565b600081519050919050565b7f4e487b7100000000000000000000000000000000000000000000000000000000600052604160045260246000fd5b7f4e487b7100000000000000000000000000000000000000000000000000000000600052602260045260246000fd5b600060028204905060018216806200017257607f821691505b6020821081036200018857620001876200012a565b5b50919050565b60008190508160005260206000209050919050565b60006020601f8301049050919050565b600082821b905092915050565b600060088302620001f27fffffffffffffffffffffffffffffffffffffffffffffffffffffffffffffffff82620001b3565b620001fe8683620001b3565b95508019841693508086168417925050509392505050565b6000819050919050565b6000819050919050565b60006200024b620002456200023f8462000216565b62000220565b62000216565b9050919050565b6000819050919050565b62000267836200022a565b6200027f620002768262000252565b848454620001c0565b825550505050565b600090565b6200029662000287565b620002a38184846200025c565b505050565b5b81811015620002cb57620002bf6000826200028c565b600181019050620002a9565b5050565b601f8211156200031a57620002e4816200018e565b620002ef84620001a3565b81016020851015620002ff578190505b620003176200030e85620001a3565b830182620002a8565b50505b505050565b600082821c905092915050565b60006200033f600019846008026200031f565b1980831691505092915050565b60006200035a83836200032c565b9150826002028217905092915050565b6200037582620000f0565b67ffffffffffffffff811115620003915762000390620000fb565b5b6200039d825462000159565b620003aa828285620002cf565b600060209050601f831160018114620003e25760008415620003cd578287015190505b620003d985826200034c565b86555062000449565b601f198416620003f2866200018e565b60005b828110156200041c57848901518255600182019150602085019450602081019050620003f5565b868310156200043c578489015162000438601f8916826200032c565b8355505b6001600288020188555050505b505050505050565b6111e080620004616000396000f3fe608060405234801561001057600080fd5b506004361061009e5760003560e01c80638da5cb5b116100665780638da5cb5b1461016d57806395d89b411461018b578063a9059cbb146101a9578063b2e6ceeb146101c5578063f2fde38b146101e15761009e565b806306fdde03146100a3578063095ea7b3146100c157806309aa7b67146100dd5780636352211e1461010d57806370a082311461013d575b600080fd5b6100ab6101fd565b6040516100b89190610d71565b60405180910390f35b6100db60048036038101906100d69190610e2c565b61028f565b005b6100f760048036038101906100f29190610e6c565b6103b2565b6040516101049190610ea8565b60405180910390f35b61012760048036038101906101229190610ec3565b6105b0565b6040516101349190610eff565b60405180910390f35b61015760048036038101906101529190610e6c565b610661565b6040516101649190610ea8565b60405180910390f35b610175610718565b6040516101829190610eff565b60405180910390f35b61019361073e565b6040516101a09190610d71565b60405180910390f35b6101c360048036038101906101be9190610e2c565b6107d0565b005b6101df60048036038101906101da9190610ec3565b61087f565b005b6101fb60048036038101906101f69190610e6c565b610931565b005b60606000805461020c90610f49565b80601f016020809104026020016040519081016040528092919081815260200182805461023890610f49565b80156102855780601f1061025a57610100808354040283529160200191610285565b820191906000526020600020905b81548152906001019060200180831161026857829003601f168201915b5050505050905090565b60006005600083815260200190815260200160002060009054906101000a900473ffffffffffffffffffffffffffffffffffffffff1690508273ffffffffffffffffffffffffffffffffffffffff168173ffffffffffffffffffffffffffffffffffffffff1603610335576040517f08c379a000000000000000000000000000000000000000000000000000000000815260040161032c90610fec565b60405180910390fd5b3373ffffffffffffffffffffffffffffffffffffffff168173ffffffffffffffffffffffffffffffffffffffff16146103a3576040517f08c379a000000000000000000000000000000000000000000000000000000000815260040161039a9061107e565b60405180910390fd5b6103ad8383610a84565b505050565b6000600260009054906101000a900473ffffffffffffffffffffffffffffffffffffffff1673ffffffffffffffffffffffffffffffffffffffff163373ffffffffffffffffffffffffffffffffffffffff161461040e57600080fd5b600073ffffffffffffffffffffffffffffffffffffffff168273ffffffffffffffffffffffffffffffffffffffff160361047d576040517f08c379a0000000000000000000000000000000000000000000000000000000008152600401610474906110ea565b60405180910390fd5b6003600081548092919061049090611139565b9190505550600460008373ffffffffffffffffffffffffffffffffffffffff1673ffffffffffffffffffffffffffffffffffffffff16815260200190815260200160002060008154809291906104e590611139565b91905055508160056000600354815260200190815260200160002060006101000a81548173ffffffffffffffffffffffffffffffffffffffff021916908373ffffffffffffffffffffffffffffffffffffffff1602179055508173ffffffffffffffffffffffffffffffffffffffff16600073ffffffffffffffffffffffffffffffffffffffff167fddf252ad1be2c89b69c2b068fc378daa952ba7f163c4a11628f55a4df523b3ef60035460405161059e9190610ea8565b60405180910390a36003549050919050565b6000806005600084815260200190815260200160002060009054906101000a900473ffffffffffffffffffffffffffffffffffffffff169050600073ffffffffffffffffffffffffffffffffffffffff168173ffffffffffffffffffffffffffffffffffffffff1603610658576040517f08c379a000000000000000000000000000000000000000000000000000000000815260040161064f906110ea565b60405180910390fd5b80915050919050565b60008073ffffffffffffffffffffffffffffffffffffffff168273ffffffffffffffffffffffffffffffffffffffff16036106d1576040517f08c379a00000000000000000000000000000000000000000000000000000000081526004016106c8906110ea565b60405180910390fd5b600460008373ffffffffffffffffffffffffffffffffffffffff1673ffffffffffffffffffffffffffffffffffffffff168152602001908152602001600020549050919050565b600260009054906101000a900473ffffffffffffffffffffffffffffffffffffffff1681565b60606001805461074d90610f49565b80601f016020809104026020016040519081016040528092919081815260200182805461077990610f49565b80156107c65780601f1061079b576101008083540402835291602001916107c6565b820191906000526020600020905b8154815290600101906020018083116107a957829003601f168201915b5050505050905090565b803373ffffffffffffffffffffffffffffffffffffffff166005600083815260200190815260200160002060009054906101000a900473ffffffffffffffffffffffffffffffffffffffff1673ffffffffffffffffffffffffffffffffffffffff161461083c57600080fd5b61087a6005600084815260200190815260200160002060009054906101000a900473ffffffffffffffffffffffffffffffffffffffff168484610b72565b505050565b3373ffffffffffffffffffffffffffffffffffffffff166006600083815260200190815260200160002060009054906101000a900473ffffffffffffffffffffffffffffffffffffffff1673ffffffffffffffffffffffffffffffffffffffff16146108ea57600080fd5b60006005600083815260200190815260200160002060009054906101000a900473ffffffffffffffffffffffffffffffffffffffff16905061092d813384610b72565b5050565b600260009054906101000a900473ffffffffffffffffffffffffffffffffffffffff1673ffffffffffffffffffffffffffffffffffffffff163373ffffffffffffffffffffffffffffffffffffffff161461098b57600080fd5b600073ffffffffffffffffffffffffffffffffffffffff168173ffffffffffffffffffffffffffffffffffffffff16036109c457600080fd5b8073ffffffffffffffffffffffffffffffffffffffff16600260009054906101000a900473ffffffffffffffffffffffffffffffffffffffff1673ffffffffffffffffffffffffffffffffffffffff167f8be0079c531659141344cd1fd0a4f28419497f9722a3daafe3b4186f6b6457e060405160405180910390a380600260006101000a81548173ffffffffffffffffffffffffffffffffffffffff021916908373ffffffffffffffffffffffffffffffffffffffff16021790555050565b816006600083815260200190815260200160002060006101000a81548173ffffffffffffffffffffffffffffffffffffffff021916908373ffffffffffffffffffffffffffffffffffffffff1602179055508173ffffffffffffffffffffffffffffffffffffffff166005600083815260200190815260200160002060009054906101000a900473ffffffffffffffffffffffffffffffffffffffff1673ffffffffffffffffffffffffffffffffffffffff167f8c5be1e5ebec7d5bd14f71427d1e84f3dd0314c0f7b2291e5b200ac8c7c3b92583604051610b669190610ea8565b60405180910390a35050565b600460008373ffffffffffffffffffffffffffffffffffffffff1673ffffffffffffffffffffffffffffffffffffffff1681526020019081526020016000206000815480929190610bc290611139565b9190505550600460008473ffffffffffffffffffffffffffffffffffffffff1673ffffffffffffffffffffffffffffffffffffffff1681526020019081526020016000206000815480929190610c1790611181565b9190505550816005600083815260200190815260200160002060006101000a81548173ffffffffffffffffffffffffffffffffffffffff021916908373ffffffffffffffffffffffffffffffffffffffff1602179055508173ffffffffffffffffffffffffffffffffffffffff168373ffffffffffffffffffffffffffffffffffffffff167fddf252ad1be2c89b69c2b068fc378daa952ba7f163c4a11628f55a4df523b3ef83604051610ccb9190610ea8565b60405180910390a3505050565b600081519050919050565b600082825260208201905092915050565b60005b83811015610d12578082015181840152602081019050610cf7565b83811115610d21576000848401525b50505050565b6000601f19601f8301169050919050565b6000610d4382610cd8565b610d4d8185610ce3565b9350610d5d818560208601610cf4565b610d6681610d27565b840191505092915050565b60006020820190508181036000830152610d8b8184610d38565b905092915050565b600080fd5b600073ffffffffffffffffffffffffffffffffffffffff82169050919050565b6000610dc382610d98565b9050919050565b610dd381610db8565b8114610dde57600080fd5b50565b600081359050610df081610dca565b92915050565b6000819050919050565b610e0981610df6565b8114610e1457600080fd5b50565b600081359050610e2681610e00565b92915050565b60008060408385031215610e4357610e42610d93565b5b6000610e5185828601610de1565b9250506020610e6285828601610e17565b9150509250929050565b600060208284031215610e8257610e81610d93565b5b6000610e9084828501610de1565b91505092915050565b610ea281610df6565b82525050565b6000602082019050610ebd6000830184610e99565b92915050565b600060208284031215610ed957610ed8610d93565b5b6000610ee784828501610e17565b91505092915050565b610ef981610db8565b82525050565b6000602082019050610f146000830184610ef0565b92915050565b7f4e487b7100000000000000000000000000000000000000000000000000000000600052602260045260246000fd5b60006002820490506001821680610f6157607f821691505b602082108103610f7457610f73610f1a565b5b50919050565b7f4e6f207365207075656465207472616e7366657269722061207369206d69736d60008201527f6f00000000000000000000000000000000000000000000000000000000000000602082015250565b6000610fd6602183610ce3565b9150610fe182610f7a565b604082019050919050565b6000602082019050818103600083015261100581610fc9565b9050919050565b7f536f6c6f20656c206475656e6f207075656465206c6c616d617220657374612060008201527f66756e63696f6e00000000000000000000000000000000000000000000000000602082015250565b6000611068602783610ce3565b91506110738261100c565b604082019050919050565b600060208201905081810360008301526110978161105b565b9050919050565b7f4164647265737320300000000000000000000000000000000000000000000000600082015250565b60006110d4600983610ce3565b91506110df8261109e565b602082019050919050565b60006020820190508181036000830152611103816110c7565b9050919050565b7f4e487b7100000000000000000000000000000000000000000000000000000000600052601160045260246000fd5b600061114482610df6565b91507fffffffffffffffffffffffffffffffffffffffffffffffffffffffffffffffff82036111765761117561110a565b5b600182019050919050565b600061118c82610df6565b91506000820361119f5761119e61110a565b5b60018203905091905056fea2646970667358221220178a1b9b2a281ed08fc18f1c878d060d354df0ac3bd03dab46f6366c265fdf2464736f6c634300080f0033",
  "immutableReferences": {},
  "source": "import \"./Word.sol\";\r\nimport \"./Ownable.sol\";\r\nimport \"./HasbuToken.sol\";\r\n\r\n// SPDX-License-Identifier: GPL-3.0\r\npragma solidity >=0.6.0  <0.9.0;\r\n\r\n// solo lo puede llamar jugador\r\n\r\n\r\ncontract Juego is Ownable{\r\n    mapping(address => uint) idByAddress;\r\n    mapping(address => address) wordOwner;\r\n    uint256 randNonce = 0;\r\n\r\n    HasbuToken NFT;\r\n    address[] private words;\r\n    uint256 private idCount = 1; // ID 1 sera el id del juego, para las palabras creadas por el mismo juego\r\n    \r\n     modifier onlyJugador(){\r\n        require(idByAddress[msg.sender] != 0, \"aca maestro\");\r\n        _;\r\n    }\r\n\r\n    event AddressWord(address add);\r\n    event NFTMinted(address from, address to, uint256 id);\r\n\r\n\r\n    constructor() {\r\n        NFT = new HasbuToken();\r\n        idByAddress[msg.sender] = 1;\r\n    }\r\n\r\n    function mint(address to) public onlyJugador{\r\n        uint256 id = NFT._mint(to);\r\n        emit NFTMinted(address(0), to, id);\r\n    }\r\n\r\n   function crearJugador() public{\r\n       idCount++;\r\n       idByAddress[msg.sender] = idCount;\r\n   }\r\n\r\n   function getID() public view onlyJugador returns(uint){\r\n        return idByAddress[msg.sender];\r\n   }\r\n\r\n   function _crearPalabra(address add) public onlyOwner{\r\n    wordOwner[add] = msg.sender;\r\n    words.push(add);\r\n   }\r\n\r\n    function crearPalabra(string memory str) public onlyJugador{\r\n        // Modificador: solo id jugador puede llamar a esto\r\n        Word word = new Word(str);\r\n        wordOwner[address(word)] = msg.sender;\r\n        words.push(address(word));\r\n    }\r\n\r\n\r\n    function _elegirPalabra(address sender) private returns(address){\r\n        require(words.length > 0); // Nos fijamos que haya alguna palabra antes\r\n        uint indice = uint(keccak256(abi.encodePacked(randNonce, block.timestamp, sender))) %  words.length ;\r\n        randNonce++;\r\n        address addWord = words[indice];\r\n        require(wordOwner[addWord] != sender); // me fijo que la palabra asignada no sea creada por el jugador\r\n        emit AddressWord(addWord);\r\n        return addWord;\r\n    }\r\n\r\n    function elegirPalabra() public onlyJugador returns(address){\r\n        return _elegirPalabra(msg.sender);\r\n    }\r\n\r\n    function ping() public pure returns (string memory){\r\n        return \"pong\";\r\n    }\r\n\r\n    fallback() external payable{}\r\n    receive() external payable{}\r\n    \r\n}",
  "sourcePath": "C:\\Users\\Manu\\Desktop\\tp TDL\\clonado19 1554\\tdl-solidity\\contracts\\Juego.sol",
  "compiler": {
    "name": "solc",
    "version": "0.8.15+commit.e14f2714.Emscripten.clang"
  },
  "schemaVersion": "3.4.7",
  "updatedAt": "2022-07-19T22:43:52.250Z",
  "networkType": "ethereum",
  "devdoc": {
    "kind": "dev",
    "methods": {
      "transferOwnership(address)": {
        "details": "Allows the current owner to transfer control of the contract to a newOwner.",
        "params": {
          "newOwner": "The address to transfer ownership to."
        }
      }
    },
    "version": 1
  },
  "userdoc": {
    "kind": "user",
    "methods": {},
    "version": 1
  }
}