{
  "contractName": "Juego",
  "abi": [
    {
      "inputs": [],
      "stateMutability": "nonpayable",
      "type": "constructor"
    },
    {
      "anonymous": false,
      "inputs": [
        {
          "indexed": false,
          "internalType": "address",
          "name": "add",
          "type": "address"
        }
      ],
      "name": "AddressWord",
      "type": "event"
    },
    {
      "anonymous": false,
      "inputs": [
        {
          "indexed": false,
          "internalType": "address",
          "name": "from",
          "type": "address"
        },
        {
          "indexed": false,
          "internalType": "address",
          "name": "to",
          "type": "address"
        },
        {
          "indexed": false,
          "internalType": "uint256",
          "name": "id",
          "type": "uint256"
        }
      ],
      "name": "NFTMinted",
      "type": "event"
    },
    {
      "anonymous": false,
      "inputs": [
        {
          "indexed": true,
          "internalType": "address",
          "name": "previousOwner",
          "type": "address"
        },
        {
          "indexed": true,
          "internalType": "address",
          "name": "newOwner",
          "type": "address"
        }
      ],
      "name": "OwnershipTransferred",
      "type": "event"
    },
    {
      "stateMutability": "payable",
      "type": "fallback",
      "payable": true
    },
    {
      "inputs": [],
      "name": "owner",
      "outputs": [
        {
          "internalType": "address",
          "name": "",
          "type": "address"
        }
      ],
      "stateMutability": "view",
      "type": "function",
      "constant": true
    },
    {
      "inputs": [
        {
          "internalType": "address",
          "name": "newOwner",
          "type": "address"
        }
      ],
      "name": "transferOwnership",
      "outputs": [],
      "stateMutability": "nonpayable",
      "type": "function"
    },
    {
      "stateMutability": "payable",
      "type": "receive",
      "payable": true
    },
    {
      "inputs": [
        {
          "internalType": "address",
          "name": "to",
          "type": "address"
        }
      ],
      "name": "mint",
      "outputs": [],
      "stateMutability": "nonpayable",
      "type": "function"
    },
    {
      "inputs": [],
      "name": "crearJugador",
      "outputs": [],
      "stateMutability": "nonpayable",
      "type": "function"
    },
    {
      "inputs": [],
      "name": "getID",
      "outputs": [
        {
          "internalType": "uint256",
          "name": "",
          "type": "uint256"
        }
      ],
      "stateMutability": "view",
      "type": "function",
      "constant": true
    },
    {
      "inputs": [
        {
          "internalType": "address",
          "name": "add",
          "type": "address"
        }
      ],
      "name": "_crearPalabra",
      "outputs": [],
      "stateMutability": "nonpayable",
      "type": "function"
    },
    {
      "inputs": [
        {
          "internalType": "string",
          "name": "str",
          "type": "string"
        }
      ],
      "name": "crearPalabra",
      "outputs": [],
      "stateMutability": "nonpayable",
      "type": "function"
    },
    {
      "inputs": [],
      "name": "elegirPalabra",
      "outputs": [
        {
          "internalType": "address",
          "name": "",
          "type": "address"
        }
      ],
      "stateMutability": "nonpayable",
      "type": "function"
    },
    {
      "inputs": [],
      "name": "ping",
      "outputs": [
        {
          "internalType": "string",
          "name": "",
          "type": "string"
        }
      ],
      "stateMutability": "pure",
      "type": "function",
      "constant": true
    }
  ],
  "bytecode": "0x60806040526000600355600160065534801561001a57600080fd5b50336000806101000a81548173ffffffffffffffffffffffffffffffffffffffff021916908373ffffffffffffffffffffffffffffffffffffffff1602179055506040516100679061010d565b604051809103906000f080158015610083573d6000803e3d6000fd5b50600460006101000a81548173ffffffffffffffffffffffffffffffffffffffff021916908373ffffffffffffffffffffffffffffffffffffffff16021790555060018060003373ffffffffffffffffffffffffffffffffffffffff1673ffffffffffffffffffffffffffffffffffffffff1681526020019081526020016000208190555061011a565b6127e88061216283390190565b612039806101296000396000f3fe608060405260043610620000975760003560e01c80636a62784211620000615780636a627842146200015d5780638da5cb5b146200018b578063ab9dbd0714620001bb578063f2fde38b14620001eb578063fe1c25431462000219576200009f565b80630f0355da14620000a15780634baaa9aa14620000d157806351b6447f14620000ff5780635c36b186146200012d576200009f565b366200009f57005b005b348015620000ae57600080fd5b50620000b962000233565b604051620000c8919062000e18565b60405180910390f35b348015620000de57600080fd5b50620000fd6004803603810190620000f7919062000c60565b620002ca565b005b3480156200010c57600080fd5b506200012b600480360381019062000125919062000c92565b62000407565b005b3480156200013a57600080fd5b5062000145620005af565b60405162000154919062000e72565b60405180910390f35b3480156200016a57600080fd5b5062000189600480360381019062000183919062000c60565b620005ec565b005b3480156200019857600080fd5b50620001a36200076b565b604051620001b2919062000e18565b60405180910390f35b348015620001c857600080fd5b50620001d36200078f565b604051620001e2919062000eb8565b60405180910390f35b348015620001f857600080fd5b5062000217600480360381019062000211919062000c60565b6200085b565b005b3480156200022657600080fd5b5062000231620009ac565b005b600080600160003373ffffffffffffffffffffffffffffffffffffffff1673ffffffffffffffffffffffffffffffffffffffff168152602001908152602001600020541415620002ba576040517f08c379a0000000000000000000000000000000000000000000000000000000008152600401620002b19062000e96565b60405180910390fd5b620002c53362000a0e565b905090565b60008054906101000a900473ffffffffffffffffffffffffffffffffffffffff1673ffffffffffffffffffffffffffffffffffffffff163373ffffffffffffffffffffffffffffffffffffffff16146200032357600080fd5b33600260008373ffffffffffffffffffffffffffffffffffffffff1673ffffffffffffffffffffffffffffffffffffffff16815260200190815260200160002060006101000a81548173ffffffffffffffffffffffffffffffffffffffff021916908373ffffffffffffffffffffffffffffffffffffffff1602179055506005819080600181540180825580915050600190039060005260206000200160009091909190916101000a81548173ffffffffffffffffffffffffffffffffffffffff021916908373ffffffffffffffffffffffffffffffffffffffff16021790555050565b6000600160003373ffffffffffffffffffffffffffffffffffffffff1673ffffffffffffffffffffffffffffffffffffffff1681526020019081526020016000205414156200048d576040517f08c379a0000000000000000000000000000000000000000000000000000000008152600401620004849062000e96565b60405180910390fd5b6000816040516200049e9062000ba6565b620004aa919062000e72565b604051809103906000f080158015620004c7573d6000803e3d6000fd5b50905033600260008373ffffffffffffffffffffffffffffffffffffffff1673ffffffffffffffffffffffffffffffffffffffff16815260200190815260200160002060006101000a81548173ffffffffffffffffffffffffffffffffffffffff021916908373ffffffffffffffffffffffffffffffffffffffff1602179055506005819080600181540180825580915050600190039060005260206000200160009091909190916101000a81548173ffffffffffffffffffffffffffffffffffffffff021916908373ffffffffffffffffffffffffffffffffffffffff1602179055505050565b60606040518060400160405280600481526020017f706f6e6700000000000000000000000000000000000000000000000000000000815250905090565b6000600160003373ffffffffffffffffffffffffffffffffffffffff1673ffffffffffffffffffffffffffffffffffffffff16815260200190815260200160002054141562000672576040517f08c379a0000000000000000000000000000000000000000000000000000000008152600401620006699062000e96565b60405180910390fd5b6000600460009054906101000a900473ffffffffffffffffffffffffffffffffffffffff1673ffffffffffffffffffffffffffffffffffffffff16636a627842836040518263ffffffff1660e01b8152600401620006d1919062000e18565b602060405180830381600087803b158015620006ec57600080fd5b505af115801562000701573d6000803e3d6000fd5b505050506040513d601f19601f8201168201806040525081019062000727919062000ce3565b90507f2f7377f0470ca5f5d5bcb55c33ff5e20e0a2653933e0615e99f01e81640d0a92600083836040516200075f9392919062000e35565b60405180910390a15050565b60008054906101000a900473ffffffffffffffffffffffffffffffffffffffff1681565b600080600160003373ffffffffffffffffffffffffffffffffffffffff1673ffffffffffffffffffffffffffffffffffffffff16815260200190815260200160002054141562000816576040517f08c379a00000000000000000000000000000000000000000000000000000000081526004016200080d9062000e96565b60405180910390fd5b600160003373ffffffffffffffffffffffffffffffffffffffff1673ffffffffffffffffffffffffffffffffffffffff16815260200190815260200160002054905090565b60008054906101000a900473ffffffffffffffffffffffffffffffffffffffff1673ffffffffffffffffffffffffffffffffffffffff163373ffffffffffffffffffffffffffffffffffffffff1614620008b457600080fd5b600073ffffffffffffffffffffffffffffffffffffffff168173ffffffffffffffffffffffffffffffffffffffff161415620008ef57600080fd5b8073ffffffffffffffffffffffffffffffffffffffff1660008054906101000a900473ffffffffffffffffffffffffffffffffffffffff1673ffffffffffffffffffffffffffffffffffffffff167f8be0079c531659141344cd1fd0a4f28419497f9722a3daafe3b4186f6b6457e060405160405180910390a3806000806101000a81548173ffffffffffffffffffffffffffffffffffffffff021916908373ffffffffffffffffffffffffffffffffffffffff16021790555050565b60066000815480929190620009c19062001009565b9190505550600654600160003373ffffffffffffffffffffffffffffffffffffffff1673ffffffffffffffffffffffffffffffffffffffff16815260200190815260200160002081905550565b6000806005805490501162000a2257600080fd5b6000600580549050600354428560405160200162000a439392919062000dd5565b6040516020818303038152906040528051906020012060001c62000a68919062001089565b90506003600081548092919062000a7f9062001009565b919050555060006005828154811062000a9d5762000a9c6200111f565b5b9060005260206000200160009054906101000a900473ffffffffffffffffffffffffffffffffffffffff1690508373ffffffffffffffffffffffffffffffffffffffff16600260008373ffffffffffffffffffffffffffffffffffffffff1673ffffffffffffffffffffffffffffffffffffffff16815260200190815260200160002060009054906101000a900473ffffffffffffffffffffffffffffffffffffffff1673ffffffffffffffffffffffffffffffffffffffff16141562000b6357600080fd5b7f72decc00bf832e18e33100d9e3bffeec8d662eb855d43bcc0f42f9b72d73dac38160405162000b94919062000e18565b60405180910390a18092505050919050565b610df7806200120d83390190565b600062000bcb62000bc58462000efe565b62000ed5565b90508281526020810184848401111562000bea5762000be962001182565b5b62000bf784828562000f8e565b509392505050565b60008135905062000c1081620011d8565b92915050565b600082601f83011262000c2e5762000c2d6200117d565b5b813562000c4084826020860162000bb4565b91505092915050565b60008151905062000c5a81620011f2565b92915050565b60006020828403121562000c795762000c786200118c565b5b600062000c898482850162000bff565b91505092915050565b60006020828403121562000cab5762000caa6200118c565b5b600082013567ffffffffffffffff81111562000ccc5762000ccb62001187565b5b62000cda8482850162000c16565b91505092915050565b60006020828403121562000cfc5762000cfb6200118c565b5b600062000d0c8482850162000c49565b91505092915050565b62000d208162000f50565b82525050565b62000d3b62000d358262000f50565b62001057565b82525050565b600062000d4e8262000f34565b62000d5a818562000f3f565b935062000d6c81856020860162000f9d565b62000d778162001191565b840191505092915050565b600062000d91600b8362000f3f565b915062000d9e82620011af565b602082019050919050565b62000db48162000f84565b82525050565b62000dcf62000dc98262000f84565b6200107f565b82525050565b600062000de3828662000dba565b60208201915062000df5828562000dba565b60208201915062000e07828462000d26565b601482019150819050949350505050565b600060208201905062000e2f600083018462000d15565b92915050565b600060608201905062000e4c600083018662000d15565b62000e5b602083018562000d15565b62000e6a604083018462000da9565b949350505050565b6000602082019050818103600083015262000e8e818462000d41565b905092915050565b6000602082019050818103600083015262000eb18162000d82565b9050919050565b600060208201905062000ecf600083018462000da9565b92915050565b600062000ee162000ef4565b905062000eef828262000fd3565b919050565b6000604051905090565b600067ffffffffffffffff82111562000f1c5762000f1b6200114e565b5b62000f278262001191565b9050602081019050919050565b600081519050919050565b600082825260208201905092915050565b600062000f5d8262000f64565b9050919050565b600073ffffffffffffffffffffffffffffffffffffffff82169050919050565b6000819050919050565b82818337600083830152505050565b60005b8381101562000fbd57808201518184015260208101905062000fa0565b8381111562000fcd576000848401525b50505050565b62000fde8262001191565b810181811067ffffffffffffffff82111715620010005762000fff6200114e565b5b80604052505050565b6000620010168262000f84565b91507fffffffffffffffffffffffffffffffffffffffffffffffffffffffffffffffff8214156200104c576200104b620010c1565b5b600182019050919050565b600062001064826200106b565b9050919050565b60006200107882620011a2565b9050919050565b6000819050919050565b6000620010968262000f84565b9150620010a38362000f84565b925082620010b657620010b5620010f0565b5b828206905092915050565b7f4e487b7100000000000000000000000000000000000000000000000000000000600052601160045260246000fd5b7f4e487b7100000000000000000000000000000000000000000000000000000000600052601260045260246000fd5b7f4e487b7100000000000000000000000000000000000000000000000000000000600052603260045260246000fd5b7f4e487b7100000000000000000000000000000000000000000000000000000000600052604160045260246000fd5b600080fd5b600080fd5b600080fd5b600080fd5b6000601f19601f8301169050919050565b60008160601b9050919050565b7f616361206d61657374726f000000000000000000000000000000000000000000600082015250565b620011e38162000f50565b8114620011ef57600080fd5b50565b620011fd8162000f84565b81146200120957600080fd5b5056fe60806040523480156200001157600080fd5b5060405162000df738038062000df783398181016040528101906200003791906200019c565b80600090805190602001906200004f9291906200006e565b50600080546200005f9062000282565b90506001819055505062000371565b8280546200007c9062000282565b90600052602060002090601f016020900481019282620000a05760008555620000ec565b82601f10620000bb57805160ff1916838001178555620000ec565b82800160010185558215620000ec579182015b82811115620000eb578251825591602001919060010190620000ce565b5b509050620000fb9190620000ff565b5090565b5b808211156200011a57600081600090555060010162000100565b5090565b6000620001356200012f8462000216565b620001ed565b90508281526020810184848401111562000154576200015362000351565b5b620001618482856200024c565b509392505050565b600082601f8301126200018157620001806200034c565b5b8151620001938482602086016200011e565b91505092915050565b600060208284031215620001b557620001b46200035b565b5b600082015167ffffffffffffffff811115620001d657620001d562000356565b5b620001e48482850162000169565b91505092915050565b6000620001f96200020c565b9050620002078282620002b8565b919050565b6000604051905090565b600067ffffffffffffffff8211156200023457620002336200031d565b5b6200023f8262000360565b9050602081019050919050565b60005b838110156200026c5780820151818401526020810190506200024f565b838111156200027c576000848401525b50505050565b600060028204905060018216806200029b57607f821691505b60208210811415620002b257620002b1620002ee565b5b50919050565b620002c38262000360565b810181811067ffffffffffffffff82111715620002e557620002e46200031d565b5b80604052505050565b7f4e487b7100000000000000000000000000000000000000000000000000000000600052602260045260246000fd5b7f4e487b7100000000000000000000000000000000000000000000000000000000600052604160045260246000fd5b600080fd5b600080fd5b600080fd5b600080fd5b6000601f19601f8301169050919050565b610a7680620003816000396000f3fe608060405234801561001057600080fd5b506004361061004c5760003560e01c80634a90be5714610051578063b587e20a1461006f578063b8c9e4ed1461009f578063f5db08d9146100bd575b600080fd5b6100596100ed565b6040516100669190610724565b60405180910390f35b610089600480360381019061008491906105b1565b6100f7565b60405161009691906106e7565b60405180910390f35b6100a761011f565b6040516100b49190610702565b60405180910390f35b6100d760048036038101906100d291906105b1565b6101b1565b6040516100e49190610702565b60405180910390f35b6000600154905090565b60008060405161010791906106d0565b60405180910390208280519060200120149050919050565b60606000805461012e906108b3565b80601f016020809104026020016040519081016040528092919081815260200182805461015a906108b3565b80156101a75780601f1061017c576101008083540402835291602001916101a7565b820191906000526020600020905b81548152906001019060200180831161018a57829003601f168201915b5050505050905090565b60608060008060015467ffffffffffffffff8111156101d3576101d26109ec565b5b6040519080825280601f01601f1916602001820160405280156102055781602001600182028036833780820191505090505b5090506000600190505b60015481116103e3576102ad81826000805461022a906108b3565b80601f0160208091040260200160405190810160405280929190818152602001828054610256906108b3565b80156102a35780601f10610278576101008083540402835291602001916102a3565b820191906000526020600020905b81548152906001019060200180831161028657829003601f168201915b505050505061042c565b935085805190602001208480519060200120141561032b57836000815181106102d9576102d86109bd565b5b602001015160f81c60f81b8284815181106102f7576102f66109bd565b5b60200101907effffffffffffffffffffffffffffffffffffffffffffffffffffffffffffff1916908160001a9053506103c2565b6040518060400160405280600181526020017f2d00000000000000000000000000000000000000000000000000000000000000815250600081518110610374576103736109bd565b5b602001015160f81c60f81b828481518110610392576103916109bd565b5b60200101907effffffffffffffffffffffffffffffffffffffffffffffffffffffffffffff1916908160001a9053505b82806103cd90610916565b93505080806103db90610916565b91505061020f565b5060008190507fe0946fc24725e44d3504b73816ee9a9bad8140f33101592fc0590d704d049518816040516104189190610702565b60405180910390a180945050505050919050565b606060006001858561043e9190610827565b61044891906107d1565b67ffffffffffffffff811115610461576104606109ec565b5b6040519080825280601f01601f1916602001820160405280156104935781602001600182028036833780820191505090505b50905060005b85856104a59190610827565b81116105355783600187836104ba91906107d1565b6104c49190610827565b815181106104d5576104d46109bd565b5b602001015160f81c60f81b8282815181106104f3576104f26109bd565b5b60200101907effffffffffffffffffffffffffffffffffffffffffffffffffffffffffffff1916908160001a905350808061052d90610916565b915050610499565b50809150509392505050565b600061055461054f84610764565b61073f565b9050828152602081018484840111156105705761056f610a20565b5b61057b848285610871565b509392505050565b600082601f83011261059857610597610a1b565b5b81356105a8848260208601610541565b91505092915050565b6000602082840312156105c7576105c6610a2a565b5b600082013567ffffffffffffffff8111156105e5576105e4610a25565b5b6105f184828501610583565b91505092915050565b6106038161085b565b82525050565b60008154610616816108b3565b61062081866107b5565b9450600182166000811461063b576001811461064c5761067f565b60ff1983168652818601935061067f565b61065585610795565b60005b8381101561067757815481890152600182019150602081019050610658565b838801955050505b50505092915050565b6000610693826107aa565b61069d81856107c0565b93506106ad818560208601610880565b6106b681610a2f565b840191505092915050565b6106ca81610867565b82525050565b60006106dc8284610609565b915081905092915050565b60006020820190506106fc60008301846105fa565b92915050565b6000602082019050818103600083015261071c8184610688565b905092915050565b600060208201905061073960008301846106c1565b92915050565b600061074961075a565b905061075582826108e5565b919050565b6000604051905090565b600067ffffffffffffffff82111561077f5761077e6109ec565b5b61078882610a2f565b9050602081019050919050565b60008190508160005260206000209050919050565b600081519050919050565b600081905092915050565b600082825260208201905092915050565b60006107dc82610867565b91506107e783610867565b9250827fffffffffffffffffffffffffffffffffffffffffffffffffffffffffffffffff0382111561081c5761081b61095f565b5b828201905092915050565b600061083282610867565b915061083d83610867565b9250828210156108505761084f61095f565b5b828203905092915050565b60008115159050919050565b6000819050919050565b82818337600083830152505050565b60005b8381101561089e578082015181840152602081019050610883565b838111156108ad576000848401525b50505050565b600060028204905060018216806108cb57607f821691505b602082108114156108df576108de61098e565b5b50919050565b6108ee82610a2f565b810181811067ffffffffffffffff8211171561090d5761090c6109ec565b5b80604052505050565b600061092182610867565b91507fffffffffffffffffffffffffffffffffffffffffffffffffffffffffffffffff8214156109545761095361095f565b5b600182019050919050565b7f4e487b7100000000000000000000000000000000000000000000000000000000600052601160045260246000fd5b7f4e487b7100000000000000000000000000000000000000000000000000000000600052602260045260246000fd5b7f4e487b7100000000000000000000000000000000000000000000000000000000600052603260045260246000fd5b7f4e487b7100000000000000000000000000000000000000000000000000000000600052604160045260246000fd5b600080fd5b600080fd5b600080fd5b600080fd5b6000601f19601f830116905091905056fea264697066735822122007de105ddd5bb8c4b68915f93dec8a05c9bbbda7049a4324f7d9c8144d42c8ce64736f6c63430008070033a2646970667358221220525e2fc51a29283485ab4bd91042b3cb1e8b0dc454ddf3718acc9f1e4d5e548064736f6c63430008070033608060405260006007553480156200001657600080fd5b506040518060400160405280600881526020017f48617362754e46540000000000000000000000000000000000000000000000008152506040518060400160405280600381526020017f484153000000000000000000000000000000000000000000000000000000000081525081600090805190602001906200009b929190620000fe565b508060019080519060200190620000b4929190620000fe565b50505033600660006101000a81548173ffffffffffffffffffffffffffffffffffffffff021916908373ffffffffffffffffffffffffffffffffffffffff16021790555062000213565b8280546200010c90620001ae565b90600052602060002090601f0160209004810192826200013057600085556200017c565b82601f106200014b57805160ff19168380011785556200017c565b828001600101855582156200017c579182015b828111156200017b5782518255916020019190600101906200015e565b5b5090506200018b91906200018f565b5090565b5b80821115620001aa57600081600090555060010162000190565b5090565b60006002820490506001821680620001c757607f821691505b60208210811415620001de57620001dd620001e4565b5b50919050565b7f4e487b7100000000000000000000000000000000000000000000000000000000600052602260045260246000fd5b6125c580620002236000396000f3fe608060405234801561001057600080fd5b50600436106101005760003560e01c806370a0823111610097578063b88d4fde11610066578063b88d4fde146102bf578063c87b56dd146102db578063e985e9c51461030b578063f2fde38b1461033b57610100565b806370a08231146102375780638da5cb5b1461026757806395d89b4114610285578063a22cb465146102a357610100565b806323b872dd116100d357806323b872dd1461019f57806342842e0e146101bb5780636352211e146101d75780636a6278421461020757610100565b806301ffc9a71461010557806306fdde0314610135578063081812fc14610153578063095ea7b314610183575b600080fd5b61011f600480360381019061011a9190611989565b610357565b60405161012c9190611cba565b60405180910390f35b61013d610439565b60405161014a9190611cd5565b60405180910390f35b61016d600480360381019061016891906119e3565b6104cb565b60405161017a9190611c53565b60405180910390f35b61019d60048036038101906101989190611949565b610511565b005b6101b960048036038101906101b49190611833565b610629565b005b6101d560048036038101906101d09190611833565b610689565b005b6101f160048036038101906101ec91906119e3565b6106a9565b6040516101fe9190611c53565b60405180910390f35b610221600480360381019061021c91906117c6565b61075b565b60405161022e9190611e77565b60405180910390f35b610251600480360381019061024c91906117c6565b610843565b60405161025e9190611e77565b60405180910390f35b61026f6108fb565b60405161027c9190611c53565b60405180910390f35b61028d610921565b60405161029a9190611cd5565b60405180910390f35b6102bd60048036038101906102b89190611909565b6109b3565b005b6102d960048036038101906102d49190611886565b6109c9565b005b6102f560048036038101906102f091906119e3565b610a2b565b6040516103029190611cd5565b60405180910390f35b610325600480360381019061032091906117f3565b610a95565b6040516103329190611cba565b60405180910390f35b610355600480360381019061035091906117c6565b610b29565b005b60007f80ac58cd000000000000000000000000000000000000000000000000000000007bffffffffffffffffffffffffffffffffffffffffffffffffffffffff1916827bffffffffffffffffffffffffffffffffffffffffffffffffffffffff1916148061042257507f5b5e139f000000000000000000000000000000000000000000000000000000007bffffffffffffffffffffffffffffffffffffffffffffffffffffffff1916827bffffffffffffffffffffffffffffffffffffffffffffffffffffffff1916145b80610432575061043182610c7d565b5b9050919050565b60606000805461044890612060565b80601f016020809104026020016040519081016040528092919081815260200182805461047490612060565b80156104c15780601f10610496576101008083540402835291602001916104c1565b820191906000526020600020905b8154815290600101906020018083116104a457829003601f168201915b5050505050905090565b60006104d682610ce7565b6004600083815260200190815260200160002060009054906101000a900473ffffffffffffffffffffffffffffffffffffffff169050919050565b600061051c826106a9565b90508073ffffffffffffffffffffffffffffffffffffffff168373ffffffffffffffffffffffffffffffffffffffff16141561058d576040517f08c379a000000000000000000000000000000000000000000000000000000000815260040161058490611e37565b60405180910390fd5b8073ffffffffffffffffffffffffffffffffffffffff166105ac610d32565b73ffffffffffffffffffffffffffffffffffffffff1614806105db57506105da816105d5610d32565b610a95565b5b61061a576040517f08c379a000000000000000000000000000000000000000000000000000000000815260040161061190611db7565b60405180910390fd5b6106248383610d3a565b505050565b61063a610634610d32565b82610df3565b610679576040517f08c379a000000000000000000000000000000000000000000000000000000000815260040161067090611e57565b60405180910390fd5b610684838383610e88565b505050565b6106a4838383604051806020016040528060008152506109c9565b505050565b6000806002600084815260200190815260200160002060009054906101000a900473ffffffffffffffffffffffffffffffffffffffff169050600073ffffffffffffffffffffffffffffffffffffffff168173ffffffffffffffffffffffffffffffffffffffff161415610752576040517f08c379a000000000000000000000000000000000000000000000000000000000815260040161074990611e17565b60405180910390fd5b80915050919050565b6000600660009054906101000a900473ffffffffffffffffffffffffffffffffffffffff1673ffffffffffffffffffffffffffffffffffffffff163373ffffffffffffffffffffffffffffffffffffffff16146107b757600080fd5b600760008154809291906107ca906120c3565b91905055506107db8260075461111a565b6007548273ffffffffffffffffffffffffffffffffffffffff16600073ffffffffffffffffffffffffffffffffffffffff167fddf252ad1be2c89b69c2b068fc378daa952ba7f163c4a11628f55a4df523b3ef60405160405180910390a46007549050919050565b60008073ffffffffffffffffffffffffffffffffffffffff168273ffffffffffffffffffffffffffffffffffffffff1614156108b4576040517f08c379a00000000000000000000000000000000000000000000000000000000081526004016108ab90611d97565b60405180910390fd5b600360008373ffffffffffffffffffffffffffffffffffffffff1673ffffffffffffffffffffffffffffffffffffffff168152602001908152602001600020549050919050565b600660009054906101000a900473ffffffffffffffffffffffffffffffffffffffff1681565b60606001805461093090612060565b80601f016020809104026020016040519081016040528092919081815260200182805461095c90612060565b80156109a95780601f1061097e576101008083540402835291602001916109a9565b820191906000526020600020905b81548152906001019060200180831161098c57829003601f168201915b5050505050905090565b6109c56109be610d32565b83836112f4565b5050565b6109da6109d4610d32565b83610df3565b610a19576040517f08c379a0000000000000000000000000000000000000000000000000000000008152600401610a1090611e57565b60405180910390fd5b610a2584848484611461565b50505050565b6060610a36826114bd565b610a75576040517f08c379a0000000000000000000000000000000000000000000000000000000008152600401610a6c90611df7565b60405180910390fd5b604051806080016040528060598152602001612537605991399050919050565b6000600560008473ffffffffffffffffffffffffffffffffffffffff1673ffffffffffffffffffffffffffffffffffffffff16815260200190815260200160002060008373ffffffffffffffffffffffffffffffffffffffff1673ffffffffffffffffffffffffffffffffffffffff16815260200190815260200160002060009054906101000a900460ff16905092915050565b600660009054906101000a900473ffffffffffffffffffffffffffffffffffffffff1673ffffffffffffffffffffffffffffffffffffffff163373ffffffffffffffffffffffffffffffffffffffff1614610b8357600080fd5b600073ffffffffffffffffffffffffffffffffffffffff168173ffffffffffffffffffffffffffffffffffffffff161415610bbd57600080fd5b8073ffffffffffffffffffffffffffffffffffffffff16600660009054906101000a900473ffffffffffffffffffffffffffffffffffffffff1673ffffffffffffffffffffffffffffffffffffffff167f8be0079c531659141344cd1fd0a4f28419497f9722a3daafe3b4186f6b6457e060405160405180910390a380600660006101000a81548173ffffffffffffffffffffffffffffffffffffffff021916908373ffffffffffffffffffffffffffffffffffffffff16021790555050565b60007f01ffc9a7000000000000000000000000000000000000000000000000000000007bffffffffffffffffffffffffffffffffffffffffffffffffffffffff1916827bffffffffffffffffffffffffffffffffffffffffffffffffffffffff1916149050919050565b610cf0816114bd565b610d2f576040517f08c379a0000000000000000000000000000000000000000000000000000000008152600401610d2690611e17565b60405180910390fd5b50565b600033905090565b816004600083815260200190815260200160002060006101000a81548173ffffffffffffffffffffffffffffffffffffffff021916908373ffffffffffffffffffffffffffffffffffffffff160217905550808273ffffffffffffffffffffffffffffffffffffffff16610dad836106a9565b73ffffffffffffffffffffffffffffffffffffffff167f8c5be1e5ebec7d5bd14f71427d1e84f3dd0314c0f7b2291e5b200ac8c7c3b92560405160405180910390a45050565b600080610dff836106a9565b90508073ffffffffffffffffffffffffffffffffffffffff168473ffffffffffffffffffffffffffffffffffffffff161480610e415750610e408185610a95565b5b80610e7f57508373ffffffffffffffffffffffffffffffffffffffff16610e67846104cb565b73ffffffffffffffffffffffffffffffffffffffff16145b91505092915050565b8273ffffffffffffffffffffffffffffffffffffffff16610ea8826106a9565b73ffffffffffffffffffffffffffffffffffffffff1614610efe576040517f08c379a0000000000000000000000000000000000000000000000000000000008152600401610ef590611d17565b60405180910390fd5b600073ffffffffffffffffffffffffffffffffffffffff168273ffffffffffffffffffffffffffffffffffffffff161415610f6e576040517f08c379a0000000000000000000000000000000000000000000000000000000008152600401610f6590611d57565b60405180910390fd5b610f79838383611529565b6004600082815260200190815260200160002060006101000a81549073ffffffffffffffffffffffffffffffffffffffff02191690556001600360008573ffffffffffffffffffffffffffffffffffffffff1673ffffffffffffffffffffffffffffffffffffffff1681526020019081526020016000206000828254610fff9190611f76565b925050819055506001600360008473ffffffffffffffffffffffffffffffffffffffff1673ffffffffffffffffffffffffffffffffffffffff16815260200190815260200160002060008282546110569190611f20565b92505081905550816002600083815260200190815260200160002060006101000a81548173ffffffffffffffffffffffffffffffffffffffff021916908373ffffffffffffffffffffffffffffffffffffffff160217905550808273ffffffffffffffffffffffffffffffffffffffff168473ffffffffffffffffffffffffffffffffffffffff167fddf252ad1be2c89b69c2b068fc378daa952ba7f163c4a11628f55a4df523b3ef60405160405180910390a461111583838361152e565b505050565b600073ffffffffffffffffffffffffffffffffffffffff168273ffffffffffffffffffffffffffffffffffffffff16141561118a576040517f08c379a000000000000000000000000000000000000000000000000000000000815260040161118190611dd7565b60405180910390fd5b611193816114bd565b156111d3576040517f08c379a00000000000000000000000000000000000000000000000000000000081526004016111ca90611d37565b60405180910390fd5b6111df60008383611529565b6001600360008473ffffffffffffffffffffffffffffffffffffffff1673ffffffffffffffffffffffffffffffffffffffff168152602001908152602001600020600082825461122f9190611f20565b92505081905550816002600083815260200190815260200160002060006101000a81548173ffffffffffffffffffffffffffffffffffffffff021916908373ffffffffffffffffffffffffffffffffffffffff160217905550808273ffffffffffffffffffffffffffffffffffffffff16600073ffffffffffffffffffffffffffffffffffffffff167fddf252ad1be2c89b69c2b068fc378daa952ba7f163c4a11628f55a4df523b3ef60405160405180910390a46112f06000838361152e565b5050565b8173ffffffffffffffffffffffffffffffffffffffff168373ffffffffffffffffffffffffffffffffffffffff161415611363576040517f08c379a000000000000000000000000000000000000000000000000000000000815260040161135a90611d77565b60405180910390fd5b80600560008573ffffffffffffffffffffffffffffffffffffffff1673ffffffffffffffffffffffffffffffffffffffff16815260200190815260200160002060008473ffffffffffffffffffffffffffffffffffffffff1673ffffffffffffffffffffffffffffffffffffffff16815260200190815260200160002060006101000a81548160ff0219169083151502179055508173ffffffffffffffffffffffffffffffffffffffff168373ffffffffffffffffffffffffffffffffffffffff167f17307eab39ab6107e8899845ad3d59bd9653f200f220920489ca2b5937696c31836040516114549190611cba565b60405180910390a3505050565b61146c848484610e88565b61147884848484611533565b6114b7576040517f08c379a00000000000000000000000000000000000000000000000000000000081526004016114ae90611cf7565b60405180910390fd5b50505050565b60008073ffffffffffffffffffffffffffffffffffffffff166002600084815260200190815260200160002060009054906101000a900473ffffffffffffffffffffffffffffffffffffffff1673ffffffffffffffffffffffffffffffffffffffff1614159050919050565b505050565b505050565b60006115548473ffffffffffffffffffffffffffffffffffffffff166116ca565b156116bd578373ffffffffffffffffffffffffffffffffffffffff1663150b7a0261157d610d32565b8786866040518563ffffffff1660e01b815260040161159f9493929190611c6e565b602060405180830381600087803b1580156115b957600080fd5b505af19250505080156115ea57506040513d601f19601f820116820180604052508101906115e791906119b6565b60015b61166d573d806000811461161a576040519150601f19603f3d011682016040523d82523d6000602084013e61161f565b606091505b50600081511415611665576040517f08c379a000000000000000000000000000000000000000000000000000000000815260040161165c90611cf7565b60405180910390fd5b805181602001fd5b63150b7a0260e01b7bffffffffffffffffffffffffffffffffffffffffffffffffffffffff1916817bffffffffffffffffffffffffffffffffffffffffffffffffffffffff1916149150506116c2565b600190505b949350505050565b6000808273ffffffffffffffffffffffffffffffffffffffff163b119050919050565b60006117006116fb84611eb7565b611e92565b90508281526020810184848401111561171c5761171b61219e565b5b61172784828561201e565b509392505050565b60008135905061173e816124da565b92915050565b600081359050611753816124f1565b92915050565b60008135905061176881612508565b92915050565b60008151905061177d81612508565b92915050565b600082601f83011261179857611797612199565b5b81356117a88482602086016116ed565b91505092915050565b6000813590506117c08161251f565b92915050565b6000602082840312156117dc576117db6121a8565b5b60006117ea8482850161172f565b91505092915050565b6000806040838503121561180a576118096121a8565b5b60006118188582860161172f565b92505060206118298582860161172f565b9150509250929050565b60008060006060848603121561184c5761184b6121a8565b5b600061185a8682870161172f565b935050602061186b8682870161172f565b925050604061187c868287016117b1565b9150509250925092565b600080600080608085870312156118a05761189f6121a8565b5b60006118ae8782880161172f565b94505060206118bf8782880161172f565b93505060406118d0878288016117b1565b925050606085013567ffffffffffffffff8111156118f1576118f06121a3565b5b6118fd87828801611783565b91505092959194509250565b600080604083850312156119205761191f6121a8565b5b600061192e8582860161172f565b925050602061193f85828601611744565b9150509250929050565b600080604083850312156119605761195f6121a8565b5b600061196e8582860161172f565b925050602061197f858286016117b1565b9150509250929050565b60006020828403121561199f5761199e6121a8565b5b60006119ad84828501611759565b91505092915050565b6000602082840312156119cc576119cb6121a8565b5b60006119da8482850161176e565b91505092915050565b6000602082840312156119f9576119f86121a8565b5b6000611a07848285016117b1565b91505092915050565b611a1981611faa565b82525050565b611a2881611fbc565b82525050565b6000611a3982611ee8565b611a438185611efe565b9350611a5381856020860161202d565b611a5c816121ad565b840191505092915050565b6000611a7282611ef3565b611a7c8185611f0f565b9350611a8c81856020860161202d565b611a95816121ad565b840191505092915050565b6000611aad603283611f0f565b9150611ab8826121be565b604082019050919050565b6000611ad0602583611f0f565b9150611adb8261220d565b604082019050919050565b6000611af3601c83611f0f565b9150611afe8261225c565b602082019050919050565b6000611b16602483611f0f565b9150611b2182612285565b604082019050919050565b6000611b39601983611f0f565b9150611b44826122d4565b602082019050919050565b6000611b5c602983611f0f565b9150611b67826122fd565b604082019050919050565b6000611b7f603e83611f0f565b9150611b8a8261234c565b604082019050919050565b6000611ba2602083611f0f565b9150611bad8261239b565b602082019050919050565b6000611bc5602f83611f0f565b9150611bd0826123c4565b604082019050919050565b6000611be8601883611f0f565b9150611bf382612413565b602082019050919050565b6000611c0b602183611f0f565b9150611c168261243c565b604082019050919050565b6000611c2e602e83611f0f565b9150611c398261248b565b604082019050919050565b611c4d81612014565b82525050565b6000602082019050611c686000830184611a10565b92915050565b6000608082019050611c836000830187611a10565b611c906020830186611a10565b611c9d6040830185611c44565b8181036060830152611caf8184611a2e565b905095945050505050565b6000602082019050611ccf6000830184611a1f565b92915050565b60006020820190508181036000830152611cef8184611a67565b905092915050565b60006020820190508181036000830152611d1081611aa0565b9050919050565b60006020820190508181036000830152611d3081611ac3565b9050919050565b60006020820190508181036000830152611d5081611ae6565b9050919050565b60006020820190508181036000830152611d7081611b09565b9050919050565b60006020820190508181036000830152611d9081611b2c565b9050919050565b60006020820190508181036000830152611db081611b4f565b9050919050565b60006020820190508181036000830152611dd081611b72565b9050919050565b60006020820190508181036000830152611df081611b95565b9050919050565b60006020820190508181036000830152611e1081611bb8565b9050919050565b60006020820190508181036000830152611e3081611bdb565b9050919050565b60006020820190508181036000830152611e5081611bfe565b9050919050565b60006020820190508181036000830152611e7081611c21565b9050919050565b6000602082019050611e8c6000830184611c44565b92915050565b6000611e9c611ead565b9050611ea88282612092565b919050565b6000604051905090565b600067ffffffffffffffff821115611ed257611ed161216a565b5b611edb826121ad565b9050602081019050919050565b600081519050919050565b600081519050919050565b600082825260208201905092915050565b600082825260208201905092915050565b6000611f2b82612014565b9150611f3683612014565b9250827fffffffffffffffffffffffffffffffffffffffffffffffffffffffffffffffff03821115611f6b57611f6a61210c565b5b828201905092915050565b6000611f8182612014565b9150611f8c83612014565b925082821015611f9f57611f9e61210c565b5b828203905092915050565b6000611fb582611ff4565b9050919050565b60008115159050919050565b60007fffffffff0000000000000000000000000000000000000000000000000000000082169050919050565b600073ffffffffffffffffffffffffffffffffffffffff82169050919050565b6000819050919050565b82818337600083830152505050565b60005b8381101561204b578082015181840152602081019050612030565b8381111561205a576000848401525b50505050565b6000600282049050600182168061207857607f821691505b6020821081141561208c5761208b61213b565b5b50919050565b61209b826121ad565b810181811067ffffffffffffffff821117156120ba576120b961216a565b5b80604052505050565b60006120ce82612014565b91507fffffffffffffffffffffffffffffffffffffffffffffffffffffffffffffffff8214156121015761210061210c565b5b600182019050919050565b7f4e487b7100000000000000000000000000000000000000000000000000000000600052601160045260246000fd5b7f4e487b7100000000000000000000000000000000000000000000000000000000600052602260045260246000fd5b7f4e487b7100000000000000000000000000000000000000000000000000000000600052604160045260246000fd5b600080fd5b600080fd5b600080fd5b600080fd5b6000601f19601f8301169050919050565b7f4552433732313a207472616e7366657220746f206e6f6e20455243373231526560008201527f63656976657220696d706c656d656e7465720000000000000000000000000000602082015250565b7f4552433732313a207472616e736665722066726f6d20696e636f72726563742060008201527f6f776e6572000000000000000000000000000000000000000000000000000000602082015250565b7f4552433732313a20746f6b656e20616c7265616479206d696e74656400000000600082015250565b7f4552433732313a207472616e7366657220746f20746865207a65726f2061646460008201527f7265737300000000000000000000000000000000000000000000000000000000602082015250565b7f4552433732313a20617070726f766520746f2063616c6c657200000000000000600082015250565b7f4552433732313a2061646472657373207a65726f206973206e6f74206120766160008201527f6c6964206f776e65720000000000000000000000000000000000000000000000602082015250565b7f4552433732313a20617070726f76652063616c6c6572206973206e6f7420746f60008201527f6b656e206f776e6572206e6f7220617070726f76656420666f7220616c6c0000602082015250565b7f4552433732313a206d696e7420746f20746865207a65726f2061646472657373600082015250565b7f4552433732314d657461646174613a2055524920717565727920666f72206e6f60008201527f6e6578697374656e7420746f6b656e0000000000000000000000000000000000602082015250565b7f4552433732313a20696e76616c696420746f6b656e2049440000000000000000600082015250565b7f4552433732313a20617070726f76616c20746f2063757272656e74206f776e6560008201527f7200000000000000000000000000000000000000000000000000000000000000602082015250565b7f4552433732313a2063616c6c6572206973206e6f7420746f6b656e206f776e6560008201527f72206e6f7220617070726f766564000000000000000000000000000000000000602082015250565b6124e381611faa565b81146124ee57600080fd5b50565b6124fa81611fbc565b811461250557600080fd5b50565b61251181611fc8565b811461251c57600080fd5b50565b61252881612014565b811461253357600080fd5b5056fe68747470733a2f2f6261666b726569616778347274626b6d7573337a6c716a6a347735336e666c613665686670343773747937676b32687433756b72697164753376342e697066732e6e667473746f726167652e6c696e6b2fa2646970667358221220f9e4f23cc70a446d480f5a23b86ce1594548ebce9bd5c2c2158d566effbdb65764736f6c63430008070033",
  "immutableReferences": {},
  "source": "import \"./Word.sol\";\r\nimport \"./Ownable.sol\";\r\nimport \"./HasbuToken.sol\";\r\n\r\n// SPDX-License-Identifier: GPL-3.0\r\npragma solidity >=0.6.0  <0.9.0;\r\n\r\n// solo lo puede llamar jugador\r\n\r\n\r\ncontract Juego is Ownable{\r\n    mapping(address => uint) idByAddress;\r\n    mapping(address => address) wordOwner;\r\n    uint256 randNonce = 0;\r\n\r\n    HasbuToken NFT;\r\n    address[] private words;\r\n    uint256 private idCount = 1; // ID 1 sera el id del juego, para las palabras creadas por el mismo juego\r\n    \r\n     modifier onlyJugador(){\r\n        require(idByAddress[msg.sender] != 0, \"aca maestro\");\r\n        _;\r\n    }\r\n\r\n    event AddressWord(address add);\r\n    event NFTMinted(address from, address to, uint256 id);\r\n\r\n\r\n    constructor() {\r\n        NFT = new HasbuToken();\r\n        idByAddress[msg.sender] = 1;\r\n    }\r\n\r\n    function mint(address to) public onlyJugador{\r\n        uint256 id = NFT.mint(to);\r\n        emit NFTMinted(address(0), to, id);\r\n    }\r\n\r\n   function crearJugador() public{\r\n       idCount++;\r\n       idByAddress[msg.sender] = idCount;\r\n   }\r\n\r\n   function getID() public view onlyJugador returns(uint){\r\n        return idByAddress[msg.sender];\r\n   }\r\n\r\n   function _crearPalabra(address add) public onlyOwner{\r\n    wordOwner[add] = msg.sender;\r\n    words.push(add);\r\n   }\r\n\r\n    function crearPalabra(string memory str) public onlyJugador{\r\n        // Modificador: solo id jugador puede llamar a esto\r\n        Word word = new Word(str);\r\n        wordOwner[address(word)] = msg.sender;\r\n        words.push(address(word));\r\n    }\r\n\r\n\r\n    function _elegirPalabra(address sender) private returns(address){\r\n        require(words.length > 0); // Nos fijamos que haya alguna palabra antes\r\n        uint indice = uint(keccak256(abi.encodePacked(randNonce, block.timestamp, sender))) %  words.length ;\r\n        randNonce++;\r\n        address addWord = words[indice];\r\n        require(wordOwner[addWord] != sender); // me fijo que la palabra asignada no sea creada por el jugador\r\n        emit AddressWord(addWord);\r\n        return addWord;\r\n    }\r\n\r\n    function elegirPalabra() public onlyJugador returns(address){\r\n        return _elegirPalabra(msg.sender);\r\n    }\r\n\r\n    function ping() public pure returns (string memory){\r\n        return \"pong\";\r\n    }\r\n\r\n    fallback() external payable{}\r\n    receive() external payable{}\r\n    \r\n}",
  "sourcePath": "C:\\Users\\Manu\\Desktop\\tp TDL\\clonado19 1554\\tdl-solidity\\contracts\\Juego.sol",
  "compiler": {
    "name": "solc",
    "version": "0.8.7+commit.e28d00a7.Emscripten.clang"
  },
  "schemaVersion": "3.4.7",
  "updatedAt": "2022-07-20T17:03:51.145Z",
  "networkType": "ethereum",
  "devdoc": {
    "kind": "dev",
    "methods": {
      "transferOwnership(address)": {
        "details": "Allows the current owner to transfer control of the contract to a newOwner.",
        "params": {
          "newOwner": "The address to transfer ownership to."
        }
      }
    },
    "version": 1
  },
  "userdoc": {
    "kind": "user",
    "methods": {},
    "version": 1
  }
}