{
  "contractName": "Juego",
  "abi": [
    {
      "inputs": [],
      "stateMutability": "nonpayable",
      "type": "constructor"
    },
    {
      "stateMutability": "payable",
      "type": "fallback",
      "payable": true
    },
    {
      "stateMutability": "payable",
      "type": "receive",
      "payable": true
    },
    {
      "inputs": [],
      "name": "crearJugador",
      "outputs": [
        {
          "internalType": "uint256",
          "name": "",
          "type": "uint256"
        }
      ],
      "stateMutability": "nonpayable",
      "type": "function"
    },
    {
      "inputs": [
        {
          "internalType": "string",
          "name": "str",
          "type": "string"
        },
        {
          "internalType": "uint256",
          "name": "id",
          "type": "uint256"
        }
      ],
      "name": "_crearPalabra",
      "outputs": [
        {
          "internalType": "uint256",
          "name": "",
          "type": "uint256"
        }
      ],
      "stateMutability": "nonpayable",
      "type": "function"
    },
    {
      "inputs": [
        {
          "internalType": "uint256",
          "name": "id",
          "type": "uint256"
        }
      ],
      "name": "elegirPalabra",
      "outputs": [
        {
          "internalType": "contract Word",
          "name": "",
          "type": "address"
        }
      ],
      "stateMutability": "nonpayable",
      "type": "function"
    },
    {
      "inputs": [
        {
          "internalType": "uint256",
          "name": "id",
          "type": "uint256"
        }
      ],
      "name": "hasbuBalance",
      "outputs": [
        {
          "internalType": "uint256",
          "name": "",
          "type": "uint256"
        }
      ],
      "stateMutability": "view",
      "type": "function",
      "constant": true
    },
    {
      "inputs": [],
      "name": "ping",
      "outputs": [
        {
          "internalType": "string",
          "name": "",
          "type": "string"
        }
      ],
      "stateMutability": "view",
      "type": "function",
      "constant": true
    }
  ],
  "bytecode": "0x60806040526000600355600560045560016006553480156200002057600080fd5b5060006040518061014001604052806040518060400160405280600781526020017f6d616e6461746f0000000000000000000000000000000000000000000000000081525081526020016040518060400160405280600681526020017f7175697a6173000000000000000000000000000000000000000000000000000081525081526020016040518060400160405280600481526020017f617965720000000000000000000000000000000000000000000000000000000081525081526020016040518060400160405280600881526020017f6d69656e7472617300000000000000000000000000000000000000000000000081525081526020016040518060400160405280600781526020017f736f6c6561646f0000000000000000000000000000000000000000000000000081525081526020016040518060400160405280600981526020017f6d61726176696c6c61000000000000000000000000000000000000000000000081525081526020016040518060400160405280600681526020017f61737475746f000000000000000000000000000000000000000000000000000081525081526020016040518060400160405280600581526020017f7261746f6e00000000000000000000000000000000000000000000000000000081525081526020016040518060400160405280600781526020017f6d7564616e7a610000000000000000000000000000000000000000000000000081525081526020016040518060400160405280600881526020017f6c6c6567616e646f000000000000000000000000000000000000000000000000815250815250905060008060003073ffffffffffffffffffffffffffffffffffffffff1673ffffffffffffffffffffffffffffffffffffffff1681526020019081526020016000208190555060005b600a8110156200031257620002fb8282600a8110620002e857620002e76200051e565b5b602002015160006200038660201b60201c565b508080620003099062000586565b915050620002c4565b50604051620003219062000502565b604051809103906000f0801580156200033e573d6000803e3d6000fd5b50600260006101000a81548173ffffffffffffffffffffffffffffffffffffffff021916908373ffffffffffffffffffffffffffffffffffffffff160217905550506200069b565b600081806000803373ffffffffffffffffffffffffffffffffffffffff1673ffffffffffffffffffffffffffffffffffffffff1681526020019081526020016000205414620003d457600080fd5b600084604051620003e59062000510565b620003f1919062000677565b604051809103906000f0801580156200040e573d6000803e3d6000fd5b50905033600160008373ffffffffffffffffffffffffffffffffffffffff1673ffffffffffffffffffffffffffffffffffffffff16815260200190815260200160002060006101000a81548173ffffffffffffffffffffffffffffffffffffffff021916908373ffffffffffffffffffffffffffffffffffffffff1602179055506005819080600181540180825580915050600190039060005260206000200160009091909190916101000a81548173ffffffffffffffffffffffffffffffffffffffff021916908373ffffffffffffffffffffffffffffffffffffffff1602179055506005805490509250505092915050565b612aef806200277683390190565b610ff8806200526583390190565b7f4e487b7100000000000000000000000000000000000000000000000000000000600052603260045260246000fd5b7f4e487b7100000000000000000000000000000000000000000000000000000000600052601160045260246000fd5b6000819050919050565b600062000593826200057c565b91507fffffffffffffffffffffffffffffffffffffffffffffffffffffffffffffffff8203620005c857620005c76200054d565b5b600182019050919050565b600081519050919050565b600082825260208201905092915050565b60005b838110156200060f578082015181840152602081019050620005f2565b838111156200061f576000848401525b50505050565b6000601f19601f8301169050919050565b60006200064382620005d3565b6200064f8185620005de565b935062000661818560208601620005ef565b6200066c8162000625565b840191505092915050565b6000602082019050818103600083015262000693818462000636565b905092915050565b6120cb80620006ab6000396000f3fe608060405260043610620000555760003560e01c80632801ba8a146200005f57806347ac0cd414620000a35780635c36b18614620000e7578063ca8eee991462000117578063fe1c2543146200015b576200005d565b366200005d57005b005b3480156200006c57600080fd5b506200008b600480360381019062000085919062000ab4565b6200018b565b6040516200009a919062000b2b565b60405180910390f35b348015620000b057600080fd5b50620000cf6004803603810190620000c9919062000b48565b62000307565b604051620000de919062000c05565b60405180910390f35b348015620000f457600080fd5b50620000ff62000368565b6040516200010e919062000cb5565b60405180910390f35b3480156200012457600080fd5b506200014360048036038101906200013d919062000b48565b620003a5565b60405162000152919062000b2b565b60405180910390f35b3480156200016857600080fd5b50620001736200049c565b60405162000182919062000b2b565b60405180910390f35b600081806000803373ffffffffffffffffffffffffffffffffffffffff1673ffffffffffffffffffffffffffffffffffffffff1681526020019081526020016000205414620001d957600080fd5b600084604051620001ea90620008f5565b620001f6919062000cb5565b604051809103906000f08015801562000213573d6000803e3d6000fd5b50905033600160008373ffffffffffffffffffffffffffffffffffffffff1673ffffffffffffffffffffffffffffffffffffffff16815260200190815260200160002060006101000a81548173ffffffffffffffffffffffffffffffffffffffff021916908373ffffffffffffffffffffffffffffffffffffffff1602179055506005819080600181540180825580915050600190039060005260206000200160009091909190916101000a81548173ffffffffffffffffffffffffffffffffffffffff021916908373ffffffffffffffffffffffffffffffffffffffff1602179055506005805490509250505092915050565b600081806000803373ffffffffffffffffffffffffffffffffffffffff1673ffffffffffffffffffffffffffffffffffffffff16815260200190815260200160002054146200035557600080fd5b62000360336200063f565b915050919050565b60606040518060400160405280600481526020017f706f6e6700000000000000000000000000000000000000000000000000000000815250905090565b600081806000803373ffffffffffffffffffffffffffffffffffffffff1673ffffffffffffffffffffffffffffffffffffffff1681526020019081526020016000205414620003f357600080fd5b600260009054906101000a900473ffffffffffffffffffffffffffffffffffffffff1673ffffffffffffffffffffffffffffffffffffffff166370a08231336040518263ffffffff1660e01b815260040162000450919062000cfe565b602060405180830381865afa1580156200046e573d6000803e3d6000fd5b505050506040513d601f19601f8201168201806040525081019062000494919062000d32565b915050919050565b600060066000815480929190620004b39062000d93565b91905055506006546000803373ffffffffffffffffffffffffffffffffffffffff1673ffffffffffffffffffffffffffffffffffffffff16815260200190815260200160002081905550600260009054906101000a900473ffffffffffffffffffffffffffffffffffffffff1673ffffffffffffffffffffffffffffffffffffffff1663983b2d56336040518263ffffffff1660e01b81526004016200055a919062000cfe565b600060405180830381600087803b1580156200057557600080fd5b505af11580156200058a573d6000803e3d6000fd5b50505050600260009054906101000a900473ffffffffffffffffffffffffffffffffffffffff1673ffffffffffffffffffffffffffffffffffffffff166323b872dd303360326040518463ffffffff1660e01b8152600401620005f09392919062000e23565b6020604051808303816000875af115801562000610573d6000803e3d6000fd5b505050506040513d601f19601f8201168201806040525081019062000636919062000e9d565b50600654905090565b600080600580549050116200065357600080fd5b6005600260009054906101000a900473ffffffffffffffffffffffffffffffffffffffff1673ffffffffffffffffffffffffffffffffffffffff166370a08231846040518263ffffffff1660e01b8152600401620006b2919062000cfe565b602060405180830381865afa158015620006d0573d6000803e3d6000fd5b505050506040513d601f19601f82011682018060405250810190620006f6919062000d32565b10156200070257600080fd5b600260009054906101000a900473ffffffffffffffffffffffffffffffffffffffff1673ffffffffffffffffffffffffffffffffffffffff166323b872dd833060056040518463ffffffff1660e01b8152600401620007649392919062000f12565b6020604051808303816000875af115801562000784573d6000803e3d6000fd5b505050506040513d601f19601f82011682018060405250810190620007aa919062000e9d565b5060006005805490506003544285604051602001620007cc9392919062000fc4565b6040516020818303038152906040528051906020012060001c620007f1919062001036565b905060036000815480929190620008089062000d93565b91905055506000600582815481106200082657620008256200106e565b5b9060005260206000200160009054906101000a900473ffffffffffffffffffffffffffffffffffffffff1690508373ffffffffffffffffffffffffffffffffffffffff16600160008373ffffffffffffffffffffffffffffffffffffffff1673ffffffffffffffffffffffffffffffffffffffff16815260200190815260200160002060009054906101000a900473ffffffffffffffffffffffffffffffffffffffff1673ffffffffffffffffffffffffffffffffffffffff1603620008eb57600080fd5b8092505050919050565b610ff8806200109e83390190565b6000604051905090565b600080fd5b600080fd5b600080fd5b600080fd5b6000601f19601f8301169050919050565b7f4e487b7100000000000000000000000000000000000000000000000000000000600052604160045260246000fd5b6200096c8262000921565b810181811067ffffffffffffffff821117156200098e576200098d62000932565b5b80604052505050565b6000620009a362000903565b9050620009b1828262000961565b919050565b600067ffffffffffffffff821115620009d457620009d362000932565b5b620009df8262000921565b9050602081019050919050565b82818337600083830152505050565b600062000a1262000a0c84620009b6565b62000997565b90508281526020810184848401111562000a315762000a306200091c565b5b62000a3e848285620009ec565b509392505050565b600082601f83011262000a5e5762000a5d62000917565b5b813562000a70848260208601620009fb565b91505092915050565b6000819050919050565b62000a8e8162000a79565b811462000a9a57600080fd5b50565b60008135905062000aae8162000a83565b92915050565b6000806040838503121562000ace5762000acd6200090d565b5b600083013567ffffffffffffffff81111562000aef5762000aee62000912565b5b62000afd8582860162000a46565b925050602062000b108582860162000a9d565b9150509250929050565b62000b258162000a79565b82525050565b600060208201905062000b42600083018462000b1a565b92915050565b60006020828403121562000b615762000b606200090d565b5b600062000b718482850162000a9d565b91505092915050565b600073ffffffffffffffffffffffffffffffffffffffff82169050919050565b6000819050919050565b600062000bc562000bbf62000bb98462000b7a565b62000b9a565b62000b7a565b9050919050565b600062000bd98262000ba4565b9050919050565b600062000bed8262000bcc565b9050919050565b62000bff8162000be0565b82525050565b600060208201905062000c1c600083018462000bf4565b92915050565b600081519050919050565b600082825260208201905092915050565b60005b8381101562000c5e57808201518184015260208101905062000c41565b8381111562000c6e576000848401525b50505050565b600062000c818262000c22565b62000c8d818562000c2d565b935062000c9f81856020860162000c3e565b62000caa8162000921565b840191505092915050565b6000602082019050818103600083015262000cd1818462000c74565b905092915050565b600062000ce68262000b7a565b9050919050565b62000cf88162000cd9565b82525050565b600060208201905062000d15600083018462000ced565b92915050565b60008151905062000d2c8162000a83565b92915050565b60006020828403121562000d4b5762000d4a6200090d565b5b600062000d5b8482850162000d1b565b91505092915050565b7f4e487b7100000000000000000000000000000000000000000000000000000000600052601160045260246000fd5b600062000da08262000a79565b91507fffffffffffffffffffffffffffffffffffffffffffffffffffffffffffffffff820362000dd55762000dd462000d64565b5b600182019050919050565b6000819050919050565b600062000e0b62000e0562000dff8462000de0565b62000b9a565b62000a79565b9050919050565b62000e1d8162000dea565b82525050565b600060608201905062000e3a600083018662000ced565b62000e49602083018562000ced565b62000e58604083018462000e12565b949350505050565b60008115159050919050565b62000e778162000e60565b811462000e8357600080fd5b50565b60008151905062000e978162000e6c565b92915050565b60006020828403121562000eb65762000eb56200090d565b5b600062000ec68482850162000e86565b91505092915050565b6000819050919050565b600062000efa62000ef462000eee8462000ecf565b62000b9a565b62000a79565b9050919050565b62000f0c8162000ed9565b82525050565b600060608201905062000f29600083018662000ced565b62000f38602083018562000ced565b62000f47604083018462000f01565b949350505050565b6000819050919050565b62000f6e62000f688262000a79565b62000f4f565b82525050565b60008160601b9050919050565b600062000f8e8262000f74565b9050919050565b600062000fa28262000f81565b9050919050565b62000fbe62000fb88262000cd9565b62000f95565b82525050565b600062000fd2828662000f59565b60208201915062000fe4828562000f59565b60208201915062000ff6828462000fa9565b601482019150819050949350505050565b7f4e487b7100000000000000000000000000000000000000000000000000000000600052601260045260246000fd5b6000620010438262000a79565b9150620010508362000a79565b92508262001063576200106262001007565b5b828206905092915050565b7f4e487b7100000000000000000000000000000000000000000000000000000000600052603260045260246000fdfe60806040523480156200001157600080fd5b5060405162000ff838038062000ff8833981810160405281019062000037919062000204565b8060009081620000489190620004a0565b506000805462000058906200028f565b90506001819055505062000587565b6000604051905090565b600080fd5b600080fd5b600080fd5b600080fd5b6000601f19601f8301169050919050565b7f4e487b7100000000000000000000000000000000000000000000000000000000600052604160045260246000fd5b620000d08262000085565b810181811067ffffffffffffffff82111715620000f257620000f162000096565b5b80604052505050565b60006200010762000067565b9050620001158282620000c5565b919050565b600067ffffffffffffffff82111562000138576200013762000096565b5b620001438262000085565b9050602081019050919050565b60005b838110156200017057808201518184015260208101905062000153565b8381111562000180576000848401525b50505050565b60006200019d62000197846200011a565b620000fb565b905082815260208101848484011115620001bc57620001bb62000080565b5b620001c984828562000150565b509392505050565b600082601f830112620001e957620001e86200007b565b5b8151620001fb84826020860162000186565b91505092915050565b6000602082840312156200021d576200021c62000071565b5b600082015167ffffffffffffffff8111156200023e576200023d62000076565b5b6200024c84828501620001d1565b91505092915050565b600081519050919050565b7f4e487b7100000000000000000000000000000000000000000000000000000000600052602260045260246000fd5b60006002820490506001821680620002a857607f821691505b602082108103620002be57620002bd62000260565b5b50919050565b60008190508160005260206000209050919050565b60006020601f8301049050919050565b600082821b905092915050565b600060088302620003287fffffffffffffffffffffffffffffffffffffffffffffffffffffffffffffffff82620002e9565b620003348683620002e9565b95508019841693508086168417925050509392505050565b6000819050919050565b6000819050919050565b6000620003816200037b62000375846200034c565b62000356565b6200034c565b9050919050565b6000819050919050565b6200039d8362000360565b620003b5620003ac8262000388565b848454620002f6565b825550505050565b600090565b620003cc620003bd565b620003d981848462000392565b505050565b5b818110156200040157620003f5600082620003c2565b600181019050620003df565b5050565b601f82111562000450576200041a81620002c4565b6200042584620002d9565b8101602085101562000435578190505b6200044d6200044485620002d9565b830182620003de565b50505b505050565b600082821c905092915050565b6000620004756000198460080262000455565b1980831691505092915050565b600062000490838362000462565b9150826002028217905092915050565b620004ab8262000255565b67ffffffffffffffff811115620004c757620004c662000096565b5b620004d382546200028f565b620004e082828562000405565b600060209050601f83116001811462000518576000841562000503578287015190505b6200050f858262000482565b8655506200057f565b601f1984166200052886620002c4565b60005b8281101562000552578489015182556001820191506020850194506020810190506200052b565b868310156200057257848901516200056e601f89168262000462565b8355505b6001600288020188555050505b505050505050565b610a6180620005976000396000f3fe608060405234801561001057600080fd5b506004361061004c5760003560e01c80634a90be5714610051578063b587e20a1461006f578063b8c9e4ed1461009f578063f5db08d9146100bd575b600080fd5b6100596100ed565b6040516100669190610463565b60405180910390f35b610089600480360381019061008491906105d8565b6100f7565b604051610096919061063c565b60405180910390f35b6100a761011f565b6040516100b491906106df565b60405180910390f35b6100d760048036038101906100d291906105d8565b6101b1565b6040516100e491906107bf565b60405180910390f35b6000600154905090565b60008060405161010791906108e4565b60405180910390208280519060200120149050919050565b60606000805461012e90610810565b80601f016020809104026020016040519081016040528092919081815260200182805461015a90610810565b80156101a75780601f1061017c576101008083540402835291602001916101a7565b820191906000526020600020905b81548152906001019060200180831161018a57829003601f168201915b5050505050905090565b60608060008060015467ffffffffffffffff8111156101d3576101d26104ad565b5b6040519080825280602002602001820160405280156102015781602001602082028036833780820191505090505b5090506000600190505b6001548111610329576102a981826000805461022690610810565b80601f016020809104026020016040519081016040528092919081815260200182805461025290610810565b801561029f5780601f106102745761010080835404028352916020019161029f565b820191906000526020600020905b81548152906001019060200180831161028257829003601f168201915b5050505050610335565b935085805190602001208480519060200120036102e65760018284815181106102d5576102d46108fb565b5b602002602001018181525050610308565b60008284815181106102fb576102fa6108fb565b5b6020026020010181815250505b828061031390610959565b935050808061032190610959565b91505061020b565b50809350505050919050565b606060006001858561034791906109a1565b61035191906109d5565b67ffffffffffffffff81111561036a576103696104ad565b5b6040519080825280601f01601f19166020018201604052801561039c5781602001600182028036833780820191505090505b50905060005b85856103ae91906109a1565b811161043e5783600187836103c391906109d5565b6103cd91906109a1565b815181106103de576103dd6108fb565b5b602001015160f81c60f81b8282815181106103fc576103fb6108fb565b5b60200101907effffffffffffffffffffffffffffffffffffffffffffffffffffffffffffff1916908160001a905350808061043690610959565b9150506103a2565b50809150509392505050565b6000819050919050565b61045d8161044a565b82525050565b60006020820190506104786000830184610454565b92915050565b6000604051905090565b600080fd5b600080fd5b600080fd5b600080fd5b6000601f19601f8301169050919050565b7f4e487b7100000000000000000000000000000000000000000000000000000000600052604160045260246000fd5b6104e58261049c565b810181811067ffffffffffffffff82111715610504576105036104ad565b5b80604052505050565b600061051761047e565b905061052382826104dc565b919050565b600067ffffffffffffffff821115610543576105426104ad565b5b61054c8261049c565b9050602081019050919050565b82818337600083830152505050565b600061057b61057684610528565b61050d565b90508281526020810184848401111561059757610596610497565b5b6105a2848285610559565b509392505050565b600082601f8301126105bf576105be610492565b5b81356105cf848260208601610568565b91505092915050565b6000602082840312156105ee576105ed610488565b5b600082013567ffffffffffffffff81111561060c5761060b61048d565b5b610618848285016105aa565b91505092915050565b60008115159050919050565b61063681610621565b82525050565b6000602082019050610651600083018461062d565b92915050565b600081519050919050565b600082825260208201905092915050565b60005b83811015610691578082015181840152602081019050610676565b838111156106a0576000848401525b50505050565b60006106b182610657565b6106bb8185610662565b93506106cb818560208601610673565b6106d48161049c565b840191505092915050565b600060208201905081810360008301526106f981846106a6565b905092915050565b600081519050919050565b600082825260208201905092915050565b6000819050602082019050919050565b6107368161044a565b82525050565b6000610748838361072d565b60208301905092915050565b6000602082019050919050565b600061076c82610701565b610776818561070c565b93506107818361071d565b8060005b838110156107b2578151610799888261073c565b97506107a483610754565b925050600181019050610785565b5085935050505092915050565b600060208201905081810360008301526107d98184610761565b905092915050565b7f4e487b7100000000000000000000000000000000000000000000000000000000600052602260045260246000fd5b6000600282049050600182168061082857607f821691505b60208210810361083b5761083a6107e1565b5b50919050565b600081905092915050565b60008190508160005260206000209050919050565b6000815461086e81610810565b6108788186610841565b9450600182166000811461089357600181146108a8576108db565b60ff19831686528115158202860193506108db565b6108b18561084c565b60005b838110156108d3578154818901526001820191506020810190506108b4565b838801955050505b50505092915050565b60006108f08284610861565b915081905092915050565b7f4e487b7100000000000000000000000000000000000000000000000000000000600052603260045260246000fd5b7f4e487b7100000000000000000000000000000000000000000000000000000000600052601160045260246000fd5b60006109648261044a565b91507fffffffffffffffffffffffffffffffffffffffffffffffffffffffffffffffff82036109965761099561092a565b5b600182019050919050565b60006109ac8261044a565b91506109b78361044a565b9250828210156109ca576109c961092a565b5b828203905092915050565b60006109e08261044a565b91506109eb8361044a565b9250827fffffffffffffffffffffffffffffffffffffffffffffffffffffffffffffffff03821115610a2057610a1f61092a565b5b82820190509291505056fea26469706673582212200b666f5d7ffc06411f7438d69ea852ff2a3be9e1dc2ccd0fe872969282668c1b64736f6c634300080f0033a264697066735822122040b2c442468237f83b8079aa242eab0b6e64605fde59db7afac9da25c749b73764736f6c634300080f003360806040523480156200001157600080fd5b506040518060400160405280600a81526020017f4861736275436f696e73000000000000000000000000000000000000000000008152506040518060400160405280600381526020017f484153000000000000000000000000000000000000000000000000000000000081525060008260039081620000919190620007d6565b508160049081620000a39190620007d6565b5080600560006101000a81548160ff021916908360ff16021790555050505033600560016101000a81548173ffffffffffffffffffffffffffffffffffffffff021916908373ffffffffffffffffffffffffffffffffffffffff16021790555062000136600560019054906101000a900473ffffffffffffffffffffffffffffffffffffffff166200017a60201b60201c565b62000174600560019054906101000a900473ffffffffffffffffffffffffffffffffffffffff1669d3c21bcecceda10000006200026860201b60201c565b62000c34565b600560019054906101000a900473ffffffffffffffffffffffffffffffffffffffff1673ffffffffffffffffffffffffffffffffffffffff163373ffffffffffffffffffffffffffffffffffffffff16146200020d576040517f08c379a000000000000000000000000000000000000000000000000000000000815260040162000204906200091e565b60405180910390fd5b6001600660008373ffffffffffffffffffffffffffffffffffffffff1673ffffffffffffffffffffffffffffffffffffffff16815260200190815260200160002060006101000a81548160ff02191690831515021790555050565b600660003373ffffffffffffffffffffffffffffffffffffffff1673ffffffffffffffffffffffffffffffffffffffff16815260200190815260200160002060009054906101000a900460ff16620002f7576040517f08c379a0000000000000000000000000000000000000000000000000000000008152600401620002ee9062000990565b60405180910390fd5b6200030982826200030d60201b60201c565b5050565b600073ffffffffffffffffffffffffffffffffffffffff168273ffffffffffffffffffffffffffffffffffffffff16036200037f576040517f08c379a0000000000000000000000000000000000000000000000000000000008152600401620003769062000a28565b60405180910390fd5b6200039b81600254620004f960201b62000b3c1790919060201c565b60028190555069d3c21bcecceda10000006002541115620003f3576040517f08c379a0000000000000000000000000000000000000000000000000000000008152600401620003ea9062000ac0565b60405180910390fd5b6200044b816000808573ffffffffffffffffffffffffffffffffffffffff1673ffffffffffffffffffffffffffffffffffffffff16815260200190815260200160002054620004f960201b62000b3c1790919060201c565b6000808473ffffffffffffffffffffffffffffffffffffffff1673ffffffffffffffffffffffffffffffffffffffff168152602001908152602001600020819055508173ffffffffffffffffffffffffffffffffffffffff16600073ffffffffffffffffffffffffffffffffffffffff167fddf252ad1be2c89b69c2b068fc378daa952ba7f163c4a11628f55a4df523b3ef83604051620004ed919062000af3565b60405180910390a35050565b60008082846200050a919062000b3f565b90508381101562000552576040517f08c379a0000000000000000000000000000000000000000000000000000000008152600401620005499062000c12565b60405180910390fd5b8091505092915050565b600081519050919050565b7f4e487b7100000000000000000000000000000000000000000000000000000000600052604160045260246000fd5b7f4e487b7100000000000000000000000000000000000000000000000000000000600052602260045260246000fd5b60006002820490506001821680620005de57607f821691505b602082108103620005f457620005f362000596565b5b50919050565b60008190508160005260206000209050919050565b60006020601f8301049050919050565b600082821b905092915050565b6000600883026200065e7fffffffffffffffffffffffffffffffffffffffffffffffffffffffffffffffff826200061f565b6200066a86836200061f565b95508019841693508086168417925050509392505050565b6000819050919050565b6000819050919050565b6000620006b7620006b1620006ab8462000682565b6200068c565b62000682565b9050919050565b6000819050919050565b620006d38362000696565b620006eb620006e282620006be565b8484546200062c565b825550505050565b600090565b62000702620006f3565b6200070f818484620006c8565b505050565b5b8181101562000737576200072b600082620006f8565b60018101905062000715565b5050565b601f82111562000786576200075081620005fa565b6200075b846200060f565b810160208510156200076b578190505b620007836200077a856200060f565b83018262000714565b50505b505050565b600082821c905092915050565b6000620007ab600019846008026200078b565b1980831691505092915050565b6000620007c6838362000798565b9150826002028217905092915050565b620007e1826200055c565b67ffffffffffffffff811115620007fd57620007fc62000567565b5b620008098254620005c5565b620008168282856200073b565b600060209050601f8311600181146200084e576000841562000839578287015190505b620008458582620007b8565b865550620008b5565b601f1984166200085e86620005fa565b60005b82811015620008885784890151825560018201915060208501945060208101905062000861565b86831015620008a85784890151620008a4601f89168262000798565b8355505b6001600288020188555050505b505050505050565b600082825260208201905092915050565b7f53696e207065726d69736f7320657370656369616c6573210000000000000000600082015250565b600062000906601883620008bd565b91506200091382620008ce565b602082019050919050565b600060208201905081810360008301526200093981620008f7565b9050919050565b7f53696e207065726d69736f732100000000000000000000000000000000000000600082015250565b600062000978600d83620008bd565b9150620009858262000940565b602082019050919050565b60006020820190508181036000830152620009ab8162000969565b9050919050565b7f45524332303a206167656e74652061206c6120646972656363696f6e2063657260008201527f6f00000000000000000000000000000000000000000000000000000000000000602082015250565b600062000a10602183620008bd565b915062000a1d82620009b2565b604082019050919050565b6000602082019050818103600083015262000a438162000a01565b9050919050565b7f5f746f74616c537570706c7920706f72206578636564657220656c206c696d6960008201527f7465206d6178696d6f0000000000000000000000000000000000000000000000602082015250565b600062000aa8602983620008bd565b915062000ab58262000a4a565b604082019050919050565b6000602082019050818103600083015262000adb8162000a99565b9050919050565b62000aed8162000682565b82525050565b600060208201905062000b0a600083018462000ae2565b92915050565b7f4e487b7100000000000000000000000000000000000000000000000000000000600052601160045260246000fd5b600062000b4c8262000682565b915062000b598362000682565b9250827fffffffffffffffffffffffffffffffffffffffffffffffffffffffffffffffff0382111562000b915762000b9062000b10565b5b828201905092915050565b7f536166654d6174683a20646573626f7264616d69656e746f20656e206c61207360008201527f756d610000000000000000000000000000000000000000000000000000000000602082015250565b600062000bfa602383620008bd565b915062000c078262000b9c565b604082019050919050565b6000602082019050818103600083015262000c2d8162000beb565b9050919050565b611eab8062000c446000396000f3fe608060405234801561001057600080fd5b50600436106101165760003560e01c806342966c68116100a2578063a3e6761011610071578063a3e67610146102df578063a457c2d7146102fd578063a9059cbb1461032d578063dd62ed3e1461035d578063f46eccc41461038d57610116565b806342966c681461025957806370a082311461027557806395d89b41146102a5578063983b2d56146102c357610116565b806323b872dd116100e957806323b872dd146101a35780633092afd5146101d3578063313ce567146101ef578063395093511461020d57806340c10f191461023d57610116565b806306fdde031461011b578063095ea7b31461013957806318160ddd1461016957806318e02bd914610187575b600080fd5b6101236103bd565b6040516101309190611494565b60405180910390f35b610153600480360381019061014e919061154f565b61044f565b60405161016091906115aa565b60405180910390f35b61017161046d565b60405161017e91906115d4565b60405180910390f35b6101a1600480360381019061019c91906115ef565b610477565b005b6101bd60048036038101906101b8919061161c565b61054b565b6040516101ca91906115aa565b60405180910390f35b6101ed60048036038101906101e891906115ef565b610563565b005b6101f761064e565b604051610204919061168b565b60405180910390f35b6102276004803603810190610222919061154f565b610665565b60405161023491906115aa565b60405180910390f35b6102576004803603810190610252919061154f565b610718565b005b610273600480360381019061026e91906116a6565b6107b2565b005b61028f600480360381019061028a91906115ef565b6107bf565b60405161029c91906115d4565b60405180910390f35b6102ad610807565b6040516102ba9190611494565b60405180910390f35b6102dd60048036038101906102d891906115ef565b610899565b005b6102e7610984565b6040516102f491906116e2565b60405180910390f35b6103176004803603810190610312919061154f565b6109aa565b60405161032491906115aa565b60405180910390f35b6103476004803603810190610342919061154f565b610a77565b60405161035491906115aa565b60405180910390f35b610377600480360381019061037291906116fd565b610a95565b60405161038491906115d4565b60405180910390f35b6103a760048036038101906103a291906115ef565b610b1c565b6040516103b491906115aa565b60405180910390f35b6060600380546103cc9061176c565b80601f01602080910402602001604051908101604052809291908181526020018280546103f89061176c565b80156104455780601f1061041a57610100808354040283529160200191610445565b820191906000526020600020905b81548152906001019060200180831161042857829003601f168201915b5050505050905090565b600061046361045c610b9a565b8484610ba2565b6001905092915050565b6000600254905090565b600560019054906101000a900473ffffffffffffffffffffffffffffffffffffffff1673ffffffffffffffffffffffffffffffffffffffff163373ffffffffffffffffffffffffffffffffffffffff1614610507576040517f08c379a00000000000000000000000000000000000000000000000000000000081526004016104fe906117e9565b60405180910390fd5b80600560016101000a81548173ffffffffffffffffffffffffffffffffffffffff021916908373ffffffffffffffffffffffffffffffffffffffff16021790555050565b6000610558848484610d6b565b600190509392505050565b600560019054906101000a900473ffffffffffffffffffffffffffffffffffffffff1673ffffffffffffffffffffffffffffffffffffffff163373ffffffffffffffffffffffffffffffffffffffff16146105f3576040517f08c379a00000000000000000000000000000000000000000000000000000000081526004016105ea906117e9565b60405180910390fd5b6000600660008373ffffffffffffffffffffffffffffffffffffffff1673ffffffffffffffffffffffffffffffffffffffff16815260200190815260200160002060006101000a81548160ff02191690831515021790555050565b6000600560009054906101000a900460ff16905090565b600061070e610672610b9a565b846107098560016000610683610b9a565b73ffffffffffffffffffffffffffffffffffffffff1673ffffffffffffffffffffffffffffffffffffffff16815260200190815260200160002060008973ffffffffffffffffffffffffffffffffffffffff1673ffffffffffffffffffffffffffffffffffffffff16815260200190815260200160002054610b3c90919063ffffffff16565b610ba2565b6001905092915050565b600660003373ffffffffffffffffffffffffffffffffffffffff1673ffffffffffffffffffffffffffffffffffffffff16815260200190815260200160002060009054906101000a900460ff166107a4576040517f08c379a000000000000000000000000000000000000000000000000000000000815260040161079b90611855565b60405180910390fd5b6107ae8282610ff3565b5050565b6107bc33826111c9565b50565b60008060008373ffffffffffffffffffffffffffffffffffffffff1673ffffffffffffffffffffffffffffffffffffffff168152602001908152602001600020549050919050565b6060600480546108169061176c565b80601f01602080910402602001604051908101604052809291908181526020018280546108429061176c565b801561088f5780601f106108645761010080835404028352916020019161088f565b820191906000526020600020905b81548152906001019060200180831161087257829003601f168201915b5050505050905090565b600560019054906101000a900473ffffffffffffffffffffffffffffffffffffffff1673ffffffffffffffffffffffffffffffffffffffff163373ffffffffffffffffffffffffffffffffffffffff1614610929576040517f08c379a0000000000000000000000000000000000000000000000000000000008152600401610920906117e9565b60405180910390fd5b6001600660008373ffffffffffffffffffffffffffffffffffffffff1673ffffffffffffffffffffffffffffffffffffffff16815260200190815260200160002060006101000a81548160ff02191690831515021790555050565b600560019054906101000a900473ffffffffffffffffffffffffffffffffffffffff1681565b6000610a6d6109b7610b9a565b84610a6885604051806060016040528060368152602001611dbf60369139600160006109e1610b9a565b73ffffffffffffffffffffffffffffffffffffffff1673ffffffffffffffffffffffffffffffffffffffff16815260200190815260200160002060008a73ffffffffffffffffffffffffffffffffffffffff1673ffffffffffffffffffffffffffffffffffffffff1681526020019081526020016000205461136a9092919063ffffffff16565b610ba2565b6001905092915050565b6000610a8b610a84610b9a565b8484610d6b565b6001905092915050565b6000600160008473ffffffffffffffffffffffffffffffffffffffff1673ffffffffffffffffffffffffffffffffffffffff16815260200190815260200160002060008373ffffffffffffffffffffffffffffffffffffffff1673ffffffffffffffffffffffffffffffffffffffff16815260200190815260200160002054905092915050565b60066020528060005260406000206000915054906101000a900460ff1681565b6000808284610b4b91906118a4565b905083811015610b90576040517f08c379a0000000000000000000000000000000000000000000000000000000008152600401610b879061196c565b60405180910390fd5b8091505092915050565b600033905090565b600073ffffffffffffffffffffffffffffffffffffffff168373ffffffffffffffffffffffffffffffffffffffff1603610c11576040517f08c379a0000000000000000000000000000000000000000000000000000000008152600401610c08906119fe565b60405180910390fd5b600073ffffffffffffffffffffffffffffffffffffffff168273ffffffffffffffffffffffffffffffffffffffff1603610c80576040517f08c379a0000000000000000000000000000000000000000000000000000000008152600401610c7790611a90565b60405180910390fd5b80600160008573ffffffffffffffffffffffffffffffffffffffff1673ffffffffffffffffffffffffffffffffffffffff16815260200190815260200160002060008473ffffffffffffffffffffffffffffffffffffffff1673ffffffffffffffffffffffffffffffffffffffff168152602001908152602001600020819055508173ffffffffffffffffffffffffffffffffffffffff168373ffffffffffffffffffffffffffffffffffffffff167f8c5be1e5ebec7d5bd14f71427d1e84f3dd0314c0f7b2291e5b200ac8c7c3b92583604051610d5e91906115d4565b60405180910390a3505050565b600073ffffffffffffffffffffffffffffffffffffffff168373ffffffffffffffffffffffffffffffffffffffff1603610dda576040517f08c379a0000000000000000000000000000000000000000000000000000000008152600401610dd190611b22565b60405180910390fd5b600073ffffffffffffffffffffffffffffffffffffffff168273ffffffffffffffffffffffffffffffffffffffff1603610e49576040517f08c379a0000000000000000000000000000000000000000000000000000000008152600401610e4090611bb4565b60405180910390fd5b610eb481604051806060016040528060338152602001611e43603391396000808773ffffffffffffffffffffffffffffffffffffffff1673ffffffffffffffffffffffffffffffffffffffff1681526020019081526020016000205461136a9092919063ffffffff16565b6000808573ffffffffffffffffffffffffffffffffffffffff1673ffffffffffffffffffffffffffffffffffffffff16815260200190815260200160002081905550610f47816000808573ffffffffffffffffffffffffffffffffffffffff1673ffffffffffffffffffffffffffffffffffffffff16815260200190815260200160002054610b3c90919063ffffffff16565b6000808473ffffffffffffffffffffffffffffffffffffffff1673ffffffffffffffffffffffffffffffffffffffff168152602001908152602001600020819055508173ffffffffffffffffffffffffffffffffffffffff168373ffffffffffffffffffffffffffffffffffffffff167fddf252ad1be2c89b69c2b068fc378daa952ba7f163c4a11628f55a4df523b3ef83604051610fe691906115d4565b60405180910390a3505050565b600073ffffffffffffffffffffffffffffffffffffffff168273ffffffffffffffffffffffffffffffffffffffff1603611062576040517f08c379a000000000000000000000000000000000000000000000000000000000815260040161105990611c46565b60405180910390fd5b61107781600254610b3c90919063ffffffff16565b60028190555069d3c21bcecceda100000060025411156110cc576040517f08c379a00000000000000000000000000000000000000000000000000000000081526004016110c390611cd8565b60405180910390fd5b61111d816000808573ffffffffffffffffffffffffffffffffffffffff1673ffffffffffffffffffffffffffffffffffffffff16815260200190815260200160002054610b3c90919063ffffffff16565b6000808473ffffffffffffffffffffffffffffffffffffffff1673ffffffffffffffffffffffffffffffffffffffff168152602001908152602001600020819055508173ffffffffffffffffffffffffffffffffffffffff16600073ffffffffffffffffffffffffffffffffffffffff167fddf252ad1be2c89b69c2b068fc378daa952ba7f163c4a11628f55a4df523b3ef836040516111bd91906115d4565b60405180910390a35050565b600073ffffffffffffffffffffffffffffffffffffffff168273ffffffffffffffffffffffffffffffffffffffff1603611238576040517f08c379a000000000000000000000000000000000000000000000000000000000815260040161122f90611d6a565b60405180910390fd5b6112a3816040518060600160405280602a8152602001611e19602a91396000808673ffffffffffffffffffffffffffffffffffffffff1673ffffffffffffffffffffffffffffffffffffffff1681526020019081526020016000205461136a9092919063ffffffff16565b6000808473ffffffffffffffffffffffffffffffffffffffff1673ffffffffffffffffffffffffffffffffffffffff168152602001908152602001600020819055506112fa816002546113ce90919063ffffffff16565b600281905550600073ffffffffffffffffffffffffffffffffffffffff168273ffffffffffffffffffffffffffffffffffffffff167fddf252ad1be2c89b69c2b068fc378daa952ba7f163c4a11628f55a4df523b3ef8360405161135e91906115d4565b60405180910390a35050565b60008383111582906113b2576040517f08c379a00000000000000000000000000000000000000000000000000000000081526004016113a99190611494565b60405180910390fd5b50600083856113c19190611d8a565b9050809150509392505050565b60006113f38383604051806060016040528060248152602001611df56024913961136a565b905092915050565b600081519050919050565b600082825260208201905092915050565b60005b8381101561143557808201518184015260208101905061141a565b83811115611444576000848401525b50505050565b6000601f19601f8301169050919050565b6000611466826113fb565b6114708185611406565b9350611480818560208601611417565b6114898161144a565b840191505092915050565b600060208201905081810360008301526114ae818461145b565b905092915050565b600080fd5b600073ffffffffffffffffffffffffffffffffffffffff82169050919050565b60006114e6826114bb565b9050919050565b6114f6816114db565b811461150157600080fd5b50565b600081359050611513816114ed565b92915050565b6000819050919050565b61152c81611519565b811461153757600080fd5b50565b60008135905061154981611523565b92915050565b60008060408385031215611566576115656114b6565b5b600061157485828601611504565b92505060206115858582860161153a565b9150509250929050565b60008115159050919050565b6115a48161158f565b82525050565b60006020820190506115bf600083018461159b565b92915050565b6115ce81611519565b82525050565b60006020820190506115e960008301846115c5565b92915050565b600060208284031215611605576116046114b6565b5b600061161384828501611504565b91505092915050565b600080600060608486031215611635576116346114b6565b5b600061164386828701611504565b935050602061165486828701611504565b92505060406116658682870161153a565b9150509250925092565b600060ff82169050919050565b6116858161166f565b82525050565b60006020820190506116a0600083018461167c565b92915050565b6000602082840312156116bc576116bb6114b6565b5b60006116ca8482850161153a565b91505092915050565b6116dc816114db565b82525050565b60006020820190506116f760008301846116d3565b92915050565b60008060408385031215611714576117136114b6565b5b600061172285828601611504565b925050602061173385828601611504565b9150509250929050565b7f4e487b7100000000000000000000000000000000000000000000000000000000600052602260045260246000fd5b6000600282049050600182168061178457607f821691505b6020821081036117975761179661173d565b5b50919050565b7f53696e207065726d69736f7320657370656369616c6573210000000000000000600082015250565b60006117d3601883611406565b91506117de8261179d565b602082019050919050565b60006020820190508181036000830152611802816117c6565b9050919050565b7f53696e207065726d69736f732100000000000000000000000000000000000000600082015250565b600061183f600d83611406565b915061184a82611809565b602082019050919050565b6000602082019050818103600083015261186e81611832565b9050919050565b7f4e487b7100000000000000000000000000000000000000000000000000000000600052601160045260246000fd5b60006118af82611519565b91506118ba83611519565b9250827fffffffffffffffffffffffffffffffffffffffffffffffffffffffffffffffff038211156118ef576118ee611875565b5b828201905092915050565b7f536166654d6174683a20646573626f7264616d69656e746f20656e206c61207360008201527f756d610000000000000000000000000000000000000000000000000000000000602082015250565b6000611956602383611406565b9150611961826118fa565b604082019050919050565b6000602082019050818103600083015261198581611949565b9050919050565b7f45524332303a206170726f626172206465736465206c6120646972656363696f60008201527f6e206365726f0000000000000000000000000000000000000000000000000000602082015250565b60006119e8602683611406565b91506119f38261198c565b604082019050919050565b60006020820190508181036000830152611a17816119db565b9050919050565b7f45524332303a206170726f6261722061206c6120646972656363696f6e20636560008201527f726f000000000000000000000000000000000000000000000000000000000000602082015250565b6000611a7a602283611406565b9150611a8582611a1e565b604082019050919050565b60006020820190508181036000830152611aa981611a6d565b9050919050565b7f45524332303a207472616e73666572656e636961206465736465206c6120646960008201527f72656363696f6e206365726f0000000000000000000000000000000000000000602082015250565b6000611b0c602c83611406565b9150611b1782611ab0565b604082019050919050565b60006020820190508181036000830152611b3b81611aff565b9050919050565b7f45524332303a207472616e7366657269722061206c6120646972656363696f6e60008201527f206365726f000000000000000000000000000000000000000000000000000000602082015250565b6000611b9e602583611406565b9150611ba982611b42565b604082019050919050565b60006020820190508181036000830152611bcd81611b91565b9050919050565b7f45524332303a206167656e74652061206c6120646972656363696f6e2063657260008201527f6f00000000000000000000000000000000000000000000000000000000000000602082015250565b6000611c30602183611406565b9150611c3b82611bd4565b604082019050919050565b60006020820190508181036000830152611c5f81611c23565b9050919050565b7f5f746f74616c537570706c7920706f72206578636564657220656c206c696d6960008201527f7465206d6178696d6f0000000000000000000000000000000000000000000000602082015250565b6000611cc2602983611406565b9150611ccd82611c66565b604082019050919050565b60006020820190508181036000830152611cf181611cb5565b9050919050565b7f45524332303a207175656d6172206465736465206c6120646972656363696f6e60008201527f206365726f000000000000000000000000000000000000000000000000000000602082015250565b6000611d54602583611406565b9150611d5f82611cf8565b604082019050919050565b60006020820190508181036000830152611d8381611d47565b9050919050565b6000611d9582611519565b9150611da083611519565b925082821015611db357611db2611875565b5b82820390509291505056fe45524332303a206469736d696e7563696f6e206465206c6120617369676e6163696f6e20706f7220646562616a6f206465206365726f536166654d6174683a20646573626f7264616d69656e746f20656e206c6120726573746145524332303a206c612063616e7469646164207175656d6164612065786365646520656c2073616c646f45524332303a20656c206d6f6e746f206465206c61207472616e73666572656e6369612065786365646520656c2073616c646fa2646970667358221220c122edfe2aa99d067d309a02a080d5cf8fbba1f7782fc04f3463730cee7139e164736f6c634300080f003360806040523480156200001157600080fd5b5060405162000ff838038062000ff8833981810160405281019062000037919062000204565b8060009081620000489190620004a0565b506000805462000058906200028f565b90506001819055505062000587565b6000604051905090565b600080fd5b600080fd5b600080fd5b600080fd5b6000601f19601f8301169050919050565b7f4e487b7100000000000000000000000000000000000000000000000000000000600052604160045260246000fd5b620000d08262000085565b810181811067ffffffffffffffff82111715620000f257620000f162000096565b5b80604052505050565b60006200010762000067565b9050620001158282620000c5565b919050565b600067ffffffffffffffff82111562000138576200013762000096565b5b620001438262000085565b9050602081019050919050565b60005b838110156200017057808201518184015260208101905062000153565b8381111562000180576000848401525b50505050565b60006200019d62000197846200011a565b620000fb565b905082815260208101848484011115620001bc57620001bb62000080565b5b620001c984828562000150565b509392505050565b600082601f830112620001e957620001e86200007b565b5b8151620001fb84826020860162000186565b91505092915050565b6000602082840312156200021d576200021c62000071565b5b600082015167ffffffffffffffff8111156200023e576200023d62000076565b5b6200024c84828501620001d1565b91505092915050565b600081519050919050565b7f4e487b7100000000000000000000000000000000000000000000000000000000600052602260045260246000fd5b60006002820490506001821680620002a857607f821691505b602082108103620002be57620002bd62000260565b5b50919050565b60008190508160005260206000209050919050565b60006020601f8301049050919050565b600082821b905092915050565b600060088302620003287fffffffffffffffffffffffffffffffffffffffffffffffffffffffffffffffff82620002e9565b620003348683620002e9565b95508019841693508086168417925050509392505050565b6000819050919050565b6000819050919050565b6000620003816200037b62000375846200034c565b62000356565b6200034c565b9050919050565b6000819050919050565b6200039d8362000360565b620003b5620003ac8262000388565b848454620002f6565b825550505050565b600090565b620003cc620003bd565b620003d981848462000392565b505050565b5b818110156200040157620003f5600082620003c2565b600181019050620003df565b5050565b601f82111562000450576200041a81620002c4565b6200042584620002d9565b8101602085101562000435578190505b6200044d6200044485620002d9565b830182620003de565b50505b505050565b600082821c905092915050565b6000620004756000198460080262000455565b1980831691505092915050565b600062000490838362000462565b9150826002028217905092915050565b620004ab8262000255565b67ffffffffffffffff811115620004c757620004c662000096565b5b620004d382546200028f565b620004e082828562000405565b600060209050601f83116001811462000518576000841562000503578287015190505b6200050f858262000482565b8655506200057f565b601f1984166200052886620002c4565b60005b8281101562000552578489015182556001820191506020850194506020810190506200052b565b868310156200057257848901516200056e601f89168262000462565b8355505b6001600288020188555050505b505050505050565b610a6180620005976000396000f3fe608060405234801561001057600080fd5b506004361061004c5760003560e01c80634a90be5714610051578063b587e20a1461006f578063b8c9e4ed1461009f578063f5db08d9146100bd575b600080fd5b6100596100ed565b6040516100669190610463565b60405180910390f35b610089600480360381019061008491906105d8565b6100f7565b604051610096919061063c565b60405180910390f35b6100a761011f565b6040516100b491906106df565b60405180910390f35b6100d760048036038101906100d291906105d8565b6101b1565b6040516100e491906107bf565b60405180910390f35b6000600154905090565b60008060405161010791906108e4565b60405180910390208280519060200120149050919050565b60606000805461012e90610810565b80601f016020809104026020016040519081016040528092919081815260200182805461015a90610810565b80156101a75780601f1061017c576101008083540402835291602001916101a7565b820191906000526020600020905b81548152906001019060200180831161018a57829003601f168201915b5050505050905090565b60608060008060015467ffffffffffffffff8111156101d3576101d26104ad565b5b6040519080825280602002602001820160405280156102015781602001602082028036833780820191505090505b5090506000600190505b6001548111610329576102a981826000805461022690610810565b80601f016020809104026020016040519081016040528092919081815260200182805461025290610810565b801561029f5780601f106102745761010080835404028352916020019161029f565b820191906000526020600020905b81548152906001019060200180831161028257829003601f168201915b5050505050610335565b935085805190602001208480519060200120036102e65760018284815181106102d5576102d46108fb565b5b602002602001018181525050610308565b60008284815181106102fb576102fa6108fb565b5b6020026020010181815250505b828061031390610959565b935050808061032190610959565b91505061020b565b50809350505050919050565b606060006001858561034791906109a1565b61035191906109d5565b67ffffffffffffffff81111561036a576103696104ad565b5b6040519080825280601f01601f19166020018201604052801561039c5781602001600182028036833780820191505090505b50905060005b85856103ae91906109a1565b811161043e5783600187836103c391906109d5565b6103cd91906109a1565b815181106103de576103dd6108fb565b5b602001015160f81c60f81b8282815181106103fc576103fb6108fb565b5b60200101907effffffffffffffffffffffffffffffffffffffffffffffffffffffffffffff1916908160001a905350808061043690610959565b9150506103a2565b50809150509392505050565b6000819050919050565b61045d8161044a565b82525050565b60006020820190506104786000830184610454565b92915050565b6000604051905090565b600080fd5b600080fd5b600080fd5b600080fd5b6000601f19601f8301169050919050565b7f4e487b7100000000000000000000000000000000000000000000000000000000600052604160045260246000fd5b6104e58261049c565b810181811067ffffffffffffffff82111715610504576105036104ad565b5b80604052505050565b600061051761047e565b905061052382826104dc565b919050565b600067ffffffffffffffff821115610543576105426104ad565b5b61054c8261049c565b9050602081019050919050565b82818337600083830152505050565b600061057b61057684610528565b61050d565b90508281526020810184848401111561059757610596610497565b5b6105a2848285610559565b509392505050565b600082601f8301126105bf576105be610492565b5b81356105cf848260208601610568565b91505092915050565b6000602082840312156105ee576105ed610488565b5b600082013567ffffffffffffffff81111561060c5761060b61048d565b5b610618848285016105aa565b91505092915050565b60008115159050919050565b61063681610621565b82525050565b6000602082019050610651600083018461062d565b92915050565b600081519050919050565b600082825260208201905092915050565b60005b83811015610691578082015181840152602081019050610676565b838111156106a0576000848401525b50505050565b60006106b182610657565b6106bb8185610662565b93506106cb818560208601610673565b6106d48161049c565b840191505092915050565b600060208201905081810360008301526106f981846106a6565b905092915050565b600081519050919050565b600082825260208201905092915050565b6000819050602082019050919050565b6107368161044a565b82525050565b6000610748838361072d565b60208301905092915050565b6000602082019050919050565b600061076c82610701565b610776818561070c565b93506107818361071d565b8060005b838110156107b2578151610799888261073c565b97506107a483610754565b925050600181019050610785565b5085935050505092915050565b600060208201905081810360008301526107d98184610761565b905092915050565b7f4e487b7100000000000000000000000000000000000000000000000000000000600052602260045260246000fd5b6000600282049050600182168061082857607f821691505b60208210810361083b5761083a6107e1565b5b50919050565b600081905092915050565b60008190508160005260206000209050919050565b6000815461086e81610810565b6108788186610841565b9450600182166000811461089357600181146108a8576108db565b60ff19831686528115158202860193506108db565b6108b18561084c565b60005b838110156108d3578154818901526001820191506020810190506108b4565b838801955050505b50505092915050565b60006108f08284610861565b915081905092915050565b7f4e487b7100000000000000000000000000000000000000000000000000000000600052603260045260246000fd5b7f4e487b7100000000000000000000000000000000000000000000000000000000600052601160045260246000fd5b60006109648261044a565b91507fffffffffffffffffffffffffffffffffffffffffffffffffffffffffffffffff82036109965761099561092a565b5b600182019050919050565b60006109ac8261044a565b91506109b78361044a565b9250828210156109ca576109c961092a565b5b828203905092915050565b60006109e08261044a565b91506109eb8361044a565b9250827fffffffffffffffffffffffffffffffffffffffffffffffffffffffffffffffff03821115610a2057610a1f61092a565b5b82820190509291505056fea26469706673582212200b666f5d7ffc06411f7438d69ea852ff2a3be9e1dc2ccd0fe872969282668c1b64736f6c634300080f0033",
  "immutableReferences": {},
  "source": "import \"./Word.sol\";\r\nimport \"./Jugador.sol\";\r\nimport \"./ERC20.sol\";\r\n\r\n// SPDX-License-Identifier: GPL-3.0\r\npragma solidity >=0.6.0  <0.9.0;\r\n\r\n// solo lo puede llamar jugador\r\n\r\n\r\ncontract Juego{\r\n    mapping(address => uint) idByAddress;\r\n    mapping(Word => address) wordOwner;\r\n    HasbuCoins balances;\r\n    uint256 randNonce = 0;\r\n    uint initBalance  = 5; \r\n\r\n    Word[] private words;\r\n    uint256 private idCount = 1; // ID 0 sera el id del juego, para las palabras creadas por el mismo juego\r\n    \r\n     modifier onlyJugador(uint id){\r\n        require(idByAddress[msg.sender] == id);\r\n        _;\r\n    }\r\n\r\n    constructor(){\r\n        string[10] memory inits = [\"mandato\", \"quizas\", \"ayer\", \"mientras\", \"soleado\", \"maravilla\", \"astuto\", \"raton\", \"mudanza\", \"llegando\" ];\r\n        idByAddress[address(this)] = 0;\r\n        for(uint i=0; i<inits.length; i++){\r\n            _crearPalabra(inits[i], 0);\r\n        }\r\n        \r\n        balances = new HasbuCoins();\r\n    }\r\n\r\n\r\n \r\n   function crearJugador() public returns (uint){\r\n       idCount++;\r\n       idByAddress[msg.sender] = idCount;\r\n       balances.addMinter(msg.sender);\r\n       balances.transferFrom(address(this), msg.sender, 50);\r\n       return idCount;\r\n   }\r\n\r\n    function _crearPalabra(string memory str, uint id) public onlyJugador(id) returns(uint){\r\n        // Modificador: solo id jugador puede llamar a esto\r\n        Word word = new Word(str);\r\n        wordOwner[word] = msg.sender;\r\n        words.push(word);\r\n        return words.length;\r\n    }\r\n\r\n\r\n    function _elegirPalabra(address sender) private returns(Word){\r\n        require(words.length > 0); // Nos fijamos que haya alguna palabra antes\r\n        require(balances.balanceOf(sender) >= 5); // nos fijamos que tenga al menos 5 monedas para ejecutar la transaccion\r\n        balances.transferFrom(sender, address(this), 5);\r\n        uint indice = uint(keccak256(abi.encodePacked(randNonce, block.timestamp, sender))) %  words.length ;\r\n        randNonce++;\r\n        Word word = words[indice];\r\n        require(wordOwner[word] != sender); // me fijo que la palabra asignada no sea creada por el jugador\r\n        return word;\r\n    }\r\n\r\n    function elegirPalabra(uint id) public onlyJugador(id) returns(Word){\r\n        return _elegirPalabra(msg.sender);\r\n    }\r\n \r\n    function hasbuBalance(uint id) public view onlyJugador(id) returns(uint){\r\n        return balances.balanceOf(msg.sender);\r\n    }\r\n\r\n    function ping() public view returns(string memory){\r\n        return \"pong\";\r\n    }\r\n\r\n    fallback() external payable{}\r\n    receive() external payable{}\r\n    \r\n}",
  "sourcePath": "C:\\Users\\Manu\\Desktop\\tp TDL\\rama truffle\\tdl-solidity\\contracts\\Juego.sol",
  "compiler": {
    "name": "solc",
    "version": "0.8.15+commit.e14f2714.Emscripten.clang"
  },
  "schemaVersion": "3.4.7",
  "updatedAt": "2022-07-12T21:00:36.912Z",
  "networkType": "ethereum",
  "devdoc": {
    "kind": "dev",
    "methods": {},
    "version": 1
  },
  "userdoc": {
    "kind": "user",
    "methods": {},
    "version": 1
  }
}