{
  "contractName": "Juego",
  "abi": [
    {
      "inputs": [],
      "stateMutability": "nonpayable",
      "type": "constructor"
    },
    {
      "anonymous": false,
      "inputs": [
        {
          "indexed": false,
          "internalType": "address",
          "name": "add",
          "type": "address"
        }
      ],
      "name": "AddressWord",
      "type": "event"
    },
    {
      "anonymous": false,
      "inputs": [
        {
          "indexed": true,
          "internalType": "address",
          "name": "previousOwner",
          "type": "address"
        },
        {
          "indexed": true,
          "internalType": "address",
          "name": "newOwner",
          "type": "address"
        }
      ],
      "name": "OwnershipTransferred",
      "type": "event"
    },
    {
      "stateMutability": "payable",
      "type": "fallback",
      "payable": true
    },
    {
      "inputs": [],
      "name": "owner",
      "outputs": [
        {
          "internalType": "address",
          "name": "",
          "type": "address"
        }
      ],
      "stateMutability": "view",
      "type": "function",
      "constant": true
    },
    {
      "inputs": [
        {
          "internalType": "address",
          "name": "newOwner",
          "type": "address"
        }
      ],
      "name": "transferOwnership",
      "outputs": [],
      "stateMutability": "nonpayable",
      "type": "function"
    },
    {
      "stateMutability": "payable",
      "type": "receive",
      "payable": true
    },
    {
      "inputs": [],
      "name": "crearJugador",
      "outputs": [],
      "stateMutability": "nonpayable",
      "type": "function"
    },
    {
      "inputs": [],
      "name": "getID",
      "outputs": [
        {
          "internalType": "uint256",
          "name": "",
          "type": "uint256"
        }
      ],
      "stateMutability": "view",
      "type": "function",
      "constant": true
    },
    {
      "inputs": [
        {
          "internalType": "address",
          "name": "add",
          "type": "address"
        }
      ],
      "name": "_crearPalabra",
      "outputs": [],
      "stateMutability": "nonpayable",
      "type": "function"
    },
    {
      "inputs": [
        {
          "internalType": "string",
          "name": "str",
          "type": "string"
        }
      ],
      "name": "crearPalabra",
      "outputs": [],
      "stateMutability": "nonpayable",
      "type": "function"
    },
    {
      "inputs": [],
      "name": "elegirPalabra",
      "outputs": [
        {
          "internalType": "address",
          "name": "",
          "type": "address"
        }
      ],
      "stateMutability": "nonpayable",
      "type": "function"
    },
    {
      "inputs": [],
      "name": "ping",
      "outputs": [
        {
          "internalType": "string",
          "name": "",
          "type": "string"
        }
      ],
      "stateMutability": "pure",
      "type": "function",
      "constant": true
    }
  ],
  "bytecode": "0x60806040526000600355600160055534801561001a57600080fd5b50336000806101000a81548173ffffffffffffffffffffffffffffffffffffffff021916908373ffffffffffffffffffffffffffffffffffffffff16021790555060018060003373ffffffffffffffffffffffffffffffffffffffff1673ffffffffffffffffffffffffffffffffffffffff16815260200190815260200160002081905550611ff1806100ae6000396000f3fe6080604052600436106200008b5760003560e01c80638da5cb5b11620000555780638da5cb5b1462000151578063ab9dbd071462000181578063f2fde38b14620001b1578063fe1c254314620001df5762000093565b80630f0355da14620000955780634baaa9aa14620000c557806351b6447f14620000f35780635c36b18614620001215762000093565b366200009357005b005b348015620000a257600080fd5b50620000ad620001f9565b604051620000bc919062000a3b565b60405180910390f35b348015620000d257600080fd5b50620000f16004803603810190620000eb919062000a9d565b6200028f565b005b3480156200010057600080fd5b506200011f600480360381019062000119919062000c31565b620003cc565b005b3480156200012e57600080fd5b506200013962000573565b60405162000148919062000d15565b60405180910390f35b3480156200015e57600080fd5b5062000169620005b0565b60405162000178919062000a3b565b60405180910390f35b3480156200018e57600080fd5b5062000199620005d4565b604051620001a8919062000d54565b60405180910390f35b348015620001be57600080fd5b50620001dd6004803603810190620001d7919062000a9d565b6200069f565b005b348015620001ec57600080fd5b50620001f7620007ef565b005b600080600160003373ffffffffffffffffffffffffffffffffffffffff1673ffffffffffffffffffffffffffffffffffffffff16815260200190815260200160002054036200027f576040517f08c379a0000000000000000000000000000000000000000000000000000000008152600401620002769062000dc1565b60405180910390fd5b6200028a3362000851565b905090565b60008054906101000a900473ffffffffffffffffffffffffffffffffffffffff1673ffffffffffffffffffffffffffffffffffffffff163373ffffffffffffffffffffffffffffffffffffffff1614620002e857600080fd5b33600260008373ffffffffffffffffffffffffffffffffffffffff1673ffffffffffffffffffffffffffffffffffffffff16815260200190815260200160002060006101000a81548173ffffffffffffffffffffffffffffffffffffffff021916908373ffffffffffffffffffffffffffffffffffffffff1602179055506004819080600181540180825580915050600190039060005260206000200160009091909190916101000a81548173ffffffffffffffffffffffffffffffffffffffff021916908373ffffffffffffffffffffffffffffffffffffffff16021790555050565b6000600160003373ffffffffffffffffffffffffffffffffffffffff1673ffffffffffffffffffffffffffffffffffffffff168152602001908152602001600020540362000451576040517f08c379a0000000000000000000000000000000000000000000000000000000008152600401620004489062000dc1565b60405180910390fd5b6000816040516200046290620009e8565b6200046e919062000d15565b604051809103906000f0801580156200048b573d6000803e3d6000fd5b50905033600260008373ffffffffffffffffffffffffffffffffffffffff1673ffffffffffffffffffffffffffffffffffffffff16815260200190815260200160002060006101000a81548173ffffffffffffffffffffffffffffffffffffffff021916908373ffffffffffffffffffffffffffffffffffffffff1602179055506004819080600181540180825580915050600190039060005260206000200160009091909190916101000a81548173ffffffffffffffffffffffffffffffffffffffff021916908373ffffffffffffffffffffffffffffffffffffffff1602179055505050565b60606040518060400160405280600481526020017f706f6e6700000000000000000000000000000000000000000000000000000000815250905090565b60008054906101000a900473ffffffffffffffffffffffffffffffffffffffff1681565b600080600160003373ffffffffffffffffffffffffffffffffffffffff1673ffffffffffffffffffffffffffffffffffffffff16815260200190815260200160002054036200065a576040517f08c379a0000000000000000000000000000000000000000000000000000000008152600401620006519062000dc1565b60405180910390fd5b600160003373ffffffffffffffffffffffffffffffffffffffff1673ffffffffffffffffffffffffffffffffffffffff16815260200190815260200160002054905090565b60008054906101000a900473ffffffffffffffffffffffffffffffffffffffff1673ffffffffffffffffffffffffffffffffffffffff163373ffffffffffffffffffffffffffffffffffffffff1614620006f857600080fd5b600073ffffffffffffffffffffffffffffffffffffffff168173ffffffffffffffffffffffffffffffffffffffff16036200073257600080fd5b8073ffffffffffffffffffffffffffffffffffffffff1660008054906101000a900473ffffffffffffffffffffffffffffffffffffffff1673ffffffffffffffffffffffffffffffffffffffff167f8be0079c531659141344cd1fd0a4f28419497f9722a3daafe3b4186f6b6457e060405160405180910390a3806000806101000a81548173ffffffffffffffffffffffffffffffffffffffff021916908373ffffffffffffffffffffffffffffffffffffffff16021790555050565b60056000815480929190620008049062000e12565b9190505550600554600160003373ffffffffffffffffffffffffffffffffffffffff1673ffffffffffffffffffffffffffffffffffffffff16815260200190815260200160002081905550565b600080600480549050116200086557600080fd5b60006004805490506003544285604051602001620008869392919062000ed4565b6040516020818303038152906040528051906020012060001c620008ab919062000f46565b905060036000815480929190620008c29062000e12565b9190505550600060048281548110620008e057620008df62000f7e565b5b9060005260206000200160009054906101000a900473ffffffffffffffffffffffffffffffffffffffff1690508373ffffffffffffffffffffffffffffffffffffffff16600260008373ffffffffffffffffffffffffffffffffffffffff1673ffffffffffffffffffffffffffffffffffffffff16815260200190815260200160002060009054906101000a900473ffffffffffffffffffffffffffffffffffffffff1673ffffffffffffffffffffffffffffffffffffffff1603620009a557600080fd5b7f72decc00bf832e18e33100d9e3bffeec8d662eb855d43bcc0f42f9b72d73dac381604051620009d6919062000a3b565b60405180910390a18092505050919050565b61100e8062000fae83390190565b600073ffffffffffffffffffffffffffffffffffffffff82169050919050565b600062000a2382620009f6565b9050919050565b62000a358162000a16565b82525050565b600060208201905062000a52600083018462000a2a565b92915050565b6000604051905090565b600080fd5b600080fd5b62000a778162000a16565b811462000a8357600080fd5b50565b60008135905062000a978162000a6c565b92915050565b60006020828403121562000ab65762000ab562000a62565b5b600062000ac68482850162000a86565b91505092915050565b600080fd5b600080fd5b6000601f19601f8301169050919050565b7f4e487b7100000000000000000000000000000000000000000000000000000000600052604160045260246000fd5b62000b248262000ad9565b810181811067ffffffffffffffff8211171562000b465762000b4562000aea565b5b80604052505050565b600062000b5b62000a58565b905062000b69828262000b19565b919050565b600067ffffffffffffffff82111562000b8c5762000b8b62000aea565b5b62000b978262000ad9565b9050602081019050919050565b82818337600083830152505050565b600062000bca62000bc48462000b6e565b62000b4f565b90508281526020810184848401111562000be95762000be862000ad4565b5b62000bf684828562000ba4565b509392505050565b600082601f83011262000c165762000c1562000acf565b5b813562000c2884826020860162000bb3565b91505092915050565b60006020828403121562000c4a5762000c4962000a62565b5b600082013567ffffffffffffffff81111562000c6b5762000c6a62000a67565b5b62000c798482850162000bfe565b91505092915050565b600081519050919050565b600082825260208201905092915050565b60005b8381101562000cbe57808201518184015260208101905062000ca1565b8381111562000cce576000848401525b50505050565b600062000ce18262000c82565b62000ced818562000c8d565b935062000cff81856020860162000c9e565b62000d0a8162000ad9565b840191505092915050565b6000602082019050818103600083015262000d31818462000cd4565b905092915050565b6000819050919050565b62000d4e8162000d39565b82525050565b600060208201905062000d6b600083018462000d43565b92915050565b7f616361206d61657374726f000000000000000000000000000000000000000000600082015250565b600062000da9600b8362000c8d565b915062000db68262000d71565b602082019050919050565b6000602082019050818103600083015262000ddc8162000d9a565b9050919050565b7f4e487b7100000000000000000000000000000000000000000000000000000000600052601160045260246000fd5b600062000e1f8262000d39565b91507fffffffffffffffffffffffffffffffffffffffffffffffffffffffffffffffff820362000e545762000e5362000de3565b5b600182019050919050565b6000819050919050565b62000e7e62000e788262000d39565b62000e5f565b82525050565b60008160601b9050919050565b600062000e9e8262000e84565b9050919050565b600062000eb28262000e91565b9050919050565b62000ece62000ec88262000a16565b62000ea5565b82525050565b600062000ee2828662000e69565b60208201915062000ef4828562000e69565b60208201915062000f06828462000eb9565b601482019150819050949350505050565b7f4e487b7100000000000000000000000000000000000000000000000000000000600052601260045260246000fd5b600062000f538262000d39565b915062000f608362000d39565b92508262000f735762000f7262000f17565b5b828206905092915050565b7f4e487b7100000000000000000000000000000000000000000000000000000000600052603260045260246000fdfe60806040523480156200001157600080fd5b506040516200100e3803806200100e833981810160405281019062000037919062000204565b8060009081620000489190620004a0565b506000805462000058906200028f565b90506001819055505062000587565b6000604051905090565b600080fd5b600080fd5b600080fd5b600080fd5b6000601f19601f8301169050919050565b7f4e487b7100000000000000000000000000000000000000000000000000000000600052604160045260246000fd5b620000d08262000085565b810181811067ffffffffffffffff82111715620000f257620000f162000096565b5b80604052505050565b60006200010762000067565b9050620001158282620000c5565b919050565b600067ffffffffffffffff82111562000138576200013762000096565b5b620001438262000085565b9050602081019050919050565b60005b838110156200017057808201518184015260208101905062000153565b8381111562000180576000848401525b50505050565b60006200019d62000197846200011a565b620000fb565b905082815260208101848484011115620001bc57620001bb62000080565b5b620001c984828562000150565b509392505050565b600082601f830112620001e957620001e86200007b565b5b8151620001fb84826020860162000186565b91505092915050565b6000602082840312156200021d576200021c62000071565b5b600082015167ffffffffffffffff8111156200023e576200023d62000076565b5b6200024c84828501620001d1565b91505092915050565b600081519050919050565b7f4e487b7100000000000000000000000000000000000000000000000000000000600052602260045260246000fd5b60006002820490506001821680620002a857607f821691505b602082108103620002be57620002bd62000260565b5b50919050565b60008190508160005260206000209050919050565b60006020601f8301049050919050565b600082821b905092915050565b600060088302620003287fffffffffffffffffffffffffffffffffffffffffffffffffffffffffffffffff82620002e9565b620003348683620002e9565b95508019841693508086168417925050509392505050565b6000819050919050565b6000819050919050565b6000620003816200037b62000375846200034c565b62000356565b6200034c565b9050919050565b6000819050919050565b6200039d8362000360565b620003b5620003ac8262000388565b848454620002f6565b825550505050565b600090565b620003cc620003bd565b620003d981848462000392565b505050565b5b818110156200040157620003f5600082620003c2565b600181019050620003df565b5050565b601f82111562000450576200041a81620002c4565b6200042584620002d9565b8101602085101562000435578190505b6200044d6200044485620002d9565b830182620003de565b50505b505050565b600082821c905092915050565b6000620004756000198460080262000455565b1980831691505092915050565b600062000490838362000462565b9150826002028217905092915050565b620004ab8262000255565b67ffffffffffffffff811115620004c757620004c662000096565b5b620004d382546200028f565b620004e082828562000405565b600060209050601f83116001811462000518576000841562000503578287015190505b6200050f858262000482565b8655506200057f565b601f1984166200052886620002c4565b60005b8281101562000552578489015182556001820191506020850194506020810190506200052b565b868310156200057257848901516200056e601f89168262000462565b8355505b6001600288020188555050505b505050505050565b610a7780620005976000396000f3fe608060405234801561001057600080fd5b506004361061004c5760003560e01c80634a90be5714610051578063b587e20a1461006f578063b8c9e4ed1461009f578063f5db08d9146100bd575b600080fd5b6100596100ed565b6040516100669190610559565b60405180910390f35b610089600480360381019061008491906106ce565b6100f7565b6040516100969190610732565b60405180910390f35b6100a761011f565b6040516100b491906107d5565b60405180910390f35b6100d760048036038101906100d291906106ce565b6101b1565b6040516100e491906107d5565b60405180910390f35b6000600154905090565b60008060405161010791906108fa565b60405180910390208280519060200120149050919050565b60606000805461012e90610826565b80601f016020809104026020016040519081016040528092919081815260200182805461015a90610826565b80156101a75780601f1061017c576101008083540402835291602001916101a7565b820191906000526020600020905b81548152906001019060200180831161018a57829003601f168201915b5050505050905090565b60608060008060015467ffffffffffffffff8111156101d3576101d26105a3565b5b6040519080825280601f01601f1916602001820160405280156102055781602001600182028036833780820191505090505b5090506000600190505b60015481116103e2576102ad81826000805461022a90610826565b80601f016020809104026020016040519081016040528092919081815260200182805461025690610826565b80156102a35780601f10610278576101008083540402835291602001916102a3565b820191906000526020600020905b81548152906001019060200180831161028657829003601f168201915b505050505061042b565b9350858051906020012084805190602001200361032a57836000815181106102d8576102d7610911565b5b602001015160f81c60f81b8284815181106102f6576102f5610911565b5b60200101907effffffffffffffffffffffffffffffffffffffffffffffffffffffffffffff1916908160001a9053506103c1565b6040518060400160405280600181526020017f2d0000000000000000000000000000000000000000000000000000000000000081525060008151811061037357610372610911565b5b602001015160f81c60f81b82848151811061039157610390610911565b5b60200101907effffffffffffffffffffffffffffffffffffffffffffffffffffffffffffff1916908160001a9053505b82806103cc9061096f565b93505080806103da9061096f565b91505061020f565b5060008190507fe0946fc24725e44d3504b73816ee9a9bad8140f33101592fc0590d704d0495188160405161041791906107d5565b60405180910390a180945050505050919050565b606060006001858561043d91906109b7565b61044791906109eb565b67ffffffffffffffff8111156104605761045f6105a3565b5b6040519080825280601f01601f1916602001820160405280156104925781602001600182028036833780820191505090505b50905060005b85856104a491906109b7565b81116105345783600187836104b991906109eb565b6104c391906109b7565b815181106104d4576104d3610911565b5b602001015160f81c60f81b8282815181106104f2576104f1610911565b5b60200101907effffffffffffffffffffffffffffffffffffffffffffffffffffffffffffff1916908160001a905350808061052c9061096f565b915050610498565b50809150509392505050565b6000819050919050565b61055381610540565b82525050565b600060208201905061056e600083018461054a565b92915050565b6000604051905090565b600080fd5b600080fd5b600080fd5b600080fd5b6000601f19601f8301169050919050565b7f4e487b7100000000000000000000000000000000000000000000000000000000600052604160045260246000fd5b6105db82610592565b810181811067ffffffffffffffff821117156105fa576105f96105a3565b5b80604052505050565b600061060d610574565b905061061982826105d2565b919050565b600067ffffffffffffffff821115610639576106386105a3565b5b61064282610592565b9050602081019050919050565b82818337600083830152505050565b600061067161066c8461061e565b610603565b90508281526020810184848401111561068d5761068c61058d565b5b61069884828561064f565b509392505050565b600082601f8301126106b5576106b4610588565b5b81356106c584826020860161065e565b91505092915050565b6000602082840312156106e4576106e361057e565b5b600082013567ffffffffffffffff81111561070257610701610583565b5b61070e848285016106a0565b91505092915050565b60008115159050919050565b61072c81610717565b82525050565b60006020820190506107476000830184610723565b92915050565b600081519050919050565b600082825260208201905092915050565b60005b8381101561078757808201518184015260208101905061076c565b83811115610796576000848401525b50505050565b60006107a78261074d565b6107b18185610758565b93506107c1818560208601610769565b6107ca81610592565b840191505092915050565b600060208201905081810360008301526107ef818461079c565b905092915050565b7f4e487b7100000000000000000000000000000000000000000000000000000000600052602260045260246000fd5b6000600282049050600182168061083e57607f821691505b602082108103610851576108506107f7565b5b50919050565b600081905092915050565b60008190508160005260206000209050919050565b6000815461088481610826565b61088e8186610857565b945060018216600081146108a957600181146108be576108f1565b60ff19831686528115158202860193506108f1565b6108c785610862565b60005b838110156108e9578154818901526001820191506020810190506108ca565b838801955050505b50505092915050565b60006109068284610877565b915081905092915050565b7f4e487b7100000000000000000000000000000000000000000000000000000000600052603260045260246000fd5b7f4e487b7100000000000000000000000000000000000000000000000000000000600052601160045260246000fd5b600061097a82610540565b91507fffffffffffffffffffffffffffffffffffffffffffffffffffffffffffffffff82036109ac576109ab610940565b5b600182019050919050565b60006109c282610540565b91506109cd83610540565b9250828210156109e0576109df610940565b5b828203905092915050565b60006109f682610540565b9150610a0183610540565b9250827fffffffffffffffffffffffffffffffffffffffffffffffffffffffffffffffff03821115610a3657610a35610940565b5b82820190509291505056fea2646970667358221220fed3c0ef2830e8b73f67dfb370e5ec801f221ceb6bc390085a70f8774408b92864736f6c634300080f0033a2646970667358221220ca49cfb7f51b884b3ee367b342cdb5d23aecc9eaf2af52a628189edb9e78003664736f6c634300080f0033",
  "immutableReferences": {},
  "source": "import \"./Word.sol\";\r\nimport \"./Ownable.sol\";\r\n\r\n// SPDX-License-Identifier: GPL-3.0\r\npragma solidity >=0.6.0  <0.9.0;\r\n\r\n// solo lo puede llamar jugador\r\n\r\n\r\ncontract Juego is Ownable{\r\n    mapping(address => uint) idByAddress;\r\n    mapping(address => address) wordOwner;\r\n    uint256 randNonce = 0;\r\n\r\n    event AddressWord(address add);\r\n\r\n    address[] private words;\r\n    uint256 private idCount = 1; // ID 1 sera el id del juego, para las palabras creadas por el mismo juego\r\n    \r\n     modifier onlyJugador(){\r\n        require(idByAddress[msg.sender] != 0, \"aca maestro\");\r\n        _;\r\n    }\r\n\r\n    constructor() {\r\n        idByAddress[msg.sender] = 1;\r\n    }\r\n\r\n   function crearJugador() public{\r\n       idCount++;\r\n       idByAddress[msg.sender] = idCount;\r\n   }\r\n\r\n   function getID() public view onlyJugador returns(uint){\r\n        return idByAddress[msg.sender];\r\n   }\r\n   function _crearPalabra(address add) public onlyOwner{\r\n    wordOwner[add] = msg.sender;\r\n    words.push(add);\r\n   }\r\n\r\n    function crearPalabra(string memory str) public onlyJugador{\r\n        // Modificador: solo id jugador puede llamar a esto\r\n        Word word = new Word(str);\r\n        wordOwner[address(word)] = msg.sender;\r\n        words.push(address(word));\r\n    }\r\n\r\n\r\n    function _elegirPalabra(address sender) private returns(address){\r\n        require(words.length > 0); // Nos fijamos que haya alguna palabra antes\r\n        uint indice = uint(keccak256(abi.encodePacked(randNonce, block.timestamp, sender))) %  words.length ;\r\n        randNonce++;\r\n        address addWord = words[indice];\r\n        require(wordOwner[addWord] != sender); // me fijo que la palabra asignada no sea creada por el jugador\r\n        emit AddressWord(addWord);\r\n        return addWord;\r\n    }\r\n\r\n    function elegirPalabra() public onlyJugador returns(address){\r\n        return _elegirPalabra(msg.sender);\r\n    }\r\n\r\n    function ping() public pure returns (string memory){\r\n        return \"pong\";\r\n    }\r\n\r\n    fallback() external payable{}\r\n    receive() external payable{}\r\n    \r\n}",
  "sourcePath": "C:\\Users\\Manu\\Desktop\\tp TDL\\clonado19 1554\\tdl-solidity\\contracts\\Juego.sol",
  "compiler": {
    "name": "solc",
    "version": "0.8.15+commit.e14f2714.Emscripten.clang"
  },
  "schemaVersion": "3.4.7",
  "updatedAt": "2022-07-19T19:12:56.579Z",
  "networkType": "ethereum",
  "devdoc": {
    "kind": "dev",
    "methods": {
      "transferOwnership(address)": {
        "details": "Allows the current owner to transfer control of the contract to a newOwner.",
        "params": {
          "newOwner": "The address to transfer ownership to."
        }
      }
    },
    "version": 1
  },
  "userdoc": {
    "kind": "user",
    "methods": {},
    "version": 1
  }
}