{
  "contractName": "Jugador",
  "abi": [
    {
      "inputs": [
        {
          "internalType": "address payable",
          "name": "_cont",
          "type": "address"
        }
      ],
      "stateMutability": "nonpayable",
      "type": "constructor"
    },
    {
      "anonymous": false,
      "inputs": [
        {
          "indexed": true,
          "internalType": "address",
          "name": "previousOwner",
          "type": "address"
        },
        {
          "indexed": true,
          "internalType": "address",
          "name": "newOwner",
          "type": "address"
        }
      ],
      "name": "OwnershipTransferred",
      "type": "event"
    },
    {
      "inputs": [],
      "name": "owner",
      "outputs": [
        {
          "internalType": "address",
          "name": "",
          "type": "address"
        }
      ],
      "stateMutability": "view",
      "type": "function"
    },
    {
      "inputs": [
        {
          "internalType": "address",
          "name": "newOwner",
          "type": "address"
        }
      ],
      "name": "transferOwnership",
      "outputs": [],
      "stateMutability": "nonpayable",
      "type": "function"
    },
    {
      "inputs": [],
      "name": "getID",
      "outputs": [
        {
          "internalType": "uint256",
          "name": "",
          "type": "uint256"
        }
      ],
      "stateMutability": "view",
      "type": "function"
    },
    {
      "inputs": [
        {
          "internalType": "string",
          "name": "_str",
          "type": "string"
        }
      ],
      "name": "crearPalabra",
      "outputs": [],
      "stateMutability": "nonpayable",
      "type": "function"
    },
    {
      "inputs": [],
      "name": "elegirPalabra",
      "outputs": [
        {
          "internalType": "contract Word",
          "name": "",
          "type": "address"
        }
      ],
      "stateMutability": "nonpayable",
      "type": "function"
    },
    {
      "inputs": [
        {
          "internalType": "string",
          "name": "l",
          "type": "string"
        }
      ],
      "name": "apostarLetra",
      "outputs": [
        {
          "internalType": "uint256[]",
          "name": "",
          "type": "uint256[]"
        }
      ],
      "stateMutability": "view",
      "type": "function"
    },
    {
      "inputs": [],
      "name": "hasbuBalance",
      "outputs": [
        {
          "internalType": "uint256",
          "name": "",
          "type": "uint256"
        }
      ],
      "stateMutability": "view",
      "type": "function"
    },
    {
      "inputs": [],
      "name": "balanceC",
      "outputs": [
        {
          "internalType": "uint256",
          "name": "",
          "type": "uint256"
        }
      ],
      "stateMutability": "view",
      "type": "function"
    }
  ],
  "bytecode": "0x60806040523480156200001157600080fd5b50604051620022a8380380620022a883398181016040528101906200003791906200028b565b336000806101000a81548173ffffffffffffffffffffffffffffffffffffffff021916908373ffffffffffffffffffffffffffffffffffffffff16021790555080600460006101000a81548173ffffffffffffffffffffffffffffffffffffffff021916908373ffffffffffffffffffffffffffffffffffffffff16021790555080600260006101000a81548173ffffffffffffffffffffffffffffffffffffffff021916908373ffffffffffffffffffffffffffffffffffffffff160217905550600260009054906101000a900473ffffffffffffffffffffffffffffffffffffffff1673ffffffffffffffffffffffffffffffffffffffff1663fe1c25436040518163ffffffff1660e01b81526004016020604051808303816000875af115801562000169573d6000803e3d6000fd5b505050506040513d601f19601f820116820180604052508101906200018f9190620002f8565b600181905550604051620001a39062000213565b620001ae9062000365565b604051809103906000f080158015620001cb573d6000803e3d6000fd5b50600360006101000a81548173ffffffffffffffffffffffffffffffffffffffff021916908373ffffffffffffffffffffffffffffffffffffffff1602179055505062000387565b610ff880620012b083390190565b600080fd5b600073ffffffffffffffffffffffffffffffffffffffff82169050919050565b6000620002538262000226565b9050919050565b620002658162000246565b81146200027157600080fd5b50565b60008151905062000285816200025a565b92915050565b600060208284031215620002a457620002a362000221565b5b6000620002b48482850162000274565b91505092915050565b6000819050919050565b620002d281620002bd565b8114620002de57600080fd5b50565b600081519050620002f281620002c7565b92915050565b60006020828403121562000311576200031062000221565b5b60006200032184828501620002e1565b91505092915050565b600082825260208201905092915050565b50565b60006200034d6000836200032a565b91506200035a826200033b565b600082019050919050565b6000602082019050818103600083015262000380816200033e565b9050919050565b610f1980620003976000396000f3fe608060405234801561001057600080fd5b50600436106100885760003560e01c8063ab9dbd071161005b578063ab9dbd0714610103578063b0ea68f314610121578063b655d65314610151578063f2fde38b1461016f57610088565b80630f0355da1461008d5780634dc20506146100ab57806351b6447f146100c95780638da5cb5b146100e5575b600080fd5b61009561018b565b6040516100a291906108cd565b60405180910390f35b6100b36102d2565b6040516100c09190610901565b60405180910390f35b6100e360048036038101906100de9190610a76565b6103d0565b005b6100ed6104d2565b6040516100fa9190610ae0565b60405180910390f35b61010b6104f6565b6040516101189190610901565b60405180910390f35b61013b60048036038101906101369190610a76565b610500565b6040516101489190610bb9565b60405180910390f35b61015961069f565b6040516101669190610901565b60405180910390f35b61018960048036038101906101849190610c07565b610700565b005b60008060009054906101000a900473ffffffffffffffffffffffffffffffffffffffff1673ffffffffffffffffffffffffffffffffffffffff163373ffffffffffffffffffffffffffffffffffffffff16146101e657600080fd5b6000600260009054906101000a900473ffffffffffffffffffffffffffffffffffffffff1673ffffffffffffffffffffffffffffffffffffffff166347ac0cd46001546040518263ffffffff1660e01b81526004016102459190610901565b6020604051808303816000875af1158015610264573d6000803e3d6000fd5b505050506040513d601f19601f820116820180604052508101906102889190610c72565b905080600360006101000a81548173ffffffffffffffffffffffffffffffffffffffff021916908373ffffffffffffffffffffffffffffffffffffffff1602179055508091505090565b60008060009054906101000a900473ffffffffffffffffffffffffffffffffffffffff1673ffffffffffffffffffffffffffffffffffffffff163373ffffffffffffffffffffffffffffffffffffffff161461032d57600080fd5b600260009054906101000a900473ffffffffffffffffffffffffffffffffffffffff1673ffffffffffffffffffffffffffffffffffffffff1663ca8eee996001546040518263ffffffff1660e01b815260040161038a9190610901565b602060405180830381865afa1580156103a7573d6000803e3d6000fd5b505050506040513d601f19601f820116820180604052508101906103cb9190610ccb565b905090565b60008054906101000a900473ffffffffffffffffffffffffffffffffffffffff1673ffffffffffffffffffffffffffffffffffffffff163373ffffffffffffffffffffffffffffffffffffffff161461042857600080fd5b6000600260009054906101000a900473ffffffffffffffffffffffffffffffffffffffff1673ffffffffffffffffffffffffffffffffffffffff16632801ba8a836001546040518363ffffffff1660e01b8152600401610489929190610d80565b6020604051808303816000875af11580156104a8573d6000803e3d6000fd5b505050506040513d601f19601f820116820180604052508101906104cc9190610ccb565b90505050565b60008054906101000a900473ffffffffffffffffffffffffffffffffffffffff1681565b6000600154905090565b606060008054906101000a900473ffffffffffffffffffffffffffffffffffffffff1673ffffffffffffffffffffffffffffffffffffffff163373ffffffffffffffffffffffffffffffffffffffff161461055a57600080fd5b6000600360009054906101000a900473ffffffffffffffffffffffffffffffffffffffff1673ffffffffffffffffffffffffffffffffffffffff16634a90be576040518163ffffffff1660e01b8152600401602060405180830381865afa1580156105c9573d6000803e3d6000fd5b505050506040513d601f19601f820116820180604052508101906105ed9190610ccb565b036105f757600080fd5b600360009054906101000a900473ffffffffffffffffffffffffffffffffffffffff1673ffffffffffffffffffffffffffffffffffffffff1663f5db08d9836040518263ffffffff1660e01b81526004016106529190610db0565b600060405180830381865afa15801561066f573d6000803e3d6000fd5b505050506040513d6000823e3d601f19601f820116820180604052508101906106989190610e9a565b9050919050565b60008060009054906101000a900473ffffffffffffffffffffffffffffffffffffffff1673ffffffffffffffffffffffffffffffffffffffff163373ffffffffffffffffffffffffffffffffffffffff16146106fa57600080fd5b47905090565b60008054906101000a900473ffffffffffffffffffffffffffffffffffffffff1673ffffffffffffffffffffffffffffffffffffffff163373ffffffffffffffffffffffffffffffffffffffff161461075857600080fd5b600073ffffffffffffffffffffffffffffffffffffffff168173ffffffffffffffffffffffffffffffffffffffff160361079157600080fd5b8073ffffffffffffffffffffffffffffffffffffffff1660008054906101000a900473ffffffffffffffffffffffffffffffffffffffff1673ffffffffffffffffffffffffffffffffffffffff167f8be0079c531659141344cd1fd0a4f28419497f9722a3daafe3b4186f6b6457e060405160405180910390a3806000806101000a81548173ffffffffffffffffffffffffffffffffffffffff021916908373ffffffffffffffffffffffffffffffffffffffff16021790555050565b600073ffffffffffffffffffffffffffffffffffffffff82169050919050565b6000819050919050565b600061089361088e6108898461084e565b61086e565b61084e565b9050919050565b60006108a582610878565b9050919050565b60006108b78261089a565b9050919050565b6108c7816108ac565b82525050565b60006020820190506108e260008301846108be565b92915050565b6000819050919050565b6108fb816108e8565b82525050565b600060208201905061091660008301846108f2565b92915050565b6000604051905090565b600080fd5b600080fd5b600080fd5b600080fd5b6000601f19601f8301169050919050565b7f4e487b7100000000000000000000000000000000000000000000000000000000600052604160045260246000fd5b6109838261093a565b810181811067ffffffffffffffff821117156109a2576109a161094b565b5b80604052505050565b60006109b561091c565b90506109c1828261097a565b919050565b600067ffffffffffffffff8211156109e1576109e061094b565b5b6109ea8261093a565b9050602081019050919050565b82818337600083830152505050565b6000610a19610a14846109c6565b6109ab565b905082815260208101848484011115610a3557610a34610935565b5b610a408482856109f7565b509392505050565b600082601f830112610a5d57610a5c610930565b5b8135610a6d848260208601610a06565b91505092915050565b600060208284031215610a8c57610a8b610926565b5b600082013567ffffffffffffffff811115610aaa57610aa961092b565b5b610ab684828501610a48565b91505092915050565b6000610aca8261084e565b9050919050565b610ada81610abf565b82525050565b6000602082019050610af56000830184610ad1565b92915050565b600081519050919050565b600082825260208201905092915050565b6000819050602082019050919050565b610b30816108e8565b82525050565b6000610b428383610b27565b60208301905092915050565b6000602082019050919050565b6000610b6682610afb565b610b708185610b06565b9350610b7b83610b17565b8060005b83811015610bac578151610b938882610b36565b9750610b9e83610b4e565b925050600181019050610b7f565b5085935050505092915050565b60006020820190508181036000830152610bd38184610b5b565b905092915050565b610be481610abf565b8114610bef57600080fd5b50565b600081359050610c0181610bdb565b92915050565b600060208284031215610c1d57610c1c610926565b5b6000610c2b84828501610bf2565b91505092915050565b6000610c3f82610abf565b9050919050565b610c4f81610c34565b8114610c5a57600080fd5b50565b600081519050610c6c81610c46565b92915050565b600060208284031215610c8857610c87610926565b5b6000610c9684828501610c5d565b91505092915050565b610ca8816108e8565b8114610cb357600080fd5b50565b600081519050610cc581610c9f565b92915050565b600060208284031215610ce157610ce0610926565b5b6000610cef84828501610cb6565b91505092915050565b600081519050919050565b600082825260208201905092915050565b60005b83811015610d32578082015181840152602081019050610d17565b83811115610d41576000848401525b50505050565b6000610d5282610cf8565b610d5c8185610d03565b9350610d6c818560208601610d14565b610d758161093a565b840191505092915050565b60006040820190508181036000830152610d9a8185610d47565b9050610da960208301846108f2565b9392505050565b60006020820190508181036000830152610dca8184610d47565b905092915050565b600067ffffffffffffffff821115610ded57610dec61094b565b5b602082029050602081019050919050565b600080fd5b6000610e16610e1184610dd2565b6109ab565b90508083825260208201905060208402830185811115610e3957610e38610dfe565b5b835b81811015610e625780610e4e8882610cb6565b845260208401935050602081019050610e3b565b5050509392505050565b600082601f830112610e8157610e80610930565b5b8151610e91848260208601610e03565b91505092915050565b600060208284031215610eb057610eaf610926565b5b600082015167ffffffffffffffff811115610ece57610ecd61092b565b5b610eda84828501610e6c565b9150509291505056fea264697066735822122011e5a99ebefcfba25a5463d081dc80a965210c61b79700f98cc40c38bdd80d9964736f6c634300080f003360806040523480156200001157600080fd5b5060405162000ff838038062000ff8833981810160405281019062000037919062000204565b8060009081620000489190620004a0565b506000805462000058906200028f565b90506001819055505062000587565b6000604051905090565b600080fd5b600080fd5b600080fd5b600080fd5b6000601f19601f8301169050919050565b7f4e487b7100000000000000000000000000000000000000000000000000000000600052604160045260246000fd5b620000d08262000085565b810181811067ffffffffffffffff82111715620000f257620000f162000096565b5b80604052505050565b60006200010762000067565b9050620001158282620000c5565b919050565b600067ffffffffffffffff82111562000138576200013762000096565b5b620001438262000085565b9050602081019050919050565b60005b838110156200017057808201518184015260208101905062000153565b8381111562000180576000848401525b50505050565b60006200019d62000197846200011a565b620000fb565b905082815260208101848484011115620001bc57620001bb62000080565b5b620001c984828562000150565b509392505050565b600082601f830112620001e957620001e86200007b565b5b8151620001fb84826020860162000186565b91505092915050565b6000602082840312156200021d576200021c62000071565b5b600082015167ffffffffffffffff8111156200023e576200023d62000076565b5b6200024c84828501620001d1565b91505092915050565b600081519050919050565b7f4e487b7100000000000000000000000000000000000000000000000000000000600052602260045260246000fd5b60006002820490506001821680620002a857607f821691505b602082108103620002be57620002bd62000260565b5b50919050565b60008190508160005260206000209050919050565b60006020601f8301049050919050565b600082821b905092915050565b600060088302620003287fffffffffffffffffffffffffffffffffffffffffffffffffffffffffffffffff82620002e9565b620003348683620002e9565b95508019841693508086168417925050509392505050565b6000819050919050565b6000819050919050565b6000620003816200037b62000375846200034c565b62000356565b6200034c565b9050919050565b6000819050919050565b6200039d8362000360565b620003b5620003ac8262000388565b848454620002f6565b825550505050565b600090565b620003cc620003bd565b620003d981848462000392565b505050565b5b818110156200040157620003f5600082620003c2565b600181019050620003df565b5050565b601f82111562000450576200041a81620002c4565b6200042584620002d9565b8101602085101562000435578190505b6200044d6200044485620002d9565b830182620003de565b50505b505050565b600082821c905092915050565b6000620004756000198460080262000455565b1980831691505092915050565b600062000490838362000462565b9150826002028217905092915050565b620004ab8262000255565b67ffffffffffffffff811115620004c757620004c662000096565b5b620004d382546200028f565b620004e082828562000405565b600060209050601f83116001811462000518576000841562000503578287015190505b6200050f858262000482565b8655506200057f565b601f1984166200052886620002c4565b60005b8281101562000552578489015182556001820191506020850194506020810190506200052b565b868310156200057257848901516200056e601f89168262000462565b8355505b6001600288020188555050505b505050505050565b610a6180620005976000396000f3fe608060405234801561001057600080fd5b506004361061004c5760003560e01c80634a90be5714610051578063b587e20a1461006f578063b8c9e4ed1461009f578063f5db08d9146100bd575b600080fd5b6100596100ed565b6040516100669190610463565b60405180910390f35b610089600480360381019061008491906105d8565b6100f7565b604051610096919061063c565b60405180910390f35b6100a761011f565b6040516100b491906106df565b60405180910390f35b6100d760048036038101906100d291906105d8565b6101b1565b6040516100e491906107bf565b60405180910390f35b6000600154905090565b60008060405161010791906108e4565b60405180910390208280519060200120149050919050565b60606000805461012e90610810565b80601f016020809104026020016040519081016040528092919081815260200182805461015a90610810565b80156101a75780601f1061017c576101008083540402835291602001916101a7565b820191906000526020600020905b81548152906001019060200180831161018a57829003601f168201915b5050505050905090565b60608060008060015467ffffffffffffffff8111156101d3576101d26104ad565b5b6040519080825280602002602001820160405280156102015781602001602082028036833780820191505090505b5090506000600190505b6001548111610329576102a981826000805461022690610810565b80601f016020809104026020016040519081016040528092919081815260200182805461025290610810565b801561029f5780601f106102745761010080835404028352916020019161029f565b820191906000526020600020905b81548152906001019060200180831161028257829003601f168201915b5050505050610335565b935085805190602001208480519060200120036102e65760018284815181106102d5576102d46108fb565b5b602002602001018181525050610308565b60008284815181106102fb576102fa6108fb565b5b6020026020010181815250505b828061031390610959565b935050808061032190610959565b91505061020b565b50809350505050919050565b606060006001858561034791906109a1565b61035191906109d5565b67ffffffffffffffff81111561036a576103696104ad565b5b6040519080825280601f01601f19166020018201604052801561039c5781602001600182028036833780820191505090505b50905060005b85856103ae91906109a1565b811161043e5783600187836103c391906109d5565b6103cd91906109a1565b815181106103de576103dd6108fb565b5b602001015160f81c60f81b8282815181106103fc576103fb6108fb565b5b60200101907effffffffffffffffffffffffffffffffffffffffffffffffffffffffffffff1916908160001a905350808061043690610959565b9150506103a2565b50809150509392505050565b6000819050919050565b61045d8161044a565b82525050565b60006020820190506104786000830184610454565b92915050565b6000604051905090565b600080fd5b600080fd5b600080fd5b600080fd5b6000601f19601f8301169050919050565b7f4e487b7100000000000000000000000000000000000000000000000000000000600052604160045260246000fd5b6104e58261049c565b810181811067ffffffffffffffff82111715610504576105036104ad565b5b80604052505050565b600061051761047e565b905061052382826104dc565b919050565b600067ffffffffffffffff821115610543576105426104ad565b5b61054c8261049c565b9050602081019050919050565b82818337600083830152505050565b600061057b61057684610528565b61050d565b90508281526020810184848401111561059757610596610497565b5b6105a2848285610559565b509392505050565b600082601f8301126105bf576105be610492565b5b81356105cf848260208601610568565b91505092915050565b6000602082840312156105ee576105ed610488565b5b600082013567ffffffffffffffff81111561060c5761060b61048d565b5b610618848285016105aa565b91505092915050565b60008115159050919050565b61063681610621565b82525050565b6000602082019050610651600083018461062d565b92915050565b600081519050919050565b600082825260208201905092915050565b60005b83811015610691578082015181840152602081019050610676565b838111156106a0576000848401525b50505050565b60006106b182610657565b6106bb8185610662565b93506106cb818560208601610673565b6106d48161049c565b840191505092915050565b600060208201905081810360008301526106f981846106a6565b905092915050565b600081519050919050565b600082825260208201905092915050565b6000819050602082019050919050565b6107368161044a565b82525050565b6000610748838361072d565b60208301905092915050565b6000602082019050919050565b600061076c82610701565b610776818561070c565b93506107818361071d565b8060005b838110156107b2578151610799888261073c565b97506107a483610754565b925050600181019050610785565b5085935050505092915050565b600060208201905081810360008301526107d98184610761565b905092915050565b7f4e487b7100000000000000000000000000000000000000000000000000000000600052602260045260246000fd5b6000600282049050600182168061082857607f821691505b60208210810361083b5761083a6107e1565b5b50919050565b600081905092915050565b60008190508160005260206000209050919050565b6000815461086e81610810565b6108788186610841565b9450600182166000811461089357600181146108a8576108db565b60ff19831686528115158202860193506108db565b6108b18561084c565b60005b838110156108d3578154818901526001820191506020810190506108b4565b838801955050505b50505092915050565b60006108f08284610861565b915081905092915050565b7f4e487b7100000000000000000000000000000000000000000000000000000000600052603260045260246000fd5b7f4e487b7100000000000000000000000000000000000000000000000000000000600052601160045260246000fd5b60006109648261044a565b91507fffffffffffffffffffffffffffffffffffffffffffffffffffffffffffffffff82036109965761099561092a565b5b600182019050919050565b60006109ac8261044a565b91506109b78361044a565b9250828210156109ca576109c961092a565b5b828203905092915050565b60006109e08261044a565b91506109eb8361044a565b9250827fffffffffffffffffffffffffffffffffffffffffffffffffffffffffffffffff03821115610a2057610a1f61092a565b5b82820190509291505056fea26469706673582212200b666f5d7ffc06411f7438d69ea852ff2a3be9e1dc2ccd0fe872969282668c1b64736f6c634300080f0033",
  "immutableReferences": {},
  "source": "// SPDX-License-Identifier: GPL-3.0\r\npragma solidity >=0.6.0  <0.9.0;\r\n// Nexo ente juego y palabra\r\n// ownable\r\nimport \"./Juego.sol\";\r\nimport \"./Ownable.sol\";\r\nimport \"./Word.sol\";\r\n\r\n\r\n\r\n\r\ncontract Jugador is Ownable {\r\n\r\n    uint id;\r\n    Juego juego;\r\n    Word actual;\r\n    address payable contJuego;\r\n    \r\n    constructor(address payable _cont){\r\n        contJuego = _cont;\r\n        juego = Juego(_cont);\r\n        id = juego.crearJugador();\r\n        actual = new Word(\"\");\r\n    }\r\n\r\n    function getID() public view  returns (uint){\r\n        return id;\r\n    }\r\n\r\n    function crearPalabra(string memory _str) public onlyOwner{\r\n        uint idW;\r\n        idW = juego._crearPalabra(_str, id);\r\n    }\r\n\r\n    function elegirPalabra() public onlyOwner returns (Word){\r\n        Word word  = juego.elegirPalabra(id);\r\n        actual = word;\r\n        return word;\r\n\r\n    }\r\n\r\n    function apostarLetra(string memory l) public view onlyOwner returns(uint[] memory){\r\n        require(actual.getLen() != 0);\r\n        // me fijo que no haya seleccionado una letra\r\n        return actual.index(l);\r\n    }\r\n\r\n\r\n    // balance de hasbuCoins\r\n    function hasbuBalance() public view onlyOwner returns (uint){\r\n        return juego.hasbuBalance(id);\r\n    }\r\n\r\n    function balanceC() public view onlyOwner returns (uint){\r\n        return address(this).balance;\r\n    }\r\n\r\n   \r\n\r\n}",
  "sourcePath": "C:\\Users\\Manu\\Desktop\\tp TDL\\rama truffle\\tdl-solidity\\contracts\\Jugador.sol",
  "compiler": {
    "name": "solc",
    "version": "0.8.15+commit.e14f2714.Emscripten.clang"
  },
  "schemaVersion": "3.4.7",
  "updatedAt": "2022-07-13T03:04:08.447Z",
  "devdoc": {
    "kind": "dev",
    "methods": {
      "transferOwnership(address)": {
        "details": "Allows the current owner to transfer control of the contract to a newOwner.",
        "params": {
          "newOwner": "The address to transfer ownership to."
        }
      }
    },
    "version": 1
  },
  "userdoc": {
    "kind": "user",
    "methods": {},
    "version": 1
  }
}